{"abi":[{"type":"function","name":"DEFAULT_ADMIN_ROLE","inputs":[],"outputs":[{"name":"","type":"bytes32","internalType":"bytes32"}],"stateMutability":"view"},{"type":"function","name":"UPGRADE_INTERFACE_VERSION","inputs":[],"outputs":[{"name":"","type":"string","internalType":"string"}],"stateMutability":"view"},{"type":"function","name":"approve","inputs":[{"name":"to","type":"address","internalType":"address"},{"name":"tokenId","type":"uint256","internalType":"uint256"}],"outputs":[],"stateMutability":"nonpayable"},{"type":"function","name":"balanceOf","inputs":[{"name":"owner","type":"address","internalType":"address"}],"outputs":[{"name":"","type":"uint256","internalType":"uint256"}],"stateMutability":"view"},{"type":"function","name":"eip712Domain","inputs":[],"outputs":[{"name":"fields","type":"bytes1","internalType":"bytes1"},{"name":"name","type":"string","internalType":"string"},{"name":"version","type":"string","internalType":"string"},{"name":"chainId","type":"uint256","internalType":"uint256"},{"name":"verifyingContract","type":"address","internalType":"address"},{"name":"salt","type":"bytes32","internalType":"bytes32"},{"name":"extensions","type":"uint256[]","internalType":"uint256[]"}],"stateMutability":"view"},{"type":"function","name":"getAllMetadata","inputs":[{"name":"hash","type":"bytes32","internalType":"bytes32"}],"outputs":[{"name":"metadata","type":"tuple[]","internalType":"struct MetadataStorage.Metadata[]","components":[{"name":"key","type":"string","internalType":"string"},{"name":"value","type":"string","internalType":"string"}]}],"stateMutability":"view"},{"type":"function","name":"getAllMetadata","inputs":[{"name":"tokenId","type":"uint256","internalType":"uint256"}],"outputs":[{"name":"metadata","type":"tuple[]","internalType":"struct MetadataStorage.Metadata[]","components":[{"name":"key","type":"string","internalType":"string"},{"name":"value","type":"string","internalType":"string"}]}],"stateMutability":"view"},{"type":"function","name":"getAllMetadataKeys","inputs":[{"name":"hash","type":"bytes32","internalType":"bytes32"}],"outputs":[{"name":"keys","type":"string[]","internalType":"string[]"}],"stateMutability":"view"},{"type":"function","name":"getApproved","inputs":[{"name":"tokenId","type":"uint256","internalType":"uint256"}],"outputs":[{"name":"","type":"address","internalType":"address"}],"stateMutability":"view"},{"type":"function","name":"getMetadata","inputs":[{"name":"hash","type":"bytes32","internalType":"bytes32"},{"name":"key","type":"string","internalType":"string"}],"outputs":[{"name":"value","type":"string","internalType":"string"}],"stateMutability":"view"},{"type":"function","name":"getMetadata","inputs":[{"name":"tokenId","type":"uint256","internalType":"uint256"},{"name":"key","type":"string","internalType":"string"}],"outputs":[{"name":"value","type":"string","internalType":"string"}],"stateMutability":"view"},{"type":"function","name":"getMetadataCount","inputs":[{"name":"hash","type":"bytes32","internalType":"bytes32"}],"outputs":[{"name":"count","type":"uint256","internalType":"uint256"}],"stateMutability":"view"},{"type":"function","name":"getMetadataCount","inputs":[{"name":"tokenId","type":"uint256","internalType":"uint256"}],"outputs":[{"name":"count","type":"uint256","internalType":"uint256"}],"stateMutability":"view"},{"type":"function","name":"getMetadataKeys","inputs":[{"name":"tokenId","type":"uint256","internalType":"uint256"}],"outputs":[{"name":"keys","type":"string[]","internalType":"string[]"}],"stateMutability":"view"},{"type":"function","name":"getRoleAdmin","inputs":[{"name":"role","type":"bytes32","internalType":"bytes32"}],"outputs":[{"name":"","type":"bytes32","internalType":"bytes32"}],"stateMutability":"view"},{"type":"function","name":"getUupsImplementation","inputs":[],"outputs":[{"name":"","type":"address","internalType":"address"}],"stateMutability":"view"},{"type":"function","name":"grantRole","inputs":[{"name":"role","type":"bytes32","internalType":"bytes32"},{"name":"account","type":"address","internalType":"address"}],"outputs":[],"stateMutability":"nonpayable"},{"type":"function","name":"hasMetadata","inputs":[{"name":"tokenId","type":"uint256","internalType":"uint256"},{"name":"key","type":"string","internalType":"string"}],"outputs":[{"name":"exists","type":"bool","internalType":"bool"}],"stateMutability":"view"},{"type":"function","name":"hasMetadata","inputs":[{"name":"hash","type":"bytes32","internalType":"bytes32"},{"name":"key","type":"string","internalType":"string"}],"outputs":[{"name":"exists","type":"bool","internalType":"bool"}],"stateMutability":"view"},{"type":"function","name":"hasRole","inputs":[{"name":"role","type":"bytes32","internalType":"bytes32"},{"name":"account","type":"address","internalType":"address"}],"outputs":[{"name":"","type":"bool","internalType":"bool"}],"stateMutability":"view"},{"type":"function","name":"hashLeaseIntent","inputs":[{"name":"L","type":"tuple","internalType":"struct LeaseFactory.LeaseIntent","components":[{"name":"deadline","type":"uint64","internalType":"uint64"},{"name":"assetType","type":"bytes32","internalType":"bytes32"},{"name":"lease","type":"tuple","internalType":"struct LeaseFactory.Lease","components":[{"name":"lessor","type":"address","internalType":"address"},{"name":"lessee","type":"address","internalType":"address"},{"name":"assetId","type":"uint256","internalType":"uint256"},{"name":"paymentToken","type":"address","internalType":"address"},{"name":"rentAmount","type":"uint256","internalType":"uint256"},{"name":"rentPeriod","type":"uint256","internalType":"uint256"},{"name":"securityDeposit","type":"uint256","internalType":"uint256"},{"name":"startTime","type":"uint64","internalType":"uint64"},{"name":"endTime","type":"uint64","internalType":"uint64"},{"name":"legalDocHash","type":"bytes32","internalType":"bytes32"},{"name":"termsVersion","type":"uint16","internalType":"uint16"},{"name":"metadata","type":"tuple[]","internalType":"struct MetadataStorage.Metadata[]","components":[{"name":"key","type":"string","internalType":"string"},{"name":"value","type":"string","internalType":"string"}]}]}]}],"outputs":[{"name":"","type":"bytes32","internalType":"bytes32"}],"stateMutability":"view"},{"type":"function","name":"initialize","inputs":[{"name":"admin","type":"address","internalType":"address"},{"name":"upgrader","type":"address","internalType":"address"},{"name":"assetRegistry","type":"address","internalType":"address"}],"outputs":[],"stateMutability":"nonpayable"},{"type":"function","name":"isApprovedForAll","inputs":[{"name":"owner","type":"address","internalType":"address"},{"name":"operator","type":"address","internalType":"address"}],"outputs":[{"name":"","type":"bool","internalType":"bool"}],"stateMutability":"view"},{"type":"function","name":"leaseId","inputs":[],"outputs":[{"name":"","type":"uint256","internalType":"uint256"}],"stateMutability":"view"},{"type":"function","name":"leases","inputs":[{"name":"leaseId","type":"uint256","internalType":"uint256"}],"outputs":[{"name":"lessor","type":"address","internalType":"address"},{"name":"lessee","type":"address","internalType":"address"},{"name":"assetId","type":"uint256","internalType":"uint256"},{"name":"paymentToken","type":"address","internalType":"address"},{"name":"rentAmount","type":"uint256","internalType":"uint256"},{"name":"rentPeriod","type":"uint256","internalType":"uint256"},{"name":"securityDeposit","type":"uint256","internalType":"uint256"},{"name":"startTime","type":"uint64","internalType":"uint64"},{"name":"endTime","type":"uint64","internalType":"uint64"},{"name":"legalDocHash","type":"bytes32","internalType":"bytes32"},{"name":"termsVersion","type":"uint16","internalType":"uint16"}],"stateMutability":"view"},{"type":"function","name":"mintLease","inputs":[{"name":"L","type":"tuple","internalType":"struct LeaseFactory.LeaseIntent","components":[{"name":"deadline","type":"uint64","internalType":"uint64"},{"name":"assetType","type":"bytes32","internalType":"bytes32"},{"name":"lease","type":"tuple","internalType":"struct LeaseFactory.Lease","components":[{"name":"lessor","type":"address","internalType":"address"},{"name":"lessee","type":"address","internalType":"address"},{"name":"assetId","type":"uint256","internalType":"uint256"},{"name":"paymentToken","type":"address","internalType":"address"},{"name":"rentAmount","type":"uint256","internalType":"uint256"},{"name":"rentPeriod","type":"uint256","internalType":"uint256"},{"name":"securityDeposit","type":"uint256","internalType":"uint256"},{"name":"startTime","type":"uint64","internalType":"uint64"},{"name":"endTime","type":"uint64","internalType":"uint64"},{"name":"legalDocHash","type":"bytes32","internalType":"bytes32"},{"name":"termsVersion","type":"uint16","internalType":"uint16"},{"name":"metadata","type":"tuple[]","internalType":"struct MetadataStorage.Metadata[]","components":[{"name":"key","type":"string","internalType":"string"},{"name":"value","type":"string","internalType":"string"}]}]}]},{"name":"sigLessor","type":"bytes","internalType":"bytes"},{"name":"sigLessee","type":"bytes","internalType":"bytes"}],"outputs":[{"name":"tokenId","type":"uint256","internalType":"uint256"}],"stateMutability":"nonpayable"},{"type":"function","name":"name","inputs":[],"outputs":[{"name":"","type":"string","internalType":"string"}],"stateMutability":"view"},{"type":"function","name":"ownerOf","inputs":[{"name":"tokenId","type":"uint256","internalType":"uint256"}],"outputs":[{"name":"","type":"address","internalType":"address"}],"stateMutability":"view"},{"type":"function","name":"proxiableUUID","inputs":[],"outputs":[{"name":"","type":"bytes32","internalType":"bytes32"}],"stateMutability":"view"},{"type":"function","name":"registry","inputs":[],"outputs":[{"name":"","type":"address","internalType":"contract AssetRegistry"}],"stateMutability":"view"},{"type":"function","name":"removeMetadata","inputs":[{"name":"tokenId","type":"uint256","internalType":"uint256"},{"name":"key","type":"string","internalType":"string"}],"outputs":[],"stateMutability":"nonpayable"},{"type":"function","name":"renounceRole","inputs":[{"name":"role","type":"bytes32","internalType":"bytes32"},{"name":"callerConfirmation","type":"address","internalType":"address"}],"outputs":[],"stateMutability":"nonpayable"},{"type":"function","name":"revokeRole","inputs":[{"name":"role","type":"bytes32","internalType":"bytes32"},{"name":"account","type":"address","internalType":"address"}],"outputs":[],"stateMutability":"nonpayable"},{"type":"function","name":"safeTransferFrom","inputs":[{"name":"from","type":"address","internalType":"address"},{"name":"to","type":"address","internalType":"address"},{"name":"tokenId","type":"uint256","internalType":"uint256"}],"outputs":[],"stateMutability":"nonpayable"},{"type":"function","name":"safeTransferFrom","inputs":[{"name":"from","type":"address","internalType":"address"},{"name":"to","type":"address","internalType":"address"},{"name":"tokenId","type":"uint256","internalType":"uint256"},{"name":"data","type":"bytes","internalType":"bytes"}],"outputs":[],"stateMutability":"nonpayable"},{"type":"function","name":"setApprovalForAll","inputs":[{"name":"operator","type":"address","internalType":"address"},{"name":"approved","type":"bool","internalType":"bool"}],"outputs":[],"stateMutability":"nonpayable"},{"type":"function","name":"setMetadata","inputs":[{"name":"tokenId","type":"uint256","internalType":"uint256"},{"name":"metadata_","type":"tuple[]","internalType":"struct MetadataStorage.Metadata[]","components":[{"name":"key","type":"string","internalType":"string"},{"name":"value","type":"string","internalType":"string"}]}],"outputs":[],"stateMutability":"nonpayable"},{"type":"function","name":"supportsInterface","inputs":[{"name":"interfaceId","type":"bytes4","internalType":"bytes4"}],"outputs":[{"name":"","type":"bool","internalType":"bool"}],"stateMutability":"view"},{"type":"function","name":"symbol","inputs":[],"outputs":[{"name":"","type":"string","internalType":"string"}],"stateMutability":"view"},{"type":"function","name":"tokenURI","inputs":[{"name":"tokenId","type":"uint256","internalType":"uint256"}],"outputs":[{"name":"","type":"string","internalType":"string"}],"stateMutability":"view"},{"type":"function","name":"transferFrom","inputs":[{"name":"from","type":"address","internalType":"address"},{"name":"to","type":"address","internalType":"address"},{"name":"tokenId","type":"uint256","internalType":"uint256"}],"outputs":[],"stateMutability":"nonpayable"},{"type":"function","name":"upgradeToAndCall","inputs":[{"name":"newImplementation","type":"address","internalType":"address"},{"name":"data","type":"bytes","internalType":"bytes"}],"outputs":[],"stateMutability":"payable"},{"type":"event","name":"Approval","inputs":[{"name":"owner","type":"address","indexed":true,"internalType":"address"},{"name":"approved","type":"address","indexed":true,"internalType":"address"},{"name":"tokenId","type":"uint256","indexed":true,"internalType":"uint256"}],"anonymous":false},{"type":"event","name":"ApprovalForAll","inputs":[{"name":"owner","type":"address","indexed":true,"internalType":"address"},{"name":"operator","type":"address","indexed":true,"internalType":"address"},{"name":"approved","type":"bool","indexed":false,"internalType":"bool"}],"anonymous":false},{"type":"event","name":"EIP712DomainChanged","inputs":[],"anonymous":false},{"type":"event","name":"Initialized","inputs":[{"name":"version","type":"uint64","indexed":false,"internalType":"uint64"}],"anonymous":false},{"type":"event","name":"LeaseMinted","inputs":[{"name":"tokenId","type":"uint256","indexed":true,"internalType":"uint256"},{"name":"lessor","type":"address","indexed":true,"internalType":"address"},{"name":"lessee","type":"address","indexed":true,"internalType":"address"},{"name":"assetId","type":"uint256","indexed":false,"internalType":"uint256"}],"anonymous":false},{"type":"event","name":"MetadataRemoved","inputs":[{"name":"hash","type":"bytes32","indexed":true,"internalType":"bytes32"},{"name":"key","type":"string","indexed":false,"internalType":"string"}],"anonymous":false},{"type":"event","name":"MetadataUpdated","inputs":[{"name":"hash","type":"bytes32","indexed":true,"internalType":"bytes32"},{"name":"key","type":"string","indexed":false,"internalType":"string"},{"name":"value","type":"string","indexed":false,"internalType":"string"}],"anonymous":false},{"type":"event","name":"RoleAdminChanged","inputs":[{"name":"role","type":"bytes32","indexed":true,"internalType":"bytes32"},{"name":"previousAdminRole","type":"bytes32","indexed":true,"internalType":"bytes32"},{"name":"newAdminRole","type":"bytes32","indexed":true,"internalType":"bytes32"}],"anonymous":false},{"type":"event","name":"RoleGranted","inputs":[{"name":"role","type":"bytes32","indexed":true,"internalType":"bytes32"},{"name":"account","type":"address","indexed":true,"internalType":"address"},{"name":"sender","type":"address","indexed":true,"internalType":"address"}],"anonymous":false},{"type":"event","name":"RoleRevoked","inputs":[{"name":"role","type":"bytes32","indexed":true,"internalType":"bytes32"},{"name":"account","type":"address","indexed":true,"internalType":"address"},{"name":"sender","type":"address","indexed":true,"internalType":"address"}],"anonymous":false},{"type":"event","name":"Transfer","inputs":[{"name":"from","type":"address","indexed":true,"internalType":"address"},{"name":"to","type":"address","indexed":true,"internalType":"address"},{"name":"tokenId","type":"uint256","indexed":true,"internalType":"uint256"}],"anonymous":false},{"type":"event","name":"Upgraded","inputs":[{"name":"implementation","type":"address","indexed":true,"internalType":"address"}],"anonymous":false},{"type":"error","name":"AccessControlBadConfirmation","inputs":[]},{"type":"error","name":"AccessControlUnauthorizedAccount","inputs":[{"name":"account","type":"address","internalType":"address"},{"name":"neededRole","type":"bytes32","internalType":"bytes32"}]},{"type":"error","name":"AddressEmptyCode","inputs":[{"name":"target","type":"address","internalType":"address"}]},{"type":"error","name":"ECDSAInvalidSignature","inputs":[]},{"type":"error","name":"ECDSAInvalidSignatureLength","inputs":[{"name":"length","type":"uint256","internalType":"uint256"}]},{"type":"error","name":"ECDSAInvalidSignatureS","inputs":[{"name":"s","type":"bytes32","internalType":"bytes32"}]},{"type":"error","name":"ERC1967InvalidImplementation","inputs":[{"name":"implementation","type":"address","internalType":"address"}]},{"type":"error","name":"ERC1967NonPayable","inputs":[]},{"type":"error","name":"ERC721IncorrectOwner","inputs":[{"name":"sender","type":"address","internalType":"address"},{"name":"tokenId","type":"uint256","internalType":"uint256"},{"name":"owner","type":"address","internalType":"address"}]},{"type":"error","name":"ERC721InsufficientApproval","inputs":[{"name":"operator","type":"address","internalType":"address"},{"name":"tokenId","type":"uint256","internalType":"uint256"}]},{"type":"error","name":"ERC721InvalidApprover","inputs":[{"name":"approver","type":"address","internalType":"address"}]},{"type":"error","name":"ERC721InvalidOperator","inputs":[{"name":"operator","type":"address","internalType":"address"}]},{"type":"error","name":"ERC721InvalidOwner","inputs":[{"name":"owner","type":"address","internalType":"address"}]},{"type":"error","name":"ERC721InvalidReceiver","inputs":[{"name":"receiver","type":"address","internalType":"address"}]},{"type":"error","name":"ERC721InvalidSender","inputs":[{"name":"sender","type":"address","internalType":"address"}]},{"type":"error","name":"ERC721NonexistentToken","inputs":[{"name":"tokenId","type":"uint256","internalType":"uint256"}]},{"type":"error","name":"FailedCall","inputs":[]},{"type":"error","name":"InvalidInitialization","inputs":[]},{"type":"error","name":"NotInitializing","inputs":[]},{"type":"error","name":"UUPSUnauthorizedCallContext","inputs":[]},{"type":"error","name":"UUPSUnsupportedProxiableUUID","inputs":[{"name":"slot","type":"bytes32","internalType":"bytes32"}]}],"bytecode":{"object":"0x60a080604052346100c257306080525f5160206155d25f395f51905f525460ff8160401c166100b3576002600160401b03196001600160401b03821601610060575b60405161550b90816100c7823960805181818161231201526123f40152f35b6001600160401b0319166001600160401b039081175f5160206155d25f395f51905f525581527fc7f505b2f371ae2175ee4913f4499e1f2633a7b5936321eed1cdaeb6115181d290602090a15f80610041565b63f92ee8a960e01b5f5260045ffd5b5f80fdfe60a0806040526004361015610012575f80fd5b5f3560e01c90816301ffc9a714612f9f5750806305daf36814612f6257806306fdde0314612e61578063081812fc14612ddc578063095ea7b314612c1c5780630e1ae91b14612b9257806313d3755014612b6f578063236b8eb314612a1857806323b872dd14612a01578063248a9ca3146129995780632b679e30146129545780632f2ff15d146128d957806330c79cfe1461289e578063358410d51461282e57806336568abe146127a657806342842e0e146127775780634547bd64146126f45780634f1ef2861461238a57806352d1902d146122cd5780635cb0e05a146122845780635e5971561461223c5780636352211e146121e257806370a08231146121115780637577d42814611dfd5780637b10399914611dac57806384b0196e14611c075780638927a10614611aff5780638c5acee714611aae57806391d1485414611a1a57806393e3f3b0146119ca57806395d89b41146118865780639af66ccd14610914578063a217fddf146108dc578063a22cb465146107be578063ad3cb1cc14610741578063b88d4fde146106c8578063c0c53b8b14610412578063c87b56dd146103d5578063cb4799f21461038d578063d547741f1461030b578063e5e0a25d146102a45763e985e9c5146101ea575f80fd5b346102a05760407ffffffffffffffffffffffffffffffffffffffffffffffffffffffffffffffffc3601126102a05761022161319f565b73ffffffffffffffffffffffffffffffffffffffff6102856102416131c2565b9273ffffffffffffffffffffffffffffffffffffffff165f527f80bb2b638cc20bc4d0a60d66940f3ab4a00c1d7b313497ca82fb0b4ab007930560205260405f2090565b91165f52602052602060ff60405f2054166040519015158152f35b5f80fd5b346102a05760407ffffffffffffffffffffffffffffffffffffffffffffffffffffffffffffffffc3601126102a05760243567ffffffffffffffff81116102a0576103016102f860209236906004016132d0565b906004356141fe565b6040519015158152f35b346102a05760407ffffffffffffffffffffffffffffffffffffffffffffffffffffffffffffffffc3601126102a05761038b6004356103486131c2565b90610386610381825f527f02dd7bc7dec4dceedda775e58dd541e08a116c6c53815c0bd028192f7b626800602052600160405f20015490565b614347565b61494b565b005b346102a0576103d16103bd6103af6103b76103a7366132fe565b9390916142c0565b92369161327c565b9061374c565b6040519182916020835260208301906130bf565b0390f35b346102a05760207ffffffffffffffffffffffffffffffffffffffffffffffffffffffffffffffffc3601126102a0576103d16103bd600435613e98565b346102a05760607ffffffffffffffffffffffffffffffffffffffffffffffffffffffffffffffffc3601126102a05761044961319f565b6104516131c2565b906044359173ffffffffffffffffffffffffffffffffffffffff83168093036102a0577ff0c57e16840df040f15088dc2f81fe391c3923bec73e23a9662efc9c229c6a00549267ffffffffffffffff60ff8560401c16159416801590816106c0575b60011490816106b6575b1590816106ad575b50610685576105759261056f918560017fffffffffffffffffffffffffffffffffffffffffffffffff00000000000000007ff0c57e16840df040f15088dc2f81fe391c3923bec73e23a9662efc9c229c6a005416177ff0c57e16840df040f15088dc2f81fe391c3923bec73e23a9662efc9c229c6a005561060f575b7fffffffffffffffffffffffff0000000000000000000000000000000000000000600354161760035561464e565b50614735565b5061057c57005b7fffffffffffffffffffffffffffffffffffffffffffffff00ffffffffffffffff7ff0c57e16840df040f15088dc2f81fe391c3923bec73e23a9662efc9c229c6a0054167ff0c57e16840df040f15088dc2f81fe391c3923bec73e23a9662efc9c229c6a00557fc7f505b2f371ae2175ee4913f4499e1f2633a7b5936321eed1cdaeb6115181d2602060405160018152a1005b680100000000000000007fffffffffffffffffffffffffffffffffffffffffffffff00ffffffffffffffff7ff0c57e16840df040f15088dc2f81fe391c3923bec73e23a9662efc9c229c6a005416177ff0c57e16840df040f15088dc2f81fe391c3923bec73e23a9662efc9c229c6a0055610541565b7ff92ee8a9000000000000000000000000000000000000000000000000000000005f5260045ffd5b905015856104c5565b303b1591506104bd565b8591506104b3565b346102a05760807ffffffffffffffffffffffffffffffffffffffffffffffffffffffffffffffffc3601126102a0576106ff61319f565b6107076131c2565b906044356064359267ffffffffffffffff84116102a05761072f61038b9436906004016132b2565b9261073b838383613840565b33615012565b346102a0575f7ffffffffffffffffffffffffffffffffffffffffffffffffffffffffffffffffc3601126102a0576103d1604051610780604082613201565b600581527f352e302e3000000000000000000000000000000000000000000000000000000060208201526040519182916020835260208301906130bf565b346102a05760407ffffffffffffffffffffffffffffffffffffffffffffffffffffffffffffffffc3601126102a0576107f561319f565b602435908115158092036102a05773ffffffffffffffffffffffffffffffffffffffff169081156108b057335f9081527f80bb2b638cc20bc4d0a60d66940f3ab4a00c1d7b313497ca82fb0b4ab007930560205260409020825f5260205260405f207fffffffffffffffffffffffffffffffffffffffffffffffffffffffffffffff0081541660ff83161790556040519081527f17307eab39ab6107e8899845ad3d59bd9653f200f220920489ca2b5937696c3160203392a3005b507f5b08ba18000000000000000000000000000000000000000000000000000000005f5260045260245ffd5b346102a0575f7ffffffffffffffffffffffffffffffffffffffffffffffffffffffffffffffffc3601126102a05760206040515f8152f35b346102a05760607ffffffffffffffffffffffffffffffffffffffffffffffffffffffffffffffffc3601126102a05760043567ffffffffffffffff81116102a057806004019060607ffffffffffffffffffffffffffffffffffffffffffffffffffffffffffffffffc82360301126102a05760243567ffffffffffffffff81116102a0576109a69036906004016132d0565b909160443567ffffffffffffffff81116102a0576109c89036906004016132d0565b92909167ffffffffffffffff6109dd87613cd3565b16421161182857604401936109fd60e06109f78789613ce8565b01613cd3565b67ffffffffffffffff80610a176101006109f78a8c613ce8565b16911610156117ca5773ffffffffffffffffffffffffffffffffffffffff6003541660206040610a47888a613ce8565b01356024604051809481937f518e2bdd00000000000000000000000000000000000000000000000000000000835260048301525afa9081156117bf575f91611784575b501561172657610ab1610aab610aba92610aa389614a53565b94369161327c565b836151be565b909291926151f8565b73ffffffffffffffffffffffffffffffffffffffff80610ae2610add888a613ce8565b613d1b565b169116036116c857610afc610ab192610b0294369161327c565b906151be565b73ffffffffffffffffffffffffffffffffffffffff80610b2d6020610b278688613ce8565b01613d1b565b1691160361166a57600254907fffffffffffffffffffffffffffffffffffffffffffffffffffffffffffffffff82146113695760018201600255610b766020610b278386613ce8565b925f6080526020608052604051610b8f60805182613201565b5f815273ffffffffffffffffffffffffffffffffffffffff851694851561163e57610bf8855f527f80bb2b638cc20bc4d0a60d66940f3ab4a00c1d7b313497ca82fb0b4ab007930260205273ffffffffffffffffffffffffffffffffffffffff60405f20541690565b73ffffffffffffffffffffffffffffffffffffffff81169086888315159384611576575b610c638673ffffffffffffffffffffffffffffffffffffffff165f527f80bb2b638cc20bc4d0a60d66940f3ab4a00c1d7b313497ca82fb0b4ab007930360205260405f2090565b60018154019055825f527f80bb2b638cc20bc4d0a60d66940f3ab4a00c1d7b313497ca82fb0b4ab00793026080515260405f20827fffffffffffffffffffffffff00000000000000000000000000000000000000008254161790557fddf252ad1be2c89b69c2b068fc378daa952ba7f163c4a11628f55a4df523b3ef5f80a45061154a573b611396575b5090919250610cfc8282613ce8565b835f52600460805152610ef9600a60405f2073ffffffffffffffffffffffffffffffffffffffff610d2c85613d1b565b167fffffffffffffffffffffffff0000000000000000000000000000000000000000825416178155610d616080518501613d1b565b73ffffffffffffffffffffffffffffffffffffffff6001830191167fffffffffffffffffffffffff000000000000000000000000000000000000000082541617905560408401356002820155610db960608501613d1b565b73ffffffffffffffffffffffffffffffffffffffff6003830191167fffffffffffffffffffffffff00000000000000000000000000000000000000008254161790556080840135600482015560a0840135600582015560c084013560068201556007810167ffffffffffffffff610e3260e08701613cd3565b167fffffffffffffffffffffffffffffffffffffffffffffffff0000000000000000825416178155610e676101008601613cd3565b7fffffffffffffffffffffffffffffffff0000000000000000ffffffffffffffff6fffffffffffffffff000000000000000083549260401b16911617905561012084013560088201556009810161ffff610ec46101408701613d3c565b167fffffffffffffffffffffffffffffffffffffffffffffffffffffffffffff00008254161790550191610160810190613d4b565b90916801000000000000000082116112035780548282558083106112d7575b505f90815260805181209092368190037fffffffffffffffffffffffffffffffffffffffffffffffffffffffffffffffc101815b84861061101f57888888610fa06040516080518101908582526080518152610f75604082613201565b519020610f9a610f93610f888686613ce8565b610160810190613d4b565b3691613783565b906144ec565b827fefe2f746143aa1d2f03b11088ab609d0d5fd98fa818fa1da44c1874718665cf973ffffffffffffffffffffffffffffffffffffffff806040611001610fea610add8989613ce8565b97610ffb608051610b27838b613ce8565b97613ce8565b0135946040519586521694169260805190a460405190815260805190f35b8035828112156102a05761103584820180613e04565b9067ffffffffffffffff821161120357611059826110538954613499565b89613e55565b5f90601f83116001146112305791806110aa926110bc95945f9261114b575b50507fffffffffffffffffffffffffffffffffffffffffffffffffffffffffffffffff8260011b9260031b1c19161790565b86555b60805181860101908501613e04565b9067ffffffffffffffff8211611203576110e6826110dd6001890154613499565b60018901613e55565b5f90601f8311600114611156578260029360019593611137935f9261114b5750507fffffffffffffffffffffffffffffffffffffffffffffffffffffffffffffffff8260011b9260031b1c19161790565b838701555b60805101940195019492610f4c565b013590508e80611078565b7fffffffffffffffffffffffffffffffffffffffffffffffffffffffffffffffe0831691600188015f526080515f20925f5b8181106111ea575092600195939285926002968895106111b2575b505050811b018387015561113c565b7fffffffffffffffffffffffffffffffffffffffffffffffffffffffffffffffff60f88560031b161c199101351690558d80806111a3565b8383013585556080516001909501949283019201611188565b7f4e487b71000000000000000000000000000000000000000000000000000000005f52604160045260245ffd5b7fffffffffffffffffffffffffffffffffffffffffffffffffffffffffffffffe0831691885f526080515f20925f5b8181106112be57509160019391856110bc97969410611286575b505050811b0186556110ad565b7fffffffffffffffffffffffffffffffffffffffffffffffffffffffffffffffff60f88560031b161c199101351690558d8080611279565b838301358555608051600190950194928301920161125f565b7f7fffffffffffffffffffffffffffffffffffffffffffffffffffffffffffffff81168103611369577f7fffffffffffffffffffffffffffffffffffffffffffffffffffffffffffffff8316830361136957815f526080515f209060011b8101908360011b015b81811061134b5750610f18565b80611357600292613db5565b61136360018201613db5565b0161133e565b7f4e487b71000000000000000000000000000000000000000000000000000000005f52601160045260245ffd5b604051907f150b7a020000000000000000000000000000000000000000000000000000000082523360048301525f60248301528460448301526080606483015281806113e96080519360848301906130bf565b03815f895af15f91816114eb575b5061146857843d15611461573d61140d81613242565b9061141b6040519283613201565b8152805f3d91608051013e5b8051908161145b57827f64a0ae92000000000000000000000000000000000000000000000000000000005f5260045260245ffd5b60805101fd5b6060611427565b7fffffffff000000000000000000000000000000000000000000000000000000007f150b7a020000000000000000000000000000000000000000000000000000000091959293949516036114c0575090829184610ced565b7f64a0ae92000000000000000000000000000000000000000000000000000000005f5260045260245ffd5b9091506080513d60805111611543575b6115058183613201565b8160805191810103126102a057517fffffffff00000000000000000000000000000000000000000000000000000000811681036102a05790866113f7565b503d6114fb565b7f73c6ac6e000000000000000000000000000000000000000000000000000000005f525f60045260245ffd5b6115cc835f527f80bb2b638cc20bc4d0a60d66940f3ab4a00c1d7b313497ca82fb0b4ab007930460205260405f207fffffffffffffffffffffffff00000000000000000000000000000000000000008154169055565b6116138473ffffffffffffffffffffffffffffffffffffffff165f527f80bb2b638cc20bc4d0a60d66940f3ab4a00c1d7b313497ca82fb0b4ab007930360205260405f2090565b7fffffffffffffffffffffffffffffffffffffffffffffffffffffffffffffffff8154019055610c1c565b7f64a0ae92000000000000000000000000000000000000000000000000000000005f525f60045260245ffd5b60646040517f08c379a000000000000000000000000000000000000000000000000000000000815260206004820152601260248201527f6c65737365652073696720696e76616c696400000000000000000000000000006044820152fd5b60646040517f08c379a000000000000000000000000000000000000000000000000000000000815260206004820152601260248201527f6c6573736f722073696720696e76616c696400000000000000000000000000006044820152fd5b60646040517f08c379a000000000000000000000000000000000000000000000000000000000815260206004820152600d60248201527f61737365742021657869737473000000000000000000000000000000000000006044820152fd5b90506020813d6020116117b7575b8161179f60209383613201565b810103126102a0575180151581036102a05787610a8a565b3d9150611792565b6040513d5f823e3d90fd5b60646040517f08c379a000000000000000000000000000000000000000000000000000000000815260206004820152600960248201527f6261642074696d657300000000000000000000000000000000000000000000006044820152fd5b60646040517f08c379a000000000000000000000000000000000000000000000000000000000815260206004820152600760248201527f65787069726564000000000000000000000000000000000000000000000000006044820152fd5b346102a0575f7ffffffffffffffffffffffffffffffffffffffffffffffffffffffffffffffffc3601126102a0576040515f7f80bb2b638cc20bc4d0a60d66940f3ab4a00c1d7b313497ca82fb0b4ab0079301546118e381613499565b8084529060018116908115611988575060011461190b575b6103d1836103bd81850382613201565b7f80bb2b638cc20bc4d0a60d66940f3ab4a00c1d7b313497ca82fb0b4ab00793015f9081527ff4bad0a69248f59680a4f2b3000328cec71a413447c96781cfe5996daa8c456e939250905b80821061196e575090915081016020016103bd6118fb565b919260018160209254838588010152019101909291611956565b7fffffffffffffffffffffffffffffffffffffffffffffffffffffffffffffff001660208086019190915291151560051b840190910191506103bd90506118fb565b346102a05760207ffffffffffffffffffffffffffffffffffffffffffffffffffffffffffffffffc3601126102a057611a046004356142c0565b5f526001602052602060405f2054604051908152f35b346102a05760407ffffffffffffffffffffffffffffffffffffffffffffffffffffffffffffffffc3601126102a057611a516131c2565b6004355f527f02dd7bc7dec4dceedda775e58dd541e08a116c6c53815c0bd028192f7b62680060205273ffffffffffffffffffffffffffffffffffffffff60405f2091165f52602052602060ff60405f2054166040519015158152f35b346102a05760207ffffffffffffffffffffffffffffffffffffffffffffffffffffffffffffffffc3601126102a0576103d1611af3611aee6004356142c0565b61359e565b60405191829182613102565b346102a05760207ffffffffffffffffffffffffffffffffffffffffffffffffffffffffffffffffc3601126102a0576004355f52600460205261016060405f2073ffffffffffffffffffffffffffffffffffffffff8154169073ffffffffffffffffffffffffffffffffffffffff6001820154169067ffffffffffffffff600282015473ffffffffffffffffffffffffffffffffffffffff600384015416600484015460058501549060068601549260078701549461ffff600960088a015499015416986040519a8b5260208b015260408a01526060890152608088015260a087015260c086015281811660e086015260401c16610100840152610120830152610140820152f35b346102a0575f7ffffffffffffffffffffffffffffffffffffffffffffffffffffffffffffffffc3601126102a0577fa16a46d94261c7517cc8ff89f61c0ce93598e3c849801011dee649a6a557d100541580611d83575b15611d2557611cc9611c6e614e32565b611c76614f41565b6020611cd760405192611c898385613201565b5f84525f3681376040519586957f0f00000000000000000000000000000000000000000000000000000000000000875260e08588015260e08701906130bf565b9085820360408701526130bf565b4660608501523060808501525f60a085015283810360c08501528180845192838152019301915f5b828110611d0e57505050500390f35b835185528695509381019392810192600101611cff565b60646040517f08c379a000000000000000000000000000000000000000000000000000000000815260206004820152601560248201527f4549503731323a20556e696e697469616c697a656400000000000000000000006044820152fd5b507fa16a46d94261c7517cc8ff89f61c0ce93598e3c849801011dee649a6a557d1015415611c5e565b346102a0575f7ffffffffffffffffffffffffffffffffffffffffffffffffffffffffffffffffc3601126102a057602073ffffffffffffffffffffffffffffffffffffffff60035416604051908152f35b346102a057611e1e611e0e366132fe565b929091611e196142df565b6142c0565b91825f525f602052611e4860405f2060206040518092858783378582019081520301902054613499565b156120b357825f525f602052611e7560405f20602060405180928587833785820190815203019020613db5565b825f52600160205260405f20905f5b82548082101561208657611eab611eb2611e9e8487613457565b50604051928380926134ea565b0382613201565b60208151910120611ec436858861327c565b6020815191012014611ed95750600101611e84565b7fffffffffffffffffffffffffffffffffffffffffffffffffffffffffffffffff81959394950190811161136957611f14611f1c9186613457565b509185613457565b91909161202d57611f2c91614d02565b82548015612059577fffffffffffffffffffffffffffffffffffffffffffffffffffffffffffffffff0190611f618285613457565b92909261202d577fca45c60cf1bbd58b2ac673da0d008eb3606c36e814e8d7fe0df3a3e53ecc59b79483611f9760409554613499565b9081611fea575b5050555b7fffffffffffffffffffffffffffffffffffffffffffffffffffffffffffffffe0601f84845195869460208652816020870152868601375f85828601015201168101030190a2005b81601f5f93116001146120015750555b8780611f9e565b8183526020832061201d91601f0160051c810190600101613d9f565b8082528160208120915555611ffa565b7f4e487b71000000000000000000000000000000000000000000000000000000005f525f60045260245ffd5b7f4e487b71000000000000000000000000000000000000000000000000000000005f52603160045260245ffd5b5050905060407fca45c60cf1bbd58b2ac673da0d008eb3606c36e814e8d7fe0df3a3e53ecc59b792611fa2565b60646040517f08c379a000000000000000000000000000000000000000000000000000000000815260206004820152601260248201527f4b657920646f6573206e6f7420657869737400000000000000000000000000006044820152fd5b346102a05760207ffffffffffffffffffffffffffffffffffffffffffffffffffffffffffffffffc3601126102a05761214861319f565b73ffffffffffffffffffffffffffffffffffffffff8116156121b6576121ad60209173ffffffffffffffffffffffffffffffffffffffff165f527f80bb2b638cc20bc4d0a60d66940f3ab4a00c1d7b313497ca82fb0b4ab007930360205260405f2090565b54604051908152f35b7f89c62b64000000000000000000000000000000000000000000000000000000005f525f60045260245ffd5b346102a05760207ffffffffffffffffffffffffffffffffffffffffffffffffffffffffffffffffc3601126102a057602061221e60043561422c565b73ffffffffffffffffffffffffffffffffffffffff60405191168152f35b346102a05760207ffffffffffffffffffffffffffffffffffffffffffffffffffffffffffffffffc3601126102a0576004355f526001602052602060405f2054604051908152f35b346102a05760207ffffffffffffffffffffffffffffffffffffffffffffffffffffffffffffffffc3601126102a0576103d16122c1600435613c6b565b604051918291826133c2565b346102a0575f7ffffffffffffffffffffffffffffffffffffffffffffffffffffffffffffffffc3601126102a05773ffffffffffffffffffffffffffffffffffffffff7f00000000000000000000000000000000000000000000000000000000000000001630036123625760206040517f360894a13ba1a3210667c828492db98dca3e2076cc3735a920a3ca505d382bbc8152f35b7fe07c8dba000000000000000000000000000000000000000000000000000000005f5260045ffd5b60407ffffffffffffffffffffffffffffffffffffffffffffffffffffffffffffffffc3601126102a0576123bc61319f565b60243567ffffffffffffffff81116102a0576123dc9036906004016132b2565b9073ffffffffffffffffffffffffffffffffffffffff7f0000000000000000000000000000000000000000000000000000000000000000168030149081156126b2575b5061236257335f9081527fab71e3f32666744d246edff3f96e4bdafee2e9867098cdd118a979a7464786a8602052604090205460ff16156126625773ffffffffffffffffffffffffffffffffffffffff8116916040517f52d1902d000000000000000000000000000000000000000000000000000000008152602081600481875afa5f918161262e575b506124da57837f4c9c8ce3000000000000000000000000000000000000000000000000000000005f5260045260245ffd5b807f360894a13ba1a3210667c828492db98dca3e2076cc3735a920a3ca505d382bbc8592036126035750823b156125d857807fffffffffffffffffffffffff00000000000000000000000000000000000000007f360894a13ba1a3210667c828492db98dca3e2076cc3735a920a3ca505d382bbc5416177f360894a13ba1a3210667c828492db98dca3e2076cc3735a920a3ca505d382bbc557fbc7cd75a20ee27fd9adebab32041f755214dbc6bffa90cc0225b39da2e5c2d3b5f80a28051156125a75761038b916152d0565b5050346125b057005b7fb398979f000000000000000000000000000000000000000000000000000000005f5260045ffd5b7f4c9c8ce3000000000000000000000000000000000000000000000000000000005f5260045260245ffd5b7faa1d49a4000000000000000000000000000000000000000000000000000000005f5260045260245ffd5b9091506020813d60201161265a575b8161264a60209383613201565b810103126102a0575190856124a9565b3d915061263d565b7fe2517d3f000000000000000000000000000000000000000000000000000000005f52336004527f189ab7a9244df0848122154315af71fe140f3db0fe014031783b0946b8c9d2e360245260445ffd5b905073ffffffffffffffffffffffffffffffffffffffff7f360894a13ba1a3210667c828492db98dca3e2076cc3735a920a3ca505d382bbc541614158361241f565b346102a05760207ffffffffffffffffffffffffffffffffffffffffffffffffffffffffffffffffc3601126102a05760043567ffffffffffffffff81116102a05760607ffffffffffffffffffffffffffffffffffffffffffffffffffffffffffffffffc82360301126102a05761276f602091600401614a53565b604051908152f35b346102a05761038b61278836613350565b9060405192612798602085613201565b5f845261073b838383613840565b346102a05760407ffffffffffffffffffffffffffffffffffffffffffffffffffffffffffffffffc3601126102a0576127dd6131c2565b3373ffffffffffffffffffffffffffffffffffffffff8216036128065761038b9060043561494b565b7f6697b232000000000000000000000000000000000000000000000000000000005f5260045ffd5b346102a0575f7ffffffffffffffffffffffffffffffffffffffffffffffffffffffffffffffffc3601126102a057602073ffffffffffffffffffffffffffffffffffffffff7f360894a13ba1a3210667c828492db98dca3e2076cc3735a920a3ca505d382bbc5416604051908152f35b346102a0575f7ffffffffffffffffffffffffffffffffffffffffffffffffffffffffffffffffc3601126102a0576020600254604051908152f35b346102a05760407ffffffffffffffffffffffffffffffffffffffffffffffffffffffffffffffffc3601126102a05761038b6004356129166131c2565b9061294f610381825f527f02dd7bc7dec4dceedda775e58dd541e08a116c6c53815c0bd028192f7b626800602052600160405f20015490565b614839565b346102a05760207ffffffffffffffffffffffffffffffffffffffffffffffffffffffffffffffffc3601126102a0576103d16122c16129946004356142c0565b613c6b565b346102a05760207ffffffffffffffffffffffffffffffffffffffffffffffffffffffffffffffffc3601126102a057602061276f6004355f527f02dd7bc7dec4dceedda775e58dd541e08a116c6c53815c0bd028192f7b626800602052600160405f20015490565b346102a05761038b612a1236613350565b91613840565b346102a05760407ffffffffffffffffffffffffffffffffffffffffffffffffffffffffffffffffc3601126102a05760243560043567ffffffffffffffff82116102a057366023830112156102a05781600401359067ffffffffffffffff82116102a0573660248360051b850101116102a057612a936142df565b73ffffffffffffffffffffffffffffffffffffffff612af0825f527f80bb2b638cc20bc4d0a60d66940f3ab4a00c1d7b313497ca82fb0b4ab007930260205273ffffffffffffffffffffffffffffffffffffffff60405f20541690565b1615612b115761038b92612b06610f9a926142c0565b926024369201613783565b60646040517f08c379a000000000000000000000000000000000000000000000000000000000815260206004820152601060248201527f746f6b656e206e6f74206d696e746564000000000000000000000000000000006044820152fd5b346102a0576020610301612b8d612b85366132fe565b9290916142c0565b6141fe565b346102a05760407ffffffffffffffffffffffffffffffffffffffffffffffffffffffffffffffffc3601126102a05760243567ffffffffffffffff81116102a057611eab6103bd602080612bed6103d19536906004016132b2565b6004355f525f825260405f20604051938285935191829101845e820190815203019020604051928380926134ea565b346102a05760407ffffffffffffffffffffffffffffffffffffffffffffffffffffffffffffffffc3601126102a057612c5361319f565b602435612c5f8161422c565b33151580612dbc575b80612d4a575b612d1e57819073ffffffffffffffffffffffffffffffffffffffff80851691167f8c5be1e5ebec7d5bd14f71427d1e84f3dd0314c0f7b2291e5b200ac8c7c3b9255f80a45f527f80bb2b638cc20bc4d0a60d66940f3ab4a00c1d7b313497ca82fb0b4ab007930460205273ffffffffffffffffffffffffffffffffffffffff60405f2091167fffffffffffffffffffffffff00000000000000000000000000000000000000008254161790555f80f35b7fa9fbf51f000000000000000000000000000000000000000000000000000000005f523360045260245ffd5b50612d928173ffffffffffffffffffffffffffffffffffffffff165f527f80bb2b638cc20bc4d0a60d66940f3ab4a00c1d7b313497ca82fb0b4ab007930560205260405f2090565b73ffffffffffffffffffffffffffffffffffffffff33165f5260205260ff60405f20541615612c6e565b503373ffffffffffffffffffffffffffffffffffffffff82161415612c68565b346102a05760207ffffffffffffffffffffffffffffffffffffffffffffffffffffffffffffffffc3601126102a057602061221e600435612e1c8161422c565b505f527f80bb2b638cc20bc4d0a60d66940f3ab4a00c1d7b313497ca82fb0b4ab007930460205273ffffffffffffffffffffffffffffffffffffffff60405f20541690565b346102a0575f7ffffffffffffffffffffffffffffffffffffffffffffffffffffffffffffffffc3601126102a0576040515f7f80bb2b638cc20bc4d0a60d66940f3ab4a00c1d7b313497ca82fb0b4ab007930054612ebe81613499565b80845290600181169081156119885750600114612ee5576103d1836103bd81850382613201565b7f80bb2b638cc20bc4d0a60d66940f3ab4a00c1d7b313497ca82fb0b4ab00793005f9081527f37c58c799b6609234b945e882912ee9ad34948a1dfaa20a97485e1a7752bbf81939250905b808210612f48575090915081016020016103bd6118fb565b919260018160209254838588010152019101909291612f30565b346102a05760207ffffffffffffffffffffffffffffffffffffffffffffffffffffffffffffffffc3601126102a0576103d1611af360043561359e565b346102a05760207ffffffffffffffffffffffffffffffffffffffffffffffffffffffffffffffffc3601126102a057600435907fffffffff0000000000000000000000000000000000000000000000000000000082168092036102a057817f80ac58cd0000000000000000000000000000000000000000000000000000000060209314908115613095575b8115613038575b5015158152f35b7f7965db0b0000000000000000000000000000000000000000000000000000000081149150811561306b575b5083613031565b7f01ffc9a70000000000000000000000000000000000000000000000000000000091501483613064565b7f5b5e139f000000000000000000000000000000000000000000000000000000008114915061302a565b907fffffffffffffffffffffffffffffffffffffffffffffffffffffffffffffffe0601f602080948051918291828752018686015e5f8582860101520116010190565b602081016020825282518091526040820191602060408360051b8301019401925f915b83831061313457505050505090565b9091929394602080613190837fffffffffffffffffffffffffffffffffffffffffffffffffffffffffffffffc086600196030187528951908361318083516040845260408401906130bf565b92015190848184039101526130bf565b97019301930191939290613125565b6004359073ffffffffffffffffffffffffffffffffffffffff821682036102a057565b6024359073ffffffffffffffffffffffffffffffffffffffff821682036102a057565b6040810190811067ffffffffffffffff82111761120357604052565b90601f7fffffffffffffffffffffffffffffffffffffffffffffffffffffffffffffffe0910116810190811067ffffffffffffffff82111761120357604052565b67ffffffffffffffff811161120357601f017fffffffffffffffffffffffffffffffffffffffffffffffffffffffffffffffe01660200190565b92919261328882613242565b916132966040519384613201565b8294818452818301116102a0578281602093845f960137010152565b9080601f830112156102a0578160206132cd9335910161327c565b90565b9181601f840112156102a05782359167ffffffffffffffff83116102a057602083818601950101116102a057565b9060407ffffffffffffffffffffffffffffffffffffffffffffffffffffffffffffffffc8301126102a057600435916024359067ffffffffffffffff82116102a05761334c916004016132d0565b9091565b7ffffffffffffffffffffffffffffffffffffffffffffffffffffffffffffffffc60609101126102a05760043573ffffffffffffffffffffffffffffffffffffffff811681036102a0579060243573ffffffffffffffffffffffffffffffffffffffff811681036102a0579060443590565b602081016020825282518091526040820191602060408360051b8301019401925f915b8383106133f457505050505090565b9091929394602080613430837fffffffffffffffffffffffffffffffffffffffffffffffffffffffffffffffc0866001960301875289516130bf565b970193019301919392906133e5565b67ffffffffffffffff81116112035760051b60200190565b805482101561346c575f5260205f2001905f90565b7f4e487b71000000000000000000000000000000000000000000000000000000005f52603260045260245ffd5b90600182811c921680156134e0575b60208310146134b357565b7f4e487b71000000000000000000000000000000000000000000000000000000005f52602260045260245ffd5b91607f16916134a8565b5f92918154916134f983613499565b808352926001811690811561354e575060011461351557505050565b5f9081526020812093945091925b838310613534575060209250010190565b600181602092949394548385870101520191019190613523565b905060209495507fffffffffffffffffffffffffffffffffffffffffffffffffffffffffffffff0091509291921683830152151560051b010190565b805182101561346c5760209160051b010190565b90815f52600160205260405f2080546135b68161343f565b6135c36040519182613201565b8181527fffffffffffffffffffffffffffffffffffffffffffffffffffffffffffffffe06135f08361343f565b015f5b81811061372757505080945f5b83811061360e575050505050565b6136188186613457565b50825f525f60205260405f2061362e8388613457565b50604051915f9180549061364182613499565b91600181169081156136f157506001146136bc575b505082602060019695948461369b94611eab965203019020611eab61368d60405195613681876131e5565b604051928380926134ea565b8452604051928380926134ea565b60208201526136aa828661358a565b526136b5818561358a565b5001613600565b909192505f5260205f205f905b8282106136dd575050820190826020613656565b6001816020925484880152019101906136c9565b7fffffffffffffffffffffffffffffffffffffffffffffffffffffffffffffff0016865250508015150283019150826020613656565b602090604051613736816131e5565b60608152606083820152828286010152016135f3565b602080611eab936132cd935f525f825260405f20604051938285935191829101845e820190815203019020604051928380926134ea565b929190926137908461343f565b9361379e6040519586613201565b602085828152019060051b8201918383116102a05780915b8383106137c4575050505050565b823567ffffffffffffffff81116102a05782016040818703126102a057604051916137ee836131e5565b813567ffffffffffffffff81116102a0578761380b9184016132b2565b835260208201359267ffffffffffffffff84116102a057613831886020958695016132b2565b838201528152019201916137b6565b91909173ffffffffffffffffffffffffffffffffffffffff831690811561163e576138a9835f527f80bb2b638cc20bc4d0a60d66940f3ab4a00c1d7b313497ca82fb0b4ab007930260205273ffffffffffffffffffffffffffffffffffffffff60405f20541690565b833315159384613ade575b73ffffffffffffffffffffffffffffffffffffffff945061391a85841697886139d85773ffffffffffffffffffffffffffffffffffffffff165f527f80bb2b638cc20bc4d0a60d66940f3ab4a00c1d7b313497ca82fb0b4ab007930360205260405f2090565b60018154019055815f527f80bb2b638cc20bc4d0a60d66940f3ab4a00c1d7b313497ca82fb0b4ab007930260205260405f20817fffffffffffffffffffffffff0000000000000000000000000000000000000000825416179055867fddf252ad1be2c89b69c2b068fc378daa952ba7f163c4a11628f55a4df523b3ef5f80a450168083036139a757505050565b7f64283d7b000000000000000000000000000000000000000000000000000000005f5260045260245260445260645ffd5b613a2e845f527f80bb2b638cc20bc4d0a60d66940f3ab4a00c1d7b313497ca82fb0b4ab007930460205260405f207fffffffffffffffffffffffff00000000000000000000000000000000000000008154169055565b613a758573ffffffffffffffffffffffffffffffffffffffff165f527f80bb2b638cc20bc4d0a60d66940f3ab4a00c1d7b313497ca82fb0b4ab007930360205260405f2090565b7fffffffffffffffffffffffffffffffffffffffffffffffffffffffffffffffff815401905573ffffffffffffffffffffffffffffffffffffffff165f527f80bb2b638cc20bc4d0a60d66940f3ab4a00c1d7b313497ca82fb0b4ab007930360205260405f2090565b91929380915090613b6e575b15613af857908383926138b4565b8373ffffffffffffffffffffffffffffffffffffffff8316613b3f577f7e273289000000000000000000000000000000000000000000000000000000005f5260045260245ffd5b7f177e802f000000000000000000000000000000000000000000000000000000005f523360045260245260445ffd5b503373ffffffffffffffffffffffffffffffffffffffff8316148015613bfa575b80613aea57503373ffffffffffffffffffffffffffffffffffffffff613bf3865f527f80bb2b638cc20bc4d0a60d66940f3ab4a00c1d7b313497ca82fb0b4ab007930460205273ffffffffffffffffffffffffffffffffffffffff60405f20541690565b1614613aea565b50613c428273ffffffffffffffffffffffffffffffffffffffff165f527f80bb2b638cc20bc4d0a60d66940f3ab4a00c1d7b313497ca82fb0b4ab007930560205260405f2090565b73ffffffffffffffffffffffffffffffffffffffff33165f5260205260ff60405f205416613b8f565b5f52600160205260405f208054613c818161343f565b91613c8f6040519384613201565b81835260208301905f5260205f205f915b838310613cae575050505090565b600160208192604051613cc581611eab81896134ea565b815201920192019190613ca0565b3567ffffffffffffffff811681036102a05790565b9035907ffffffffffffffffffffffffffffffffffffffffffffffffffffffffffffffe81813603018212156102a0570190565b3573ffffffffffffffffffffffffffffffffffffffff811681036102a05790565b3561ffff811681036102a05790565b9035907fffffffffffffffffffffffffffffffffffffffffffffffffffffffffffffffe1813603018212156102a0570180359067ffffffffffffffff82116102a057602001918160051b360383136102a057565b818110613daa575050565b5f8155600101613d9f565b613dbf8154613499565b9081613dc9575050565b81601f5f9311600114613ddb5750555b565b81835260208320613df791601f0160051c810190600101613d9f565b8082528160208120915555565b9035907fffffffffffffffffffffffffffffffffffffffffffffffffffffffffffffffe1813603018212156102a0570180359067ffffffffffffffff82116102a0576020019181360383136102a057565b9190601f8111613e6457505050565b613dd9925f5260205f20906020601f840160051c83019310613e8e575b601f0160051c0190613d9f565b9091508190613e81565b73ffffffffffffffffffffffffffffffffffffffff613ef5825f527f80bb2b638cc20bc4d0a60d66940f3ab4a00c1d7b313497ca82fb0b4ab007930260205273ffffffffffffffffffffffffffffffffffffffff60405f20541690565b16156141a057613f04816142c0565b613f46604091825190613f178483613201565b600382527f7572690000000000000000000000000000000000000000000000000000000000602083015261374c565b80511561418b578291835f947a184f03e93ff9f4daa797ed6e38ed64bf6a1f01000000000000000081101561415f575b50806d04ee2d6d415b85acef8100000000600a921015614144575b662386f26fc10000811015614130575b6305f5e10081101561411f575b612710811015614110575b6064811015614102575b10156140f8575b6001840192600a7fffffffffffffffffffffffffffffffffffffffffffffffffffffffffffffffff602161401561400088613242565b9761400d8751998a613201565b808952613242565b977fffffffffffffffffffffffffffffffffffffffffffffffffffffffffffffffe0602089019901368a378701015b01917f30313233343536373839616263646566000000000000000000000000000000008282061a83530490811561409f57600a907fffffffffffffffffffffffffffffffffffffffffffffffffffffffffffffffff90614044565b50506020936132cd938592519584879551918291018587015e840190838201905f8252519283915e01015f8152037fffffffffffffffffffffffffffffffffffffffffffffffffffffffffffffffe08101835282613201565b9260010192613fca565b606460029104950194613fc3565b61271060049104950194613fb9565b6305f5e10060089104950194613fae565b662386f26fc1000060109104950194613fa1565b6d04ee2d6d415b85acef810000000060209104950194613f91565b91945084917a184f03e93ff9f4daa797ed6e38ed64bf6a1f01000000000000000090049050600a613f76565b5090505161419a602082613201565b5f815290565b60646040517f08c379a000000000000000000000000000000000000000000000000000000000815260206004820152600a60248201527f6e6f74206d696e746564000000000000000000000000000000000000000000006044820152fd5b61422792916020915f525f825260405f2083604051948593843782019081520301902054613499565b151590565b614274815f527f80bb2b638cc20bc4d0a60d66940f3ab4a00c1d7b313497ca82fb0b4ab007930260205273ffffffffffffffffffffffffffffffffffffffff60405f20541690565b9073ffffffffffffffffffffffffffffffffffffffff821615614295575090565b7f7e273289000000000000000000000000000000000000000000000000000000005f5260045260245ffd5b60405160208101918252602081526142d9604082613201565b51902090565b335f9081527fb7db2dd08fcb62d0c9e08c51941cae53c267786a0b75803fb7960902fc8ef97d602052604090205460ff161561431757565b7fe2517d3f000000000000000000000000000000000000000000000000000000005f52336004525f60245260445ffd5b805f527f02dd7bc7dec4dceedda775e58dd541e08a116c6c53815c0bd028192f7b62680060205260405f2073ffffffffffffffffffffffffffffffffffffffff33165f5260205260ff60405f2054161561439e5750565b7fe2517d3f000000000000000000000000000000000000000000000000000000005f523360045260245260445ffd5b919091825167ffffffffffffffff8111611203576143f5816143ef8454613499565b84613e55565b6020601f82116001146144515781906144429394955f926144465750507fffffffffffffffffffffffffffffffffffffffffffffffffffffffffffffffff8260011b9260031b1c19161790565b9055565b015190505f80611078565b7fffffffffffffffffffffffffffffffffffffffffffffffffffffffffffffffe0821690835f52805f20915f5b8181106144d45750958360019596971061449d575b505050811b019055565b01517fffffffffffffffffffffffffffffffffffffffffffffffffffffffffffffffff60f88460031b161c191690555f8080614493565b9192602060018192868b01518155019401920161447e565b9190915f5b835181101561464857815f525f60205261453560208060405f20614515858961358a565b515190604051938285935191829101845e82019081520301902054613499565b1561457f6020614545848861358a565b510151845f525f60205260208060405f20614560878b61358a565b515190604051938285935191829101845e8201908152030190206143cd565b6145f5575b80827fc42c4edbc41dce02b01dd098a1f7a4c685c638d7a2fdfbe449b32e1f89fbfae16145de6145b66001958961358a565b51516145ec60206145c7878c61358a565b5101516040519384936040855260408501906130bf565b9083820360208501526130bf565b0390a2016144f1565b815f52600160205260405f209061460c818661358a565b5151918054680100000000000000008110156112035761463191600182018155613457565b61202d57600192614641916143cd565b9050614584565b50509050565b73ffffffffffffffffffffffffffffffffffffffff81165f9081527fb7db2dd08fcb62d0c9e08c51941cae53c267786a0b75803fb7960902fc8ef97d602052604090205460ff166147305773ffffffffffffffffffffffffffffffffffffffff165f8181527fb7db2dd08fcb62d0c9e08c51941cae53c267786a0b75803fb7960902fc8ef97d6020526040812080547fffffffffffffffffffffffffffffffffffffffffffffffffffffffffffffff001660011790553391907f2f8788117e7eff1d82e926ec794901d17c78024a50270940304540a733656f0d8180a4600190565b505f90565b73ffffffffffffffffffffffffffffffffffffffff81165f9081527fab71e3f32666744d246edff3f96e4bdafee2e9867098cdd118a979a7464786a8602052604090205460ff166147305773ffffffffffffffffffffffffffffffffffffffff165f8181527fab71e3f32666744d246edff3f96e4bdafee2e9867098cdd118a979a7464786a86020526040812080547fffffffffffffffffffffffffffffffffffffffffffffffffffffffffffffff001660011790553391907f189ab7a9244df0848122154315af71fe140f3db0fe014031783b0946b8c9d2e3907f2f8788117e7eff1d82e926ec794901d17c78024a50270940304540a733656f0d9080a4600190565b805f527f02dd7bc7dec4dceedda775e58dd541e08a116c6c53815c0bd028192f7b62680060205260405f2073ffffffffffffffffffffffffffffffffffffffff83165f5260205260ff60405f205416155f1461494557805f527f02dd7bc7dec4dceedda775e58dd541e08a116c6c53815c0bd028192f7b62680060205260405f2073ffffffffffffffffffffffffffffffffffffffff83165f5260205260405f2060017fffffffffffffffffffffffffffffffffffffffffffffffffffffffffffffff0082541617905573ffffffffffffffffffffffffffffffffffffffff339216907f2f8788117e7eff1d82e926ec794901d17c78024a50270940304540a733656f0d5f80a4600190565b50505f90565b805f527f02dd7bc7dec4dceedda775e58dd541e08a116c6c53815c0bd028192f7b62680060205260405f2073ffffffffffffffffffffffffffffffffffffffff83165f5260205260ff60405f2054165f1461494557805f527f02dd7bc7dec4dceedda775e58dd541e08a116c6c53815c0bd028192f7b62680060205260405f2073ffffffffffffffffffffffffffffffffffffffff83165f5260205260405f207fffffffffffffffffffffffffffffffffffffffffffffffffffffffffffffff00815416905573ffffffffffffffffffffffffffffffffffffffff339216907ff6391f5c32d9c69d2a47ea670b442974b53935d1edc7fd64eb21e047a839171b5f80a4600190565b60408101614a618183613ce8565b614a6a90613d1b565b90614a758184613ce8565b602001614a8190613d1b565b90614a8c8185613ce8565b6040013590614a9b8186613ce8565b606001614aa790613d1b565b614ab18287613ce8565b60800135614abf8388613ce8565b60a00135614acd8489613ce8565b60c0013590614adc858a613ce8565b60e001614ae890613cd3565b92614af3868b613ce8565b61010001614b0090613cd3565b94614b0b878c613ce8565b610120013596614b1b908c613ce8565b61014001614b2890613d3c565b976040519960208b019b7f1f0dd347b9acc3b4cb2a224c074e7fc86f8714c2899179a4c2777cc00ed613aa8d5273ffffffffffffffffffffffffffffffffffffffff1660408c015273ffffffffffffffffffffffffffffffffffffffff1660608b015260808a015273ffffffffffffffffffffffffffffffffffffffff1660a089015260c088015260e087015261010086015267ffffffffffffffff1661012085015267ffffffffffffffff1661014084015261016083015261ffff166101808201526101808152614bfc6101a082613201565b51902090614c0981613cd3565b916040519160208301937f036b00e958c97f6140b105fa9161b187af9c6fd71d67bb38a7f6cb65dc053c1d855267ffffffffffffffff166040840152602001356060830152608082015260808152614c6260a082613201565b519020614c6d615426565b614c75615490565b6040519060208201927f8b73c3c69bb8fe3d512ecc4cf759cc79239f7b179b0ffacaa9a75d522b39400f8452604083015260608201524660808201523060a082015260a08152614cc660c082613201565b51902090604051917f19010000000000000000000000000000000000000000000000000000000000008352600283015260228201526042902090565b919091828114614e2d57614d168354613499565b67ffffffffffffffff811161120357614d33816143ef8454613499565b5f93601f8211600114614d8b5761444292939482915f92614d805750507fffffffffffffffffffffffffffffffffffffffffffffffffffffffffffffffff8260011b9260031b1c19161790565b015490505f80611078565b7fffffffffffffffffffffffffffffffffffffffffffffffffffffffffffffffe08216905f5260205f2094835f5260205f20915f5b818110614e1557509583600195969710614dde57505050811b019055565b01547fffffffffffffffffffffffffffffffffffffffffffffffffffffffffffffffff60f88460031b161c191690555f8080614493565b9192600180602092868b015481550194019201614dc0565b509050565b6040517fa16a46d94261c7517cc8ff89f61c0ce93598e3c849801011dee649a6a557d10254815f614e6283613499565b8083529260018116908115614f045750600114614e86575b6132cd92500382613201565b507fa16a46d94261c7517cc8ff89f61c0ce93598e3c849801011dee649a6a557d1025f90815290917f42ad5d3e1f2e6e70edcf6d991b8a3023d3fca8047a131592f9edb9fd9b89d57d5b818310614ee85750509060206132cd92820101614e7a565b6020919350806001915483858801015201910190918392614ed0565b602092506132cd9491507fffffffffffffffffffffffffffffffffffffffffffffffffffffffffffffff001682840152151560051b820101614e7a565b6040517fa16a46d94261c7517cc8ff89f61c0ce93598e3c849801011dee649a6a557d10354815f614f7183613499565b8083529260018116908115614f045750600114614f94576132cd92500382613201565b507fa16a46d94261c7517cc8ff89f61c0ce93598e3c849801011dee649a6a557d1035f90815290917f5f9ce34815f8e11431c7bb75a8e6886a91478f7ffc1dbb0a98dc240fddd76b755b818310614ff65750509060206132cd92820101614e7a565b6020919350806001915483858801015201910190918392614fde565b93909293823b615024575b5050505050565b61509173ffffffffffffffffffffffffffffffffffffffff928360209516968460405197889687967f150b7a0200000000000000000000000000000000000000000000000000000000885216600487015216602485015260448401526080606484015260848301906130bf565b03815f865af15f9181615161575b5061510d57503d15615106573d6150b581613242565b906150c36040519283613201565b81523d5f602083013e5b8051908161510157827f64a0ae92000000000000000000000000000000000000000000000000000000005f5260045260245ffd5b602001fd5b60606150cd565b7fffffffff000000000000000000000000000000000000000000000000000000007f150b7a02000000000000000000000000000000000000000000000000000000009116036114c057505f8080808061501d565b9091506020813d6020116151b6575b8161517d60209383613201565b810103126102a057517fffffffff00000000000000000000000000000000000000000000000000000000811681036102a057905f61509f565b3d9150615170565b81519190604183036151ee576151e79250602082015190606060408401519301515f1a90615397565b9192909190565b50505f9160029190565b60048110156152a3578061520a575050565b6001810361523a577ff645eedf000000000000000000000000000000000000000000000000000000005f5260045ffd5b6002810361526e57507ffce698f7000000000000000000000000000000000000000000000000000000005f5260045260245ffd5b6003146152785750565b7fd78bce0c000000000000000000000000000000000000000000000000000000005f5260045260245ffd5b7f4e487b71000000000000000000000000000000000000000000000000000000005f52602160045260245ffd5b905f8091602081519101845af48080615384575b156153045750506040513d81523d5f602083013e60203d82010160405290565b1561534b5773ffffffffffffffffffffffffffffffffffffffff907f9996b315000000000000000000000000000000000000000000000000000000005f521660045260245ffd5b3d1561535c576040513d5f823e3d90fd5b7fd6bda275000000000000000000000000000000000000000000000000000000005f5260045ffd5b503d1515806152e45750813b15156152e4565b91907f7fffffffffffffffffffffffffffffff5d576e7357a4501ddfe92f46681b20a0841161541b579160209360809260ff5f9560405194855216868401526040830152606082015282805260015afa156117bf575f5173ffffffffffffffffffffffffffffffffffffffff81161561541157905f905f90565b505f906001905f90565b5050505f9160039190565b61542e614e32565b805190811561543e576020012090565b50507fa16a46d94261c7517cc8ff89f61c0ce93598e3c849801011dee649a6a557d10054801561546b5790565b507fc5d2460186f7233c927e7db2dcc703c0e500b653ca82273b7bfad8045d85a47090565b615498614f41565b80519081156154a8576020012090565b50507fa16a46d94261c7517cc8ff89f61c0ce93598e3c849801011dee649a6a557d10154801561546b579056fea26469706673582212207060a75ad27c2312a3f82a0910e2fea3f68ae7e8f2c433c73148f7e49cc4e47c64736f6c634300081e0033f0c57e16840df040f15088dc2f81fe391c3923bec73e23a9662efc9c229c6a00","linkReferences":{}},"methodIdentifiers":{"DEFAULT_ADMIN_ROLE()":"a217fddf","UPGRADE_INTERFACE_VERSION()":"ad3cb1cc","approve(address,uint256)":"095ea7b3","balanceOf(address)":"70a08231","eip712Domain()":"84b0196e","getAllMetadata(bytes32)":"05daf368","getAllMetadata(uint256)":"8c5acee7","getAllMetadataKeys(bytes32)":"5cb0e05a","getApproved(uint256)":"081812fc","getMetadata(bytes32,string)":"0e1ae91b","getMetadata(uint256,string)":"cb4799f2","getMetadataCount(bytes32)":"5e597156","getMetadataCount(uint256)":"93e3f3b0","getMetadataKeys(uint256)":"2b679e30","getRoleAdmin(bytes32)":"248a9ca3","getUupsImplementation()":"358410d5","grantRole(bytes32,address)":"2f2ff15d","hasMetadata(bytes32,string)":"e5e0a25d","hasMetadata(uint256,string)":"13d37550","hasRole(bytes32,address)":"91d14854","hashLeaseIntent((uint64,bytes32,(address,address,uint256,address,uint256,uint256,uint256,uint64,uint64,bytes32,uint16,(string,string)[])))":"4547bd64","initialize(address,address,address)":"c0c53b8b","isApprovedForAll(address,address)":"e985e9c5","leaseId()":"30c79cfe","leases(uint256)":"8927a106","mintLease((uint64,bytes32,(address,address,uint256,address,uint256,uint256,uint256,uint64,uint64,bytes32,uint16,(string,string)[])),bytes,bytes)":"9af66ccd","name()":"06fdde03","ownerOf(uint256)":"6352211e","proxiableUUID()":"52d1902d","registry()":"7b103999","removeMetadata(uint256,string)":"7577d428","renounceRole(bytes32,address)":"36568abe","revokeRole(bytes32,address)":"d547741f","safeTransferFrom(address,address,uint256)":"42842e0e","safeTransferFrom(address,address,uint256,bytes)":"b88d4fde","setApprovalForAll(address,bool)":"a22cb465","setMetadata(uint256,(string,string)[])":"236b8eb3","supportsInterface(bytes4)":"01ffc9a7","symbol()":"95d89b41","tokenURI(uint256)":"c87b56dd","transferFrom(address,address,uint256)":"23b872dd","upgradeToAndCall(address,bytes)":"4f1ef286"},"storageLayout":{"storage":[{"astId":61717,"contract":"src/LeaseFactory.sol:LeaseFactory","label":"_metadata","offset":0,"slot":"0","type":"t_mapping(t_bytes32,t_mapping(t_string_memory_ptr,t_string_storage))"},{"astId":61723,"contract":"src/LeaseFactory.sol:LeaseFactory","label":"_metadataKeys","offset":0,"slot":"1","type":"t_mapping(t_bytes32,t_array(t_string_storage)dyn_storage)"},{"astId":60203,"contract":"src/LeaseFactory.sol:LeaseFactory","label":"leaseId","offset":0,"slot":"2","type":"t_uint256"},{"astId":60207,"contract":"src/LeaseFactory.sol:LeaseFactory","label":"registry","offset":0,"slot":"3","type":"t_contract(AssetRegistry)60131"},{"astId":60225,"contract":"src/LeaseFactory.sol:LeaseFactory","label":"leases","offset":0,"slot":"4","type":"t_mapping(t_uint256,t_struct(Lease)60200_storage)"}],"types":{"t_address":{"encoding":"inplace","label":"address","numberOfBytes":"20"},"t_array(t_string_storage)dyn_storage":{"encoding":"dynamic_array","label":"string[]","numberOfBytes":"32","base":"t_string_storage"},"t_array(t_struct(Metadata)61710_storage)dyn_storage":{"encoding":"dynamic_array","label":"struct MetadataStorage.Metadata[]","numberOfBytes":"32","base":"t_struct(Metadata)61710_storage"},"t_bytes32":{"encoding":"inplace","label":"bytes32","numberOfBytes":"32"},"t_contract(AssetRegistry)60131":{"encoding":"inplace","label":"contract AssetRegistry","numberOfBytes":"20"},"t_mapping(t_bytes32,t_array(t_string_storage)dyn_storage)":{"encoding":"mapping","key":"t_bytes32","label":"mapping(bytes32 => string[])","numberOfBytes":"32","value":"t_array(t_string_storage)dyn_storage"},"t_mapping(t_bytes32,t_mapping(t_string_memory_ptr,t_string_storage))":{"encoding":"mapping","key":"t_bytes32","label":"mapping(bytes32 => mapping(string => string))","numberOfBytes":"32","value":"t_mapping(t_string_memory_ptr,t_string_storage)"},"t_mapping(t_string_memory_ptr,t_string_storage)":{"encoding":"mapping","key":"t_string_memory_ptr","label":"mapping(string => string)","numberOfBytes":"32","value":"t_string_storage"},"t_mapping(t_uint256,t_struct(Lease)60200_storage)":{"encoding":"mapping","key":"t_uint256","label":"mapping(uint256 => struct LeaseFactory.Lease)","numberOfBytes":"32","value":"t_struct(Lease)60200_storage"},"t_string_memory_ptr":{"encoding":"bytes","label":"string","numberOfBytes":"32"},"t_string_storage":{"encoding":"bytes","label":"string","numberOfBytes":"32"},"t_struct(Lease)60200_storage":{"encoding":"inplace","label":"struct LeaseFactory.Lease","numberOfBytes":"352","members":[{"astId":60175,"contract":"src/LeaseFactory.sol:LeaseFactory","label":"lessor","offset":0,"slot":"0","type":"t_address"},{"astId":60177,"contract":"src/LeaseFactory.sol:LeaseFactory","label":"lessee","offset":0,"slot":"1","type":"t_address"},{"astId":60179,"contract":"src/LeaseFactory.sol:LeaseFactory","label":"assetId","offset":0,"slot":"2","type":"t_uint256"},{"astId":60181,"contract":"src/LeaseFactory.sol:LeaseFactory","label":"paymentToken","offset":0,"slot":"3","type":"t_address"},{"astId":60183,"contract":"src/LeaseFactory.sol:LeaseFactory","label":"rentAmount","offset":0,"slot":"4","type":"t_uint256"},{"astId":60185,"contract":"src/LeaseFactory.sol:LeaseFactory","label":"rentPeriod","offset":0,"slot":"5","type":"t_uint256"},{"astId":60187,"contract":"src/LeaseFactory.sol:LeaseFactory","label":"securityDeposit","offset":0,"slot":"6","type":"t_uint256"},{"astId":60189,"contract":"src/LeaseFactory.sol:LeaseFactory","label":"startTime","offset":0,"slot":"7","type":"t_uint64"},{"astId":60191,"contract":"src/LeaseFactory.sol:LeaseFactory","label":"endTime","offset":8,"slot":"7","type":"t_uint64"},{"astId":60193,"contract":"src/LeaseFactory.sol:LeaseFactory","label":"legalDocHash","offset":0,"slot":"8","type":"t_bytes32"},{"astId":60195,"contract":"src/LeaseFactory.sol:LeaseFactory","label":"termsVersion","offset":0,"slot":"9","type":"t_uint16"},{"astId":60199,"contract":"src/LeaseFactory.sol:LeaseFactory","label":"metadata","offset":0,"slot":"10","type":"t_array(t_struct(Metadata)61710_storage)dyn_storage"}]},"t_struct(Metadata)61710_storage":{"encoding":"inplace","label":"struct MetadataStorage.Metadata","numberOfBytes":"64","members":[{"astId":61706,"contract":"src/LeaseFactory.sol:LeaseFactory","label":"key","offset":0,"slot":"0","type":"t_string_storage"},{"astId":61709,"contract":"src/LeaseFactory.sol:LeaseFactory","label":"value","offset":0,"slot":"1","type":"t_string_storage"}]},"t_uint16":{"encoding":"inplace","label":"uint16","numberOfBytes":"2"},"t_uint256":{"encoding":"inplace","label":"uint256","numberOfBytes":"32"},"t_uint64":{"encoding":"inplace","label":"uint64","numberOfBytes":"8"}}},"id":83}