{"abi":[{"type":"constructor","inputs":[{"name":"admin","type":"address","internalType":"address"},{"name":"assetRegistry","type":"address","internalType":"address"}],"stateMutability":"nonpayable"},{"type":"function","name":"ADMIN_ROLE","inputs":[],"outputs":[{"name":"","type":"bytes32","internalType":"bytes32"}],"stateMutability":"view"},{"type":"function","name":"DEFAULT_ADMIN_ROLE","inputs":[],"outputs":[{"name":"","type":"bytes32","internalType":"bytes32"}],"stateMutability":"view"},{"type":"function","name":"approve","inputs":[{"name":"to","type":"address","internalType":"address"},{"name":"tokenId","type":"uint256","internalType":"uint256"}],"outputs":[],"stateMutability":"nonpayable"},{"type":"function","name":"balanceOf","inputs":[{"name":"owner","type":"address","internalType":"address"}],"outputs":[{"name":"","type":"uint256","internalType":"uint256"}],"stateMutability":"view"},{"type":"function","name":"computeLeaseTokenId","inputs":[{"name":"L","type":"tuple","internalType":"struct LeaseFactory.LeaseIntent","components":[{"name":"lessor","type":"address","internalType":"address"},{"name":"lessee","type":"address","internalType":"address"},{"name":"assetId","type":"uint256","internalType":"uint256"},{"name":"paymentToken","type":"address","internalType":"address"},{"name":"rentAmount","type":"uint256","internalType":"uint256"},{"name":"rentPeriod","type":"uint256","internalType":"uint256"},{"name":"securityDeposit","type":"uint256","internalType":"uint256"},{"name":"startTime","type":"uint64","internalType":"uint64"},{"name":"endTime","type":"uint64","internalType":"uint64"},{"name":"metadataHash","type":"bytes32","internalType":"bytes32"},{"name":"legalDocHash","type":"bytes32","internalType":"bytes32"},{"name":"nonce","type":"uint256","internalType":"uint256"},{"name":"deadline","type":"uint64","internalType":"uint64"},{"name":"termsVersion","type":"uint16","internalType":"uint16"},{"name":"assetTypeSchemaHash","type":"bytes32","internalType":"bytes32"}]}],"outputs":[{"name":"","type":"uint256","internalType":"uint256"}],"stateMutability":"pure"},{"type":"function","name":"consumedNonce","inputs":[{"name":"","type":"uint256","internalType":"uint256"}],"outputs":[{"name":"","type":"bool","internalType":"bool"}],"stateMutability":"view"},{"type":"function","name":"eip712Domain","inputs":[],"outputs":[{"name":"fields","type":"bytes1","internalType":"bytes1"},{"name":"name","type":"string","internalType":"string"},{"name":"version","type":"string","internalType":"string"},{"name":"chainId","type":"uint256","internalType":"uint256"},{"name":"verifyingContract","type":"address","internalType":"address"},{"name":"salt","type":"bytes32","internalType":"bytes32"},{"name":"extensions","type":"uint256[]","internalType":"uint256[]"}],"stateMutability":"view"},{"type":"function","name":"getApproved","inputs":[{"name":"tokenId","type":"uint256","internalType":"uint256"}],"outputs":[{"name":"","type":"address","internalType":"address"}],"stateMutability":"view"},{"type":"function","name":"getRoleAdmin","inputs":[{"name":"role","type":"bytes32","internalType":"bytes32"}],"outputs":[{"name":"","type":"bytes32","internalType":"bytes32"}],"stateMutability":"view"},{"type":"function","name":"grantRole","inputs":[{"name":"role","type":"bytes32","internalType":"bytes32"},{"name":"account","type":"address","internalType":"address"}],"outputs":[],"stateMutability":"nonpayable"},{"type":"function","name":"hasRole","inputs":[{"name":"role","type":"bytes32","internalType":"bytes32"},{"name":"account","type":"address","internalType":"address"}],"outputs":[{"name":"","type":"bool","internalType":"bool"}],"stateMutability":"view"},{"type":"function","name":"hashLeaseIntent","inputs":[{"name":"L","type":"tuple","internalType":"struct LeaseFactory.LeaseIntent","components":[{"name":"lessor","type":"address","internalType":"address"},{"name":"lessee","type":"address","internalType":"address"},{"name":"assetId","type":"uint256","internalType":"uint256"},{"name":"paymentToken","type":"address","internalType":"address"},{"name":"rentAmount","type":"uint256","internalType":"uint256"},{"name":"rentPeriod","type":"uint256","internalType":"uint256"},{"name":"securityDeposit","type":"uint256","internalType":"uint256"},{"name":"startTime","type":"uint64","internalType":"uint64"},{"name":"endTime","type":"uint64","internalType":"uint64"},{"name":"metadataHash","type":"bytes32","internalType":"bytes32"},{"name":"legalDocHash","type":"bytes32","internalType":"bytes32"},{"name":"nonce","type":"uint256","internalType":"uint256"},{"name":"deadline","type":"uint64","internalType":"uint64"},{"name":"termsVersion","type":"uint16","internalType":"uint16"},{"name":"assetTypeSchemaHash","type":"bytes32","internalType":"bytes32"}]}],"outputs":[{"name":"","type":"bytes32","internalType":"bytes32"}],"stateMutability":"view"},{"type":"function","name":"isApprovedForAll","inputs":[{"name":"owner","type":"address","internalType":"address"},{"name":"operator","type":"address","internalType":"address"}],"outputs":[{"name":"","type":"bool","internalType":"bool"}],"stateMutability":"view"},{"type":"function","name":"leases","inputs":[{"name":"","type":"uint256","internalType":"uint256"}],"outputs":[{"name":"lessor","type":"address","internalType":"address"},{"name":"lessee","type":"address","internalType":"address"},{"name":"assetId","type":"uint256","internalType":"uint256"},{"name":"paymentToken","type":"address","internalType":"address"},{"name":"rentAmount","type":"uint256","internalType":"uint256"},{"name":"rentPeriod","type":"uint256","internalType":"uint256"},{"name":"securityDeposit","type":"uint256","internalType":"uint256"},{"name":"startTime","type":"uint64","internalType":"uint64"},{"name":"endTime","type":"uint64","internalType":"uint64"},{"name":"metadataHash","type":"bytes32","internalType":"bytes32"},{"name":"legalDocHash","type":"bytes32","internalType":"bytes32"},{"name":"termsVersion","type":"uint16","internalType":"uint16"},{"name":"tokenURIOverride","type":"string","internalType":"string"},{"name":"exists","type":"bool","internalType":"bool"}],"stateMutability":"view"},{"type":"function","name":"mintLease","inputs":[{"name":"L","type":"tuple","internalType":"struct LeaseFactory.LeaseIntent","components":[{"name":"lessor","type":"address","internalType":"address"},{"name":"lessee","type":"address","internalType":"address"},{"name":"assetId","type":"uint256","internalType":"uint256"},{"name":"paymentToken","type":"address","internalType":"address"},{"name":"rentAmount","type":"uint256","internalType":"uint256"},{"name":"rentPeriod","type":"uint256","internalType":"uint256"},{"name":"securityDeposit","type":"uint256","internalType":"uint256"},{"name":"startTime","type":"uint64","internalType":"uint64"},{"name":"endTime","type":"uint64","internalType":"uint64"},{"name":"metadataHash","type":"bytes32","internalType":"bytes32"},{"name":"legalDocHash","type":"bytes32","internalType":"bytes32"},{"name":"nonce","type":"uint256","internalType":"uint256"},{"name":"deadline","type":"uint64","internalType":"uint64"},{"name":"termsVersion","type":"uint16","internalType":"uint16"},{"name":"assetTypeSchemaHash","type":"bytes32","internalType":"bytes32"}]},{"name":"sigLessor","type":"bytes","internalType":"bytes"},{"name":"sigLessee","type":"bytes","internalType":"bytes"},{"name":"tokenUri_","type":"string","internalType":"string"}],"outputs":[{"name":"tokenId","type":"uint256","internalType":"uint256"}],"stateMutability":"nonpayable"},{"type":"function","name":"name","inputs":[],"outputs":[{"name":"","type":"string","internalType":"string"}],"stateMutability":"view"},{"type":"function","name":"ownerOf","inputs":[{"name":"tokenId","type":"uint256","internalType":"uint256"}],"outputs":[{"name":"","type":"address","internalType":"address"}],"stateMutability":"view"},{"type":"function","name":"registry","inputs":[],"outputs":[{"name":"","type":"address","internalType":"contract IAssetRegistry"}],"stateMutability":"view"},{"type":"function","name":"renounceRole","inputs":[{"name":"role","type":"bytes32","internalType":"bytes32"},{"name":"callerConfirmation","type":"address","internalType":"address"}],"outputs":[],"stateMutability":"nonpayable"},{"type":"function","name":"revokeRole","inputs":[{"name":"role","type":"bytes32","internalType":"bytes32"},{"name":"account","type":"address","internalType":"address"}],"outputs":[],"stateMutability":"nonpayable"},{"type":"function","name":"safeTransferFrom","inputs":[{"name":"from","type":"address","internalType":"address"},{"name":"to","type":"address","internalType":"address"},{"name":"tokenId","type":"uint256","internalType":"uint256"}],"outputs":[],"stateMutability":"nonpayable"},{"type":"function","name":"safeTransferFrom","inputs":[{"name":"from","type":"address","internalType":"address"},{"name":"to","type":"address","internalType":"address"},{"name":"tokenId","type":"uint256","internalType":"uint256"},{"name":"data","type":"bytes","internalType":"bytes"}],"outputs":[],"stateMutability":"nonpayable"},{"type":"function","name":"setApprovalForAll","inputs":[{"name":"operator","type":"address","internalType":"address"},{"name":"approved","type":"bool","internalType":"bool"}],"outputs":[],"stateMutability":"nonpayable"},{"type":"function","name":"supportsInterface","inputs":[{"name":"interfaceId","type":"bytes4","internalType":"bytes4"}],"outputs":[{"name":"","type":"bool","internalType":"bool"}],"stateMutability":"view"},{"type":"function","name":"symbol","inputs":[],"outputs":[{"name":"","type":"string","internalType":"string"}],"stateMutability":"view"},{"type":"function","name":"tokenURI","inputs":[{"name":"tokenId","type":"uint256","internalType":"uint256"}],"outputs":[{"name":"","type":"string","internalType":"string"}],"stateMutability":"view"},{"type":"function","name":"transferFrom","inputs":[{"name":"from","type":"address","internalType":"address"},{"name":"to","type":"address","internalType":"address"},{"name":"tokenId","type":"uint256","internalType":"uint256"}],"outputs":[],"stateMutability":"nonpayable"},{"type":"event","name":"Approval","inputs":[{"name":"owner","type":"address","indexed":true,"internalType":"address"},{"name":"approved","type":"address","indexed":true,"internalType":"address"},{"name":"tokenId","type":"uint256","indexed":true,"internalType":"uint256"}],"anonymous":false},{"type":"event","name":"ApprovalForAll","inputs":[{"name":"owner","type":"address","indexed":true,"internalType":"address"},{"name":"operator","type":"address","indexed":true,"internalType":"address"},{"name":"approved","type":"bool","indexed":false,"internalType":"bool"}],"anonymous":false},{"type":"event","name":"EIP712DomainChanged","inputs":[],"anonymous":false},{"type":"event","name":"LeaseMinted","inputs":[{"name":"tokenId","type":"uint256","indexed":true,"internalType":"uint256"},{"name":"lessor","type":"address","indexed":true,"internalType":"address"},{"name":"lessee","type":"address","indexed":true,"internalType":"address"},{"name":"assetId","type":"uint256","indexed":false,"internalType":"uint256"}],"anonymous":false},{"type":"event","name":"RoleAdminChanged","inputs":[{"name":"role","type":"bytes32","indexed":true,"internalType":"bytes32"},{"name":"previousAdminRole","type":"bytes32","indexed":true,"internalType":"bytes32"},{"name":"newAdminRole","type":"bytes32","indexed":true,"internalType":"bytes32"}],"anonymous":false},{"type":"event","name":"RoleGranted","inputs":[{"name":"role","type":"bytes32","indexed":true,"internalType":"bytes32"},{"name":"account","type":"address","indexed":true,"internalType":"address"},{"name":"sender","type":"address","indexed":true,"internalType":"address"}],"anonymous":false},{"type":"event","name":"RoleRevoked","inputs":[{"name":"role","type":"bytes32","indexed":true,"internalType":"bytes32"},{"name":"account","type":"address","indexed":true,"internalType":"address"},{"name":"sender","type":"address","indexed":true,"internalType":"address"}],"anonymous":false},{"type":"event","name":"Transfer","inputs":[{"name":"from","type":"address","indexed":true,"internalType":"address"},{"name":"to","type":"address","indexed":true,"internalType":"address"},{"name":"tokenId","type":"uint256","indexed":true,"internalType":"uint256"}],"anonymous":false},{"type":"error","name":"AccessControlBadConfirmation","inputs":[]},{"type":"error","name":"AccessControlUnauthorizedAccount","inputs":[{"name":"account","type":"address","internalType":"address"},{"name":"neededRole","type":"bytes32","internalType":"bytes32"}]},{"type":"error","name":"ECDSAInvalidSignature","inputs":[]},{"type":"error","name":"ECDSAInvalidSignatureLength","inputs":[{"name":"length","type":"uint256","internalType":"uint256"}]},{"type":"error","name":"ECDSAInvalidSignatureS","inputs":[{"name":"s","type":"bytes32","internalType":"bytes32"}]},{"type":"error","name":"ERC721IncorrectOwner","inputs":[{"name":"sender","type":"address","internalType":"address"},{"name":"tokenId","type":"uint256","internalType":"uint256"},{"name":"owner","type":"address","internalType":"address"}]},{"type":"error","name":"ERC721InsufficientApproval","inputs":[{"name":"operator","type":"address","internalType":"address"},{"name":"tokenId","type":"uint256","internalType":"uint256"}]},{"type":"error","name":"ERC721InvalidApprover","inputs":[{"name":"approver","type":"address","internalType":"address"}]},{"type":"error","name":"ERC721InvalidOperator","inputs":[{"name":"operator","type":"address","internalType":"address"}]},{"type":"error","name":"ERC721InvalidOwner","inputs":[{"name":"owner","type":"address","internalType":"address"}]},{"type":"error","name":"ERC721InvalidReceiver","inputs":[{"name":"receiver","type":"address","internalType":"address"}]},{"type":"error","name":"ERC721InvalidSender","inputs":[{"name":"sender","type":"address","internalType":"address"}]},{"type":"error","name":"ERC721NonexistentToken","inputs":[{"name":"tokenId","type":"uint256","internalType":"uint256"}]},{"type":"error","name":"InvalidShortString","inputs":[]},{"type":"error","name":"StringTooLong","inputs":[{"name":"str","type":"string","internalType":"string"}]}],"bytecode":{"object":"0x610180346104c157601f612ef838819003918201601f19168301916001600160401b038311848410176102de5780849260409485528339810103126104c157610053602061004c836104e0565b92016104e0565b9060405191610061836104c5565b601483527f41737365744c656173696e6750726f746f636f6c000000000000000000000000602084015260405192610098846104c5565b60018452603160f81b60208501526040516100b2816104c5565b600f81526e1319585cd9481059dc99595b595b9d608a1b6020820152604051906100db826104c5565b60058252644c4541534560d81b60208301528051906001600160401b0382116102de575f5490600182811c921680156104b7575b60208310146103c95781601f849311610460575b50602090601f83116001146103f2575f926103e7575b50508160011b915f199060031b1c1916175f555b8051906001600160401b0382116102de5760015490600182811c921680156103dd575b60208310146103c95781601f84931161036e575b50602090601f83116001146102fd575f926102f2575b50508160011b915f199060031b1c1916176001555b6101b8816105ff565b926101209384526101c885610787565b9161014092835260208151910120948560e0526020815191012090610100958287524660a0526040519260208401917f8b73c3c69bb8fe3d512ecc4cf759cc79239f7b179b0ffacaa9a75d522b39400f8352604085015260608401524660808401523060a084015260a0835260c083019280841060018060401b038511176102de57610278936040525190206080523060c0526101609360018060a01b03168452610272816104f4565b50610560565b50604051926125b494856108c486396080518561240b015260a051856124d6015260c051856123d5015260e0518561245a015251846124800152518361062d0152518261065601525181818161072001528181610a1101528181610a6b0152610ac10152f35b634e487b7160e01b5f52604160045260245ffd5b015190505f8061019a565b60015f9081525f80516020612ed88339815191529350601f198516905b818110610356575090846001959493921061033e575b505050811b016001556101af565b01515f1960f88460031b161c191690555f8080610330565b9293602060018192878601518155019501930161031a565b60015f529091505f80516020612ed8833981519152601f840160051c810191602085106103bf575b90601f859493920160051c01905b8181106103b15750610184565b5f81558493506001016103a4565b9091508190610396565b634e487b7160e01b5f52602260045260245ffd5b91607f1691610170565b015190505f80610139565b5f8080525f80516020612e988339815191529350601f198516905b8181106104485750908460019594939210610430575b505050811b015f5561014d565b01515f1960f88460031b161c191690555f8080610423565b9293602060018192878601518155019501930161040d565b5f80529091505f80516020612e98833981519152601f840160051c8101602085106104b0575b90849392915b601f830160051c820181106104a2575050610123565b5f815585945060010161048c565b5080610486565b91607f169161010f565b5f80fd5b604081019081106001600160401b038211176102de57604052565b51906001600160a01b03821682036104c157565b6001600160a01b03165f8181525f80516020612eb8833981519152602052604090205460ff1661055b575f8181525f80516020612eb883398151915260205260408120805460ff191660011790553391905f80516020612e788339815191528180a4600190565b505f90565b6001600160a01b03165f8181527f17d1276acf776df712513cd7e943076446ad62eef46fc257e0602ed40109c3c660205260409020547fa49807205ce4d355092ef5a8a18f56e8913cf4a201fbe287825b095693c21775919060ff166105f957815f52600860205260405f20815f5260205260405f20600160ff1982541617905533915f80516020612e788339815191525f80a4600190565b50505f90565b8051602090818110156106755750601f825111610637578082519201519080831061062957501790565b825f19910360031b1b161790565b60448260405192839163305a27a960e01b83528160048401528051918291826024860152018484015e5f828201840152601f01601f19168101030190fd5b906001600160401b0382116102de57600654926001938481811c9116801561077d575b838210146103c957601f8111610749575b5081601f84116001146106e557509282939183925f946106da575b50501b915f199060031b1c19161760065560ff90565b015192505f806106c4565b919083601f19811660065f52845f20945f905b8883831061072f5750505010610717575b505050811b0160065560ff90565b01515f1960f88460031b161c191690555f8080610709565b8587015188559096019594850194879350908101906106f8565b60065f5284601f845f20920160051c820191601f860160051c015b8281106107725750506106a9565b5f8155018590610764565b90607f1690610698565b8051602090818110156107b15750601f825111610637578082519201519080831061062957501790565b906001600160401b0382116102de57600754926001938481811c911680156108b9575b838210146103c957601f8111610885575b5081601f841160011461082157509282939183925f94610816575b50501b915f199060031b1c19161760075560ff90565b015192505f80610800565b919083601f19811660075f52845f20945f905b8883831061086b5750505010610853575b505050811b0160075560ff90565b01515f1960f88460031b161c191690555f8080610845565b858701518855909601959485019487935090810190610834565b60075f5284601f845f20920160051c820191601f860160051c015b8281106108ae5750506107e5565b5f81550185906108a0565b90607f16906107d456fe6080806040526004361015610012575f80fd5b5f3560e01c90816301ffc9a7146117a25750806306fdde03146116fb578063081812fc146116bf578063095ea7b3146115de5780630f11fd471461092057806312d194f11461090457806323b872dd146108ed578063248a9ca3146108c05780632f2ff15d1461088357806336568abe1461083c57806342842e0e1461080f5780636352211e146107df57806370a082311461078957806375b238fc1461074f5780637b1039991461070b57806384b0196e1461061557806386139956146105f15780638927a106146104e857806391d148541461049f57806395d89b41146103d5578063a217fddf146103bb578063a22cb46514610311578063b88d4fde146102a6578063c87b56dd14610209578063d547741f146101ca578063e985e9c5146101785763eb3ff04014610145575f80fd5b34610174576020366003190112610174576004355f52600a602052602060ff60405f2054166040519015158152f35b5f80fd5b346101745760403660031901126101745761019161184b565b610199611861565b9060018060a01b038091165f52600560205260405f2091165f52602052602060ff60405f2054166040519015158152f35b34610174576040366003190112610174576102076004356101e9611861565b90805f526008602052610202600160405f200154611ef4565b611fb2565b005b34610174576020806003193601126101745760043590815f526009815260ff600c60405f200154161561027557610256915f526009815261025d600b60405f200160405193848092611911565b03836119d8565b610271604051928284938452830190611827565b0390f35b6064906040519062461bcd60e51b82526004820152600a6024820152691b9bdd081b5a5b9d195960b21b6044820152fd5b34610174576080366003190112610174576102bf61184b565b6102c7611861565b90604435606435926001600160401b0384116101745736602385011215610174576102ff610207943690602481600401359101611a14565b9261030b838383611beb565b33612026565b346101745760403660031901126101745761032a61184b565b6024359081151590818303610174576001600160a01b03169182156103a25761037490335f52600560205260405f20845f5260205260405f209060ff801983541691151516179055565b6040519081527f17307eab39ab6107e8899845ad3d59bd9653f200f220920489ca2b5937696c3160203392a3005b604051630b61174360e31b815260048101849052602490fd5b34610174575f3660031901126101745760206040515f8152f35b34610174575f366003190112610174576040515f600182600154926103f9846118d9565b92838352602094856001821691825f1461047f575050600114610424575b5061025d925003836119d8565b84915060015f527fb10e2d527612073b26eecdfd717e6a320cf44b4afac2b0732d9fcbe2b7fa0cf6905f915b85831061046757505061025d935082010185610417565b80548389018501528794508693909201918101610450565b60ff19168582015261025d95151560051b85010192508791506104179050565b34610174576040366003190112610174576104b8611861565b6004355f52600860205260405f209060018060a01b03165f52602052602060ff60405f2054166040519015158152f35b34610174576020366003190112610174576004355f52600960205260405f20600160a01b60019003908181541682600183015416916002810154936003820154169160048201546005830154600684015460078501546001600160401b0390600887015492600988015494600a89015461ffff1696604051998a80600b83019061057191611911565b0361057c908c6119d8565b600c015460ff169a6040519d8e809e6101c09c825260208201526040015260608d015260808c015260a08b015260c08a015281811660e08a015260401c166101008801526101208701526101408601526101608501528061018085015283016105e491611827565b9015156101a08301520390f35b34610174576101e036600319011261017457602061060d611da3565b604051908152f35b34610174575f366003190112610174576106ae6106517f0000000000000000000000000000000000000000000000000000000000000000612214565b61067a7f0000000000000000000000000000000000000000000000000000000000000000612315565b60405190610687826119a2565b5f82526106bc602091604051958695600f60f81b875260e0602088015260e0870190611827565b908582036040870152611827565b4660608501523060808501525f60a085015283810360c0850152602080845192838152019301915f5b8281106106f457505050500390f35b8351855286955093810193928101926001016106e5565b34610174575f366003190112610174576040517f00000000000000000000000000000000000000000000000000000000000000006001600160a01b03168152602090f35b34610174575f3660031901126101745760206040517fa49807205ce4d355092ef5a8a18f56e8913cf4a201fbe287825b095693c217758152f35b34610174576020366003190112610174576001600160a01b036107aa61184b565b1680156107c7575f526003602052602060405f2054604051908152f35b6040516322718ad960e21b81525f6004820152602490fd5b346101745760203660031901126101745760206107fd600435611d69565b6040516001600160a01b039091168152f35b3461017457610207610820366118a4565b906040519261082e846119a2565b5f845261030b838383611beb565b3461017457604036600319011261017457610855611861565b336001600160a01b038216036108715761020790600435611fb2565b60405163334bd91960e11b8152600490fd5b34610174576040366003190112610174576102076004356108a2611861565b90805f5260086020526108bb600160405f200154611ef4565b611f34565b34610174576020366003190112610174576004355f5260086020526020600160405f200154604051908152f35b34610174576102076108fe366118a4565b91611beb565b34610174576101e036600319011261017457602061060d611b0a565b346101745736600319016102408112610174576101e013610174576101e4356001600160401b0381116101745761095b903690600401611877565b90610204356001600160401b0381116101745761097c903690600401611877565b90610224356001600160401b0381116101745761099d903690600401611877565b949093610184356001600160401b0381168091036101745742116115af576109c3611a4a565b6001600160401b03806109d4611a60565b169116101561157e57610164355f52600a60205260ff60405f20541661154c5760405163518e2bdd60e01b815260443560048201526020816024817f00000000000000000000000000000000000000000000000000000000000000006001600160a01b03165afa9081156113fb575f91611512575b50156114dd57604051631d591eb760e31b815260443560048201525f816024817f00000000000000000000000000000000000000000000000000000000000000006001600160a01b03165afa9081156113fb575f91611406575b5051604051630806d56f60e31b815260048101919091525f816024817f00000000000000000000000000000000000000000000000000000000000000006001600160a01b03165afa80156113fb575f90611288575b6020915001516101c4350361125157610b27610b21610b3092610b19611da3565b943691611a14565b83612157565b90929192612191565b6001600160a01b03610b40611ade565b166001600160a01b039091160361121757610b63610b2792610b69943691611a14565b90612157565b6001600160a01b03610b79611af4565b166001600160a01b03909116036111dd57610164355f52600a60205260405f20600160ff19825416179055610bac611b0a565b805f52600960205260ff600c60405f200154166111a957610bcb611af4565b92604051610bd8816119a2565b5f81526001600160a01b038516948515611191575f848152600260205260409020546001600160a01b031680151590859088908361115e575b815f52600360205260405f2060018154019055825f52600260205260405f20826001600160601b0360a01b8254161790557fddf252ad1be2c89b69c2b068fc378daa952ba7f163c4a11628f55a4df523b3ef5f80a4611146573b611026575b5090919250610c7d611ade565b92610c86611af4565b916064356001600160a01b038116810361017457610ca2611a4a565b93610cab611a60565b906101a4359161ffff831683036101745760405198896101c08101106001600160401b036101c08c011117611012576101c08a0160409081526001600160a01b039182168b5292811660208b0152604435928a019290925292166060880152608435608088015260a43560a088015260c43560c08801526001600160401b0394851660e08801529316610100860152610124356101208601526101443561014086015261ffff909216610160850152610d65913691611a14565b61018083015260016101a0830152805f52600960205260405f2060018060a01b038351166001600160601b0360a01b8254161781556001810160018060a01b036020850151166001600160601b0360a01b825416179055604083015160028201556003810160018060a01b036060850151166001600160601b0360a01b8254161790556080830151600482015560a0830151600582015560c08301516006820155600781016001600160401b0360e0850151168154906fffffffffffffffff000000000000000061010087015160401b16916fffffffffffffffffffffffffffffffff19161717905561012083015160088201556101408301516009820155600a810161ffff6101608501511661ffff19825416179055600b8101926101808101519384516001600160401b03811161101257610ea282546118d9565b95601f8711610fcd575b602096508690601f8311600114610f605792826101a093610efe979693600c965f92610f55575b50508160011b915f199060031b1c19161790555b0151151591019060ff801983541691151516179055565b610f06611ade565b610f0e611af4565b60405160443581526001600160a01b03918216929091169083907fefe2f746143aa1d2f03b11088ab609d0d5fd98fa818fa1da44c1874718665cf9908690a4604051908152f35b015190508a80610ed3565b90601f19831691845f52885f20925f5b818110610fb6575093610efe979693600c9693600193836101a09810610f9e575b505050811b019055610ee7565b01515f1960f88460031b161c191690558a8080610f91565b92938a600181928786015181550195019301610f70565b825f5260205f20601f830160051c81019760208410611008575b601f0160051c01965b878110610ffd5750610eac565b5f8155600101610ff0565b9097508790610fe7565b634e487b7160e01b5f52604160045260245ffd5b6040516020818061105f630a85bd0160e11b958683523360048401525f6024840152886044840152608060648401526084830190611827565b03815f8a5af15f9181611101575b506110cc57853d156110c4573d90611084826119f9565b9161109260405193846119d8565b82523d5f602084013e5b815191826110bd57604051633250574960e11b815260048101839052602490fd5b6020915001fd5b60609061109c565b63ffffffff60e096939495961b16036110e9575090829184610c70565b60249060405190633250574960e11b82526004820152fd5b9091506020813d60201161113e575b8161111d602093836119d8565b8101031261017457516001600160e01b03198116810361017457908761106d565b3d9150611110565b6040516339e3563760e11b81525f6004820152602490fd5b5f83815260046020526040902080546001600160a01b0319169055805f52600360205260405f205f198154019055610c11565b604051633250574960e11b81525f6004820152602490fd5b60405162461bcd60e51b815260206004820152600c60248201526b6c656173652065786973747360a01b6044820152606490fd5b60405162461bcd60e51b81526020600482015260126024820152711b195cdcd959481cda59c81a5b9d985b1a5960721b6044820152606490fd5b60405162461bcd60e51b81526020600482015260126024820152711b195cdcdbdc881cda59c81a5b9d985b1a5960721b6044820152606490fd5b60405162461bcd60e51b815260206004820152600f60248201526e0e6c6d0cadac240dad2e6dac2e8c6d608b1b6044820152606490fd5b503d805f833e61129881836119d8565b6020828281010312610174578151906001600160401b0382116101745760a0828401828501031261017457604051918260a08101106001600160401b0360a0850111176110125760a08301604052808401516001600160401b03811161017457611309908386019083870101611a98565b835283810160208181015190850152604001516001600160401b03811161017457828501601f828488010101121561017457808286010151906001600160401b038211611012578160051b6040519261136560208301856119d8565b8352602083019085880160208285888c01010101116101745790602083868a010101915b60208185888c0101010183106113e75750505050604084015260608185010151906001600160401b03821161017457846113d16080936113dd95602098019084840101611a98565b60608601520101611a77565b6080820152610af8565b602080809385518152019301929150611389565b6040513d5f823e3d90fd5b90503d805f833e61141781836119d8565b6020828281010312610174578151916001600160401b0383116101745760c0838201838301031261017457604051928360c08101106001600160401b0360c0860111176110125760c084016040528181018051855261147890602001611a84565b60208501528181016040818101519086015260600151916001600160401b038311610174576114b360a0936114d29583019084840101611a98565b60608601526114c6608083830101611a84565b60808601520101611a77565b60a082015287610aa3565b60405162461bcd60e51b815260206004820152600d60248201526c6173736574202165786973747360981b6044820152606490fd5b90506020813d602011611544575b8161152d602093836119d8565b810103126101745761153e90611a77565b87610a49565b3d9150611520565b60405162461bcd60e51b815260206004820152600a6024820152691b9bdb98d9481d5cd95960b21b6044820152606490fd5b60405162461bcd60e51b81526020600482015260096024820152686261642074696d657360b81b6044820152606490fd5b60405162461bcd60e51b8152602060048201526007602482015266195e1c1a5c995960ca1b6044820152606490fd5b34610174576040366003190112610174576115f761184b565b60243561160381611d69565b331515806116ac575b80611683575b61166b576001600160a01b039283169282918491167f8c5be1e5ebec7d5bd14f71427d1e84f3dd0314c0f7b2291e5b200ac8c7c3b9255f80a45f90815260046020526040902080546001600160a01b0319169091179055005b60405163a9fbf51f60e01b8152336004820152602490fd5b5060018060a01b0381165f52600560205260405f20335f5260205260ff60405f20541615611612565b506001600160a01b03811633141561160c565b34610174576020366003190112610174576004356116dc81611d69565b505f526004602052602060018060a01b0360405f205416604051908152f35b34610174575f366003190112610174576040515f8054908261171c836118d9565b91828252602093600190856001821691825f1461047f575050600114611749575061025d925003836119d8565b5f808052859250907f290decd9548b62a8d60345a988386fc84ba6bc95484008f6362f93160ef3e5635b85831061178a57505061025d935082010185610417565b80548389018501528794508693909201918101611773565b34610174576020366003190112610174576004359063ffffffff60e01b821680920361017457602091637965db0b60e01b81149081156117e4575b5015158152f35b6380ac58cd60e01b811491508115611816575b8115611805575b50836117dd565b6301ffc9a760e01b149050836117fe565b635b5e139f60e01b811491506117f7565b805180835260209291819084018484015e5f828201840152601f01601f1916010190565b600435906001600160a01b038216820361017457565b602435906001600160a01b038216820361017457565b9181601f84011215610174578235916001600160401b038311610174576020838186019501011161017457565b6060906003190112610174576001600160a01b0390600435828116810361017457916024359081168103610174579060443590565b90600182811c92168015611907575b60208310146118f357565b634e487b7160e01b5f52602260045260245ffd5b91607f16916118e8565b80545f939261191f826118d9565b918282526020936001916001811690815f146119835750600114611945575b5050505050565b90939495505f92919252835f2092845f945b83861061196f57505050500101905f8080808061193e565b805485870183015294019385908201611957565b60ff19168685015250505090151560051b010191505f8080808061193e565b602081019081106001600160401b0382111761101257604052565b604081019081106001600160401b0382111761101257604052565b90601f801991011681019081106001600160401b0382111761101257604052565b6001600160401b03811161101257601f01601f191660200190565b929192611a20826119f9565b91611a2e60405193846119d8565b829481845281830111610174578281602093845f960137010152565b60e4356001600160401b03811681036101745790565b610104356001600160401b03811681036101745790565b5190811515820361017457565b51906001600160a01b038216820361017457565b81601f8201121561017457805190611aaf826119f9565b92611abd60405194856119d8565b8284526020838301011161017457815f9260208093018386015e8301015290565b6004356001600160a01b03811681036101745790565b6024356001600160a01b03811681036101745790565b6004356001600160a01b03818116918290036101745760243590808216809203610174576064359081168091036101745760e435906001600160401b0391828116809103610174576101043590838216809203610174576101a4359261ffff841680940361017457604051956020870197885260408701526044356060870152608086015260843560a086015260a43560c086015260c43560e08601526101008501526101208401526101243561014084015261014435610160840152610180908184015282526101a0820190828210908211176110125760405251902090565b6001600160a01b03918216929091831561119157815f52602092600284528260409583875f2054169533151580611cd7575b5060029087611ca6575b825f5260038152885f2060018154019055835f5252865f20816001600160601b0360a01b825416179055857fddf252ad1be2c89b69c2b068fc378daa952ba7f163c4a11628f55a4df523b3ef5f80a41692838303611c855750505050565b6064945051926364283d7b60e01b8452600484015260248301526044820152fd5b5f84815260046020526040812080546001600160a01b03191690558881526003825289902080545f19019055611c27565b9192509080611d28575b15611cef579084915f611c1d565b868587611d0c576024915190637e27328960e01b82526004820152fd5b604491519063177e802f60e01b82523360048301526024820152fd5b503386148015611d4d575b80611ce15750845f52600481523384885f20541614611ce1565b50855f5260058152865f20335f52815260ff875f205416611d33565b5f818152600260205260409020546001600160a01b0316908115611d8b575090565b60249060405190637e27328960e01b82526004820152fd5b6001600160a01b036004358181169081900361017457602435828116809103610174576064359283168093036101745760e435926001600160401b03938481168091036101745761010435858116809103610174576101843591868316809303610174576101a4359361ffff8516809503610174576040519560208701977f5888c706bc05792e619aaec706916b3000db2398767e862e91d5593e5271d894895260408801526060870152604435608087015260a086015260843560c086015260a43560e086015260c4356101008601526101208501526101408401526101243561016084015261014435610180840152610164356101a08401526101c08301526101e08201526102006101c4358183015281526102208101928184109084111761101257604292604052519020611ed96123d2565b906040519161190160f01b8352600283015260228201522090565b805f52600860205260405f20335f5260205260ff60405f20541615611f165750565b6044906040519063e2517d3f60e01b82523360048301526024820152fd5b90815f52600860205260405f209060018060a01b031690815f5260205260ff60405f205416155f14611fac57815f52600860205260405f20815f5260205260405f20600160ff1982541617905533917f2f8788117e7eff1d82e926ec794901d17c78024a50270940304540a733656f0d5f80a4600190565b50505f90565b90815f52600860205260405f209060018060a01b031690815f5260205260ff60405f2054165f14611fac57815f52600860205260405f20815f5260205260405f2060ff19815416905533917ff6391f5c32d9c69d2a47ea670b442974b53935d1edc7fd64eb21e047a839171b5f80a4600190565b9293909193843b612038575050505050565b604051630a85bd0160e11b8082526001600160a01b03958616600483015293851660248201526044810191909152608060648201526020959490931693929085908290819061208b906084830190611827565b03815f885af15f9181612117575b506120f8575050503d5f146120f0573d916120b3836119f9565b926120c160405194856119d8565b83523d5f8285013e5b825192836120eb57604051633250574960e11b815260048101849052602490fd5b019050fd5b6060916120ca565b9193506001600160e01b0319909116036110e957505f8080808061193e565b9091508581813d8311612150575b61212f81836119d8565b8101031261017457516001600160e01b03198116810361017457905f612099565b503d612125565b8151919060418303612187576121809250602082015190606060408401519301515f1a906124fc565b9192909190565b50505f9160029190565b600481101561220057806121a3575050565b600181036121bd5760405163f645eedf60e01b8152600490fd5b600281036121de5760405163fce698f760e01b815260048101839052602490fd5b6003146121e85750565b602490604051906335e2f38360e21b82526004820152fd5b634e487b7160e01b5f52602160045260245ffd5b60ff81146122525760ff811690601f82116122405760405191612236836119bd565b8252602082015290565b604051632cd44ac360e21b8152600490fd5b50604051600654815f612264836118d9565b808352926020906001908181169081156122f15750600114612292575b505061228f925003826119d8565b90565b91509260065f527ff652222313e28459528d920b65115c16c04f3efc82aaedc97be59f3f377c0d3f935f925b8284106122d9575061228f9450505081016020015f80612281565b855487850183015294850194869450928101926122be565b9150506020925061228f94915060ff191682840152151560051b8201015f80612281565b60ff81146123375760ff811690601f82116122405760405191612236836119bd565b50604051600754815f612349836118d9565b808352926020906001908181169081156122f1575060011461237357505061228f925003826119d8565b91509260075f527fa66cc928b5edb82af9bd49922954155ab7b0942694bea4ce44661d9a8736c688935f925b8284106123ba575061228f9450505081016020015f80612281565b8554878501830152948501948694509281019261239f565b307f00000000000000000000000000000000000000000000000000000000000000006001600160a01b031614806124d3575b1561242d577f000000000000000000000000000000000000000000000000000000000000000090565b60405160208101907f8b73c3c69bb8fe3d512ecc4cf759cc79239f7b179b0ffacaa9a75d522b39400f82527f000000000000000000000000000000000000000000000000000000000000000060408201527f000000000000000000000000000000000000000000000000000000000000000060608201524660808201523060a082015260a0815260c081018181106001600160401b038211176110125760405251902090565b507f00000000000000000000000000000000000000000000000000000000000000004614612404565b91907f7fffffffffffffffffffffffffffffff5d576e7357a4501ddfe92f46681b20a08411612573579160209360809260ff5f9560405194855216868401526040830152606082015282805260015afa156113fb575f516001600160a01b0381161561256957905f905f90565b505f906001905f90565b5050505f916003919056fea26469706673582212202bf1b2e4b50a609a338fb21ebb356f72f5cb7d69e1f8eafacdc115a4621531b364736f6c634300081900332f8788117e7eff1d82e926ec794901d17c78024a50270940304540a733656f0d290decd9548b62a8d60345a988386fc84ba6bc95484008f6362f93160ef3e5635eff886ea0ce6ca488a3d6e336d6c0f75f46d19b42c06ce5ee98e42c96d256c7b10e2d527612073b26eecdfd717e6a320cf44b4afac2b0732d9fcbe2b7fa0cf6","linkReferences":{}},"methodIdentifiers":{"ADMIN_ROLE()":"75b238fc","DEFAULT_ADMIN_ROLE()":"a217fddf","approve(address,uint256)":"095ea7b3","balanceOf(address)":"70a08231","computeLeaseTokenId((address,address,uint256,address,uint256,uint256,uint256,uint64,uint64,bytes32,bytes32,uint256,uint64,uint16,bytes32))":"12d194f1","consumedNonce(uint256)":"eb3ff040","eip712Domain()":"84b0196e","getApproved(uint256)":"081812fc","getRoleAdmin(bytes32)":"248a9ca3","grantRole(bytes32,address)":"2f2ff15d","hasRole(bytes32,address)":"91d14854","hashLeaseIntent((address,address,uint256,address,uint256,uint256,uint256,uint64,uint64,bytes32,bytes32,uint256,uint64,uint16,bytes32))":"86139956","isApprovedForAll(address,address)":"e985e9c5","leases(uint256)":"8927a106","mintLease((address,address,uint256,address,uint256,uint256,uint256,uint64,uint64,bytes32,bytes32,uint256,uint64,uint16,bytes32),bytes,bytes,string)":"0f11fd47","name()":"06fdde03","ownerOf(uint256)":"6352211e","registry()":"7b103999","renounceRole(bytes32,address)":"36568abe","revokeRole(bytes32,address)":"d547741f","safeTransferFrom(address,address,uint256)":"42842e0e","safeTransferFrom(address,address,uint256,bytes)":"b88d4fde","setApprovalForAll(address,bool)":"a22cb465","supportsInterface(bytes4)":"01ffc9a7","symbol()":"95d89b41","tokenURI(uint256)":"c87b56dd","transferFrom(address,address,uint256)":"23b872dd"},"id":55}