{"abi":[{"type":"function","name":"DEFAULT_ADMIN_ROLE","inputs":[],"outputs":[{"name":"","type":"bytes32","internalType":"bytes32"}],"stateMutability":"view"},{"type":"function","name":"UPGRADE_INTERFACE_VERSION","inputs":[],"outputs":[{"name":"","type":"string","internalType":"string"}],"stateMutability":"view"},{"type":"function","name":"approve","inputs":[{"name":"to","type":"address","internalType":"address"},{"name":"tokenId","type":"uint256","internalType":"uint256"}],"outputs":[],"stateMutability":"nonpayable"},{"type":"function","name":"balanceOf","inputs":[{"name":"owner","type":"address","internalType":"address"}],"outputs":[{"name":"","type":"uint256","internalType":"uint256"}],"stateMutability":"view"},{"type":"function","name":"eip712Domain","inputs":[],"outputs":[{"name":"fields","type":"bytes1","internalType":"bytes1"},{"name":"name","type":"string","internalType":"string"},{"name":"version","type":"string","internalType":"string"},{"name":"chainId","type":"uint256","internalType":"uint256"},{"name":"verifyingContract","type":"address","internalType":"address"},{"name":"salt","type":"bytes32","internalType":"bytes32"},{"name":"extensions","type":"uint256[]","internalType":"uint256[]"}],"stateMutability":"view"},{"type":"function","name":"getAllMetadata","inputs":[{"name":"hash","type":"bytes32","internalType":"bytes32"}],"outputs":[{"name":"metadata","type":"tuple[]","internalType":"struct MetadataStorage.Metadata[]","components":[{"name":"key","type":"string","internalType":"string"},{"name":"value","type":"string","internalType":"string"}]}],"stateMutability":"view"},{"type":"function","name":"getAllMetadata","inputs":[{"name":"tokenId","type":"uint256","internalType":"uint256"}],"outputs":[{"name":"metadata","type":"tuple[]","internalType":"struct MetadataStorage.Metadata[]","components":[{"name":"key","type":"string","internalType":"string"},{"name":"value","type":"string","internalType":"string"}]}],"stateMutability":"view"},{"type":"function","name":"getAllMetadataKeys","inputs":[{"name":"hash","type":"bytes32","internalType":"bytes32"}],"outputs":[{"name":"keys","type":"string[]","internalType":"string[]"}],"stateMutability":"view"},{"type":"function","name":"getApproved","inputs":[{"name":"tokenId","type":"uint256","internalType":"uint256"}],"outputs":[{"name":"","type":"address","internalType":"address"}],"stateMutability":"view"},{"type":"function","name":"getMetadata","inputs":[{"name":"hash","type":"bytes32","internalType":"bytes32"},{"name":"key","type":"string","internalType":"string"}],"outputs":[{"name":"value","type":"string","internalType":"string"}],"stateMutability":"view"},{"type":"function","name":"getMetadata","inputs":[{"name":"tokenId","type":"uint256","internalType":"uint256"},{"name":"key","type":"string","internalType":"string"}],"outputs":[{"name":"value","type":"string","internalType":"string"}],"stateMutability":"view"},{"type":"function","name":"getMetadataCount","inputs":[{"name":"hash","type":"bytes32","internalType":"bytes32"}],"outputs":[{"name":"count","type":"uint256","internalType":"uint256"}],"stateMutability":"view"},{"type":"function","name":"getMetadataCount","inputs":[{"name":"tokenId","type":"uint256","internalType":"uint256"}],"outputs":[{"name":"count","type":"uint256","internalType":"uint256"}],"stateMutability":"view"},{"type":"function","name":"getMetadataKeys","inputs":[{"name":"tokenId","type":"uint256","internalType":"uint256"}],"outputs":[{"name":"keys","type":"string[]","internalType":"string[]"}],"stateMutability":"view"},{"type":"function","name":"getRoleAdmin","inputs":[{"name":"role","type":"bytes32","internalType":"bytes32"}],"outputs":[{"name":"","type":"bytes32","internalType":"bytes32"}],"stateMutability":"view"},{"type":"function","name":"getTokenIdHash","inputs":[{"name":"tokenId","type":"uint256","internalType":"uint256"}],"outputs":[{"name":"hash","type":"bytes32","internalType":"bytes32"}],"stateMutability":"pure"},{"type":"function","name":"getUupsImplementation","inputs":[],"outputs":[{"name":"","type":"address","internalType":"address"}],"stateMutability":"view"},{"type":"function","name":"grantRole","inputs":[{"name":"role","type":"bytes32","internalType":"bytes32"},{"name":"account","type":"address","internalType":"address"}],"outputs":[],"stateMutability":"nonpayable"},{"type":"function","name":"hasMetadata","inputs":[{"name":"tokenId","type":"uint256","internalType":"uint256"},{"name":"key","type":"string","internalType":"string"}],"outputs":[{"name":"exists","type":"bool","internalType":"bool"}],"stateMutability":"view"},{"type":"function","name":"hasMetadata","inputs":[{"name":"hash","type":"bytes32","internalType":"bytes32"},{"name":"key","type":"string","internalType":"string"}],"outputs":[{"name":"exists","type":"bool","internalType":"bool"}],"stateMutability":"view"},{"type":"function","name":"hasRole","inputs":[{"name":"role","type":"bytes32","internalType":"bytes32"},{"name":"account","type":"address","internalType":"address"}],"outputs":[{"name":"","type":"bool","internalType":"bool"}],"stateMutability":"view"},{"type":"function","name":"hashLeaseIntent","inputs":[{"name":"L","type":"tuple","internalType":"struct LeaseFactory.LeaseIntent","components":[{"name":"deadline","type":"uint64","internalType":"uint64"},{"name":"assetTypeSchemaHash","type":"bytes32","internalType":"bytes32"},{"name":"lease","type":"tuple","internalType":"struct LeaseFactory.Lease","components":[{"name":"lessor","type":"address","internalType":"address"},{"name":"lessee","type":"address","internalType":"address"},{"name":"assetId","type":"uint256","internalType":"uint256"},{"name":"paymentToken","type":"address","internalType":"address"},{"name":"rentAmount","type":"uint256","internalType":"uint256"},{"name":"rentPeriod","type":"uint256","internalType":"uint256"},{"name":"securityDeposit","type":"uint256","internalType":"uint256"},{"name":"startTime","type":"uint64","internalType":"uint64"},{"name":"endTime","type":"uint64","internalType":"uint64"},{"name":"legalDocHash","type":"bytes32","internalType":"bytes32"},{"name":"termsVersion","type":"uint16","internalType":"uint16"},{"name":"metadata","type":"tuple[]","internalType":"struct MetadataStorage.Metadata[]","components":[{"name":"key","type":"string","internalType":"string"},{"name":"value","type":"string","internalType":"string"}]}]}]}],"outputs":[{"name":"","type":"bytes32","internalType":"bytes32"}],"stateMutability":"view"},{"type":"function","name":"initialize","inputs":[{"name":"admin","type":"address","internalType":"address"},{"name":"assetRegistry","type":"address","internalType":"address"}],"outputs":[],"stateMutability":"nonpayable"},{"type":"function","name":"isApprovedForAll","inputs":[{"name":"owner","type":"address","internalType":"address"},{"name":"operator","type":"address","internalType":"address"}],"outputs":[{"name":"","type":"bool","internalType":"bool"}],"stateMutability":"view"},{"type":"function","name":"leaseId","inputs":[],"outputs":[{"name":"","type":"uint256","internalType":"uint256"}],"stateMutability":"view"},{"type":"function","name":"leases","inputs":[{"name":"","type":"uint256","internalType":"uint256"}],"outputs":[{"name":"lessor","type":"address","internalType":"address"},{"name":"lessee","type":"address","internalType":"address"},{"name":"assetId","type":"uint256","internalType":"uint256"},{"name":"paymentToken","type":"address","internalType":"address"},{"name":"rentAmount","type":"uint256","internalType":"uint256"},{"name":"rentPeriod","type":"uint256","internalType":"uint256"},{"name":"securityDeposit","type":"uint256","internalType":"uint256"},{"name":"startTime","type":"uint64","internalType":"uint64"},{"name":"endTime","type":"uint64","internalType":"uint64"},{"name":"legalDocHash","type":"bytes32","internalType":"bytes32"},{"name":"termsVersion","type":"uint16","internalType":"uint16"}],"stateMutability":"view"},{"type":"function","name":"mintLease","inputs":[{"name":"L","type":"tuple","internalType":"struct LeaseFactory.LeaseIntent","components":[{"name":"deadline","type":"uint64","internalType":"uint64"},{"name":"assetTypeSchemaHash","type":"bytes32","internalType":"bytes32"},{"name":"lease","type":"tuple","internalType":"struct LeaseFactory.Lease","components":[{"name":"lessor","type":"address","internalType":"address"},{"name":"lessee","type":"address","internalType":"address"},{"name":"assetId","type":"uint256","internalType":"uint256"},{"name":"paymentToken","type":"address","internalType":"address"},{"name":"rentAmount","type":"uint256","internalType":"uint256"},{"name":"rentPeriod","type":"uint256","internalType":"uint256"},{"name":"securityDeposit","type":"uint256","internalType":"uint256"},{"name":"startTime","type":"uint64","internalType":"uint64"},{"name":"endTime","type":"uint64","internalType":"uint64"},{"name":"legalDocHash","type":"bytes32","internalType":"bytes32"},{"name":"termsVersion","type":"uint16","internalType":"uint16"},{"name":"metadata","type":"tuple[]","internalType":"struct MetadataStorage.Metadata[]","components":[{"name":"key","type":"string","internalType":"string"},{"name":"value","type":"string","internalType":"string"}]}]}]},{"name":"sigLessor","type":"bytes","internalType":"bytes"},{"name":"sigLessee","type":"bytes","internalType":"bytes"}],"outputs":[{"name":"tokenId","type":"uint256","internalType":"uint256"}],"stateMutability":"nonpayable"},{"type":"function","name":"name","inputs":[],"outputs":[{"name":"","type":"string","internalType":"string"}],"stateMutability":"view"},{"type":"function","name":"ownerOf","inputs":[{"name":"tokenId","type":"uint256","internalType":"uint256"}],"outputs":[{"name":"","type":"address","internalType":"address"}],"stateMutability":"view"},{"type":"function","name":"proxiableUUID","inputs":[],"outputs":[{"name":"","type":"bytes32","internalType":"bytes32"}],"stateMutability":"view"},{"type":"function","name":"registry","inputs":[],"outputs":[{"name":"","type":"address","internalType":"contract AssetRegistry"}],"stateMutability":"view"},{"type":"function","name":"removeMetadata","inputs":[{"name":"hash","type":"bytes32","internalType":"bytes32"},{"name":"key","type":"string","internalType":"string"}],"outputs":[],"stateMutability":"nonpayable"},{"type":"function","name":"removeMetadata","inputs":[{"name":"tokenId","type":"uint256","internalType":"uint256"},{"name":"key","type":"string","internalType":"string"}],"outputs":[],"stateMutability":"nonpayable"},{"type":"function","name":"renounceRole","inputs":[{"name":"role","type":"bytes32","internalType":"bytes32"},{"name":"callerConfirmation","type":"address","internalType":"address"}],"outputs":[],"stateMutability":"nonpayable"},{"type":"function","name":"revokeRole","inputs":[{"name":"role","type":"bytes32","internalType":"bytes32"},{"name":"account","type":"address","internalType":"address"}],"outputs":[],"stateMutability":"nonpayable"},{"type":"function","name":"safeTransferFrom","inputs":[{"name":"from","type":"address","internalType":"address"},{"name":"to","type":"address","internalType":"address"},{"name":"tokenId","type":"uint256","internalType":"uint256"}],"outputs":[],"stateMutability":"nonpayable"},{"type":"function","name":"safeTransferFrom","inputs":[{"name":"from","type":"address","internalType":"address"},{"name":"to","type":"address","internalType":"address"},{"name":"tokenId","type":"uint256","internalType":"uint256"},{"name":"data","type":"bytes","internalType":"bytes"}],"outputs":[],"stateMutability":"nonpayable"},{"type":"function","name":"setApprovalForAll","inputs":[{"name":"operator","type":"address","internalType":"address"},{"name":"approved","type":"bool","internalType":"bool"}],"outputs":[],"stateMutability":"nonpayable"},{"type":"function","name":"setMetadata","inputs":[{"name":"tokenId","type":"uint256","internalType":"uint256"},{"name":"metadata_","type":"tuple[]","internalType":"struct MetadataStorage.Metadata[]","components":[{"name":"key","type":"string","internalType":"string"},{"name":"value","type":"string","internalType":"string"}]}],"outputs":[],"stateMutability":"nonpayable"},{"type":"function","name":"setMetadata","inputs":[{"name":"hash","type":"bytes32","internalType":"bytes32"},{"name":"metadata_","type":"tuple[]","internalType":"struct MetadataStorage.Metadata[]","components":[{"name":"key","type":"string","internalType":"string"},{"name":"value","type":"string","internalType":"string"}]}],"outputs":[],"stateMutability":"nonpayable"},{"type":"function","name":"supportsInterface","inputs":[{"name":"interfaceId","type":"bytes4","internalType":"bytes4"}],"outputs":[{"name":"","type":"bool","internalType":"bool"}],"stateMutability":"view"},{"type":"function","name":"symbol","inputs":[],"outputs":[{"name":"","type":"string","internalType":"string"}],"stateMutability":"view"},{"type":"function","name":"tokenURI","inputs":[{"name":"tokenId","type":"uint256","internalType":"uint256"}],"outputs":[{"name":"","type":"string","internalType":"string"}],"stateMutability":"view"},{"type":"function","name":"transferFrom","inputs":[{"name":"from","type":"address","internalType":"address"},{"name":"to","type":"address","internalType":"address"},{"name":"tokenId","type":"uint256","internalType":"uint256"}],"outputs":[],"stateMutability":"nonpayable"},{"type":"function","name":"upgradeToAndCall","inputs":[{"name":"newImplementation","type":"address","internalType":"address"},{"name":"data","type":"bytes","internalType":"bytes"}],"outputs":[],"stateMutability":"payable"},{"type":"event","name":"Approval","inputs":[{"name":"owner","type":"address","indexed":true,"internalType":"address"},{"name":"approved","type":"address","indexed":true,"internalType":"address"},{"name":"tokenId","type":"uint256","indexed":true,"internalType":"uint256"}],"anonymous":false},{"type":"event","name":"ApprovalForAll","inputs":[{"name":"owner","type":"address","indexed":true,"internalType":"address"},{"name":"operator","type":"address","indexed":true,"internalType":"address"},{"name":"approved","type":"bool","indexed":false,"internalType":"bool"}],"anonymous":false},{"type":"event","name":"EIP712DomainChanged","inputs":[],"anonymous":false},{"type":"event","name":"Initialized","inputs":[{"name":"version","type":"uint64","indexed":false,"internalType":"uint64"}],"anonymous":false},{"type":"event","name":"LeaseMinted","inputs":[{"name":"tokenId","type":"uint256","indexed":true,"internalType":"uint256"},{"name":"lessor","type":"address","indexed":true,"internalType":"address"},{"name":"lessee","type":"address","indexed":true,"internalType":"address"},{"name":"assetId","type":"uint256","indexed":false,"internalType":"uint256"}],"anonymous":false},{"type":"event","name":"MetadataRemoved","inputs":[{"name":"hash","type":"bytes32","indexed":true,"internalType":"bytes32"},{"name":"key","type":"string","indexed":false,"internalType":"string"}],"anonymous":false},{"type":"event","name":"MetadataUpdated","inputs":[{"name":"hash","type":"bytes32","indexed":true,"internalType":"bytes32"},{"name":"key","type":"string","indexed":false,"internalType":"string"},{"name":"value","type":"string","indexed":false,"internalType":"string"}],"anonymous":false},{"type":"event","name":"RoleAdminChanged","inputs":[{"name":"role","type":"bytes32","indexed":true,"internalType":"bytes32"},{"name":"previousAdminRole","type":"bytes32","indexed":true,"internalType":"bytes32"},{"name":"newAdminRole","type":"bytes32","indexed":true,"internalType":"bytes32"}],"anonymous":false},{"type":"event","name":"RoleGranted","inputs":[{"name":"role","type":"bytes32","indexed":true,"internalType":"bytes32"},{"name":"account","type":"address","indexed":true,"internalType":"address"},{"name":"sender","type":"address","indexed":true,"internalType":"address"}],"anonymous":false},{"type":"event","name":"RoleRevoked","inputs":[{"name":"role","type":"bytes32","indexed":true,"internalType":"bytes32"},{"name":"account","type":"address","indexed":true,"internalType":"address"},{"name":"sender","type":"address","indexed":true,"internalType":"address"}],"anonymous":false},{"type":"event","name":"Transfer","inputs":[{"name":"from","type":"address","indexed":true,"internalType":"address"},{"name":"to","type":"address","indexed":true,"internalType":"address"},{"name":"tokenId","type":"uint256","indexed":true,"internalType":"uint256"}],"anonymous":false},{"type":"event","name":"Upgraded","inputs":[{"name":"implementation","type":"address","indexed":true,"internalType":"address"}],"anonymous":false},{"type":"error","name":"AccessControlBadConfirmation","inputs":[]},{"type":"error","name":"AccessControlUnauthorizedAccount","inputs":[{"name":"account","type":"address","internalType":"address"},{"name":"neededRole","type":"bytes32","internalType":"bytes32"}]},{"type":"error","name":"AddressEmptyCode","inputs":[{"name":"target","type":"address","internalType":"address"}]},{"type":"error","name":"ECDSAInvalidSignature","inputs":[]},{"type":"error","name":"ECDSAInvalidSignatureLength","inputs":[{"name":"length","type":"uint256","internalType":"uint256"}]},{"type":"error","name":"ECDSAInvalidSignatureS","inputs":[{"name":"s","type":"bytes32","internalType":"bytes32"}]},{"type":"error","name":"ERC1967InvalidImplementation","inputs":[{"name":"implementation","type":"address","internalType":"address"}]},{"type":"error","name":"ERC1967NonPayable","inputs":[]},{"type":"error","name":"ERC721IncorrectOwner","inputs":[{"name":"sender","type":"address","internalType":"address"},{"name":"tokenId","type":"uint256","internalType":"uint256"},{"name":"owner","type":"address","internalType":"address"}]},{"type":"error","name":"ERC721InsufficientApproval","inputs":[{"name":"operator","type":"address","internalType":"address"},{"name":"tokenId","type":"uint256","internalType":"uint256"}]},{"type":"error","name":"ERC721InvalidApprover","inputs":[{"name":"approver","type":"address","internalType":"address"}]},{"type":"error","name":"ERC721InvalidOperator","inputs":[{"name":"operator","type":"address","internalType":"address"}]},{"type":"error","name":"ERC721InvalidOwner","inputs":[{"name":"owner","type":"address","internalType":"address"}]},{"type":"error","name":"ERC721InvalidReceiver","inputs":[{"name":"receiver","type":"address","internalType":"address"}]},{"type":"error","name":"ERC721InvalidSender","inputs":[{"name":"sender","type":"address","internalType":"address"}]},{"type":"error","name":"ERC721NonexistentToken","inputs":[{"name":"tokenId","type":"uint256","internalType":"uint256"}]},{"type":"error","name":"FailedCall","inputs":[]},{"type":"error","name":"InvalidInitialization","inputs":[]},{"type":"error","name":"NotInitializing","inputs":[]},{"type":"error","name":"UUPSUnauthorizedCallContext","inputs":[]},{"type":"error","name":"UUPSUnsupportedProxiableUUID","inputs":[{"name":"slot","type":"bytes32","internalType":"bytes32"}]}],"bytecode":{"object":"0x60a080604052346100c257306080525f516020613da15f395f51905f525460ff8160401c166100b3576002600160401b03196001600160401b03821601610060575b604051613cda90816100c782396080518181816116dd015261176f0152f35b6001600160401b0319166001600160401b039081175f516020613da15f395f51905f525581527fc7f505b2f371ae2175ee4913f4499e1f2633a7b5936321eed1cdaeb6115181d290602090a15f80610041565b63f92ee8a960e01b5f5260045ffd5b5f80fdfe6080806040526004361015610012575f80fd5b5f3560e01c90816301ffc9a7146122ec5750806305daf368146122cd57806306fdde03146121ea578063081812fc146121a1578063095ea7b3146120b55780630e1ae91b1461204a57806313d3755014612027578063236b8eb314611e8857806323b872dd14611e71578063248a9ca314611e3a57806326f389ba14611d7e5780632b679e3014611d575780632f2ff15d14611d0d57806330c79cfe14611cf0578063358410d514611cbc57806336568abe14611c785780633b41f4ea14611b2d57806342842e0e14611afe5780634547bd6414611ac0578063485cc955146119505780634f1ef2861461173157806352d1902d146116cb5780635cb0e05a146116a05780635e597156146116765780636352211e1461164657806370a08231146115f75780637577d428146113f35780637b103999146113cb57806384b0196e146112815780638927a106146111c25780638c5acee71461118f57806391d148541461113a57806393e3f3b01461110857806395d89b41146110005780639af66ccd146104af578063a217fddf14610495578063a22cb465146103fd578063ad3cb1cc146103b6578063b88d4fde1461035c578063c87b56dd1461033d578063cb4799f2146102f5578063d547741f146102a4578063e5e0a25d14610281578063e985e9c5146102355763ff74ef301461020b575f80fd5b34610231576020366003190112610231576020610229600435613168565b604051908152f35b5f80fd5b346102315760403660031901126102315761024e612414565b61025f61025961242a565b91612e0e565b9060018060a01b03165f52602052602060ff60405f2054166040519015158152f35b3461023157602061029a61029436612518565b9161313a565b6040519015158152f35b34610231576040366003190112610231576102f36004356102c361242a565b906102ee6102e9825f525f516020613c455f395f51905f52602052600160405f20015490565b613205565b6133d7565b005b346102315761033961032561031761031f61030f36612518565b939091613168565b923691612497565b9061291d565b604051918291602083526020830190612371565b0390f35b3461023157602036600319011261023157610339610325600435612efa565b3461023157608036600319011261023157610375612414565b61037d61242a565b90604435606435926001600160401b038411610231576103a46102f39436906004016124cd565b926103b0838383612954565b33613895565b34610231575f366003190112610231576103396040516103d760408261245b565b60058152640352e302e360dc1b6020820152604051918291602083526020830190612371565b3461023157604036600319011261023157610416612414565b60243590811515809203610231576001600160a01b03169081156104825761043d33612e0e565b825f5260205260405f2060ff1981541660ff83161790556040519081527f17307eab39ab6107e8899845ad3d59bd9653f200f220920489ca2b5937696c3160203392a3005b50630b61174360e31b5f5260045260245ffd5b34610231575f3660031901126102315760206040515f8152f35b34610231576060366003190112610231576004356001600160401b038111610231578060040160606003198336030112610231576024356001600160401b038111610231576105029036906004016124eb565b90926044356001600160401b038111610231576105239036906004016124eb565b9290916001600160401b0361053786612e46565b164211610fd1576044019461055760e06105518888612e5a565b01612e46565b6001600160401b03806105706101006105518b8b612e5a565b1691161015610fa0576003546001600160a01b0316602060406105938989612e5a565b013560246040518094819363518e2bdd60e01b835260048301525afa908115610f95575f91610f5a575b5015610f25576105e46105de6105ed926105d688613473565b943691612497565b836139b9565b909291926139f3565b6001600160a01b036106076106028888612e5a565b612e70565b166001600160a01b0390911603610eeb5761062a6105e492610630943691612497565b906139b9565b6001600160a01b0361064d60206106478686612e5a565b01612e70565b166001600160a01b0390911603610eb1576002545f198114610d1e576001810160025561067f60206106478585612e5a565b60209060405161068f838261245b565b5f81526001600160a01b038216918215610e9e576106ac8561324b565b6001600160a01b03811680151591908790869084610e62575b6106ce86612dd6565b805460010190555f8381527f80bb2b638cc20bc4d0a60d66940f3ab4a00c1d7b313497ca82fb0b4ab00793028a526040812080546001600160a01b031916841790557fddf252ad1be2c89b69c2b068fc378daa952ba7f163c4a11628f55a4df523b3ef9080a450610e4f573b610d32575b505061074b8484612e5a565b5f838152600483526040902061089290600a906001600160a01b0361076f85612e70565b82546001600160a01b031916911617815561078b848601612e70565b6001820180546001600160a01b0319166001600160a01b03909216919091179055604084013560028201556107c260608501612e70565b6003820180546001600160a01b0319166001600160a01b039092169190911790556080840135600482015560a0840135600582015560c08401356006820155600781016001600160401b0361081960e08701612e46565b166001600160401b03198254161781556108366101008601612e46565b67ffffffffffffffff60401b82549160401b169067ffffffffffffffff60401b191617905561012084013560088201556009810161ffff61087a6101408701612e84565b1661ffff198254161790550191610160810190612e93565b91600160401b8311610a76578054838255808410610cc0575b505f90815283812090929136819003603e190190805b848610610af757505050505050604051818101908382528281526108e660408261245b565b5190209161090c6109056108fa8787612e5a565b610160810190612e93565b36916125fb565b946109156131b6565b5f5b8651811015610a8a57845f525f8452610959848060405f20610939858c612797565b515190604051938285935191829101845e820190815203019020546126de565b156109a185610968848b612797565b510151875f525f875286808b6109828760405f2092612797565b515190604051938285935191829101845e820190815203019020612cb6565b610a16575b80857fc42c4edbc41dce02b01dd098a1f7a4c685c638d7a2fdfbe449b32e1f89fbfae1610a008a610a0d896109e9876109e160019a86612797565b515194612797565b510151604051938493604085526040850190612371565b908382038c850152612371565b0390a201610917565b845f526001845260405f2090610a2c8189612797565b5151918054600160401b811015610a7657610a4c916001820181556126b5565b610a6357600192610a5c91612cb6565b90506109a6565b634e487b7160e01b5f525f60045260245ffd5b634e487b7160e01b5f52604160045260245ffd5b5084827fefe2f746143aa1d2f03b11088ab609d0d5fd98fa818fa1da44c1874718665cf9856040610ad6610ac16106028888612e5a565b96610ad084610647838a612e5a565b96612e5a565b60405191013581526001600160a01b039485169590941693a4604051908152f35b803583811215610231578201610b0d8180612ec8565b906001600160401b038211610a7657610b3082610b2a89546126de565b89612b94565b5f90601f8311600114610c5d57610b5e92915f9183610c52575b50508160011b915f199060031b1c19161790565b85555b610b72600186019189810190612ec8565b6001600160401b038193929311610a76578992610b9982610b9385546126de565b85612b94565b5f90601f8311600114610be85782600196936002969593610bce935f92610bdd5750508160011b915f199060031b1c19161790565b90555b019401950194926108c1565b013590505f80610b4a565b601f19831691845f52855f20925f5b818110610c3a575092600197949192889383600299989610610c21575b505050811b019055610bd1565b01355f19600384901b60f8161c191690555f8080610c14565b8284013585558e976001909501949283019201610bf7565b013590508e80610b4a565b601f19831691885f528b5f20925f5b8d828210610caa575050908460019594939210610c91575b505050811b018555610b61565b01355f19600384901b60f8161c191690558d8080610c84565b6001849682939587013581550195019201610c6c565b6001600160ff1b0381168103610d1e576001600160ff1b0384168403610d1e57815f52845f209060011b8101908460011b015b818110610d0057506108ab565b80610d0c600292612b36565b610d1860018201612b36565b01610cf3565b634e487b7160e01b5f52601160045260245ffd5b82610d72916040979593979694965180938192630a85bd0160e11b83523360048401525f6024840152866044840152608060648401526084830190612371565b03815f8a5af15f9181610e0f575b50610dd55785853d15610dcd573d90610d988261247c565b91610da6604051938461245b565b82523d5f8284013e5b81519182610dca5783633250574960e11b5f5260045260245ffd5b01fd5b606090610daf565b9294919390929091906001600160e01b03191663757a42ff60e11b01610dfd5750848061073f565b633250574960e11b5f5260045260245ffd5b9091508581813d8311610e48575b610e27818361245b565b8101031261023157516001600160e01b031981168103610231579087610d80565b503d610e1d565b6339e3563760e11b5f525f60045260245ffd5b5f8381525f516020613c655f395f51905f526020526040902080546001600160a01b0319169055610e9284612dd6565b80545f190190556106c5565b633250574960e11b5f525f60045260245ffd5b60405162461bcd60e51b81526020600482015260126024820152711b195cdcd959481cda59c81a5b9d985b1a5960721b6044820152606490fd5b60405162461bcd60e51b81526020600482015260126024820152711b195cdcdbdc881cda59c81a5b9d985b1a5960721b6044820152606490fd5b60405162461bcd60e51b815260206004820152600d60248201526c6173736574202165786973747360981b6044820152606490fd5b90506020813d602011610f8d575b81610f756020938361245b565b810103126102315751801515810361023157876105bd565b3d9150610f68565b6040513d5f823e3d90fd5b60405162461bcd60e51b81526020600482015260096024820152686261642074696d657360b81b6044820152606490fd5b60405162461bcd60e51b8152602060048201526007602482015266195e1c1a5c995960ca1b6044820152606490fd5b34610231575f366003190112610231576040515f7f80bb2b638cc20bc4d0a60d66940f3ab4a00c1d7b313497ca82fb0b4ab00793015461103f816126de565b80845290600181169081156110e45750600114611067575b610339836103258185038261245b565b7f80bb2b638cc20bc4d0a60d66940f3ab4a00c1d7b313497ca82fb0b4ab00793015f9081527ff4bad0a69248f59680a4f2b3000328cec71a413447c96781cfe5996daa8c456e939250905b8082106110ca57509091508101602001610325611057565b9192600181602092548385880101520191019092916110b2565b60ff191660208086019190915291151560051b840190910191506103259050611057565b3461023157602036600319011261023157611124600435613168565b5f526001602052602060405f2054604051908152f35b346102315760403660031901126102315761115361242a565b6004355f525f516020613c455f395f51905f5260205260405f209060018060a01b03165f52602052602060ff60405f2054166040519015158152f35b34610231576020366003190112610231576103396111b66111b1600435613168565b6127ab565b60405191829182612395565b34610231576020366003190112610231576004355f52600460205261016060405f2060018060a01b038154169060018060a01b03600182015416906001600160401b03600282015460018060a01b03600384015416600484015460058501549060068601549260078701549461ffff600960088a015499015416986040519a8b5260208b015260408a01526060890152608088015260a087015260c086015281811660e086015260401c16610100840152610120830152610140820152f35b34610231575f366003190112610231577fa16a46d94261c7517cc8ff89f61c0ce93598e3c849801011dee649a6a557d1005415806113a2575b15611365576113096112ca6136d3565b6112d26137c4565b6020611317604051926112e5838561245b565b5f84525f368137604051958695600f60f81b875260e08588015260e0870190612371565b908582036040870152612371565b4660608501523060808501525f60a085015283810360c08501528180845192838152019301915f5b82811061134e57505050500390f35b83518552869550938101939281019260010161133f565b60405162461bcd60e51b81526020600482015260156024820152741152540dcc4c8e88155b9a5b9a5d1a585b1a5e9959605a1b6044820152606490fd5b507fa16a46d94261c7517cc8ff89f61c0ce93598e3c849801011dee649a6a557d10154156112ba565b34610231575f366003190112610231576003546040516001600160a01b039091168152602090f35b346102315761141461140436612518565b92909161140f6131b6565b613168565b9161141d6131b6565b825f525f60205261144660405f20602060405180928587833785820190815203019020546126de565b156115bd57825f525f60205261147360405f20602060405180928587833785820190815203019020612b36565b825f52600160205260405f20905f5b825480821015611590576114a96114b061149c84876126b5565b5060405192838092612716565b038261245b565b602081519101206114c2368588612497565b60208151910120146114d75750600101611482565b929391925f198101908111610d1e576114f36114fb91866126b5565b5091856126b5565b919091610a635761150b91612bd7565b825490811561157c577fca45c60cf1bbd58b2ac673da0d008eb3606c36e814e8d7fe0df3a3e53ecc59b7936040925f19019061155061154a83836126b5565b90612b85565b555b82825193849260208452816020850152848401375f828201840152601f01601f19168101030190a2005b634e487b7160e01b5f52603160045260245ffd5b5050905060407fca45c60cf1bbd58b2ac673da0d008eb3606c36e814e8d7fe0df3a3e53ecc59b792611552565b60405162461bcd60e51b815260206004820152601260248201527112d95e48191bd95cc81b9bdd08195e1a5cdd60721b6044820152606490fd5b3461023157602036600319011261023157611610612414565b6001600160a01b038116156116335761162a602091612dd6565b54604051908152f35b6322718ad960e21b5f525f60045260245ffd5b34610231576020366003190112610231576020611664600435613187565b6040516001600160a01b039091168152f35b34610231576020366003190112610231576004355f526001602052602060405f2054604051908152f35b34610231576020366003190112610231576103396116bf600435612d6e565b60405191829182612585565b34610231575f366003190112610231577f00000000000000000000000000000000000000000000000000000000000000006001600160a01b031630036117225760206040515f516020613c255f395f51905f528152f35b63703e46dd60e11b5f5260045ffd5b604036600319011261023157611745612414565b6024356001600160401b038111610231576117649036906004016124cd565b906001600160a01b037f00000000000000000000000000000000000000000000000000000000000000001630811490811561192e575b5061172257335f9081527fab71e3f32666744d246edff3f96e4bdafee2e9867098cdd118a979a7464786a8602052604090205460ff16156118f7576040516352d1902d60e01b81526001600160a01b0382169290602081600481875afa5f91816118c3575b506118175783634c9c8ce360e01b5f5260045260245ffd5b805f516020613c255f395f51905f528592036118b15750823b1561189f575f516020613c255f395f51905f5280546001600160a01b031916821790557fbc7cd75a20ee27fd9adebab32041f755214dbc6bffa90cc0225b39da2e5c2d3b5f80a2805115611887576102f391613a67565b50503461189057005b63b398979f60e01b5f5260045ffd5b634c9c8ce360e01b5f5260045260245ffd5b632a87526960e21b5f5260045260245ffd5b9091506020813d6020116118ef575b816118df6020938361245b565b81010312610231575190856117ff565b3d91506118d2565b63e2517d3f60e01b5f52336004527f189ab7a9244df0848122154315af71fe140f3db0fe014031783b0946b8c9d2e360245260445ffd5b5f516020613c255f395f51905f52546001600160a01b0316141590508361179a565b3461023157604036600319011261023157611969612414565b61197161242a565b5f516020613c855f395f51905f5254916001600160401b0360ff8460401c1615931680159081611ab8575b6001149081611aae575b159081611aa5575b50611a9657611a0d918360016001600160401b03195f516020613c855f395f51905f525416175f516020613c855f395f51905f5255611a66575b60018060a01b03166bffffffffffffffffffffffff60a01b6003541617600355613284565b50611a1457005b60ff60401b195f516020613c855f395f51905f5254165f516020613c855f395f51905f52557fc7f505b2f371ae2175ee4913f4499e1f2633a7b5936321eed1cdaeb6115181d2602060405160018152a1005b600160401b60ff60401b195f516020613c855f395f51905f525416175f516020613c855f395f51905f52556119e8565b63f92ee8a960e01b5f5260045ffd5b905015846119ae565b303b1591506119a6565b84915061199c565b34610231576020366003190112610231576004356001600160401b038111610231576060600319823603011261023157610229602091600401613473565b34610231576102f3611b0f3661254b565b9060405192611b1f60208561245b565b5f84526103b0838383612954565b34610231576040366003190112610231576004356024356001600160401b038111610231573660238201121561023157611b719036906024816004013591016125fb565b90611b7a6131b6565b5f5b82518110156102f357815f525f602052611ba060208060405f206109398588612797565b15611bcb6020611bb08487612797565b510151845f525f60205260208060405f20610982878a612797565b611c2a575b80827fc42c4edbc41dce02b01dd098a1f7a4c685c638d7a2fdfbe449b32e1f89fbfae1611c13611c0260019588612797565b5151611c2160206109e9878b612797565b908382036020850152612371565b0390a201611b7c565b815f52600160205260405f2090611c418185612797565b5151918054600160401b811015610a7657611c61916001820181556126b5565b610a6357600192611c7191612cb6565b9050611bd0565b3461023157604036600319011261023157611c9161242a565b336001600160a01b03821603611cad576102f3906004356133d7565b63334bd91960e11b5f5260045ffd5b34610231575f366003190112610231575f516020613c255f395f51905f52546040516001600160a01b039091168152602090f35b34610231575f366003190112610231576020600254604051908152f35b34610231576040366003190112610231576102f3600435611d2c61242a565b90611d526102e9825f525f516020613c455f395f51905f52602052600160405f20015490565b613333565b34610231576020366003190112610231576103396116bf611d79600435613168565b612d6e565b3461023157611d8c36612518565b611d946131b6565b825f525f602052611dbd60405f20602060405180928587833785820190815203019020546126de565b156115bd57825f525f602052611dea60405f20602060405180928587833785820190815203019020612b36565b825f52600160205260405f20905f5b825480821015611590576114a9611e1361149c84876126b5565b60208151910120611e25368588612497565b60208151910120146114d75750600101611df9565b346102315760203660031901126102315760206102296004355f525f516020613c455f395f51905f52602052600160405f20015490565b34610231576102f3611e823661254b565b91612954565b34610231576040366003190112610231576024356004356001600160401b0382116102315736602383011215610231578160040135916001600160401b038311610231573660248460051b8301011161023157611ee36131b6565b6001600160a01b03611ef48361324b565b1615611fef57611f06611f1192613168565b9260243692016125fb565b90611f1a6131b6565b5f5b82518110156102f357815f525f602052611f4060208060405f206109398588612797565b15611f506020611bb08487612797565b611fa1575b80827fc42c4edbc41dce02b01dd098a1f7a4c685c638d7a2fdfbe449b32e1f89fbfae1611c13611f8760019588612797565b5151611f9860206109e9878b612797565b0390a201611f1c565b815f52600160205260405f2090611fb88185612797565b5151918054600160401b811015610a7657611fd8916001820181556126b5565b610a6357600192611fe891612cb6565b9050611f55565b60405162461bcd60e51b815260206004820152601060248201526f1d1bdad95b881b9bdd081b5a5b9d195960821b6044820152606490fd5b3461023157602061029a61204561203d36612518565b929091613168565b61313a565b34610231576040366003190112610231576024356001600160401b038111610231576114a96103256020806120866103399536906004016124cd565b6004355f525f825260405f20604051938285935191829101845e82019081520301902060405192838092612716565b34610231576040366003190112610231576120ce612414565b6024356120da81613187565b3315158061218e575b8061216b575b6121585781906001600160a01b0384811691167f8c5be1e5ebec7d5bd14f71427d1e84f3dd0314c0f7b2291e5b200ac8c7c3b9255f80a45f9081525f516020613c655f395f51905f526020526040902080546001600160a01b0319166001600160a01b03909216919091179055005b63a9fbf51f60e01b5f523360045260245ffd5b5061217581612e0e565b335f908152602091909152604090205460ff16156120e9565b506001600160a01b0381163314156120e3565b346102315760203660031901126102315760206116646004356121c381613187565b505f9081525f516020613c655f395f51905f5260205260409020546001600160a01b031690565b34610231575f366003190112610231576040515f7f80bb2b638cc20bc4d0a60d66940f3ab4a00c1d7b313497ca82fb0b4ab007930054612229816126de565b80845290600181169081156110e4575060011461225057610339836103258185038261245b565b7f80bb2b638cc20bc4d0a60d66940f3ab4a00c1d7b313497ca82fb0b4ab00793005f9081527f37c58c799b6609234b945e882912ee9ad34948a1dfaa20a97485e1a7752bbf81939250905b8082106122b357509091508101602001610325611057565b91926001816020925483858801015201910190929161229b565b34610231576020366003190112610231576103396111b66004356127ab565b34610231576020366003190112610231576004359063ffffffff60e01b8216809203610231576020916380ac58cd60e01b8114908115612360575b8115612335575b5015158152f35b637965db0b60e01b81149150811561234f575b508361232e565b6301ffc9a760e01b14905083612348565b635b5e139f60e01b81149150612327565b805180835260209291819084018484015e5f828201840152601f01601f1916010190565b602081016020825282518091526040820191602060408360051b8301019401925f915b8383106123c757505050505090565b9091929394602080612405600193603f19868203018752895190836123f58351604084526040840190612371565b9201519084818403910152612371565b970193019301919392906123b8565b600435906001600160a01b038216820361023157565b602435906001600160a01b038216820361023157565b604081019081106001600160401b03821117610a7657604052565b90601f801991011681019081106001600160401b03821117610a7657604052565b6001600160401b038111610a7657601f01601f191660200190565b9291926124a38261247c565b916124b1604051938461245b565b829481845281830111610231578281602093845f960137010152565b9080601f83011215610231578160206124e893359101612497565b90565b9181601f84011215610231578235916001600160401b038311610231576020838186019501011161023157565b9060406003198301126102315760043591602435906001600160401b03821161023157612547916004016124eb565b9091565b6060906003190112610231576004356001600160a01b038116810361023157906024356001600160a01b0381168103610231579060443590565b602081016020825282518091526040820191602060408360051b8301019401925f915b8383106125b757505050505090565b90919293946020806125d5600193603f198682030187528951612371565b970193019301919392906125a8565b6001600160401b038111610a765760051b60200190565b92919092612608846125e4565b93612616604051958661245b565b602085828152019060051b8201918383116102315780915b83831061263c575050505050565b82356001600160401b038111610231578201604081870312610231576040519161266583612440565b81356001600160401b03811161023157876126819184016124cd565b83526020820135926001600160401b038411610231576126a6886020958695016124cd565b8382015281520192019161262e565b80548210156126ca575f5260205f2001905f90565b634e487b7160e01b5f52603260045260245ffd5b90600182811c9216801561270c575b60208310146126f857565b634e487b7160e01b5f52602260045260245ffd5b91607f16916126ed565b5f9291815491612725836126de565b808352926001811690811561277a575060011461274157505050565b5f9081526020812093945091925b838310612760575060209250010190565b60018160209294939454838587010152019101919061274f565b915050602093945060ff929192191683830152151560051b010190565b80518210156126ca5760209160051b010190565b90815f52600160205260405f2080546127c3816125e4565b6127d0604051918261245b565b818152601f196127df836125e4565b015f5b8181106128f857505080945f5b8381106127fd575050505050565b61280781866126b5565b50825f525f60205260405f2061281d83886126b5565b50604051915f91805490612830826126de565b91600181169081156128e057506001146128ab575b505082602060019695948461288a946114a99652030190206114a961287c6040519561287087612440565b60405192838092612716565b845260405192838092612716565b60208201526128998286612797565b526128a48185612797565b50016127ef565b909192505f5260205f205f905b8282106128cc575050820190826020612845565b6001816020925484880152019101906128b8565b60ff1916865250508015150283019150826020612845565b60209060405161290781612440565b60608152606083820152828286010152016127e2565b6020806114a9936124e8935f525f825260405f20604051938285935191829101845e82019081520301902060405192838092612716565b9091906001600160a01b0383168015610e9e57826129718161324b565b9133151580612a6d575b506001600160a01b038316956129959087612a3157612dd6565b60018154019055815f527f80bb2b638cc20bc4d0a60d66940f3ab4a00c1d7b313497ca82fb0b4ab007930260205260405f20816bffffffffffffffffffffffff60a01b825416179055857fddf252ad1be2c89b69c2b068fc378daa952ba7f163c4a11628f55a4df523b3ef5f80a4506001600160a01b0316808303612a1957505050565b6364283d7b60e01b5f5260045260245260445260645ffd5b5f8481525f516020613c655f395f51905f526020526040902080546001600160a01b0319169055612a6185612dd6565b80545f19019055612dd6565b90915080612aba575b15612a835783905f61297b565b836001600160a01b038316612aa457637e27328960e01b5f5260045260245ffd5b63177e802f60e01b5f523360045260245260445ffd5b506001600160a01b03821633148015612afe575b80612a7657505f8481525f516020613c655f395f51905f5260205260409020546001600160a01b03163314612a76565b50612b0882612e0e565b335f908152602091909152604090205460ff16612ace565b818110612b2b575050565b5f8155600101612b20565b612b4081546126de565b9081612b4a575050565b81601f5f9311600114612b5c5750555b565b81835260208320612b7891601f0160051c810190600101612b20565b8082528160208120915555565b90610a6357612b4081546126de565b9190601f8111612ba357505050565b612b5a925f5260205f20906020601f840160051c83019310612bcd575b601f0160051c0190612b20565b9091508190612bc0565b919091828114612cb157612beb83546126de565b6001600160401b038111610a7657612c0d81612c0784546126de565b84612b94565b5f93601f8211600114612c4b57612c3c92939482915f92612c405750508160011b915f199060031b1c19161790565b9055565b015490505f80610b4a565b601f198216905f5260205f2094835f5260205f20915f5b818110612c9957509583600195969710612c81575b505050811b019055565b01545f1960f88460031b161c191690555f8080612c77565b9192600180602092868b015481550194019201612c62565b509050565b91909182516001600160401b038111610a7657612cd781612c0784546126de565b6020601f8211600114612d11578190612c3c9394955f92612d065750508160011b915f199060031b1c19161790565b015190505f80610b4a565b601f19821690835f52805f20915f5b818110612d5657509583600195969710612d3e57505050811b019055565b01515f1960f88460031b161c191690555f8080612c77565b9192602060018192868b015181550194019201612d20565b5f52600160205260405f208054612d84816125e4565b91612d92604051938461245b565b81835260208301905f5260205f205f915b838310612db1575050505090565b600160208192604051612dc8816114a98189612716565b815201920192019190612da3565b6001600160a01b03165f9081527f80bb2b638cc20bc4d0a60d66940f3ab4a00c1d7b313497ca82fb0b4ab00793036020526040902090565b6001600160a01b03165f9081527f80bb2b638cc20bc4d0a60d66940f3ab4a00c1d7b313497ca82fb0b4ab00793056020526040902090565b356001600160401b03811681036102315790565b90359061017e1981360301821215610231570190565b356001600160a01b03811681036102315790565b3561ffff811681036102315790565b903590601e198136030182121561023157018035906001600160401b03821161023157602001918160051b3603831361023157565b903590601e198136030182121561023157018035906001600160401b0382116102315760200191813603831361023157565b6001600160a01b03612f0b8261324b565b161561310857612f1a81613168565b612f42604091825190612f2d848361245b565b600382526275726960e81b602083015261291d565b8051156130f3578291835f9472184f03e93ff9f4daa797ed6e38ed64bf6a1f0160401b8110156130cc575b50806d04ee2d6d415b85acef8100000000600a9210156130b1575b662386f26fc1000081101561309d575b6305f5e10081101561308c575b61271081101561307d575b606481101561306f575b1015613065575b6001840192600a6021612feb612fd68761247c565b96612fe38651988961245b565b80885261247c565b602087019790601f19013689378601015b5f1901916f181899199a1a9b1b9c1cb0b131b232b360811b8282061a83530490811561302a57600a90612ffc565b50506020936124e8938592519584879551918291018587015e840190838201905f8252519283915e01015f815203601f19810183528261245b565b9260010192612fc1565b606460029104950194612fba565b61271060049104950194612fb0565b6305f5e10060089104950194612fa5565b662386f26fc1000060109104950194612f98565b6d04ee2d6d415b85acef810000000060209104950194612f88565b919450849172184f03e93ff9f4daa797ed6e38ed64bf6a1f0160401b90049050600a612f6d565b5090505161310260208261245b565b5f815290565b60405162461bcd60e51b815260206004820152600a6024820152691b9bdd081b5a5b9d195960b21b6044820152606490fd5b61316392916020915f525f825260405f20836040519485938437820190815203019020546126de565b151590565b604051602081019182526020815261318160408261245b565b51902090565b6131908161324b565b906001600160a01b038216156131a4575090565b637e27328960e01b5f5260045260245ffd5b335f9081527fb7db2dd08fcb62d0c9e08c51941cae53c267786a0b75803fb7960902fc8ef97d602052604090205460ff16156131ee57565b63e2517d3f60e01b5f52336004525f60245260445ffd5b5f8181525f516020613c455f395f51905f526020908152604080832033845290915290205460ff16156132355750565b63e2517d3f60e01b5f523360045260245260445ffd5b5f9081527f80bb2b638cc20bc4d0a60d66940f3ab4a00c1d7b313497ca82fb0b4ab007930260205260409020546001600160a01b031690565b6001600160a01b0381165f9081527fb7db2dd08fcb62d0c9e08c51941cae53c267786a0b75803fb7960902fc8ef97d602052604090205460ff1661332e576001600160a01b03165f8181527fb7db2dd08fcb62d0c9e08c51941cae53c267786a0b75803fb7960902fc8ef97d60205260408120805460ff191660011790553391907f2f8788117e7eff1d82e926ec794901d17c78024a50270940304540a733656f0d8180a4600190565b505f90565b5f8181525f516020613c455f395f51905f52602090815260408083206001600160a01b038616845290915290205460ff166133d1575f8181525f516020613c455f395f51905f52602090815260408083206001600160a01b0395909516808452949091528120805460ff19166001179055339291907f2f8788117e7eff1d82e926ec794901d17c78024a50270940304540a733656f0d9080a4600190565b50505f90565b5f8181525f516020613c455f395f51905f52602090815260408083206001600160a01b038616845290915290205460ff16156133d1575f8181525f516020613c455f395f51905f52602090815260408083206001600160a01b0395909516808452949091528120805460ff19169055339291907ff6391f5c32d9c69d2a47ea670b442974b53935d1edc7fd64eb21e047a839171b9080a4600190565b604081016134818183612e5a565b61348a90612e70565b906134958184612e5a565b6020016134a190612e70565b906134ac8185612e5a565b60400135906134bb8186612e5a565b6060016134c790612e70565b6134d18287612e5a565b608001356134df8388612e5a565b60a001356134ed8489612e5a565b60c00135906134fc858a612e5a565b60e00161350890612e46565b92613513868b612e5a565b6101000161352090612e46565b9461352b878c612e5a565b61012001359661353b908c612e5a565b6101400161354890612e84565b604080517fd4537d2cae13e89ffe46b9e65d1fb612145934b158c335a84a819f03205e8673602082019081526001600160a01b039d8e16928201929092529a8c1660608c015260808b0199909952991660a089015260c088015260e08701526101008601526001600160401b039081166101208601521661014084015261016083015261ffff9092166101808083019190915281526135e96101a08261245b565b519020906135f681612e46565b916040519160208301937f036b00e958c97f6140b105fa9161b187af9c6fd71d67bb38a7f6cb65dc053c1d85526001600160401b0316604084015260200135606083015260808201526080815261364e60a08261245b565b519020613659613b75565b613661613bdf565b6040519060208201927f8b73c3c69bb8fe3d512ecc4cf759cc79239f7b179b0ffacaa9a75d522b39400f8452604083015260608201524660808201523060a082015260a081526136b260c08261245b565b519020906040519161190160f01b8352600283015260228201526042902090565b6040517fa16a46d94261c7517cc8ff89f61c0ce93598e3c849801011dee649a6a557d10254815f613703836126de565b80835292600181169081156137a55750600114613727575b6124e89250038261245b565b507fa16a46d94261c7517cc8ff89f61c0ce93598e3c849801011dee649a6a557d1025f90815290917f42ad5d3e1f2e6e70edcf6d991b8a3023d3fca8047a131592f9edb9fd9b89d57d5b8183106137895750509060206124e89282010161371b565b6020919350806001915483858801015201910190918392613771565b602092506124e894915060ff191682840152151560051b82010161371b565b6040517fa16a46d94261c7517cc8ff89f61c0ce93598e3c849801011dee649a6a557d10354815f6137f4836126de565b80835292600181169081156137a55750600114613817576124e89250038261245b565b507fa16a46d94261c7517cc8ff89f61c0ce93598e3c849801011dee649a6a557d1035f90815290917f5f9ce34815f8e11431c7bb75a8e6886a91478f7ffc1dbb0a98dc240fddd76b755b8183106138795750509060206124e89282010161371b565b6020919350806001915483858801015201910190918392613861565b823b6138a3575b5050505050565b604051630a85bd0160e11b81526001600160a01b0391821660048201529181166024830152604482019390935260806064820152911691602090829081906138ef906084830190612371565b03815f865af15f9181613974575b5061395257503d1561394b573d6139138161247c565b90613921604051928361245b565b81523d5f602083013e5b805190816139465782633250574960e11b5f5260045260245ffd5b602001fd5b606061392b565b6001600160e01b03191663757a42ff60e11b01610dfd57505f8080808061389c565b9091506020813d6020116139b1575b816139906020938361245b565b8101031261023157516001600160e01b03198116810361023157905f6138fd565b3d9150613983565b81519190604183036139e9576139e29250602082015190606060408401519301515f1a90613af3565b9192909190565b50505f9160029190565b6004811015613a535780613a05575050565b60018103613a1c5763f645eedf60e01b5f5260045ffd5b60028103613a37575063fce698f760e01b5f5260045260245ffd5b600314613a415750565b6335e2f38360e21b5f5260045260245ffd5b634e487b7160e01b5f52602160045260245ffd5b905f8091602081519101845af48080613ae0575b15613a9b5750506040513d81523d5f602083013e60203d82010160405290565b15613ac057639996b31560e01b5f9081526001600160a01b0391909116600452602490fd5b3d15613ad1576040513d5f823e3d90fd5b63d6bda27560e01b5f5260045ffd5b503d151580613a7b5750813b1515613a7b565b91907f7fffffffffffffffffffffffffffffff5d576e7357a4501ddfe92f46681b20a08411613b6a579160209360809260ff5f9560405194855216868401526040830152606082015282805260015afa15610f95575f516001600160a01b03811615613b6057905f905f90565b505f906001905f90565b5050505f9160039190565b613b7d6136d3565b8051908115613b8d576020012090565b50507fa16a46d94261c7517cc8ff89f61c0ce93598e3c849801011dee649a6a557d100548015613bba5790565b507fc5d2460186f7233c927e7db2dcc703c0e500b653ca82273b7bfad8045d85a47090565b613be76137c4565b8051908115613bf7576020012090565b50507fa16a46d94261c7517cc8ff89f61c0ce93598e3c849801011dee649a6a557d101548015613bba579056fe360894a13ba1a3210667c828492db98dca3e2076cc3735a920a3ca505d382bbc02dd7bc7dec4dceedda775e58dd541e08a116c6c53815c0bd028192f7b62680080bb2b638cc20bc4d0a60d66940f3ab4a00c1d7b313497ca82fb0b4ab0079304f0c57e16840df040f15088dc2f81fe391c3923bec73e23a9662efc9c229c6a00a2646970667358221220efcac3d8ab892ef82e22bef5af6e9f3153e57772cd030480913496c998d3374964736f6c634300081e0033f0c57e16840df040f15088dc2f81fe391c3923bec73e23a9662efc9c229c6a00","linkReferences":{}},"methodIdentifiers":{"DEFAULT_ADMIN_ROLE()":"a217fddf","UPGRADE_INTERFACE_VERSION()":"ad3cb1cc","approve(address,uint256)":"095ea7b3","balanceOf(address)":"70a08231","eip712Domain()":"84b0196e","getAllMetadata(bytes32)":"05daf368","getAllMetadata(uint256)":"8c5acee7","getAllMetadataKeys(bytes32)":"5cb0e05a","getApproved(uint256)":"081812fc","getMetadata(bytes32,string)":"0e1ae91b","getMetadata(uint256,string)":"cb4799f2","getMetadataCount(bytes32)":"5e597156","getMetadataCount(uint256)":"93e3f3b0","getMetadataKeys(uint256)":"2b679e30","getRoleAdmin(bytes32)":"248a9ca3","getTokenIdHash(uint256)":"ff74ef30","getUupsImplementation()":"358410d5","grantRole(bytes32,address)":"2f2ff15d","hasMetadata(bytes32,string)":"e5e0a25d","hasMetadata(uint256,string)":"13d37550","hasRole(bytes32,address)":"91d14854","hashLeaseIntent((uint64,bytes32,(address,address,uint256,address,uint256,uint256,uint256,uint64,uint64,bytes32,uint16,(string,string)[])))":"4547bd64","initialize(address,address)":"485cc955","isApprovedForAll(address,address)":"e985e9c5","leaseId()":"30c79cfe","leases(uint256)":"8927a106","mintLease((uint64,bytes32,(address,address,uint256,address,uint256,uint256,uint256,uint64,uint64,bytes32,uint16,(string,string)[])),bytes,bytes)":"9af66ccd","name()":"06fdde03","ownerOf(uint256)":"6352211e","proxiableUUID()":"52d1902d","registry()":"7b103999","removeMetadata(bytes32,string)":"26f389ba","removeMetadata(uint256,string)":"7577d428","renounceRole(bytes32,address)":"36568abe","revokeRole(bytes32,address)":"d547741f","safeTransferFrom(address,address,uint256)":"42842e0e","safeTransferFrom(address,address,uint256,bytes)":"b88d4fde","setApprovalForAll(address,bool)":"a22cb465","setMetadata(bytes32,(string,string)[])":"3b41f4ea","setMetadata(uint256,(string,string)[])":"236b8eb3","supportsInterface(bytes4)":"01ffc9a7","symbol()":"95d89b41","tokenURI(uint256)":"c87b56dd","transferFrom(address,address,uint256)":"23b872dd","upgradeToAndCall(address,bytes)":"4f1ef286"},"id":49}