{"abi":[{"type":"function","name":"DEFAULT_ADMIN_ROLE","inputs":[],"outputs":[{"name":"","type":"bytes32","internalType":"bytes32"}],"stateMutability":"view"},{"type":"function","name":"UPGRADE_INTERFACE_VERSION","inputs":[],"outputs":[{"name":"","type":"string","internalType":"string"}],"stateMutability":"view"},{"type":"function","name":"approve","inputs":[{"name":"to","type":"address","internalType":"address"},{"name":"tokenId","type":"uint256","internalType":"uint256"}],"outputs":[],"stateMutability":"nonpayable"},{"type":"function","name":"balanceOf","inputs":[{"name":"owner","type":"address","internalType":"address"}],"outputs":[{"name":"","type":"uint256","internalType":"uint256"}],"stateMutability":"view"},{"type":"function","name":"eip712Domain","inputs":[],"outputs":[{"name":"fields","type":"bytes1","internalType":"bytes1"},{"name":"name","type":"string","internalType":"string"},{"name":"version","type":"string","internalType":"string"},{"name":"chainId","type":"uint256","internalType":"uint256"},{"name":"verifyingContract","type":"address","internalType":"address"},{"name":"salt","type":"bytes32","internalType":"bytes32"},{"name":"extensions","type":"uint256[]","internalType":"uint256[]"}],"stateMutability":"view"},{"type":"function","name":"getAllMetadata","inputs":[{"name":"hash","type":"bytes32","internalType":"bytes32"}],"outputs":[{"name":"metadata","type":"tuple[]","internalType":"struct MetadataStorage.Metadata[]","components":[{"name":"key","type":"string","internalType":"string"},{"name":"value","type":"string","internalType":"string"}]}],"stateMutability":"view"},{"type":"function","name":"getAllMetadata","inputs":[{"name":"tokenId","type":"uint256","internalType":"uint256"}],"outputs":[{"name":"metadata","type":"tuple[]","internalType":"struct MetadataStorage.Metadata[]","components":[{"name":"key","type":"string","internalType":"string"},{"name":"value","type":"string","internalType":"string"}]}],"stateMutability":"view"},{"type":"function","name":"getAllMetadataKeys","inputs":[{"name":"hash","type":"bytes32","internalType":"bytes32"}],"outputs":[{"name":"keys","type":"string[]","internalType":"string[]"}],"stateMutability":"view"},{"type":"function","name":"getApproved","inputs":[{"name":"tokenId","type":"uint256","internalType":"uint256"}],"outputs":[{"name":"","type":"address","internalType":"address"}],"stateMutability":"view"},{"type":"function","name":"getMetadata","inputs":[{"name":"hash","type":"bytes32","internalType":"bytes32"},{"name":"key","type":"string","internalType":"string"}],"outputs":[{"name":"value","type":"string","internalType":"string"}],"stateMutability":"view"},{"type":"function","name":"getMetadata","inputs":[{"name":"tokenId","type":"uint256","internalType":"uint256"},{"name":"key","type":"string","internalType":"string"}],"outputs":[{"name":"value","type":"string","internalType":"string"}],"stateMutability":"view"},{"type":"function","name":"getMetadataCount","inputs":[{"name":"hash","type":"bytes32","internalType":"bytes32"}],"outputs":[{"name":"count","type":"uint256","internalType":"uint256"}],"stateMutability":"view"},{"type":"function","name":"getMetadataCount","inputs":[{"name":"tokenId","type":"uint256","internalType":"uint256"}],"outputs":[{"name":"count","type":"uint256","internalType":"uint256"}],"stateMutability":"view"},{"type":"function","name":"getMetadataKeys","inputs":[{"name":"tokenId","type":"uint256","internalType":"uint256"}],"outputs":[{"name":"keys","type":"string[]","internalType":"string[]"}],"stateMutability":"view"},{"type":"function","name":"getRoleAdmin","inputs":[{"name":"role","type":"bytes32","internalType":"bytes32"}],"outputs":[{"name":"","type":"bytes32","internalType":"bytes32"}],"stateMutability":"view"},{"type":"function","name":"getUupsImplementation","inputs":[],"outputs":[{"name":"","type":"address","internalType":"address"}],"stateMutability":"view"},{"type":"function","name":"grantRole","inputs":[{"name":"role","type":"bytes32","internalType":"bytes32"},{"name":"account","type":"address","internalType":"address"}],"outputs":[],"stateMutability":"nonpayable"},{"type":"function","name":"hasMetadata","inputs":[{"name":"tokenId","type":"uint256","internalType":"uint256"},{"name":"key","type":"string","internalType":"string"}],"outputs":[{"name":"exists","type":"bool","internalType":"bool"}],"stateMutability":"view"},{"type":"function","name":"hasMetadata","inputs":[{"name":"hash","type":"bytes32","internalType":"bytes32"},{"name":"key","type":"string","internalType":"string"}],"outputs":[{"name":"exists","type":"bool","internalType":"bool"}],"stateMutability":"view"},{"type":"function","name":"hasRole","inputs":[{"name":"role","type":"bytes32","internalType":"bytes32"},{"name":"account","type":"address","internalType":"address"}],"outputs":[{"name":"","type":"bool","internalType":"bool"}],"stateMutability":"view"},{"type":"function","name":"hashLeaseIntent","inputs":[{"name":"L","type":"tuple","internalType":"struct LeaseFactory.LeaseIntent","components":[{"name":"deadline","type":"uint64","internalType":"uint64"},{"name":"assetType","type":"bytes32","internalType":"bytes32"},{"name":"lease","type":"tuple","internalType":"struct LeaseFactory.Lease","components":[{"name":"lessor","type":"address","internalType":"address"},{"name":"lessee","type":"address","internalType":"address"},{"name":"assetId","type":"uint256","internalType":"uint256"},{"name":"paymentToken","type":"address","internalType":"address"},{"name":"rentAmount","type":"uint256","internalType":"uint256"},{"name":"rentPeriod","type":"uint256","internalType":"uint256"},{"name":"securityDeposit","type":"uint256","internalType":"uint256"},{"name":"startTime","type":"uint64","internalType":"uint64"},{"name":"endTime","type":"uint64","internalType":"uint64"},{"name":"legalDocHash","type":"bytes32","internalType":"bytes32"},{"name":"termsVersion","type":"uint16","internalType":"uint16"},{"name":"metadata","type":"tuple[]","internalType":"struct MetadataStorage.Metadata[]","components":[{"name":"key","type":"string","internalType":"string"},{"name":"value","type":"string","internalType":"string"}]}]}]}],"outputs":[{"name":"","type":"bytes32","internalType":"bytes32"}],"stateMutability":"view"},{"type":"function","name":"initialize","inputs":[{"name":"admin","type":"address","internalType":"address"},{"name":"upgrader","type":"address","internalType":"address"},{"name":"assetRegistry","type":"address","internalType":"address"}],"outputs":[],"stateMutability":"nonpayable"},{"type":"function","name":"isApprovedForAll","inputs":[{"name":"owner","type":"address","internalType":"address"},{"name":"operator","type":"address","internalType":"address"}],"outputs":[{"name":"","type":"bool","internalType":"bool"}],"stateMutability":"view"},{"type":"function","name":"leaseId","inputs":[],"outputs":[{"name":"","type":"uint256","internalType":"uint256"}],"stateMutability":"view"},{"type":"function","name":"leases","inputs":[{"name":"leaseId","type":"uint256","internalType":"uint256"}],"outputs":[{"name":"lessor","type":"address","internalType":"address"},{"name":"lessee","type":"address","internalType":"address"},{"name":"assetId","type":"uint256","internalType":"uint256"},{"name":"paymentToken","type":"address","internalType":"address"},{"name":"rentAmount","type":"uint256","internalType":"uint256"},{"name":"rentPeriod","type":"uint256","internalType":"uint256"},{"name":"securityDeposit","type":"uint256","internalType":"uint256"},{"name":"startTime","type":"uint64","internalType":"uint64"},{"name":"endTime","type":"uint64","internalType":"uint64"},{"name":"legalDocHash","type":"bytes32","internalType":"bytes32"},{"name":"termsVersion","type":"uint16","internalType":"uint16"}],"stateMutability":"view"},{"type":"function","name":"mintLease","inputs":[{"name":"L","type":"tuple","internalType":"struct LeaseFactory.LeaseIntent","components":[{"name":"deadline","type":"uint64","internalType":"uint64"},{"name":"assetType","type":"bytes32","internalType":"bytes32"},{"name":"lease","type":"tuple","internalType":"struct LeaseFactory.Lease","components":[{"name":"lessor","type":"address","internalType":"address"},{"name":"lessee","type":"address","internalType":"address"},{"name":"assetId","type":"uint256","internalType":"uint256"},{"name":"paymentToken","type":"address","internalType":"address"},{"name":"rentAmount","type":"uint256","internalType":"uint256"},{"name":"rentPeriod","type":"uint256","internalType":"uint256"},{"name":"securityDeposit","type":"uint256","internalType":"uint256"},{"name":"startTime","type":"uint64","internalType":"uint64"},{"name":"endTime","type":"uint64","internalType":"uint64"},{"name":"legalDocHash","type":"bytes32","internalType":"bytes32"},{"name":"termsVersion","type":"uint16","internalType":"uint16"},{"name":"metadata","type":"tuple[]","internalType":"struct MetadataStorage.Metadata[]","components":[{"name":"key","type":"string","internalType":"string"},{"name":"value","type":"string","internalType":"string"}]}]}]},{"name":"sigLessor","type":"bytes","internalType":"bytes"},{"name":"sigLessee","type":"bytes","internalType":"bytes"}],"outputs":[{"name":"tokenId","type":"uint256","internalType":"uint256"}],"stateMutability":"nonpayable"},{"type":"function","name":"name","inputs":[],"outputs":[{"name":"","type":"string","internalType":"string"}],"stateMutability":"view"},{"type":"function","name":"ownerOf","inputs":[{"name":"tokenId","type":"uint256","internalType":"uint256"}],"outputs":[{"name":"","type":"address","internalType":"address"}],"stateMutability":"view"},{"type":"function","name":"proxiableUUID","inputs":[],"outputs":[{"name":"","type":"bytes32","internalType":"bytes32"}],"stateMutability":"view"},{"type":"function","name":"registry","inputs":[],"outputs":[{"name":"","type":"address","internalType":"contract AssetRegistry"}],"stateMutability":"view"},{"type":"function","name":"removeMetadata","inputs":[{"name":"tokenId","type":"uint256","internalType":"uint256"},{"name":"key","type":"string","internalType":"string"}],"outputs":[],"stateMutability":"nonpayable"},{"type":"function","name":"renounceRole","inputs":[{"name":"role","type":"bytes32","internalType":"bytes32"},{"name":"callerConfirmation","type":"address","internalType":"address"}],"outputs":[],"stateMutability":"nonpayable"},{"type":"function","name":"revokeRole","inputs":[{"name":"role","type":"bytes32","internalType":"bytes32"},{"name":"account","type":"address","internalType":"address"}],"outputs":[],"stateMutability":"nonpayable"},{"type":"function","name":"safeTransferFrom","inputs":[{"name":"from","type":"address","internalType":"address"},{"name":"to","type":"address","internalType":"address"},{"name":"tokenId","type":"uint256","internalType":"uint256"}],"outputs":[],"stateMutability":"nonpayable"},{"type":"function","name":"safeTransferFrom","inputs":[{"name":"from","type":"address","internalType":"address"},{"name":"to","type":"address","internalType":"address"},{"name":"tokenId","type":"uint256","internalType":"uint256"},{"name":"data","type":"bytes","internalType":"bytes"}],"outputs":[],"stateMutability":"nonpayable"},{"type":"function","name":"setApprovalForAll","inputs":[{"name":"operator","type":"address","internalType":"address"},{"name":"approved","type":"bool","internalType":"bool"}],"outputs":[],"stateMutability":"nonpayable"},{"type":"function","name":"setMetadata","inputs":[{"name":"tokenId","type":"uint256","internalType":"uint256"},{"name":"metadata_","type":"tuple[]","internalType":"struct MetadataStorage.Metadata[]","components":[{"name":"key","type":"string","internalType":"string"},{"name":"value","type":"string","internalType":"string"}]}],"outputs":[],"stateMutability":"nonpayable"},{"type":"function","name":"supportsInterface","inputs":[{"name":"interfaceId","type":"bytes4","internalType":"bytes4"}],"outputs":[{"name":"","type":"bool","internalType":"bool"}],"stateMutability":"view"},{"type":"function","name":"symbol","inputs":[],"outputs":[{"name":"","type":"string","internalType":"string"}],"stateMutability":"view"},{"type":"function","name":"tokenURI","inputs":[{"name":"tokenId","type":"uint256","internalType":"uint256"}],"outputs":[{"name":"","type":"string","internalType":"string"}],"stateMutability":"view"},{"type":"function","name":"transferFrom","inputs":[{"name":"from","type":"address","internalType":"address"},{"name":"to","type":"address","internalType":"address"},{"name":"tokenId","type":"uint256","internalType":"uint256"}],"outputs":[],"stateMutability":"nonpayable"},{"type":"function","name":"upgradeToAndCall","inputs":[{"name":"newImplementation","type":"address","internalType":"address"},{"name":"data","type":"bytes","internalType":"bytes"}],"outputs":[],"stateMutability":"payable"},{"type":"event","name":"Approval","inputs":[{"name":"owner","type":"address","indexed":true,"internalType":"address"},{"name":"approved","type":"address","indexed":true,"internalType":"address"},{"name":"tokenId","type":"uint256","indexed":true,"internalType":"uint256"}],"anonymous":false},{"type":"event","name":"ApprovalForAll","inputs":[{"name":"owner","type":"address","indexed":true,"internalType":"address"},{"name":"operator","type":"address","indexed":true,"internalType":"address"},{"name":"approved","type":"bool","indexed":false,"internalType":"bool"}],"anonymous":false},{"type":"event","name":"EIP712DomainChanged","inputs":[],"anonymous":false},{"type":"event","name":"Initialized","inputs":[{"name":"version","type":"uint64","indexed":false,"internalType":"uint64"}],"anonymous":false},{"type":"event","name":"LeaseMinted","inputs":[{"name":"tokenId","type":"uint256","indexed":true,"internalType":"uint256"},{"name":"lessor","type":"address","indexed":true,"internalType":"address"},{"name":"lessee","type":"address","indexed":true,"internalType":"address"},{"name":"assetId","type":"uint256","indexed":false,"internalType":"uint256"}],"anonymous":false},{"type":"event","name":"MetadataRemoved","inputs":[{"name":"hash","type":"bytes32","indexed":true,"internalType":"bytes32"},{"name":"key","type":"string","indexed":false,"internalType":"string"}],"anonymous":false},{"type":"event","name":"MetadataUpdated","inputs":[{"name":"hash","type":"bytes32","indexed":true,"internalType":"bytes32"},{"name":"key","type":"string","indexed":false,"internalType":"string"},{"name":"value","type":"string","indexed":false,"internalType":"string"}],"anonymous":false},{"type":"event","name":"RoleAdminChanged","inputs":[{"name":"role","type":"bytes32","indexed":true,"internalType":"bytes32"},{"name":"previousAdminRole","type":"bytes32","indexed":true,"internalType":"bytes32"},{"name":"newAdminRole","type":"bytes32","indexed":true,"internalType":"bytes32"}],"anonymous":false},{"type":"event","name":"RoleGranted","inputs":[{"name":"role","type":"bytes32","indexed":true,"internalType":"bytes32"},{"name":"account","type":"address","indexed":true,"internalType":"address"},{"name":"sender","type":"address","indexed":true,"internalType":"address"}],"anonymous":false},{"type":"event","name":"RoleRevoked","inputs":[{"name":"role","type":"bytes32","indexed":true,"internalType":"bytes32"},{"name":"account","type":"address","indexed":true,"internalType":"address"},{"name":"sender","type":"address","indexed":true,"internalType":"address"}],"anonymous":false},{"type":"event","name":"Transfer","inputs":[{"name":"from","type":"address","indexed":true,"internalType":"address"},{"name":"to","type":"address","indexed":true,"internalType":"address"},{"name":"tokenId","type":"uint256","indexed":true,"internalType":"uint256"}],"anonymous":false},{"type":"event","name":"Upgraded","inputs":[{"name":"implementation","type":"address","indexed":true,"internalType":"address"}],"anonymous":false},{"type":"error","name":"AccessControlBadConfirmation","inputs":[]},{"type":"error","name":"AccessControlUnauthorizedAccount","inputs":[{"name":"account","type":"address","internalType":"address"},{"name":"neededRole","type":"bytes32","internalType":"bytes32"}]},{"type":"error","name":"AddressEmptyCode","inputs":[{"name":"target","type":"address","internalType":"address"}]},{"type":"error","name":"ECDSAInvalidSignature","inputs":[]},{"type":"error","name":"ECDSAInvalidSignatureLength","inputs":[{"name":"length","type":"uint256","internalType":"uint256"}]},{"type":"error","name":"ECDSAInvalidSignatureS","inputs":[{"name":"s","type":"bytes32","internalType":"bytes32"}]},{"type":"error","name":"ERC1967InvalidImplementation","inputs":[{"name":"implementation","type":"address","internalType":"address"}]},{"type":"error","name":"ERC1967NonPayable","inputs":[]},{"type":"error","name":"ERC721IncorrectOwner","inputs":[{"name":"sender","type":"address","internalType":"address"},{"name":"tokenId","type":"uint256","internalType":"uint256"},{"name":"owner","type":"address","internalType":"address"}]},{"type":"error","name":"ERC721InsufficientApproval","inputs":[{"name":"operator","type":"address","internalType":"address"},{"name":"tokenId","type":"uint256","internalType":"uint256"}]},{"type":"error","name":"ERC721InvalidApprover","inputs":[{"name":"approver","type":"address","internalType":"address"}]},{"type":"error","name":"ERC721InvalidOperator","inputs":[{"name":"operator","type":"address","internalType":"address"}]},{"type":"error","name":"ERC721InvalidOwner","inputs":[{"name":"owner","type":"address","internalType":"address"}]},{"type":"error","name":"ERC721InvalidReceiver","inputs":[{"name":"receiver","type":"address","internalType":"address"}]},{"type":"error","name":"ERC721InvalidSender","inputs":[{"name":"sender","type":"address","internalType":"address"}]},{"type":"error","name":"ERC721NonexistentToken","inputs":[{"name":"tokenId","type":"uint256","internalType":"uint256"}]},{"type":"error","name":"FailedCall","inputs":[]},{"type":"error","name":"InvalidInitialization","inputs":[]},{"type":"error","name":"NotInitializing","inputs":[]},{"type":"error","name":"UUPSUnauthorizedCallContext","inputs":[]},{"type":"error","name":"UUPSUnsupportedProxiableUUID","inputs":[{"name":"slot","type":"bytes32","internalType":"bytes32"}]}],"bytecode":{"object":"0x60a080604052346100c257306080525f516020615e4b5f395f51905f525460ff8160401c166100b3576002600160401b03196001600160401b03821601610060575b604051615d8490816100c78239608051818181612af90152612bdb0152f35b6001600160401b0319166001600160401b039081175f516020615e4b5f395f51905f525581527fc7f505b2f371ae2175ee4913f4499e1f2633a7b5936321eed1cdaeb6115181d290602090a15f80610041565b63f92ee8a960e01b5f5260045ffd5b5f80fdfe60a0806040526004361015610012575f80fd5b5f3560e01c90816301ffc9a7146137865750806305daf3681461374957806306fdde0314613648578063081812fc146135c3578063095ea7b3146134035780630e1ae91b1461337957806313d3755014613356578063236b8eb3146131ff57806323b872dd146131e8578063248a9ca3146131805780632b679e301461313b5780632f2ff15d146130c057806330c79cfe14613085578063358410d51461301557806336568abe14612f8d57806342842e0e14612f5e5780634547bd6414612edb5780634f1ef28614612b7157806352d1902d14612ab45780635cb0e05a14612a6b5780635e59715614612a235780636352211e146129c957806370a08231146128f85780637577d428146125e45780637b1039991461259357806384b0196e146123ee5780638927a106146122e65780638c5acee71461229557806391d148541461220157806393e3f3b0146121b157806395d89b411461206d5780639af66ccd14611129578063a217fddf146110f1578063a22cb46514610fd3578063ad3cb1cc14610f56578063b88d4fde14610edd578063c0c53b8b14610412578063c87b56dd146103d5578063cb4799f21461038d578063d547741f1461030b578063e5e0a25d146102a45763e985e9c5146101ea575f80fd5b346102a05760407ffffffffffffffffffffffffffffffffffffffffffffffffffffffffffffffffc3601126102a057610221613986565b73ffffffffffffffffffffffffffffffffffffffff6102856102416139a9565b9273ffffffffffffffffffffffffffffffffffffffff165f527f80bb2b638cc20bc4d0a60d66940f3ab4a00c1d7b313497ca82fb0b4ab007930560205260405f2090565b91165f52602052602060ff60405f2054166040519015158152f35b5f80fd5b346102a05760407ffffffffffffffffffffffffffffffffffffffffffffffffffffffffffffffffc3601126102a05760243567ffffffffffffffff81116102a0576103016102f86020923690600401613ab7565b90600435614a20565b6040519015158152f35b346102a05760407ffffffffffffffffffffffffffffffffffffffffffffffffffffffffffffffffc3601126102a05761038b6004356103486139a9565b90610386610381825f527f02dd7bc7dec4dceedda775e58dd541e08a116c6c53815c0bd028192f7b626800602052600160405f20015490565b614b69565b61516d565b005b346102a0576103d16103bd6103af6103b76103a736613ae5565b939091614ae2565b923691613a63565b90613f33565b6040519182916020835260208301906138a6565b0390f35b346102a05760207ffffffffffffffffffffffffffffffffffffffffffffffffffffffffffffffffc3601126102a0576103d16103bd6004356146ba565b346102a05760607ffffffffffffffffffffffffffffffffffffffffffffffffffffffffffffffffc3601126102a057610449613986565b6104516139a9565b906044359173ffffffffffffffffffffffffffffffffffffffff83168093036102a0577ff0c57e16840df040f15088dc2f81fe391c3923bec73e23a9662efc9c229c6a00549167ffffffffffffffff60ff8460401c1615931680159081610ed5575b6001149081610ecb575b159081610ec2575b50610e9a578260017fffffffffffffffffffffffffffffffffffffffffffffffff00000000000000007ff0c57e16840df040f15088dc2f81fe391c3923bec73e23a9662efc9c229c6a005416177ff0c57e16840df040f15088dc2f81fe391c3923bec73e23a9662efc9c229c6a0055610e24575b61054161467f565b9360409485519061055287836139e8565b600582527f4c454153450000000000000000000000000000000000000000000000000000006020830152610584615af2565b61058c615af2565b80519067ffffffffffffffff8211610b41576105f2826105cc7f80bb2b638cc20bc4d0a60d66940f3ab4a00c1d7b313497ca82fb0b4ab007930054613c80565b7f80bb2b638cc20bc4d0a60d66940f3ab4a00c1d7b313497ca82fb0b4ab007930061463c565b602090601f8311600114610d445761063f92915f9183610b6e575b50507fffffffffffffffffffffffffffffffffffffffffffffffffffffffffffffffff8260011b9260031b1c19161790565b7f80bb2b638cc20bc4d0a60d66940f3ab4a00c1d7b313497ca82fb0b4ab0079300555b80519067ffffffffffffffff8211610b41576106c8826106a27f80bb2b638cc20bc4d0a60d66940f3ab4a00c1d7b313497ca82fb0b4ab007930154613c80565b7f80bb2b638cc20bc4d0a60d66940f3ab4a00c1d7b313497ca82fb0b4ab007930161463c565b602090601f8311600114610c645761071492915f9183610c595750507fffffffffffffffffffffffffffffffffffffffffffffffffffffffffffffffff8260011b9260031b1c19161790565b7f80bb2b638cc20bc4d0a60d66940f3ab4a00c1d7b313497ca82fb0b4ab0079301555b61073f61467f565b85519061074c87836139e8565b600182527f3100000000000000000000000000000000000000000000000000000000000000602083015261077e615af2565b610786615af2565b80519067ffffffffffffffff8211610b41576107ec826107c67fa16a46d94261c7517cc8ff89f61c0ce93598e3c849801011dee649a6a557d10254613c80565b7fa16a46d94261c7517cc8ff89f61c0ce93598e3c849801011dee649a6a557d10261463c565b602090601f8311600114610b795761083892915f9183610b6e5750507fffffffffffffffffffffffffffffffffffffffffffffffffffffffffffffffff8260011b9260031b1c19161790565b7fa16a46d94261c7517cc8ff89f61c0ce93598e3c849801011dee649a6a557d102555b80519067ffffffffffffffff8211610b41576108c18261089b7fa16a46d94261c7517cc8ff89f61c0ce93598e3c849801011dee649a6a557d10354613c80565b7fa16a46d94261c7517cc8ff89f61c0ce93598e3c849801011dee649a6a557d10361463c565b602090601f8311600114610a5857826109b49695936109ae9593610917935f92610a4d5750507fffffffffffffffffffffffffffffffffffffffffffffffffffffffffffffffff8260011b9260031b1c19161790565b7fa16a46d94261c7517cc8ff89f61c0ce93598e3c849801011dee649a6a557d103555b5f7fa16a46d94261c7517cc8ff89f61c0ce93598e3c849801011dee649a6a557d100555f7fa16a46d94261c7517cc8ff89f61c0ce93598e3c849801011dee649a6a557d101557fffffffffffffffffffffffff00000000000000000000000000000000000000006003541617600355614e70565b50614f57565b506109bb57005b60207fc7f505b2f371ae2175ee4913f4499e1f2633a7b5936321eed1cdaeb6115181d2917fffffffffffffffffffffffffffffffffffffffffffffff00ffffffffffffffff7ff0c57e16840df040f15088dc2f81fe391c3923bec73e23a9662efc9c229c6a0054167ff0c57e16840df040f15088dc2f81fe391c3923bec73e23a9662efc9c229c6a00555160018152a1005b015190508a8061060d565b907fffffffffffffffffffffffffffffffffffffffffffffffffffffffffffffffe08316917fa16a46d94261c7517cc8ff89f61c0ce93598e3c849801011dee649a6a557d1035f52815f20925f5b818110610b2957509260019285926109b49998966109ae989610610af2575b505050811b017fa16a46d94261c7517cc8ff89f61c0ce93598e3c849801011dee649a6a557d1035561093a565b01517fffffffffffffffffffffffffffffffffffffffffffffffffffffffffffffffff60f88460031b161c19169055898080610ac5565b92936020600181928786015181550195019301610aa6565b7f4e487b71000000000000000000000000000000000000000000000000000000005f52604160045260245ffd5b01519050898061060d565b907fffffffffffffffffffffffffffffffffffffffffffffffffffffffffffffffe08316917fa16a46d94261c7517cc8ff89f61c0ce93598e3c849801011dee649a6a557d1025f52815f20925f5b818110610c415750908460019594939210610c0a575b505050811b017fa16a46d94261c7517cc8ff89f61c0ce93598e3c849801011dee649a6a557d1025561085b565b01517fffffffffffffffffffffffffffffffffffffffffffffffffffffffffffffffff60f88460031b161c19169055888080610bdd565b92936020600181928786015181550195019301610bc7565b01519050888061060d565b907fffffffffffffffffffffffffffffffffffffffffffffffffffffffffffffffe08316917f80bb2b638cc20bc4d0a60d66940f3ab4a00c1d7b313497ca82fb0b4ab00793015f52815f20925f5b818110610d2c5750908460019594939210610cf5575b505050811b017f80bb2b638cc20bc4d0a60d66940f3ab4a00c1d7b313497ca82fb0b4ab007930155610737565b01517fffffffffffffffffffffffffffffffffffffffffffffffffffffffffffffffff60f88460031b161c19169055878080610cc8565b92936020600181928786015181550195019301610cb2565b907fffffffffffffffffffffffffffffffffffffffffffffffffffffffffffffffe08316917f80bb2b638cc20bc4d0a60d66940f3ab4a00c1d7b313497ca82fb0b4ab00793005f52815f20925f5b818110610e0c5750908460019594939210610dd5575b505050811b017f80bb2b638cc20bc4d0a60d66940f3ab4a00c1d7b313497ca82fb0b4ab007930055610662565b01517fffffffffffffffffffffffffffffffffffffffffffffffffffffffffffffffff60f88460031b161c19169055888080610da8565b92936020600181928786015181550195019301610d92565b680100000000000000007fffffffffffffffffffffffffffffffffffffffffffffff00ffffffffffffffff7ff0c57e16840df040f15088dc2f81fe391c3923bec73e23a9662efc9c229c6a005416177ff0c57e16840df040f15088dc2f81fe391c3923bec73e23a9662efc9c229c6a0055610539565b7ff92ee8a9000000000000000000000000000000000000000000000000000000005f5260045ffd5b905015856104c5565b303b1591506104bd565b8491506104b3565b346102a05760807ffffffffffffffffffffffffffffffffffffffffffffffffffffffffffffffffc3601126102a057610f14613986565b610f1c6139a9565b906044356064359267ffffffffffffffff84116102a057610f4461038b943690600401613a99565b92610f50838383614027565b33615834565b346102a0575f7ffffffffffffffffffffffffffffffffffffffffffffffffffffffffffffffffc3601126102a0576103d1604051610f956040826139e8565b600581527f352e302e3000000000000000000000000000000000000000000000000000000060208201526040519182916020835260208301906138a6565b346102a05760407ffffffffffffffffffffffffffffffffffffffffffffffffffffffffffffffffc3601126102a05761100a613986565b602435908115158092036102a05773ffffffffffffffffffffffffffffffffffffffff169081156110c557335f9081527f80bb2b638cc20bc4d0a60d66940f3ab4a00c1d7b313497ca82fb0b4ab007930560205260409020825f5260205260405f207fffffffffffffffffffffffffffffffffffffffffffffffffffffffffffffff0081541660ff83161790556040519081527f17307eab39ab6107e8899845ad3d59bd9653f200f220920489ca2b5937696c3160203392a3005b507f5b08ba18000000000000000000000000000000000000000000000000000000005f5260045260245ffd5b346102a0575f7ffffffffffffffffffffffffffffffffffffffffffffffffffffffffffffffffc3601126102a05760206040515f8152f35b346102a05760607ffffffffffffffffffffffffffffffffffffffffffffffffffffffffffffffffc3601126102a05760043567ffffffffffffffff81116102a057806004019060607ffffffffffffffffffffffffffffffffffffffffffffffffffffffffffffffffc82360301126102a05760243567ffffffffffffffff81116102a0576111bb903690600401613ab7565b909160443567ffffffffffffffff81116102a0576111dd903690600401613ab7565b92909167ffffffffffffffff6111f2876144ba565b16421161200f576044019361121260e061120c87896144cf565b016144ba565b67ffffffffffffffff8061122c61010061120c8a8c6144cf565b1691161015611fb15773ffffffffffffffffffffffffffffffffffffffff600354166020604061125c888a6144cf565b01356024604051809481937f518e2bdd00000000000000000000000000000000000000000000000000000000835260048301525afa908115611fa6575f91611f6b575b5015611f0d576112c66112c06112cf926112b889615275565b943691613a63565b836159e0565b90929192615a1a565b73ffffffffffffffffffffffffffffffffffffffff806112f76112f2888a6144cf565b614502565b16911603611eaf576113116112c692611317943691613a63565b906159e0565b73ffffffffffffffffffffffffffffffffffffffff80611342602061133c86886144cf565b01614502565b16911603611e5157600254907fffffffffffffffffffffffffffffffffffffffffffffffffffffffffffffffff8214611b50576001820160025561138b602061133c83866144cf565b925f60805260206080526040516113a4608051826139e8565b5f815273ffffffffffffffffffffffffffffffffffffffff8516948515611e255761140d855f527f80bb2b638cc20bc4d0a60d66940f3ab4a00c1d7b313497ca82fb0b4ab007930260205273ffffffffffffffffffffffffffffffffffffffff60405f20541690565b73ffffffffffffffffffffffffffffffffffffffff81169086888315159384611d5d575b6114788673ffffffffffffffffffffffffffffffffffffffff165f527f80bb2b638cc20bc4d0a60d66940f3ab4a00c1d7b313497ca82fb0b4ab007930360205260405f2090565b60018154019055825f527f80bb2b638cc20bc4d0a60d66940f3ab4a00c1d7b313497ca82fb0b4ab00793026080515260405f20827fffffffffffffffffffffffff00000000000000000000000000000000000000008254161790557fddf252ad1be2c89b69c2b068fc378daa952ba7f163c4a11628f55a4df523b3ef5f80a450611d31573b611b7d575b509091925061151182826144cf565b835f5260046080515261170e600a60405f2073ffffffffffffffffffffffffffffffffffffffff61154185614502565b167fffffffffffffffffffffffff00000000000000000000000000000000000000008254161781556115766080518501614502565b73ffffffffffffffffffffffffffffffffffffffff6001830191167fffffffffffffffffffffffff0000000000000000000000000000000000000000825416179055604084013560028201556115ce60608501614502565b73ffffffffffffffffffffffffffffffffffffffff6003830191167fffffffffffffffffffffffff00000000000000000000000000000000000000008254161790556080840135600482015560a0840135600582015560c084013560068201556007810167ffffffffffffffff61164760e087016144ba565b167fffffffffffffffffffffffffffffffffffffffffffffffff000000000000000082541617815561167c61010086016144ba565b7fffffffffffffffffffffffffffffffff0000000000000000ffffffffffffffff6fffffffffffffffff000000000000000083549260401b16911617905561012084013560088201556009810161ffff6116d96101408701614523565b167fffffffffffffffffffffffffffffffffffffffffffffffffffffffffffff00008254161790550191610160810190614532565b9091680100000000000000008211610b41578054828255808310611abe575b505f90815260805181209092368190037fffffffffffffffffffffffffffffffffffffffffffffffffffffffffffffffc101815b848610611834578888886117b5604051608051810190858252608051815261178a6040826139e8565b5190206117af6117a861179d86866144cf565b610160810190614532565b3691613f6a565b90614d0e565b827fefe2f746143aa1d2f03b11088ab609d0d5fd98fa818fa1da44c1874718665cf973ffffffffffffffffffffffffffffffffffffffff8060406118166117ff6112f289896144cf565b9761181060805161133c838b6144cf565b976144cf565b0135946040519586521694169260805190a460405190815260805190f35b8035828112156102a05761184a848201806145eb565b9067ffffffffffffffff8211610b415761186e826118688954613c80565b8961463c565b5f90601f8311600114611a175791806118be926118d095945f9261195f5750507fffffffffffffffffffffffffffffffffffffffffffffffffffffffffffffffff8260011b9260031b1c19161790565b86555b608051818601019085016145eb565b9067ffffffffffffffff8211610b41576118fa826118f16001890154613c80565b6001890161463c565b5f90601f831160011461196a57826002936001959361194b935f9261195f5750507fffffffffffffffffffffffffffffffffffffffffffffffffffffffffffffffff8260011b9260031b1c19161790565b838701555b60805101940195019492611761565b013590508e8061060d565b7fffffffffffffffffffffffffffffffffffffffffffffffffffffffffffffffe0831691600188015f526080515f20925f5b8181106119fe575092600195939285926002968895106119c6575b505050811b0183870155611950565b7fffffffffffffffffffffffffffffffffffffffffffffffffffffffffffffffff60f88560031b161c199101351690558d80806119b7565b838301358555608051600190950194928301920161199c565b7fffffffffffffffffffffffffffffffffffffffffffffffffffffffffffffffe0831691885f526080515f20925f5b818110611aa557509160019391856118d097969410611a6d575b505050811b0186556118c1565b7fffffffffffffffffffffffffffffffffffffffffffffffffffffffffffffffff60f88560031b161c199101351690558d8080611a60565b8383013585556080516001909501949283019201611a46565b7f7fffffffffffffffffffffffffffffffffffffffffffffffffffffffffffffff81168103611b50577f7fffffffffffffffffffffffffffffffffffffffffffffffffffffffffffffff83168303611b5057815f526080515f209060011b8101908360011b015b818110611b32575061172d565b80611b3e60029261459c565b611b4a6001820161459c565b01611b25565b7f4e487b71000000000000000000000000000000000000000000000000000000005f52601160045260245ffd5b604051907f150b7a020000000000000000000000000000000000000000000000000000000082523360048301525f6024830152846044830152608060648301528180611bd06080519360848301906138a6565b03815f895af15f9181611cd2575b50611c4f57843d15611c48573d611bf481613a29565b90611c0260405192836139e8565b8152805f3d91608051013e5b80519081611c4257827f64a0ae92000000000000000000000000000000000000000000000000000000005f5260045260245ffd5b60805101fd5b6060611c0e565b7fffffffff000000000000000000000000000000000000000000000000000000007f150b7a02000000000000000000000000000000000000000000000000000000009195929394951603611ca7575090829184611502565b7f64a0ae92000000000000000000000000000000000000000000000000000000005f5260045260245ffd5b9091506080513d60805111611d2a575b611cec81836139e8565b8160805191810103126102a057517fffffffff00000000000000000000000000000000000000000000000000000000811681036102a0579086611bde565b503d611ce2565b7f73c6ac6e000000000000000000000000000000000000000000000000000000005f525f60045260245ffd5b611db3835f527f80bb2b638cc20bc4d0a60d66940f3ab4a00c1d7b313497ca82fb0b4ab007930460205260405f207fffffffffffffffffffffffff00000000000000000000000000000000000000008154169055565b611dfa8473ffffffffffffffffffffffffffffffffffffffff165f527f80bb2b638cc20bc4d0a60d66940f3ab4a00c1d7b313497ca82fb0b4ab007930360205260405f2090565b7fffffffffffffffffffffffffffffffffffffffffffffffffffffffffffffffff8154019055611431565b7f64a0ae92000000000000000000000000000000000000000000000000000000005f525f60045260245ffd5b60646040517f08c379a000000000000000000000000000000000000000000000000000000000815260206004820152601260248201527f6c65737365652073696720696e76616c696400000000000000000000000000006044820152fd5b60646040517f08c379a000000000000000000000000000000000000000000000000000000000815260206004820152601260248201527f6c6573736f722073696720696e76616c696400000000000000000000000000006044820152fd5b60646040517f08c379a000000000000000000000000000000000000000000000000000000000815260206004820152600d60248201527f61737365742021657869737473000000000000000000000000000000000000006044820152fd5b90506020813d602011611f9e575b81611f86602093836139e8565b810103126102a0575180151581036102a0578761129f565b3d9150611f79565b6040513d5f823e3d90fd5b60646040517f08c379a000000000000000000000000000000000000000000000000000000000815260206004820152600960248201527f6261642074696d657300000000000000000000000000000000000000000000006044820152fd5b60646040517f08c379a000000000000000000000000000000000000000000000000000000000815260206004820152600760248201527f65787069726564000000000000000000000000000000000000000000000000006044820152fd5b346102a0575f7ffffffffffffffffffffffffffffffffffffffffffffffffffffffffffffffffc3601126102a0576040515f7f80bb2b638cc20bc4d0a60d66940f3ab4a00c1d7b313497ca82fb0b4ab0079301546120ca81613c80565b808452906001811690811561216f57506001146120f2575b6103d1836103bd818503826139e8565b7f80bb2b638cc20bc4d0a60d66940f3ab4a00c1d7b313497ca82fb0b4ab00793015f9081527ff4bad0a69248f59680a4f2b3000328cec71a413447c96781cfe5996daa8c456e939250905b808210612155575090915081016020016103bd6120e2565b91926001816020925483858801015201910190929161213d565b7fffffffffffffffffffffffffffffffffffffffffffffffffffffffffffffff001660208086019190915291151560051b840190910191506103bd90506120e2565b346102a05760207ffffffffffffffffffffffffffffffffffffffffffffffffffffffffffffffffc3601126102a0576121eb600435614ae2565b5f526001602052602060405f2054604051908152f35b346102a05760407ffffffffffffffffffffffffffffffffffffffffffffffffffffffffffffffffc3601126102a0576122386139a9565b6004355f527f02dd7bc7dec4dceedda775e58dd541e08a116c6c53815c0bd028192f7b62680060205273ffffffffffffffffffffffffffffffffffffffff60405f2091165f52602052602060ff60405f2054166040519015158152f35b346102a05760207ffffffffffffffffffffffffffffffffffffffffffffffffffffffffffffffffc3601126102a0576103d16122da6122d5600435614ae2565b613d85565b604051918291826138e9565b346102a05760207ffffffffffffffffffffffffffffffffffffffffffffffffffffffffffffffffc3601126102a0576004355f52600460205261016060405f2073ffffffffffffffffffffffffffffffffffffffff8154169073ffffffffffffffffffffffffffffffffffffffff6001820154169067ffffffffffffffff600282015473ffffffffffffffffffffffffffffffffffffffff600384015416600484015460058501549060068601549260078701549461ffff600960088a015499015416986040519a8b5260208b015260408a01526060890152608088015260a087015260c086015281811660e086015260401c16610100840152610120830152610140820152f35b346102a0575f7ffffffffffffffffffffffffffffffffffffffffffffffffffffffffffffffffc3601126102a0577fa16a46d94261c7517cc8ff89f61c0ce93598e3c849801011dee649a6a557d10054158061256a575b1561250c576124b0612455615654565b61245d615763565b60206124be6040519261247083856139e8565b5f84525f3681376040519586957f0f00000000000000000000000000000000000000000000000000000000000000875260e08588015260e08701906138a6565b9085820360408701526138a6565b4660608501523060808501525f60a085015283810360c08501528180845192838152019301915f5b8281106124f557505050500390f35b8351855286955093810193928101926001016124e6565b60646040517f08c379a000000000000000000000000000000000000000000000000000000000815260206004820152601560248201527f4549503731323a20556e696e697469616c697a656400000000000000000000006044820152fd5b507fa16a46d94261c7517cc8ff89f61c0ce93598e3c849801011dee649a6a557d1015415612445565b346102a0575f7ffffffffffffffffffffffffffffffffffffffffffffffffffffffffffffffffc3601126102a057602073ffffffffffffffffffffffffffffffffffffffff60035416604051908152f35b346102a0576126056125f536613ae5565b929091612600614b01565b614ae2565b91825f525f60205261262f60405f2060206040518092858783378582019081520301902054613c80565b1561289a57825f525f60205261265c60405f2060206040518092858783378582019081520301902061459c565b825f52600160205260405f20905f5b82548082101561286d576126926126996126858487613c3e565b5060405192838092613cd1565b03826139e8565b602081519101206126ab368588613a63565b60208151910120146126c0575060010161266b565b7fffffffffffffffffffffffffffffffffffffffffffffffffffffffffffffffff819593949501908111611b50576126fb6127039186613c3e565b509185613c3e565b9190916128145761271391615524565b82548015612840577fffffffffffffffffffffffffffffffffffffffffffffffffffffffffffffffff01906127488285613c3e565b929092612814577fca45c60cf1bbd58b2ac673da0d008eb3606c36e814e8d7fe0df3a3e53ecc59b7948361277e60409554613c80565b90816127d1575b5050555b7fffffffffffffffffffffffffffffffffffffffffffffffffffffffffffffffe0601f84845195869460208652816020870152868601375f85828601015201168101030190a2005b81601f5f93116001146127e85750555b8780612785565b8183526020832061280491601f0160051c810190600101614586565b80825281602081209155556127e1565b7f4e487b71000000000000000000000000000000000000000000000000000000005f525f60045260245ffd5b7f4e487b71000000000000000000000000000000000000000000000000000000005f52603160045260245ffd5b5050905060407fca45c60cf1bbd58b2ac673da0d008eb3606c36e814e8d7fe0df3a3e53ecc59b792612789565b60646040517f08c379a000000000000000000000000000000000000000000000000000000000815260206004820152601260248201527f4b657920646f6573206e6f7420657869737400000000000000000000000000006044820152fd5b346102a05760207ffffffffffffffffffffffffffffffffffffffffffffffffffffffffffffffffc3601126102a05761292f613986565b73ffffffffffffffffffffffffffffffffffffffff81161561299d5761299460209173ffffffffffffffffffffffffffffffffffffffff165f527f80bb2b638cc20bc4d0a60d66940f3ab4a00c1d7b313497ca82fb0b4ab007930360205260405f2090565b54604051908152f35b7f89c62b64000000000000000000000000000000000000000000000000000000005f525f60045260245ffd5b346102a05760207ffffffffffffffffffffffffffffffffffffffffffffffffffffffffffffffffc3601126102a0576020612a05600435614a4e565b73ffffffffffffffffffffffffffffffffffffffff60405191168152f35b346102a05760207ffffffffffffffffffffffffffffffffffffffffffffffffffffffffffffffffc3601126102a0576004355f526001602052602060405f2054604051908152f35b346102a05760207ffffffffffffffffffffffffffffffffffffffffffffffffffffffffffffffffc3601126102a0576103d1612aa8600435614452565b60405191829182613ba9565b346102a0575f7ffffffffffffffffffffffffffffffffffffffffffffffffffffffffffffffffc3601126102a05773ffffffffffffffffffffffffffffffffffffffff7f0000000000000000000000000000000000000000000000000000000000000000163003612b495760206040517f360894a13ba1a3210667c828492db98dca3e2076cc3735a920a3ca505d382bbc8152f35b7fe07c8dba000000000000000000000000000000000000000000000000000000005f5260045ffd5b60407ffffffffffffffffffffffffffffffffffffffffffffffffffffffffffffffffc3601126102a057612ba3613986565b60243567ffffffffffffffff81116102a057612bc3903690600401613a99565b9073ffffffffffffffffffffffffffffffffffffffff7f000000000000000000000000000000000000000000000000000000000000000016803014908115612e99575b50612b4957335f9081527fab71e3f32666744d246edff3f96e4bdafee2e9867098cdd118a979a7464786a8602052604090205460ff1615612e495773ffffffffffffffffffffffffffffffffffffffff8116916040517f52d1902d000000000000000000000000000000000000000000000000000000008152602081600481875afa5f9181612e15575b50612cc157837f4c9c8ce3000000000000000000000000000000000000000000000000000000005f5260045260245ffd5b807f360894a13ba1a3210667c828492db98dca3e2076cc3735a920a3ca505d382bbc859203612dea5750823b15612dbf57807fffffffffffffffffffffffff00000000000000000000000000000000000000007f360894a13ba1a3210667c828492db98dca3e2076cc3735a920a3ca505d382bbc5416177f360894a13ba1a3210667c828492db98dca3e2076cc3735a920a3ca505d382bbc557fbc7cd75a20ee27fd9adebab32041f755214dbc6bffa90cc0225b39da2e5c2d3b5f80a2805115612d8e5761038b91615b49565b505034612d9757005b7fb398979f000000000000000000000000000000000000000000000000000000005f5260045ffd5b7f4c9c8ce3000000000000000000000000000000000000000000000000000000005f5260045260245ffd5b7faa1d49a4000000000000000000000000000000000000000000000000000000005f5260045260245ffd5b9091506020813d602011612e41575b81612e31602093836139e8565b810103126102a057519085612c90565b3d9150612e24565b7fe2517d3f000000000000000000000000000000000000000000000000000000005f52336004527f189ab7a9244df0848122154315af71fe140f3db0fe014031783b0946b8c9d2e360245260445ffd5b905073ffffffffffffffffffffffffffffffffffffffff7f360894a13ba1a3210667c828492db98dca3e2076cc3735a920a3ca505d382bbc5416141583612c06565b346102a05760207ffffffffffffffffffffffffffffffffffffffffffffffffffffffffffffffffc3601126102a05760043567ffffffffffffffff81116102a05760607ffffffffffffffffffffffffffffffffffffffffffffffffffffffffffffffffc82360301126102a057612f56602091600401615275565b604051908152f35b346102a05761038b612f6f36613b37565b9060405192612f7f6020856139e8565b5f8452610f50838383614027565b346102a05760407ffffffffffffffffffffffffffffffffffffffffffffffffffffffffffffffffc3601126102a057612fc46139a9565b3373ffffffffffffffffffffffffffffffffffffffff821603612fed5761038b9060043561516d565b7f6697b232000000000000000000000000000000000000000000000000000000005f5260045ffd5b346102a0575f7ffffffffffffffffffffffffffffffffffffffffffffffffffffffffffffffffc3601126102a057602073ffffffffffffffffffffffffffffffffffffffff7f360894a13ba1a3210667c828492db98dca3e2076cc3735a920a3ca505d382bbc5416604051908152f35b346102a0575f7ffffffffffffffffffffffffffffffffffffffffffffffffffffffffffffffffc3601126102a0576020600254604051908152f35b346102a05760407ffffffffffffffffffffffffffffffffffffffffffffffffffffffffffffffffc3601126102a05761038b6004356130fd6139a9565b90613136610381825f527f02dd7bc7dec4dceedda775e58dd541e08a116c6c53815c0bd028192f7b626800602052600160405f20015490565b61505b565b346102a05760207ffffffffffffffffffffffffffffffffffffffffffffffffffffffffffffffffc3601126102a0576103d1612aa861317b600435614ae2565b614452565b346102a05760207ffffffffffffffffffffffffffffffffffffffffffffffffffffffffffffffffc3601126102a0576020612f566004355f527f02dd7bc7dec4dceedda775e58dd541e08a116c6c53815c0bd028192f7b626800602052600160405f20015490565b346102a05761038b6131f936613b37565b91614027565b346102a05760407ffffffffffffffffffffffffffffffffffffffffffffffffffffffffffffffffc3601126102a05760243560043567ffffffffffffffff82116102a057366023830112156102a05781600401359067ffffffffffffffff82116102a0573660248360051b850101116102a05761327a614b01565b73ffffffffffffffffffffffffffffffffffffffff6132d7825f527f80bb2b638cc20bc4d0a60d66940f3ab4a00c1d7b313497ca82fb0b4ab007930260205273ffffffffffffffffffffffffffffffffffffffff60405f20541690565b16156132f85761038b926132ed6117af92614ae2565b926024369201613f6a565b60646040517f08c379a000000000000000000000000000000000000000000000000000000000815260206004820152601060248201527f746f6b656e206e6f74206d696e746564000000000000000000000000000000006044820152fd5b346102a057602061030161337461336c36613ae5565b929091614ae2565b614a20565b346102a05760407ffffffffffffffffffffffffffffffffffffffffffffffffffffffffffffffffc3601126102a05760243567ffffffffffffffff81116102a0576126926103bd6020806133d46103d1953690600401613a99565b6004355f525f825260405f20604051938285935191829101845e82019081520301902060405192838092613cd1565b346102a05760407ffffffffffffffffffffffffffffffffffffffffffffffffffffffffffffffffc3601126102a05761343a613986565b60243561344681614a4e565b331515806135a3575b80613531575b61350557819073ffffffffffffffffffffffffffffffffffffffff80851691167f8c5be1e5ebec7d5bd14f71427d1e84f3dd0314c0f7b2291e5b200ac8c7c3b9255f80a45f527f80bb2b638cc20bc4d0a60d66940f3ab4a00c1d7b313497ca82fb0b4ab007930460205273ffffffffffffffffffffffffffffffffffffffff60405f2091167fffffffffffffffffffffffff00000000000000000000000000000000000000008254161790555f80f35b7fa9fbf51f000000000000000000000000000000000000000000000000000000005f523360045260245ffd5b506135798173ffffffffffffffffffffffffffffffffffffffff165f527f80bb2b638cc20bc4d0a60d66940f3ab4a00c1d7b313497ca82fb0b4ab007930560205260405f2090565b73ffffffffffffffffffffffffffffffffffffffff33165f5260205260ff60405f20541615613455565b503373ffffffffffffffffffffffffffffffffffffffff8216141561344f565b346102a05760207ffffffffffffffffffffffffffffffffffffffffffffffffffffffffffffffffc3601126102a0576020612a0560043561360381614a4e565b505f527f80bb2b638cc20bc4d0a60d66940f3ab4a00c1d7b313497ca82fb0b4ab007930460205273ffffffffffffffffffffffffffffffffffffffff60405f20541690565b346102a0575f7ffffffffffffffffffffffffffffffffffffffffffffffffffffffffffffffffc3601126102a0576040515f7f80bb2b638cc20bc4d0a60d66940f3ab4a00c1d7b313497ca82fb0b4ab0079300546136a581613c80565b808452906001811690811561216f57506001146136cc576103d1836103bd818503826139e8565b7f80bb2b638cc20bc4d0a60d66940f3ab4a00c1d7b313497ca82fb0b4ab00793005f9081527f37c58c799b6609234b945e882912ee9ad34948a1dfaa20a97485e1a7752bbf81939250905b80821061372f575090915081016020016103bd6120e2565b919260018160209254838588010152019101909291613717565b346102a05760207ffffffffffffffffffffffffffffffffffffffffffffffffffffffffffffffffc3601126102a0576103d16122da600435613d85565b346102a05760207ffffffffffffffffffffffffffffffffffffffffffffffffffffffffffffffffc3601126102a057600435907fffffffff0000000000000000000000000000000000000000000000000000000082168092036102a057817f80ac58cd000000000000000000000000000000000000000000000000000000006020931490811561387c575b811561381f575b5015158152f35b7f7965db0b00000000000000000000000000000000000000000000000000000000811491508115613852575b5083613818565b7f01ffc9a7000000000000000000000000000000000000000000000000000000009150148361384b565b7f5b5e139f0000000000000000000000000000000000000000000000000000000081149150613811565b907fffffffffffffffffffffffffffffffffffffffffffffffffffffffffffffffe0601f602080948051918291828752018686015e5f8582860101520116010190565b602081016020825282518091526040820191602060408360051b8301019401925f915b83831061391b57505050505090565b9091929394602080613977837fffffffffffffffffffffffffffffffffffffffffffffffffffffffffffffffc086600196030187528951908361396783516040845260408401906138a6565b92015190848184039101526138a6565b9701930193019193929061390c565b6004359073ffffffffffffffffffffffffffffffffffffffff821682036102a057565b6024359073ffffffffffffffffffffffffffffffffffffffff821682036102a057565b6040810190811067ffffffffffffffff821117610b4157604052565b90601f7fffffffffffffffffffffffffffffffffffffffffffffffffffffffffffffffe0910116810190811067ffffffffffffffff821117610b4157604052565b67ffffffffffffffff8111610b4157601f017fffffffffffffffffffffffffffffffffffffffffffffffffffffffffffffffe01660200190565b929192613a6f82613a29565b91613a7d60405193846139e8565b8294818452818301116102a0578281602093845f960137010152565b9080601f830112156102a057816020613ab493359101613a63565b90565b9181601f840112156102a05782359167ffffffffffffffff83116102a057602083818601950101116102a057565b9060407ffffffffffffffffffffffffffffffffffffffffffffffffffffffffffffffffc8301126102a057600435916024359067ffffffffffffffff82116102a057613b3391600401613ab7565b9091565b7ffffffffffffffffffffffffffffffffffffffffffffffffffffffffffffffffc60609101126102a05760043573ffffffffffffffffffffffffffffffffffffffff811681036102a0579060243573ffffffffffffffffffffffffffffffffffffffff811681036102a0579060443590565b602081016020825282518091526040820191602060408360051b8301019401925f915b838310613bdb57505050505090565b9091929394602080613c17837fffffffffffffffffffffffffffffffffffffffffffffffffffffffffffffffc0866001960301875289516138a6565b97019301930191939290613bcc565b67ffffffffffffffff8111610b415760051b60200190565b8054821015613c53575f5260205f2001905f90565b7f4e487b71000000000000000000000000000000000000000000000000000000005f52603260045260245ffd5b90600182811c92168015613cc7575b6020831014613c9a57565b7f4e487b71000000000000000000000000000000000000000000000000000000005f52602260045260245ffd5b91607f1691613c8f565b5f9291815491613ce083613c80565b8083529260018116908115613d355750600114613cfc57505050565b5f9081526020812093945091925b838310613d1b575060209250010190565b600181602092949394548385870101520191019190613d0a565b905060209495507fffffffffffffffffffffffffffffffffffffffffffffffffffffffffffffff0091509291921683830152151560051b010190565b8051821015613c535760209160051b010190565b90815f52600160205260405f208054613d9d81613c26565b613daa60405191826139e8565b8181527fffffffffffffffffffffffffffffffffffffffffffffffffffffffffffffffe0613dd783613c26565b015f5b818110613f0e57505080945f5b838110613df5575050505050565b613dff8186613c3e565b50825f525f60205260405f20613e158388613c3e565b50604051915f91805490613e2882613c80565b9160018116908115613ed85750600114613ea3575b5050826020600196959484613e8294612692965203019020612692613e7460405195613e68876139cc565b60405192838092613cd1565b845260405192838092613cd1565b6020820152613e918286613d71565b52613e9c8185613d71565b5001613de7565b909192505f5260205f205f905b828210613ec4575050820190826020613e3d565b600181602092548488015201910190613eb0565b7fffffffffffffffffffffffffffffffffffffffffffffffffffffffffffffff0016865250508015150283019150826020613e3d565b602090604051613f1d816139cc565b6060815260608382015282828601015201613dda565b60208061269293613ab4935f525f825260405f20604051938285935191829101845e82019081520301902060405192838092613cd1565b92919092613f7784613c26565b93613f8560405195866139e8565b602085828152019060051b8201918383116102a05780915b838310613fab575050505050565b823567ffffffffffffffff81116102a05782016040818703126102a05760405191613fd5836139cc565b813567ffffffffffffffff81116102a05787613ff2918401613a99565b835260208201359267ffffffffffffffff84116102a05761401888602095869501613a99565b83820152815201920191613f9d565b91909173ffffffffffffffffffffffffffffffffffffffff8316908115611e2557614090835f527f80bb2b638cc20bc4d0a60d66940f3ab4a00c1d7b313497ca82fb0b4ab007930260205273ffffffffffffffffffffffffffffffffffffffff60405f20541690565b8333151593846142c5575b73ffffffffffffffffffffffffffffffffffffffff945061410185841697886141bf5773ffffffffffffffffffffffffffffffffffffffff165f527f80bb2b638cc20bc4d0a60d66940f3ab4a00c1d7b313497ca82fb0b4ab007930360205260405f2090565b60018154019055815f527f80bb2b638cc20bc4d0a60d66940f3ab4a00c1d7b313497ca82fb0b4ab007930260205260405f20817fffffffffffffffffffffffff0000000000000000000000000000000000000000825416179055867fddf252ad1be2c89b69c2b068fc378daa952ba7f163c4a11628f55a4df523b3ef5f80a4501680830361418e57505050565b7f64283d7b000000000000000000000000000000000000000000000000000000005f5260045260245260445260645ffd5b614215845f527f80bb2b638cc20bc4d0a60d66940f3ab4a00c1d7b313497ca82fb0b4ab007930460205260405f207fffffffffffffffffffffffff00000000000000000000000000000000000000008154169055565b61425c8573ffffffffffffffffffffffffffffffffffffffff165f527f80bb2b638cc20bc4d0a60d66940f3ab4a00c1d7b313497ca82fb0b4ab007930360205260405f2090565b7fffffffffffffffffffffffffffffffffffffffffffffffffffffffffffffffff815401905573ffffffffffffffffffffffffffffffffffffffff165f527f80bb2b638cc20bc4d0a60d66940f3ab4a00c1d7b313497ca82fb0b4ab007930360205260405f2090565b91929380915090614355575b156142df579083839261409b565b8373ffffffffffffffffffffffffffffffffffffffff8316614326577f7e273289000000000000000000000000000000000000000000000000000000005f5260045260245ffd5b7f177e802f000000000000000000000000000000000000000000000000000000005f523360045260245260445ffd5b503373ffffffffffffffffffffffffffffffffffffffff83161480156143e1575b806142d157503373ffffffffffffffffffffffffffffffffffffffff6143da865f527f80bb2b638cc20bc4d0a60d66940f3ab4a00c1d7b313497ca82fb0b4ab007930460205273ffffffffffffffffffffffffffffffffffffffff60405f20541690565b16146142d1565b506144298273ffffffffffffffffffffffffffffffffffffffff165f527f80bb2b638cc20bc4d0a60d66940f3ab4a00c1d7b313497ca82fb0b4ab007930560205260405f2090565b73ffffffffffffffffffffffffffffffffffffffff33165f5260205260ff60405f205416614376565b5f52600160205260405f20805461446881613c26565b9161447660405193846139e8565b81835260208301905f5260205f205f915b838310614495575050505090565b6001602081926040516144ac816126928189613cd1565b815201920192019190614487565b3567ffffffffffffffff811681036102a05790565b9035907ffffffffffffffffffffffffffffffffffffffffffffffffffffffffffffffe81813603018212156102a0570190565b3573ffffffffffffffffffffffffffffffffffffffff811681036102a05790565b3561ffff811681036102a05790565b9035907fffffffffffffffffffffffffffffffffffffffffffffffffffffffffffffffe1813603018212156102a0570180359067ffffffffffffffff82116102a057602001918160051b360383136102a057565b818110614591575050565b5f8155600101614586565b6145a68154613c80565b90816145b0575050565b81601f5f93116001146145c25750555b565b818352602083206145de91601f0160051c810190600101614586565b8082528160208120915555565b9035907fffffffffffffffffffffffffffffffffffffffffffffffffffffffffffffffe1813603018212156102a0570180359067ffffffffffffffff82116102a0576020019181360383136102a057565b9190601f811161464b57505050565b6145c0925f5260205f20906020601f840160051c83019310614675575b601f0160051c0190614586565b9091508190614668565b6040519061468e6040836139e8565b600582527f4c656173650000000000000000000000000000000000000000000000000000006020830152565b73ffffffffffffffffffffffffffffffffffffffff614717825f527f80bb2b638cc20bc4d0a60d66940f3ab4a00c1d7b313497ca82fb0b4ab007930260205273ffffffffffffffffffffffffffffffffffffffff60405f20541690565b16156149c25761472681614ae2565b61476860409182519061473984836139e8565b600382527f75726900000000000000000000000000000000000000000000000000000000006020830152613f33565b8051156149ad578291835f947a184f03e93ff9f4daa797ed6e38ed64bf6a1f010000000000000000811015614981575b50806d04ee2d6d415b85acef8100000000600a921015614966575b662386f26fc10000811015614952575b6305f5e100811015614941575b612710811015614932575b6064811015614924575b101561491a575b6001840192600a7fffffffffffffffffffffffffffffffffffffffffffffffffffffffffffffffff602161483761482288613a29565b9761482f8751998a6139e8565b808952613a29565b977fffffffffffffffffffffffffffffffffffffffffffffffffffffffffffffffe0602089019901368a378701015b01917f30313233343536373839616263646566000000000000000000000000000000008282061a8353049081156148c157600a907fffffffffffffffffffffffffffffffffffffffffffffffffffffffffffffffff90614866565b5050602093613ab4938592519584879551918291018587015e840190838201905f8252519283915e01015f8152037fffffffffffffffffffffffffffffffffffffffffffffffffffffffffffffffe081018352826139e8565b92600101926147ec565b6064600291049501946147e5565b612710600491049501946147db565b6305f5e100600891049501946147d0565b662386f26fc10000601091049501946147c3565b6d04ee2d6d415b85acef8100000000602091049501946147b3565b91945084917a184f03e93ff9f4daa797ed6e38ed64bf6a1f01000000000000000090049050600a614798565b509050516149bc6020826139e8565b5f815290565b60646040517f08c379a000000000000000000000000000000000000000000000000000000000815260206004820152600a60248201527f6e6f74206d696e746564000000000000000000000000000000000000000000006044820152fd5b614a4992916020915f525f825260405f2083604051948593843782019081520301902054613c80565b151590565b614a96815f527f80bb2b638cc20bc4d0a60d66940f3ab4a00c1d7b313497ca82fb0b4ab007930260205273ffffffffffffffffffffffffffffffffffffffff60405f20541690565b9073ffffffffffffffffffffffffffffffffffffffff821615614ab7575090565b7f7e273289000000000000000000000000000000000000000000000000000000005f5260045260245ffd5b6040516020810191825260208152614afb6040826139e8565b51902090565b335f9081527fb7db2dd08fcb62d0c9e08c51941cae53c267786a0b75803fb7960902fc8ef97d602052604090205460ff1615614b3957565b7fe2517d3f000000000000000000000000000000000000000000000000000000005f52336004525f60245260445ffd5b805f527f02dd7bc7dec4dceedda775e58dd541e08a116c6c53815c0bd028192f7b62680060205260405f2073ffffffffffffffffffffffffffffffffffffffff33165f5260205260ff60405f20541615614bc05750565b7fe2517d3f000000000000000000000000000000000000000000000000000000005f523360045260245260445ffd5b919091825167ffffffffffffffff8111610b4157614c1781614c118454613c80565b8461463c565b6020601f8211600114614c73578190614c649394955f92614c685750507fffffffffffffffffffffffffffffffffffffffffffffffffffffffffffffffff8260011b9260031b1c19161790565b9055565b015190505f8061060d565b7fffffffffffffffffffffffffffffffffffffffffffffffffffffffffffffffe0821690835f52805f20915f5b818110614cf657509583600195969710614cbf575b505050811b019055565b01517fffffffffffffffffffffffffffffffffffffffffffffffffffffffffffffffff60f88460031b161c191690555f8080614cb5565b9192602060018192868b015181550194019201614ca0565b9190915f5b8351811015614e6a57815f525f602052614d5760208060405f20614d378589613d71565b515190604051938285935191829101845e82019081520301902054613c80565b15614da16020614d678488613d71565b510151845f525f60205260208060405f20614d82878b613d71565b515190604051938285935191829101845e820190815203019020614bef565b614e17575b80827fc42c4edbc41dce02b01dd098a1f7a4c685c638d7a2fdfbe449b32e1f89fbfae1614e00614dd860019589613d71565b5151614e0e6020614de9878c613d71565b5101516040519384936040855260408501906138a6565b9083820360208501526138a6565b0390a201614d13565b815f52600160205260405f2090614e2e8186613d71565b515191805468010000000000000000811015610b4157614e5391600182018155613c3e565b61281457600192614e6391614bef565b9050614da6565b50509050565b73ffffffffffffffffffffffffffffffffffffffff81165f9081527fb7db2dd08fcb62d0c9e08c51941cae53c267786a0b75803fb7960902fc8ef97d602052604090205460ff16614f525773ffffffffffffffffffffffffffffffffffffffff165f8181527fb7db2dd08fcb62d0c9e08c51941cae53c267786a0b75803fb7960902fc8ef97d6020526040812080547fffffffffffffffffffffffffffffffffffffffffffffffffffffffffffffff001660011790553391907f2f8788117e7eff1d82e926ec794901d17c78024a50270940304540a733656f0d8180a4600190565b505f90565b73ffffffffffffffffffffffffffffffffffffffff81165f9081527fab71e3f32666744d246edff3f96e4bdafee2e9867098cdd118a979a7464786a8602052604090205460ff16614f525773ffffffffffffffffffffffffffffffffffffffff165f8181527fab71e3f32666744d246edff3f96e4bdafee2e9867098cdd118a979a7464786a86020526040812080547fffffffffffffffffffffffffffffffffffffffffffffffffffffffffffffff001660011790553391907f189ab7a9244df0848122154315af71fe140f3db0fe014031783b0946b8c9d2e3907f2f8788117e7eff1d82e926ec794901d17c78024a50270940304540a733656f0d9080a4600190565b805f527f02dd7bc7dec4dceedda775e58dd541e08a116c6c53815c0bd028192f7b62680060205260405f2073ffffffffffffffffffffffffffffffffffffffff83165f5260205260ff60405f205416155f1461516757805f527f02dd7bc7dec4dceedda775e58dd541e08a116c6c53815c0bd028192f7b62680060205260405f2073ffffffffffffffffffffffffffffffffffffffff83165f5260205260405f2060017fffffffffffffffffffffffffffffffffffffffffffffffffffffffffffffff0082541617905573ffffffffffffffffffffffffffffffffffffffff339216907f2f8788117e7eff1d82e926ec794901d17c78024a50270940304540a733656f0d5f80a4600190565b50505f90565b805f527f02dd7bc7dec4dceedda775e58dd541e08a116c6c53815c0bd028192f7b62680060205260405f2073ffffffffffffffffffffffffffffffffffffffff83165f5260205260ff60405f2054165f1461516757805f527f02dd7bc7dec4dceedda775e58dd541e08a116c6c53815c0bd028192f7b62680060205260405f2073ffffffffffffffffffffffffffffffffffffffff83165f5260205260405f207fffffffffffffffffffffffffffffffffffffffffffffffffffffffffffffff00815416905573ffffffffffffffffffffffffffffffffffffffff339216907ff6391f5c32d9c69d2a47ea670b442974b53935d1edc7fd64eb21e047a839171b5f80a4600190565b6040810161528381836144cf565b61528c90614502565b9061529781846144cf565b6020016152a390614502565b906152ae81856144cf565b60400135906152bd81866144cf565b6060016152c990614502565b6152d382876144cf565b608001356152e183886144cf565b60a001356152ef84896144cf565b60c00135906152fe858a6144cf565b60e00161530a906144ba565b92615315868b6144cf565b61010001615322906144ba565b9461532d878c6144cf565b61012001359661533d908c6144cf565b6101400161534a90614523565b976040519960208b019b7f1f0dd347b9acc3b4cb2a224c074e7fc86f8714c2899179a4c2777cc00ed613aa8d5273ffffffffffffffffffffffffffffffffffffffff1660408c015273ffffffffffffffffffffffffffffffffffffffff1660608b015260808a015273ffffffffffffffffffffffffffffffffffffffff1660a089015260c088015260e087015261010086015267ffffffffffffffff1661012085015267ffffffffffffffff1661014084015261016083015261ffff16610180820152610180815261541e6101a0826139e8565b5190209061542b816144ba565b916040519160208301937f036b00e958c97f6140b105fa9161b187af9c6fd71d67bb38a7f6cb65dc053c1d855267ffffffffffffffff16604084015260200135606083015260808201526080815261548460a0826139e8565b51902061548f615c9f565b615497615d09565b6040519060208201927f8b73c3c69bb8fe3d512ecc4cf759cc79239f7b179b0ffacaa9a75d522b39400f8452604083015260608201524660808201523060a082015260a081526154e860c0826139e8565b51902090604051917f19010000000000000000000000000000000000000000000000000000000000008352600283015260228201526042902090565b91909182811461564f576155388354613c80565b67ffffffffffffffff8111610b415761555581614c118454613c80565b5f93601f82116001146155ad57614c6492939482915f926155a25750507fffffffffffffffffffffffffffffffffffffffffffffffffffffffffffffffff8260011b9260031b1c19161790565b015490505f8061060d565b7fffffffffffffffffffffffffffffffffffffffffffffffffffffffffffffffe08216905f5260205f2094835f5260205f20915f5b8181106156375750958360019596971061560057505050811b019055565b01547fffffffffffffffffffffffffffffffffffffffffffffffffffffffffffffffff60f88460031b161c191690555f8080614cb5565b9192600180602092868b0154815501940192016155e2565b509050565b6040517fa16a46d94261c7517cc8ff89f61c0ce93598e3c849801011dee649a6a557d10254815f61568483613c80565b808352926001811690811561572657506001146156a8575b613ab4925003826139e8565b507fa16a46d94261c7517cc8ff89f61c0ce93598e3c849801011dee649a6a557d1025f90815290917f42ad5d3e1f2e6e70edcf6d991b8a3023d3fca8047a131592f9edb9fd9b89d57d5b81831061570a575050906020613ab49282010161569c565b60209193508060019154838588010152019101909183926156f2565b60209250613ab49491507fffffffffffffffffffffffffffffffffffffffffffffffffffffffffffffff001682840152151560051b82010161569c565b6040517fa16a46d94261c7517cc8ff89f61c0ce93598e3c849801011dee649a6a557d10354815f61579383613c80565b808352926001811690811561572657506001146157b657613ab4925003826139e8565b507fa16a46d94261c7517cc8ff89f61c0ce93598e3c849801011dee649a6a557d1035f90815290917f5f9ce34815f8e11431c7bb75a8e6886a91478f7ffc1dbb0a98dc240fddd76b755b818310615818575050906020613ab49282010161569c565b6020919350806001915483858801015201910190918392615800565b93909293823b615846575b5050505050565b6158b373ffffffffffffffffffffffffffffffffffffffff928360209516968460405197889687967f150b7a0200000000000000000000000000000000000000000000000000000000885216600487015216602485015260448401526080606484015260848301906138a6565b03815f865af15f9181615983575b5061592f57503d15615928573d6158d781613a29565b906158e560405192836139e8565b81523d5f602083013e5b8051908161592357827f64a0ae92000000000000000000000000000000000000000000000000000000005f5260045260245ffd5b602001fd5b60606158ef565b7fffffffff000000000000000000000000000000000000000000000000000000007f150b7a0200000000000000000000000000000000000000000000000000000000911603611ca757505f8080808061583f565b9091506020813d6020116159d8575b8161599f602093836139e8565b810103126102a057517fffffffff00000000000000000000000000000000000000000000000000000000811681036102a057905f6158c1565b3d9150615992565b8151919060418303615a1057615a099250602082015190606060408401519301515f1a90615c10565b9192909190565b50505f9160029190565b6004811015615ac55780615a2c575050565b60018103615a5c577ff645eedf000000000000000000000000000000000000000000000000000000005f5260045ffd5b60028103615a9057507ffce698f7000000000000000000000000000000000000000000000000000000005f5260045260245ffd5b600314615a9a5750565b7fd78bce0c000000000000000000000000000000000000000000000000000000005f5260045260245ffd5b7f4e487b71000000000000000000000000000000000000000000000000000000005f52602160045260245ffd5b60ff7ff0c57e16840df040f15088dc2f81fe391c3923bec73e23a9662efc9c229c6a005460401c1615615b2157565b7fd7e6bcf8000000000000000000000000000000000000000000000000000000005f5260045ffd5b905f8091602081519101845af48080615bfd575b15615b7d5750506040513d81523d5f602083013e60203d82010160405290565b15615bc45773ffffffffffffffffffffffffffffffffffffffff907f9996b315000000000000000000000000000000000000000000000000000000005f521660045260245ffd5b3d15615bd5576040513d5f823e3d90fd5b7fd6bda275000000000000000000000000000000000000000000000000000000005f5260045ffd5b503d151580615b5d5750813b1515615b5d565b91907f7fffffffffffffffffffffffffffffff5d576e7357a4501ddfe92f46681b20a08411615c94579160209360809260ff5f9560405194855216868401526040830152606082015282805260015afa15611fa6575f5173ffffffffffffffffffffffffffffffffffffffff811615615c8a57905f905f90565b505f906001905f90565b5050505f9160039190565b615ca7615654565b8051908115615cb7576020012090565b50507fa16a46d94261c7517cc8ff89f61c0ce93598e3c849801011dee649a6a557d100548015615ce45790565b507fc5d2460186f7233c927e7db2dcc703c0e500b653ca82273b7bfad8045d85a47090565b615d11615763565b8051908115615d21576020012090565b50507fa16a46d94261c7517cc8ff89f61c0ce93598e3c849801011dee649a6a557d101548015615ce4579056fea26469706673582212200fab3f3b3705b333dcd1c0c436eafbf53b20128eb808f8ff8bfaa40d687a78d364736f6c634300081e0033f0c57e16840df040f15088dc2f81fe391c3923bec73e23a9662efc9c229c6a00","linkReferences":{}},"methodIdentifiers":{"DEFAULT_ADMIN_ROLE()":"a217fddf","UPGRADE_INTERFACE_VERSION()":"ad3cb1cc","approve(address,uint256)":"095ea7b3","balanceOf(address)":"70a08231","eip712Domain()":"84b0196e","getAllMetadata(bytes32)":"05daf368","getAllMetadata(uint256)":"8c5acee7","getAllMetadataKeys(bytes32)":"5cb0e05a","getApproved(uint256)":"081812fc","getMetadata(bytes32,string)":"0e1ae91b","getMetadata(uint256,string)":"cb4799f2","getMetadataCount(bytes32)":"5e597156","getMetadataCount(uint256)":"93e3f3b0","getMetadataKeys(uint256)":"2b679e30","getRoleAdmin(bytes32)":"248a9ca3","getUupsImplementation()":"358410d5","grantRole(bytes32,address)":"2f2ff15d","hasMetadata(bytes32,string)":"e5e0a25d","hasMetadata(uint256,string)":"13d37550","hasRole(bytes32,address)":"91d14854","hashLeaseIntent((uint64,bytes32,(address,address,uint256,address,uint256,uint256,uint256,uint64,uint64,bytes32,uint16,(string,string)[])))":"4547bd64","initialize(address,address,address)":"c0c53b8b","isApprovedForAll(address,address)":"e985e9c5","leaseId()":"30c79cfe","leases(uint256)":"8927a106","mintLease((uint64,bytes32,(address,address,uint256,address,uint256,uint256,uint256,uint64,uint64,bytes32,uint16,(string,string)[])),bytes,bytes)":"9af66ccd","name()":"06fdde03","ownerOf(uint256)":"6352211e","proxiableUUID()":"52d1902d","registry()":"7b103999","removeMetadata(uint256,string)":"7577d428","renounceRole(bytes32,address)":"36568abe","revokeRole(bytes32,address)":"d547741f","safeTransferFrom(address,address,uint256)":"42842e0e","safeTransferFrom(address,address,uint256,bytes)":"b88d4fde","setApprovalForAll(address,bool)":"a22cb465","setMetadata(uint256,(string,string)[])":"236b8eb3","supportsInterface(bytes4)":"01ffc9a7","symbol()":"95d89b41","tokenURI(uint256)":"c87b56dd","transferFrom(address,address,uint256)":"23b872dd","upgradeToAndCall(address,bytes)":"4f1ef286"},"storageLayout":{"storage":[{"astId":56680,"contract":"src/LeaseFactory.sol:LeaseFactory","label":"_metadata","offset":0,"slot":"0","type":"t_mapping(t_bytes32,t_mapping(t_string_memory_ptr,t_string_storage))"},{"astId":56686,"contract":"src/LeaseFactory.sol:LeaseFactory","label":"_metadataKeys","offset":0,"slot":"1","type":"t_mapping(t_bytes32,t_array(t_string_storage)dyn_storage)"},{"astId":55156,"contract":"src/LeaseFactory.sol:LeaseFactory","label":"leaseId","offset":0,"slot":"2","type":"t_uint256"},{"astId":55160,"contract":"src/LeaseFactory.sol:LeaseFactory","label":"registry","offset":0,"slot":"3","type":"t_contract(AssetRegistry)55084"},{"astId":55178,"contract":"src/LeaseFactory.sol:LeaseFactory","label":"leases","offset":0,"slot":"4","type":"t_mapping(t_uint256,t_struct(Lease)55153_storage)"}],"types":{"t_address":{"encoding":"inplace","label":"address","numberOfBytes":"20"},"t_array(t_string_storage)dyn_storage":{"encoding":"dynamic_array","label":"string[]","numberOfBytes":"32","base":"t_string_storage"},"t_array(t_struct(Metadata)56673_storage)dyn_storage":{"encoding":"dynamic_array","label":"struct MetadataStorage.Metadata[]","numberOfBytes":"32","base":"t_struct(Metadata)56673_storage"},"t_bytes32":{"encoding":"inplace","label":"bytes32","numberOfBytes":"32"},"t_contract(AssetRegistry)55084":{"encoding":"inplace","label":"contract AssetRegistry","numberOfBytes":"20"},"t_mapping(t_bytes32,t_array(t_string_storage)dyn_storage)":{"encoding":"mapping","key":"t_bytes32","label":"mapping(bytes32 => string[])","numberOfBytes":"32","value":"t_array(t_string_storage)dyn_storage"},"t_mapping(t_bytes32,t_mapping(t_string_memory_ptr,t_string_storage))":{"encoding":"mapping","key":"t_bytes32","label":"mapping(bytes32 => mapping(string => string))","numberOfBytes":"32","value":"t_mapping(t_string_memory_ptr,t_string_storage)"},"t_mapping(t_string_memory_ptr,t_string_storage)":{"encoding":"mapping","key":"t_string_memory_ptr","label":"mapping(string => string)","numberOfBytes":"32","value":"t_string_storage"},"t_mapping(t_uint256,t_struct(Lease)55153_storage)":{"encoding":"mapping","key":"t_uint256","label":"mapping(uint256 => struct LeaseFactory.Lease)","numberOfBytes":"32","value":"t_struct(Lease)55153_storage"},"t_string_memory_ptr":{"encoding":"bytes","label":"string","numberOfBytes":"32"},"t_string_storage":{"encoding":"bytes","label":"string","numberOfBytes":"32"},"t_struct(Lease)55153_storage":{"encoding":"inplace","label":"struct LeaseFactory.Lease","numberOfBytes":"352","members":[{"astId":55128,"contract":"src/LeaseFactory.sol:LeaseFactory","label":"lessor","offset":0,"slot":"0","type":"t_address"},{"astId":55130,"contract":"src/LeaseFactory.sol:LeaseFactory","label":"lessee","offset":0,"slot":"1","type":"t_address"},{"astId":55132,"contract":"src/LeaseFactory.sol:LeaseFactory","label":"assetId","offset":0,"slot":"2","type":"t_uint256"},{"astId":55134,"contract":"src/LeaseFactory.sol:LeaseFactory","label":"paymentToken","offset":0,"slot":"3","type":"t_address"},{"astId":55136,"contract":"src/LeaseFactory.sol:LeaseFactory","label":"rentAmount","offset":0,"slot":"4","type":"t_uint256"},{"astId":55138,"contract":"src/LeaseFactory.sol:LeaseFactory","label":"rentPeriod","offset":0,"slot":"5","type":"t_uint256"},{"astId":55140,"contract":"src/LeaseFactory.sol:LeaseFactory","label":"securityDeposit","offset":0,"slot":"6","type":"t_uint256"},{"astId":55142,"contract":"src/LeaseFactory.sol:LeaseFactory","label":"startTime","offset":0,"slot":"7","type":"t_uint64"},{"astId":55144,"contract":"src/LeaseFactory.sol:LeaseFactory","label":"endTime","offset":8,"slot":"7","type":"t_uint64"},{"astId":55146,"contract":"src/LeaseFactory.sol:LeaseFactory","label":"legalDocHash","offset":0,"slot":"8","type":"t_bytes32"},{"astId":55148,"contract":"src/LeaseFactory.sol:LeaseFactory","label":"termsVersion","offset":0,"slot":"9","type":"t_uint16"},{"astId":55152,"contract":"src/LeaseFactory.sol:LeaseFactory","label":"metadata","offset":0,"slot":"10","type":"t_array(t_struct(Metadata)56673_storage)dyn_storage"}]},"t_struct(Metadata)56673_storage":{"encoding":"inplace","label":"struct MetadataStorage.Metadata","numberOfBytes":"64","members":[{"astId":56669,"contract":"src/LeaseFactory.sol:LeaseFactory","label":"key","offset":0,"slot":"0","type":"t_string_storage"},{"astId":56672,"contract":"src/LeaseFactory.sol:LeaseFactory","label":"value","offset":0,"slot":"1","type":"t_string_storage"}]},"t_uint16":{"encoding":"inplace","label":"uint16","numberOfBytes":"2"},"t_uint256":{"encoding":"inplace","label":"uint256","numberOfBytes":"32"},"t_uint64":{"encoding":"inplace","label":"uint64","numberOfBytes":"8"}}},"id":67}