{"abi":[{"type":"constructor","inputs":[{"name":"admin","type":"address","internalType":"address"},{"name":"assetRegistry","type":"address","internalType":"address"}],"stateMutability":"nonpayable"},{"type":"function","name":"DEFAULT_ADMIN_ROLE","inputs":[],"outputs":[{"name":"","type":"bytes32","internalType":"bytes32"}],"stateMutability":"view"},{"type":"function","name":"REGISTRY","inputs":[],"outputs":[{"name":"","type":"address","internalType":"contract AssetRegistry"}],"stateMutability":"view"},{"type":"function","name":"approve","inputs":[{"name":"to","type":"address","internalType":"address"},{"name":"tokenId","type":"uint256","internalType":"uint256"}],"outputs":[],"stateMutability":"nonpayable"},{"type":"function","name":"balanceOf","inputs":[{"name":"owner","type":"address","internalType":"address"}],"outputs":[{"name":"","type":"uint256","internalType":"uint256"}],"stateMutability":"view"},{"type":"function","name":"eip712Domain","inputs":[],"outputs":[{"name":"fields","type":"bytes1","internalType":"bytes1"},{"name":"name","type":"string","internalType":"string"},{"name":"version","type":"string","internalType":"string"},{"name":"chainId","type":"uint256","internalType":"uint256"},{"name":"verifyingContract","type":"address","internalType":"address"},{"name":"salt","type":"bytes32","internalType":"bytes32"},{"name":"extensions","type":"uint256[]","internalType":"uint256[]"}],"stateMutability":"view"},{"type":"function","name":"getAllMetadata","inputs":[{"name":"hash","type":"bytes32","internalType":"bytes32"}],"outputs":[{"name":"metadata","type":"tuple[]","internalType":"struct MetadataStorage.Metadata[]","components":[{"name":"key","type":"string","internalType":"string"},{"name":"value","type":"string","internalType":"string"}]}],"stateMutability":"view"},{"type":"function","name":"getAllMetadata","inputs":[{"name":"tokenId","type":"uint256","internalType":"uint256"}],"outputs":[{"name":"metadata","type":"tuple[]","internalType":"struct MetadataStorage.Metadata[]","components":[{"name":"key","type":"string","internalType":"string"},{"name":"value","type":"string","internalType":"string"}]}],"stateMutability":"view"},{"type":"function","name":"getAllMetadataKeys","inputs":[{"name":"hash","type":"bytes32","internalType":"bytes32"}],"outputs":[{"name":"keys","type":"string[]","internalType":"string[]"}],"stateMutability":"view"},{"type":"function","name":"getApproved","inputs":[{"name":"tokenId","type":"uint256","internalType":"uint256"}],"outputs":[{"name":"","type":"address","internalType":"address"}],"stateMutability":"view"},{"type":"function","name":"getMetadata","inputs":[{"name":"hash","type":"bytes32","internalType":"bytes32"},{"name":"key","type":"string","internalType":"string"}],"outputs":[{"name":"value","type":"string","internalType":"string"}],"stateMutability":"view"},{"type":"function","name":"getMetadata","inputs":[{"name":"tokenId","type":"uint256","internalType":"uint256"},{"name":"key","type":"string","internalType":"string"}],"outputs":[{"name":"value","type":"string","internalType":"string"}],"stateMutability":"view"},{"type":"function","name":"getMetadataCount","inputs":[{"name":"hash","type":"bytes32","internalType":"bytes32"}],"outputs":[{"name":"count","type":"uint256","internalType":"uint256"}],"stateMutability":"view"},{"type":"function","name":"getMetadataCount","inputs":[{"name":"tokenId","type":"uint256","internalType":"uint256"}],"outputs":[{"name":"count","type":"uint256","internalType":"uint256"}],"stateMutability":"view"},{"type":"function","name":"getMetadataKeys","inputs":[{"name":"tokenId","type":"uint256","internalType":"uint256"}],"outputs":[{"name":"keys","type":"string[]","internalType":"string[]"}],"stateMutability":"view"},{"type":"function","name":"getRoleAdmin","inputs":[{"name":"role","type":"bytes32","internalType":"bytes32"}],"outputs":[{"name":"","type":"bytes32","internalType":"bytes32"}],"stateMutability":"view"},{"type":"function","name":"getTokenIdHash","inputs":[{"name":"tokenId","type":"uint256","internalType":"uint256"}],"outputs":[{"name":"hash","type":"bytes32","internalType":"bytes32"}],"stateMutability":"pure"},{"type":"function","name":"grantRole","inputs":[{"name":"role","type":"bytes32","internalType":"bytes32"},{"name":"account","type":"address","internalType":"address"}],"outputs":[],"stateMutability":"nonpayable"},{"type":"function","name":"hasMetadata","inputs":[{"name":"tokenId","type":"uint256","internalType":"uint256"},{"name":"key","type":"string","internalType":"string"}],"outputs":[{"name":"exists","type":"bool","internalType":"bool"}],"stateMutability":"view"},{"type":"function","name":"hasMetadata","inputs":[{"name":"hash","type":"bytes32","internalType":"bytes32"},{"name":"key","type":"string","internalType":"string"}],"outputs":[{"name":"exists","type":"bool","internalType":"bool"}],"stateMutability":"view"},{"type":"function","name":"hasRole","inputs":[{"name":"role","type":"bytes32","internalType":"bytes32"},{"name":"account","type":"address","internalType":"address"}],"outputs":[{"name":"","type":"bool","internalType":"bool"}],"stateMutability":"view"},{"type":"function","name":"hashLeaseIntent","inputs":[{"name":"L","type":"tuple","internalType":"struct LeaseFactory.LeaseIntent","components":[{"name":"deadline","type":"uint64","internalType":"uint64"},{"name":"assetTypeSchemaHash","type":"bytes32","internalType":"bytes32"},{"name":"lease","type":"tuple","internalType":"struct LeaseFactory.Lease","components":[{"name":"lessor","type":"address","internalType":"address"},{"name":"lessee","type":"address","internalType":"address"},{"name":"assetId","type":"uint256","internalType":"uint256"},{"name":"paymentToken","type":"address","internalType":"address"},{"name":"rentAmount","type":"uint256","internalType":"uint256"},{"name":"rentPeriod","type":"uint256","internalType":"uint256"},{"name":"securityDeposit","type":"uint256","internalType":"uint256"},{"name":"startTime","type":"uint64","internalType":"uint64"},{"name":"endTime","type":"uint64","internalType":"uint64"},{"name":"legalDocHash","type":"bytes32","internalType":"bytes32"},{"name":"termsVersion","type":"uint16","internalType":"uint16"},{"name":"metadata","type":"tuple[]","internalType":"struct MetadataStorage.Metadata[]","components":[{"name":"key","type":"string","internalType":"string"},{"name":"value","type":"string","internalType":"string"}]}]}]}],"outputs":[{"name":"","type":"bytes32","internalType":"bytes32"}],"stateMutability":"view"},{"type":"function","name":"isApprovedForAll","inputs":[{"name":"owner","type":"address","internalType":"address"},{"name":"operator","type":"address","internalType":"address"}],"outputs":[{"name":"","type":"bool","internalType":"bool"}],"stateMutability":"view"},{"type":"function","name":"leaseId","inputs":[],"outputs":[{"name":"","type":"uint256","internalType":"uint256"}],"stateMutability":"view"},{"type":"function","name":"leases","inputs":[{"name":"","type":"uint256","internalType":"uint256"}],"outputs":[{"name":"lessor","type":"address","internalType":"address"},{"name":"lessee","type":"address","internalType":"address"},{"name":"assetId","type":"uint256","internalType":"uint256"},{"name":"paymentToken","type":"address","internalType":"address"},{"name":"rentAmount","type":"uint256","internalType":"uint256"},{"name":"rentPeriod","type":"uint256","internalType":"uint256"},{"name":"securityDeposit","type":"uint256","internalType":"uint256"},{"name":"startTime","type":"uint64","internalType":"uint64"},{"name":"endTime","type":"uint64","internalType":"uint64"},{"name":"legalDocHash","type":"bytes32","internalType":"bytes32"},{"name":"termsVersion","type":"uint16","internalType":"uint16"}],"stateMutability":"view"},{"type":"function","name":"mintLease","inputs":[{"name":"L","type":"tuple","internalType":"struct LeaseFactory.LeaseIntent","components":[{"name":"deadline","type":"uint64","internalType":"uint64"},{"name":"assetTypeSchemaHash","type":"bytes32","internalType":"bytes32"},{"name":"lease","type":"tuple","internalType":"struct LeaseFactory.Lease","components":[{"name":"lessor","type":"address","internalType":"address"},{"name":"lessee","type":"address","internalType":"address"},{"name":"assetId","type":"uint256","internalType":"uint256"},{"name":"paymentToken","type":"address","internalType":"address"},{"name":"rentAmount","type":"uint256","internalType":"uint256"},{"name":"rentPeriod","type":"uint256","internalType":"uint256"},{"name":"securityDeposit","type":"uint256","internalType":"uint256"},{"name":"startTime","type":"uint64","internalType":"uint64"},{"name":"endTime","type":"uint64","internalType":"uint64"},{"name":"legalDocHash","type":"bytes32","internalType":"bytes32"},{"name":"termsVersion","type":"uint16","internalType":"uint16"},{"name":"metadata","type":"tuple[]","internalType":"struct MetadataStorage.Metadata[]","components":[{"name":"key","type":"string","internalType":"string"},{"name":"value","type":"string","internalType":"string"}]}]}]},{"name":"sigLessor","type":"bytes","internalType":"bytes"},{"name":"sigLessee","type":"bytes","internalType":"bytes"}],"outputs":[{"name":"tokenId","type":"uint256","internalType":"uint256"}],"stateMutability":"nonpayable"},{"type":"function","name":"name","inputs":[],"outputs":[{"name":"","type":"string","internalType":"string"}],"stateMutability":"view"},{"type":"function","name":"ownerOf","inputs":[{"name":"tokenId","type":"uint256","internalType":"uint256"}],"outputs":[{"name":"","type":"address","internalType":"address"}],"stateMutability":"view"},{"type":"function","name":"removeMetadata","inputs":[{"name":"hash","type":"bytes32","internalType":"bytes32"},{"name":"key","type":"string","internalType":"string"}],"outputs":[],"stateMutability":"nonpayable"},{"type":"function","name":"removeMetadata","inputs":[{"name":"tokenId","type":"uint256","internalType":"uint256"},{"name":"key","type":"string","internalType":"string"}],"outputs":[],"stateMutability":"nonpayable"},{"type":"function","name":"renounceRole","inputs":[{"name":"role","type":"bytes32","internalType":"bytes32"},{"name":"callerConfirmation","type":"address","internalType":"address"}],"outputs":[],"stateMutability":"nonpayable"},{"type":"function","name":"revokeRole","inputs":[{"name":"role","type":"bytes32","internalType":"bytes32"},{"name":"account","type":"address","internalType":"address"}],"outputs":[],"stateMutability":"nonpayable"},{"type":"function","name":"safeTransferFrom","inputs":[{"name":"from","type":"address","internalType":"address"},{"name":"to","type":"address","internalType":"address"},{"name":"tokenId","type":"uint256","internalType":"uint256"}],"outputs":[],"stateMutability":"nonpayable"},{"type":"function","name":"safeTransferFrom","inputs":[{"name":"from","type":"address","internalType":"address"},{"name":"to","type":"address","internalType":"address"},{"name":"tokenId","type":"uint256","internalType":"uint256"},{"name":"data","type":"bytes","internalType":"bytes"}],"outputs":[],"stateMutability":"nonpayable"},{"type":"function","name":"setApprovalForAll","inputs":[{"name":"operator","type":"address","internalType":"address"},{"name":"approved","type":"bool","internalType":"bool"}],"outputs":[],"stateMutability":"nonpayable"},{"type":"function","name":"setMetadata","inputs":[{"name":"tokenId","type":"uint256","internalType":"uint256"},{"name":"metadata_","type":"tuple[]","internalType":"struct MetadataStorage.Metadata[]","components":[{"name":"key","type":"string","internalType":"string"},{"name":"value","type":"string","internalType":"string"}]}],"outputs":[],"stateMutability":"nonpayable"},{"type":"function","name":"setMetadata","inputs":[{"name":"hash","type":"bytes32","internalType":"bytes32"},{"name":"metadata_","type":"tuple[]","internalType":"struct MetadataStorage.Metadata[]","components":[{"name":"key","type":"string","internalType":"string"},{"name":"value","type":"string","internalType":"string"}]}],"outputs":[],"stateMutability":"nonpayable"},{"type":"function","name":"supportsInterface","inputs":[{"name":"interfaceId","type":"bytes4","internalType":"bytes4"}],"outputs":[{"name":"","type":"bool","internalType":"bool"}],"stateMutability":"view"},{"type":"function","name":"symbol","inputs":[],"outputs":[{"name":"","type":"string","internalType":"string"}],"stateMutability":"view"},{"type":"function","name":"tokenURI","inputs":[{"name":"tokenId","type":"uint256","internalType":"uint256"}],"outputs":[{"name":"","type":"string","internalType":"string"}],"stateMutability":"view"},{"type":"function","name":"transferFrom","inputs":[{"name":"from","type":"address","internalType":"address"},{"name":"to","type":"address","internalType":"address"},{"name":"tokenId","type":"uint256","internalType":"uint256"}],"outputs":[],"stateMutability":"nonpayable"},{"type":"event","name":"Approval","inputs":[{"name":"owner","type":"address","indexed":true,"internalType":"address"},{"name":"approved","type":"address","indexed":true,"internalType":"address"},{"name":"tokenId","type":"uint256","indexed":true,"internalType":"uint256"}],"anonymous":false},{"type":"event","name":"ApprovalForAll","inputs":[{"name":"owner","type":"address","indexed":true,"internalType":"address"},{"name":"operator","type":"address","indexed":true,"internalType":"address"},{"name":"approved","type":"bool","indexed":false,"internalType":"bool"}],"anonymous":false},{"type":"event","name":"EIP712DomainChanged","inputs":[],"anonymous":false},{"type":"event","name":"LeaseMinted","inputs":[{"name":"tokenId","type":"uint256","indexed":true,"internalType":"uint256"},{"name":"lessor","type":"address","indexed":true,"internalType":"address"},{"name":"lessee","type":"address","indexed":true,"internalType":"address"},{"name":"assetId","type":"uint256","indexed":false,"internalType":"uint256"}],"anonymous":false},{"type":"event","name":"MetadataRemoved","inputs":[{"name":"hash","type":"bytes32","indexed":true,"internalType":"bytes32"},{"name":"key","type":"string","indexed":false,"internalType":"string"}],"anonymous":false},{"type":"event","name":"MetadataUpdated","inputs":[{"name":"hash","type":"bytes32","indexed":true,"internalType":"bytes32"},{"name":"key","type":"string","indexed":false,"internalType":"string"},{"name":"value","type":"string","indexed":false,"internalType":"string"}],"anonymous":false},{"type":"event","name":"RoleAdminChanged","inputs":[{"name":"role","type":"bytes32","indexed":true,"internalType":"bytes32"},{"name":"previousAdminRole","type":"bytes32","indexed":true,"internalType":"bytes32"},{"name":"newAdminRole","type":"bytes32","indexed":true,"internalType":"bytes32"}],"anonymous":false},{"type":"event","name":"RoleGranted","inputs":[{"name":"role","type":"bytes32","indexed":true,"internalType":"bytes32"},{"name":"account","type":"address","indexed":true,"internalType":"address"},{"name":"sender","type":"address","indexed":true,"internalType":"address"}],"anonymous":false},{"type":"event","name":"RoleRevoked","inputs":[{"name":"role","type":"bytes32","indexed":true,"internalType":"bytes32"},{"name":"account","type":"address","indexed":true,"internalType":"address"},{"name":"sender","type":"address","indexed":true,"internalType":"address"}],"anonymous":false},{"type":"event","name":"Transfer","inputs":[{"name":"from","type":"address","indexed":true,"internalType":"address"},{"name":"to","type":"address","indexed":true,"internalType":"address"},{"name":"tokenId","type":"uint256","indexed":true,"internalType":"uint256"}],"anonymous":false},{"type":"error","name":"AccessControlBadConfirmation","inputs":[]},{"type":"error","name":"AccessControlUnauthorizedAccount","inputs":[{"name":"account","type":"address","internalType":"address"},{"name":"neededRole","type":"bytes32","internalType":"bytes32"}]},{"type":"error","name":"ECDSAInvalidSignature","inputs":[]},{"type":"error","name":"ECDSAInvalidSignatureLength","inputs":[{"name":"length","type":"uint256","internalType":"uint256"}]},{"type":"error","name":"ECDSAInvalidSignatureS","inputs":[{"name":"s","type":"bytes32","internalType":"bytes32"}]},{"type":"error","name":"ERC721IncorrectOwner","inputs":[{"name":"sender","type":"address","internalType":"address"},{"name":"tokenId","type":"uint256","internalType":"uint256"},{"name":"owner","type":"address","internalType":"address"}]},{"type":"error","name":"ERC721InsufficientApproval","inputs":[{"name":"operator","type":"address","internalType":"address"},{"name":"tokenId","type":"uint256","internalType":"uint256"}]},{"type":"error","name":"ERC721InvalidApprover","inputs":[{"name":"approver","type":"address","internalType":"address"}]},{"type":"error","name":"ERC721InvalidOperator","inputs":[{"name":"operator","type":"address","internalType":"address"}]},{"type":"error","name":"ERC721InvalidOwner","inputs":[{"name":"owner","type":"address","internalType":"address"}]},{"type":"error","name":"ERC721InvalidReceiver","inputs":[{"name":"receiver","type":"address","internalType":"address"}]},{"type":"error","name":"ERC721InvalidSender","inputs":[{"name":"sender","type":"address","internalType":"address"}]},{"type":"error","name":"ERC721NonexistentToken","inputs":[{"name":"tokenId","type":"uint256","internalType":"uint256"}]},{"type":"error","name":"InvalidShortString","inputs":[]},{"type":"error","name":"StringTooLong","inputs":[{"name":"str","type":"string","internalType":"string"}]}],"bytecode":{"object":"0x610180346104a957601f613cba38819003918201601f19168301916001600160401b038311848410176102c65780849260409485528339810103126104a957610053602061004c836104c8565b92016104c8565b9060405191610061836104ad565b601483527f41737365744c656173696e6750726f746f636f6c000000000000000000000000602084015260405192610098846104ad565b60018452603160f81b60208501526040516100b2816104ad565b600f81526e1319585cd9481059dc99595b595b9d608a1b6020820152604051906100db826104ad565b60058252644c4541534560d81b60208301528051906001600160401b0382116102c6575f5490600182811c9216801561049f575b60208310146103b15781601f849311610448575b50602090601f83116001146103da575f926103cf575b50508160011b915f199060031b1c1916175f555b8051906001600160401b0382116102c65760015490600182811c921680156103c5575b60208310146103b15781601f849311610356575b50602090601f83116001146102e5575f926102da575b50508160011b915f199060031b1c1916176001555b6101b88161055b565b926101209384526101c8856106e3565b9161014092835260208151910120948560e0526020815191012090610100958287524660a0526040519260208401917f8b73c3c69bb8fe3d512ecc4cf759cc79239f7b179b0ffacaa9a75d522b39400f8352604085015260608401524660808401523060a084015260a0835260c083019280841060018060401b038511176102c65761026e936040525190206080523060c0526101609360018060a01b031684526104dc565b506040519261343a9485610820863960805185613271015260a0518561333c015260c0518561323b015260e051856132c0015251846132e6015251836112540152518261127d01525181818161053e0152611de80152f35b634e487b7160e01b5f52604160045260245ffd5b015190505f8061019a565b60015f9081525f80516020613c9a8339815191529350601f198516905b81811061033e5750908460019594939210610326575b505050811b016001556101af565b01515f1960f88460031b161c191690555f8080610318565b92936020600181928786015181550195019301610302565b60015f529091505f80516020613c9a833981519152601f840160051c810191602085106103a7575b90601f859493920160051c01905b8181106103995750610184565b5f815584935060010161038c565b909150819061037e565b634e487b7160e01b5f52602260045260245ffd5b91607f1691610170565b015190505f80610139565b5f8080525f80516020613c5a8339815191529350601f198516905b8181106104305750908460019594939210610418575b505050811b015f5561014d565b01515f1960f88460031b161c191690555f808061040b565b929360206001819287860151815501950193016103f5565b5f80529091505f80516020613c5a833981519152601f840160051c810160208510610498575b90849392915b601f830160051c8201811061048a575050610123565b5f8155859450600101610474565b508061046e565b91607f169161010f565b5f80fd5b604081019081106001600160401b038211176102c657604052565b51906001600160a01b03821682036104a957565b6001600160a01b03165f8181525f80516020613c7a833981519152602052604090205460ff16610556575f8181525f80516020613c7a83398151915260205260408120805460ff191660011790553391907f2f8788117e7eff1d82e926ec794901d17c78024a50270940304540a733656f0d8180a4600190565b505f90565b8051602090818110156105d15750601f825111610593578082519201519080831061058557501790565b825f19910360031b1b161790565b60448260405192839163305a27a960e01b83528160048401528051918291826024860152018484015e5f828201840152601f01601f19168101030190fd5b906001600160401b0382116102c657600654926001938481811c911680156106d9575b838210146103b157601f81116106a5575b5081601f841160011461064157509282939183925f94610636575b50501b915f199060031b1c19161760065560ff90565b015192505f80610620565b919083601f19811660065f52845f20945f905b8883831061068b5750505010610673575b505050811b0160065560ff90565b01515f1960f88460031b161c191690555f8080610665565b858701518855909601959485019487935090810190610654565b60065f5284601f845f20920160051c820191601f860160051c015b8281106106ce575050610605565b5f81550185906106c0565b90607f16906105f4565b80516020908181101561070d5750601f825111610593578082519201519080831061058557501790565b906001600160401b0382116102c657600754926001938481811c91168015610815575b838210146103b157601f81116107e1575b5081601f841160011461077d57509282939183925f94610772575b50501b915f199060031b1c19161760075560ff90565b015192505f8061075c565b919083601f19811660075f52845f20945f905b888383106107c757505050106107af575b505050811b0160075560ff90565b01515f1960f88460031b161c191690555f80806107a1565b858701518855909601959485019487935090810190610790565b60075f5284601f845f20920160051c820191601f860160051c015b82811061080a575050610741565b5f81550185906107fc565b90607f169061073056fe6080806040526004361015610012575f80fd5b5f3560e01c90816301ffc9a714611e365750806305daf36814611e1757806306433b1b14611dd357806306fdde0314611d2c578063081812fc14611cf0578063095ea7b314611c0f5780630e1ae91b14611ba357806313d3755014611b80578063236b8eb3146119d157806323b872dd146119ba578063248a9ca31461198d57806326f389ba146118d35780632b679e30146118ac5780632f2ff15d1461186f57806330c79cfe1461185257806336568abe1461180b5780633b41f4ea1461167d57806342842e0e146116505780634547bd64146116125780635cb0e05a146115e75780635e597156146115bd5780636352211e1461158d57806370a08231146115375780637577d4281461133257806384b0196e1461123c5780638927a106146111885780638c5acee71461115557806391d148541461110c57806393e3f3b0146110da57806395d89b4114610ffc5780639af66ccd1461043f578063a217fddf14610425578063a22cb46514610384578063b88d4fde14610319578063c87b56dd146102fa578063cb4799f2146102b2578063d547741f14610273578063e5e0a25d14610250578063e985e9c5146101fe5763ff74ef30146101d4575f80fd5b346101fa5760203660031901126101fa5760206101f2600435612a94565b604051908152f35b5f80fd5b346101fa5760403660031901126101fa57610217611f63565b61021f611f79565b9060018060a01b038091165f52600560205260405f2091165f52602052602060ff60405f2054166040519015158152f35b346101fa57602061026961026336612082565b91612a65565b6040519015158152f35b346101fa5760403660031901126101fa576102b0600435610292611f79565b90805f5260086020526102ab600160405f200154612b41565b612bff565b005b346101fa576102f66102e26102d46102dc6102cc36612082565b939091612a94565b923691612001565b90612492565b604051918291602083526020830190611ebb565b0390f35b346101fa5760203660031901126101fa576102f66102e26004356129c7565b346101fa5760803660031901126101fa57610332611f63565b61033a611f79565b90604435606435926001600160401b0384116101fa57366023850112156101fa576103726102b0943690602481600401359101612001565b9261037e8383836124ca565b33612e77565b346101fa5760403660031901126101fa5761039d611f63565b602435908115158092036101fa576001600160a01b031690811561040c57335f52600560205260405f20825f5260205260405f2060ff1981541660ff83161790556040519081527f17307eab39ab6107e8899845ad3d59bd9653f200f220920489ca2b5937696c3160203392a3005b604051630b61174360e31b815260048101839052602490fd5b346101fa575f3660031901126101fa5760206040515f8152f35b346101fa576003196060368201126101fa57600435906001600160401b0382116101fa5760609082360301126101fa576024356001600160401b0381116101fa5761048e903690600401612055565b906044356001600160401b0381116101fa576104ae903690600401612055565b9290916001600160401b036104c586600401612913565b164211610fcd576104e760e06104e16044880188600401612927565b01612913565b6001600160401b03806105066101006104e160448b018b600401612927565b1691161015610f9c5760406105216044870187600401612927565b60405163518e2bdd60e01b815291013560048201526020816024817f00000000000000000000000000000000000000000000000000000000000000006001600160a01b03165afa908115610f91575f91610f56575b5015610f21576105a061059a6105a99261059288600401612c73565b943691612001565b8361317b565b909291926131b5565b6001600160a01b036105c96105c46044880160048901612927565b61293d565b166001600160a01b0390911603610ee7576105ec6105a0926105f2943691612001565b9061317b565b6001600160a01b03610615602061060f6044860160048701612927565b0161293d565b166001600160a01b0390911603610ead57600b545f198114610cf35760018101600b5561064d602061060f6044850185600401612927565b9160405161065a81611faa565b5f81526001600160a01b03841615610e95575f838152600260205260409020546001600160a01b031680610e62575b6001600160a01b0385165f818152600360209081526040808320805460010190558783526002909152812080546001600160a01b0319168317905585919083907fddf252ad1be2c89b69c2b068fc378daa952ba7f163c4a11628f55a4df523b3ef9080a4610e4a57833b610d07575b5090915061070c6044820182600401612927565b5f838152600c6020526040902090610845906001600160a01b0361072f8261293d565b84546001600160a01b0319169116178355600183016001600160a01b036107586020840161293d565b82546001600160a01b031916911617905560408101356002840155600383016001600160a01b0361078b6060840161293d565b82546001600160a01b03191691161790556080810135600484015560a0810135600584015560c08101356006840155600783016001600160401b036107d260e08401612913565b168154906fffffffffffffffff00000000000000006107f46101008601612913565b60401b16916fffffffffffffffffffffffffffffffff19161717905561012081013560088401556009830161ffff61082f6101408401612951565b1661ffff19825416179055610160810190612960565b90600160401b8211610a2057600a83015482600a850155808310610c98575b5091600a8391015f5260205f20925f915b838310610ab757868660405160208101908382526020815261089681611f8f565b5190206108c16108ba6108af6044850185600401612927565b610160810190612960565b3691612164565b926108ca612aeb565b5f5b8451811015610a3457825f52600960205261091160208060405f206108f1858a612307565b515190604051938285935191829101845e8201908152030190205461223e565b1561095c60206109218489612307565b510151855f52600960205260208060405f2061093d878c612307565b515190604051938285935191829101845e8201908152030190206127e1565b6109bf575b80835f805160206133e58339815191526109a86109806001958a612307565b51516109b66020610991878d612307565b510151604051938493604085526040850190611ebb565b908382036020850152611ebb565b0390a2016108cc565b825f52600a60205260405f20906109d68187612307565b5151918054600160401b811015610a20576109f691600182018155612215565b610a0d57600192610a06916127e1565b9050610961565b634e487b7160e01b5f525f60045260245ffd5b634e487b7160e01b5f52604160045260245ffd5b60208285610a4b6105c46044830183600401612927565b90827fefe2f746143aa1d2f03b11088ab609d0d5fd98fa818fa1da44c1874718665cf9856040610a96610a888361060f6044890189600401612927565b956044810190600401612927565b60405191013581526001600160a01b039485169590941693a4604051908152f35b8035603e19833603018112156101fa57610ad383820180612995565b906001600160401b038211610a2057610af682610af08a5461223e565b8a6126bb565b5f90601f8311600114610c2e579180610b2992610b3895945f92610c23575b50508160011b915f199060031b1c19161790565b87555b83016020810190612995565b906001600160401b038211610a2057610b6182610b5860018a015461223e565b60018a016126bb565b5f90601f8311600114610bb25792610b96836002946020946001975f92610ba75750508160011b915f199060031b1c19161790565b848901555b01950192019193610875565b013590508d80610b15565b600188015f5260205f20915f5b601f1985168110610c0b575083602093600196938793600297601f19811610610bf2575b505050811b0184890155610b9b565b01355f19600384901b60f8161c191690558c8080610be3565b90926020600181928686013581550194019101610bbf565b013590508c80610b15565b885f5260205f20915f5b601f1985168110610c805750918391600193610b389695601f19811610610c67575b505050811b018755610b2c565b01355f19600384901b60f8161c191690558b8080610c5a565b90926020600181928686013581550194019101610c38565b6001600160ff1b038181168203610cf35783168303610cf357600a84015f5260205f208360011b81015b8260011b82018110610cd5575050610864565b80610ce1600292612663565b610ced60018201612663565b01610cc2565b634e487b7160e01b5f52601160045260245ffd5b6020610d419160405180938192630a85bd0160e11b83523360048401525f6024840152876044840152608060648401526084830190611ebb565b03815f6001600160a01b0389165af15f9181610e05575b50610dbf57833d15610db7573d90610d6f82611fe6565b91610d7d6040519384611fc5565b82523d5f602084013e5b81519182610db057604051633250574960e11b81526001600160a01b0383166004820152602490fd5b6020915001fd5b606090610d87565b919290916001600160e01b03191663757a42ff60e11b01610de357508190836106f8565b604051633250574960e11b81526001600160a01b039091166004820152602490fd5b9091506020813d602011610e42575b81610e2160209383611fc5565b810103126101fa57516001600160e01b0319811681036101fa579085610d58565b3d9150610e14565b6040516339e3563760e11b81525f6004820152602490fd5b5f84815260046020526040902080546001600160a01b0319169055805f52600360205260405f205f198154019055610689565b604051633250574960e11b81525f6004820152602490fd5b60405162461bcd60e51b81526020600482015260126024820152711b195cdcd959481cda59c81a5b9d985b1a5960721b6044820152606490fd5b60405162461bcd60e51b81526020600482015260126024820152711b195cdcdbdc881cda59c81a5b9d985b1a5960721b6044820152606490fd5b60405162461bcd60e51b815260206004820152600d60248201526c6173736574202165786973747360981b6044820152606490fd5b90506020813d602011610f89575b81610f7160209383611fc5565b810103126101fa575180151581036101fa5786610576565b3d9150610f64565b6040513d5f823e3d90fd5b60405162461bcd60e51b81526020600482015260096024820152686261642074696d657360b81b6044820152606490fd5b60405162461bcd60e51b8152602060048201526007602482015266195e1c1a5c995960ca1b6044820152606490fd5b346101fa575f3660031901126101fa576040515f600182600154926110208461223e565b92838352602094856001821691825f146110ba57505060011461105f575b5061104b92500383611fc5565b6102f6604051928284938452830190611ebb565b84915060015f527fb10e2d527612073b26eecdfd717e6a320cf44b4afac2b0732d9fcbe2b7fa0cf6905f915b8583106110a257505061104b93508201018561103e565b8054838901850152879450869390920191810161108b565b60ff19168582015261104b95151560051b850101925087915061103e9050565b346101fa5760203660031901126101fa576110f6600435612a94565b5f52600a602052602060405f2054604051908152f35b346101fa5760403660031901126101fa57611125611f79565b6004355f52600860205260405f209060018060a01b03165f52602052602060ff60405f2054166040519015158152f35b346101fa5760203660031901126101fa576102f661117c611177600435612a94565b61231b565b60405191829182611edf565b346101fa5760203660031901126101fa576004355f52600c60205261016060405f2060018060a01b0380825416918160018201541691600282015490600383015416600483015460058401546006850154916007860154936001600160401b039561ffff600960088a015499015416986040519a8b5260208b015260408a01526060890152608088015260a087015260c086015281811660e086015260401c16610100840152610120830152610140820152f35b346101fa575f3660031901126101fa576112d56112787f0000000000000000000000000000000000000000000000000000000000000000612fc0565b6112a17f00000000000000000000000000000000000000000000000000000000000000006130be565b604051906112ae82611faa565b5f82526112e3602091604051958695600f60f81b875260e0602088015260e0870190611ebb565b908582036040870152611ebb565b4660608501523060808501525f60a085015283810360c0850152602080845192838152019301915f5b82811061131b57505050500390f35b83518552869550938101939281019260010161130c565b346101fa5761135461134336612082565b9161134f939193612aeb565b612a94565b9161135d612aeb565b825f526020916009835261138860405f2084604051809285878337858201908152030190205461223e565b156114fd57835f52600983526113b460405f208460405180928587833785820190815203019020612663565b835f52600a835260405f205f5b8154808210156114cd576113e86113ef6113db8486612215565b5060405192838092612276565b0382611fc5565b868151910120611400368688612001565b8781519101201461141457506001016113c1565b905f95929394951991828101908111610cf35761143461143c9186612215565b509185612215565b919091610a0d5761144c916126fe565b825480156114b9577fca45c60cf1bbd58b2ac673da0d008eb3606c36e814e8d7fe0df3a3e53ecc59b79560409486938493019061149261148c8383612215565b906126ac565b555b8451958487958652850152848401375f828201840152601f01601f19168101030190a2005b634e487b7160e01b5f52603160045260245ffd5b505050907fca45c60cf1bbd58b2ac673da0d008eb3606c36e814e8d7fe0df3a3e53ecc59b7928280604093611494565b60405162461bcd60e51b815260048101849052601260248201527112d95e48191bd95cc81b9bdd08195e1a5cdd60721b6044820152606490fd5b346101fa5760203660031901126101fa576001600160a01b03611558611f63565b168015611575575f526003602052602060405f2054604051908152f35b6040516322718ad960e21b81525f6004820152602490fd5b346101fa5760203660031901126101fa5760206115ab600435612ab1565b6040516001600160a01b039091168152f35b346101fa5760203660031901126101fa576004355f52600a602052602060405f2054604051908152f35b346101fa5760203660031901126101fa576102f66116066004356128a4565b604051918291826120ea565b346101fa576003196020368201126101fa57600435906001600160401b0382116101fa5760609082360301126101fa576101f2602091600401612c73565b346101fa576102b0611661366120b5565b906040519261166f84611faa565b5f845261037e8383836124ca565b346101fa5760403660031901126101fa57600435602480356001600160401b0381116101fa57366023820112156101fa576116c2903690602481600401359101612164565b916116cb612aeb565b5f5b83518110156102b057815f526009908260209280845261171f6116f9858060405f206108f1888d612307565b159185611706868b612307565b51015190845f528652858060405f2061093d888d612307565b611780575b5f805160206133e583398151915261176a600194611777611745868b612307565b51519180611753888d612307565b510151604051948594604086526040860190611ebb565b9184830390850152611ebb565b0390a2016116cd565b5f92919252600a815260405f206117978387612307565b515190805490600160401b8210156117f857906117b991600182018155612215565b6117e65761176a600194936117dd87945f805160206133e5833981519152946127e1565b94505050611724565b85634e487b7160e01b5f525f6004525ffd5b86634e487b7160e01b5f5260416004525ffd5b346101fa5760403660031901126101fa57611824611f79565b336001600160a01b03821603611840576102b090600435612bff565b60405163334bd91960e11b8152600490fd5b346101fa575f3660031901126101fa576020600b54604051908152f35b346101fa5760403660031901126101fa576102b060043561188e611f79565b90805f5260086020526118a7600160405f200154612b41565b612b81565b346101fa5760203660031901126101fa576102f66116066118ce600435612a94565b6128a4565b346101fa576118e136612082565b906118ea612aeb565b825f526020916009835261191560405f2084604051809285878337858201908152030190205461223e565b156114fd57835f526009835261194160405f208460405180928587833785820190815203019020612663565b835f52600a835260405f205f5b8154808210156114cd576113e86119686113db8486612215565b868151910120611979368688612001565b87815191012014611414575060010161194e565b346101fa5760203660031901126101fa576004355f5260086020526020600160405f200154604051908152f35b346101fa576102b06119cb366120b5565b916124ca565b346101fa5760403660031901126101fa5760043560246001600160401b0381358181116101fa57366023820112156101fa5780600401359182116101fa5736838360051b830101116101fa57611a25612aeb565b835f526020936002855260018060a01b0360405f20541615611b495790611a4e611a5892612a94565b9284369201612164565b92611a61612aeb565b5f5b84518110156102b057825f526009808352611ab0611a8a848060405f206108f1878c612307565b159184611a97858a612307565b51015190865f528552848060405f2061093d878c612307565b611afa575b80835f805160206133e5833981519152611ae4611ad46001958a612307565b5151611af187610991878d612307565b908382038a850152611ebb565b0390a201611a63565b825f52600a825260405f20611b0f8287612307565b515190805490600160401b8210156117f85790611b3191600182018155612215565b6117e65760019291611b42916127e1565b9050611ab5565b60405162461bcd60e51b8152600481018690526010818601526f1d1bdad95b881b9bdd081b5a5b9d195960821b6044820152606490fd5b346101fa576020610269611b9e611b9636612082565b929091612a94565b612a65565b346101fa5760403660031901126101fa576024356001600160401b0381116101fa576113e86102e2602080611bdf6102f6953690600401612037565b6004355f526009825260405f20604051938285935191829101845e82019081520301902060405192838092612276565b346101fa5760403660031901126101fa57611c28611f63565b602435611c3481612ab1565b33151580611cdd575b80611cb4575b611c9c576001600160a01b039283169282918491167f8c5be1e5ebec7d5bd14f71427d1e84f3dd0314c0f7b2291e5b200ac8c7c3b9255f80a45f90815260046020526040902080546001600160a01b0319169091179055005b60405163a9fbf51f60e01b8152336004820152602490fd5b5060018060a01b0381165f52600560205260405f20335f5260205260ff60405f20541615611c43565b506001600160a01b038116331415611c3d565b346101fa5760203660031901126101fa57600435611d0d81612ab1565b505f526004602052602060018060a01b0360405f205416604051908152f35b346101fa575f3660031901126101fa576040515f80549082611d4d8361223e565b91828252602093600190856001821691825f146110ba575050600114611d7a575061104b92500383611fc5565b5f808052859250907f290decd9548b62a8d60345a988386fc84ba6bc95484008f6362f93160ef3e5635b858310611dbb57505061104b93508201018561103e565b80548389018501528794508693909201918101611da4565b346101fa575f3660031901126101fa576040517f00000000000000000000000000000000000000000000000000000000000000006001600160a01b03168152602090f35b346101fa5760203660031901126101fa576102f661117c60043561231b565b346101fa5760203660031901126101fa576004359063ffffffff60e01b82168092036101fa57602091637965db0b60e01b8114908115611e78575b5015158152f35b6380ac58cd60e01b811491508115611eaa575b8115611e99575b5083611e71565b6301ffc9a760e01b14905083611e92565b635b5e139f60e01b81149150611e8b565b805180835260209291819084018484015e5f828201840152601f01601f1916010190565b6020808201908083528351809252604092604081018260408560051b8401019601945f925b858410611f15575050505050505090565b909192939495968580611f52600193603f198682030188528b519083611f4283518a84528a840190611ebb565b9201519084818403910152611ebb565b990194019401929594939190611f04565b600435906001600160a01b03821682036101fa57565b602435906001600160a01b03821682036101fa57565b604081019081106001600160401b03821117610a2057604052565b602081019081106001600160401b03821117610a2057604052565b90601f801991011681019081106001600160401b03821117610a2057604052565b6001600160401b038111610a2057601f01601f191660200190565b92919261200d82611fe6565b9161201b6040519384611fc5565b8294818452818301116101fa578281602093845f960137010152565b9080601f830112156101fa5781602061205293359101612001565b90565b9181601f840112156101fa578235916001600160401b0383116101fa57602083818601950101116101fa57565b9060406003198301126101fa5760043591602435906001600160401b0382116101fa576120b191600401612055565b9091565b60609060031901126101fa576001600160a01b039060043582811681036101fa579160243590811681036101fa579060443590565b6020808201906020835283518092526040830192602060408460051b8301019501935f915b84831061211f5750505050505090565b909192939495848061213d600193603f198682030187528a51611ebb565b980193019301919493929061210f565b6001600160401b038111610a205760051b60200190565b909291926121718161214d565b916040916121826040519485611fc5565b839581855260208095019160051b8301938185116101fa5783925b8584106121ad5750505050505050565b6001600160401b039084358281116101fa5786019083828603126101fa5783516121d681611f8f565b82358481116101fa57866121eb918501612037565b8152898301359384116101fa57612206868b95869501612037565b8382015281520193019261219d565b805482101561222a575f5260205f2001905f90565b634e487b7160e01b5f52603260045260245ffd5b90600182811c9216801561226c575b602083101461225857565b634e487b7160e01b5f52602260045260245ffd5b91607f169161224d565b80545f93926122848261223e565b918282526020936001916001811690815f146122e857506001146122aa575b5050505050565b90939495505f92919252835f2092845f945b8386106122d457505050500101905f808080806122a3565b8054858701830152940193859082016122bc565b60ff19168685015250505090151560051b010191505f808080806122a3565b805182101561222a5760209160051b010190565b90815f526020600a8152604092835f20938454916123388361214d565b9161234581519384611fc5565b838352601f196123548561214d565b01855f5b8281106124705750505082965f5b8581106123765750505050505050565b6123808183612215565b50845f5260098852835f20886123968486612215565b508651925f9180546123a78161223e565b916001918083169081156124565750600114612420575b505050926113e892818360019897966124009552030190206113e86123f38951956123e887611f8f565b8a5192838092612276565b8452875192838092612276565b8982015261240e8288612307565b526124198187612307565b5001612366565b5f90815285812093945091925b83831061244357505050830190828460016123be565b8054878401528e9590920191810161242d565b60ff191688525050508015150284019150828460016123be565b835161247b81611f8f565b606080825283820152828288010152018690612358565b6020806113e893612052935f526009825260405f20604051938285935191829101845e82019081520301902060405192838092612276565b6001600160a01b039182169290918315610e9557815f52602092600284528260409583875f20541695331515806125bb575b506002908761258a575b825f5260038152885f2060018154019055835f5252865f20816bffffffffffffffffffffffff60a01b825416179055857fddf252ad1be2c89b69c2b068fc378daa952ba7f163c4a11628f55a4df523b3ef5f80a416928383036125695750505050565b6064945051926364283d7b60e01b8452600484015260248301526044820152fd5b5f84815260046020526040812080546001600160a01b03191690558881526003825289902080545f19019055612506565b919250908061260c575b156125d3579084915f6124fc565b8685876125f0576024915190637e27328960e01b82526004820152fd5b604491519063177e802f60e01b82523360048301526024820152fd5b503386148015612631575b806125c55750845f52600481523384885f205416146125c5565b50855f5260058152865f20335f52815260ff875f205416612617565b818110612658575050565b5f815560010161264d565b61266d815461223e565b9081612677575050565b81601f5f93116001146126895750555b565b9080839182526126a8601f60208420940160051c84016001850161264d565b5555565b90610a0d5761266d815461223e565b9190601f81116126ca57505050565b612687925f5260205f20906020601f840160051c830193106126f4575b601f0160051c019061264d565b90915081906126e7565b908082146127dd57612710815461223e565b906001600160401b038211610a20576127338261272d855461223e565b856126bb565b5f90601f831160011461276f5761276092915f91836127645750508160011b915f199060031b1c19161790565b9055565b015490505f80610b15565b90601f198316915f5260209160205f2090855f5260205f20935f905b8282106127c45750509084600195949392106127ac575b505050811b019055565b01545f1960f88460031b161c191690555f80806127a2565b849581929585015481556001809101960194019061278b565b5050565b91909182516001600160401b038111610a205761280881612802845461223e565b846126bb565b602080601f8311600114612844575081906127609394955f926128395750508160011b915f199060031b1c19161790565b015190505f80610b15565b90601f19831695845f5260205f20925f905b88821061288c5750508360019596971061287457505050811b019055565b01515f1960f88460031b161c191690555f80806127a2565b80600185968294968601518155019501930190612856565b5f526020600a60205260409060405f208054916128c08361214d565b936128ce6040519586611fc5565b83855260208501925f5260205f20905f935b8585106128f05750505050505090565b60018481928451612905816113e8818a612276565b8152019301940193916128e0565b356001600160401b03811681036101fa5790565b90359061017e19813603018212156101fa570190565b356001600160a01b03811681036101fa5790565b3561ffff811681036101fa5790565b903590601e19813603018212156101fa57018035906001600160401b0382116101fa57602001918160051b360383136101fa57565b903590601e19813603018212156101fa57018035906001600160401b0382116101fa576020019181360383136101fa57565b5f818152600260205260409020546001600160a01b031615612a33576129ef612a1691612a94565b604051906129fc82611f8f565b6008825267746f6b656e55524960c01b6020830152612492565b805115612a205790565b50604051612a2d81611faa565b5f815290565b60405162461bcd60e51b815260206004820152600a6024820152691b9bdd081b5a5b9d195960b21b6044820152606490fd5b612a8f92916020915f526009825260405f208360405194859384378201908152030190205461223e565b151590565b6040516020810191825260208152612aab81611f8f565b51902090565b5f818152600260205260409020546001600160a01b0316908115612ad3575090565b60249060405190637e27328960e01b82526004820152fd5b335f9081527f5eff886ea0ce6ca488a3d6e336d6c0f75f46d19b42c06ce5ee98e42c96d256c7602052604090205460ff1615612b2357565b60405163e2517d3f60e01b81523360048201525f6024820152604490fd5b805f52600860205260405f20335f5260205260ff60405f20541615612b635750565b6044906040519063e2517d3f60e01b82523360048301526024820152fd5b90815f52600860205260405f209060018060a01b031690815f5260205260ff60405f205416155f14612bf957815f52600860205260405f20815f5260205260405f20600160ff1982541617905533917f2f8788117e7eff1d82e926ec794901d17c78024a50270940304540a733656f0d5f80a4600190565b50505f90565b90815f52600860205260405f209060018060a01b031690815f5260205260ff60405f2054165f14612bf957815f52600860205260405f20815f5260205260405f2060ff19815416905533917ff6391f5c32d9c69d2a47ea670b442974b53935d1edc7fd64eb21e047a839171b5f80a4600190565b604080820191612c838382612927565b612c8c9061293d565b612c968483612927565b602001612ca29061293d565b83612cad8685612927565b0135612cb98685612927565b606001612cc59061293d565b9584612cd18282612927565b60800135612cdf8383612927565b60a0013590612cee8484612927565b60c00135612cfc8585612927565b60e001612d0890612913565b926101009081612d188888612927565b01612d2290612913565b938c6101209e8f612d338b8b612927565b013599610140998a91612d4591612927565b01612d4f90612951565b9a8251809e602082019e8f7fd4537d2cae13e89ffe46b9e65d1fb612145934b158c335a84a819f03205e86739052600160a01b60019003958680931690840152166060820152608001521660a08c015260c08b015260e08a01528801526001600160401b03998a8093169088015216908501526101608401526101809061ffff168184015282526101a082019180831086841117610a205761024091838652815190206020612dfd86612913565b95886101c08501977f036b00e958c97f6140b105fa9161b187af9c6fd71d67bb38a7f6cb65dc053c1d8952166101e0850152013561020083015261022082015260808352019381851090851117610a20576042938352519020612e5e613238565b91519161190160f01b8352600283015260228201522090565b9293909193843b612e89575050505050565b604051630a85bd0160e11b8082526001600160a01b039586166004830152938516602482015260448101919091526080606482015260209594909316939290859082908190612edc906084830190611ebb565b03815f885af15f9181612f80575b50612f49575050503d5f14612f41573d91612f0483611fe6565b92612f126040519485611fc5565b83523d5f8285013e5b82519283612f3c57604051633250574960e11b815260048101849052602490fd5b019050fd5b606091612f1b565b9193506001600160e01b031990911603612f6857505f808080806122a3565b60249060405190633250574960e11b82526004820152fd5b9091508581813d8311612fb9575b612f988183611fc5565b810103126101fa57516001600160e01b0319811681036101fa57905f612eea565b503d612f8e565b60ff8114612ffe5760ff811690601f8211612fec5760405191612fe283611f8f565b8252602082015290565b604051632cd44ac360e21b8152600490fd5b50604051600654815f6130108361223e565b8083529260209060019081811690811561309a575060011461303b575b505061205292500382611fc5565b91509260065f527ff652222313e28459528d920b65115c16c04f3efc82aaedc97be59f3f377c0d3f935f925b82841061308257506120529450505081016020015f8061302d565b85548785018301529485019486945092810192613067565b9150506020925061205294915060ff191682840152151560051b8201015f8061302d565b60ff81146130e05760ff811690601f8211612fec5760405191612fe283611f8f565b50604051600754815f6130f28361223e565b8083529260209060019081811690811561309a575060011461311c57505061205292500382611fc5565b91509260075f527fa66cc928b5edb82af9bd49922954155ab7b0942694bea4ce44661d9a8736c688935f925b82841061316357506120529450505081016020015f8061302d565b85548785018301529485019486945092810192613148565b81519190604183036131ab576131a49250602082015190606060408401519301515f1a90613362565b9192909190565b50505f9160029190565b600481101561322457806131c7575050565b600181036131e15760405163f645eedf60e01b8152600490fd5b600281036132025760405163fce698f760e01b815260048101839052602490fd5b60031461320c5750565b602490604051906335e2f38360e21b82526004820152fd5b634e487b7160e01b5f52602160045260245ffd5b307f00000000000000000000000000000000000000000000000000000000000000006001600160a01b03161480613339575b15613293577f000000000000000000000000000000000000000000000000000000000000000090565b60405160208101907f8b73c3c69bb8fe3d512ecc4cf759cc79239f7b179b0ffacaa9a75d522b39400f82527f000000000000000000000000000000000000000000000000000000000000000060408201527f000000000000000000000000000000000000000000000000000000000000000060608201524660808201523060a082015260a0815260c081018181106001600160401b03821117610a205760405251902090565b507f0000000000000000000000000000000000000000000000000000000000000000461461326a565b91907f7fffffffffffffffffffffffffffffff5d576e7357a4501ddfe92f46681b20a084116133d9579160209360809260ff5f9560405194855216868401526040830152606082015282805260015afa15610f91575f516001600160a01b038116156133cf57905f905f90565b505f906001905f90565b5050505f916003919056fec42c4edbc41dce02b01dd098a1f7a4c685c638d7a2fdfbe449b32e1f89fbfae1a2646970667358221220fdf6ae337a4f8d8ddde28c6765d6cde2e38bea95aae2610dda3c468e23a4f88b64736f6c63430008190033290decd9548b62a8d60345a988386fc84ba6bc95484008f6362f93160ef3e5635eff886ea0ce6ca488a3d6e336d6c0f75f46d19b42c06ce5ee98e42c96d256c7b10e2d527612073b26eecdfd717e6a320cf44b4afac2b0732d9fcbe2b7fa0cf6","linkReferences":{}},"methodIdentifiers":{"DEFAULT_ADMIN_ROLE()":"a217fddf","REGISTRY()":"06433b1b","approve(address,uint256)":"095ea7b3","balanceOf(address)":"70a08231","eip712Domain()":"84b0196e","getAllMetadata(bytes32)":"05daf368","getAllMetadata(uint256)":"8c5acee7","getAllMetadataKeys(bytes32)":"5cb0e05a","getApproved(uint256)":"081812fc","getMetadata(bytes32,string)":"0e1ae91b","getMetadata(uint256,string)":"cb4799f2","getMetadataCount(bytes32)":"5e597156","getMetadataCount(uint256)":"93e3f3b0","getMetadataKeys(uint256)":"2b679e30","getRoleAdmin(bytes32)":"248a9ca3","getTokenIdHash(uint256)":"ff74ef30","grantRole(bytes32,address)":"2f2ff15d","hasMetadata(bytes32,string)":"e5e0a25d","hasMetadata(uint256,string)":"13d37550","hasRole(bytes32,address)":"91d14854","hashLeaseIntent((uint64,bytes32,(address,address,uint256,address,uint256,uint256,uint256,uint64,uint64,bytes32,uint16,(string,string)[])))":"4547bd64","isApprovedForAll(address,address)":"e985e9c5","leaseId()":"30c79cfe","leases(uint256)":"8927a106","mintLease((uint64,bytes32,(address,address,uint256,address,uint256,uint256,uint256,uint64,uint64,bytes32,uint16,(string,string)[])),bytes,bytes)":"9af66ccd","name()":"06fdde03","ownerOf(uint256)":"6352211e","removeMetadata(bytes32,string)":"26f389ba","removeMetadata(uint256,string)":"7577d428","renounceRole(bytes32,address)":"36568abe","revokeRole(bytes32,address)":"d547741f","safeTransferFrom(address,address,uint256)":"42842e0e","safeTransferFrom(address,address,uint256,bytes)":"b88d4fde","setApprovalForAll(address,bool)":"a22cb465","setMetadata(bytes32,(string,string)[])":"3b41f4ea","setMetadata(uint256,(string,string)[])":"236b8eb3","supportsInterface(bytes4)":"01ffc9a7","symbol()":"95d89b41","tokenURI(uint256)":"c87b56dd","transferFrom(address,address,uint256)":"23b872dd"},"id":33}