{"abi":[{"type":"constructor","inputs":[{"name":"admin","type":"address","internalType":"address"},{"name":"assetRegistry","type":"address","internalType":"address"}],"stateMutability":"nonpayable"},{"type":"function","name":"DEFAULT_ADMIN_ROLE","inputs":[],"outputs":[{"name":"","type":"bytes32","internalType":"bytes32"}],"stateMutability":"view"},{"type":"function","name":"REGISTRY","inputs":[],"outputs":[{"name":"","type":"address","internalType":"contract AssetRegistry"}],"stateMutability":"view"},{"type":"function","name":"approve","inputs":[{"name":"to","type":"address","internalType":"address"},{"name":"tokenId","type":"uint256","internalType":"uint256"}],"outputs":[],"stateMutability":"nonpayable"},{"type":"function","name":"balanceOf","inputs":[{"name":"owner","type":"address","internalType":"address"}],"outputs":[{"name":"","type":"uint256","internalType":"uint256"}],"stateMutability":"view"},{"type":"function","name":"eip712Domain","inputs":[],"outputs":[{"name":"fields","type":"bytes1","internalType":"bytes1"},{"name":"name","type":"string","internalType":"string"},{"name":"version","type":"string","internalType":"string"},{"name":"chainId","type":"uint256","internalType":"uint256"},{"name":"verifyingContract","type":"address","internalType":"address"},{"name":"salt","type":"bytes32","internalType":"bytes32"},{"name":"extensions","type":"uint256[]","internalType":"uint256[]"}],"stateMutability":"view"},{"type":"function","name":"getAllMetadata","inputs":[{"name":"hash","type":"bytes32","internalType":"bytes32"}],"outputs":[{"name":"metadata","type":"tuple[]","internalType":"struct MetadataStorage.Metadata[]","components":[{"name":"key","type":"string","internalType":"string"},{"name":"value","type":"string","internalType":"string"}]}],"stateMutability":"view"},{"type":"function","name":"getAllMetadata","inputs":[{"name":"tokenId","type":"uint256","internalType":"uint256"}],"outputs":[{"name":"metadata","type":"tuple[]","internalType":"struct MetadataStorage.Metadata[]","components":[{"name":"key","type":"string","internalType":"string"},{"name":"value","type":"string","internalType":"string"}]}],"stateMutability":"view"},{"type":"function","name":"getAllMetadataKeys","inputs":[{"name":"hash","type":"bytes32","internalType":"bytes32"}],"outputs":[{"name":"keys","type":"string[]","internalType":"string[]"}],"stateMutability":"view"},{"type":"function","name":"getApproved","inputs":[{"name":"tokenId","type":"uint256","internalType":"uint256"}],"outputs":[{"name":"","type":"address","internalType":"address"}],"stateMutability":"view"},{"type":"function","name":"getMetadata","inputs":[{"name":"hash","type":"bytes32","internalType":"bytes32"},{"name":"key","type":"string","internalType":"string"}],"outputs":[{"name":"value","type":"string","internalType":"string"}],"stateMutability":"view"},{"type":"function","name":"getMetadata","inputs":[{"name":"tokenId","type":"uint256","internalType":"uint256"},{"name":"key","type":"string","internalType":"string"}],"outputs":[{"name":"value","type":"string","internalType":"string"}],"stateMutability":"view"},{"type":"function","name":"getMetadataCount","inputs":[{"name":"hash","type":"bytes32","internalType":"bytes32"}],"outputs":[{"name":"count","type":"uint256","internalType":"uint256"}],"stateMutability":"view"},{"type":"function","name":"getMetadataCount","inputs":[{"name":"tokenId","type":"uint256","internalType":"uint256"}],"outputs":[{"name":"count","type":"uint256","internalType":"uint256"}],"stateMutability":"view"},{"type":"function","name":"getMetadataKeys","inputs":[{"name":"tokenId","type":"uint256","internalType":"uint256"}],"outputs":[{"name":"keys","type":"string[]","internalType":"string[]"}],"stateMutability":"view"},{"type":"function","name":"getRoleAdmin","inputs":[{"name":"role","type":"bytes32","internalType":"bytes32"}],"outputs":[{"name":"","type":"bytes32","internalType":"bytes32"}],"stateMutability":"view"},{"type":"function","name":"getTokenIdHash","inputs":[{"name":"tokenId","type":"uint256","internalType":"uint256"}],"outputs":[{"name":"hash","type":"bytes32","internalType":"bytes32"}],"stateMutability":"pure"},{"type":"function","name":"grantRole","inputs":[{"name":"role","type":"bytes32","internalType":"bytes32"},{"name":"account","type":"address","internalType":"address"}],"outputs":[],"stateMutability":"nonpayable"},{"type":"function","name":"hasMetadata","inputs":[{"name":"tokenId","type":"uint256","internalType":"uint256"},{"name":"key","type":"string","internalType":"string"}],"outputs":[{"name":"exists","type":"bool","internalType":"bool"}],"stateMutability":"view"},{"type":"function","name":"hasMetadata","inputs":[{"name":"hash","type":"bytes32","internalType":"bytes32"},{"name":"key","type":"string","internalType":"string"}],"outputs":[{"name":"exists","type":"bool","internalType":"bool"}],"stateMutability":"view"},{"type":"function","name":"hasRole","inputs":[{"name":"role","type":"bytes32","internalType":"bytes32"},{"name":"account","type":"address","internalType":"address"}],"outputs":[{"name":"","type":"bool","internalType":"bool"}],"stateMutability":"view"},{"type":"function","name":"hashLeaseIntent","inputs":[{"name":"L","type":"tuple","internalType":"struct LeaseFactory.LeaseIntent","components":[{"name":"deadline","type":"uint64","internalType":"uint64"},{"name":"assetTypeSchemaHash","type":"bytes32","internalType":"bytes32"},{"name":"lease","type":"tuple","internalType":"struct LeaseFactory.Lease","components":[{"name":"lessor","type":"address","internalType":"address"},{"name":"lessee","type":"address","internalType":"address"},{"name":"assetId","type":"uint256","internalType":"uint256"},{"name":"paymentToken","type":"address","internalType":"address"},{"name":"rentAmount","type":"uint256","internalType":"uint256"},{"name":"rentPeriod","type":"uint256","internalType":"uint256"},{"name":"securityDeposit","type":"uint256","internalType":"uint256"},{"name":"startTime","type":"uint64","internalType":"uint64"},{"name":"endTime","type":"uint64","internalType":"uint64"},{"name":"legalDocHash","type":"bytes32","internalType":"bytes32"},{"name":"termsVersion","type":"uint16","internalType":"uint16"},{"name":"metadata","type":"tuple[]","internalType":"struct MetadataStorage.Metadata[]","components":[{"name":"key","type":"string","internalType":"string"},{"name":"value","type":"string","internalType":"string"}]}]}]}],"outputs":[{"name":"","type":"bytes32","internalType":"bytes32"}],"stateMutability":"view"},{"type":"function","name":"isApprovedForAll","inputs":[{"name":"owner","type":"address","internalType":"address"},{"name":"operator","type":"address","internalType":"address"}],"outputs":[{"name":"","type":"bool","internalType":"bool"}],"stateMutability":"view"},{"type":"function","name":"leaseId","inputs":[],"outputs":[{"name":"","type":"uint256","internalType":"uint256"}],"stateMutability":"view"},{"type":"function","name":"leases","inputs":[{"name":"","type":"uint256","internalType":"uint256"}],"outputs":[{"name":"lessor","type":"address","internalType":"address"},{"name":"lessee","type":"address","internalType":"address"},{"name":"assetId","type":"uint256","internalType":"uint256"},{"name":"paymentToken","type":"address","internalType":"address"},{"name":"rentAmount","type":"uint256","internalType":"uint256"},{"name":"rentPeriod","type":"uint256","internalType":"uint256"},{"name":"securityDeposit","type":"uint256","internalType":"uint256"},{"name":"startTime","type":"uint64","internalType":"uint64"},{"name":"endTime","type":"uint64","internalType":"uint64"},{"name":"legalDocHash","type":"bytes32","internalType":"bytes32"},{"name":"termsVersion","type":"uint16","internalType":"uint16"}],"stateMutability":"view"},{"type":"function","name":"mintLease","inputs":[{"name":"L","type":"tuple","internalType":"struct LeaseFactory.LeaseIntent","components":[{"name":"deadline","type":"uint64","internalType":"uint64"},{"name":"assetTypeSchemaHash","type":"bytes32","internalType":"bytes32"},{"name":"lease","type":"tuple","internalType":"struct LeaseFactory.Lease","components":[{"name":"lessor","type":"address","internalType":"address"},{"name":"lessee","type":"address","internalType":"address"},{"name":"assetId","type":"uint256","internalType":"uint256"},{"name":"paymentToken","type":"address","internalType":"address"},{"name":"rentAmount","type":"uint256","internalType":"uint256"},{"name":"rentPeriod","type":"uint256","internalType":"uint256"},{"name":"securityDeposit","type":"uint256","internalType":"uint256"},{"name":"startTime","type":"uint64","internalType":"uint64"},{"name":"endTime","type":"uint64","internalType":"uint64"},{"name":"legalDocHash","type":"bytes32","internalType":"bytes32"},{"name":"termsVersion","type":"uint16","internalType":"uint16"},{"name":"metadata","type":"tuple[]","internalType":"struct MetadataStorage.Metadata[]","components":[{"name":"key","type":"string","internalType":"string"},{"name":"value","type":"string","internalType":"string"}]}]}]},{"name":"sigLessor","type":"bytes","internalType":"bytes"},{"name":"sigLessee","type":"bytes","internalType":"bytes"}],"outputs":[{"name":"tokenId","type":"uint256","internalType":"uint256"}],"stateMutability":"nonpayable"},{"type":"function","name":"name","inputs":[],"outputs":[{"name":"","type":"string","internalType":"string"}],"stateMutability":"view"},{"type":"function","name":"ownerOf","inputs":[{"name":"tokenId","type":"uint256","internalType":"uint256"}],"outputs":[{"name":"","type":"address","internalType":"address"}],"stateMutability":"view"},{"type":"function","name":"removeMetadata","inputs":[{"name":"hash","type":"bytes32","internalType":"bytes32"},{"name":"key","type":"string","internalType":"string"}],"outputs":[],"stateMutability":"nonpayable"},{"type":"function","name":"removeMetadata","inputs":[{"name":"tokenId","type":"uint256","internalType":"uint256"},{"name":"key","type":"string","internalType":"string"}],"outputs":[],"stateMutability":"nonpayable"},{"type":"function","name":"renounceRole","inputs":[{"name":"role","type":"bytes32","internalType":"bytes32"},{"name":"callerConfirmation","type":"address","internalType":"address"}],"outputs":[],"stateMutability":"nonpayable"},{"type":"function","name":"revokeRole","inputs":[{"name":"role","type":"bytes32","internalType":"bytes32"},{"name":"account","type":"address","internalType":"address"}],"outputs":[],"stateMutability":"nonpayable"},{"type":"function","name":"safeTransferFrom","inputs":[{"name":"from","type":"address","internalType":"address"},{"name":"to","type":"address","internalType":"address"},{"name":"tokenId","type":"uint256","internalType":"uint256"}],"outputs":[],"stateMutability":"nonpayable"},{"type":"function","name":"safeTransferFrom","inputs":[{"name":"from","type":"address","internalType":"address"},{"name":"to","type":"address","internalType":"address"},{"name":"tokenId","type":"uint256","internalType":"uint256"},{"name":"data","type":"bytes","internalType":"bytes"}],"outputs":[],"stateMutability":"nonpayable"},{"type":"function","name":"setApprovalForAll","inputs":[{"name":"operator","type":"address","internalType":"address"},{"name":"approved","type":"bool","internalType":"bool"}],"outputs":[],"stateMutability":"nonpayable"},{"type":"function","name":"setMetadata","inputs":[{"name":"tokenId","type":"uint256","internalType":"uint256"},{"name":"metadata_","type":"tuple[]","internalType":"struct MetadataStorage.Metadata[]","components":[{"name":"key","type":"string","internalType":"string"},{"name":"value","type":"string","internalType":"string"}]}],"outputs":[],"stateMutability":"nonpayable"},{"type":"function","name":"setMetadata","inputs":[{"name":"hash","type":"bytes32","internalType":"bytes32"},{"name":"metadata_","type":"tuple[]","internalType":"struct MetadataStorage.Metadata[]","components":[{"name":"key","type":"string","internalType":"string"},{"name":"value","type":"string","internalType":"string"}]}],"outputs":[],"stateMutability":"nonpayable"},{"type":"function","name":"supportsInterface","inputs":[{"name":"interfaceId","type":"bytes4","internalType":"bytes4"}],"outputs":[{"name":"","type":"bool","internalType":"bool"}],"stateMutability":"view"},{"type":"function","name":"symbol","inputs":[],"outputs":[{"name":"","type":"string","internalType":"string"}],"stateMutability":"view"},{"type":"function","name":"tokenURI","inputs":[{"name":"tokenId","type":"uint256","internalType":"uint256"}],"outputs":[{"name":"","type":"string","internalType":"string"}],"stateMutability":"view"},{"type":"function","name":"transferFrom","inputs":[{"name":"from","type":"address","internalType":"address"},{"name":"to","type":"address","internalType":"address"},{"name":"tokenId","type":"uint256","internalType":"uint256"}],"outputs":[],"stateMutability":"nonpayable"},{"type":"event","name":"Approval","inputs":[{"name":"owner","type":"address","indexed":true,"internalType":"address"},{"name":"approved","type":"address","indexed":true,"internalType":"address"},{"name":"tokenId","type":"uint256","indexed":true,"internalType":"uint256"}],"anonymous":false},{"type":"event","name":"ApprovalForAll","inputs":[{"name":"owner","type":"address","indexed":true,"internalType":"address"},{"name":"operator","type":"address","indexed":true,"internalType":"address"},{"name":"approved","type":"bool","indexed":false,"internalType":"bool"}],"anonymous":false},{"type":"event","name":"EIP712DomainChanged","inputs":[],"anonymous":false},{"type":"event","name":"LeaseMinted","inputs":[{"name":"tokenId","type":"uint256","indexed":true,"internalType":"uint256"},{"name":"lessor","type":"address","indexed":true,"internalType":"address"},{"name":"lessee","type":"address","indexed":true,"internalType":"address"},{"name":"assetId","type":"uint256","indexed":false,"internalType":"uint256"}],"anonymous":false},{"type":"event","name":"MetadataRemoved","inputs":[{"name":"hash","type":"bytes32","indexed":true,"internalType":"bytes32"},{"name":"key","type":"string","indexed":false,"internalType":"string"}],"anonymous":false},{"type":"event","name":"MetadataUpdated","inputs":[{"name":"hash","type":"bytes32","indexed":true,"internalType":"bytes32"},{"name":"key","type":"string","indexed":false,"internalType":"string"},{"name":"value","type":"string","indexed":false,"internalType":"string"}],"anonymous":false},{"type":"event","name":"RoleAdminChanged","inputs":[{"name":"role","type":"bytes32","indexed":true,"internalType":"bytes32"},{"name":"previousAdminRole","type":"bytes32","indexed":true,"internalType":"bytes32"},{"name":"newAdminRole","type":"bytes32","indexed":true,"internalType":"bytes32"}],"anonymous":false},{"type":"event","name":"RoleGranted","inputs":[{"name":"role","type":"bytes32","indexed":true,"internalType":"bytes32"},{"name":"account","type":"address","indexed":true,"internalType":"address"},{"name":"sender","type":"address","indexed":true,"internalType":"address"}],"anonymous":false},{"type":"event","name":"RoleRevoked","inputs":[{"name":"role","type":"bytes32","indexed":true,"internalType":"bytes32"},{"name":"account","type":"address","indexed":true,"internalType":"address"},{"name":"sender","type":"address","indexed":true,"internalType":"address"}],"anonymous":false},{"type":"event","name":"Transfer","inputs":[{"name":"from","type":"address","indexed":true,"internalType":"address"},{"name":"to","type":"address","indexed":true,"internalType":"address"},{"name":"tokenId","type":"uint256","indexed":true,"internalType":"uint256"}],"anonymous":false},{"type":"error","name":"AccessControlBadConfirmation","inputs":[]},{"type":"error","name":"AccessControlUnauthorizedAccount","inputs":[{"name":"account","type":"address","internalType":"address"},{"name":"neededRole","type":"bytes32","internalType":"bytes32"}]},{"type":"error","name":"ECDSAInvalidSignature","inputs":[]},{"type":"error","name":"ECDSAInvalidSignatureLength","inputs":[{"name":"length","type":"uint256","internalType":"uint256"}]},{"type":"error","name":"ECDSAInvalidSignatureS","inputs":[{"name":"s","type":"bytes32","internalType":"bytes32"}]},{"type":"error","name":"ERC721IncorrectOwner","inputs":[{"name":"sender","type":"address","internalType":"address"},{"name":"tokenId","type":"uint256","internalType":"uint256"},{"name":"owner","type":"address","internalType":"address"}]},{"type":"error","name":"ERC721InsufficientApproval","inputs":[{"name":"operator","type":"address","internalType":"address"},{"name":"tokenId","type":"uint256","internalType":"uint256"}]},{"type":"error","name":"ERC721InvalidApprover","inputs":[{"name":"approver","type":"address","internalType":"address"}]},{"type":"error","name":"ERC721InvalidOperator","inputs":[{"name":"operator","type":"address","internalType":"address"}]},{"type":"error","name":"ERC721InvalidOwner","inputs":[{"name":"owner","type":"address","internalType":"address"}]},{"type":"error","name":"ERC721InvalidReceiver","inputs":[{"name":"receiver","type":"address","internalType":"address"}]},{"type":"error","name":"ERC721InvalidSender","inputs":[{"name":"sender","type":"address","internalType":"address"}]},{"type":"error","name":"ERC721NonexistentToken","inputs":[{"name":"tokenId","type":"uint256","internalType":"uint256"}]},{"type":"error","name":"InvalidShortString","inputs":[]},{"type":"error","name":"StringTooLong","inputs":[{"name":"str","type":"string","internalType":"string"}]}],"bytecode":{"object":"0x610180346104a957601f613cc438819003918201601f19168301916001600160401b038311848410176102c65780849260409485528339810103126104a957610053602061004c836104c8565b92016104c8565b9060405191610061836104ad565b601483527f41737365744c656173696e6750726f746f636f6c000000000000000000000000602084015260405192610098846104ad565b60018452603160f81b60208501526040516100b2816104ad565b600f81526e1319585cd9481059dc99595b595b9d608a1b6020820152604051906100db826104ad565b60058252644c4541534560d81b60208301528051906001600160401b0382116102c6575f5490600182811c9216801561049f575b60208310146103b15781601f849311610448575b50602090601f83116001146103da575f926103cf575b50508160011b915f199060031b1c1916175f555b8051906001600160401b0382116102c65760015490600182811c921680156103c5575b60208310146103b15781601f849311610356575b50602090601f83116001146102e5575f926102da575b50508160011b915f199060031b1c1916176001555b6101b88161055b565b926101209384526101c8856106e3565b9161014092835260208151910120948560e0526020815191012090610100958287524660a0526040519260208401917f8b73c3c69bb8fe3d512ecc4cf759cc79239f7b179b0ffacaa9a75d522b39400f8352604085015260608401524660808401523060a084015260a0835260c083019280841060018060401b038511176102c65761026e936040525190206080523060c0526101609360018060a01b031684526104dc565b5060405192613444948561082086396080518561327b015260a05185613346015260c05185613245015260e051856132ca015251846132f00152518361125e0152518261128701525181818161053e0152611df20152f35b634e487b7160e01b5f52604160045260245ffd5b015190505f8061019a565b60015f9081525f80516020613ca48339815191529350601f198516905b81811061033e5750908460019594939210610326575b505050811b016001556101af565b01515f1960f88460031b161c191690555f8080610318565b92936020600181928786015181550195019301610302565b60015f529091505f80516020613ca4833981519152601f840160051c810191602085106103a7575b90601f859493920160051c01905b8181106103995750610184565b5f815584935060010161038c565b909150819061037e565b634e487b7160e01b5f52602260045260245ffd5b91607f1691610170565b015190505f80610139565b5f8080525f80516020613c648339815191529350601f198516905b8181106104305750908460019594939210610418575b505050811b015f5561014d565b01515f1960f88460031b161c191690555f808061040b565b929360206001819287860151815501950193016103f5565b5f80529091505f80516020613c64833981519152601f840160051c810160208510610498575b90849392915b601f830160051c8201811061048a575050610123565b5f8155859450600101610474565b508061046e565b91607f169161010f565b5f80fd5b604081019081106001600160401b038211176102c657604052565b51906001600160a01b03821682036104a957565b6001600160a01b03165f8181525f80516020613c84833981519152602052604090205460ff16610556575f8181525f80516020613c8483398151915260205260408120805460ff191660011790553391907f2f8788117e7eff1d82e926ec794901d17c78024a50270940304540a733656f0d8180a4600190565b505f90565b8051602090818110156105d15750601f825111610593578082519201519080831061058557501790565b825f19910360031b1b161790565b60448260405192839163305a27a960e01b83528160048401528051918291826024860152018484015e5f828201840152601f01601f19168101030190fd5b906001600160401b0382116102c657600654926001938481811c911680156106d9575b838210146103b157601f81116106a5575b5081601f841160011461064157509282939183925f94610636575b50501b915f199060031b1c19161760065560ff90565b015192505f80610620565b919083601f19811660065f52845f20945f905b8883831061068b5750505010610673575b505050811b0160065560ff90565b01515f1960f88460031b161c191690555f8080610665565b858701518855909601959485019487935090810190610654565b60065f5284601f845f20920160051c820191601f860160051c015b8281106106ce575050610605565b5f81550185906106c0565b90607f16906105f4565b80516020908181101561070d5750601f825111610593578082519201519080831061058557501790565b906001600160401b0382116102c657600754926001938481811c91168015610815575b838210146103b157601f81116107e1575b5081601f841160011461077d57509282939183925f94610772575b50501b915f199060031b1c19161760075560ff90565b015192505f8061075c565b919083601f19811660075f52845f20945f905b888383106107c757505050106107af575b505050811b0160075560ff90565b01515f1960f88460031b161c191690555f80806107a1565b858701518855909601959485019487935090810190610790565b60075f5284601f845f20920160051c820191601f860160051c015b82811061080a575050610741565b5f81550185906107fc565b90607f169061073056fe6080806040526004361015610012575f80fd5b5f3560e01c90816301ffc9a714611e405750806305daf36814611e2157806306433b1b14611ddd57806306fdde0314611d36578063081812fc14611cfa578063095ea7b314611c195780630e1ae91b14611bad57806313d3755014611b8a578063236b8eb3146119db57806323b872dd146119c4578063248a9ca31461199757806326f389ba146118dd5780632b679e30146118b65780632f2ff15d1461187957806330c79cfe1461185c57806336568abe146118155780633b41f4ea1461168757806342842e0e1461165a5780634547bd641461161c5780635cb0e05a146115f15780635e597156146115c75780636352211e1461159757806370a08231146115415780637577d4281461133c57806384b0196e146112465780638927a106146111925780638c5acee71461115f57806391d148541461111657806393e3f3b0146110e457806395d89b41146110065780639af66ccd1461043f578063a217fddf14610425578063a22cb46514610384578063b88d4fde14610319578063c87b56dd146102fa578063cb4799f2146102b2578063d547741f14610273578063e5e0a25d14610250578063e985e9c5146101fe5763ff74ef30146101d4575f80fd5b346101fa5760203660031901126101fa5760206101f26004356129db565b604051908152f35b5f80fd5b346101fa5760403660031901126101fa57610217611f6d565b61021f611f83565b9060018060a01b038091165f52600560205260405f2091165f52602052602060ff60405f2054166040519015158152f35b346101fa5760206102696102633661208c565b916129ac565b6040519015158152f35b346101fa5760403660031901126101fa576102b0600435610292611f83565b90805f5260086020526102ab600160405f200154612a88565b612b46565b005b346101fa576102f66102e26102d46102dc6102cc3661208c565b9390916129db565b92369161200b565b9061249c565b604051918291602083526020830190611ec5565b0390f35b346101fa5760203660031901126101fa576102f66102e260043561290e565b346101fa5760803660031901126101fa57610332611f6d565b61033a611f83565b90604435606435926001600160401b0384116101fa57366023850112156101fa576103726102b094369060248160040135910161200b565b9261037e8383836124d4565b33612e81565b346101fa5760403660031901126101fa5761039d611f6d565b602435908115158092036101fa576001600160a01b031690811561040c57335f52600560205260405f20825f5260205260405f2060ff1981541660ff83161790556040519081527f17307eab39ab6107e8899845ad3d59bd9653f200f220920489ca2b5937696c3160203392a3005b604051630b61174360e31b815260048101839052602490fd5b346101fa575f3660031901126101fa5760206040515f8152f35b346101fa576003196060368201126101fa57600435906001600160401b0382116101fa5760609082360301126101fa576024356001600160401b0381116101fa5761048e90369060040161205f565b906044356001600160401b0381116101fa576104ae90369060040161205f565b9290916001600160401b036104c58660040161285a565b164211610fd7576104e760e06104e1604488018860040161286e565b0161285a565b6001600160401b03806105066101006104e160448b018b60040161286e565b1691161015610f9c576040610521604487018760040161286e565b60405163518e2bdd60e01b815291013560048201526020816024817f00000000000000000000000000000000000000000000000000000000000000006001600160a01b03165afa908115610f91575f91610f56575b5015610f21576105a061059a6105a99261059288600401612c7d565b94369161200b565b83613185565b909291926131bf565b6001600160a01b036105c96105c4604488016004890161286e565b612884565b166001600160a01b0390911603610ee7576105ec6105a0926105f294369161200b565b90613185565b6001600160a01b03610615602061060f604486016004870161286e565b01612884565b166001600160a01b0390911603610ead57600b545f198114610cf35760018101600b5561064d602061060f604485018560040161286e565b9160405161065a81611fb4565b5f81526001600160a01b03841615610e95575f838152600260205260409020546001600160a01b031680610e62575b6001600160a01b0385165f818152600360209081526040808320805460010190558783526002909152812080546001600160a01b0319168317905585919083907fddf252ad1be2c89b69c2b068fc378daa952ba7f163c4a11628f55a4df523b3ef9080a4610e4a57833b610d07575b5090915061070c604482018260040161286e565b5f838152600c6020526040902090610845906001600160a01b0361072f82612884565b84546001600160a01b0319169116178355600183016001600160a01b0361075860208401612884565b82546001600160a01b031916911617905560408101356002840155600383016001600160a01b0361078b60608401612884565b82546001600160a01b03191691161790556080810135600484015560a0810135600584015560c08101356006840155600783016001600160401b036107d260e0840161285a565b168154906fffffffffffffffff00000000000000006107f4610100860161285a565b60401b16916fffffffffffffffffffffffffffffffff19161717905561012081013560088401556009830161ffff61082f6101408401612898565b1661ffff198254161790556101608101906128a7565b90600160401b8211610a2057600a83015482600a850155808310610c98575b5091600a8391015f5260205f20925f915b838310610ab757868660405160208101908382526020815261089681611f99565b5190206108c16108ba6108af604485018560040161286e565b6101608101906128a7565b369161216e565b926108ca612a32565b5f5b8451811015610a3457825f52600960205261091160208060405f206108f1858a612311565b515190604051938285935191829101845e82019081520301902054612248565b1561095c60206109218489612311565b510151855f52600960205260208060405f2061093d878c612311565b515190604051938285935191829101845e820190815203019020612bba565b6109bf575b80835f805160206133ef8339815191526109a86109806001958a612311565b51516109b66020610991878d612311565b510151604051938493604085526040850190611ec5565b908382036020850152611ec5565b0390a2016108cc565b825f52600a60205260405f20906109d68187612311565b5151918054600160401b811015610a20576109f69160018201815561221f565b610a0d57600192610a0691612bba565b9050610961565b634e487b7160e01b5f525f60045260245ffd5b634e487b7160e01b5f52604160045260245ffd5b60208285610a4b6105c4604483018360040161286e565b90827fefe2f746143aa1d2f03b11088ab609d0d5fd98fa818fa1da44c1874718665cf9856040610a96610a888361060f604489018960040161286e565b95604481019060040161286e565b60405191013581526001600160a01b039485169590941693a4604051908152f35b8035603e19833603018112156101fa57610ad3838201806128dc565b906001600160401b038211610a2057610af682610af08a54612248565b8a6126c5565b5f90601f8311600114610c2e579180610b2992610b3895945f92610c23575b50508160011b915f199060031b1c19161790565b87555b830160208101906128dc565b906001600160401b038211610a2057610b6182610b5860018a0154612248565b60018a016126c5565b5f90601f8311600114610bb25792610b96836002946020946001975f92610ba75750508160011b915f199060031b1c19161790565b848901555b01950192019193610875565b013590508d80610b15565b600188015f5260205f20915f5b601f1985168110610c0b575083602093600196938793600297601f19811610610bf2575b505050811b0184890155610b9b565b01355f19600384901b60f8161c191690558c8080610be3565b90926020600181928686013581550194019101610bbf565b013590508c80610b15565b885f5260205f20915f5b601f1985168110610c805750918391600193610b389695601f19811610610c67575b505050811b018755610b2c565b01355f19600384901b60f8161c191690558b8080610c5a565b90926020600181928686013581550194019101610c38565b6001600160ff1b038181168203610cf35783168303610cf357600a84015f5260205f208360011b81015b8260011b82018110610cd5575050610864565b80610ce160029261266d565b610ced6001820161266d565b01610cc2565b634e487b7160e01b5f52601160045260245ffd5b6020610d419160405180938192630a85bd0160e11b83523360048401525f6024840152876044840152608060648401526084830190611ec5565b03815f6001600160a01b0389165af15f9181610e05575b50610dbf57833d15610db7573d90610d6f82611ff0565b91610d7d6040519384611fcf565b82523d5f602084013e5b81519182610db057604051633250574960e11b81526001600160a01b0383166004820152602490fd5b6020915001fd5b606090610d87565b919290916001600160e01b03191663757a42ff60e11b01610de357508190836106f8565b604051633250574960e11b81526001600160a01b039091166004820152602490fd5b9091506020813d602011610e42575b81610e2160209383611fcf565b810103126101fa57516001600160e01b0319811681036101fa579085610d58565b3d9150610e14565b6040516339e3563760e11b81525f6004820152602490fd5b5f84815260046020526040902080546001600160a01b0319169055805f52600360205260405f205f198154019055610689565b604051633250574960e11b81525f6004820152602490fd5b60405162461bcd60e51b81526020600482015260126024820152711b195cdcd959481cda59c81a5b9d985b1a5960721b6044820152606490fd5b60405162461bcd60e51b81526020600482015260126024820152711b195cdcdbdc881cda59c81a5b9d985b1a5960721b6044820152606490fd5b60405162461bcd60e51b815260206004820152600d60248201526c6173736574202165786973747360981b6044820152606490fd5b90506020813d602011610f89575b81610f7160209383611fcf565b810103126101fa575180151581036101fa5786610576565b3d9150610f64565b6040513d5f823e3d90fd5b60405162461bcd60e51b8152602060048201526013602482015272737461727454696d65203e20656e6454696d6560681b6044820152606490fd5b60405162461bcd60e51b8152602060048201526007602482015266195e1c1a5c995960ca1b6044820152606490fd5b346101fa575f3660031901126101fa576040515f6001826001549261102a84612248565b92838352602094856001821691825f146110c4575050600114611069575b5061105592500383611fcf565b6102f6604051928284938452830190611ec5565b84915060015f527fb10e2d527612073b26eecdfd717e6a320cf44b4afac2b0732d9fcbe2b7fa0cf6905f915b8583106110ac575050611055935082010185611048565b80548389018501528794508693909201918101611095565b60ff19168582015261105595151560051b85010192508791506110489050565b346101fa5760203660031901126101fa576111006004356129db565b5f52600a602052602060405f2054604051908152f35b346101fa5760403660031901126101fa5761112f611f83565b6004355f52600860205260405f209060018060a01b03165f52602052602060ff60405f2054166040519015158152f35b346101fa5760203660031901126101fa576102f66111866111816004356129db565b612325565b60405191829182611ee9565b346101fa5760203660031901126101fa576004355f52600c60205261016060405f2060018060a01b0380825416918160018201541691600282015490600383015416600483015460058401546006850154916007860154936001600160401b039561ffff600960088a015499015416986040519a8b5260208b015260408a01526060890152608088015260a087015260c086015281811660e086015260401c16610100840152610120830152610140820152f35b346101fa575f3660031901126101fa576112df6112827f0000000000000000000000000000000000000000000000000000000000000000612fca565b6112ab7f00000000000000000000000000000000000000000000000000000000000000006130c8565b604051906112b882611fb4565b5f82526112ed602091604051958695600f60f81b875260e0602088015260e0870190611ec5565b908582036040870152611ec5565b4660608501523060808501525f60a085015283810360c0850152602080845192838152019301915f5b82811061132557505050500390f35b835185528695509381019392810192600101611316565b346101fa5761135e61134d3661208c565b91611359939193612a32565b6129db565b91611367612a32565b825f526020916009835261139260405f20846040518092858783378582019081520301902054612248565b1561150757835f52600983526113be60405f20846040518092858783378582019081520301902061266d565b835f52600a835260405f205f5b8154808210156114d7576113f26113f96113e5848661221f565b5060405192838092612280565b0382611fcf565b86815191012061140a36868861200b565b8781519101201461141e57506001016113cb565b905f95929394951991828101908111610cf35761143e611446918661221f565b50918561221f565b919091610a0d5761145691612708565b825480156114c3577fca45c60cf1bbd58b2ac673da0d008eb3606c36e814e8d7fe0df3a3e53ecc59b79560409486938493019061149c611496838361221f565b906126b6565b555b8451958487958652850152848401375f828201840152601f01601f19168101030190a2005b634e487b7160e01b5f52603160045260245ffd5b505050907fca45c60cf1bbd58b2ac673da0d008eb3606c36e814e8d7fe0df3a3e53ecc59b792828060409361149e565b60405162461bcd60e51b815260048101849052601260248201527112d95e48191bd95cc81b9bdd08195e1a5cdd60721b6044820152606490fd5b346101fa5760203660031901126101fa576001600160a01b03611562611f6d565b16801561157f575f526003602052602060405f2054604051908152f35b6040516322718ad960e21b81525f6004820152602490fd5b346101fa5760203660031901126101fa5760206115b56004356129f8565b6040516001600160a01b039091168152f35b346101fa5760203660031901126101fa576004355f52600a602052602060405f2054604051908152f35b346101fa5760203660031901126101fa576102f66116106004356127eb565b604051918291826120f4565b346101fa576003196020368201126101fa57600435906001600160401b0382116101fa5760609082360301126101fa576101f2602091600401612c7d565b346101fa576102b061166b366120bf565b906040519261167984611fb4565b5f845261037e8383836124d4565b346101fa5760403660031901126101fa57600435602480356001600160401b0381116101fa57366023820112156101fa576116cc90369060248160040135910161216e565b916116d5612a32565b5f5b83518110156102b057815f5260099082602092808452611729611703858060405f206108f1888d612311565b159185611710868b612311565b51015190845f528652858060405f2061093d888d612311565b61178a575b5f805160206133ef83398151915261177460019461178161174f868b612311565b5151918061175d888d612311565b510151604051948594604086526040860190611ec5565b9184830390850152611ec5565b0390a2016116d7565b5f92919252600a815260405f206117a18387612311565b515190805490600160401b82101561180257906117c39160018201815561221f565b6117f057611774600194936117e787945f805160206133ef83398151915294612bba565b9450505061172e565b85634e487b7160e01b5f525f6004525ffd5b86634e487b7160e01b5f5260416004525ffd5b346101fa5760403660031901126101fa5761182e611f83565b336001600160a01b0382160361184a576102b090600435612b46565b60405163334bd91960e11b8152600490fd5b346101fa575f3660031901126101fa576020600b54604051908152f35b346101fa5760403660031901126101fa576102b0600435611898611f83565b90805f5260086020526118b1600160405f200154612a88565b612ac8565b346101fa5760203660031901126101fa576102f66116106118d86004356129db565b6127eb565b346101fa576118eb3661208c565b906118f4612a32565b825f526020916009835261191f60405f20846040518092858783378582019081520301902054612248565b1561150757835f526009835261194b60405f20846040518092858783378582019081520301902061266d565b835f52600a835260405f205f5b8154808210156114d7576113f26119726113e5848661221f565b86815191012061198336868861200b565b8781519101201461141e5750600101611958565b346101fa5760203660031901126101fa576004355f5260086020526020600160405f200154604051908152f35b346101fa576102b06119d5366120bf565b916124d4565b346101fa5760403660031901126101fa5760043560246001600160401b0381358181116101fa57366023820112156101fa5780600401359182116101fa5736838360051b830101116101fa57611a2f612a32565b835f526020936002855260018060a01b0360405f20541615611b535790611a58611a62926129db565b928436920161216e565b92611a6b612a32565b5f5b84518110156102b057825f526009808352611aba611a94848060405f206108f1878c612311565b159184611aa1858a612311565b51015190865f528552848060405f2061093d878c612311565b611b04575b80835f805160206133ef833981519152611aee611ade6001958a612311565b5151611afb87610991878d612311565b908382038a850152611ec5565b0390a201611a6d565b825f52600a825260405f20611b198287612311565b515190805490600160401b8210156118025790611b3b9160018201815561221f565b6117f05760019291611b4c91612bba565b9050611abf565b60405162461bcd60e51b8152600481018690526010818601526f1d1bdad95b881b9bdd081b5a5b9d195960821b6044820152606490fd5b346101fa576020610269611ba8611ba03661208c565b9290916129db565b6129ac565b346101fa5760403660031901126101fa576024356001600160401b0381116101fa576113f26102e2602080611be96102f6953690600401612041565b6004355f526009825260405f20604051938285935191829101845e82019081520301902060405192838092612280565b346101fa5760403660031901126101fa57611c32611f6d565b602435611c3e816129f8565b33151580611ce7575b80611cbe575b611ca6576001600160a01b039283169282918491167f8c5be1e5ebec7d5bd14f71427d1e84f3dd0314c0f7b2291e5b200ac8c7c3b9255f80a45f90815260046020526040902080546001600160a01b0319169091179055005b60405163a9fbf51f60e01b8152336004820152602490fd5b5060018060a01b0381165f52600560205260405f20335f5260205260ff60405f20541615611c4d565b506001600160a01b038116331415611c47565b346101fa5760203660031901126101fa57600435611d17816129f8565b505f526004602052602060018060a01b0360405f205416604051908152f35b346101fa575f3660031901126101fa576040515f80549082611d5783612248565b91828252602093600190856001821691825f146110c4575050600114611d84575061105592500383611fcf565b5f808052859250907f290decd9548b62a8d60345a988386fc84ba6bc95484008f6362f93160ef3e5635b858310611dc5575050611055935082010185611048565b80548389018501528794508693909201918101611dae565b346101fa575f3660031901126101fa576040517f00000000000000000000000000000000000000000000000000000000000000006001600160a01b03168152602090f35b346101fa5760203660031901126101fa576102f6611186600435612325565b346101fa5760203660031901126101fa576004359063ffffffff60e01b82168092036101fa57602091637965db0b60e01b8114908115611e82575b5015158152f35b6380ac58cd60e01b811491508115611eb4575b8115611ea3575b5083611e7b565b6301ffc9a760e01b14905083611e9c565b635b5e139f60e01b81149150611e95565b805180835260209291819084018484015e5f828201840152601f01601f1916010190565b6020808201908083528351809252604092604081018260408560051b8401019601945f925b858410611f1f575050505050505090565b909192939495968580611f5c600193603f198682030188528b519083611f4c83518a84528a840190611ec5565b9201519084818403910152611ec5565b990194019401929594939190611f0e565b600435906001600160a01b03821682036101fa57565b602435906001600160a01b03821682036101fa57565b604081019081106001600160401b03821117610a2057604052565b602081019081106001600160401b03821117610a2057604052565b90601f801991011681019081106001600160401b03821117610a2057604052565b6001600160401b038111610a2057601f01601f191660200190565b92919261201782611ff0565b916120256040519384611fcf565b8294818452818301116101fa578281602093845f960137010152565b9080601f830112156101fa5781602061205c9335910161200b565b90565b9181601f840112156101fa578235916001600160401b0383116101fa57602083818601950101116101fa57565b9060406003198301126101fa5760043591602435906001600160401b0382116101fa576120bb9160040161205f565b9091565b60609060031901126101fa576001600160a01b039060043582811681036101fa579160243590811681036101fa579060443590565b6020808201906020835283518092526040830192602060408460051b8301019501935f915b8483106121295750505050505090565b9091929394958480612147600193603f198682030187528a51611ec5565b9801930193019194939290612119565b6001600160401b038111610a205760051b60200190565b9092919261217b81612157565b9160409161218c6040519485611fcf565b839581855260208095019160051b8301938185116101fa5783925b8584106121b75750505050505050565b6001600160401b039084358281116101fa5786019083828603126101fa5783516121e081611f99565b82358481116101fa57866121f5918501612041565b8152898301359384116101fa57612210868b95869501612041565b838201528152019301926121a7565b8054821015612234575f5260205f2001905f90565b634e487b7160e01b5f52603260045260245ffd5b90600182811c92168015612276575b602083101461226257565b634e487b7160e01b5f52602260045260245ffd5b91607f1691612257565b80545f939261228e82612248565b918282526020936001916001811690815f146122f257506001146122b4575b5050505050565b90939495505f92919252835f2092845f945b8386106122de57505050500101905f808080806122ad565b8054858701830152940193859082016122c6565b60ff19168685015250505090151560051b010191505f808080806122ad565b80518210156122345760209160051b010190565b90815f526020600a8152604092835f209384549161234283612157565b9161234f81519384611fcf565b838352601f1961235e85612157565b01855f5b82811061247a5750505082965f5b8581106123805750505050505050565b61238a818361221f565b50845f5260098852835f20886123a0848661221f565b508651925f9180546123b181612248565b91600191808316908115612460575060011461242a575b505050926113f2928183600198979661240a9552030190206113f26123fd8951956123f287611f99565b8a5192838092612280565b8452875192838092612280565b898201526124188288612311565b526124238187612311565b5001612370565b5f90815285812093945091925b83831061244d57505050830190828460016123c8565b8054878401528e95909201918101612437565b60ff191688525050508015150284019150828460016123c8565b835161248581611f99565b606080825283820152828288010152018690612362565b6020806113f29361205c935f526009825260405f20604051938285935191829101845e82019081520301902060405192838092612280565b6001600160a01b039182169290918315610e9557815f52602092600284528260409583875f20541695331515806125c5575b5060029087612594575b825f5260038152885f2060018154019055835f5252865f20816bffffffffffffffffffffffff60a01b825416179055857fddf252ad1be2c89b69c2b068fc378daa952ba7f163c4a11628f55a4df523b3ef5f80a416928383036125735750505050565b6064945051926364283d7b60e01b8452600484015260248301526044820152fd5b5f84815260046020526040812080546001600160a01b03191690558881526003825289902080545f19019055612510565b9192509080612616575b156125dd579084915f612506565b8685876125fa576024915190637e27328960e01b82526004820152fd5b604491519063177e802f60e01b82523360048301526024820152fd5b50338614801561263b575b806125cf5750845f52600481523384885f205416146125cf565b50855f5260058152865f20335f52815260ff875f205416612621565b818110612662575050565b5f8155600101612657565b6126778154612248565b9081612681575050565b81601f5f93116001146126935750555b565b9080839182526126b2601f60208420940160051c840160018501612657565b5555565b90610a0d576126778154612248565b9190601f81116126d457505050565b612691925f5260205f20906020601f840160051c830193106126fe575b601f0160051c0190612657565b90915081906126f1565b908082146127e75761271a8154612248565b906001600160401b038211610a205761273d826127378554612248565b856126c5565b5f90601f83116001146127795761276a92915f918361276e5750508160011b915f199060031b1c19161790565b9055565b015490505f80610b15565b90601f198316915f5260209160205f2090855f5260205f20935f905b8282106127ce5750509084600195949392106127b6575b505050811b019055565b01545f1960f88460031b161c191690555f80806127ac565b8495819295850154815560018091019601940190612795565b5050565b5f526020600a60205260409060405f2080549161280783612157565b936128156040519586611fcf565b83855260208501925f5260205f20905f935b8585106128375750505050505090565b6001848192845161284c816113f2818a612280565b815201930194019391612827565b356001600160401b03811681036101fa5790565b90359061017e19813603018212156101fa570190565b356001600160a01b03811681036101fa5790565b3561ffff811681036101fa5790565b903590601e19813603018212156101fa57018035906001600160401b0382116101fa57602001918160051b360383136101fa57565b903590601e19813603018212156101fa57018035906001600160401b0382116101fa576020019181360383136101fa57565b5f818152600260205260409020546001600160a01b03161561297a5761293661295d916129db565b6040519061294382611f99565b6008825267746f6b656e55524960c01b602083015261249c565b8051156129675790565b5060405161297481611fb4565b5f815290565b60405162461bcd60e51b815260206004820152600a6024820152691b9bdd081b5a5b9d195960b21b6044820152606490fd5b6129d692916020915f526009825260405f2083604051948593843782019081520301902054612248565b151590565b60405160208101918252602081526129f281611f99565b51902090565b5f818152600260205260409020546001600160a01b0316908115612a1a575090565b60249060405190637e27328960e01b82526004820152fd5b335f9081527f5eff886ea0ce6ca488a3d6e336d6c0f75f46d19b42c06ce5ee98e42c96d256c7602052604090205460ff1615612a6a57565b60405163e2517d3f60e01b81523360048201525f6024820152604490fd5b805f52600860205260405f20335f5260205260ff60405f20541615612aaa5750565b6044906040519063e2517d3f60e01b82523360048301526024820152fd5b90815f52600860205260405f209060018060a01b031690815f5260205260ff60405f205416155f14612b4057815f52600860205260405f20815f5260205260405f20600160ff1982541617905533917f2f8788117e7eff1d82e926ec794901d17c78024a50270940304540a733656f0d5f80a4600190565b50505f90565b90815f52600860205260405f209060018060a01b031690815f5260205260ff60405f2054165f14612b4057815f52600860205260405f20815f5260205260405f2060ff19815416905533917ff6391f5c32d9c69d2a47ea670b442974b53935d1edc7fd64eb21e047a839171b5f80a4600190565b91909182516001600160401b038111610a2057612be181612bdb8454612248565b846126c5565b602080601f8311600114612c1d5750819061276a9394955f92612c125750508160011b915f199060031b1c19161790565b015190505f80610b15565b90601f19831695845f5260205f20925f905b888210612c6557505083600195969710612c4d57505050811b019055565b01515f1960f88460031b161c191690555f80806127ac565b80600185968294968601518155019501930190612c2f565b604080820191612c8d838261286e565b612c9690612884565b612ca0848361286e565b602001612cac90612884565b83612cb7868561286e565b0135612cc3868561286e565b606001612ccf90612884565b9584612cdb828261286e565b60800135612ce9838361286e565b60a0013590612cf8848461286e565b60c00135612d06858561286e565b60e001612d129061285a565b926101009081612d22888861286e565b01612d2c9061285a565b938c6101209e8f612d3d8b8b61286e565b013599610140998a91612d4f9161286e565b01612d5990612898565b9a8251809e602082019e8f7fd4537d2cae13e89ffe46b9e65d1fb612145934b158c335a84a819f03205e86739052600160a01b60019003958680931690840152166060820152608001521660a08c015260c08b015260e08a01528801526001600160401b03998a8093169088015216908501526101608401526101809061ffff168184015282526101a082019180831086841117610a205761024091838652815190206020612e078661285a565b95886101c08501977f036b00e958c97f6140b105fa9161b187af9c6fd71d67bb38a7f6cb65dc053c1d8952166101e0850152013561020083015261022082015260808352019381851090851117610a20576042938352519020612e68613242565b91519161190160f01b8352600283015260228201522090565b9293909193843b612e93575050505050565b604051630a85bd0160e11b8082526001600160a01b039586166004830152938516602482015260448101919091526080606482015260209594909316939290859082908190612ee6906084830190611ec5565b03815f885af15f9181612f8a575b50612f53575050503d5f14612f4b573d91612f0e83611ff0565b92612f1c6040519485611fcf565b83523d5f8285013e5b82519283612f4657604051633250574960e11b815260048101849052602490fd5b019050fd5b606091612f25565b9193506001600160e01b031990911603612f7257505f808080806122ad565b60249060405190633250574960e11b82526004820152fd5b9091508581813d8311612fc3575b612fa28183611fcf565b810103126101fa57516001600160e01b0319811681036101fa57905f612ef4565b503d612f98565b60ff81146130085760ff811690601f8211612ff65760405191612fec83611f99565b8252602082015290565b604051632cd44ac360e21b8152600490fd5b50604051600654815f61301a83612248565b808352926020906001908181169081156130a45750600114613045575b505061205c92500382611fcf565b91509260065f527ff652222313e28459528d920b65115c16c04f3efc82aaedc97be59f3f377c0d3f935f925b82841061308c575061205c9450505081016020015f80613037565b85548785018301529485019486945092810192613071565b9150506020925061205c94915060ff191682840152151560051b8201015f80613037565b60ff81146130ea5760ff811690601f8211612ff65760405191612fec83611f99565b50604051600754815f6130fc83612248565b808352926020906001908181169081156130a4575060011461312657505061205c92500382611fcf565b91509260075f527fa66cc928b5edb82af9bd49922954155ab7b0942694bea4ce44661d9a8736c688935f925b82841061316d575061205c9450505081016020015f80613037565b85548785018301529485019486945092810192613152565b81519190604183036131b5576131ae9250602082015190606060408401519301515f1a9061336c565b9192909190565b50505f9160029190565b600481101561322e57806131d1575050565b600181036131eb5760405163f645eedf60e01b8152600490fd5b6002810361320c5760405163fce698f760e01b815260048101839052602490fd5b6003146132165750565b602490604051906335e2f38360e21b82526004820152fd5b634e487b7160e01b5f52602160045260245ffd5b307f00000000000000000000000000000000000000000000000000000000000000006001600160a01b03161480613343575b1561329d577f000000000000000000000000000000000000000000000000000000000000000090565b60405160208101907f8b73c3c69bb8fe3d512ecc4cf759cc79239f7b179b0ffacaa9a75d522b39400f82527f000000000000000000000000000000000000000000000000000000000000000060408201527f000000000000000000000000000000000000000000000000000000000000000060608201524660808201523060a082015260a0815260c081018181106001600160401b03821117610a205760405251902090565b507f00000000000000000000000000000000000000000000000000000000000000004614613274565b91907f7fffffffffffffffffffffffffffffff5d576e7357a4501ddfe92f46681b20a084116133e3579160209360809260ff5f9560405194855216868401526040830152606082015282805260015afa15610f91575f516001600160a01b038116156133d957905f905f90565b505f906001905f90565b5050505f916003919056fec42c4edbc41dce02b01dd098a1f7a4c685c638d7a2fdfbe449b32e1f89fbfae1a2646970667358221220c27c13e06ec3c4d97ea6490323a1886901e27caa20189621d494233111fdd9bd64736f6c63430008190033290decd9548b62a8d60345a988386fc84ba6bc95484008f6362f93160ef3e5635eff886ea0ce6ca488a3d6e336d6c0f75f46d19b42c06ce5ee98e42c96d256c7b10e2d527612073b26eecdfd717e6a320cf44b4afac2b0732d9fcbe2b7fa0cf6","linkReferences":{}},"methodIdentifiers":{"DEFAULT_ADMIN_ROLE()":"a217fddf","REGISTRY()":"06433b1b","approve(address,uint256)":"095ea7b3","balanceOf(address)":"70a08231","eip712Domain()":"84b0196e","getAllMetadata(bytes32)":"05daf368","getAllMetadata(uint256)":"8c5acee7","getAllMetadataKeys(bytes32)":"5cb0e05a","getApproved(uint256)":"081812fc","getMetadata(bytes32,string)":"0e1ae91b","getMetadata(uint256,string)":"cb4799f2","getMetadataCount(bytes32)":"5e597156","getMetadataCount(uint256)":"93e3f3b0","getMetadataKeys(uint256)":"2b679e30","getRoleAdmin(bytes32)":"248a9ca3","getTokenIdHash(uint256)":"ff74ef30","grantRole(bytes32,address)":"2f2ff15d","hasMetadata(bytes32,string)":"e5e0a25d","hasMetadata(uint256,string)":"13d37550","hasRole(bytes32,address)":"91d14854","hashLeaseIntent((uint64,bytes32,(address,address,uint256,address,uint256,uint256,uint256,uint64,uint64,bytes32,uint16,(string,string)[])))":"4547bd64","isApprovedForAll(address,address)":"e985e9c5","leaseId()":"30c79cfe","leases(uint256)":"8927a106","mintLease((uint64,bytes32,(address,address,uint256,address,uint256,uint256,uint256,uint64,uint64,bytes32,uint16,(string,string)[])),bytes,bytes)":"9af66ccd","name()":"06fdde03","ownerOf(uint256)":"6352211e","removeMetadata(bytes32,string)":"26f389ba","removeMetadata(uint256,string)":"7577d428","renounceRole(bytes32,address)":"36568abe","revokeRole(bytes32,address)":"d547741f","safeTransferFrom(address,address,uint256)":"42842e0e","safeTransferFrom(address,address,uint256,bytes)":"b88d4fde","setApprovalForAll(address,bool)":"a22cb465","setMetadata(bytes32,(string,string)[])":"3b41f4ea","setMetadata(uint256,(string,string)[])":"236b8eb3","supportsInterface(bytes4)":"01ffc9a7","symbol()":"95d89b41","tokenURI(uint256)":"c87b56dd","transferFrom(address,address,uint256)":"23b872dd"},"id":51}