{"abi":[{"type":"function","name":"DEFAULT_ADMIN_ROLE","inputs":[],"outputs":[{"name":"","type":"bytes32","internalType":"bytes32"}],"stateMutability":"view"},{"type":"function","name":"UPGRADE_INTERFACE_VERSION","inputs":[],"outputs":[{"name":"","type":"string","internalType":"string"}],"stateMutability":"view"},{"type":"function","name":"approve","inputs":[{"name":"to","type":"address","internalType":"address"},{"name":"tokenId","type":"uint256","internalType":"uint256"}],"outputs":[],"stateMutability":"nonpayable"},{"type":"function","name":"balanceOf","inputs":[{"name":"owner","type":"address","internalType":"address"}],"outputs":[{"name":"","type":"uint256","internalType":"uint256"}],"stateMutability":"view"},{"type":"function","name":"eip712Domain","inputs":[],"outputs":[{"name":"fields","type":"bytes1","internalType":"bytes1"},{"name":"name","type":"string","internalType":"string"},{"name":"version","type":"string","internalType":"string"},{"name":"chainId","type":"uint256","internalType":"uint256"},{"name":"verifyingContract","type":"address","internalType":"address"},{"name":"salt","type":"bytes32","internalType":"bytes32"},{"name":"extensions","type":"uint256[]","internalType":"uint256[]"}],"stateMutability":"view"},{"type":"function","name":"getAllMetadata","inputs":[{"name":"hash","type":"bytes32","internalType":"bytes32"}],"outputs":[{"name":"metadata","type":"tuple[]","internalType":"struct MetadataStorage.Metadata[]","components":[{"name":"key","type":"string","internalType":"string"},{"name":"value","type":"string","internalType":"string"}]}],"stateMutability":"view"},{"type":"function","name":"getAllMetadata","inputs":[{"name":"tokenId","type":"uint256","internalType":"uint256"}],"outputs":[{"name":"metadata","type":"tuple[]","internalType":"struct MetadataStorage.Metadata[]","components":[{"name":"key","type":"string","internalType":"string"},{"name":"value","type":"string","internalType":"string"}]}],"stateMutability":"view"},{"type":"function","name":"getAllMetadataKeys","inputs":[{"name":"hash","type":"bytes32","internalType":"bytes32"}],"outputs":[{"name":"keys","type":"string[]","internalType":"string[]"}],"stateMutability":"view"},{"type":"function","name":"getApproved","inputs":[{"name":"tokenId","type":"uint256","internalType":"uint256"}],"outputs":[{"name":"","type":"address","internalType":"address"}],"stateMutability":"view"},{"type":"function","name":"getMetadata","inputs":[{"name":"hash","type":"bytes32","internalType":"bytes32"},{"name":"key","type":"string","internalType":"string"}],"outputs":[{"name":"value","type":"string","internalType":"string"}],"stateMutability":"view"},{"type":"function","name":"getMetadata","inputs":[{"name":"tokenId","type":"uint256","internalType":"uint256"},{"name":"key","type":"string","internalType":"string"}],"outputs":[{"name":"value","type":"string","internalType":"string"}],"stateMutability":"view"},{"type":"function","name":"getMetadataCount","inputs":[{"name":"hash","type":"bytes32","internalType":"bytes32"}],"outputs":[{"name":"count","type":"uint256","internalType":"uint256"}],"stateMutability":"view"},{"type":"function","name":"getMetadataCount","inputs":[{"name":"tokenId","type":"uint256","internalType":"uint256"}],"outputs":[{"name":"count","type":"uint256","internalType":"uint256"}],"stateMutability":"view"},{"type":"function","name":"getMetadataKeys","inputs":[{"name":"tokenId","type":"uint256","internalType":"uint256"}],"outputs":[{"name":"keys","type":"string[]","internalType":"string[]"}],"stateMutability":"view"},{"type":"function","name":"getRoleAdmin","inputs":[{"name":"role","type":"bytes32","internalType":"bytes32"}],"outputs":[{"name":"","type":"bytes32","internalType":"bytes32"}],"stateMutability":"view"},{"type":"function","name":"getTokenIdHash","inputs":[{"name":"tokenId","type":"uint256","internalType":"uint256"}],"outputs":[{"name":"hash","type":"bytes32","internalType":"bytes32"}],"stateMutability":"pure"},{"type":"function","name":"getUupsImplementation","inputs":[],"outputs":[{"name":"","type":"address","internalType":"address"}],"stateMutability":"view"},{"type":"function","name":"grantRole","inputs":[{"name":"role","type":"bytes32","internalType":"bytes32"},{"name":"account","type":"address","internalType":"address"}],"outputs":[],"stateMutability":"nonpayable"},{"type":"function","name":"hasMetadata","inputs":[{"name":"tokenId","type":"uint256","internalType":"uint256"},{"name":"key","type":"string","internalType":"string"}],"outputs":[{"name":"exists","type":"bool","internalType":"bool"}],"stateMutability":"view"},{"type":"function","name":"hasMetadata","inputs":[{"name":"hash","type":"bytes32","internalType":"bytes32"},{"name":"key","type":"string","internalType":"string"}],"outputs":[{"name":"exists","type":"bool","internalType":"bool"}],"stateMutability":"view"},{"type":"function","name":"hasRole","inputs":[{"name":"role","type":"bytes32","internalType":"bytes32"},{"name":"account","type":"address","internalType":"address"}],"outputs":[{"name":"","type":"bool","internalType":"bool"}],"stateMutability":"view"},{"type":"function","name":"hashLeaseIntent","inputs":[{"name":"L","type":"tuple","internalType":"struct LeaseFactory.LeaseIntent","components":[{"name":"deadline","type":"uint64","internalType":"uint64"},{"name":"assetTypeSchemaHash","type":"bytes32","internalType":"bytes32"},{"name":"lease","type":"tuple","internalType":"struct LeaseFactory.Lease","components":[{"name":"lessor","type":"address","internalType":"address"},{"name":"lessee","type":"address","internalType":"address"},{"name":"assetId","type":"uint256","internalType":"uint256"},{"name":"paymentToken","type":"address","internalType":"address"},{"name":"rentAmount","type":"uint256","internalType":"uint256"},{"name":"rentPeriod","type":"uint256","internalType":"uint256"},{"name":"securityDeposit","type":"uint256","internalType":"uint256"},{"name":"startTime","type":"uint64","internalType":"uint64"},{"name":"endTime","type":"uint64","internalType":"uint64"},{"name":"legalDocHash","type":"bytes32","internalType":"bytes32"},{"name":"termsVersion","type":"uint16","internalType":"uint16"},{"name":"metadata","type":"tuple[]","internalType":"struct MetadataStorage.Metadata[]","components":[{"name":"key","type":"string","internalType":"string"},{"name":"value","type":"string","internalType":"string"}]}]}]}],"outputs":[{"name":"","type":"bytes32","internalType":"bytes32"}],"stateMutability":"view"},{"type":"function","name":"initialize","inputs":[{"name":"admin","type":"address","internalType":"address"},{"name":"assetRegistry","type":"address","internalType":"address"}],"outputs":[],"stateMutability":"nonpayable"},{"type":"function","name":"isApprovedForAll","inputs":[{"name":"owner","type":"address","internalType":"address"},{"name":"operator","type":"address","internalType":"address"}],"outputs":[{"name":"","type":"bool","internalType":"bool"}],"stateMutability":"view"},{"type":"function","name":"leaseId","inputs":[],"outputs":[{"name":"","type":"uint256","internalType":"uint256"}],"stateMutability":"view"},{"type":"function","name":"leases","inputs":[{"name":"","type":"uint256","internalType":"uint256"}],"outputs":[{"name":"lessor","type":"address","internalType":"address"},{"name":"lessee","type":"address","internalType":"address"},{"name":"assetId","type":"uint256","internalType":"uint256"},{"name":"paymentToken","type":"address","internalType":"address"},{"name":"rentAmount","type":"uint256","internalType":"uint256"},{"name":"rentPeriod","type":"uint256","internalType":"uint256"},{"name":"securityDeposit","type":"uint256","internalType":"uint256"},{"name":"startTime","type":"uint64","internalType":"uint64"},{"name":"endTime","type":"uint64","internalType":"uint64"},{"name":"legalDocHash","type":"bytes32","internalType":"bytes32"},{"name":"termsVersion","type":"uint16","internalType":"uint16"}],"stateMutability":"view"},{"type":"function","name":"mintLease","inputs":[{"name":"L","type":"tuple","internalType":"struct LeaseFactory.LeaseIntent","components":[{"name":"deadline","type":"uint64","internalType":"uint64"},{"name":"assetTypeSchemaHash","type":"bytes32","internalType":"bytes32"},{"name":"lease","type":"tuple","internalType":"struct LeaseFactory.Lease","components":[{"name":"lessor","type":"address","internalType":"address"},{"name":"lessee","type":"address","internalType":"address"},{"name":"assetId","type":"uint256","internalType":"uint256"},{"name":"paymentToken","type":"address","internalType":"address"},{"name":"rentAmount","type":"uint256","internalType":"uint256"},{"name":"rentPeriod","type":"uint256","internalType":"uint256"},{"name":"securityDeposit","type":"uint256","internalType":"uint256"},{"name":"startTime","type":"uint64","internalType":"uint64"},{"name":"endTime","type":"uint64","internalType":"uint64"},{"name":"legalDocHash","type":"bytes32","internalType":"bytes32"},{"name":"termsVersion","type":"uint16","internalType":"uint16"},{"name":"metadata","type":"tuple[]","internalType":"struct MetadataStorage.Metadata[]","components":[{"name":"key","type":"string","internalType":"string"},{"name":"value","type":"string","internalType":"string"}]}]}]},{"name":"sigLessor","type":"bytes","internalType":"bytes"},{"name":"sigLessee","type":"bytes","internalType":"bytes"}],"outputs":[{"name":"tokenId","type":"uint256","internalType":"uint256"}],"stateMutability":"nonpayable"},{"type":"function","name":"name","inputs":[],"outputs":[{"name":"","type":"string","internalType":"string"}],"stateMutability":"view"},{"type":"function","name":"ownerOf","inputs":[{"name":"tokenId","type":"uint256","internalType":"uint256"}],"outputs":[{"name":"","type":"address","internalType":"address"}],"stateMutability":"view"},{"type":"function","name":"proxiableUUID","inputs":[],"outputs":[{"name":"","type":"bytes32","internalType":"bytes32"}],"stateMutability":"view"},{"type":"function","name":"registry","inputs":[],"outputs":[{"name":"","type":"address","internalType":"contract AssetRegistry"}],"stateMutability":"view"},{"type":"function","name":"removeMetadata","inputs":[{"name":"hash","type":"bytes32","internalType":"bytes32"},{"name":"key","type":"string","internalType":"string"}],"outputs":[],"stateMutability":"nonpayable"},{"type":"function","name":"removeMetadata","inputs":[{"name":"tokenId","type":"uint256","internalType":"uint256"},{"name":"key","type":"string","internalType":"string"}],"outputs":[],"stateMutability":"nonpayable"},{"type":"function","name":"renounceRole","inputs":[{"name":"role","type":"bytes32","internalType":"bytes32"},{"name":"callerConfirmation","type":"address","internalType":"address"}],"outputs":[],"stateMutability":"nonpayable"},{"type":"function","name":"revokeRole","inputs":[{"name":"role","type":"bytes32","internalType":"bytes32"},{"name":"account","type":"address","internalType":"address"}],"outputs":[],"stateMutability":"nonpayable"},{"type":"function","name":"safeTransferFrom","inputs":[{"name":"from","type":"address","internalType":"address"},{"name":"to","type":"address","internalType":"address"},{"name":"tokenId","type":"uint256","internalType":"uint256"}],"outputs":[],"stateMutability":"nonpayable"},{"type":"function","name":"safeTransferFrom","inputs":[{"name":"from","type":"address","internalType":"address"},{"name":"to","type":"address","internalType":"address"},{"name":"tokenId","type":"uint256","internalType":"uint256"},{"name":"data","type":"bytes","internalType":"bytes"}],"outputs":[],"stateMutability":"nonpayable"},{"type":"function","name":"setApprovalForAll","inputs":[{"name":"operator","type":"address","internalType":"address"},{"name":"approved","type":"bool","internalType":"bool"}],"outputs":[],"stateMutability":"nonpayable"},{"type":"function","name":"setMetadata","inputs":[{"name":"tokenId","type":"uint256","internalType":"uint256"},{"name":"metadata_","type":"tuple[]","internalType":"struct MetadataStorage.Metadata[]","components":[{"name":"key","type":"string","internalType":"string"},{"name":"value","type":"string","internalType":"string"}]}],"outputs":[],"stateMutability":"nonpayable"},{"type":"function","name":"setMetadata","inputs":[{"name":"hash","type":"bytes32","internalType":"bytes32"},{"name":"metadata_","type":"tuple[]","internalType":"struct MetadataStorage.Metadata[]","components":[{"name":"key","type":"string","internalType":"string"},{"name":"value","type":"string","internalType":"string"}]}],"outputs":[],"stateMutability":"nonpayable"},{"type":"function","name":"supportsInterface","inputs":[{"name":"interfaceId","type":"bytes4","internalType":"bytes4"}],"outputs":[{"name":"","type":"bool","internalType":"bool"}],"stateMutability":"view"},{"type":"function","name":"symbol","inputs":[],"outputs":[{"name":"","type":"string","internalType":"string"}],"stateMutability":"view"},{"type":"function","name":"tokenURI","inputs":[{"name":"tokenId","type":"uint256","internalType":"uint256"}],"outputs":[{"name":"","type":"string","internalType":"string"}],"stateMutability":"view"},{"type":"function","name":"transferFrom","inputs":[{"name":"from","type":"address","internalType":"address"},{"name":"to","type":"address","internalType":"address"},{"name":"tokenId","type":"uint256","internalType":"uint256"}],"outputs":[],"stateMutability":"nonpayable"},{"type":"function","name":"upgradeToAndCall","inputs":[{"name":"newImplementation","type":"address","internalType":"address"},{"name":"data","type":"bytes","internalType":"bytes"}],"outputs":[],"stateMutability":"payable"},{"type":"event","name":"Approval","inputs":[{"name":"owner","type":"address","indexed":true,"internalType":"address"},{"name":"approved","type":"address","indexed":true,"internalType":"address"},{"name":"tokenId","type":"uint256","indexed":true,"internalType":"uint256"}],"anonymous":false},{"type":"event","name":"ApprovalForAll","inputs":[{"name":"owner","type":"address","indexed":true,"internalType":"address"},{"name":"operator","type":"address","indexed":true,"internalType":"address"},{"name":"approved","type":"bool","indexed":false,"internalType":"bool"}],"anonymous":false},{"type":"event","name":"EIP712DomainChanged","inputs":[],"anonymous":false},{"type":"event","name":"Initialized","inputs":[{"name":"version","type":"uint64","indexed":false,"internalType":"uint64"}],"anonymous":false},{"type":"event","name":"LeaseMinted","inputs":[{"name":"tokenId","type":"uint256","indexed":true,"internalType":"uint256"},{"name":"lessor","type":"address","indexed":true,"internalType":"address"},{"name":"lessee","type":"address","indexed":true,"internalType":"address"},{"name":"assetId","type":"uint256","indexed":false,"internalType":"uint256"}],"anonymous":false},{"type":"event","name":"MetadataRemoved","inputs":[{"name":"hash","type":"bytes32","indexed":true,"internalType":"bytes32"},{"name":"key","type":"string","indexed":false,"internalType":"string"}],"anonymous":false},{"type":"event","name":"MetadataUpdated","inputs":[{"name":"hash","type":"bytes32","indexed":true,"internalType":"bytes32"},{"name":"key","type":"string","indexed":false,"internalType":"string"},{"name":"value","type":"string","indexed":false,"internalType":"string"}],"anonymous":false},{"type":"event","name":"RoleAdminChanged","inputs":[{"name":"role","type":"bytes32","indexed":true,"internalType":"bytes32"},{"name":"previousAdminRole","type":"bytes32","indexed":true,"internalType":"bytes32"},{"name":"newAdminRole","type":"bytes32","indexed":true,"internalType":"bytes32"}],"anonymous":false},{"type":"event","name":"RoleGranted","inputs":[{"name":"role","type":"bytes32","indexed":true,"internalType":"bytes32"},{"name":"account","type":"address","indexed":true,"internalType":"address"},{"name":"sender","type":"address","indexed":true,"internalType":"address"}],"anonymous":false},{"type":"event","name":"RoleRevoked","inputs":[{"name":"role","type":"bytes32","indexed":true,"internalType":"bytes32"},{"name":"account","type":"address","indexed":true,"internalType":"address"},{"name":"sender","type":"address","indexed":true,"internalType":"address"}],"anonymous":false},{"type":"event","name":"Transfer","inputs":[{"name":"from","type":"address","indexed":true,"internalType":"address"},{"name":"to","type":"address","indexed":true,"internalType":"address"},{"name":"tokenId","type":"uint256","indexed":true,"internalType":"uint256"}],"anonymous":false},{"type":"event","name":"Upgraded","inputs":[{"name":"implementation","type":"address","indexed":true,"internalType":"address"}],"anonymous":false},{"type":"error","name":"AccessControlBadConfirmation","inputs":[]},{"type":"error","name":"AccessControlUnauthorizedAccount","inputs":[{"name":"account","type":"address","internalType":"address"},{"name":"neededRole","type":"bytes32","internalType":"bytes32"}]},{"type":"error","name":"AddressEmptyCode","inputs":[{"name":"target","type":"address","internalType":"address"}]},{"type":"error","name":"ECDSAInvalidSignature","inputs":[]},{"type":"error","name":"ECDSAInvalidSignatureLength","inputs":[{"name":"length","type":"uint256","internalType":"uint256"}]},{"type":"error","name":"ECDSAInvalidSignatureS","inputs":[{"name":"s","type":"bytes32","internalType":"bytes32"}]},{"type":"error","name":"ERC1967InvalidImplementation","inputs":[{"name":"implementation","type":"address","internalType":"address"}]},{"type":"error","name":"ERC1967NonPayable","inputs":[]},{"type":"error","name":"ERC721IncorrectOwner","inputs":[{"name":"sender","type":"address","internalType":"address"},{"name":"tokenId","type":"uint256","internalType":"uint256"},{"name":"owner","type":"address","internalType":"address"}]},{"type":"error","name":"ERC721InsufficientApproval","inputs":[{"name":"operator","type":"address","internalType":"address"},{"name":"tokenId","type":"uint256","internalType":"uint256"}]},{"type":"error","name":"ERC721InvalidApprover","inputs":[{"name":"approver","type":"address","internalType":"address"}]},{"type":"error","name":"ERC721InvalidOperator","inputs":[{"name":"operator","type":"address","internalType":"address"}]},{"type":"error","name":"ERC721InvalidOwner","inputs":[{"name":"owner","type":"address","internalType":"address"}]},{"type":"error","name":"ERC721InvalidReceiver","inputs":[{"name":"receiver","type":"address","internalType":"address"}]},{"type":"error","name":"ERC721InvalidSender","inputs":[{"name":"sender","type":"address","internalType":"address"}]},{"type":"error","name":"ERC721NonexistentToken","inputs":[{"name":"tokenId","type":"uint256","internalType":"uint256"}]},{"type":"error","name":"FailedCall","inputs":[]},{"type":"error","name":"InvalidInitialization","inputs":[]},{"type":"error","name":"NotInitializing","inputs":[]},{"type":"error","name":"UUPSUnauthorizedCallContext","inputs":[]},{"type":"error","name":"UUPSUnsupportedProxiableUUID","inputs":[{"name":"slot","type":"bytes32","internalType":"bytes32"}]}],"bytecode":{"object":"0x60a080604052346100c257306080525f5160206157635f395f51905f525460ff8160401c166100b3576002600160401b03196001600160401b03821601610060575b60405161569c90816100c78239608051818181612159015261223b0152f35b6001600160401b0319166001600160401b039081175f5160206157635f395f51905f525581527fc7f505b2f371ae2175ee4913f4499e1f2633a7b5936321eed1cdaeb6115181d290602090a15f80610041565b63f92ee8a960e01b5f5260045ffd5b5f80fdfe6080806040526004361015610012575f80fd5b5f3560e01c90816301ffc9a7146133875750806305daf3681461334a57806306fdde0314613249578063081812fc146131c4578063095ea7b3146130045780630e1ae91b14612f7a57806313d3755014612f57578063236b8eb314612d2157806323b872dd14612d0a578063248a9ca314612ca257806326f389ba14612be65780632b679e3014612ba15780632f2ff15d14612b2657806330c79cfe14612aeb578063358410d514612a7b57806336568abe146129f35780633b41f4ea1461288457806342842e0e146128555780634547bd64146127da578063485cc9551461253b5780634f1ef286146121d157806352d1902d146121145780635cb0e05a146120cb5780635e597156146120835780636352211e1461202957806370a0823114611f585780637577d42814611cbb5780637b10399914611c6a57806384b0196e14611ac55780638927a106146119bd5780638c5acee71461196c57806391d14854146118d857806393e3f3b01461188857806395d89b41146117445780639af66ccd1461067f578063a217fddf14610647578063a22cb46514610529578063ad3cb1cc146104ac578063b88d4fde14610433578063c87b56dd146103f6578063cb4799f2146103ae578063d547741f1461032c578063e5e0a25d14610309578063e985e9c5146102535763ff74ef301461020b575f80fd5b3461024f5760207ffffffffffffffffffffffffffffffffffffffffffffffffffffffffffffffffc36011261024f576020610247600435614872565b604051908152f35b5f80fd5b3461024f5760407ffffffffffffffffffffffffffffffffffffffffffffffffffffffffffffffffc36011261024f5761028a613587565b73ffffffffffffffffffffffffffffffffffffffff6102ee6102aa6135aa565b9273ffffffffffffffffffffffffffffffffffffffff165f527f80bb2b638cc20bc4d0a60d66940f3ab4a00c1d7b313497ca82fb0b4ab007930560205260405f2090565b91165f52602052602060ff60405f2054166040519015158152f35b3461024f57602061032261031c366136e6565b91614844565b6040519015158152f35b3461024f5760407ffffffffffffffffffffffffffffffffffffffffffffffffffffffffffffffffc36011261024f576103ac6004356103696135aa565b906103a76103a2825f527f02dd7bc7dec4dceedda775e58dd541e08a116c6c53815c0bd028192f7b626800602052600160405f20015490565b61498d565b614c0c565b005b3461024f576103f26103de6103d06103d86103c8366136e6565b939091614872565b923691613664565b90613bf1565b6040519182916020835260208301906134a7565b0390f35b3461024f5760207ffffffffffffffffffffffffffffffffffffffffffffffffffffffffffffffffc36011261024f576103f26103de6004356144de565b3461024f5760807ffffffffffffffffffffffffffffffffffffffffffffffffffffffffffffffffc36011261024f5761046a613587565b6104726135aa565b906044356064359267ffffffffffffffff841161024f5761049a6103ac94369060040161369a565b926104a6838383613c28565b336151a3565b3461024f575f7ffffffffffffffffffffffffffffffffffffffffffffffffffffffffffffffffc36011261024f576103f26040516104eb6040826135e9565b600581527f352e302e3000000000000000000000000000000000000000000000000000000060208201526040519182916020835260208301906134a7565b3461024f5760407ffffffffffffffffffffffffffffffffffffffffffffffffffffffffffffffffc36011261024f57610560613587565b6024359081151580920361024f5773ffffffffffffffffffffffffffffffffffffffff1690811561061b57335f9081527f80bb2b638cc20bc4d0a60d66940f3ab4a00c1d7b313497ca82fb0b4ab007930560205260409020825f5260205260405f207fffffffffffffffffffffffffffffffffffffffffffffffffffffffffffffff0081541660ff83161790556040519081527f17307eab39ab6107e8899845ad3d59bd9653f200f220920489ca2b5937696c3160203392a3005b507f5b08ba18000000000000000000000000000000000000000000000000000000005f5260045260245ffd5b3461024f575f7ffffffffffffffffffffffffffffffffffffffffffffffffffffffffffffffffc36011261024f5760206040515f8152f35b3461024f5760607ffffffffffffffffffffffffffffffffffffffffffffffffffffffffffffffffc36011261024f5760043567ffffffffffffffff811161024f578060040160607ffffffffffffffffffffffffffffffffffffffffffffffffffffffffffffffffc833603011261024f5760243567ffffffffffffffff811161024f576107109036906004016136b8565b909260443567ffffffffffffffff811161024f576107329036906004016136b8565b92909167ffffffffffffffff610747866143c1565b1642116116e6576044019461076760e061076188886143d6565b016143c1565b67ffffffffffffffff806107816101006107618b8b6143d6565b16911610156116885773ffffffffffffffffffffffffffffffffffffffff60035416602060406107b189896143d6565b01356024604051809481937f518e2bdd00000000000000000000000000000000000000000000000000000000835260048301525afa90811561167d575f91611642575b50156115e45761081b6108156108249261080d88614d14565b943691613664565b8361534f565b90929192615389565b73ffffffffffffffffffffffffffffffffffffffff8061084c61084789896143d6565b614409565b169116036115865761086661081b9261086c943691613664565b9061534f565b73ffffffffffffffffffffffffffffffffffffffff80610897602061089187876143d6565b01614409565b16911603611528576002547fffffffffffffffffffffffffffffffffffffffffffffffffffffffffffffffff811461122b57600181016002556108df602061089185856143d6565b6020906040516108ef83826135e9565b5f815273ffffffffffffffffffffffffffffffffffffffff82169182156114fc57610958855f527f80bb2b638cc20bc4d0a60d66940f3ab4a00c1d7b313497ca82fb0b4ab007930260205273ffffffffffffffffffffffffffffffffffffffff60405f20541690565b73ffffffffffffffffffffffffffffffffffffffff81169086858315159384611434575b6109c38673ffffffffffffffffffffffffffffffffffffffff165f527f80bb2b638cc20bc4d0a60d66940f3ab4a00c1d7b313497ca82fb0b4ab007930360205260405f2090565b60018154019055825f527f80bb2b638cc20bc4d0a60d66940f3ab4a00c1d7b313497ca82fb0b4ab0079302895260405f20827fffffffffffffffffffffffff00000000000000000000000000000000000000008254161790557fddf252ad1be2c89b69c2b068fc378daa952ba7f163c4a11628f55a4df523b3ef5f80a450611408573b611258575b5050610a5784846143d6565b825f5260048252610c50600a60405f2073ffffffffffffffffffffffffffffffffffffffff610a8585614409565b167fffffffffffffffffffffffff0000000000000000000000000000000000000000825416178155610ab8858501614409565b73ffffffffffffffffffffffffffffffffffffffff6001830191167fffffffffffffffffffffffff000000000000000000000000000000000000000082541617905560408401356002820155610b1060608501614409565b73ffffffffffffffffffffffffffffffffffffffff6003830191167fffffffffffffffffffffffff00000000000000000000000000000000000000008254161790556080840135600482015560a0840135600582015560c084013560068201556007810167ffffffffffffffff610b8960e087016143c1565b167fffffffffffffffffffffffffffffffffffffffffffffffff0000000000000000825416178155610bbe61010086016143c1565b7fffffffffffffffffffffffffffffffff0000000000000000ffffffffffffffff6fffffffffffffffff000000000000000083549260401b16911617905561012084013560088201556009810161ffff610c1b610140870161442a565b167fffffffffffffffffffffffffffffffffffffffffffffffffffffffffffff00008254161790550191610160810190614439565b91680100000000000000008311610e7557805483825580841061119b575b50819291905f52835f20905f937fffffffffffffffffffffffffffffffffffffffffffffffffffffffffffffffc181360301915b848610610f1a5750505050505060405181810190838252828152610cc76040826135e9565b51902091610ced610ce6610cdb87876143d6565b610160810190614439565b369161383f565b94610cf6614925565b5f5b8651811015610ea257845f525f8452610d3a848060405f20610d1a858c613a2f565b515190604051938285935191829101845e8201908152030190205461393e565b15610d8285610d49848b613a2f565b510151875f525f875286808b610d638760405f2092613a2f565b515190604051938285935191829101845e820190815203019020614245565b610df7575b80857fc42c4edbc41dce02b01dd098a1f7a4c685c638d7a2fdfbe449b32e1f89fbfae1610de18a610dee89610dca87610dc260019a86613a2f565b515194613a2f565b5101516040519384936040855260408501906134a7565b908382038c8501526134a7565b0390a201610cf8565b845f526001845260405f2090610e0d8189613a2f565b515191805468010000000000000000811015610e7557610e32916001820181556138fc565b610e4957600192610e4291614245565b9050610d87565b7f4e487b71000000000000000000000000000000000000000000000000000000005f525f60045260245ffd5b7f4e487b71000000000000000000000000000000000000000000000000000000005f52604160045260245ffd5b5084827fefe2f746143aa1d2f03b11088ab609d0d5fd98fa818fa1da44c1874718665cf98573ffffffffffffffffffffffffffffffffffffffff806040610f04610eef6108478a8a6143d6565b98610efe86610891838c6143d6565b986143d6565b01359560405196875216951693a4604051908152f35b80358381121561024f578201610f30818061448d565b9067ffffffffffffffff8211610e7557610f5482610f4e895461393e565b896140c7565b5f90601f83116001146110fb57610fa092915f91836110f0575b50507fffffffffffffffffffffffffffffffffffffffffffffffffffffffffffffffff8260011b9260031b1c19161790565b85555b610fb460018601918981019061448d565b67ffffffffffffffff8193929311610e75578992610fdc82610fd6855461393e565b856140c7565b5f90601f8311600114611049578260019693600296959361102f935f9261103e5750507fffffffffffffffffffffffffffffffffffffffffffffffffffffffffffffffff8260011b9260031b1c19161790565b90555b01940195019492610ca2565b013590505f80610f6e565b7fffffffffffffffffffffffffffffffffffffffffffffffffffffffffffffffe0831691845f52855f20925f5b8181106110d85750926001979491928893836002999896106110a0575b505050811b019055611032565b7fffffffffffffffffffffffffffffffffffffffffffffffffffffffffffffffff60f88560031b161c199101351690555f8080611093565b8284013585558e976001909501949283019201611076565b013590508e80610f6e565b7fffffffffffffffffffffffffffffffffffffffffffffffffffffffffffffffe0831691885f528b5f20925f5b8d82821061118557505090846001959493921061114d575b505050811b018555610fa3565b7fffffffffffffffffffffffffffffffffffffffffffffffffffffffffffffffff60f88560031b161c199101351690558d8080611140565b6001849682939587013581550195019201611128565b7f7fffffffffffffffffffffffffffffffffffffffffffffffffffffffffffffff8116810361122b577f7fffffffffffffffffffffffffffffffffffffffffffffffffffffffffffffff8416840361122b57815f52845f209060011b8101908460011b015b81811061120d5750610c6e565b80611219600292614069565b61122560018201614069565b01611200565b7f4e487b71000000000000000000000000000000000000000000000000000000005f52601160045260245ffd5b826112b19160409795939796949651809381927f150b7a020000000000000000000000000000000000000000000000000000000083523360048401525f60248401528660448401526080606484015260848301906134a7565b03815f8a5af15f91816113b0575b5061132d5785853d15611325573d906112d78261362a565b916112e560405193846135e9565b82523d5f8284013e5b8151918261132257837f64a0ae92000000000000000000000000000000000000000000000000000000005f5260045260245ffd5b01fd5b6060906112ee565b7fffffffff000000000000000000000000000000000000000000000000000000007f150b7a02000000000000000000000000000000000000000000000000000000009196929496959395160361138557508480610a4b565b7f64a0ae92000000000000000000000000000000000000000000000000000000005f5260045260245ffd5b9091508581813d8311611401575b6113c881836135e9565b8101031261024f57517fffffffff000000000000000000000000000000000000000000000000000000008116810361024f5790876112bf565b503d6113be565b7f73c6ac6e000000000000000000000000000000000000000000000000000000005f525f60045260245ffd5b61148a835f527f80bb2b638cc20bc4d0a60d66940f3ab4a00c1d7b313497ca82fb0b4ab007930460205260405f207fffffffffffffffffffffffff00000000000000000000000000000000000000008154169055565b6114d18473ffffffffffffffffffffffffffffffffffffffff165f527f80bb2b638cc20bc4d0a60d66940f3ab4a00c1d7b313497ca82fb0b4ab007930360205260405f2090565b7fffffffffffffffffffffffffffffffffffffffffffffffffffffffffffffffff815401905561097c565b7f64a0ae92000000000000000000000000000000000000000000000000000000005f525f60045260245ffd5b60646040517f08c379a000000000000000000000000000000000000000000000000000000000815260206004820152601260248201527f6c65737365652073696720696e76616c696400000000000000000000000000006044820152fd5b60646040517f08c379a000000000000000000000000000000000000000000000000000000000815260206004820152601260248201527f6c6573736f722073696720696e76616c696400000000000000000000000000006044820152fd5b60646040517f08c379a000000000000000000000000000000000000000000000000000000000815260206004820152600d60248201527f61737365742021657869737473000000000000000000000000000000000000006044820152fd5b90506020813d602011611675575b8161165d602093836135e9565b8101031261024f5751801515810361024f57876107f4565b3d9150611650565b6040513d5f823e3d90fd5b60646040517f08c379a000000000000000000000000000000000000000000000000000000000815260206004820152600960248201527f6261642074696d657300000000000000000000000000000000000000000000006044820152fd5b60646040517f08c379a000000000000000000000000000000000000000000000000000000000815260206004820152600760248201527f65787069726564000000000000000000000000000000000000000000000000006044820152fd5b3461024f575f7ffffffffffffffffffffffffffffffffffffffffffffffffffffffffffffffffc36011261024f576040515f7f80bb2b638cc20bc4d0a60d66940f3ab4a00c1d7b313497ca82fb0b4ab0079301546117a18161393e565b808452906001811690811561184657506001146117c9575b6103f2836103de818503826135e9565b7f80bb2b638cc20bc4d0a60d66940f3ab4a00c1d7b313497ca82fb0b4ab00793015f9081527ff4bad0a69248f59680a4f2b3000328cec71a413447c96781cfe5996daa8c456e939250905b80821061182c575090915081016020016103de6117b9565b919260018160209254838588010152019101909291611814565b7fffffffffffffffffffffffffffffffffffffffffffffffffffffffffffffff001660208086019190915291151560051b840190910191506103de90506117b9565b3461024f5760207ffffffffffffffffffffffffffffffffffffffffffffffffffffffffffffffffc36011261024f576118c2600435614872565b5f526001602052602060405f2054604051908152f35b3461024f5760407ffffffffffffffffffffffffffffffffffffffffffffffffffffffffffffffffc36011261024f5761190f6135aa565b6004355f527f02dd7bc7dec4dceedda775e58dd541e08a116c6c53815c0bd028192f7b62680060205273ffffffffffffffffffffffffffffffffffffffff60405f2091165f52602052602060ff60405f2054166040519015158152f35b3461024f5760207ffffffffffffffffffffffffffffffffffffffffffffffffffffffffffffffffc36011261024f576103f26119b16119ac600435614872565b613a43565b604051918291826134ea565b3461024f5760207ffffffffffffffffffffffffffffffffffffffffffffffffffffffffffffffffc36011261024f576004355f52600460205261016060405f2073ffffffffffffffffffffffffffffffffffffffff8154169073ffffffffffffffffffffffffffffffffffffffff6001820154169067ffffffffffffffff600282015473ffffffffffffffffffffffffffffffffffffffff600384015416600484015460058501549060068601549260078701549461ffff600960088a015499015416986040519a8b5260208b015260408a01526060890152608088015260a087015260c086015281811660e086015260401c16610100840152610120830152610140820152f35b3461024f575f7ffffffffffffffffffffffffffffffffffffffffffffffffffffffffffffffffc36011261024f577fa16a46d94261c7517cc8ff89f61c0ce93598e3c849801011dee649a6a557d100541580611c41575b15611be357611b87611b2c614fc3565b611b346150d2565b6020611b9560405192611b4783856135e9565b5f84525f3681376040519586957f0f00000000000000000000000000000000000000000000000000000000000000875260e08588015260e08701906134a7565b9085820360408701526134a7565b4660608501523060808501525f60a085015283810360c08501528180845192838152019301915f5b828110611bcc57505050500390f35b835185528695509381019392810192600101611bbd565b60646040517f08c379a000000000000000000000000000000000000000000000000000000000815260206004820152601560248201527f4549503731323a20556e696e697469616c697a656400000000000000000000006044820152fd5b507fa16a46d94261c7517cc8ff89f61c0ce93598e3c849801011dee649a6a557d1015415611b1c565b3461024f575f7ffffffffffffffffffffffffffffffffffffffffffffffffffffffffffffffffc36011261024f57602073ffffffffffffffffffffffffffffffffffffffff60035416604051908152f35b3461024f57611cdc611ccc366136e6565b929091611cd7614925565b614872565b91611ce5614925565b825f525f602052611d0e60405f206020604051809285878337858201908152030190205461393e565b15611efa57825f525f602052611d3b60405f20602060405180928587833785820190815203019020614069565b825f52600160205260405f20905f5b825480821015611ecd57611d71611d78611d6484876138fc565b506040519283809261398f565b03826135e9565b60208151910120611d8a368588613664565b6020815191012014611d9f5750600101611d4a565b7fffffffffffffffffffffffffffffffffffffffffffffffffffffffffffffffff81959394950190811161122b57611dda611de291866138fc565b5091856138fc565b919091610e4957611df29161410a565b8254908115611ea0577fca45c60cf1bbd58b2ac673da0d008eb3606c36e814e8d7fe0df3a3e53ecc59b7937fffffffffffffffffffffffffffffffffffffffffffffffffffffffffffffffff6040930190611e56611e5083836138fc565b906140b8565b555b7fffffffffffffffffffffffffffffffffffffffffffffffffffffffffffffffe0601f84845195869460208652816020870152868601375f85828601015201168101030190a2005b7f4e487b71000000000000000000000000000000000000000000000000000000005f52603160045260245ffd5b5050905060407fca45c60cf1bbd58b2ac673da0d008eb3606c36e814e8d7fe0df3a3e53ecc59b792611e58565b60646040517f08c379a000000000000000000000000000000000000000000000000000000000815260206004820152601260248201527f4b657920646f6573206e6f7420657869737400000000000000000000000000006044820152fd5b3461024f5760207ffffffffffffffffffffffffffffffffffffffffffffffffffffffffffffffffc36011261024f57611f8f613587565b73ffffffffffffffffffffffffffffffffffffffff811615611ffd57611ff460209173ffffffffffffffffffffffffffffffffffffffff165f527f80bb2b638cc20bc4d0a60d66940f3ab4a00c1d7b313497ca82fb0b4ab007930360205260405f2090565b54604051908152f35b7f89c62b64000000000000000000000000000000000000000000000000000000005f525f60045260245ffd5b3461024f5760207ffffffffffffffffffffffffffffffffffffffffffffffffffffffffffffffffc36011261024f576020612065600435614891565b73ffffffffffffffffffffffffffffffffffffffff60405191168152f35b3461024f5760207ffffffffffffffffffffffffffffffffffffffffffffffffffffffffffffffffc36011261024f576004355f526001602052602060405f2054604051908152f35b3461024f5760207ffffffffffffffffffffffffffffffffffffffffffffffffffffffffffffffffc36011261024f576103f2612108600435614359565b604051918291826137aa565b3461024f575f7ffffffffffffffffffffffffffffffffffffffffffffffffffffffffffffffffc36011261024f5773ffffffffffffffffffffffffffffffffffffffff7f00000000000000000000000000000000000000000000000000000000000000001630036121a95760206040517f360894a13ba1a3210667c828492db98dca3e2076cc3735a920a3ca505d382bbc8152f35b7fe07c8dba000000000000000000000000000000000000000000000000000000005f5260045ffd5b60407ffffffffffffffffffffffffffffffffffffffffffffffffffffffffffffffffc36011261024f57612203613587565b60243567ffffffffffffffff811161024f5761222390369060040161369a565b9073ffffffffffffffffffffffffffffffffffffffff7f0000000000000000000000000000000000000000000000000000000000000000168030149081156124f9575b506121a957335f9081527fab71e3f32666744d246edff3f96e4bdafee2e9867098cdd118a979a7464786a8602052604090205460ff16156124a95773ffffffffffffffffffffffffffffffffffffffff8116916040517f52d1902d000000000000000000000000000000000000000000000000000000008152602081600481875afa5f9181612475575b5061232157837f4c9c8ce3000000000000000000000000000000000000000000000000000000005f5260045260245ffd5b807f360894a13ba1a3210667c828492db98dca3e2076cc3735a920a3ca505d382bbc85920361244a5750823b1561241f57807fffffffffffffffffffffffff00000000000000000000000000000000000000007f360894a13ba1a3210667c828492db98dca3e2076cc3735a920a3ca505d382bbc5416177f360894a13ba1a3210667c828492db98dca3e2076cc3735a920a3ca505d382bbc557fbc7cd75a20ee27fd9adebab32041f755214dbc6bffa90cc0225b39da2e5c2d3b5f80a28051156123ee576103ac91615461565b5050346123f757005b7fb398979f000000000000000000000000000000000000000000000000000000005f5260045ffd5b7f4c9c8ce3000000000000000000000000000000000000000000000000000000005f5260045260245ffd5b7faa1d49a4000000000000000000000000000000000000000000000000000000005f5260045260245ffd5b9091506020813d6020116124a1575b81612491602093836135e9565b8101031261024f575190856122f0565b3d9150612484565b7fe2517d3f000000000000000000000000000000000000000000000000000000005f52336004527f189ab7a9244df0848122154315af71fe140f3db0fe014031783b0946b8c9d2e360245260445ffd5b905073ffffffffffffffffffffffffffffffffffffffff7f360894a13ba1a3210667c828492db98dca3e2076cc3735a920a3ca505d382bbc5416141583612266565b3461024f5760407ffffffffffffffffffffffffffffffffffffffffffffffffffffffffffffffffc36011261024f57612572613587565b61257a6135aa565b7ff0c57e16840df040f15088dc2f81fe391c3923bec73e23a9662efc9c229c6a00549167ffffffffffffffff60ff8460401c16159316801590816127d2575b60011490816127c8575b1590816127bf575b506127975773ffffffffffffffffffffffffffffffffffffffff612687928460017fffffffffffffffffffffffffffffffffffffffffffffffff00000000000000007ff0c57e16840df040f15088dc2f81fe391c3923bec73e23a9662efc9c229c6a005416177ff0c57e16840df040f15088dc2f81fe391c3923bec73e23a9662efc9c229c6a0055612721575b167fffffffffffffffffffffffff00000000000000000000000000000000000000006003541617600355614a13565b5061268e57005b7fffffffffffffffffffffffffffffffffffffffffffffff00ffffffffffffffff7ff0c57e16840df040f15088dc2f81fe391c3923bec73e23a9662efc9c229c6a0054167ff0c57e16840df040f15088dc2f81fe391c3923bec73e23a9662efc9c229c6a00557fc7f505b2f371ae2175ee4913f4499e1f2633a7b5936321eed1cdaeb6115181d2602060405160018152a1005b680100000000000000007fffffffffffffffffffffffffffffffffffffffffffffff00ffffffffffffffff7ff0c57e16840df040f15088dc2f81fe391c3923bec73e23a9662efc9c229c6a005416177ff0c57e16840df040f15088dc2f81fe391c3923bec73e23a9662efc9c229c6a0055612658565b7ff92ee8a9000000000000000000000000000000000000000000000000000000005f5260045ffd5b905015846125cb565b303b1591506125c3565b8491506125b9565b3461024f5760207ffffffffffffffffffffffffffffffffffffffffffffffffffffffffffffffffc36011261024f5760043567ffffffffffffffff811161024f5760607ffffffffffffffffffffffffffffffffffffffffffffffffffffffffffffffffc823603011261024f57610247602091600401614d14565b3461024f576103ac61286636613738565b90604051926128766020856135e9565b5f84526104a6838383613c28565b3461024f5760407ffffffffffffffffffffffffffffffffffffffffffffffffffffffffffffffffc36011261024f5760043560243567ffffffffffffffff811161024f573660238201121561024f576128e790369060248160040135910161383f565b906128f0614925565b5f5b82518110156103ac57815f525f60205261291660208060405f20610d1a8588613a2f565b1561294160206129268487613a2f565b510151845f525f60205260208060405f20610d63878a613a2f565b6129a0575b80827fc42c4edbc41dce02b01dd098a1f7a4c685c638d7a2fdfbe449b32e1f89fbfae161298961297860019588613a2f565b51516129976020610dca878b613a2f565b9083820360208501526134a7565b0390a2016128f2565b815f52600160205260405f20906129b78185613a2f565b515191805468010000000000000000811015610e75576129dc916001820181556138fc565b610e49576001926129ec91614245565b9050612946565b3461024f5760407ffffffffffffffffffffffffffffffffffffffffffffffffffffffffffffffffc36011261024f57612a2a6135aa565b3373ffffffffffffffffffffffffffffffffffffffff821603612a53576103ac90600435614c0c565b7f6697b232000000000000000000000000000000000000000000000000000000005f5260045ffd5b3461024f575f7ffffffffffffffffffffffffffffffffffffffffffffffffffffffffffffffffc36011261024f57602073ffffffffffffffffffffffffffffffffffffffff7f360894a13ba1a3210667c828492db98dca3e2076cc3735a920a3ca505d382bbc5416604051908152f35b3461024f575f7ffffffffffffffffffffffffffffffffffffffffffffffffffffffffffffffffc36011261024f576020600254604051908152f35b3461024f5760407ffffffffffffffffffffffffffffffffffffffffffffffffffffffffffffffffc36011261024f576103ac600435612b636135aa565b90612b9c6103a2825f527f02dd7bc7dec4dceedda775e58dd541e08a116c6c53815c0bd028192f7b626800602052600160405f20015490565b614afa565b3461024f5760207ffffffffffffffffffffffffffffffffffffffffffffffffffffffffffffffffc36011261024f576103f2612108612be1600435614872565b614359565b3461024f57612bf4366136e6565b612bfc614925565b825f525f602052612c2560405f206020604051809285878337858201908152030190205461393e565b15611efa57825f525f602052612c5260405f20602060405180928587833785820190815203019020614069565b825f52600160205260405f20905f5b825480821015611ecd57611d71612c7b611d6484876138fc565b60208151910120612c8d368588613664565b6020815191012014611d9f5750600101612c61565b3461024f5760207ffffffffffffffffffffffffffffffffffffffffffffffffffffffffffffffffc36011261024f5760206102476004355f527f02dd7bc7dec4dceedda775e58dd541e08a116c6c53815c0bd028192f7b626800602052600160405f20015490565b3461024f576103ac612d1b36613738565b91613c28565b3461024f5760407ffffffffffffffffffffffffffffffffffffffffffffffffffffffffffffffffc36011261024f5760243560043567ffffffffffffffff821161024f573660238301121561024f5781600401359167ffffffffffffffff831161024f573660248460051b8301011161024f57612d9c614925565b73ffffffffffffffffffffffffffffffffffffffff612df9835f527f80bb2b638cc20bc4d0a60d66940f3ab4a00c1d7b313497ca82fb0b4ab007930260205273ffffffffffffffffffffffffffffffffffffffff60405f20541690565b1615612ef957612e0b612e1692614872565b92602436920161383f565b90612e1f614925565b5f5b82518110156103ac57815f525f602052612e4560208060405f20610d1a8588613a2f565b15612e5560206129268487613a2f565b612ea6575b80827fc42c4edbc41dce02b01dd098a1f7a4c685c638d7a2fdfbe449b32e1f89fbfae1612989612e8c60019588613a2f565b5151612e9d6020610dca878b613a2f565b0390a201612e21565b815f52600160205260405f2090612ebd8185613a2f565b515191805468010000000000000000811015610e7557612ee2916001820181556138fc565b610e4957600192612ef291614245565b9050612e5a565b60646040517f08c379a000000000000000000000000000000000000000000000000000000000815260206004820152601060248201527f746f6b656e206e6f74206d696e746564000000000000000000000000000000006044820152fd5b3461024f576020610322612f75612f6d366136e6565b929091614872565b614844565b3461024f5760407ffffffffffffffffffffffffffffffffffffffffffffffffffffffffffffffffc36011261024f5760243567ffffffffffffffff811161024f57611d716103de602080612fd56103f295369060040161369a565b6004355f525f825260405f20604051938285935191829101845e8201908152030190206040519283809261398f565b3461024f5760407ffffffffffffffffffffffffffffffffffffffffffffffffffffffffffffffffc36011261024f5761303b613587565b60243561304781614891565b331515806131a4575b80613132575b61310657819073ffffffffffffffffffffffffffffffffffffffff80851691167f8c5be1e5ebec7d5bd14f71427d1e84f3dd0314c0f7b2291e5b200ac8c7c3b9255f80a45f527f80bb2b638cc20bc4d0a60d66940f3ab4a00c1d7b313497ca82fb0b4ab007930460205273ffffffffffffffffffffffffffffffffffffffff60405f2091167fffffffffffffffffffffffff00000000000000000000000000000000000000008254161790555f80f35b7fa9fbf51f000000000000000000000000000000000000000000000000000000005f523360045260245ffd5b5061317a8173ffffffffffffffffffffffffffffffffffffffff165f527f80bb2b638cc20bc4d0a60d66940f3ab4a00c1d7b313497ca82fb0b4ab007930560205260405f2090565b73ffffffffffffffffffffffffffffffffffffffff33165f5260205260ff60405f20541615613056565b503373ffffffffffffffffffffffffffffffffffffffff82161415613050565b3461024f5760207ffffffffffffffffffffffffffffffffffffffffffffffffffffffffffffffffc36011261024f57602061206560043561320481614891565b505f527f80bb2b638cc20bc4d0a60d66940f3ab4a00c1d7b313497ca82fb0b4ab007930460205273ffffffffffffffffffffffffffffffffffffffff60405f20541690565b3461024f575f7ffffffffffffffffffffffffffffffffffffffffffffffffffffffffffffffffc36011261024f576040515f7f80bb2b638cc20bc4d0a60d66940f3ab4a00c1d7b313497ca82fb0b4ab0079300546132a68161393e565b808452906001811690811561184657506001146132cd576103f2836103de818503826135e9565b7f80bb2b638cc20bc4d0a60d66940f3ab4a00c1d7b313497ca82fb0b4ab00793005f9081527f37c58c799b6609234b945e882912ee9ad34948a1dfaa20a97485e1a7752bbf81939250905b808210613330575090915081016020016103de6117b9565b919260018160209254838588010152019101909291613318565b3461024f5760207ffffffffffffffffffffffffffffffffffffffffffffffffffffffffffffffffc36011261024f576103f26119b1600435613a43565b3461024f5760207ffffffffffffffffffffffffffffffffffffffffffffffffffffffffffffffffc36011261024f57600435907fffffffff00000000000000000000000000000000000000000000000000000000821680920361024f57817f80ac58cd000000000000000000000000000000000000000000000000000000006020931490811561347d575b8115613420575b5015158152f35b7f7965db0b00000000000000000000000000000000000000000000000000000000811491508115613453575b5083613419565b7f01ffc9a7000000000000000000000000000000000000000000000000000000009150148361344c565b7f5b5e139f0000000000000000000000000000000000000000000000000000000081149150613412565b907fffffffffffffffffffffffffffffffffffffffffffffffffffffffffffffffe0601f602080948051918291828752018686015e5f8582860101520116010190565b602081016020825282518091526040820191602060408360051b8301019401925f915b83831061351c57505050505090565b9091929394602080613578837fffffffffffffffffffffffffffffffffffffffffffffffffffffffffffffffc086600196030187528951908361356883516040845260408401906134a7565b92015190848184039101526134a7565b9701930193019193929061350d565b6004359073ffffffffffffffffffffffffffffffffffffffff8216820361024f57565b6024359073ffffffffffffffffffffffffffffffffffffffff8216820361024f57565b6040810190811067ffffffffffffffff821117610e7557604052565b90601f7fffffffffffffffffffffffffffffffffffffffffffffffffffffffffffffffe0910116810190811067ffffffffffffffff821117610e7557604052565b67ffffffffffffffff8111610e7557601f017fffffffffffffffffffffffffffffffffffffffffffffffffffffffffffffffe01660200190565b9291926136708261362a565b9161367e60405193846135e9565b82948184528183011161024f578281602093845f960137010152565b9080601f8301121561024f578160206136b593359101613664565b90565b9181601f8401121561024f5782359167ffffffffffffffff831161024f576020838186019501011161024f57565b9060407ffffffffffffffffffffffffffffffffffffffffffffffffffffffffffffffffc83011261024f57600435916024359067ffffffffffffffff821161024f57613734916004016136b8565b9091565b7ffffffffffffffffffffffffffffffffffffffffffffffffffffffffffffffffc606091011261024f5760043573ffffffffffffffffffffffffffffffffffffffff8116810361024f579060243573ffffffffffffffffffffffffffffffffffffffff8116810361024f579060443590565b602081016020825282518091526040820191602060408360051b8301019401925f915b8383106137dc57505050505090565b9091929394602080613818837fffffffffffffffffffffffffffffffffffffffffffffffffffffffffffffffc0866001960301875289516134a7565b970193019301919392906137cd565b67ffffffffffffffff8111610e755760051b60200190565b9291909261384c84613827565b9361385a60405195866135e9565b602085828152019060051b82019183831161024f5780915b838310613880575050505050565b823567ffffffffffffffff811161024f57820160408187031261024f57604051916138aa836135cd565b813567ffffffffffffffff811161024f57876138c791840161369a565b835260208201359267ffffffffffffffff841161024f576138ed8860209586950161369a565b83820152815201920191613872565b8054821015613911575f5260205f2001905f90565b7f4e487b71000000000000000000000000000000000000000000000000000000005f52603260045260245ffd5b90600182811c92168015613985575b602083101461395857565b7f4e487b71000000000000000000000000000000000000000000000000000000005f52602260045260245ffd5b91607f169161394d565b5f929181549161399e8361393e565b80835292600181169081156139f357506001146139ba57505050565b5f9081526020812093945091925b8383106139d9575060209250010190565b6001816020929493945483858701015201910191906139c8565b905060209495507fffffffffffffffffffffffffffffffffffffffffffffffffffffffffffffff0091509291921683830152151560051b010190565b80518210156139115760209160051b010190565b90815f52600160205260405f208054613a5b81613827565b613a6860405191826135e9565b8181527fffffffffffffffffffffffffffffffffffffffffffffffffffffffffffffffe0613a9583613827565b015f5b818110613bcc57505080945f5b838110613ab3575050505050565b613abd81866138fc565b50825f525f60205260405f20613ad383886138fc565b50604051915f91805490613ae68261393e565b9160018116908115613b965750600114613b61575b5050826020600196959484613b4094611d71965203019020611d71613b3260405195613b26876135cd565b6040519283809261398f565b84526040519283809261398f565b6020820152613b4f8286613a2f565b52613b5a8185613a2f565b5001613aa5565b909192505f5260205f205f905b828210613b82575050820190826020613afb565b600181602092548488015201910190613b6e565b7fffffffffffffffffffffffffffffffffffffffffffffffffffffffffffffff0016865250508015150283019150826020613afb565b602090604051613bdb816135cd565b6060815260608382015282828601015201613a98565b602080611d71936136b5935f525f825260405f20604051938285935191829101845e8201908152030190206040519283809261398f565b91909173ffffffffffffffffffffffffffffffffffffffff83169081156114fc57613c91835f527f80bb2b638cc20bc4d0a60d66940f3ab4a00c1d7b313497ca82fb0b4ab007930260205273ffffffffffffffffffffffffffffffffffffffff60405f20541690565b833315159384613ec6575b73ffffffffffffffffffffffffffffffffffffffff9450613d028584169788613dc05773ffffffffffffffffffffffffffffffffffffffff165f527f80bb2b638cc20bc4d0a60d66940f3ab4a00c1d7b313497ca82fb0b4ab007930360205260405f2090565b60018154019055815f527f80bb2b638cc20bc4d0a60d66940f3ab4a00c1d7b313497ca82fb0b4ab007930260205260405f20817fffffffffffffffffffffffff0000000000000000000000000000000000000000825416179055867fddf252ad1be2c89b69c2b068fc378daa952ba7f163c4a11628f55a4df523b3ef5f80a45016808303613d8f57505050565b7f64283d7b000000000000000000000000000000000000000000000000000000005f5260045260245260445260645ffd5b613e16845f527f80bb2b638cc20bc4d0a60d66940f3ab4a00c1d7b313497ca82fb0b4ab007930460205260405f207fffffffffffffffffffffffff00000000000000000000000000000000000000008154169055565b613e5d8573ffffffffffffffffffffffffffffffffffffffff165f527f80bb2b638cc20bc4d0a60d66940f3ab4a00c1d7b313497ca82fb0b4ab007930360205260405f2090565b7fffffffffffffffffffffffffffffffffffffffffffffffffffffffffffffffff815401905573ffffffffffffffffffffffffffffffffffffffff165f527f80bb2b638cc20bc4d0a60d66940f3ab4a00c1d7b313497ca82fb0b4ab007930360205260405f2090565b91929380915090613f56575b15613ee05790838392613c9c565b8373ffffffffffffffffffffffffffffffffffffffff8316613f27577f7e273289000000000000000000000000000000000000000000000000000000005f5260045260245ffd5b7f177e802f000000000000000000000000000000000000000000000000000000005f523360045260245260445ffd5b503373ffffffffffffffffffffffffffffffffffffffff8316148015613fe2575b80613ed257503373ffffffffffffffffffffffffffffffffffffffff613fdb865f527f80bb2b638cc20bc4d0a60d66940f3ab4a00c1d7b313497ca82fb0b4ab007930460205273ffffffffffffffffffffffffffffffffffffffff60405f20541690565b1614613ed2565b5061402a8273ffffffffffffffffffffffffffffffffffffffff165f527f80bb2b638cc20bc4d0a60d66940f3ab4a00c1d7b313497ca82fb0b4ab007930560205260405f2090565b73ffffffffffffffffffffffffffffffffffffffff33165f5260205260ff60405f205416613f77565b81811061405e575050565b5f8155600101614053565b614073815461393e565b908161407d575050565b81601f5f931160011461408f5750555b565b818352602083206140ab91601f0160051c810190600101614053565b8082528160208120915555565b90610e4957614073815461393e565b9190601f81116140d657505050565b61408d925f5260205f20906020601f840160051c83019310614100575b601f0160051c0190614053565b90915081906140f3565b9190918281146142405761411e835461393e565b67ffffffffffffffff8111610e75576141418161413b845461393e565b846140c7565b5f93601f821160011461419d5761418e92939482915f926141925750507fffffffffffffffffffffffffffffffffffffffffffffffffffffffffffffffff8260011b9260031b1c19161790565b9055565b015490505f80610f6e565b7fffffffffffffffffffffffffffffffffffffffffffffffffffffffffffffffe08216905f5260205f2094835f5260205f20915f5b818110614228575095836001959697106141f1575b505050811b019055565b01547fffffffffffffffffffffffffffffffffffffffffffffffffffffffffffffffff60f88460031b161c191690555f80806141e7565b9192600180602092868b0154815501940192016141d2565b509050565b919091825167ffffffffffffffff8111610e75576142678161413b845461393e565b6020601f82116001146142bf57819061418e9394955f926142b45750507fffffffffffffffffffffffffffffffffffffffffffffffffffffffffffffffff8260011b9260031b1c19161790565b015190505f80610f6e565b7fffffffffffffffffffffffffffffffffffffffffffffffffffffffffffffffe0821690835f52805f20915f5b8181106143415750958360019596971061430a57505050811b019055565b01517fffffffffffffffffffffffffffffffffffffffffffffffffffffffffffffffff60f88460031b161c191690555f80806141e7565b9192602060018192868b0151815501940192016142ec565b5f52600160205260405f20805461436f81613827565b9161437d60405193846135e9565b81835260208301905f5260205f205f915b83831061439c575050505090565b6001602081926040516143b381611d71818961398f565b81520192019201919061438e565b3567ffffffffffffffff8116810361024f5790565b9035907ffffffffffffffffffffffffffffffffffffffffffffffffffffffffffffffe818136030182121561024f570190565b3573ffffffffffffffffffffffffffffffffffffffff8116810361024f5790565b3561ffff8116810361024f5790565b9035907fffffffffffffffffffffffffffffffffffffffffffffffffffffffffffffffe18136030182121561024f570180359067ffffffffffffffff821161024f57602001918160051b3603831361024f57565b9035907fffffffffffffffffffffffffffffffffffffffffffffffffffffffffffffffe18136030182121561024f570180359067ffffffffffffffff821161024f5760200191813603831361024f57565b73ffffffffffffffffffffffffffffffffffffffff61453b825f527f80bb2b638cc20bc4d0a60d66940f3ab4a00c1d7b313497ca82fb0b4ab007930260205273ffffffffffffffffffffffffffffffffffffffff60405f20541690565b16156147e65761454a81614872565b61458c60409182519061455d84836135e9565b600382527f75726900000000000000000000000000000000000000000000000000000000006020830152613bf1565b8051156147d1578291835f947a184f03e93ff9f4daa797ed6e38ed64bf6a1f0100000000000000008110156147a5575b50806d04ee2d6d415b85acef8100000000600a92101561478a575b662386f26fc10000811015614776575b6305f5e100811015614765575b612710811015614756575b6064811015614748575b101561473e575b6001840192600a7fffffffffffffffffffffffffffffffffffffffffffffffffffffffffffffffff602161465b6146468861362a565b976146538751998a6135e9565b80895261362a565b977fffffffffffffffffffffffffffffffffffffffffffffffffffffffffffffffe0602089019901368a378701015b01917f30313233343536373839616263646566000000000000000000000000000000008282061a8353049081156146e557600a907fffffffffffffffffffffffffffffffffffffffffffffffffffffffffffffffff9061468a565b50506020936136b5938592519584879551918291018587015e840190838201905f8252519283915e01015f8152037fffffffffffffffffffffffffffffffffffffffffffffffffffffffffffffffe081018352826135e9565b9260010192614610565b606460029104950194614609565b612710600491049501946145ff565b6305f5e100600891049501946145f4565b662386f26fc10000601091049501946145e7565b6d04ee2d6d415b85acef8100000000602091049501946145d7565b91945084917a184f03e93ff9f4daa797ed6e38ed64bf6a1f01000000000000000090049050600a6145bc565b509050516147e06020826135e9565b5f815290565b60646040517f08c379a000000000000000000000000000000000000000000000000000000000815260206004820152600a60248201527f6e6f74206d696e746564000000000000000000000000000000000000000000006044820152fd5b61486d92916020915f525f825260405f208360405194859384378201908152030190205461393e565b151590565b604051602081019182526020815261488b6040826135e9565b51902090565b6148d9815f527f80bb2b638cc20bc4d0a60d66940f3ab4a00c1d7b313497ca82fb0b4ab007930260205273ffffffffffffffffffffffffffffffffffffffff60405f20541690565b9073ffffffffffffffffffffffffffffffffffffffff8216156148fa575090565b7f7e273289000000000000000000000000000000000000000000000000000000005f5260045260245ffd5b335f9081527fb7db2dd08fcb62d0c9e08c51941cae53c267786a0b75803fb7960902fc8ef97d602052604090205460ff161561495d57565b7fe2517d3f000000000000000000000000000000000000000000000000000000005f52336004525f60245260445ffd5b805f527f02dd7bc7dec4dceedda775e58dd541e08a116c6c53815c0bd028192f7b62680060205260405f2073ffffffffffffffffffffffffffffffffffffffff33165f5260205260ff60405f205416156149e45750565b7fe2517d3f000000000000000000000000000000000000000000000000000000005f523360045260245260445ffd5b73ffffffffffffffffffffffffffffffffffffffff81165f9081527fb7db2dd08fcb62d0c9e08c51941cae53c267786a0b75803fb7960902fc8ef97d602052604090205460ff16614af55773ffffffffffffffffffffffffffffffffffffffff165f8181527fb7db2dd08fcb62d0c9e08c51941cae53c267786a0b75803fb7960902fc8ef97d6020526040812080547fffffffffffffffffffffffffffffffffffffffffffffffffffffffffffffff001660011790553391907f2f8788117e7eff1d82e926ec794901d17c78024a50270940304540a733656f0d8180a4600190565b505f90565b805f527f02dd7bc7dec4dceedda775e58dd541e08a116c6c53815c0bd028192f7b62680060205260405f2073ffffffffffffffffffffffffffffffffffffffff83165f5260205260ff60405f205416155f14614c0657805f527f02dd7bc7dec4dceedda775e58dd541e08a116c6c53815c0bd028192f7b62680060205260405f2073ffffffffffffffffffffffffffffffffffffffff83165f5260205260405f2060017fffffffffffffffffffffffffffffffffffffffffffffffffffffffffffffff0082541617905573ffffffffffffffffffffffffffffffffffffffff339216907f2f8788117e7eff1d82e926ec794901d17c78024a50270940304540a733656f0d5f80a4600190565b50505f90565b805f527f02dd7bc7dec4dceedda775e58dd541e08a116c6c53815c0bd028192f7b62680060205260405f2073ffffffffffffffffffffffffffffffffffffffff83165f5260205260ff60405f2054165f14614c0657805f527f02dd7bc7dec4dceedda775e58dd541e08a116c6c53815c0bd028192f7b62680060205260405f2073ffffffffffffffffffffffffffffffffffffffff83165f5260205260405f207fffffffffffffffffffffffffffffffffffffffffffffffffffffffffffffff00815416905573ffffffffffffffffffffffffffffffffffffffff339216907ff6391f5c32d9c69d2a47ea670b442974b53935d1edc7fd64eb21e047a839171b5f80a4600190565b60408101614d2281836143d6565b614d2b90614409565b90614d3681846143d6565b602001614d4290614409565b90614d4d81856143d6565b6040013590614d5c81866143d6565b606001614d6890614409565b614d7282876143d6565b60800135614d8083886143d6565b60a00135614d8e84896143d6565b60c0013590614d9d858a6143d6565b60e001614da9906143c1565b92614db4868b6143d6565b61010001614dc1906143c1565b94614dcc878c6143d6565b610120013596614ddc908c6143d6565b61014001614de99061442a565b976040519960208b019b7fd4537d2cae13e89ffe46b9e65d1fb612145934b158c335a84a819f03205e86738d5273ffffffffffffffffffffffffffffffffffffffff1660408c015273ffffffffffffffffffffffffffffffffffffffff1660608b015260808a015273ffffffffffffffffffffffffffffffffffffffff1660a089015260c088015260e087015261010086015267ffffffffffffffff1661012085015267ffffffffffffffff1661014084015261016083015261ffff166101808201526101808152614ebd6101a0826135e9565b51902090614eca816143c1565b916040519160208301937f036b00e958c97f6140b105fa9161b187af9c6fd71d67bb38a7f6cb65dc053c1d855267ffffffffffffffff166040840152602001356060830152608082015260808152614f2360a0826135e9565b519020614f2e6155b7565b614f36615621565b6040519060208201927f8b73c3c69bb8fe3d512ecc4cf759cc79239f7b179b0ffacaa9a75d522b39400f8452604083015260608201524660808201523060a082015260a08152614f8760c0826135e9565b51902090604051917f19010000000000000000000000000000000000000000000000000000000000008352600283015260228201526042902090565b6040517fa16a46d94261c7517cc8ff89f61c0ce93598e3c849801011dee649a6a557d10254815f614ff38361393e565b80835292600181169081156150955750600114615017575b6136b5925003826135e9565b507fa16a46d94261c7517cc8ff89f61c0ce93598e3c849801011dee649a6a557d1025f90815290917f42ad5d3e1f2e6e70edcf6d991b8a3023d3fca8047a131592f9edb9fd9b89d57d5b8183106150795750509060206136b59282010161500b565b6020919350806001915483858801015201910190918392615061565b602092506136b59491507fffffffffffffffffffffffffffffffffffffffffffffffffffffffffffffff001682840152151560051b82010161500b565b6040517fa16a46d94261c7517cc8ff89f61c0ce93598e3c849801011dee649a6a557d10354815f6151028361393e565b80835292600181169081156150955750600114615125576136b5925003826135e9565b507fa16a46d94261c7517cc8ff89f61c0ce93598e3c849801011dee649a6a557d1035f90815290917f5f9ce34815f8e11431c7bb75a8e6886a91478f7ffc1dbb0a98dc240fddd76b755b8183106151875750509060206136b59282010161500b565b602091935080600191548385880101520191019091839261516f565b93909293823b6151b5575b5050505050565b61522273ffffffffffffffffffffffffffffffffffffffff928360209516968460405197889687967f150b7a0200000000000000000000000000000000000000000000000000000000885216600487015216602485015260448401526080606484015260848301906134a7565b03815f865af15f91816152f2575b5061529e57503d15615297573d6152468161362a565b9061525460405192836135e9565b81523d5f602083013e5b8051908161529257827f64a0ae92000000000000000000000000000000000000000000000000000000005f5260045260245ffd5b602001fd5b606061525e565b7fffffffff000000000000000000000000000000000000000000000000000000007f150b7a020000000000000000000000000000000000000000000000000000000091160361138557505f808080806151ae565b9091506020813d602011615347575b8161530e602093836135e9565b8101031261024f57517fffffffff000000000000000000000000000000000000000000000000000000008116810361024f57905f615230565b3d9150615301565b815191906041830361537f576153789250602082015190606060408401519301515f1a90615528565b9192909190565b50505f9160029190565b6004811015615434578061539b575050565b600181036153cb577ff645eedf000000000000000000000000000000000000000000000000000000005f5260045ffd5b600281036153ff57507ffce698f7000000000000000000000000000000000000000000000000000000005f5260045260245ffd5b6003146154095750565b7fd78bce0c000000000000000000000000000000000000000000000000000000005f5260045260245ffd5b7f4e487b71000000000000000000000000000000000000000000000000000000005f52602160045260245ffd5b905f8091602081519101845af48080615515575b156154955750506040513d81523d5f602083013e60203d82010160405290565b156154dc5773ffffffffffffffffffffffffffffffffffffffff907f9996b315000000000000000000000000000000000000000000000000000000005f521660045260245ffd5b3d156154ed576040513d5f823e3d90fd5b7fd6bda275000000000000000000000000000000000000000000000000000000005f5260045ffd5b503d1515806154755750813b1515615475565b91907f7fffffffffffffffffffffffffffffff5d576e7357a4501ddfe92f46681b20a084116155ac579160209360809260ff5f9560405194855216868401526040830152606082015282805260015afa1561167d575f5173ffffffffffffffffffffffffffffffffffffffff8116156155a257905f905f90565b505f906001905f90565b5050505f9160039190565b6155bf614fc3565b80519081156155cf576020012090565b50507fa16a46d94261c7517cc8ff89f61c0ce93598e3c849801011dee649a6a557d1005480156155fc5790565b507fc5d2460186f7233c927e7db2dcc703c0e500b653ca82273b7bfad8045d85a47090565b6156296150d2565b8051908115615639576020012090565b50507fa16a46d94261c7517cc8ff89f61c0ce93598e3c849801011dee649a6a557d1015480156155fc579056fea2646970667358221220ee1271b3749091fe150afaa237c25957717f6f3ebe7e878822fed0e0d417c7c064736f6c634300081e0033f0c57e16840df040f15088dc2f81fe391c3923bec73e23a9662efc9c229c6a00","linkReferences":{}},"methodIdentifiers":{"DEFAULT_ADMIN_ROLE()":"a217fddf","UPGRADE_INTERFACE_VERSION()":"ad3cb1cc","approve(address,uint256)":"095ea7b3","balanceOf(address)":"70a08231","eip712Domain()":"84b0196e","getAllMetadata(bytes32)":"05daf368","getAllMetadata(uint256)":"8c5acee7","getAllMetadataKeys(bytes32)":"5cb0e05a","getApproved(uint256)":"081812fc","getMetadata(bytes32,string)":"0e1ae91b","getMetadata(uint256,string)":"cb4799f2","getMetadataCount(bytes32)":"5e597156","getMetadataCount(uint256)":"93e3f3b0","getMetadataKeys(uint256)":"2b679e30","getRoleAdmin(bytes32)":"248a9ca3","getTokenIdHash(uint256)":"ff74ef30","getUupsImplementation()":"358410d5","grantRole(bytes32,address)":"2f2ff15d","hasMetadata(bytes32,string)":"e5e0a25d","hasMetadata(uint256,string)":"13d37550","hasRole(bytes32,address)":"91d14854","hashLeaseIntent((uint64,bytes32,(address,address,uint256,address,uint256,uint256,uint256,uint64,uint64,bytes32,uint16,(string,string)[])))":"4547bd64","initialize(address,address)":"485cc955","isApprovedForAll(address,address)":"e985e9c5","leaseId()":"30c79cfe","leases(uint256)":"8927a106","mintLease((uint64,bytes32,(address,address,uint256,address,uint256,uint256,uint256,uint64,uint64,bytes32,uint16,(string,string)[])),bytes,bytes)":"9af66ccd","name()":"06fdde03","ownerOf(uint256)":"6352211e","proxiableUUID()":"52d1902d","registry()":"7b103999","removeMetadata(bytes32,string)":"26f389ba","removeMetadata(uint256,string)":"7577d428","renounceRole(bytes32,address)":"36568abe","revokeRole(bytes32,address)":"d547741f","safeTransferFrom(address,address,uint256)":"42842e0e","safeTransferFrom(address,address,uint256,bytes)":"b88d4fde","setApprovalForAll(address,bool)":"a22cb465","setMetadata(bytes32,(string,string)[])":"3b41f4ea","setMetadata(uint256,(string,string)[])":"236b8eb3","supportsInterface(bytes4)":"01ffc9a7","symbol()":"95d89b41","tokenURI(uint256)":"c87b56dd","transferFrom(address,address,uint256)":"23b872dd","upgradeToAndCall(address,bytes)":"4f1ef286"},"storageLayout":{"storage":[{"astId":61653,"contract":"src/LeaseFactory.sol:LeaseFactory","label":"_metadata","offset":0,"slot":"0","type":"t_mapping(t_bytes32,t_mapping(t_string_memory_ptr,t_string_storage))"},{"astId":61659,"contract":"src/LeaseFactory.sol:LeaseFactory","label":"_metadataKeys","offset":0,"slot":"1","type":"t_mapping(t_bytes32,t_array(t_string_storage)dyn_storage)"},{"astId":60152,"contract":"src/LeaseFactory.sol:LeaseFactory","label":"leaseId","offset":0,"slot":"2","type":"t_uint256"},{"astId":60156,"contract":"src/LeaseFactory.sol:LeaseFactory","label":"registry","offset":0,"slot":"3","type":"t_contract(AssetRegistry)60080"},{"astId":60174,"contract":"src/LeaseFactory.sol:LeaseFactory","label":"leases","offset":0,"slot":"4","type":"t_mapping(t_uint256,t_struct(Lease)60149_storage)"}],"types":{"t_address":{"encoding":"inplace","label":"address","numberOfBytes":"20"},"t_array(t_string_storage)dyn_storage":{"encoding":"dynamic_array","label":"string[]","numberOfBytes":"32","base":"t_string_storage"},"t_array(t_struct(Metadata)61646_storage)dyn_storage":{"encoding":"dynamic_array","label":"struct MetadataStorage.Metadata[]","numberOfBytes":"32","base":"t_struct(Metadata)61646_storage"},"t_bytes32":{"encoding":"inplace","label":"bytes32","numberOfBytes":"32"},"t_contract(AssetRegistry)60080":{"encoding":"inplace","label":"contract AssetRegistry","numberOfBytes":"20"},"t_mapping(t_bytes32,t_array(t_string_storage)dyn_storage)":{"encoding":"mapping","key":"t_bytes32","label":"mapping(bytes32 => string[])","numberOfBytes":"32","value":"t_array(t_string_storage)dyn_storage"},"t_mapping(t_bytes32,t_mapping(t_string_memory_ptr,t_string_storage))":{"encoding":"mapping","key":"t_bytes32","label":"mapping(bytes32 => mapping(string => string))","numberOfBytes":"32","value":"t_mapping(t_string_memory_ptr,t_string_storage)"},"t_mapping(t_string_memory_ptr,t_string_storage)":{"encoding":"mapping","key":"t_string_memory_ptr","label":"mapping(string => string)","numberOfBytes":"32","value":"t_string_storage"},"t_mapping(t_uint256,t_struct(Lease)60149_storage)":{"encoding":"mapping","key":"t_uint256","label":"mapping(uint256 => struct LeaseFactory.Lease)","numberOfBytes":"32","value":"t_struct(Lease)60149_storage"},"t_string_memory_ptr":{"encoding":"bytes","label":"string","numberOfBytes":"32"},"t_string_storage":{"encoding":"bytes","label":"string","numberOfBytes":"32"},"t_struct(Lease)60149_storage":{"encoding":"inplace","label":"struct LeaseFactory.Lease","numberOfBytes":"352","members":[{"astId":60124,"contract":"src/LeaseFactory.sol:LeaseFactory","label":"lessor","offset":0,"slot":"0","type":"t_address"},{"astId":60126,"contract":"src/LeaseFactory.sol:LeaseFactory","label":"lessee","offset":0,"slot":"1","type":"t_address"},{"astId":60128,"contract":"src/LeaseFactory.sol:LeaseFactory","label":"assetId","offset":0,"slot":"2","type":"t_uint256"},{"astId":60130,"contract":"src/LeaseFactory.sol:LeaseFactory","label":"paymentToken","offset":0,"slot":"3","type":"t_address"},{"astId":60132,"contract":"src/LeaseFactory.sol:LeaseFactory","label":"rentAmount","offset":0,"slot":"4","type":"t_uint256"},{"astId":60134,"contract":"src/LeaseFactory.sol:LeaseFactory","label":"rentPeriod","offset":0,"slot":"5","type":"t_uint256"},{"astId":60136,"contract":"src/LeaseFactory.sol:LeaseFactory","label":"securityDeposit","offset":0,"slot":"6","type":"t_uint256"},{"astId":60138,"contract":"src/LeaseFactory.sol:LeaseFactory","label":"startTime","offset":0,"slot":"7","type":"t_uint64"},{"astId":60140,"contract":"src/LeaseFactory.sol:LeaseFactory","label":"endTime","offset":8,"slot":"7","type":"t_uint64"},{"astId":60142,"contract":"src/LeaseFactory.sol:LeaseFactory","label":"legalDocHash","offset":0,"slot":"8","type":"t_bytes32"},{"astId":60144,"contract":"src/LeaseFactory.sol:LeaseFactory","label":"termsVersion","offset":0,"slot":"9","type":"t_uint16"},{"astId":60148,"contract":"src/LeaseFactory.sol:LeaseFactory","label":"metadata","offset":0,"slot":"10","type":"t_array(t_struct(Metadata)61646_storage)dyn_storage"}]},"t_struct(Metadata)61646_storage":{"encoding":"inplace","label":"struct MetadataStorage.Metadata","numberOfBytes":"64","members":[{"astId":61642,"contract":"src/LeaseFactory.sol:LeaseFactory","label":"key","offset":0,"slot":"0","type":"t_string_storage"},{"astId":61645,"contract":"src/LeaseFactory.sol:LeaseFactory","label":"value","offset":0,"slot":"1","type":"t_string_storage"}]},"t_uint16":{"encoding":"inplace","label":"uint16","numberOfBytes":"2"},"t_uint256":{"encoding":"inplace","label":"uint256","numberOfBytes":"32"},"t_uint64":{"encoding":"inplace","label":"uint64","numberOfBytes":"8"}}},"id":83}