{"abi":[{"type":"function","name":"DEFAULT_ADMIN_ROLE","inputs":[],"outputs":[{"name":"","type":"bytes32","internalType":"bytes32"}],"stateMutability":"view"},{"type":"function","name":"UPGRADE_INTERFACE_VERSION","inputs":[],"outputs":[{"name":"","type":"string","internalType":"string"}],"stateMutability":"view"},{"type":"function","name":"approve","inputs":[{"name":"to","type":"address","internalType":"address"},{"name":"tokenId","type":"uint256","internalType":"uint256"}],"outputs":[],"stateMutability":"nonpayable"},{"type":"function","name":"balanceOf","inputs":[{"name":"owner","type":"address","internalType":"address"}],"outputs":[{"name":"","type":"uint256","internalType":"uint256"}],"stateMutability":"view"},{"type":"function","name":"eip712Domain","inputs":[],"outputs":[{"name":"fields","type":"bytes1","internalType":"bytes1"},{"name":"name","type":"string","internalType":"string"},{"name":"version","type":"string","internalType":"string"},{"name":"chainId","type":"uint256","internalType":"uint256"},{"name":"verifyingContract","type":"address","internalType":"address"},{"name":"salt","type":"bytes32","internalType":"bytes32"},{"name":"extensions","type":"uint256[]","internalType":"uint256[]"}],"stateMutability":"view"},{"type":"function","name":"getAllMetadata","inputs":[{"name":"hash","type":"bytes32","internalType":"bytes32"}],"outputs":[{"name":"metadata","type":"tuple[]","internalType":"struct MetadataStorage.Metadata[]","components":[{"name":"key","type":"string","internalType":"string"},{"name":"value","type":"string","internalType":"string"}]}],"stateMutability":"view"},{"type":"function","name":"getAllMetadata","inputs":[{"name":"tokenId","type":"uint256","internalType":"uint256"}],"outputs":[{"name":"metadata","type":"tuple[]","internalType":"struct MetadataStorage.Metadata[]","components":[{"name":"key","type":"string","internalType":"string"},{"name":"value","type":"string","internalType":"string"}]}],"stateMutability":"view"},{"type":"function","name":"getAllMetadataKeys","inputs":[{"name":"hash","type":"bytes32","internalType":"bytes32"}],"outputs":[{"name":"keys","type":"string[]","internalType":"string[]"}],"stateMutability":"view"},{"type":"function","name":"getApproved","inputs":[{"name":"tokenId","type":"uint256","internalType":"uint256"}],"outputs":[{"name":"","type":"address","internalType":"address"}],"stateMutability":"view"},{"type":"function","name":"getMetadata","inputs":[{"name":"hash","type":"bytes32","internalType":"bytes32"},{"name":"key","type":"string","internalType":"string"}],"outputs":[{"name":"value","type":"string","internalType":"string"}],"stateMutability":"view"},{"type":"function","name":"getMetadata","inputs":[{"name":"tokenId","type":"uint256","internalType":"uint256"},{"name":"key","type":"string","internalType":"string"}],"outputs":[{"name":"value","type":"string","internalType":"string"}],"stateMutability":"view"},{"type":"function","name":"getMetadataCount","inputs":[{"name":"hash","type":"bytes32","internalType":"bytes32"}],"outputs":[{"name":"count","type":"uint256","internalType":"uint256"}],"stateMutability":"view"},{"type":"function","name":"getMetadataCount","inputs":[{"name":"tokenId","type":"uint256","internalType":"uint256"}],"outputs":[{"name":"count","type":"uint256","internalType":"uint256"}],"stateMutability":"view"},{"type":"function","name":"getMetadataKeys","inputs":[{"name":"tokenId","type":"uint256","internalType":"uint256"}],"outputs":[{"name":"keys","type":"string[]","internalType":"string[]"}],"stateMutability":"view"},{"type":"function","name":"getRoleAdmin","inputs":[{"name":"role","type":"bytes32","internalType":"bytes32"}],"outputs":[{"name":"","type":"bytes32","internalType":"bytes32"}],"stateMutability":"view"},{"type":"function","name":"getTokenIdHash","inputs":[{"name":"tokenId","type":"uint256","internalType":"uint256"}],"outputs":[{"name":"hash","type":"bytes32","internalType":"bytes32"}],"stateMutability":"pure"},{"type":"function","name":"getUupsImplementation","inputs":[],"outputs":[{"name":"","type":"address","internalType":"address"}],"stateMutability":"view"},{"type":"function","name":"grantRole","inputs":[{"name":"role","type":"bytes32","internalType":"bytes32"},{"name":"account","type":"address","internalType":"address"}],"outputs":[],"stateMutability":"nonpayable"},{"type":"function","name":"hasMetadata","inputs":[{"name":"tokenId","type":"uint256","internalType":"uint256"},{"name":"key","type":"string","internalType":"string"}],"outputs":[{"name":"exists","type":"bool","internalType":"bool"}],"stateMutability":"view"},{"type":"function","name":"hasMetadata","inputs":[{"name":"hash","type":"bytes32","internalType":"bytes32"},{"name":"key","type":"string","internalType":"string"}],"outputs":[{"name":"exists","type":"bool","internalType":"bool"}],"stateMutability":"view"},{"type":"function","name":"hasRole","inputs":[{"name":"role","type":"bytes32","internalType":"bytes32"},{"name":"account","type":"address","internalType":"address"}],"outputs":[{"name":"","type":"bool","internalType":"bool"}],"stateMutability":"view"},{"type":"function","name":"hashLeaseIntent","inputs":[{"name":"L","type":"tuple","internalType":"struct LeaseFactory.LeaseIntent","components":[{"name":"deadline","type":"uint64","internalType":"uint64"},{"name":"assetTypeSchemaHash","type":"bytes32","internalType":"bytes32"},{"name":"lease","type":"tuple","internalType":"struct LeaseFactory.Lease","components":[{"name":"lessor","type":"address","internalType":"address"},{"name":"lessee","type":"address","internalType":"address"},{"name":"assetId","type":"uint256","internalType":"uint256"},{"name":"paymentToken","type":"address","internalType":"address"},{"name":"rentAmount","type":"uint256","internalType":"uint256"},{"name":"rentPeriod","type":"uint256","internalType":"uint256"},{"name":"securityDeposit","type":"uint256","internalType":"uint256"},{"name":"startTime","type":"uint64","internalType":"uint64"},{"name":"endTime","type":"uint64","internalType":"uint64"},{"name":"legalDocHash","type":"bytes32","internalType":"bytes32"},{"name":"termsVersion","type":"uint16","internalType":"uint16"},{"name":"metadata","type":"tuple[]","internalType":"struct MetadataStorage.Metadata[]","components":[{"name":"key","type":"string","internalType":"string"},{"name":"value","type":"string","internalType":"string"}]}]}]}],"outputs":[{"name":"","type":"bytes32","internalType":"bytes32"}],"stateMutability":"view"},{"type":"function","name":"initialize","inputs":[{"name":"admin","type":"address","internalType":"address"},{"name":"upgrader","type":"address","internalType":"address"},{"name":"assetRegistry","type":"address","internalType":"address"}],"outputs":[],"stateMutability":"nonpayable"},{"type":"function","name":"isApprovedForAll","inputs":[{"name":"owner","type":"address","internalType":"address"},{"name":"operator","type":"address","internalType":"address"}],"outputs":[{"name":"","type":"bool","internalType":"bool"}],"stateMutability":"view"},{"type":"function","name":"leaseId","inputs":[],"outputs":[{"name":"","type":"uint256","internalType":"uint256"}],"stateMutability":"view"},{"type":"function","name":"leases","inputs":[{"name":"","type":"uint256","internalType":"uint256"}],"outputs":[{"name":"lessor","type":"address","internalType":"address"},{"name":"lessee","type":"address","internalType":"address"},{"name":"assetId","type":"uint256","internalType":"uint256"},{"name":"paymentToken","type":"address","internalType":"address"},{"name":"rentAmount","type":"uint256","internalType":"uint256"},{"name":"rentPeriod","type":"uint256","internalType":"uint256"},{"name":"securityDeposit","type":"uint256","internalType":"uint256"},{"name":"startTime","type":"uint64","internalType":"uint64"},{"name":"endTime","type":"uint64","internalType":"uint64"},{"name":"legalDocHash","type":"bytes32","internalType":"bytes32"},{"name":"termsVersion","type":"uint16","internalType":"uint16"}],"stateMutability":"view"},{"type":"function","name":"mintLease","inputs":[{"name":"L","type":"tuple","internalType":"struct LeaseFactory.LeaseIntent","components":[{"name":"deadline","type":"uint64","internalType":"uint64"},{"name":"assetTypeSchemaHash","type":"bytes32","internalType":"bytes32"},{"name":"lease","type":"tuple","internalType":"struct LeaseFactory.Lease","components":[{"name":"lessor","type":"address","internalType":"address"},{"name":"lessee","type":"address","internalType":"address"},{"name":"assetId","type":"uint256","internalType":"uint256"},{"name":"paymentToken","type":"address","internalType":"address"},{"name":"rentAmount","type":"uint256","internalType":"uint256"},{"name":"rentPeriod","type":"uint256","internalType":"uint256"},{"name":"securityDeposit","type":"uint256","internalType":"uint256"},{"name":"startTime","type":"uint64","internalType":"uint64"},{"name":"endTime","type":"uint64","internalType":"uint64"},{"name":"legalDocHash","type":"bytes32","internalType":"bytes32"},{"name":"termsVersion","type":"uint16","internalType":"uint16"},{"name":"metadata","type":"tuple[]","internalType":"struct MetadataStorage.Metadata[]","components":[{"name":"key","type":"string","internalType":"string"},{"name":"value","type":"string","internalType":"string"}]}]}]},{"name":"sigLessor","type":"bytes","internalType":"bytes"},{"name":"sigLessee","type":"bytes","internalType":"bytes"}],"outputs":[{"name":"tokenId","type":"uint256","internalType":"uint256"}],"stateMutability":"nonpayable"},{"type":"function","name":"name","inputs":[],"outputs":[{"name":"","type":"string","internalType":"string"}],"stateMutability":"view"},{"type":"function","name":"ownerOf","inputs":[{"name":"tokenId","type":"uint256","internalType":"uint256"}],"outputs":[{"name":"","type":"address","internalType":"address"}],"stateMutability":"view"},{"type":"function","name":"proxiableUUID","inputs":[],"outputs":[{"name":"","type":"bytes32","internalType":"bytes32"}],"stateMutability":"view"},{"type":"function","name":"registry","inputs":[],"outputs":[{"name":"","type":"address","internalType":"contract AssetRegistry"}],"stateMutability":"view"},{"type":"function","name":"removeMetadata","inputs":[{"name":"hash","type":"bytes32","internalType":"bytes32"},{"name":"key","type":"string","internalType":"string"}],"outputs":[],"stateMutability":"nonpayable"},{"type":"function","name":"removeMetadata","inputs":[{"name":"tokenId","type":"uint256","internalType":"uint256"},{"name":"key","type":"string","internalType":"string"}],"outputs":[],"stateMutability":"nonpayable"},{"type":"function","name":"renounceRole","inputs":[{"name":"role","type":"bytes32","internalType":"bytes32"},{"name":"callerConfirmation","type":"address","internalType":"address"}],"outputs":[],"stateMutability":"nonpayable"},{"type":"function","name":"revokeRole","inputs":[{"name":"role","type":"bytes32","internalType":"bytes32"},{"name":"account","type":"address","internalType":"address"}],"outputs":[],"stateMutability":"nonpayable"},{"type":"function","name":"safeTransferFrom","inputs":[{"name":"from","type":"address","internalType":"address"},{"name":"to","type":"address","internalType":"address"},{"name":"tokenId","type":"uint256","internalType":"uint256"}],"outputs":[],"stateMutability":"nonpayable"},{"type":"function","name":"safeTransferFrom","inputs":[{"name":"from","type":"address","internalType":"address"},{"name":"to","type":"address","internalType":"address"},{"name":"tokenId","type":"uint256","internalType":"uint256"},{"name":"data","type":"bytes","internalType":"bytes"}],"outputs":[],"stateMutability":"nonpayable"},{"type":"function","name":"setApprovalForAll","inputs":[{"name":"operator","type":"address","internalType":"address"},{"name":"approved","type":"bool","internalType":"bool"}],"outputs":[],"stateMutability":"nonpayable"},{"type":"function","name":"setMetadata","inputs":[{"name":"tokenId","type":"uint256","internalType":"uint256"},{"name":"metadata_","type":"tuple[]","internalType":"struct MetadataStorage.Metadata[]","components":[{"name":"key","type":"string","internalType":"string"},{"name":"value","type":"string","internalType":"string"}]}],"outputs":[],"stateMutability":"nonpayable"},{"type":"function","name":"setMetadata","inputs":[{"name":"hash","type":"bytes32","internalType":"bytes32"},{"name":"metadata_","type":"tuple[]","internalType":"struct MetadataStorage.Metadata[]","components":[{"name":"key","type":"string","internalType":"string"},{"name":"value","type":"string","internalType":"string"}]}],"outputs":[],"stateMutability":"nonpayable"},{"type":"function","name":"supportsInterface","inputs":[{"name":"interfaceId","type":"bytes4","internalType":"bytes4"}],"outputs":[{"name":"","type":"bool","internalType":"bool"}],"stateMutability":"view"},{"type":"function","name":"symbol","inputs":[],"outputs":[{"name":"","type":"string","internalType":"string"}],"stateMutability":"view"},{"type":"function","name":"tokenURI","inputs":[{"name":"tokenId","type":"uint256","internalType":"uint256"}],"outputs":[{"name":"","type":"string","internalType":"string"}],"stateMutability":"view"},{"type":"function","name":"transferFrom","inputs":[{"name":"from","type":"address","internalType":"address"},{"name":"to","type":"address","internalType":"address"},{"name":"tokenId","type":"uint256","internalType":"uint256"}],"outputs":[],"stateMutability":"nonpayable"},{"type":"function","name":"upgradeToAndCall","inputs":[{"name":"newImplementation","type":"address","internalType":"address"},{"name":"data","type":"bytes","internalType":"bytes"}],"outputs":[],"stateMutability":"payable"},{"type":"event","name":"Approval","inputs":[{"name":"owner","type":"address","indexed":true,"internalType":"address"},{"name":"approved","type":"address","indexed":true,"internalType":"address"},{"name":"tokenId","type":"uint256","indexed":true,"internalType":"uint256"}],"anonymous":false},{"type":"event","name":"ApprovalForAll","inputs":[{"name":"owner","type":"address","indexed":true,"internalType":"address"},{"name":"operator","type":"address","indexed":true,"internalType":"address"},{"name":"approved","type":"bool","indexed":false,"internalType":"bool"}],"anonymous":false},{"type":"event","name":"EIP712DomainChanged","inputs":[],"anonymous":false},{"type":"event","name":"Initialized","inputs":[{"name":"version","type":"uint64","indexed":false,"internalType":"uint64"}],"anonymous":false},{"type":"event","name":"LeaseMinted","inputs":[{"name":"tokenId","type":"uint256","indexed":true,"internalType":"uint256"},{"name":"lessor","type":"address","indexed":true,"internalType":"address"},{"name":"lessee","type":"address","indexed":true,"internalType":"address"},{"name":"assetId","type":"uint256","indexed":false,"internalType":"uint256"}],"anonymous":false},{"type":"event","name":"MetadataRemoved","inputs":[{"name":"hash","type":"bytes32","indexed":true,"internalType":"bytes32"},{"name":"key","type":"string","indexed":false,"internalType":"string"}],"anonymous":false},{"type":"event","name":"MetadataUpdated","inputs":[{"name":"hash","type":"bytes32","indexed":true,"internalType":"bytes32"},{"name":"key","type":"string","indexed":false,"internalType":"string"},{"name":"value","type":"string","indexed":false,"internalType":"string"}],"anonymous":false},{"type":"event","name":"RoleAdminChanged","inputs":[{"name":"role","type":"bytes32","indexed":true,"internalType":"bytes32"},{"name":"previousAdminRole","type":"bytes32","indexed":true,"internalType":"bytes32"},{"name":"newAdminRole","type":"bytes32","indexed":true,"internalType":"bytes32"}],"anonymous":false},{"type":"event","name":"RoleGranted","inputs":[{"name":"role","type":"bytes32","indexed":true,"internalType":"bytes32"},{"name":"account","type":"address","indexed":true,"internalType":"address"},{"name":"sender","type":"address","indexed":true,"internalType":"address"}],"anonymous":false},{"type":"event","name":"RoleRevoked","inputs":[{"name":"role","type":"bytes32","indexed":true,"internalType":"bytes32"},{"name":"account","type":"address","indexed":true,"internalType":"address"},{"name":"sender","type":"address","indexed":true,"internalType":"address"}],"anonymous":false},{"type":"event","name":"Transfer","inputs":[{"name":"from","type":"address","indexed":true,"internalType":"address"},{"name":"to","type":"address","indexed":true,"internalType":"address"},{"name":"tokenId","type":"uint256","indexed":true,"internalType":"uint256"}],"anonymous":false},{"type":"event","name":"Upgraded","inputs":[{"name":"implementation","type":"address","indexed":true,"internalType":"address"}],"anonymous":false},{"type":"error","name":"AccessControlBadConfirmation","inputs":[]},{"type":"error","name":"AccessControlUnauthorizedAccount","inputs":[{"name":"account","type":"address","internalType":"address"},{"name":"neededRole","type":"bytes32","internalType":"bytes32"}]},{"type":"error","name":"AddressEmptyCode","inputs":[{"name":"target","type":"address","internalType":"address"}]},{"type":"error","name":"ECDSAInvalidSignature","inputs":[]},{"type":"error","name":"ECDSAInvalidSignatureLength","inputs":[{"name":"length","type":"uint256","internalType":"uint256"}]},{"type":"error","name":"ECDSAInvalidSignatureS","inputs":[{"name":"s","type":"bytes32","internalType":"bytes32"}]},{"type":"error","name":"ERC1967InvalidImplementation","inputs":[{"name":"implementation","type":"address","internalType":"address"}]},{"type":"error","name":"ERC1967NonPayable","inputs":[]},{"type":"error","name":"ERC721IncorrectOwner","inputs":[{"name":"sender","type":"address","internalType":"address"},{"name":"tokenId","type":"uint256","internalType":"uint256"},{"name":"owner","type":"address","internalType":"address"}]},{"type":"error","name":"ERC721InsufficientApproval","inputs":[{"name":"operator","type":"address","internalType":"address"},{"name":"tokenId","type":"uint256","internalType":"uint256"}]},{"type":"error","name":"ERC721InvalidApprover","inputs":[{"name":"approver","type":"address","internalType":"address"}]},{"type":"error","name":"ERC721InvalidOperator","inputs":[{"name":"operator","type":"address","internalType":"address"}]},{"type":"error","name":"ERC721InvalidOwner","inputs":[{"name":"owner","type":"address","internalType":"address"}]},{"type":"error","name":"ERC721InvalidReceiver","inputs":[{"name":"receiver","type":"address","internalType":"address"}]},{"type":"error","name":"ERC721InvalidSender","inputs":[{"name":"sender","type":"address","internalType":"address"}]},{"type":"error","name":"ERC721NonexistentToken","inputs":[{"name":"tokenId","type":"uint256","internalType":"uint256"}]},{"type":"error","name":"FailedCall","inputs":[]},{"type":"error","name":"InvalidInitialization","inputs":[]},{"type":"error","name":"NotInitializing","inputs":[]},{"type":"error","name":"UUPSUnauthorizedCallContext","inputs":[]},{"type":"error","name":"UUPSUnsupportedProxiableUUID","inputs":[{"name":"slot","type":"bytes32","internalType":"bytes32"}]}],"bytecode":{"object":"0x60a080604052346100c257306080525f51602061587e5f395f51905f525460ff8160401c166100b3576002600160401b03196001600160401b03821601610060575b6040516157b790816100c7823960805181818161240f01526124f10152f35b6001600160401b0319166001600160401b039081175f51602061587e5f395f51905f525581527fc7f505b2f371ae2175ee4913f4499e1f2633a7b5936321eed1cdaeb6115181d290602090a15f80610041565b63f92ee8a960e01b5f5260045ffd5b5f80fdfe6080806040526004361015610012575f80fd5b5f3560e01c90816301ffc9a71461339e5750806305daf3681461336157806306fdde0314613260578063081812fc146131db578063095ea7b31461301b5780630e1ae91b14612f9157806313d3755014612f6e578063236b8eb314612d3857806323b872dd14612d21578063248a9ca314612cb957806326f389ba14612bfd5780632b679e3014612bb85780632f2ff15d14612b3d57806330c79cfe14612b02578063358410d514612a9257806336568abe14612a0a5780633b41f4ea1461289b57806342842e0e1461286c5780634547bd64146127f15780634f1ef2861461248757806352d1902d146123ca5780635cb0e05a146123815780635e597156146123395780636352211e146122df57806370a082311461220e5780637577d42814611f715780637b10399914611f2057806384b0196e14611d7b5780638927a10614611c735780638c5acee714611c2257806391d1485414611b8e57806393e3f3b014611b3e57806395d89b41146119fa5780639af66ccd14610935578063a217fddf146108fd578063a22cb465146107df578063ad3cb1cc14610762578063b88d4fde146106e9578063c0c53b8b14610433578063c87b56dd146103f6578063cb4799f2146103ae578063d547741f1461032c578063e5e0a25d14610309578063e985e9c5146102535763ff74ef301461020b575f80fd5b3461024f5760207ffffffffffffffffffffffffffffffffffffffffffffffffffffffffffffffffc36011261024f576020610247600435614889565b604051908152f35b5f80fd5b3461024f5760407ffffffffffffffffffffffffffffffffffffffffffffffffffffffffffffffffc36011261024f5761028a61359e565b73ffffffffffffffffffffffffffffffffffffffff6102ee6102aa6135c1565b9273ffffffffffffffffffffffffffffffffffffffff165f527f80bb2b638cc20bc4d0a60d66940f3ab4a00c1d7b313497ca82fb0b4ab007930560205260405f2090565b91165f52602052602060ff60405f2054166040519015158152f35b3461024f57602061032261031c366136fd565b9161485b565b6040519015158152f35b3461024f5760407ffffffffffffffffffffffffffffffffffffffffffffffffffffffffffffffffc36011261024f576103ac6004356103696135c1565b906103a76103a2825f527f02dd7bc7dec4dceedda775e58dd541e08a116c6c53815c0bd028192f7b626800602052600160405f20015490565b6149a4565b614d27565b005b3461024f576103f26103de6103d06103d86103c8366136fd565b939091614889565b92369161367b565b90613c08565b6040519182916020835260208301906134be565b0390f35b3461024f5760207ffffffffffffffffffffffffffffffffffffffffffffffffffffffffffffffffc36011261024f576103f26103de6004356144f5565b3461024f5760607ffffffffffffffffffffffffffffffffffffffffffffffffffffffffffffffffc36011261024f5761046a61359e565b6104726135c1565b906044359173ffffffffffffffffffffffffffffffffffffffff831680930361024f577ff0c57e16840df040f15088dc2f81fe391c3923bec73e23a9662efc9c229c6a00549267ffffffffffffffff60ff8560401c16159416801590816106e1575b60011490816106d7575b1590816106ce575b506106a65761059692610590918560017fffffffffffffffffffffffffffffffffffffffffffffffff00000000000000007ff0c57e16840df040f15088dc2f81fe391c3923bec73e23a9662efc9c229c6a005416177ff0c57e16840df040f15088dc2f81fe391c3923bec73e23a9662efc9c229c6a0055610630575b7fffffffffffffffffffffffff00000000000000000000000000000000000000006003541617600355614a2a565b50614b11565b5061059d57005b7fffffffffffffffffffffffffffffffffffffffffffffff00ffffffffffffffff7ff0c57e16840df040f15088dc2f81fe391c3923bec73e23a9662efc9c229c6a0054167ff0c57e16840df040f15088dc2f81fe391c3923bec73e23a9662efc9c229c6a00557fc7f505b2f371ae2175ee4913f4499e1f2633a7b5936321eed1cdaeb6115181d2602060405160018152a1005b680100000000000000007fffffffffffffffffffffffffffffffffffffffffffffff00ffffffffffffffff7ff0c57e16840df040f15088dc2f81fe391c3923bec73e23a9662efc9c229c6a005416177ff0c57e16840df040f15088dc2f81fe391c3923bec73e23a9662efc9c229c6a0055610562565b7ff92ee8a9000000000000000000000000000000000000000000000000000000005f5260045ffd5b905015856104e6565b303b1591506104de565b8591506104d4565b3461024f5760807ffffffffffffffffffffffffffffffffffffffffffffffffffffffffffffffffc36011261024f5761072061359e565b6107286135c1565b906044356064359267ffffffffffffffff841161024f576107506103ac9436906004016136b1565b9261075c838383613c3f565b336152be565b3461024f575f7ffffffffffffffffffffffffffffffffffffffffffffffffffffffffffffffffc36011261024f576103f26040516107a1604082613600565b600581527f352e302e3000000000000000000000000000000000000000000000000000000060208201526040519182916020835260208301906134be565b3461024f5760407ffffffffffffffffffffffffffffffffffffffffffffffffffffffffffffffffc36011261024f5761081661359e565b6024359081151580920361024f5773ffffffffffffffffffffffffffffffffffffffff169081156108d157335f9081527f80bb2b638cc20bc4d0a60d66940f3ab4a00c1d7b313497ca82fb0b4ab007930560205260409020825f5260205260405f207fffffffffffffffffffffffffffffffffffffffffffffffffffffffffffffff0081541660ff83161790556040519081527f17307eab39ab6107e8899845ad3d59bd9653f200f220920489ca2b5937696c3160203392a3005b507f5b08ba18000000000000000000000000000000000000000000000000000000005f5260045260245ffd5b3461024f575f7ffffffffffffffffffffffffffffffffffffffffffffffffffffffffffffffffc36011261024f5760206040515f8152f35b3461024f5760607ffffffffffffffffffffffffffffffffffffffffffffffffffffffffffffffffc36011261024f5760043567ffffffffffffffff811161024f578060040160607ffffffffffffffffffffffffffffffffffffffffffffffffffffffffffffffffc833603011261024f5760243567ffffffffffffffff811161024f576109c69036906004016136cf565b909260443567ffffffffffffffff811161024f576109e89036906004016136cf565b92909167ffffffffffffffff6109fd866143d8565b16421161199c5760440194610a1d60e0610a1788886143ed565b016143d8565b67ffffffffffffffff80610a37610100610a178b8b6143ed565b169116101561193e5773ffffffffffffffffffffffffffffffffffffffff6003541660206040610a6789896143ed565b01356024604051809481937f518e2bdd00000000000000000000000000000000000000000000000000000000835260048301525afa908115611933575f916118f8575b501561189a57610ad1610acb610ada92610ac388614e2f565b94369161367b565b8361546a565b909291926154a4565b73ffffffffffffffffffffffffffffffffffffffff80610b02610afd89896143ed565b614420565b1691160361183c57610b1c610ad192610b2294369161367b565b9061546a565b73ffffffffffffffffffffffffffffffffffffffff80610b4d6020610b4787876143ed565b01614420565b169116036117de576002547fffffffffffffffffffffffffffffffffffffffffffffffffffffffffffffffff81146114e15760018101600255610b956020610b4785856143ed565b602090604051610ba58382613600565b5f815273ffffffffffffffffffffffffffffffffffffffff82169182156117b257610c0e855f527f80bb2b638cc20bc4d0a60d66940f3ab4a00c1d7b313497ca82fb0b4ab007930260205273ffffffffffffffffffffffffffffffffffffffff60405f20541690565b73ffffffffffffffffffffffffffffffffffffffff811690868583151593846116ea575b610c798673ffffffffffffffffffffffffffffffffffffffff165f527f80bb2b638cc20bc4d0a60d66940f3ab4a00c1d7b313497ca82fb0b4ab007930360205260405f2090565b60018154019055825f527f80bb2b638cc20bc4d0a60d66940f3ab4a00c1d7b313497ca82fb0b4ab0079302895260405f20827fffffffffffffffffffffffff00000000000000000000000000000000000000008254161790557fddf252ad1be2c89b69c2b068fc378daa952ba7f163c4a11628f55a4df523b3ef5f80a4506116be573b61150e575b5050610d0d84846143ed565b825f5260048252610f06600a60405f2073ffffffffffffffffffffffffffffffffffffffff610d3b85614420565b167fffffffffffffffffffffffff0000000000000000000000000000000000000000825416178155610d6e858501614420565b73ffffffffffffffffffffffffffffffffffffffff6001830191167fffffffffffffffffffffffff000000000000000000000000000000000000000082541617905560408401356002820155610dc660608501614420565b73ffffffffffffffffffffffffffffffffffffffff6003830191167fffffffffffffffffffffffff00000000000000000000000000000000000000008254161790556080840135600482015560a0840135600582015560c084013560068201556007810167ffffffffffffffff610e3f60e087016143d8565b167fffffffffffffffffffffffffffffffffffffffffffffffff0000000000000000825416178155610e7461010086016143d8565b7fffffffffffffffffffffffffffffffff0000000000000000ffffffffffffffff6fffffffffffffffff000000000000000083549260401b16911617905561012084013560088201556009810161ffff610ed16101408701614441565b167fffffffffffffffffffffffffffffffffffffffffffffffffffffffffffff00008254161790550191610160810190614450565b9168010000000000000000831161112b578054838255808410611451575b50819291905f52835f20905f937fffffffffffffffffffffffffffffffffffffffffffffffffffffffffffffffc181360301915b8486106111d05750505050505060405181810190838252828152610f7d604082613600565b51902091610fa3610f9c610f9187876143ed565b610160810190614450565b3691613856565b94610fac61493c565b5f5b865181101561115857845f525f8452610ff0848060405f20610fd0858c613a46565b515190604051938285935191829101845e82019081520301902054613955565b1561103885610fff848b613a46565b510151875f525f875286808b6110198760405f2092613a46565b515190604051938285935191829101845e82019081520301902061425c565b6110ad575b80857fc42c4edbc41dce02b01dd098a1f7a4c685c638d7a2fdfbe449b32e1f89fbfae16110978a6110a4896110808761107860019a86613a46565b515194613a46565b5101516040519384936040855260408501906134be565b908382038c8501526134be565b0390a201610fae565b845f526001845260405f20906110c38189613a46565b51519180546801000000000000000081101561112b576110e891600182018155613913565b6110ff576001926110f89161425c565b905061103d565b7f4e487b71000000000000000000000000000000000000000000000000000000005f525f60045260245ffd5b7f4e487b71000000000000000000000000000000000000000000000000000000005f52604160045260245ffd5b5084827fefe2f746143aa1d2f03b11088ab609d0d5fd98fa818fa1da44c1874718665cf98573ffffffffffffffffffffffffffffffffffffffff8060406111ba6111a5610afd8a8a6143ed565b986111b486610b47838c6143ed565b986143ed565b01359560405196875216951693a4604051908152f35b80358381121561024f5782016111e681806144a4565b9067ffffffffffffffff821161112b5761120a826112048954613955565b896140de565b5f90601f83116001146113b15761125692915f91836113a6575b50507fffffffffffffffffffffffffffffffffffffffffffffffffffffffffffffffff8260011b9260031b1c19161790565b85555b61126a6001860191898101906144a4565b67ffffffffffffffff819392931161112b5789926112928261128c8554613955565b856140de565b5f90601f83116001146112ff57826001969360029695936112e5935f926112f45750507fffffffffffffffffffffffffffffffffffffffffffffffffffffffffffffffff8260011b9260031b1c19161790565b90555b01940195019492610f58565b013590505f80611224565b7fffffffffffffffffffffffffffffffffffffffffffffffffffffffffffffffe0831691845f52855f20925f5b81811061138e575092600197949192889383600299989610611356575b505050811b0190556112e8565b7fffffffffffffffffffffffffffffffffffffffffffffffffffffffffffffffff60f88560031b161c199101351690555f8080611349565b8284013585558e97600190950194928301920161132c565b013590508e80611224565b7fffffffffffffffffffffffffffffffffffffffffffffffffffffffffffffffe0831691885f528b5f20925f5b8d82821061143b575050908460019594939210611403575b505050811b018555611259565b7fffffffffffffffffffffffffffffffffffffffffffffffffffffffffffffffff60f88560031b161c199101351690558d80806113f6565b60018496829395870135815501950192016113de565b7f7fffffffffffffffffffffffffffffffffffffffffffffffffffffffffffffff811681036114e1577f7fffffffffffffffffffffffffffffffffffffffffffffffffffffffffffffff841684036114e157815f52845f209060011b8101908460011b015b8181106114c35750610f24565b806114cf600292614080565b6114db60018201614080565b016114b6565b7f4e487b71000000000000000000000000000000000000000000000000000000005f52601160045260245ffd5b826115679160409795939796949651809381927f150b7a020000000000000000000000000000000000000000000000000000000083523360048401525f60248401528660448401526080606484015260848301906134be565b03815f8a5af15f9181611666575b506115e35785853d156115db573d9061158d82613641565b9161159b6040519384613600565b82523d5f8284013e5b815191826115d857837f64a0ae92000000000000000000000000000000000000000000000000000000005f5260045260245ffd5b01fd5b6060906115a4565b7fffffffff000000000000000000000000000000000000000000000000000000007f150b7a02000000000000000000000000000000000000000000000000000000009196929496959395160361163b57508480610d01565b7f64a0ae92000000000000000000000000000000000000000000000000000000005f5260045260245ffd5b9091508581813d83116116b7575b61167e8183613600565b8101031261024f57517fffffffff000000000000000000000000000000000000000000000000000000008116810361024f579087611575565b503d611674565b7f73c6ac6e000000000000000000000000000000000000000000000000000000005f525f60045260245ffd5b611740835f527f80bb2b638cc20bc4d0a60d66940f3ab4a00c1d7b313497ca82fb0b4ab007930460205260405f207fffffffffffffffffffffffff00000000000000000000000000000000000000008154169055565b6117878473ffffffffffffffffffffffffffffffffffffffff165f527f80bb2b638cc20bc4d0a60d66940f3ab4a00c1d7b313497ca82fb0b4ab007930360205260405f2090565b7fffffffffffffffffffffffffffffffffffffffffffffffffffffffffffffffff8154019055610c32565b7f64a0ae92000000000000000000000000000000000000000000000000000000005f525f60045260245ffd5b60646040517f08c379a000000000000000000000000000000000000000000000000000000000815260206004820152601260248201527f6c65737365652073696720696e76616c696400000000000000000000000000006044820152fd5b60646040517f08c379a000000000000000000000000000000000000000000000000000000000815260206004820152601260248201527f6c6573736f722073696720696e76616c696400000000000000000000000000006044820152fd5b60646040517f08c379a000000000000000000000000000000000000000000000000000000000815260206004820152600d60248201527f61737365742021657869737473000000000000000000000000000000000000006044820152fd5b90506020813d60201161192b575b8161191360209383613600565b8101031261024f5751801515810361024f5787610aaa565b3d9150611906565b6040513d5f823e3d90fd5b60646040517f08c379a000000000000000000000000000000000000000000000000000000000815260206004820152600960248201527f6261642074696d657300000000000000000000000000000000000000000000006044820152fd5b60646040517f08c379a000000000000000000000000000000000000000000000000000000000815260206004820152600760248201527f65787069726564000000000000000000000000000000000000000000000000006044820152fd5b3461024f575f7ffffffffffffffffffffffffffffffffffffffffffffffffffffffffffffffffc36011261024f576040515f7f80bb2b638cc20bc4d0a60d66940f3ab4a00c1d7b313497ca82fb0b4ab007930154611a5781613955565b8084529060018116908115611afc5750600114611a7f575b6103f2836103de81850382613600565b7f80bb2b638cc20bc4d0a60d66940f3ab4a00c1d7b313497ca82fb0b4ab00793015f9081527ff4bad0a69248f59680a4f2b3000328cec71a413447c96781cfe5996daa8c456e939250905b808210611ae2575090915081016020016103de611a6f565b919260018160209254838588010152019101909291611aca565b7fffffffffffffffffffffffffffffffffffffffffffffffffffffffffffffff001660208086019190915291151560051b840190910191506103de9050611a6f565b3461024f5760207ffffffffffffffffffffffffffffffffffffffffffffffffffffffffffffffffc36011261024f57611b78600435614889565b5f526001602052602060405f2054604051908152f35b3461024f5760407ffffffffffffffffffffffffffffffffffffffffffffffffffffffffffffffffc36011261024f57611bc56135c1565b6004355f527f02dd7bc7dec4dceedda775e58dd541e08a116c6c53815c0bd028192f7b62680060205273ffffffffffffffffffffffffffffffffffffffff60405f2091165f52602052602060ff60405f2054166040519015158152f35b3461024f5760207ffffffffffffffffffffffffffffffffffffffffffffffffffffffffffffffffc36011261024f576103f2611c67611c62600435614889565b613a5a565b60405191829182613501565b3461024f5760207ffffffffffffffffffffffffffffffffffffffffffffffffffffffffffffffffc36011261024f576004355f52600460205261016060405f2073ffffffffffffffffffffffffffffffffffffffff8154169073ffffffffffffffffffffffffffffffffffffffff6001820154169067ffffffffffffffff600282015473ffffffffffffffffffffffffffffffffffffffff600384015416600484015460058501549060068601549260078701549461ffff600960088a015499015416986040519a8b5260208b015260408a01526060890152608088015260a087015260c086015281811660e086015260401c16610100840152610120830152610140820152f35b3461024f575f7ffffffffffffffffffffffffffffffffffffffffffffffffffffffffffffffffc36011261024f577fa16a46d94261c7517cc8ff89f61c0ce93598e3c849801011dee649a6a557d100541580611ef7575b15611e9957611e3d611de26150de565b611dea6151ed565b6020611e4b60405192611dfd8385613600565b5f84525f3681376040519586957f0f00000000000000000000000000000000000000000000000000000000000000875260e08588015260e08701906134be565b9085820360408701526134be565b4660608501523060808501525f60a085015283810360c08501528180845192838152019301915f5b828110611e8257505050500390f35b835185528695509381019392810192600101611e73565b60646040517f08c379a000000000000000000000000000000000000000000000000000000000815260206004820152601560248201527f4549503731323a20556e696e697469616c697a656400000000000000000000006044820152fd5b507fa16a46d94261c7517cc8ff89f61c0ce93598e3c849801011dee649a6a557d1015415611dd2565b3461024f575f7ffffffffffffffffffffffffffffffffffffffffffffffffffffffffffffffffc36011261024f57602073ffffffffffffffffffffffffffffffffffffffff60035416604051908152f35b3461024f57611f92611f82366136fd565b929091611f8d61493c565b614889565b91611f9b61493c565b825f525f602052611fc460405f2060206040518092858783378582019081520301902054613955565b156121b057825f525f602052611ff160405f20602060405180928587833785820190815203019020614080565b825f52600160205260405f20905f5b8254808210156121835761202761202e61201a8487613913565b50604051928380926139a6565b0382613600565b6020815191012061204036858861367b565b60208151910120146120555750600101612000565b7fffffffffffffffffffffffffffffffffffffffffffffffffffffffffffffffff8195939495019081116114e1576120906120989186613913565b509185613913565b9190916110ff576120a891614121565b8254908115612156577fca45c60cf1bbd58b2ac673da0d008eb3606c36e814e8d7fe0df3a3e53ecc59b7937fffffffffffffffffffffffffffffffffffffffffffffffffffffffffffffffff604093019061210c6121068383613913565b906140cf565b555b7fffffffffffffffffffffffffffffffffffffffffffffffffffffffffffffffe0601f84845195869460208652816020870152868601375f85828601015201168101030190a2005b7f4e487b71000000000000000000000000000000000000000000000000000000005f52603160045260245ffd5b5050905060407fca45c60cf1bbd58b2ac673da0d008eb3606c36e814e8d7fe0df3a3e53ecc59b79261210e565b60646040517f08c379a000000000000000000000000000000000000000000000000000000000815260206004820152601260248201527f4b657920646f6573206e6f7420657869737400000000000000000000000000006044820152fd5b3461024f5760207ffffffffffffffffffffffffffffffffffffffffffffffffffffffffffffffffc36011261024f5761224561359e565b73ffffffffffffffffffffffffffffffffffffffff8116156122b3576122aa60209173ffffffffffffffffffffffffffffffffffffffff165f527f80bb2b638cc20bc4d0a60d66940f3ab4a00c1d7b313497ca82fb0b4ab007930360205260405f2090565b54604051908152f35b7f89c62b64000000000000000000000000000000000000000000000000000000005f525f60045260245ffd5b3461024f5760207ffffffffffffffffffffffffffffffffffffffffffffffffffffffffffffffffc36011261024f57602061231b6004356148a8565b73ffffffffffffffffffffffffffffffffffffffff60405191168152f35b3461024f5760207ffffffffffffffffffffffffffffffffffffffffffffffffffffffffffffffffc36011261024f576004355f526001602052602060405f2054604051908152f35b3461024f5760207ffffffffffffffffffffffffffffffffffffffffffffffffffffffffffffffffc36011261024f576103f26123be600435614370565b604051918291826137c1565b3461024f575f7ffffffffffffffffffffffffffffffffffffffffffffffffffffffffffffffffc36011261024f5773ffffffffffffffffffffffffffffffffffffffff7f000000000000000000000000000000000000000000000000000000000000000016300361245f5760206040517f360894a13ba1a3210667c828492db98dca3e2076cc3735a920a3ca505d382bbc8152f35b7fe07c8dba000000000000000000000000000000000000000000000000000000005f5260045ffd5b60407ffffffffffffffffffffffffffffffffffffffffffffffffffffffffffffffffc36011261024f576124b961359e565b60243567ffffffffffffffff811161024f576124d99036906004016136b1565b9073ffffffffffffffffffffffffffffffffffffffff7f0000000000000000000000000000000000000000000000000000000000000000168030149081156127af575b5061245f57335f9081527fab71e3f32666744d246edff3f96e4bdafee2e9867098cdd118a979a7464786a8602052604090205460ff161561275f5773ffffffffffffffffffffffffffffffffffffffff8116916040517f52d1902d000000000000000000000000000000000000000000000000000000008152602081600481875afa5f918161272b575b506125d757837f4c9c8ce3000000000000000000000000000000000000000000000000000000005f5260045260245ffd5b807f360894a13ba1a3210667c828492db98dca3e2076cc3735a920a3ca505d382bbc8592036127005750823b156126d557807fffffffffffffffffffffffff00000000000000000000000000000000000000007f360894a13ba1a3210667c828492db98dca3e2076cc3735a920a3ca505d382bbc5416177f360894a13ba1a3210667c828492db98dca3e2076cc3735a920a3ca505d382bbc557fbc7cd75a20ee27fd9adebab32041f755214dbc6bffa90cc0225b39da2e5c2d3b5f80a28051156126a4576103ac9161557c565b5050346126ad57005b7fb398979f000000000000000000000000000000000000000000000000000000005f5260045ffd5b7f4c9c8ce3000000000000000000000000000000000000000000000000000000005f5260045260245ffd5b7faa1d49a4000000000000000000000000000000000000000000000000000000005f5260045260245ffd5b9091506020813d602011612757575b8161274760209383613600565b8101031261024f575190856125a6565b3d915061273a565b7fe2517d3f000000000000000000000000000000000000000000000000000000005f52336004527f189ab7a9244df0848122154315af71fe140f3db0fe014031783b0946b8c9d2e360245260445ffd5b905073ffffffffffffffffffffffffffffffffffffffff7f360894a13ba1a3210667c828492db98dca3e2076cc3735a920a3ca505d382bbc541614158361251c565b3461024f5760207ffffffffffffffffffffffffffffffffffffffffffffffffffffffffffffffffc36011261024f5760043567ffffffffffffffff811161024f5760607ffffffffffffffffffffffffffffffffffffffffffffffffffffffffffffffffc823603011261024f57610247602091600401614e2f565b3461024f576103ac61287d3661374f565b906040519261288d602085613600565b5f845261075c838383613c3f565b3461024f5760407ffffffffffffffffffffffffffffffffffffffffffffffffffffffffffffffffc36011261024f5760043560243567ffffffffffffffff811161024f573660238201121561024f576128fe903690602481600401359101613856565b9061290761493c565b5f5b82518110156103ac57815f525f60205261292d60208060405f20610fd08588613a46565b15612958602061293d8487613a46565b510151845f525f60205260208060405f20611019878a613a46565b6129b7575b80827fc42c4edbc41dce02b01dd098a1f7a4c685c638d7a2fdfbe449b32e1f89fbfae16129a061298f60019588613a46565b51516129ae6020611080878b613a46565b9083820360208501526134be565b0390a201612909565b815f52600160205260405f20906129ce8185613a46565b51519180546801000000000000000081101561112b576129f391600182018155613913565b6110ff57600192612a039161425c565b905061295d565b3461024f5760407ffffffffffffffffffffffffffffffffffffffffffffffffffffffffffffffffc36011261024f57612a416135c1565b3373ffffffffffffffffffffffffffffffffffffffff821603612a6a576103ac90600435614d27565b7f6697b232000000000000000000000000000000000000000000000000000000005f5260045ffd5b3461024f575f7ffffffffffffffffffffffffffffffffffffffffffffffffffffffffffffffffc36011261024f57602073ffffffffffffffffffffffffffffffffffffffff7f360894a13ba1a3210667c828492db98dca3e2076cc3735a920a3ca505d382bbc5416604051908152f35b3461024f575f7ffffffffffffffffffffffffffffffffffffffffffffffffffffffffffffffffc36011261024f576020600254604051908152f35b3461024f5760407ffffffffffffffffffffffffffffffffffffffffffffffffffffffffffffffffc36011261024f576103ac600435612b7a6135c1565b90612bb36103a2825f527f02dd7bc7dec4dceedda775e58dd541e08a116c6c53815c0bd028192f7b626800602052600160405f20015490565b614c15565b3461024f5760207ffffffffffffffffffffffffffffffffffffffffffffffffffffffffffffffffc36011261024f576103f26123be612bf8600435614889565b614370565b3461024f57612c0b366136fd565b612c1361493c565b825f525f602052612c3c60405f2060206040518092858783378582019081520301902054613955565b156121b057825f525f602052612c6960405f20602060405180928587833785820190815203019020614080565b825f52600160205260405f20905f5b82548082101561218357612027612c9261201a8487613913565b60208151910120612ca436858861367b565b60208151910120146120555750600101612c78565b3461024f5760207ffffffffffffffffffffffffffffffffffffffffffffffffffffffffffffffffc36011261024f5760206102476004355f527f02dd7bc7dec4dceedda775e58dd541e08a116c6c53815c0bd028192f7b626800602052600160405f20015490565b3461024f576103ac612d323661374f565b91613c3f565b3461024f5760407ffffffffffffffffffffffffffffffffffffffffffffffffffffffffffffffffc36011261024f5760243560043567ffffffffffffffff821161024f573660238301121561024f5781600401359167ffffffffffffffff831161024f573660248460051b8301011161024f57612db361493c565b73ffffffffffffffffffffffffffffffffffffffff612e10835f527f80bb2b638cc20bc4d0a60d66940f3ab4a00c1d7b313497ca82fb0b4ab007930260205273ffffffffffffffffffffffffffffffffffffffff60405f20541690565b1615612f1057612e22612e2d92614889565b926024369201613856565b90612e3661493c565b5f5b82518110156103ac57815f525f602052612e5c60208060405f20610fd08588613a46565b15612e6c602061293d8487613a46565b612ebd575b80827fc42c4edbc41dce02b01dd098a1f7a4c685c638d7a2fdfbe449b32e1f89fbfae16129a0612ea360019588613a46565b5151612eb46020611080878b613a46565b0390a201612e38565b815f52600160205260405f2090612ed48185613a46565b51519180546801000000000000000081101561112b57612ef991600182018155613913565b6110ff57600192612f099161425c565b9050612e71565b60646040517f08c379a000000000000000000000000000000000000000000000000000000000815260206004820152601060248201527f746f6b656e206e6f74206d696e746564000000000000000000000000000000006044820152fd5b3461024f576020610322612f8c612f84366136fd565b929091614889565b61485b565b3461024f5760407ffffffffffffffffffffffffffffffffffffffffffffffffffffffffffffffffc36011261024f5760243567ffffffffffffffff811161024f576120276103de602080612fec6103f29536906004016136b1565b6004355f525f825260405f20604051938285935191829101845e820190815203019020604051928380926139a6565b3461024f5760407ffffffffffffffffffffffffffffffffffffffffffffffffffffffffffffffffc36011261024f5761305261359e565b60243561305e816148a8565b331515806131bb575b80613149575b61311d57819073ffffffffffffffffffffffffffffffffffffffff80851691167f8c5be1e5ebec7d5bd14f71427d1e84f3dd0314c0f7b2291e5b200ac8c7c3b9255f80a45f527f80bb2b638cc20bc4d0a60d66940f3ab4a00c1d7b313497ca82fb0b4ab007930460205273ffffffffffffffffffffffffffffffffffffffff60405f2091167fffffffffffffffffffffffff00000000000000000000000000000000000000008254161790555f80f35b7fa9fbf51f000000000000000000000000000000000000000000000000000000005f523360045260245ffd5b506131918173ffffffffffffffffffffffffffffffffffffffff165f527f80bb2b638cc20bc4d0a60d66940f3ab4a00c1d7b313497ca82fb0b4ab007930560205260405f2090565b73ffffffffffffffffffffffffffffffffffffffff33165f5260205260ff60405f2054161561306d565b503373ffffffffffffffffffffffffffffffffffffffff82161415613067565b3461024f5760207ffffffffffffffffffffffffffffffffffffffffffffffffffffffffffffffffc36011261024f57602061231b60043561321b816148a8565b505f527f80bb2b638cc20bc4d0a60d66940f3ab4a00c1d7b313497ca82fb0b4ab007930460205273ffffffffffffffffffffffffffffffffffffffff60405f20541690565b3461024f575f7ffffffffffffffffffffffffffffffffffffffffffffffffffffffffffffffffc36011261024f576040515f7f80bb2b638cc20bc4d0a60d66940f3ab4a00c1d7b313497ca82fb0b4ab0079300546132bd81613955565b8084529060018116908115611afc57506001146132e4576103f2836103de81850382613600565b7f80bb2b638cc20bc4d0a60d66940f3ab4a00c1d7b313497ca82fb0b4ab00793005f9081527f37c58c799b6609234b945e882912ee9ad34948a1dfaa20a97485e1a7752bbf81939250905b808210613347575090915081016020016103de611a6f565b91926001816020925483858801015201910190929161332f565b3461024f5760207ffffffffffffffffffffffffffffffffffffffffffffffffffffffffffffffffc36011261024f576103f2611c67600435613a5a565b3461024f5760207ffffffffffffffffffffffffffffffffffffffffffffffffffffffffffffffffc36011261024f57600435907fffffffff00000000000000000000000000000000000000000000000000000000821680920361024f57817f80ac58cd0000000000000000000000000000000000000000000000000000000060209314908115613494575b8115613437575b5015158152f35b7f7965db0b0000000000000000000000000000000000000000000000000000000081149150811561346a575b5083613430565b7f01ffc9a70000000000000000000000000000000000000000000000000000000091501483613463565b7f5b5e139f0000000000000000000000000000000000000000000000000000000081149150613429565b907fffffffffffffffffffffffffffffffffffffffffffffffffffffffffffffffe0601f602080948051918291828752018686015e5f8582860101520116010190565b602081016020825282518091526040820191602060408360051b8301019401925f915b83831061353357505050505090565b909192939460208061358f837fffffffffffffffffffffffffffffffffffffffffffffffffffffffffffffffc086600196030187528951908361357f83516040845260408401906134be565b92015190848184039101526134be565b97019301930191939290613524565b6004359073ffffffffffffffffffffffffffffffffffffffff8216820361024f57565b6024359073ffffffffffffffffffffffffffffffffffffffff8216820361024f57565b6040810190811067ffffffffffffffff82111761112b57604052565b90601f7fffffffffffffffffffffffffffffffffffffffffffffffffffffffffffffffe0910116810190811067ffffffffffffffff82111761112b57604052565b67ffffffffffffffff811161112b57601f017fffffffffffffffffffffffffffffffffffffffffffffffffffffffffffffffe01660200190565b92919261368782613641565b916136956040519384613600565b82948184528183011161024f578281602093845f960137010152565b9080601f8301121561024f578160206136cc9335910161367b565b90565b9181601f8401121561024f5782359167ffffffffffffffff831161024f576020838186019501011161024f57565b9060407ffffffffffffffffffffffffffffffffffffffffffffffffffffffffffffffffc83011261024f57600435916024359067ffffffffffffffff821161024f5761374b916004016136cf565b9091565b7ffffffffffffffffffffffffffffffffffffffffffffffffffffffffffffffffc606091011261024f5760043573ffffffffffffffffffffffffffffffffffffffff8116810361024f579060243573ffffffffffffffffffffffffffffffffffffffff8116810361024f579060443590565b602081016020825282518091526040820191602060408360051b8301019401925f915b8383106137f357505050505090565b909192939460208061382f837fffffffffffffffffffffffffffffffffffffffffffffffffffffffffffffffc0866001960301875289516134be565b970193019301919392906137e4565b67ffffffffffffffff811161112b5760051b60200190565b929190926138638461383e565b936138716040519586613600565b602085828152019060051b82019183831161024f5780915b838310613897575050505050565b823567ffffffffffffffff811161024f57820160408187031261024f57604051916138c1836135e4565b813567ffffffffffffffff811161024f57876138de9184016136b1565b835260208201359267ffffffffffffffff841161024f57613904886020958695016136b1565b83820152815201920191613889565b8054821015613928575f5260205f2001905f90565b7f4e487b71000000000000000000000000000000000000000000000000000000005f52603260045260245ffd5b90600182811c9216801561399c575b602083101461396f57565b7f4e487b71000000000000000000000000000000000000000000000000000000005f52602260045260245ffd5b91607f1691613964565b5f92918154916139b583613955565b8083529260018116908115613a0a57506001146139d157505050565b5f9081526020812093945091925b8383106139f0575060209250010190565b6001816020929493945483858701015201910191906139df565b905060209495507fffffffffffffffffffffffffffffffffffffffffffffffffffffffffffffff0091509291921683830152151560051b010190565b80518210156139285760209160051b010190565b90815f52600160205260405f208054613a728161383e565b613a7f6040519182613600565b8181527fffffffffffffffffffffffffffffffffffffffffffffffffffffffffffffffe0613aac8361383e565b015f5b818110613be357505080945f5b838110613aca575050505050565b613ad48186613913565b50825f525f60205260405f20613aea8388613913565b50604051915f91805490613afd82613955565b9160018116908115613bad5750600114613b78575b5050826020600196959484613b5794612027965203019020612027613b4960405195613b3d876135e4565b604051928380926139a6565b8452604051928380926139a6565b6020820152613b668286613a46565b52613b718185613a46565b5001613abc565b909192505f5260205f205f905b828210613b99575050820190826020613b12565b600181602092548488015201910190613b85565b7fffffffffffffffffffffffffffffffffffffffffffffffffffffffffffffff0016865250508015150283019150826020613b12565b602090604051613bf2816135e4565b6060815260608382015282828601015201613aaf565b602080612027936136cc935f525f825260405f20604051938285935191829101845e820190815203019020604051928380926139a6565b91909173ffffffffffffffffffffffffffffffffffffffff83169081156117b257613ca8835f527f80bb2b638cc20bc4d0a60d66940f3ab4a00c1d7b313497ca82fb0b4ab007930260205273ffffffffffffffffffffffffffffffffffffffff60405f20541690565b833315159384613edd575b73ffffffffffffffffffffffffffffffffffffffff9450613d198584169788613dd75773ffffffffffffffffffffffffffffffffffffffff165f527f80bb2b638cc20bc4d0a60d66940f3ab4a00c1d7b313497ca82fb0b4ab007930360205260405f2090565b60018154019055815f527f80bb2b638cc20bc4d0a60d66940f3ab4a00c1d7b313497ca82fb0b4ab007930260205260405f20817fffffffffffffffffffffffff0000000000000000000000000000000000000000825416179055867fddf252ad1be2c89b69c2b068fc378daa952ba7f163c4a11628f55a4df523b3ef5f80a45016808303613da657505050565b7f64283d7b000000000000000000000000000000000000000000000000000000005f5260045260245260445260645ffd5b613e2d845f527f80bb2b638cc20bc4d0a60d66940f3ab4a00c1d7b313497ca82fb0b4ab007930460205260405f207fffffffffffffffffffffffff00000000000000000000000000000000000000008154169055565b613e748573ffffffffffffffffffffffffffffffffffffffff165f527f80bb2b638cc20bc4d0a60d66940f3ab4a00c1d7b313497ca82fb0b4ab007930360205260405f2090565b7fffffffffffffffffffffffffffffffffffffffffffffffffffffffffffffffff815401905573ffffffffffffffffffffffffffffffffffffffff165f527f80bb2b638cc20bc4d0a60d66940f3ab4a00c1d7b313497ca82fb0b4ab007930360205260405f2090565b91929380915090613f6d575b15613ef75790838392613cb3565b8373ffffffffffffffffffffffffffffffffffffffff8316613f3e577f7e273289000000000000000000000000000000000000000000000000000000005f5260045260245ffd5b7f177e802f000000000000000000000000000000000000000000000000000000005f523360045260245260445ffd5b503373ffffffffffffffffffffffffffffffffffffffff8316148015613ff9575b80613ee957503373ffffffffffffffffffffffffffffffffffffffff613ff2865f527f80bb2b638cc20bc4d0a60d66940f3ab4a00c1d7b313497ca82fb0b4ab007930460205273ffffffffffffffffffffffffffffffffffffffff60405f20541690565b1614613ee9565b506140418273ffffffffffffffffffffffffffffffffffffffff165f527f80bb2b638cc20bc4d0a60d66940f3ab4a00c1d7b313497ca82fb0b4ab007930560205260405f2090565b73ffffffffffffffffffffffffffffffffffffffff33165f5260205260ff60405f205416613f8e565b818110614075575050565b5f815560010161406a565b61408a8154613955565b9081614094575050565b81601f5f93116001146140a65750555b565b818352602083206140c291601f0160051c81019060010161406a565b8082528160208120915555565b906110ff5761408a8154613955565b9190601f81116140ed57505050565b6140a4925f5260205f20906020601f840160051c83019310614117575b601f0160051c019061406a565b909150819061410a565b919091828114614257576141358354613955565b67ffffffffffffffff811161112b57614158816141528454613955565b846140de565b5f93601f82116001146141b4576141a592939482915f926141a95750507fffffffffffffffffffffffffffffffffffffffffffffffffffffffffffffffff8260011b9260031b1c19161790565b9055565b015490505f80611224565b7fffffffffffffffffffffffffffffffffffffffffffffffffffffffffffffffe08216905f5260205f2094835f5260205f20915f5b81811061423f57509583600195969710614208575b505050811b019055565b01547fffffffffffffffffffffffffffffffffffffffffffffffffffffffffffffffff60f88460031b161c191690555f80806141fe565b9192600180602092868b0154815501940192016141e9565b509050565b919091825167ffffffffffffffff811161112b5761427e816141528454613955565b6020601f82116001146142d65781906141a59394955f926142cb5750507fffffffffffffffffffffffffffffffffffffffffffffffffffffffffffffffff8260011b9260031b1c19161790565b015190505f80611224565b7fffffffffffffffffffffffffffffffffffffffffffffffffffffffffffffffe0821690835f52805f20915f5b8181106143585750958360019596971061432157505050811b019055565b01517fffffffffffffffffffffffffffffffffffffffffffffffffffffffffffffffff60f88460031b161c191690555f80806141fe565b9192602060018192868b015181550194019201614303565b5f52600160205260405f2080546143868161383e565b916143946040519384613600565b81835260208301905f5260205f205f915b8383106143b3575050505090565b6001602081926040516143ca8161202781896139a6565b8152019201920191906143a5565b3567ffffffffffffffff8116810361024f5790565b9035907ffffffffffffffffffffffffffffffffffffffffffffffffffffffffffffffe818136030182121561024f570190565b3573ffffffffffffffffffffffffffffffffffffffff8116810361024f5790565b3561ffff8116810361024f5790565b9035907fffffffffffffffffffffffffffffffffffffffffffffffffffffffffffffffe18136030182121561024f570180359067ffffffffffffffff821161024f57602001918160051b3603831361024f57565b9035907fffffffffffffffffffffffffffffffffffffffffffffffffffffffffffffffe18136030182121561024f570180359067ffffffffffffffff821161024f5760200191813603831361024f57565b73ffffffffffffffffffffffffffffffffffffffff614552825f527f80bb2b638cc20bc4d0a60d66940f3ab4a00c1d7b313497ca82fb0b4ab007930260205273ffffffffffffffffffffffffffffffffffffffff60405f20541690565b16156147fd5761456181614889565b6145a36040918251906145748483613600565b600382527f75726900000000000000000000000000000000000000000000000000000000006020830152613c08565b8051156147e8578291835f947a184f03e93ff9f4daa797ed6e38ed64bf6a1f0100000000000000008110156147bc575b50806d04ee2d6d415b85acef8100000000600a9210156147a1575b662386f26fc1000081101561478d575b6305f5e10081101561477c575b61271081101561476d575b606481101561475f575b1015614755575b6001840192600a7fffffffffffffffffffffffffffffffffffffffffffffffffffffffffffffffff602161467261465d88613641565b9761466a8751998a613600565b808952613641565b977fffffffffffffffffffffffffffffffffffffffffffffffffffffffffffffffe0602089019901368a378701015b01917f30313233343536373839616263646566000000000000000000000000000000008282061a8353049081156146fc57600a907fffffffffffffffffffffffffffffffffffffffffffffffffffffffffffffffff906146a1565b50506020936136cc938592519584879551918291018587015e840190838201905f8252519283915e01015f8152037fffffffffffffffffffffffffffffffffffffffffffffffffffffffffffffffe08101835282613600565b9260010192614627565b606460029104950194614620565b61271060049104950194614616565b6305f5e1006008910495019461460b565b662386f26fc10000601091049501946145fe565b6d04ee2d6d415b85acef8100000000602091049501946145ee565b91945084917a184f03e93ff9f4daa797ed6e38ed64bf6a1f01000000000000000090049050600a6145d3565b509050516147f7602082613600565b5f815290565b60646040517f08c379a000000000000000000000000000000000000000000000000000000000815260206004820152600a60248201527f6e6f74206d696e746564000000000000000000000000000000000000000000006044820152fd5b61488492916020915f525f825260405f2083604051948593843782019081520301902054613955565b151590565b60405160208101918252602081526148a2604082613600565b51902090565b6148f0815f527f80bb2b638cc20bc4d0a60d66940f3ab4a00c1d7b313497ca82fb0b4ab007930260205273ffffffffffffffffffffffffffffffffffffffff60405f20541690565b9073ffffffffffffffffffffffffffffffffffffffff821615614911575090565b7f7e273289000000000000000000000000000000000000000000000000000000005f5260045260245ffd5b335f9081527fb7db2dd08fcb62d0c9e08c51941cae53c267786a0b75803fb7960902fc8ef97d602052604090205460ff161561497457565b7fe2517d3f000000000000000000000000000000000000000000000000000000005f52336004525f60245260445ffd5b805f527f02dd7bc7dec4dceedda775e58dd541e08a116c6c53815c0bd028192f7b62680060205260405f2073ffffffffffffffffffffffffffffffffffffffff33165f5260205260ff60405f205416156149fb5750565b7fe2517d3f000000000000000000000000000000000000000000000000000000005f523360045260245260445ffd5b73ffffffffffffffffffffffffffffffffffffffff81165f9081527fb7db2dd08fcb62d0c9e08c51941cae53c267786a0b75803fb7960902fc8ef97d602052604090205460ff16614b0c5773ffffffffffffffffffffffffffffffffffffffff165f8181527fb7db2dd08fcb62d0c9e08c51941cae53c267786a0b75803fb7960902fc8ef97d6020526040812080547fffffffffffffffffffffffffffffffffffffffffffffffffffffffffffffff001660011790553391907f2f8788117e7eff1d82e926ec794901d17c78024a50270940304540a733656f0d8180a4600190565b505f90565b73ffffffffffffffffffffffffffffffffffffffff81165f9081527fab71e3f32666744d246edff3f96e4bdafee2e9867098cdd118a979a7464786a8602052604090205460ff16614b0c5773ffffffffffffffffffffffffffffffffffffffff165f8181527fab71e3f32666744d246edff3f96e4bdafee2e9867098cdd118a979a7464786a86020526040812080547fffffffffffffffffffffffffffffffffffffffffffffffffffffffffffffff001660011790553391907f189ab7a9244df0848122154315af71fe140f3db0fe014031783b0946b8c9d2e3907f2f8788117e7eff1d82e926ec794901d17c78024a50270940304540a733656f0d9080a4600190565b805f527f02dd7bc7dec4dceedda775e58dd541e08a116c6c53815c0bd028192f7b62680060205260405f2073ffffffffffffffffffffffffffffffffffffffff83165f5260205260ff60405f205416155f14614d2157805f527f02dd7bc7dec4dceedda775e58dd541e08a116c6c53815c0bd028192f7b62680060205260405f2073ffffffffffffffffffffffffffffffffffffffff83165f5260205260405f2060017fffffffffffffffffffffffffffffffffffffffffffffffffffffffffffffff0082541617905573ffffffffffffffffffffffffffffffffffffffff339216907f2f8788117e7eff1d82e926ec794901d17c78024a50270940304540a733656f0d5f80a4600190565b50505f90565b805f527f02dd7bc7dec4dceedda775e58dd541e08a116c6c53815c0bd028192f7b62680060205260405f2073ffffffffffffffffffffffffffffffffffffffff83165f5260205260ff60405f2054165f14614d2157805f527f02dd7bc7dec4dceedda775e58dd541e08a116c6c53815c0bd028192f7b62680060205260405f2073ffffffffffffffffffffffffffffffffffffffff83165f5260205260405f207fffffffffffffffffffffffffffffffffffffffffffffffffffffffffffffff00815416905573ffffffffffffffffffffffffffffffffffffffff339216907ff6391f5c32d9c69d2a47ea670b442974b53935d1edc7fd64eb21e047a839171b5f80a4600190565b60408101614e3d81836143ed565b614e4690614420565b90614e5181846143ed565b602001614e5d90614420565b90614e6881856143ed565b6040013590614e7781866143ed565b606001614e8390614420565b614e8d82876143ed565b60800135614e9b83886143ed565b60a00135614ea984896143ed565b60c0013590614eb8858a6143ed565b60e001614ec4906143d8565b92614ecf868b6143ed565b61010001614edc906143d8565b94614ee7878c6143ed565b610120013596614ef7908c6143ed565b61014001614f0490614441565b976040519960208b019b7fd4537d2cae13e89ffe46b9e65d1fb612145934b158c335a84a819f03205e86738d5273ffffffffffffffffffffffffffffffffffffffff1660408c015273ffffffffffffffffffffffffffffffffffffffff1660608b015260808a015273ffffffffffffffffffffffffffffffffffffffff1660a089015260c088015260e087015261010086015267ffffffffffffffff1661012085015267ffffffffffffffff1661014084015261016083015261ffff166101808201526101808152614fd86101a082613600565b51902090614fe5816143d8565b916040519160208301937f036b00e958c97f6140b105fa9161b187af9c6fd71d67bb38a7f6cb65dc053c1d855267ffffffffffffffff16604084015260200135606083015260808201526080815261503e60a082613600565b5190206150496156d2565b61505161573c565b6040519060208201927f8b73c3c69bb8fe3d512ecc4cf759cc79239f7b179b0ffacaa9a75d522b39400f8452604083015260608201524660808201523060a082015260a081526150a260c082613600565b51902090604051917f19010000000000000000000000000000000000000000000000000000000000008352600283015260228201526042902090565b6040517fa16a46d94261c7517cc8ff89f61c0ce93598e3c849801011dee649a6a557d10254815f61510e83613955565b80835292600181169081156151b05750600114615132575b6136cc92500382613600565b507fa16a46d94261c7517cc8ff89f61c0ce93598e3c849801011dee649a6a557d1025f90815290917f42ad5d3e1f2e6e70edcf6d991b8a3023d3fca8047a131592f9edb9fd9b89d57d5b8183106151945750509060206136cc92820101615126565b602091935080600191548385880101520191019091839261517c565b602092506136cc9491507fffffffffffffffffffffffffffffffffffffffffffffffffffffffffffffff001682840152151560051b820101615126565b6040517fa16a46d94261c7517cc8ff89f61c0ce93598e3c849801011dee649a6a557d10354815f61521d83613955565b80835292600181169081156151b05750600114615240576136cc92500382613600565b507fa16a46d94261c7517cc8ff89f61c0ce93598e3c849801011dee649a6a557d1035f90815290917f5f9ce34815f8e11431c7bb75a8e6886a91478f7ffc1dbb0a98dc240fddd76b755b8183106152a25750509060206136cc92820101615126565b602091935080600191548385880101520191019091839261528a565b93909293823b6152d0575b5050505050565b61533d73ffffffffffffffffffffffffffffffffffffffff928360209516968460405197889687967f150b7a0200000000000000000000000000000000000000000000000000000000885216600487015216602485015260448401526080606484015260848301906134be565b03815f865af15f918161540d575b506153b957503d156153b2573d61536181613641565b9061536f6040519283613600565b81523d5f602083013e5b805190816153ad57827f64a0ae92000000000000000000000000000000000000000000000000000000005f5260045260245ffd5b602001fd5b6060615379565b7fffffffff000000000000000000000000000000000000000000000000000000007f150b7a020000000000000000000000000000000000000000000000000000000091160361163b57505f808080806152c9565b9091506020813d602011615462575b8161542960209383613600565b8101031261024f57517fffffffff000000000000000000000000000000000000000000000000000000008116810361024f57905f61534b565b3d915061541c565b815191906041830361549a576154939250602082015190606060408401519301515f1a90615643565b9192909190565b50505f9160029190565b600481101561554f57806154b6575050565b600181036154e6577ff645eedf000000000000000000000000000000000000000000000000000000005f5260045ffd5b6002810361551a57507ffce698f7000000000000000000000000000000000000000000000000000000005f5260045260245ffd5b6003146155245750565b7fd78bce0c000000000000000000000000000000000000000000000000000000005f5260045260245ffd5b7f4e487b71000000000000000000000000000000000000000000000000000000005f52602160045260245ffd5b905f8091602081519101845af48080615630575b156155b05750506040513d81523d5f602083013e60203d82010160405290565b156155f75773ffffffffffffffffffffffffffffffffffffffff907f9996b315000000000000000000000000000000000000000000000000000000005f521660045260245ffd5b3d15615608576040513d5f823e3d90fd5b7fd6bda275000000000000000000000000000000000000000000000000000000005f5260045ffd5b503d1515806155905750813b1515615590565b91907f7fffffffffffffffffffffffffffffff5d576e7357a4501ddfe92f46681b20a084116156c7579160209360809260ff5f9560405194855216868401526040830152606082015282805260015afa15611933575f5173ffffffffffffffffffffffffffffffffffffffff8116156156bd57905f905f90565b505f906001905f90565b5050505f9160039190565b6156da6150de565b80519081156156ea576020012090565b50507fa16a46d94261c7517cc8ff89f61c0ce93598e3c849801011dee649a6a557d1005480156157175790565b507fc5d2460186f7233c927e7db2dcc703c0e500b653ca82273b7bfad8045d85a47090565b6157446151ed565b8051908115615754576020012090565b50507fa16a46d94261c7517cc8ff89f61c0ce93598e3c849801011dee649a6a557d101548015615717579056fea2646970667358221220f6212a0a6f2d3d5d053993f4a4cbbcc3db063488eebfa62fa095402ef5fc423364736f6c634300081e0033f0c57e16840df040f15088dc2f81fe391c3923bec73e23a9662efc9c229c6a00","linkReferences":{}},"methodIdentifiers":{"DEFAULT_ADMIN_ROLE()":"a217fddf","UPGRADE_INTERFACE_VERSION()":"ad3cb1cc","approve(address,uint256)":"095ea7b3","balanceOf(address)":"70a08231","eip712Domain()":"84b0196e","getAllMetadata(bytes32)":"05daf368","getAllMetadata(uint256)":"8c5acee7","getAllMetadataKeys(bytes32)":"5cb0e05a","getApproved(uint256)":"081812fc","getMetadata(bytes32,string)":"0e1ae91b","getMetadata(uint256,string)":"cb4799f2","getMetadataCount(bytes32)":"5e597156","getMetadataCount(uint256)":"93e3f3b0","getMetadataKeys(uint256)":"2b679e30","getRoleAdmin(bytes32)":"248a9ca3","getTokenIdHash(uint256)":"ff74ef30","getUupsImplementation()":"358410d5","grantRole(bytes32,address)":"2f2ff15d","hasMetadata(bytes32,string)":"e5e0a25d","hasMetadata(uint256,string)":"13d37550","hasRole(bytes32,address)":"91d14854","hashLeaseIntent((uint64,bytes32,(address,address,uint256,address,uint256,uint256,uint256,uint64,uint64,bytes32,uint16,(string,string)[])))":"4547bd64","initialize(address,address,address)":"c0c53b8b","isApprovedForAll(address,address)":"e985e9c5","leaseId()":"30c79cfe","leases(uint256)":"8927a106","mintLease((uint64,bytes32,(address,address,uint256,address,uint256,uint256,uint256,uint64,uint64,bytes32,uint16,(string,string)[])),bytes,bytes)":"9af66ccd","name()":"06fdde03","ownerOf(uint256)":"6352211e","proxiableUUID()":"52d1902d","registry()":"7b103999","removeMetadata(bytes32,string)":"26f389ba","removeMetadata(uint256,string)":"7577d428","renounceRole(bytes32,address)":"36568abe","revokeRole(bytes32,address)":"d547741f","safeTransferFrom(address,address,uint256)":"42842e0e","safeTransferFrom(address,address,uint256,bytes)":"b88d4fde","setApprovalForAll(address,bool)":"a22cb465","setMetadata(bytes32,(string,string)[])":"3b41f4ea","setMetadata(uint256,(string,string)[])":"236b8eb3","supportsInterface(bytes4)":"01ffc9a7","symbol()":"95d89b41","tokenURI(uint256)":"c87b56dd","transferFrom(address,address,uint256)":"23b872dd","upgradeToAndCall(address,bytes)":"4f1ef286"},"storageLayout":{"storage":[{"astId":61744,"contract":"src/LeaseFactory.sol:LeaseFactory","label":"_metadata","offset":0,"slot":"0","type":"t_mapping(t_bytes32,t_mapping(t_string_memory_ptr,t_string_storage))"},{"astId":61750,"contract":"src/LeaseFactory.sol:LeaseFactory","label":"_metadataKeys","offset":0,"slot":"1","type":"t_mapping(t_bytes32,t_array(t_string_storage)dyn_storage)"},{"astId":60226,"contract":"src/LeaseFactory.sol:LeaseFactory","label":"leaseId","offset":0,"slot":"2","type":"t_uint256"},{"astId":60230,"contract":"src/LeaseFactory.sol:LeaseFactory","label":"registry","offset":0,"slot":"3","type":"t_contract(AssetRegistry)60154"},{"astId":60248,"contract":"src/LeaseFactory.sol:LeaseFactory","label":"leases","offset":0,"slot":"4","type":"t_mapping(t_uint256,t_struct(Lease)60223_storage)"}],"types":{"t_address":{"encoding":"inplace","label":"address","numberOfBytes":"20"},"t_array(t_string_storage)dyn_storage":{"encoding":"dynamic_array","label":"string[]","numberOfBytes":"32","base":"t_string_storage"},"t_array(t_struct(Metadata)61737_storage)dyn_storage":{"encoding":"dynamic_array","label":"struct MetadataStorage.Metadata[]","numberOfBytes":"32","base":"t_struct(Metadata)61737_storage"},"t_bytes32":{"encoding":"inplace","label":"bytes32","numberOfBytes":"32"},"t_contract(AssetRegistry)60154":{"encoding":"inplace","label":"contract AssetRegistry","numberOfBytes":"20"},"t_mapping(t_bytes32,t_array(t_string_storage)dyn_storage)":{"encoding":"mapping","key":"t_bytes32","label":"mapping(bytes32 => string[])","numberOfBytes":"32","value":"t_array(t_string_storage)dyn_storage"},"t_mapping(t_bytes32,t_mapping(t_string_memory_ptr,t_string_storage))":{"encoding":"mapping","key":"t_bytes32","label":"mapping(bytes32 => mapping(string => string))","numberOfBytes":"32","value":"t_mapping(t_string_memory_ptr,t_string_storage)"},"t_mapping(t_string_memory_ptr,t_string_storage)":{"encoding":"mapping","key":"t_string_memory_ptr","label":"mapping(string => string)","numberOfBytes":"32","value":"t_string_storage"},"t_mapping(t_uint256,t_struct(Lease)60223_storage)":{"encoding":"mapping","key":"t_uint256","label":"mapping(uint256 => struct LeaseFactory.Lease)","numberOfBytes":"32","value":"t_struct(Lease)60223_storage"},"t_string_memory_ptr":{"encoding":"bytes","label":"string","numberOfBytes":"32"},"t_string_storage":{"encoding":"bytes","label":"string","numberOfBytes":"32"},"t_struct(Lease)60223_storage":{"encoding":"inplace","label":"struct LeaseFactory.Lease","numberOfBytes":"352","members":[{"astId":60198,"contract":"src/LeaseFactory.sol:LeaseFactory","label":"lessor","offset":0,"slot":"0","type":"t_address"},{"astId":60200,"contract":"src/LeaseFactory.sol:LeaseFactory","label":"lessee","offset":0,"slot":"1","type":"t_address"},{"astId":60202,"contract":"src/LeaseFactory.sol:LeaseFactory","label":"assetId","offset":0,"slot":"2","type":"t_uint256"},{"astId":60204,"contract":"src/LeaseFactory.sol:LeaseFactory","label":"paymentToken","offset":0,"slot":"3","type":"t_address"},{"astId":60206,"contract":"src/LeaseFactory.sol:LeaseFactory","label":"rentAmount","offset":0,"slot":"4","type":"t_uint256"},{"astId":60208,"contract":"src/LeaseFactory.sol:LeaseFactory","label":"rentPeriod","offset":0,"slot":"5","type":"t_uint256"},{"astId":60210,"contract":"src/LeaseFactory.sol:LeaseFactory","label":"securityDeposit","offset":0,"slot":"6","type":"t_uint256"},{"astId":60212,"contract":"src/LeaseFactory.sol:LeaseFactory","label":"startTime","offset":0,"slot":"7","type":"t_uint64"},{"astId":60214,"contract":"src/LeaseFactory.sol:LeaseFactory","label":"endTime","offset":8,"slot":"7","type":"t_uint64"},{"astId":60216,"contract":"src/LeaseFactory.sol:LeaseFactory","label":"legalDocHash","offset":0,"slot":"8","type":"t_bytes32"},{"astId":60218,"contract":"src/LeaseFactory.sol:LeaseFactory","label":"termsVersion","offset":0,"slot":"9","type":"t_uint16"},{"astId":60222,"contract":"src/LeaseFactory.sol:LeaseFactory","label":"metadata","offset":0,"slot":"10","type":"t_array(t_struct(Metadata)61737_storage)dyn_storage"}]},"t_struct(Metadata)61737_storage":{"encoding":"inplace","label":"struct MetadataStorage.Metadata","numberOfBytes":"64","members":[{"astId":61733,"contract":"src/LeaseFactory.sol:LeaseFactory","label":"key","offset":0,"slot":"0","type":"t_string_storage"},{"astId":61736,"contract":"src/LeaseFactory.sol:LeaseFactory","label":"value","offset":0,"slot":"1","type":"t_string_storage"}]},"t_uint16":{"encoding":"inplace","label":"uint16","numberOfBytes":"2"},"t_uint256":{"encoding":"inplace","label":"uint256","numberOfBytes":"32"},"t_uint64":{"encoding":"inplace","label":"uint64","numberOfBytes":"8"}}},"id":83}