{"abi":[{"type":"function","name":"DEFAULT_ADMIN_ROLE","inputs":[],"outputs":[{"name":"","type":"bytes32","internalType":"bytes32"}],"stateMutability":"view"},{"type":"function","name":"UPGRADE_INTERFACE_VERSION","inputs":[],"outputs":[{"name":"","type":"string","internalType":"string"}],"stateMutability":"view"},{"type":"function","name":"assetERC20Implementation","inputs":[],"outputs":[{"name":"","type":"address","internalType":"address"}],"stateMutability":"view"},{"type":"function","name":"assetExists","inputs":[{"name":"id","type":"uint256","internalType":"uint256"}],"outputs":[{"name":"","type":"bool","internalType":"bool"}],"stateMutability":"view"},{"type":"function","name":"assetId","inputs":[],"outputs":[{"name":"","type":"uint256","internalType":"uint256"}],"stateMutability":"view"},{"type":"function","name":"createAsset","inputs":[{"name":"name","type":"string","internalType":"string"},{"name":"schemaHash","type":"bytes32","internalType":"bytes32"},{"name":"requiredLeaseKeys","type":"bytes32[]","internalType":"bytes32[]"},{"name":"metadata","type":"tuple[]","internalType":"struct MetadataStorage.Metadata[]","components":[{"name":"key","type":"string","internalType":"string"},{"name":"value","type":"string","internalType":"string"}]}],"outputs":[],"stateMutability":"nonpayable"},{"type":"function","name":"getAllMetadata","inputs":[{"name":"hash","type":"bytes32","internalType":"bytes32"}],"outputs":[{"name":"metadata","type":"tuple[]","internalType":"struct MetadataStorage.Metadata[]","components":[{"name":"key","type":"string","internalType":"string"},{"name":"value","type":"string","internalType":"string"}]}],"stateMutability":"view"},{"type":"function","name":"getAllMetadataKeys","inputs":[{"name":"hash","type":"bytes32","internalType":"bytes32"}],"outputs":[{"name":"keys","type":"string[]","internalType":"string[]"}],"stateMutability":"view"},{"type":"function","name":"getAsset","inputs":[{"name":"id","type":"uint256","internalType":"uint256"}],"outputs":[{"name":"","type":"tuple","internalType":"struct AssetRegistry.Asset","components":[{"name":"schemaHash","type":"bytes32","internalType":"bytes32"},{"name":"issuer","type":"address","internalType":"address"},{"name":"tokenAddress","type":"address","internalType":"address"}]}],"stateMutability":"view"},{"type":"function","name":"getMetadata","inputs":[{"name":"hash","type":"bytes32","internalType":"bytes32"},{"name":"key","type":"string","internalType":"string"}],"outputs":[{"name":"value","type":"string","internalType":"string"}],"stateMutability":"view"},{"type":"function","name":"getMetadataCount","inputs":[{"name":"hash","type":"bytes32","internalType":"bytes32"}],"outputs":[{"name":"count","type":"uint256","internalType":"uint256"}],"stateMutability":"view"},{"type":"function","name":"getRoleAdmin","inputs":[{"name":"role","type":"bytes32","internalType":"bytes32"}],"outputs":[{"name":"","type":"bytes32","internalType":"bytes32"}],"stateMutability":"view"},{"type":"function","name":"getType","inputs":[{"name":"schemaHash","type":"bytes32","internalType":"bytes32"}],"outputs":[{"name":"","type":"tuple","internalType":"struct AssetRegistry.AssetType","components":[{"name":"name","type":"string","internalType":"string"},{"name":"requiredLeaseKeys","type":"bytes32[]","internalType":"bytes32[]"}]}],"stateMutability":"view"},{"type":"function","name":"getUupsImplementation","inputs":[],"outputs":[{"name":"","type":"address","internalType":"address"}],"stateMutability":"view"},{"type":"function","name":"grantRole","inputs":[{"name":"role","type":"bytes32","internalType":"bytes32"},{"name":"account","type":"address","internalType":"address"}],"outputs":[],"stateMutability":"nonpayable"},{"type":"function","name":"hasMetadata","inputs":[{"name":"hash","type":"bytes32","internalType":"bytes32"},{"name":"key","type":"string","internalType":"string"}],"outputs":[{"name":"exists","type":"bool","internalType":"bool"}],"stateMutability":"view"},{"type":"function","name":"hasRole","inputs":[{"name":"role","type":"bytes32","internalType":"bytes32"},{"name":"account","type":"address","internalType":"address"}],"outputs":[{"name":"","type":"bool","internalType":"bool"}],"stateMutability":"view"},{"type":"function","name":"initialize","inputs":[{"name":"admin","type":"address","internalType":"address"},{"name":"upgrader","type":"address","internalType":"address"},{"name":"registrar","type":"address","internalType":"address"},{"name":"_assetERC20Implementation","type":"address","internalType":"address"}],"outputs":[],"stateMutability":"nonpayable"},{"type":"function","name":"proxiableUUID","inputs":[],"outputs":[{"name":"","type":"bytes32","internalType":"bytes32"}],"stateMutability":"view"},{"type":"function","name":"registerAsset","inputs":[{"name":"schemaHash","type":"bytes32","internalType":"bytes32"},{"name":"tokenName","type":"string","internalType":"string"},{"name":"tokenSymbol","type":"string","internalType":"string"},{"name":"totalSupply","type":"uint256","internalType":"uint256"},{"name":"admin","type":"address","internalType":"address"},{"name":"upgrader","type":"address","internalType":"address"},{"name":"tokenRecipient","type":"address","internalType":"address"},{"name":"metadata","type":"tuple[]","internalType":"struct MetadataStorage.Metadata[]","components":[{"name":"key","type":"string","internalType":"string"},{"name":"value","type":"string","internalType":"string"}]}],"outputs":[{"name":"newAssetId","type":"uint256","internalType":"uint256"},{"name":"token","type":"address","internalType":"address"}],"stateMutability":"nonpayable"},{"type":"function","name":"removeMetadata","inputs":[{"name":"hash","type":"bytes32","internalType":"bytes32"},{"name":"key","type":"string","internalType":"string"}],"outputs":[],"stateMutability":"nonpayable"},{"type":"function","name":"renounceRole","inputs":[{"name":"role","type":"bytes32","internalType":"bytes32"},{"name":"callerConfirmation","type":"address","internalType":"address"}],"outputs":[],"stateMutability":"nonpayable"},{"type":"function","name":"revokeRole","inputs":[{"name":"role","type":"bytes32","internalType":"bytes32"},{"name":"account","type":"address","internalType":"address"}],"outputs":[],"stateMutability":"nonpayable"},{"type":"function","name":"setMetadata","inputs":[{"name":"hash","type":"bytes32","internalType":"bytes32"},{"name":"metadata_","type":"tuple[]","internalType":"struct MetadataStorage.Metadata[]","components":[{"name":"key","type":"string","internalType":"string"},{"name":"value","type":"string","internalType":"string"}]}],"outputs":[],"stateMutability":"nonpayable"},{"type":"function","name":"supportsInterface","inputs":[{"name":"interfaceId","type":"bytes4","internalType":"bytes4"}],"outputs":[{"name":"","type":"bool","internalType":"bool"}],"stateMutability":"view"},{"type":"function","name":"upgradeToAndCall","inputs":[{"name":"newImplementation","type":"address","internalType":"address"},{"name":"data","type":"bytes","internalType":"bytes"}],"outputs":[],"stateMutability":"payable"},{"type":"function","name":"uri","inputs":[{"name":"schemaHash","type":"bytes32","internalType":"bytes32"}],"outputs":[{"name":"","type":"string","internalType":"string"}],"stateMutability":"view"},{"type":"event","name":"AssetRegistered","inputs":[{"name":"assetId","type":"uint256","indexed":true,"internalType":"uint256"},{"name":"schemaHash","type":"bytes32","indexed":true,"internalType":"bytes32"},{"name":"tokenAddress","type":"address","indexed":false,"internalType":"address"}],"anonymous":false},{"type":"event","name":"AssetTypeCreated","inputs":[{"name":"name","type":"string","indexed":true,"internalType":"string"},{"name":"schemaHash","type":"bytes32","indexed":true,"internalType":"bytes32"},{"name":"requiredLeaseKeys","type":"bytes32[]","indexed":false,"internalType":"bytes32[]"}],"anonymous":false},{"type":"event","name":"Initialized","inputs":[{"name":"version","type":"uint64","indexed":false,"internalType":"uint64"}],"anonymous":false},{"type":"event","name":"MetadataRemoved","inputs":[{"name":"hash","type":"bytes32","indexed":true,"internalType":"bytes32"},{"name":"key","type":"string","indexed":false,"internalType":"string"}],"anonymous":false},{"type":"event","name":"MetadataUpdated","inputs":[{"name":"hash","type":"bytes32","indexed":true,"internalType":"bytes32"},{"name":"key","type":"string","indexed":false,"internalType":"string"},{"name":"value","type":"string","indexed":false,"internalType":"string"}],"anonymous":false},{"type":"event","name":"RoleAdminChanged","inputs":[{"name":"role","type":"bytes32","indexed":true,"internalType":"bytes32"},{"name":"previousAdminRole","type":"bytes32","indexed":true,"internalType":"bytes32"},{"name":"newAdminRole","type":"bytes32","indexed":true,"internalType":"bytes32"}],"anonymous":false},{"type":"event","name":"RoleGranted","inputs":[{"name":"role","type":"bytes32","indexed":true,"internalType":"bytes32"},{"name":"account","type":"address","indexed":true,"internalType":"address"},{"name":"sender","type":"address","indexed":true,"internalType":"address"}],"anonymous":false},{"type":"event","name":"RoleRevoked","inputs":[{"name":"role","type":"bytes32","indexed":true,"internalType":"bytes32"},{"name":"account","type":"address","indexed":true,"internalType":"address"},{"name":"sender","type":"address","indexed":true,"internalType":"address"}],"anonymous":false},{"type":"event","name":"Upgraded","inputs":[{"name":"implementation","type":"address","indexed":true,"internalType":"address"}],"anonymous":false},{"type":"error","name":"AccessControlBadConfirmation","inputs":[]},{"type":"error","name":"AccessControlUnauthorizedAccount","inputs":[{"name":"account","type":"address","internalType":"address"},{"name":"neededRole","type":"bytes32","internalType":"bytes32"}]},{"type":"error","name":"AddressEmptyCode","inputs":[{"name":"target","type":"address","internalType":"address"}]},{"type":"error","name":"ERC1967InvalidImplementation","inputs":[{"name":"implementation","type":"address","internalType":"address"}]},{"type":"error","name":"ERC1967NonPayable","inputs":[]},{"type":"error","name":"FailedCall","inputs":[]},{"type":"error","name":"FailedDeployment","inputs":[]},{"type":"error","name":"InsufficientBalance","inputs":[{"name":"balance","type":"uint256","internalType":"uint256"},{"name":"needed","type":"uint256","internalType":"uint256"}]},{"type":"error","name":"InvalidInitialization","inputs":[]},{"type":"error","name":"NotInitializing","inputs":[]},{"type":"error","name":"UUPSUnauthorizedCallContext","inputs":[]},{"type":"error","name":"UUPSUnsupportedProxiableUUID","inputs":[{"name":"slot","type":"bytes32","internalType":"bytes32"}]}],"bytecode":{"object":"0x60a080604052346100c257306080525f5160206132e85f395f51905f525460ff8160401c166100b3576002600160401b03196001600160401b03821601610060575b60405161322190816100c782396080518181816113f7015261155f0152f35b6001600160401b0319166001600160401b039081175f5160206132e85f395f51905f525581527fc7f505b2f371ae2175ee4913f4499e1f2633a7b5936321eed1cdaeb6115181d290602090a15f80610041565b63f92ee8a960e01b5f5260045ffd5b5f80fdfe6080806040526004361015610012575f80fd5b5f905f3560e01c90816301ffc9a71461223f5750806305daf36814611fd35780630e1ae91b14611f49578063248a9ca314611ed957806326f389ba14611be75780632f2ff15d14611b6c578063358410d514611afc57806336568abe14611a745780633b41f4ea1461189a57806344de240a1461185f5780634f1ef286146114e4578063518e2bdd1461146f57806352d1902d146113b25780635cb0e05a1461129b5780635e597156146112535780637f2aeea41461111757806385f27d32146110c657806391d14854146110325780639ed19ddb14610fe1578063a217fddf14610fa9578063ad3cb1cc14610f28578063d547741f14610ea6578063d904cd17146108e7578063e5e0a25d146108a3578063eac8f5b8146107f1578063f8c8765e146105485763fba01f0314610147575f80fd5b346105455760807ffffffffffffffffffffffffffffffffffffffffffffffffffffffffffffffffc3601126105455760043567ffffffffffffffff811161054357610196903690600401612439565b916024359060443567ffffffffffffffff8111610543576101bb9036906004016125d4565b9060643567ffffffffffffffff811161053f576101dc9036906004016125d4565b92906101e6612b2d565b604051936101f38561233e565b6101fe368a8a6123b7565b8552610209836124ff565b6102166040519182612376565b838152600584901b958587016020830136821161053b5787905b82821061052b5750505080602060019201928352898952600460205261025b60408a2091518261293a565b0190519081519167ffffffffffffffff831161044157680100000000000000008311610441578154838355808410610505575b5060200190885260208820885b8381106104f15750505050906102b2913691612517565b966102bb612b2d565b845b885181101561046e578686528560205285610349886020808d61032a87604061030d8580838c206102ee8689612751565b5151908551938285935191829101845e82019081520301902054612660565b15988561031a8487612751565b5101519781528086522092612751565b515190604051938285935191829101845e82019081520301902061293a565b6103c0575b80877fc42c4edbc41dce02b01dd098a1f7a4c685c638d7a2fdfbe449b32e1f89fbfae16103a98c6103b760206103928761038a60019a86612751565b515194612751565b5101516040519384936040855260408501906122fb565b9083820360208501526122fb565b0390a2016102bd565b8686526001602052604086206103d6828b612751565b5151908054906801000000000000000082101561044157906103fd9160018201815561261e565b610415576001929161040e9161293a565b905061034e565b6024887f4e487b7100000000000000000000000000000000000000000000000000000000815280600452fd5b6024897f4e487b710000000000000000000000000000000000000000000000000000000081526041600452fd5b50869594958160405192839283378101878152039020927f07ffffffffffffffffffffffffffffffffffffffffffffffffffffffffffffff6040519260208452806020850152116104ed5781816040927fb465a381bc5b7c249b2d273580b13753c505208f430da9624481dc3a9d9133bc95848401378101030190a380f35b8580fd5b60019060208451940193818401550161029b565b828a528360208b2091820191015b818110610520575061028e565b8a8155600101610513565b8135815260209182019101610230565b8980fd5b8380fd5b505b80fd5b50346105455760807ffffffffffffffffffffffffffffffffffffffffffffffffffffffffffffffffc360112610545576105806124dc565b6105886124b9565b6044359073ffffffffffffffffffffffffffffffffffffffff8216820361053f576064359273ffffffffffffffffffffffffffffffffffffffff84168094036107ed577ff0c57e16840df040f15088dc2f81fe391c3923bec73e23a9662efc9c229c6a00549360ff8560401c16159467ffffffffffffffff8116801590816107e5575b60011490816107db575b1590816107d2575b506107aa576106b3926106b9959492828860017fffffffffffffffffffffffffffffffffffffffffffffffff00000000000000006106ad9616177ff0c57e16840df040f15088dc2f81fe391c3923bec73e23a9662efc9c229c6a0055610755575b507fffffffffffffffffffffffff00000000000000000000000000000000000000006003541617600355612c1b565b50612d02565b50612e06565b506106c15780f35b7fffffffffffffffffffffffffffffffffffffffffffffff00ffffffffffffffff7ff0c57e16840df040f15088dc2f81fe391c3923bec73e23a9662efc9c229c6a0054167ff0c57e16840df040f15088dc2f81fe391c3923bec73e23a9662efc9c229c6a00557fc7f505b2f371ae2175ee4913f4499e1f2633a7b5936321eed1cdaeb6115181d2602060405160018152a180f35b7fffffffffffffffffffffffffffffffffffffffffffffff0000000000000000001668010000000000000001177ff0c57e16840df040f15088dc2f81fe391c3923bec73e23a9662efc9c229c6a00555f61067e565b6004877ff92ee8a9000000000000000000000000000000000000000000000000000000008152fd5b9050155f61061d565b303b159150610615565b87915061060b565b8480fd5b50346105455760207ffffffffffffffffffffffffffffffffffffffffffffffffffffffffffffffffc360112610545576040816060928280516108338161235a565b8281528260208201520152600435815260056020522073ffffffffffffffffffffffffffffffffffffffff60405161086a8161235a565b81835493848352604082600281600185015416936020870194855201541693019283526040519485525116602084015251166040820152f35b5034610545576108dd6040602080936108bb36612467565b9491839193528084522083604051948593843782019081520301902054612660565b1515604051908152f35b5034610d9f576101007ffffffffffffffffffffffffffffffffffffffffffffffffffffffffffffffffc360112610d9f576004359060243567ffffffffffffffff8111610d9f5761093c903690600401612439565b9260443567ffffffffffffffff8111610d9f5761095d903690600401612439565b936084359173ffffffffffffffffffffffffffffffffffffffff8316809303610d9f5760a43573ffffffffffffffffffffffffffffffffffffffff8116809103610d9f5760c4359373ffffffffffffffffffffffffffffffffffffffff8516809503610d9f5760e43567ffffffffffffffff8111610d9f576109e39036906004016125d4565b335f9081527f07966f2ab141347034724e9b2a472c2f77f5cd745aeba27cacba797b8fcb70866020526040902054919490939160ff1615610e5657875f526004602052610a3360405f2054612660565b15610df8576002547fffffffffffffffffffffffffffffffffffffffffffffffffffffffffffffffff8114610dcb57600101998a6002556e5af43d82803e903d91602b57fd5bf37fffffffffffffffffffffffffffffffffff000000000000000000000000000000600354763d602d80600a3d3981f3363d3d373d3d3d363d7300000062ffffff8260881c16175f5260781b161760205273ffffffffffffffffffffffffffffffffffffffff603760095ff016998a15610da3578a3b15610d9f579b95939291610b6c91610b3c6040519e8f997f47a52eac000000000000000000000000000000000000000000000000000000008b5261010060048c01526101048b01916128fc565b917ffffffffffffffffffffffffffffffffffffffffffffffffffffffffffffffffc8984030160248a01526128fc565b9160643560448701528a6064870152608486015260a48501528560c48501527ffffffffffffffffffffffffffffffffffffffffffffffffffffffffffffffffc8482030160e4850152828152602081019260208160051b83010193835f917fffffffffffffffffffffffffffffffffffffffffffffffffffffffffffffffc182360301945b848410610d10575050505050505090805f92038183885af1958615610d0557604096610cf1575b50600273ffffffffffffffffffffffffffffffffffffffff809281895195610c3f8761235a565b878752602087019081528a808801938a85528b8152600560205220965187555116826001870191167fffffffffffffffffffffffff00000000000000000000000000000000000000008254161790555116920191167fffffffffffffffffffffffff0000000000000000000000000000000000000000825416179055827f2aa9c4e6dfc93d089f25ff3356df5305b7977f768884056b3bf4c0361e2ab2ac60208651858152a382519182526020820152f35b610cfd91505f90612376565b5f6002610c18565b6040513d5f823e3d90fd5b91939597509193957fffffffffffffffffffffffffffffffffffffffffffffffffffffffffffffffe0828203018352873587811215610d9f576020610d8b6001938783940190610d7e610d74610d668480612add565b6040855260408501916128fc565b9285810190612add565b91858185039101526128fc565b99019301940191949290938d979694610bf1565b5f80fd5b7fb06ebf3d000000000000000000000000000000000000000000000000000000005f5260045ffd5b7f4e487b71000000000000000000000000000000000000000000000000000000005f52601160045260245ffd5b60646040517f08c379a000000000000000000000000000000000000000000000000000000000815260206004820152600c60248201527f74797065202165786973747300000000000000000000000000000000000000006044820152fd5b7fe2517d3f000000000000000000000000000000000000000000000000000000005f52336004527fedcc084d3dcd65a1f7f23c65c46722faca6953d28e43150a467cf43e5c30923860245260445ffd5b34610d9f5760407ffffffffffffffffffffffffffffffffffffffffffffffffffffffffffffffffc360112610d9f57610f26600435610ee36124b9565b90610f21610f1c825f527f02dd7bc7dec4dceedda775e58dd541e08a116c6c53815c0bd028192f7b626800602052600160405f20015490565b612b95565b61301c565b005b34610d9f575f7ffffffffffffffffffffffffffffffffffffffffffffffffffffffffffffffffc360112610d9f57610fa5604051610f67604082612376565b600581527f352e302e3000000000000000000000000000000000000000000000000000000060208201526040519182916020835260208301906122fb565b0390f35b34610d9f575f7ffffffffffffffffffffffffffffffffffffffffffffffffffffffffffffffffc360112610d9f5760206040515f8152f35b34610d9f5760207ffffffffffffffffffffffffffffffffffffffffffffffffffffffffffffffffc360112610d9f57610fa561101e600435612a4e565b6040519182916020835260208301906122fb565b34610d9f5760407ffffffffffffffffffffffffffffffffffffffffffffffffffffffffffffffffc360112610d9f576110696124b9565b6004355f527f02dd7bc7dec4dceedda775e58dd541e08a116c6c53815c0bd028192f7b62680060205273ffffffffffffffffffffffffffffffffffffffff60405f2091165f52602052602060ff60405f2054166040519015158152f35b34610d9f575f7ffffffffffffffffffffffffffffffffffffffffffffffffffffffffffffffffc360112610d9f57602073ffffffffffffffffffffffffffffffffffffffff60035416604051908152f35b34610d9f5760207ffffffffffffffffffffffffffffffffffffffffffffffffffffffffffffffffc360112610d9f5761114e612605565b506004355f52600460205260405f2060016040519161116c8361233e565b6040516111848161117d81856126b1565b0382612376565b8352016040519081602082549182815201915f5260205f20905f5b81811061123d576111da86866111b781880382612376565b6020820190815260405192839260208452516040602085015260608401906122fb565b9051907fffffffffffffffffffffffffffffffffffffffffffffffffffffffffffffffe0838203016040840152602080835192838152019201905f5b818110611224575050500390f35b8251845285945060209384019390920191600101611216565b825484526020909301926001928301920161119f565b34610d9f5760207ffffffffffffffffffffffffffffffffffffffffffffffffffffffffffffffffc360112610d9f576004355f526001602052602060405f2054604051908152f35b34610d9f5760207ffffffffffffffffffffffffffffffffffffffffffffffffffffffffffffffffc360112610d9f576004355f52600160205260405f208054906112e4826124ff565b916112f26040519384612376565b8083526020830180925f5260205f205f915b83831061138d57848660405191829160208301906020845251809152604083019060408160051b85010192915f905b82821061134257505050500390f35b9193602061137d827fffffffffffffffffffffffffffffffffffffffffffffffffffffffffffffffc0600195979984950301865288516122fb565b9601920192018594939192611333565b6001602081926040516113a48161117d81896126b1565b815201920192019190611304565b34610d9f575f7ffffffffffffffffffffffffffffffffffffffffffffffffffffffffffffffffc360112610d9f5773ffffffffffffffffffffffffffffffffffffffff7f00000000000000000000000000000000000000000000000000000000000000001630036114475760206040517f360894a13ba1a3210667c828492db98dca3e2076cc3735a920a3ca505d382bbc8152f35b7fe07c8dba000000000000000000000000000000000000000000000000000000005f5260045ffd5b34610d9f5760207ffffffffffffffffffffffffffffffffffffffffffffffffffffffffffffffffc360112610d9f576004355f9081526005602052604090206002015473ffffffffffffffffffffffffffffffffffffffff16156114dc57602060015b6040519015158152f35b60205f6114d2565b60407ffffffffffffffffffffffffffffffffffffffffffffffffffffffffffffffffc360112610d9f576115166124dc565b60243567ffffffffffffffff8111610d9f5736602382011215610d9f576115479036906024816004013591016123b7565b9073ffffffffffffffffffffffffffffffffffffffff7f00000000000000000000000000000000000000000000000000000000000000001680301490811561181d575b5061144757335f9081527fab71e3f32666744d246edff3f96e4bdafee2e9867098cdd118a979a7464786a8602052604090205460ff16156117cd5773ffffffffffffffffffffffffffffffffffffffff8116916040517f52d1902d000000000000000000000000000000000000000000000000000000008152602081600481875afa5f9181611799575b5061164557837f4c9c8ce3000000000000000000000000000000000000000000000000000000005f5260045260245ffd5b807f360894a13ba1a3210667c828492db98dca3e2076cc3735a920a3ca505d382bbc85920361176e5750823b1561174357807fffffffffffffffffffffffff00000000000000000000000000000000000000007f360894a13ba1a3210667c828492db98dca3e2076cc3735a920a3ca505d382bbc5416177f360894a13ba1a3210667c828492db98dca3e2076cc3735a920a3ca505d382bbc557fbc7cd75a20ee27fd9adebab32041f755214dbc6bffa90cc0225b39da2e5c2d3b5f80a280511561171257610f2691613124565b50503461171b57005b7fb398979f000000000000000000000000000000000000000000000000000000005f5260045ffd5b7f4c9c8ce3000000000000000000000000000000000000000000000000000000005f5260045260245ffd5b7faa1d49a4000000000000000000000000000000000000000000000000000000005f5260045260245ffd5b9091506020813d6020116117c5575b816117b560209383612376565b81010312610d9f57519085611614565b3d91506117a8565b7fe2517d3f000000000000000000000000000000000000000000000000000000005f52336004527f189ab7a9244df0848122154315af71fe140f3db0fe014031783b0946b8c9d2e360245260445ffd5b905073ffffffffffffffffffffffffffffffffffffffff7f360894a13ba1a3210667c828492db98dca3e2076cc3735a920a3ca505d382bbc541614158361158a565b34610d9f575f7ffffffffffffffffffffffffffffffffffffffffffffffffffffffffffffffffc360112610d9f576020600254604051908152f35b34610d9f5760407ffffffffffffffffffffffffffffffffffffffffffffffffffffffffffffffffc360112610d9f5760043560243567ffffffffffffffff8111610d9f5736602382011215610d9f576118fd903690602481600401359101612517565b90611906612b2d565b5f5b8251811015610f2657815f525f60205261194c60208060405f2061192c8588612751565b515190604051938285935191829101845e82019081520301902054612660565b15611977602061195c8487612751565b510151845f525f60205260208060405f2061032a878a612751565b6119c8575b80827fc42c4edbc41dce02b01dd098a1f7a4c685c638d7a2fdfbe449b32e1f89fbfae16103a96119ae60019588612751565b51516119bf6020610392878b612751565b0390a201611908565b815f52600160205260405f20906119df8185612751565b515191805468010000000000000000811015611a4757611a049160018201815561261e565b611a1b57600192611a149161293a565b905061197c565b7f4e487b71000000000000000000000000000000000000000000000000000000005f525f60045260245ffd5b7f4e487b71000000000000000000000000000000000000000000000000000000005f52604160045260245ffd5b34610d9f5760407ffffffffffffffffffffffffffffffffffffffffffffffffffffffffffffffffc360112610d9f57611aab6124b9565b3373ffffffffffffffffffffffffffffffffffffffff821603611ad457610f269060043561301c565b7f6697b232000000000000000000000000000000000000000000000000000000005f5260045ffd5b34610d9f575f7ffffffffffffffffffffffffffffffffffffffffffffffffffffffffffffffffc360112610d9f57602073ffffffffffffffffffffffffffffffffffffffff7f360894a13ba1a3210667c828492db98dca3e2076cc3735a920a3ca505d382bbc5416604051908152f35b34610d9f5760407ffffffffffffffffffffffffffffffffffffffffffffffffffffffffffffffffc360112610d9f57610f26600435611ba96124b9565b90611be2610f1c825f527f02dd7bc7dec4dceedda775e58dd541e08a116c6c53815c0bd028192f7b626800602052600160405f20015490565b612f0a565b34610d9f57611bf536612467565b90611bfe612b2d565b825f525f602052611c2760405f2060206040518092868683378682019081520301902054612660565b15611e7b57825f525f60205260405f20602060405180928585833785820190815203019020611c568154612660565b9081611e38575b5050825f52600160205260405f20905f5b825480821015611e0d5761117d611c95611c88848761261e565b50604051928380926126b1565b60208151910120611ca73687866123b7565b6020815191012014611cbc5750600101611c6e565b7fffffffffffffffffffffffffffffffffffffffffffffffffffffffffffffffff819593949501908111610dcb57611cf7611cff918661261e565b50918561261e565b919091611a1b57611d0f916127c0565b82548015611de0577fffffffffffffffffffffffffffffffffffffffffffffffffffffffffffffffff01611d43818561261e565b949094611a1b5784611d767fca45c60cf1bbd58b2ac673da0d008eb3606c36e814e8d7fe0df3a3e53ecc59b79654612660565b9081611d9d575b5050555b611d986040519283926020845260208401916128fc565b0390a2005b81601f5f9311600114611db45750555b8680611d7d565b81835260208320611dd091601f0160051c810190600101612765565b8082528160208120915555611dad565b7f4e487b71000000000000000000000000000000000000000000000000000000005f52603160045260245ffd5b505090507fca45c60cf1bbd58b2ac673da0d008eb3606c36e814e8d7fe0df3a3e53ecc59b791611d81565b81601f5f9311600114611e4f5750555b8380611c5d565b81835260208320611e6b91601f0160051c810190600101612765565b8082528160208120915555611e48565b60646040517f08c379a000000000000000000000000000000000000000000000000000000000815260206004820152601260248201527f4b657920646f6573206e6f7420657869737400000000000000000000000000006044820152fd5b34610d9f5760207ffffffffffffffffffffffffffffffffffffffffffffffffffffffffffffffffc360112610d9f576020611f416004355f527f02dd7bc7dec4dceedda775e58dd541e08a116c6c53815c0bd028192f7b626800602052600160405f20015490565b604051908152f35b34610d9f5760407ffffffffffffffffffffffffffffffffffffffffffffffffffffffffffffffffc360112610d9f5760243567ffffffffffffffff8111610d9f5761117d61101e602080611fa4610fa595369060040161241b565b6004355f525f825260405f20604051938285935191829101845e820190815203019020604051928380926126b1565b34610d9f5760207ffffffffffffffffffffffffffffffffffffffffffffffffffffffffffffffffc360112610d9f57600435805f52600160205260405f20805461201c816124ff565b9261202a6040519485612376565b8184527fffffffffffffffffffffffffffffffffffffffffffffffffffffffffffffffe0612057836124ff565b015f5b8181106122285750505f5b82811061210f57846040518091602082016020835281518091526040830190602060408260051b8601019301915f905b8282106120a457505050500390f35b919360206120ff827fffffffffffffffffffffffffffffffffffffffffffffffffffffffffffffffc06001959799849503018652885190836120ef83516040845260408401906122fb565b92015190848184039101526122fb565b9601920192018594939192612095565b612119818561261e565b50825f525f60205260405f2061212f838761261e565b50604051915f9180549061214282612660565b91600181169081156121f257506001146121bd575b505082602060019695948461219c9461117d96520301902061117d61218e604051956121828761233e565b604051928380926126b1565b8452604051928380926126b1565b60208201526121ab8288612751565b526121b68187612751565b5001612065565b909192505f5260205f205f905b8282106121de575050820190826020612157565b6001816020925484880152019101906121ca565b7fffffffffffffffffffffffffffffffffffffffffffffffffffffffffffffff0016865250508015150283019150826020612157565b602090612233612605565b8282890101520161205a565b34610d9f5760207ffffffffffffffffffffffffffffffffffffffffffffffffffffffffffffffffc360112610d9f57600435907fffffffff000000000000000000000000000000000000000000000000000000008216809203610d9f57817f7965db0b00000000000000000000000000000000000000000000000000000000602093149081156122d1575b5015158152f35b7f01ffc9a700000000000000000000000000000000000000000000000000000000915014836122ca565b907fffffffffffffffffffffffffffffffffffffffffffffffffffffffffffffffe0601f602080948051918291828752018686015e5f8582860101520116010190565b6040810190811067ffffffffffffffff821117611a4757604052565b6060810190811067ffffffffffffffff821117611a4757604052565b90601f7fffffffffffffffffffffffffffffffffffffffffffffffffffffffffffffffe0910116810190811067ffffffffffffffff821117611a4757604052565b92919267ffffffffffffffff8211611a4757604051916123ff601f82017fffffffffffffffffffffffffffffffffffffffffffffffffffffffffffffffe01660200184612376565b829481845281830111610d9f578281602093845f960137010152565b9080601f83011215610d9f57816020612436933591016123b7565b90565b9181601f84011215610d9f5782359167ffffffffffffffff8311610d9f5760208381860195010111610d9f57565b9060407ffffffffffffffffffffffffffffffffffffffffffffffffffffffffffffffffc830112610d9f57600435916024359067ffffffffffffffff8211610d9f576124b591600401612439565b9091565b6024359073ffffffffffffffffffffffffffffffffffffffff82168203610d9f57565b6004359073ffffffffffffffffffffffffffffffffffffffff82168203610d9f57565b67ffffffffffffffff8111611a475760051b60200190565b92919092612524846124ff565b936125326040519586612376565b602085828152019060051b820191838311610d9f5780915b838310612558575050505050565b823567ffffffffffffffff8111610d9f578201604081870312610d9f57604051916125828361233e565b813567ffffffffffffffff8111610d9f578761259f91840161241b565b835260208201359267ffffffffffffffff8411610d9f576125c58860209586950161241b565b8382015281520192019161254a565b9181601f84011215610d9f5782359167ffffffffffffffff8311610d9f576020808501948460051b010111610d9f57565b604051906126128261233e565b60606020838281520152565b8054821015612633575f5260205f2001905f90565b7f4e487b71000000000000000000000000000000000000000000000000000000005f52603260045260245ffd5b90600182811c921680156126a7575b602083101461267a57565b7f4e487b71000000000000000000000000000000000000000000000000000000005f52602260045260245ffd5b91607f169161266f565b5f92918154916126c083612660565b808352926001811690811561271557506001146126dc57505050565b5f9081526020812093945091925b8383106126fb575060209250010190565b6001816020929493945483858701015201910191906126ea565b905060209495507fffffffffffffffffffffffffffffffffffffffffffffffffffffffffffffff0091509291921683830152151560051b010190565b80518210156126335760209160051b010190565b818110612770575050565b5f8155600101612765565b9190601f811161278a57505050565b6127b4925f5260205f20906020601f840160051c830193106127b6575b601f0160051c0190612765565b565b90915081906127a7565b9190918281146128f7576127d48354612660565b67ffffffffffffffff8111611a47576127f7816127f18454612660565b8461277b565b5f93601f82116001146128545761284592939482915f92612849575b50507fffffffffffffffffffffffffffffffffffffffffffffffffffffffffffffffff8260011b9260031b1c19161790565b9055565b015490505f80612813565b7fffffffffffffffffffffffffffffffffffffffffffffffffffffffffffffffe08216905f5260205f2094835f5260205f20915f5b8181106128df575095836001959697106128a8575b505050811b019055565b01547fffffffffffffffffffffffffffffffffffffffffffffffffffffffffffffffff60f88460031b161c191690555f808061289e565b9192600180602092868b015481550194019201612889565b509050565b601f82602094937fffffffffffffffffffffffffffffffffffffffffffffffffffffffffffffffe093818652868601375f8582860101520116010190565b919091825167ffffffffffffffff8111611a475761295c816127f18454612660565b6020601f82116001146129b45781906128459394955f926129a95750507fffffffffffffffffffffffffffffffffffffffffffffffffffffffffffffffff8260011b9260031b1c19161790565b015190505f80612813565b7fffffffffffffffffffffffffffffffffffffffffffffffffffffffffffffffe0821690835f52805f20915f5b818110612a36575095836001959697106129ff57505050811b019055565b01517fffffffffffffffffffffffffffffffffffffffffffffffffffffffffffffffff60f88460031b161c191690555f808061289e565b9192602060018192868b0151815501940192016129e1565b612ab790612abe60409160208351612a668582612376565b60038152818101927f757269000000000000000000000000000000000000000000000000000000000084525f525f8252845f208551938492518091845e8201908152030190208251938480926126b1565b0383612376565b815115612ac9575090565b905051612ad7602082612376565b5f815290565b90357fffffffffffffffffffffffffffffffffffffffffffffffffffffffffffffffe182360301811215610d9f57016020813591019167ffffffffffffffff8211610d9f578136038313610d9f57565b335f9081527fb7db2dd08fcb62d0c9e08c51941cae53c267786a0b75803fb7960902fc8ef97d602052604090205460ff1615612b6557565b7fe2517d3f000000000000000000000000000000000000000000000000000000005f52336004525f60245260445ffd5b805f527f02dd7bc7dec4dceedda775e58dd541e08a116c6c53815c0bd028192f7b62680060205260405f2073ffffffffffffffffffffffffffffffffffffffff33165f5260205260ff60405f20541615612bec5750565b7fe2517d3f000000000000000000000000000000000000000000000000000000005f523360045260245260445ffd5b73ffffffffffffffffffffffffffffffffffffffff81165f9081527fb7db2dd08fcb62d0c9e08c51941cae53c267786a0b75803fb7960902fc8ef97d602052604090205460ff16612cfd5773ffffffffffffffffffffffffffffffffffffffff165f8181527fb7db2dd08fcb62d0c9e08c51941cae53c267786a0b75803fb7960902fc8ef97d6020526040812080547fffffffffffffffffffffffffffffffffffffffffffffffffffffffffffffff001660011790553391907f2f8788117e7eff1d82e926ec794901d17c78024a50270940304540a733656f0d8180a4600190565b505f90565b73ffffffffffffffffffffffffffffffffffffffff81165f9081527fab71e3f32666744d246edff3f96e4bdafee2e9867098cdd118a979a7464786a8602052604090205460ff16612cfd5773ffffffffffffffffffffffffffffffffffffffff165f8181527fab71e3f32666744d246edff3f96e4bdafee2e9867098cdd118a979a7464786a86020526040812080547fffffffffffffffffffffffffffffffffffffffffffffffffffffffffffffff001660011790553391907f189ab7a9244df0848122154315af71fe140f3db0fe014031783b0946b8c9d2e3907f2f8788117e7eff1d82e926ec794901d17c78024a50270940304540a733656f0d9080a4600190565b73ffffffffffffffffffffffffffffffffffffffff81165f9081527f07966f2ab141347034724e9b2a472c2f77f5cd745aeba27cacba797b8fcb7086602052604090205460ff16612cfd5773ffffffffffffffffffffffffffffffffffffffff165f8181527f07966f2ab141347034724e9b2a472c2f77f5cd745aeba27cacba797b8fcb70866020526040812080547fffffffffffffffffffffffffffffffffffffffffffffffffffffffffffffff001660011790553391907fedcc084d3dcd65a1f7f23c65c46722faca6953d28e43150a467cf43e5c309238907f2f8788117e7eff1d82e926ec794901d17c78024a50270940304540a733656f0d9080a4600190565b805f527f02dd7bc7dec4dceedda775e58dd541e08a116c6c53815c0bd028192f7b62680060205260405f2073ffffffffffffffffffffffffffffffffffffffff83165f5260205260ff60405f205416155f1461301657805f527f02dd7bc7dec4dceedda775e58dd541e08a116c6c53815c0bd028192f7b62680060205260405f2073ffffffffffffffffffffffffffffffffffffffff83165f5260205260405f2060017fffffffffffffffffffffffffffffffffffffffffffffffffffffffffffffff0082541617905573ffffffffffffffffffffffffffffffffffffffff339216907f2f8788117e7eff1d82e926ec794901d17c78024a50270940304540a733656f0d5f80a4600190565b50505f90565b805f527f02dd7bc7dec4dceedda775e58dd541e08a116c6c53815c0bd028192f7b62680060205260405f2073ffffffffffffffffffffffffffffffffffffffff83165f5260205260ff60405f2054165f1461301657805f527f02dd7bc7dec4dceedda775e58dd541e08a116c6c53815c0bd028192f7b62680060205260405f2073ffffffffffffffffffffffffffffffffffffffff83165f5260205260405f207fffffffffffffffffffffffffffffffffffffffffffffffffffffffffffffff00815416905573ffffffffffffffffffffffffffffffffffffffff339216907ff6391f5c32d9c69d2a47ea670b442974b53935d1edc7fd64eb21e047a839171b5f80a4600190565b905f8091602081519101845af480806131d8575b156131585750506040513d81523d5f602083013e60203d82010160405290565b1561319f5773ffffffffffffffffffffffffffffffffffffffff907f9996b315000000000000000000000000000000000000000000000000000000005f521660045260245ffd5b3d156131b0576040513d5f823e3d90fd5b7fd6bda275000000000000000000000000000000000000000000000000000000005f5260045ffd5b503d1515806131385750813b151561313856fea2646970667358221220d52e37e65d44925fea3c5cf59bae63c757933dcc5e6a9beaa780ec8562f1cf3464736f6c634300081e0033f0c57e16840df040f15088dc2f81fe391c3923bec73e23a9662efc9c229c6a00","linkReferences":{}},"methodIdentifiers":{"DEFAULT_ADMIN_ROLE()":"a217fddf","UPGRADE_INTERFACE_VERSION()":"ad3cb1cc","assetERC20Implementation()":"85f27d32","assetExists(uint256)":"518e2bdd","assetId()":"44de240a","createAsset(string,bytes32,bytes32[],(string,string)[])":"fba01f03","getAllMetadata(bytes32)":"05daf368","getAllMetadataKeys(bytes32)":"5cb0e05a","getAsset(uint256)":"eac8f5b8","getMetadata(bytes32,string)":"0e1ae91b","getMetadataCount(bytes32)":"5e597156","getRoleAdmin(bytes32)":"248a9ca3","getType(bytes32)":"7f2aeea4","getUupsImplementation()":"358410d5","grantRole(bytes32,address)":"2f2ff15d","hasMetadata(bytes32,string)":"e5e0a25d","hasRole(bytes32,address)":"91d14854","initialize(address,address,address,address)":"f8c8765e","proxiableUUID()":"52d1902d","registerAsset(bytes32,string,string,uint256,address,address,address,(string,string)[])":"d904cd17","removeMetadata(bytes32,string)":"26f389ba","renounceRole(bytes32,address)":"36568abe","revokeRole(bytes32,address)":"d547741f","setMetadata(bytes32,(string,string)[])":"3b41f4ea","supportsInterface(bytes4)":"01ffc9a7","upgradeToAndCall(address,bytes)":"4f1ef286","uri(bytes32)":"9ed19ddb"},"storageLayout":{"storage":[{"astId":61744,"contract":"src/AssetRegistry.sol:AssetRegistry","label":"_metadata","offset":0,"slot":"0","type":"t_mapping(t_bytes32,t_mapping(t_string_memory_ptr,t_string_storage))"},{"astId":61750,"contract":"src/AssetRegistry.sol:AssetRegistry","label":"_metadataKeys","offset":0,"slot":"1","type":"t_mapping(t_bytes32,t_array(t_string_storage)dyn_storage)"},{"astId":59880,"contract":"src/AssetRegistry.sol:AssetRegistry","label":"assetId","offset":0,"slot":"2","type":"t_uint256"},{"astId":59883,"contract":"src/AssetRegistry.sol:AssetRegistry","label":"assetERC20Implementation","offset":0,"slot":"3","type":"t_address"},{"astId":59889,"contract":"src/AssetRegistry.sol:AssetRegistry","label":"_assetTypes","offset":0,"slot":"4","type":"t_mapping(t_bytes32,t_struct(AssetType)59869_storage)"},{"astId":59895,"contract":"src/AssetRegistry.sol:AssetRegistry","label":"_assets","offset":0,"slot":"5","type":"t_mapping(t_uint256,t_struct(Asset)59877_storage)"}],"types":{"t_address":{"encoding":"inplace","label":"address","numberOfBytes":"20"},"t_array(t_bytes32)dyn_storage":{"encoding":"dynamic_array","label":"bytes32[]","numberOfBytes":"32","base":"t_bytes32"},"t_array(t_string_storage)dyn_storage":{"encoding":"dynamic_array","label":"string[]","numberOfBytes":"32","base":"t_string_storage"},"t_bytes32":{"encoding":"inplace","label":"bytes32","numberOfBytes":"32"},"t_mapping(t_bytes32,t_array(t_string_storage)dyn_storage)":{"encoding":"mapping","key":"t_bytes32","label":"mapping(bytes32 => string[])","numberOfBytes":"32","value":"t_array(t_string_storage)dyn_storage"},"t_mapping(t_bytes32,t_mapping(t_string_memory_ptr,t_string_storage))":{"encoding":"mapping","key":"t_bytes32","label":"mapping(bytes32 => mapping(string => string))","numberOfBytes":"32","value":"t_mapping(t_string_memory_ptr,t_string_storage)"},"t_mapping(t_bytes32,t_struct(AssetType)59869_storage)":{"encoding":"mapping","key":"t_bytes32","label":"mapping(bytes32 => struct AssetRegistry.AssetType)","numberOfBytes":"32","value":"t_struct(AssetType)59869_storage"},"t_mapping(t_string_memory_ptr,t_string_storage)":{"encoding":"mapping","key":"t_string_memory_ptr","label":"mapping(string => string)","numberOfBytes":"32","value":"t_string_storage"},"t_mapping(t_uint256,t_struct(Asset)59877_storage)":{"encoding":"mapping","key":"t_uint256","label":"mapping(uint256 => struct AssetRegistry.Asset)","numberOfBytes":"32","value":"t_struct(Asset)59877_storage"},"t_string_memory_ptr":{"encoding":"bytes","label":"string","numberOfBytes":"32"},"t_string_storage":{"encoding":"bytes","label":"string","numberOfBytes":"32"},"t_struct(Asset)59877_storage":{"encoding":"inplace","label":"struct AssetRegistry.Asset","numberOfBytes":"96","members":[{"astId":59872,"contract":"src/AssetRegistry.sol:AssetRegistry","label":"schemaHash","offset":0,"slot":"0","type":"t_bytes32"},{"astId":59874,"contract":"src/AssetRegistry.sol:AssetRegistry","label":"issuer","offset":0,"slot":"1","type":"t_address"},{"astId":59876,"contract":"src/AssetRegistry.sol:AssetRegistry","label":"tokenAddress","offset":0,"slot":"2","type":"t_address"}]},"t_struct(AssetType)59869_storage":{"encoding":"inplace","label":"struct AssetRegistry.AssetType","numberOfBytes":"64","members":[{"astId":59865,"contract":"src/AssetRegistry.sol:AssetRegistry","label":"name","offset":0,"slot":"0","type":"t_string_storage"},{"astId":59868,"contract":"src/AssetRegistry.sol:AssetRegistry","label":"requiredLeaseKeys","offset":0,"slot":"1","type":"t_array(t_bytes32)dyn_storage"}]},"t_uint256":{"encoding":"inplace","label":"uint256","numberOfBytes":"32"}}},"id":82}