{"abi":[{"type":"constructor","inputs":[{"name":"admin","type":"address","internalType":"address"},{"name":"registrar","type":"address","internalType":"address"}],"stateMutability":"nonpayable"},{"type":"function","name":"DEFAULT_ADMIN_ROLE","inputs":[],"outputs":[{"name":"","type":"bytes32","internalType":"bytes32"}],"stateMutability":"view"},{"type":"function","name":"REGISTRAR_ROLE","inputs":[],"outputs":[{"name":"","type":"bytes32","internalType":"bytes32"}],"stateMutability":"view"},{"type":"function","name":"assetExists","inputs":[{"name":"id","type":"uint256","internalType":"uint256"}],"outputs":[{"name":"","type":"bool","internalType":"bool"}],"stateMutability":"view"},{"type":"function","name":"assetId","inputs":[],"outputs":[{"name":"","type":"uint256","internalType":"uint256"}],"stateMutability":"view"},{"type":"function","name":"createAsset","inputs":[{"name":"name","type":"string","internalType":"string"},{"name":"schemaHash","type":"bytes32","internalType":"bytes32"},{"name":"requiredLeaseKeys","type":"bytes32[]","internalType":"bytes32[]"},{"name":"metadata","type":"tuple[]","internalType":"struct MetadataStorage.Metadata[]","components":[{"name":"key","type":"string","internalType":"string"},{"name":"value","type":"string","internalType":"string"}]}],"outputs":[],"stateMutability":"nonpayable"},{"type":"function","name":"getAllMetadata","inputs":[{"name":"hash","type":"bytes32","internalType":"bytes32"}],"outputs":[{"name":"metadata","type":"tuple[]","internalType":"struct MetadataStorage.Metadata[]","components":[{"name":"key","type":"string","internalType":"string"},{"name":"value","type":"string","internalType":"string"}]}],"stateMutability":"view"},{"type":"function","name":"getAllMetadataKeys","inputs":[{"name":"hash","type":"bytes32","internalType":"bytes32"}],"outputs":[{"name":"keys","type":"string[]","internalType":"string[]"}],"stateMutability":"view"},{"type":"function","name":"getAsset","inputs":[{"name":"id","type":"uint256","internalType":"uint256"}],"outputs":[{"name":"","type":"tuple","internalType":"struct AssetRegistry.Asset","components":[{"name":"schemaHash","type":"bytes32","internalType":"bytes32"},{"name":"issuer","type":"address","internalType":"address"},{"name":"tokenAddress","type":"address","internalType":"address"}]}],"stateMutability":"view"},{"type":"function","name":"getMetadata","inputs":[{"name":"hash","type":"bytes32","internalType":"bytes32"},{"name":"key","type":"string","internalType":"string"}],"outputs":[{"name":"value","type":"string","internalType":"string"}],"stateMutability":"view"},{"type":"function","name":"getMetadataCount","inputs":[{"name":"hash","type":"bytes32","internalType":"bytes32"}],"outputs":[{"name":"count","type":"uint256","internalType":"uint256"}],"stateMutability":"view"},{"type":"function","name":"getRoleAdmin","inputs":[{"name":"role","type":"bytes32","internalType":"bytes32"}],"outputs":[{"name":"","type":"bytes32","internalType":"bytes32"}],"stateMutability":"view"},{"type":"function","name":"getType","inputs":[{"name":"schemaHash","type":"bytes32","internalType":"bytes32"}],"outputs":[{"name":"","type":"tuple","internalType":"struct AssetRegistry.AssetType","components":[{"name":"name","type":"string","internalType":"string"},{"name":"requiredLeaseKeys","type":"bytes32[]","internalType":"bytes32[]"}]}],"stateMutability":"view"},{"type":"function","name":"grantRole","inputs":[{"name":"role","type":"bytes32","internalType":"bytes32"},{"name":"account","type":"address","internalType":"address"}],"outputs":[],"stateMutability":"nonpayable"},{"type":"function","name":"hasMetadata","inputs":[{"name":"hash","type":"bytes32","internalType":"bytes32"},{"name":"key","type":"string","internalType":"string"}],"outputs":[{"name":"exists","type":"bool","internalType":"bool"}],"stateMutability":"view"},{"type":"function","name":"hasRole","inputs":[{"name":"role","type":"bytes32","internalType":"bytes32"},{"name":"account","type":"address","internalType":"address"}],"outputs":[{"name":"","type":"bool","internalType":"bool"}],"stateMutability":"view"},{"type":"function","name":"registerAsset","inputs":[{"name":"schemaHash","type":"bytes32","internalType":"bytes32"},{"name":"tokenName","type":"string","internalType":"string"},{"name":"tokenSymbol","type":"string","internalType":"string"},{"name":"totalSupply","type":"uint256","internalType":"uint256"},{"name":"admin","type":"address","internalType":"address"},{"name":"tokenRecipient","type":"address","internalType":"address"},{"name":"metadata","type":"tuple[]","internalType":"struct MetadataStorage.Metadata[]","components":[{"name":"key","type":"string","internalType":"string"},{"name":"value","type":"string","internalType":"string"}]}],"outputs":[{"name":"newAssetId","type":"uint256","internalType":"uint256"},{"name":"tokenAddress","type":"address","internalType":"address"}],"stateMutability":"nonpayable"},{"type":"function","name":"removeMetadata","inputs":[{"name":"hash","type":"bytes32","internalType":"bytes32"},{"name":"key","type":"string","internalType":"string"}],"outputs":[],"stateMutability":"nonpayable"},{"type":"function","name":"renounceRole","inputs":[{"name":"role","type":"bytes32","internalType":"bytes32"},{"name":"callerConfirmation","type":"address","internalType":"address"}],"outputs":[],"stateMutability":"nonpayable"},{"type":"function","name":"revokeRole","inputs":[{"name":"role","type":"bytes32","internalType":"bytes32"},{"name":"account","type":"address","internalType":"address"}],"outputs":[],"stateMutability":"nonpayable"},{"type":"function","name":"setMetadata","inputs":[{"name":"hash","type":"bytes32","internalType":"bytes32"},{"name":"metadata_","type":"tuple[]","internalType":"struct MetadataStorage.Metadata[]","components":[{"name":"key","type":"string","internalType":"string"},{"name":"value","type":"string","internalType":"string"}]}],"outputs":[],"stateMutability":"nonpayable"},{"type":"function","name":"supportsInterface","inputs":[{"name":"interfaceId","type":"bytes4","internalType":"bytes4"}],"outputs":[{"name":"","type":"bool","internalType":"bool"}],"stateMutability":"view"},{"type":"function","name":"tokenURI","inputs":[{"name":"schemaHash","type":"bytes32","internalType":"bytes32"}],"outputs":[{"name":"","type":"string","internalType":"string"}],"stateMutability":"view"},{"type":"event","name":"AssetRegistered","inputs":[{"name":"assetId","type":"uint256","indexed":true,"internalType":"uint256"},{"name":"schemaHash","type":"bytes32","indexed":true,"internalType":"bytes32"},{"name":"tokenAddress","type":"address","indexed":false,"internalType":"address"}],"anonymous":false},{"type":"event","name":"AssetTypeCreated","inputs":[{"name":"name","type":"string","indexed":true,"internalType":"string"},{"name":"schemaHash","type":"bytes32","indexed":true,"internalType":"bytes32"},{"name":"requiredLeaseKeys","type":"bytes32[]","indexed":false,"internalType":"bytes32[]"}],"anonymous":false},{"type":"event","name":"MetadataRemoved","inputs":[{"name":"hash","type":"bytes32","indexed":true,"internalType":"bytes32"},{"name":"key","type":"string","indexed":false,"internalType":"string"}],"anonymous":false},{"type":"event","name":"MetadataUpdated","inputs":[{"name":"hash","type":"bytes32","indexed":true,"internalType":"bytes32"},{"name":"key","type":"string","indexed":false,"internalType":"string"},{"name":"value","type":"string","indexed":false,"internalType":"string"}],"anonymous":false},{"type":"event","name":"RoleAdminChanged","inputs":[{"name":"role","type":"bytes32","indexed":true,"internalType":"bytes32"},{"name":"previousAdminRole","type":"bytes32","indexed":true,"internalType":"bytes32"},{"name":"newAdminRole","type":"bytes32","indexed":true,"internalType":"bytes32"}],"anonymous":false},{"type":"event","name":"RoleGranted","inputs":[{"name":"role","type":"bytes32","indexed":true,"internalType":"bytes32"},{"name":"account","type":"address","indexed":true,"internalType":"address"},{"name":"sender","type":"address","indexed":true,"internalType":"address"}],"anonymous":false},{"type":"event","name":"RoleRevoked","inputs":[{"name":"role","type":"bytes32","indexed":true,"internalType":"bytes32"},{"name":"account","type":"address","indexed":true,"internalType":"address"},{"name":"sender","type":"address","indexed":true,"internalType":"address"}],"anonymous":false},{"type":"error","name":"AccessControlBadConfirmation","inputs":[]},{"type":"error","name":"AccessControlUnauthorizedAccount","inputs":[{"name":"account","type":"address","internalType":"address"},{"name":"neededRole","type":"bytes32","internalType":"bytes32"}]}],"bytecode":{"object":"0x60803461007557601f614a9738819003918201601f19168301916001600160401b03831184841017610079578084926040948552833981010312610075578061005f61005960206100526100659561008d565b930161008d565b916100a1565b5061010d565b506040516148ab90816101ac8239f35b5f80fd5b634e487b7160e01b5f52604160045260245ffd5b51906001600160a01b038216820361007557565b6001600160a01b03165f8181525f80516020614a77833981519152602052604090205460ff16610108575f8181525f80516020614a7783398151915260205260408120805460ff191660011790553391905f80516020614a578339815191528180a4600190565b505f90565b6001600160a01b03165f8181527f01ddc098da42acdf4176da08ec75800bc0fb2bce2be978b2037bcb0ae696651960205260409020547fedcc084d3dcd65a1f7f23c65c46722faca6953d28e43150a467cf43e5c309238919060ff166101a557815f525f60205260405f20815f5260205260405f20600160ff1982541617905533915f80516020614a578339815191525f80a4600190565b50505f9056fe6080806040526004361015610012575f80fd5b5f3560e01c90816301ffc9a7146113055750806305daf368146111145780630e1ae91b146110a8578063248a9ca31461107c57806326f389ba14610e005780632f2ff15d14610dc457806336568abe14610d7d5780633b41f4ea14610bc857806344de240a14610bab578063518e2bdd14610b615780635cb0e05a14610a875780635e59715614610a5d5780637a5782f81461074b5780637f2aeea41461065957806391d1485414610611578063a217fddf146105f7578063afbb8d51146105c0578063d547741f14610582578063e5e0a25d14610540578063eac8f5b8146104b8578063f68e95531461047e5763fba01f031461010e575f80fd5b34610430576080366003190112610430576001600160401b036004358181116104305761013f903690600401611436565b9160443581811161043057610158903690600401611574565b9060643583811161043057610171903690600401611574565b61017961199e565b604051946101868661137c565b6101913689896113d3565b865261019c856114ac565b6101a960405191826113b2565b85815260208101968660051b9736898801116104305786905b898801821061046e575050806020600192019283526024355f5260046020526101f060405f209151826118db565b01905180519283116103b457600160401b83116103b4578154838355808410610448575b50602001905f5260205f205f5b8381106104345750505050906102389136916114c3565b9461024161199e565b5f5b86518110156103c8576024355f52600160205261028a60208060405f2061026a858c6116af565b515190604051938285935191829101845e820190815203019020546115e6565b156102d8602061029a848b6116af565b5101516024355f5260016020526020808b6102b98760405f20926116af565b515190604051938285935191829101845e8201908152030190206118db565b610351575b806102ea600192896116af565b51517fc42c4edbc41dce02b01dd098a1f7a4c685c638d7a2fdfbe449b32e1f89fbfae1610337602061031c858d6116af565b51015192610348604051928392604084526040840190611358565b828103602084015260243595611358565b0390a201610243565b6024355f52600260205260405f209061036a81896116af565b5151918054600160401b8110156103b45761038a916001820181556115bd565b6103a15760019261039a916118db565b90506102dd565b634e487b7160e01b5f525f60045260245ffd5b634e487b7160e01b5f52604160045260245ffd5b50848160405192839283375f9082019081520390206040516020808252810184905290926001600160fb1b031061043057837fb465a381bc5b7c249b2d273580b13753c505208f430da9624481dc3a9d9133bc926040830137604081602435958101030190a3005b5f80fd5b600190602084519401938184015501610221565b825f528360205f2091820191015b8181106104635750610214565b5f8155600101610456565b81358152602091820191016101c2565b34610430575f3660031901126104305760206040517fedcc084d3dcd65a1f7f23c65c46722faca6953d28e43150a467cf43e5c3092388152f35b34610430576020366003190112610430575f604080516104d781611397565b82815282602082015201526004355f526005602052606060405f20604051906104ff82611397565b80549182815260018060a01b038260408260028160018198015416936020870194855201541693019283526040519485525116602084015251166040820152f35b346104305760206105788161055436611463565b92915f526001825260405f20836040519485938437820190815203019020546115e6565b1515604051908152f35b34610430576040366003190112610430576105be6004356105a1611496565b90805f525f6020526105b9600160405f2001546119f4565b611a91565b005b34610430576020366003190112610430576105f36105df600435611853565b604051918291602083526020830190611358565b0390f35b34610430575f3660031901126104305760206040515f8152f35b346104305760403660031901126104305761062a611496565b6004355f525f60205260405f209060018060a01b03165f52602052602060ff60405f2054166040519015158152f35b3461043057602080600319360112610430576106736115a4565b506004355f526004815260405f206040519061068e8261137c565b6040516106a68161069f818561161e565b03826113b2565b825260018091019260405193848282549182815201915f52825f20905f5b81811061073857505050846106da9103856113b2565b8083019384526106fb60405193828552516040838601526060850190611358565b9351838503601f19016040850152805180865294820194908201915f5b8281106107255785870386f35b8351875295810195928101928401610718565b82548452928401929185019185016106c4565b346104305760e0366003190112610430576001600160401b036004356024358281116104305761077f903690600401611436565b6044939193358281116104305761079a903690600401611436565b6001600160a01b039590949160843587811691908290036104305760a435958887168097036104305760c435818111610430576107db903690600401611574565b917fedcc084d3dcd65a1f7f23c65c46722faca6953d28e43150a467cf43e5c30923897885f526020985f8a5260405f20335f528a5260ff60405f20541615610a3f5750875f526004895261083260405f20546115e6565b15610a0b57600354945f1986146109f75760018096019b8c60035560405198612d7290818b01958b8710908711176103b457610889908b9a9896956108969594939a989a611b048d3960e0875260e0870191611802565b918483038d860152611802565b9360643560408301528b606083015260808201528960a082015260c081850391015280835287830192888260051b8201019480945f925b848410610982575050505050505003905ff0948515610977578060409616938651916108f883611397565b838352848301918252600288840193878552885f5260058752895f20905181558260018201945116936bffffffffffffffffffffffff60a01b94858254161790550192511690825416179055837f2aa9c4e6dfc93d089f25ff3356df5305b7977f768884056b3bf4c0361e2ab2ac838751868152a38351928352820152f35b6040513d5f823e3d90fd5b9193959750919395601f198282030183528735603e1985360301811215610430578b6109e3899387839401906109d66109cc6109be8480611822565b604085526040850191611802565b9285810190611822565b9185818503910152611802565b9901930194019194929093889796946108cd565b634e487b7160e01b5f52601160045260245ffd5b60405162461bcd60e51b8152600481018a9052600c60248201526b74797065202165786973747360a01b6044820152606490fd5b6044906040519063e2517d3f60e01b82523360048301526024820152fd5b34610430576020366003190112610430576004355f526002602052602060405f2054604051908152f35b3461043057602080600319360112610430576004355f526002815260405f2090815491610ab3836114ac565b92610ac160405194856113b2565b80845282840180925f52835f205f915b838310610b375750505050604051918083019381845251809452604083019360408160051b85010192915f955b828710610b0b5785850386f35b909192938280610b27600193603f198a82030186528851611358565b9601920196019592919092610afe565b6001868192604099989951610b508161069f818961161e565b815201920192019190959495610ad1565b34610430576020366003190112610430576004355f908152600560205260409020600201546001600160a01b031615610ba357602060015b6040519015158152f35b60205f610b99565b34610430575f366003190112610430576020600354604051908152f35b3461043057604036600319011261043057600435602480356001600160401b038111610430573660238201121561043057610c0d9036906024816004013591016114c3565b91610c1661199e565b5f5b83518110156105be57815f52816001602090808252610c40828060405f2061026a888c6116af565b15610c6983610c4f878b6116af565b510151855f5283855284808b6102b98a60405f20926116af565b610ce0575b50907fc42c4edbc41dce02b01dd098a1f7a4c685c638d7a2fdfbe449b32e1f89fbfae1610cca8493610cd7610ca56001978b6116af565b51519180610cb3888d6116af565b510151604051948594604086526040860190611358565b9184830390850152611358565b0390a201610c18565b90915f526002825260405f2090610cf784886116af565b515191805491600160401b831015610d6a5782018155610d1791906115bd565b610d5857610cca60019493610d4e87947fc42c4edbc41dce02b01dd098a1f7a4c685c638d7a2fdfbe449b32e1f89fbfae1946118db565b9293945050610c6e565b85634e487b7160e01b5f525f6004525ffd5b87634e487b7160e01b5f5260416004525ffd5b3461043057604036600319011261043057610d96611496565b336001600160a01b03821603610db2576105be90600435611a91565b60405163334bd91960e11b8152600490fd5b34610430576040366003190112610430576105be600435610de3611496565b90805f525f602052610dfb600160405f2001546119f4565b611a15565b3461043057610e0e36611463565b610e1992919261199e565b815f526001602090808252610e4560405f20836040518092878a833787820190815203019020546115e6565b1561104257835f5280825260405f208260405180928689833786820190815203019020610e7281546115e6565b9081611007575b5050835f526002825260405f20815f905b610ece575b505050610ec97fca45c60cf1bbd58b2ac673da0d008eb3606c36e814e8d7fe0df3a3e53ecc59b79394604051938385948552840191611802565b0390a2005b8154808210156110015761069f610ef5610ee884866115bd565b506040519283809261161e565b858151910120610f0636888b6113d3565b86815191012014610f1a5750820182610e8a565b905f979293969719918281019081116109f757610f3a610f4291866115bd565b5091856115bd565b9190916103a157610f529161171e565b82548015610fed5701610f6581846115bd565b9390936103a1577fca45c60cf1bbd58b2ac673da0d008eb3606c36e814e8d7fe0df3a3e53ecc59b79684610f9c610ec996546115e6565b80610fae575b50505055949386610e8f565b5f92601f808311600114610fc957505050555b888080610fa2565b8391610fe69186949585528b8520950160051c85019085016116c3565b5555610fc1565b634e487b7160e01b5f52603160045260245ffd5b50610e8f565b81601f5f931160011461101e5750555b8580610e79565b90808391825261103b601f878420940160051c84018685016116c3565b5555611017565b60405162461bcd60e51b815260048101839052601260248201527112d95e48191bd95cc81b9bdd08195e1a5cdd60721b6044820152606490fd5b34610430576020366003190112610430576004355f525f6020526020600160405f200154604051908152f35b34610430576040366003190112610430576024356001600160401b0381116104305761069f6105df6020806110e46105f3953690600401611418565b6004355f526001825260405f20604051938285935191829101845e8201908152030190206040519283809261161e565b346104305760208060031936011261043057600435805f526002825260405f20805491611140836114ac565b9161114e60405193846113b2565b83835261115a846114ac565b601f1901855f5b8281106112ef575050505f5b8481106111f1576040805187815285518189018190525f92600582901b8301810191888b01918b9085015b8287106111a55785850386f35b9091929382806111e1600193603f198a8203018652885190836111d18351604084526040840190611358565b9201519084818403910152611358565b9601920196019592919092611198565b6111fb81836115bd565b50835f5260018088528760405f209161121485876115bd565b5092604051935f92815491611228836115e6565b928281169081156112d557506001146112a1575b5050509261069f928183600198979661128195520301902061069f611273604051956112678761137c565b6040519283809261161e565b84526040519283809261161e565b8882015261128f82876116af565b5261129a81866116af565b500161116d565b5f90815285812093945091925b8383106112c4575050508301908284600161123c565b8054878401529185019181016112ae565b60ff1916885250505080151502840191508284600161123c565b6112f76115a4565b828288010152018690611161565b34610430576020366003190112610430576004359063ffffffff60e01b821680920361043057602091637965db0b60e01b8114908115611347575b5015158152f35b6301ffc9a760e01b14905083611340565b805180835260209291819084018484015e5f828201840152601f01601f1916010190565b604081019081106001600160401b038211176103b457604052565b606081019081106001600160401b038211176103b457604052565b90601f801991011681019081106001600160401b038211176103b457604052565b9291926001600160401b0382116103b457604051916113fc601f8201601f1916602001846113b2565b829481845281830111610430578281602093845f960137010152565b9080601f8301121561043057816020611433933591016113d3565b90565b9181601f84011215610430578235916001600160401b038311610430576020838186019501011161043057565b9060406003198301126104305760043591602435906001600160401b0382116104305761149291600401611436565b9091565b602435906001600160a01b038216820361043057565b6001600160401b0381116103b45760051b60200190565b909291926114d0816114ac565b916040916114e160405194856113b2565b839581855260208095019160051b8301938185116104305783925b85841061150c5750505050505050565b6001600160401b039084358281116104305786019083828603126104305783516115358161137c565b8235848111610430578661154a918501611418565b81528983013593841161043057611565868b95869501611418565b838201528152019301926114fc565b9181601f84011215610430578235916001600160401b038311610430576020808501948460051b01011161043057565b604051906115b18261137c565b60606020838281520152565b80548210156115d2575f5260205f2001905f90565b634e487b7160e01b5f52603260045260245ffd5b90600182811c92168015611614575b602083101461160057565b634e487b7160e01b5f52602260045260245ffd5b91607f16916115f5565b80545f939261162c826115e6565b918282526020936001916001811690815f146116905750600114611652575b5050505050565b90939495505f92919252835f2092845f945b83861061167c57505050500101905f8080808061164b565b805485870183015294019385908201611664565b60ff19168685015250505090151560051b010191505f8080808061164b565b80518210156115d25760209160051b010190565b8181106116ce575050565b5f81556001016116c3565b9190601f81116116e857505050565b611712925f5260205f20906020601f840160051c83019310611714575b601f0160051c01906116c3565b565b9091508190611705565b908082146117fe5761173081546115e6565b906001600160401b0382116103b4576117538261174d85546115e6565b856116d9565b5f90601f83116001146117905761178192915f9183611785575b50508160011b915f199060031b1c19161790565b9055565b015490505f8061176d565b90601f198316915f5260209160205f2090855f5260205f20935f905b8282106117e55750509084600195949392106117cd575b505050811b019055565b01545f1960f88460031b161c191690555f80806117c3565b84958192958501548155600180910196019401906117ac565b5050565b908060209392818452848401375f828201840152601f01601f1916010190565b9035601e19823603018112156104305701602081359101916001600160401b03821161043057813603831361043057565b6118a7906118ae6040916020835161186a8161137c565b600881528181019267746f6b656e55524960c01b84525f5260018252845f208551938492518091845e82019081520301902082519384809261161e565b03836113b2565b8151156118b9575090565b8051915060208201906001600160401b038211838310176103b457525f815290565b91909182516001600160401b0381116103b457611902816118fc84546115e6565b846116d9565b602080601f831160011461193e575081906117819394955f926119335750508160011b915f199060031b1c19161790565b015190505f8061176d565b90601f19831695845f5260205f20925f905b8882106119865750508360019596971061196e57505050811b019055565b01515f1960f88460031b161c191690555f80806117c3565b80600185968294968601518155019501930190611950565b335f9081527fad3228b676f7d3cd4284a5443f17f1962b36e491b30a40b2405849e597ba5fb5602052604090205460ff16156119d657565b60405163e2517d3f60e01b81523360048201525f6024820152604490fd5b805f525f60205260405f20335f5260205260ff60405f20541615610a3f5750565b90815f525f60205260405f209060018060a01b031690815f5260205260ff60405f205416155f14611a8b57815f525f60205260405f20815f5260205260405f20600160ff1982541617905533917f2f8788117e7eff1d82e926ec794901d17c78024a50270940304540a733656f0d5f80a4600190565b50505f90565b90815f525f60205260405f209060018060a01b031690815f5260205260ff60405f2054165f14611a8b57815f525f60205260405f20815f5260205260405f2060ff19815416905533917ff6391f5c32d9c69d2a47ea670b442974b53935d1edc7fd64eb21e047a839171b5f80a460019056fe610180806040523461074f57612d72803803809161001d828561076e565b833981019060e08183031261074f5780516001600160401b03811161074f5782610048918301610791565b60208201519091906001600160401b03811161074f578361006a918301610791565b604082015191606081015192610082608083016107e6565b9061008f60a084016107e6565b60c084015190936001600160401b03821161074f57019680601f8901121561074f578751976001600160401b0389116105b6578860051b604051996100d7602083018c61076e565b8a526020808b01918301019183831161074f5760208101915b8383106106b85750505050506040519261010984610753565b60018452603160f81b602085015286516001600160401b0381116105b6576101326003546107fa565b601f8111610659575b50806020601f82116001146105d5575f916105ca575b508160011b915f199060031b1c1916176003555b84516001600160401b0381116105b6578060049661018388546107fa565b601f8111610566575b50602090601f8311600114610502575f926104f7575b50508160011b915f199060031b1c19161785555b6101bf87610a04565b926101209384526101cf85610b57565b9761014098895260208151910120948560e0526020815191012094610100958087524660a0526040519060208201927f8b73c3c69bb8fe3d512ecc4cf759cc79239f7b179b0ffacaa9a75d522b39400f8452604083015260608201524660808201523060a082015260a0815260c0810181811060018060401b038211176104e4576040525190206080523060c05261016096875261026c90610939565b506001600160a01b03169081156104cd576002548181018091116104ba5760205f927fddf252ad1be2c89b69c2b068fc378daa952ba7f163c4a11628f55a4df523b3ef9260025584845283825260408420818154019055604051908152a3835160405160208101918252602081526102e381610753565b519020935f5b875181101561047057855f5260088060205261037c6103336020808c6103138760405f20926109b8565b515190604051938285935191829101845e820190815203019020546107fa565b15916020610341858d6109b8565b51015190895f526020526020808c61035d8760405f20926109b8565b515190604051938285935191829101845e820190815203019020610832565b6103f3575b80867fc42c4edbc41dce02b01dd098a1f7a4c685c638d7a2fdfbe449b32e1f89fbfae16103dc8b6103ea60206103c5876103bd60019a866109b8565b5151946109b8565b5101516040519384936040855260408501906109e0565b9083820360208501526109e0565b0390a2016102e9565b855f52600960205260405f20610409828a6109b8565b5151908054906801000000000000000082101561045d576001820180825582101561044a579161044391600194935f5260205f2001610832565b9050610381565b603288634e487b7160e01b5f525260245ffd5b604188634e487b7160e01b5f525260245ffd5b5085604051926120d89485610c7a863960805185505060a05185505060c05185505060e0518550505184505051836105510152518261057e0152518181816103e50152611b5f0152f35b601186634e487b7160e01b5f525260245ffd5b60405163ec442f0560e01b81525f81870152602490fd5b604189634e487b7160e01b5f525260245ffd5b015190505f806101a2565b5f898152602081209350601f198516905b81811061054e5750908460019594939210610536575b505050811b0185556101b6565b01515f1960f88460031b161c191690555f8080610529565b92936020600181928786015181550195019301610513565b909150875f5260205f20601f840160051c810191602085106105ac575b90601f859493920160051c01905b81811061059e575061018c565b5f8155849350600101610591565b9091508190610583565b634e487b7160e01b5f52604160045260245ffd5b90508801515f610151565b60035f90815292507fc2575a0e9e593c00f959f8c92f12db2869c3395a3b0502d05e2516446f71f85b905b8a601f198416851061064257506001935082601f1981161061062a575b5050811b01600355610165565b8a01515f1960f88460031b161c191690555f8061061d565b810151825560209384019360019092019101610600565b60035f527fc2575a0e9e593c00f959f8c92f12db2869c3395a3b0502d05e2516446f71f85b601f830160051c8101602084106106b1575b601f830160051c820181106106a657505061013b565b5f8155600101610690565b5080610690565b82516001600160401b03811161074f578201906040828703601f19011261074f5760408051919082016001600160401b038111838210176105b65760405260208301516001600160401b03811161074f5787602061071892860101610791565b82526040830151916001600160401b03831161074f5761074088602080969581960101610791565b838201528152019201916100f0565b5f80fd5b604081019081106001600160401b038211176105b657604052565b601f909101601f19168101906001600160401b038211908210176105b657604052565b81601f8201121561074f578051906001600160401b0382116105b657604051926107c5601f8401601f19166020018561076e565b8284526020838301011161074f57815f9260208093018386015e8301015290565b51906001600160a01b038216820361074f57565b90600182811c92168015610828575b602083101461081457565b634e487b7160e01b5f52602260045260245ffd5b91607f1691610809565b81519192916001600160401b0381116105b65761084f82546107fa565b601f81116108f4575b50602080601f83116001146108935750819293945f92610888575b50508160011b915f199060031b1c1916179055565b015190505f80610873565b90601f19831695845f5260205f20925f905b8882106108dc575050836001959697106108c4575b505050811b019055565b01515f1960f88460031b161c191690555f80806108ba565b806001859682949686015181550195019301906108a5565b825f5260205f20601f830160051c8101916020841061092f575b601f0160051c01905b8181106109245750610858565b5f8155600101610917565b909150819061090e565b6001600160a01b03165f8181525f80516020612d52833981519152602052604090205460ff166109b3575f8181525f80516020612d5283398151915260205260408120805460ff191660011790553391907f2f8788117e7eff1d82e926ec794901d17c78024a50270940304540a733656f0d8180a4600190565b505f90565b80518210156109cc5760209160051b010190565b634e487b7160e01b5f52603260045260245ffd5b805180835260209291819084018484015e5f828201840152601f01601f1916010190565b805160209081811015610a625750601f825111610a3c5780825192015190808310610a2e57501790565b825f19910360031b1b161790565b610a5e60405192839263305a27a960e01b8452600484015260248301906109e0565b0390fd5b9192916001600160401b0381116105b657600591610a8083546107fa565b601f8111610b28575b5080601f8311600114610ac55750819293945f92610aba575b50508160011b915f199060031b1c191617905560ff90565b015190505f80610aa2565b90601f19831695845f52825f20925f905b888210610b1057505083600195969710610af8575b505050811b01905560ff90565b01515f1960f88460031b161c191690555f8080610aeb565b80600185968294968601518155019501930190610ad6565b835f52601f825f209101841c810190601f8401851c015b818110610b4c5750610a89565b5f8155600101610b3f565b805160209081811015610b815750601f825111610a3c5780825192015190808310610a2e57501790565b919291906001600160401b0382116105b657610b9e6006546107fa565b601f8111610c47575b5080601f8311600114610be357508192935f92610bd8575b50508160011b915f199060031b1c19161760065560ff90565b015190505f80610bbf565b90601f1983169460065f52825f20925f905b878210610c2f575050836001959610610c17575b505050811b0160065560ff90565b01515f1960f88460031b161c191690555f8080610c09565b80600185968294968601518155019501930190610bf5565b60065f52601f825f20910160051c810190601f840160051c015b818110610c6e5750610ba7565b5f8155600101610c6156fe6080604090808252600480361015610015575f80fd5b5f3560e01c91826301ffc9a7146112885750816305daf3681461126957816306fdde0314611197578163095ea7b3146110ef5781630e1ae91b1461106c57816318160ddd1461104e57816323b872dd14610f5c578163248a9ca314610f3257816326f389ba14610e7b5781632f2ff15d14610e53578163313ce56714610e3857816336568abe14610df45781633b41f4ea14610c035781633c130d9014610be65781633dc3c175146109a75781635a454034146107c15781635cb0e05a146107a25781635e5971561461077b5781635f4cd4db146107585781635fe8e7cc1461063257816370a08231146105fc57816384b0196e1461053457816391d14854146104f057816395d89b41146104085781639ceb21ae146103ce578163a020731d1461039e578163a217fddf14610384578163a9059cbb14610354578163b719d45a14610311578163b93f3f34146102e4578163d11a1f0714610281578163d547741f1461024557508063d9a1963514610211578063dd62ed3e146101c85763e5e0a25d146101a1575f80fd5b346101c4576020906101bb6101b5366114a9565b91611b93565b90519015158152f35b5f80fd5b50346101c457806003193601126101c4576020906101e4611382565b6101ec611398565b9060018060a01b038091165f5260018452825f2091165f528252805f20549051908152f35b50346101c4575f3660031901126101c45761024190610236610231611b55565b611740565b9051918291826112fe565b0390f35b82346101c457806003193601126101c45761027f913561027a6001610268611398565b93835f5260076020525f200154611cf2565b611db0565b005b82346101c45760203660031901126101c45781356001600160401b0381116101c4576102cb6102b9610241946102d19336910161147c565b91906102c3611b55565b923691611419565b906118b7565b90519182916020835260208301906112da565b82346101c4575f3660031901126101c457602090610300611b55565b5f5260098252805f20549051908152f35b82346101c45760203660031901126101c4578135916001600160401b0383116101c4576103466101bb9160209436910161147c565b9061034f611b55565b611b93565b82346101c457806003193601126101c45760209061037d610373611382565b6024359033611bc2565b5160018152f35b82346101c4575f3660031901126101c457602090515f8152f35b82346101c4575f3660031901126101c457610241906103c36103be611b55565b611ae6565b9051918291826115a4565b82346101c4575f3660031901126101c457602090517f00000000000000000000000000000000000000000000000000000000000000008152f35b9050346101c4575f3660031901126101c457815191825f835461042a81611663565b90818452602095600191876001821691825f146104c957505060011461046d575b505050610241929161045e9103856113f8565b519282849384528301906112da565b5f90815286935091907f8a35acfbc15ff81a39ae7d344fd709f28e8600b4aa8c65c6b64bfe7fe36bd19b5b8284106104b1575050508201018161045e61024161044b565b8054848a018601528895508794909301928101610498565b60ff19168782015293151560051b8601909301935084925061045e9150610241905061044b565b82346101c457806003193601126101c45760209161050c611398565b90355f5260078352815f209060018060a01b03165f52825260ff815f20541690519015158152f35b82346101c4575f3660031901126101c4576105cf906102416105757f0000000000000000000000000000000000000000000000000000000000000000611ee7565b916105dc6105a27f0000000000000000000000000000000000000000000000000000000000000000611fe5565b918051926105af846113dd565b5f84528151968796600f60f81b885260e0602089015260e08801906112da565b91868303908701526112da565b904660608501523060808501525f60a085015283820360c0850152611607565b82346101c45760203660031901126101c4576020906001600160a01b03610621611382565b165f525f8252805f20549051908152f35b82346101c4575f3660031901126101c457600a90600a5490610653826114dc565b91610660825193846113f8565b80835261066c816114dc565b9160209182850195601f19809501368837610686826114dc565b94610693845196876113f8565b82865261069f836114dc565b0136858701375f5b8281106106fd57505050805193818501918552518091526060840194905f5b8181106106e0578587038487015285806102418988611607565b82516001600160a01b0316875295830195918301916001016106c6565b5f8290527fc65a7bb8d6351c1cf70c95a316cc6a92839c986682d98bc35f958f4883f9d2a8810154600191906001600160a01b03168061073d838b61172c565b525f525f8652845f2054610751828961172c565b52016106a7565b82346101c4575f3660031901126101c457602090610774611b55565b9051908152f35b82346101c45760203660031901126101c457602091355f5260098252805f20549051908152f35b82346101c45760203660031901126101c4576103c36102419235611ae6565b9050346101c4576020806003193601126101c4578135926001600160401b03918285116101c457366023860112156101c457848401359283116101c4576024943660248560051b830101116101c45761082f9061081c611c9c565b610824611b55565b9460243692016114f3565b94610838611c9c565b5f5b865181101561027f57845f5260088084526108c461088085808b610861878b5f209261172c565b5151908a51938285935191829101845e82019081520301902054611663565b15918561088d858c61172c565b51015190885f52865285808b6108a6878b5f209261172c565b5151908a51938285935191829101845e820190815203019020611e24565b610936575b80857fc42c4edbc41dce02b01dd098a1f7a4c685c638d7a2fdfbe449b32e1f89fbfae16109208a61092d8861090c8761090460019a8661172c565b51519461172c565b5101518a519384938c85528c8501906112da565b908382038b8501526112da565b0390a20161083a565b845f5260098352835f2061094a828961172c565b515190805490600160401b821015610995579061096c9160018201815561163a565b610984576001929161097d91611e24565b90506108c9565b835f89634e487b7160e01b8252525ffd5b8460418a634e487b7160e01b5f52525ffd5b9050346101c4576020806003193601126101c45781356001600160401b0381116101c4576109d8903690840161147c565b90936109e2611c9c565b6109ea611b55565b926109f3611c9c565b835f5260088152610a19825f208284518092878b83378782019081520301902054611663565b15610baf57835f5260088152610a43825f208284518092878b833787820190815203019020611905565b835f5260098152815f205f5b815480821015610b7e57610a75610a7c610a69848661163a565b5087519283809261169b565b03826113f8565b848151910120610a8d36888c611419565b85815191012014610aa15750600101610a4f565b919293949596905f1992838101908111610b6b57610ac2610aca918661163a565b50918561163a565b610b595790610ad8916119b3565b8254908115610b46575096859283927fca45c60cf1bbd58b2ac673da0d008eb3606c36e814e8d7fe0df3a3e53ecc59b798990190610b1f610b19838361163a565b9061194e565b555b8451958487958652850152848401375f828201840152601f01601f19168101030190a2005b603190634e487b7160e01b5f525260245ffd5b5f83634e487b7160e01b82525260245ffd5b601183634e487b7160e01b5f525260245ffd5b50505090917fca45c60cf1bbd58b2ac673da0d008eb3606c36e814e8d7fe0df3a3e53ecc59b7945080809496610b21565b8490606492519162461bcd60e51b8352820152601260248201527112d95e48191bd95cc81b9bdd08195e1a5cdd60721b6044820152fd5b82346101c4575f3660031901126101c457610241906102d1611a97565b82346101c457806003193601126101c45781356024916024356001600160401b0381116101c457366023820112156101c457610c4890369060248188013591016114f3565b93610c51611c9c565b5f5b855181101561027f57835f526008908487602093808552610ce1610c9e86808a5f20610c7f898861172c565b5151908c51938285935191829101845e82019081520301902054611663565b159186610cab878661172c565b51015190855f52875286808a5f20610cc3898861172c565b5151908c51938285935191829101845e820190815203019020611e24565b610d52575b610d3c81610d4986600197610d2888610d20817fc42c4edbc41dce02b01dd098a1f7a4c685c638d7a2fdfbe449b32e1f89fbfae19961172c565b51519561172c565b5101518a519485948c86528c8601906112da565b91848303908501526112da565b0390a201610c53565b505f9291925260098152835f20610d69838961172c565b515190805490600160401b821015610de25790610d8b9160018201815561163a565b610dd157610d3c89610d4960019695610dc68b967fc42c4edbc41dce02b01dd098a1f7a4c685c638d7a2fdfbe449b32e1f89fbfae196611e24565b965050915050610ce6565b875f86634e487b7160e01b8252525ffd5b88604187634e487b7160e01b5f52525ffd5b82346101c457806003193601126101c457610e0d611398565b90336001600160a01b03831603610e29575061027f9135611db0565b5163334bd91960e11b81529050fd5b82346101c4575f3660031901126101c4576020905160128152f35b82346101c457806003193601126101c45761027f9135610e766001610268611398565b611d32565b9050346101c457610e8b366114a9565b9093610e95611c9c565b825f52602060088152610ebd825f208284518092878b83378782019081520301902054611663565b15610baf57835f5260088152610ee7825f208284518092878b833787820190815203019020611905565b835f5260098152815f205f5b815480821015610b7e57610a75610f0d610a69848661163a565b848151910120610f1e36888c611419565b85815191012014610aa15750600101610ef3565b82346101c45760203660031901126101c457602091355f52600782526001815f2001549051908152f35b9050346101c45760603660031901126101c457610f77611382565b610f7f611398565b906044359260018060a01b038216805f526001602052855f20335f52602052855f2054915f198310610fba575b60208761037d888888611bc2565b85831061102257811561100c573315610ff657505f9081526001602090815286822033835281529086902091859003909155829061037d610fac565b6024905f885191634a1406b160e11b8352820152fd5b6024905f88519163e602df0560e01b8352820152fd5b8651637dc7a0d960e11b8152339181019182526020820193909352604081018690528291506060010390fd5b82346101c4575f3660031901126101c4576020906002549051908152f35b9050346101c457816003193601126101c457602435916001600160401b0383116101c4576110dd6020806110d6946110aa610241973690830161145e565b90355f5260088252845f208551938285935191829101845e82019081520301902082519384809261169b565b03836113f8565b519182916020835260208301906112da565b82346101c457806003193601126101c457611108611382565b602435903315611181576001600160a01b031690811561116b5760209350335f5260018452825f20825f52845280835f205582519081527f8c5be1e5ebec7d5bd14f71427d1e84f3dd0314c0f7b2291e5b200ac8c7c3b925843392a35160018152f35b8251634a1406b160e11b81525f81860152602490fd5b825163e602df0560e01b81525f81860152602490fd5b82346101c4575f3660031901126101c45780516003549091825f6111ba84611663565b808352602094600190866001821691825f146112475750506001146111ec575b5050610241929161045e9103856113f8565b9085925060035f527fc2575a0e9e593c00f959f8c92f12db2869c3395a3b0502d05e2516446f71f85b915f925b82841061122f575050508201018161045e6111da565b8054848a018601528895508794909301928101611219565b60ff19168682015292151560051b8501909201925083915061045e90506111da565b82346101c45760203660031901126101c4576102366102419235611740565b90346101c45760203660031901126101c457359063ffffffff60e01b82168092036101c457602091637965db0b60e01b81149081156112c9575b5015158152f35b6301ffc9a760e01b149050836112c2565b805180835260209291819084018484015e5f828201840152601f01601f1916010190565b6020808201908083528351809252604092604081018260408560051b8401019601945f925b858410611334575050505050505090565b909192939495968580611371600193603f198682030188528b51908361136183518a84528a8401906112da565b92015190848184039101526112da565b990194019401929594939190611323565b600435906001600160a01b03821682036101c457565b602435906001600160a01b03821682036101c457565b604081019081106001600160401b038211176113c957604052565b634e487b7160e01b5f52604160045260245ffd5b602081019081106001600160401b038211176113c957604052565b90601f801991011681019081106001600160401b038211176113c957604052565b9291926001600160401b0382116113c95760405191611442601f8201601f1916602001846113f8565b8294818452818301116101c4578281602093845f960137010152565b9080601f830112156101c45781602061147993359101611419565b90565b9181601f840112156101c4578235916001600160401b0383116101c457602083818601950101116101c457565b9060406003198301126101c45760043591602435906001600160401b0382116101c4576114d89160040161147c565b9091565b6001600160401b0381116113c95760051b60200190565b90929192611500816114dc565b9160409161151160405194856113f8565b839581855260208095019160051b8301938185116101c45783925b85841061153c5750505050505050565b6001600160401b039084358281116101c45786019083828603126101c4578351611565816113ae565b82358481116101c4578661157a91850161145e565b8152898301359384116101c457611595868b9586950161145e565b8382015281520193019261152c565b6020808201906020835283518092526040830192602060408460051b8301019501935f915b8483106115d95750505050505090565b90919293949584806115f7600193603f198682030187528a516112da565b98019301930191949392906115c9565b9081518082526020808093019301915f5b828110611626575050505090565b835185529381019392810192600101611618565b805482101561164f575f5260205f2001905f90565b634e487b7160e01b5f52603260045260245ffd5b90600182811c92168015611691575b602083101461167d57565b634e487b7160e01b5f52602260045260245ffd5b91607f1691611672565b80545f93926116a982611663565b918282526020936001916001811690815f1461170d57506001146116cf575b5050505050565b90939495505f92919252835f2092845f945b8386106116f957505050500101905f808080806116c8565b8054858701830152940193859082016116e1565b60ff19168685015250505090151560051b010191505f808080806116c8565b805182101561164f5760209160051b010190565b90815f52602060098152604092835f209384549161175d836114dc565b9161176a815193846113f8565b838352601f19611779856114dc565b01855f5b8281106118955750505082965f5b85811061179b5750505050505050565b6117a5818361163a565b50845f5260088852835f20886117bb848661163a565b508651925f9180546117cc81611663565b9160019180831690811561187b5750600114611845575b50505092610a759281836001989796611825955203019020610a7561181889519561180d876113ae565b8a519283809261169b565b845287519283809261169b565b89820152611833828861172c565b5261183e818761172c565b500161178b565b5f90815285812093945091925b83831061186857505050830190828460016117e3565b8054878401528e95909201918101611852565b60ff191688525050508015150284019150828460016117e3565b83516118a0816113ae565b60608082528382015282828801015201869061177d565b602080610a7593611479935f526008825260405f20604051938285935191829101845e8201908152030190206040519283809261169b565b8181106118fa575050565b5f81556001016118ef565b61190f8154611663565b9081611919575050565b81601f5f931160011461192b5750555b565b90808391825261194a601f60208420940160051c8401600185016118ef565b5555565b9061195d5761190f8154611663565b634e487b7160e01b5f525f60045260245ffd5b9190601f811161197f57505050565b611929925f5260205f20906020601f840160051c830193106119a9575b601f0160051c01906118ef565b909150819061199c565b90808214611a93576119c58154611663565b906001600160401b0382116113c9576119e8826119e28554611663565b85611970565b5f90601f8311600114611a2557611a1692915f9183611a1a575b50508160011b915f199060031b1c19161790565b9055565b015490505f80611a02565b90601f198316915f5260209160205f2090855f5260205f20935f905b828210611a7a575050908460019594939210611a62575b505050811b019055565b01545f1960f88460031b161c191690555f8080611a58565b8495819295850154815560018091019601940190611a41565b5050565b611ac9611aa2611b55565b60405190611aaf826113ae565b6008825267746f6b656e55524960c01b60208301526118b7565b805115611ad35790565b50604051611ae0816113dd565b5f815290565b5f526020600960205260409060405f20805491611b02836114dc565b93611b1060405195866113f8565b83855260208501925f5260205f20905f935b858510611b325750505050505090565b60018481928451611b4781610a75818a61169b565b815201930194019391611b22565b60405160208101907f0000000000000000000000000000000000000000000000000000000000000000825260208152611b8d816113ae565b51902090565b611bbd92916020915f526008825260405f2083604051948593843782019081520301902054611663565b151590565b916001600160a01b03808416928315611c845716928315611c6c57825f525f60205260405f205490828210611c3a5750817fddf252ad1be2c89b69c2b068fc378daa952ba7f163c4a11628f55a4df523b3ef92602092855f525f84520360405f2055845f5260405f20818154019055604051908152a3565b60405163391434e360e21b81526001600160a01b03919091166004820152602481019190915260448101829052606490fd5b60405163ec442f0560e01b81525f6004820152602490fd5b604051634b637e8f60e11b81525f6004820152602490fd5b335f9081527f6d5257204ebe7d88fd91ae87941cb2dd9d8062b64ae5a2bd2d28ec40b9fbf6df602052604090205460ff1615611cd457565b60405163e2517d3f60e01b81523360048201525f6024820152604490fd5b805f52600760205260405f20335f5260205260ff60405f20541615611d145750565b6044906040519063e2517d3f60e01b82523360048301526024820152fd5b90815f52600760205260405f209060018060a01b031690815f5260205260ff60405f205416155f14611daa57815f52600760205260405f20815f5260205260405f20600160ff1982541617905533917f2f8788117e7eff1d82e926ec794901d17c78024a50270940304540a733656f0d5f80a4600190565b50505f90565b90815f52600760205260405f209060018060a01b031690815f5260205260ff60405f2054165f14611daa57815f52600760205260405f20815f5260205260405f2060ff19815416905533917ff6391f5c32d9c69d2a47ea670b442974b53935d1edc7fd64eb21e047a839171b5f80a4600190565b91909182516001600160401b0381116113c957611e4b81611e458454611663565b84611970565b602080601f8311600114611e8757508190611a169394955f92611e7c5750508160011b915f199060031b1c19161790565b015190505f80611a02565b90601f19831695845f5260205f20925f905b888210611ecf57505083600195969710611eb757505050811b019055565b01515f1960f88460031b161c191690555f8080611a58565b80600185968294968601518155019501930190611e99565b60ff8114611f255760ff811690601f8211611f135760405191611f09836113ae565b8252602082015290565b604051632cd44ac360e21b8152600490fd5b50604051600554815f611f3783611663565b80835292602090600190818116908115611fc15750600114611f62575b5050611479925003826113f8565b91509260055f527f036b6384b5eca791c62761152d0c79bb0604c104a5fb6f4eb0703f3154bb3db0935f925b828410611fa957506114799450505081016020015f80611f54565b85548785018301529485019486945092810192611f8e565b9150506020925061147994915060ff191682840152151560051b8201015f80611f54565b60ff81146120075760ff811690601f8211611f135760405191611f09836113ae565b50604051600654815f61201983611663565b80835292602090600190818116908115611fc15750600114612043575050611479925003826113f8565b91509260065f527ff652222313e28459528d920b65115c16c04f3efc82aaedc97be59f3f377c0d3f935f925b82841061208a57506114799450505081016020015f80611f54565b8554878501830152948501948694509281019261206f56fea2646970667358221220cc68cb021b8bf28e997511612c1f389a5d61d74866a063f1739845353e9c32e864736f6c634300081900336d5257204ebe7d88fd91ae87941cb2dd9d8062b64ae5a2bd2d28ec40b9fbf6dfa26469706673582212201f6f8d713d6a70858bd641b808031cb9d6715b0933ccd8f2dd9929e065ce01a064736f6c634300081900332f8788117e7eff1d82e926ec794901d17c78024a50270940304540a733656f0dad3228b676f7d3cd4284a5443f17f1962b36e491b30a40b2405849e597ba5fb5","linkReferences":{}},"methodIdentifiers":{"DEFAULT_ADMIN_ROLE()":"a217fddf","REGISTRAR_ROLE()":"f68e9553","assetExists(uint256)":"518e2bdd","assetId()":"44de240a","createAsset(string,bytes32,bytes32[],(string,string)[])":"fba01f03","getAllMetadata(bytes32)":"05daf368","getAllMetadataKeys(bytes32)":"5cb0e05a","getAsset(uint256)":"eac8f5b8","getMetadata(bytes32,string)":"0e1ae91b","getMetadataCount(bytes32)":"5e597156","getRoleAdmin(bytes32)":"248a9ca3","getType(bytes32)":"7f2aeea4","grantRole(bytes32,address)":"2f2ff15d","hasMetadata(bytes32,string)":"e5e0a25d","hasRole(bytes32,address)":"91d14854","registerAsset(bytes32,string,string,uint256,address,address,(string,string)[])":"7a5782f8","removeMetadata(bytes32,string)":"26f389ba","renounceRole(bytes32,address)":"36568abe","revokeRole(bytes32,address)":"d547741f","setMetadata(bytes32,(string,string)[])":"3b41f4ea","supportsInterface(bytes4)":"01ffc9a7","tokenURI(bytes32)":"afbb8d51"},"id":50}