{"abi":[{"type":"function","name":"DEFAULT_ADMIN_ROLE","inputs":[],"outputs":[{"name":"","type":"bytes32","internalType":"bytes32"}],"stateMutability":"view"},{"type":"function","name":"UPGRADE_INTERFACE_VERSION","inputs":[],"outputs":[{"name":"","type":"string","internalType":"string"}],"stateMutability":"view"},{"type":"function","name":"assetERC20Implementation","inputs":[],"outputs":[{"name":"","type":"address","internalType":"address"}],"stateMutability":"view"},{"type":"function","name":"assetExists","inputs":[{"name":"id","type":"uint256","internalType":"uint256"}],"outputs":[{"name":"","type":"bool","internalType":"bool"}],"stateMutability":"view"},{"type":"function","name":"assetId","inputs":[],"outputs":[{"name":"","type":"uint256","internalType":"uint256"}],"stateMutability":"view"},{"type":"function","name":"createAssetType","inputs":[{"name":"name","type":"string","internalType":"string"},{"name":"assetType","type":"bytes32","internalType":"bytes32"},{"name":"requiredLeaseKeys","type":"bytes32[]","internalType":"bytes32[]"},{"name":"metadata","type":"tuple[]","internalType":"struct MetadataStorage.Metadata[]","components":[{"name":"key","type":"string","internalType":"string"},{"name":"value","type":"string","internalType":"string"}]}],"outputs":[],"stateMutability":"nonpayable"},{"type":"function","name":"getAllMetadata","inputs":[{"name":"hash","type":"bytes32","internalType":"bytes32"}],"outputs":[{"name":"metadata","type":"tuple[]","internalType":"struct MetadataStorage.Metadata[]","components":[{"name":"key","type":"string","internalType":"string"},{"name":"value","type":"string","internalType":"string"}]}],"stateMutability":"view"},{"type":"function","name":"getAllMetadataKeys","inputs":[{"name":"hash","type":"bytes32","internalType":"bytes32"}],"outputs":[{"name":"keys","type":"string[]","internalType":"string[]"}],"stateMutability":"view"},{"type":"function","name":"getAsset","inputs":[{"name":"id","type":"uint256","internalType":"uint256"}],"outputs":[{"name":"","type":"tuple","internalType":"struct AssetRegistry.Asset","components":[{"name":"assetType","type":"bytes32","internalType":"bytes32"},{"name":"issuer","type":"address","internalType":"address"},{"name":"tokenAddress","type":"address","internalType":"address"}]}],"stateMutability":"view"},{"type":"function","name":"getMetadata","inputs":[{"name":"hash","type":"bytes32","internalType":"bytes32"},{"name":"key","type":"string","internalType":"string"}],"outputs":[{"name":"value","type":"string","internalType":"string"}],"stateMutability":"view"},{"type":"function","name":"getMetadataCount","inputs":[{"name":"hash","type":"bytes32","internalType":"bytes32"}],"outputs":[{"name":"count","type":"uint256","internalType":"uint256"}],"stateMutability":"view"},{"type":"function","name":"getRoleAdmin","inputs":[{"name":"role","type":"bytes32","internalType":"bytes32"}],"outputs":[{"name":"","type":"bytes32","internalType":"bytes32"}],"stateMutability":"view"},{"type":"function","name":"getType","inputs":[{"name":"assetType","type":"bytes32","internalType":"bytes32"}],"outputs":[{"name":"","type":"tuple","internalType":"struct AssetRegistry.AssetType","components":[{"name":"name","type":"string","internalType":"string"},{"name":"requiredLeaseKeys","type":"bytes32[]","internalType":"bytes32[]"}]}],"stateMutability":"view"},{"type":"function","name":"getUupsImplementation","inputs":[],"outputs":[{"name":"","type":"address","internalType":"address"}],"stateMutability":"view"},{"type":"function","name":"grantRole","inputs":[{"name":"role","type":"bytes32","internalType":"bytes32"},{"name":"account","type":"address","internalType":"address"}],"outputs":[],"stateMutability":"nonpayable"},{"type":"function","name":"hasMetadata","inputs":[{"name":"hash","type":"bytes32","internalType":"bytes32"},{"name":"key","type":"string","internalType":"string"}],"outputs":[{"name":"exists","type":"bool","internalType":"bool"}],"stateMutability":"view"},{"type":"function","name":"hasRole","inputs":[{"name":"role","type":"bytes32","internalType":"bytes32"},{"name":"account","type":"address","internalType":"address"}],"outputs":[{"name":"","type":"bool","internalType":"bool"}],"stateMutability":"view"},{"type":"function","name":"initialize","inputs":[{"name":"admin","type":"address","internalType":"address"},{"name":"upgrader","type":"address","internalType":"address"},{"name":"registrar","type":"address","internalType":"address"},{"name":"_assetERC20Implementation","type":"address","internalType":"address"}],"outputs":[],"stateMutability":"nonpayable"},{"type":"function","name":"proxiableUUID","inputs":[],"outputs":[{"name":"","type":"bytes32","internalType":"bytes32"}],"stateMutability":"view"},{"type":"function","name":"registerAsset","inputs":[{"name":"assetType","type":"bytes32","internalType":"bytes32"},{"name":"tokenName","type":"string","internalType":"string"},{"name":"tokenSymbol","type":"string","internalType":"string"},{"name":"totalSupply","type":"uint256","internalType":"uint256"},{"name":"admin","type":"address","internalType":"address"},{"name":"upgrader","type":"address","internalType":"address"},{"name":"tokenRecipient","type":"address","internalType":"address"},{"name":"metadata","type":"tuple[]","internalType":"struct MetadataStorage.Metadata[]","components":[{"name":"key","type":"string","internalType":"string"},{"name":"value","type":"string","internalType":"string"}]}],"outputs":[{"name":"newAssetId","type":"uint256","internalType":"uint256"},{"name":"token","type":"address","internalType":"address"}],"stateMutability":"nonpayable"},{"type":"function","name":"removeMetadata","inputs":[{"name":"assetType","type":"bytes32","internalType":"bytes32"},{"name":"key","type":"string","internalType":"string"}],"outputs":[],"stateMutability":"nonpayable"},{"type":"function","name":"renounceRole","inputs":[{"name":"role","type":"bytes32","internalType":"bytes32"},{"name":"callerConfirmation","type":"address","internalType":"address"}],"outputs":[],"stateMutability":"nonpayable"},{"type":"function","name":"revokeRole","inputs":[{"name":"role","type":"bytes32","internalType":"bytes32"},{"name":"account","type":"address","internalType":"address"}],"outputs":[],"stateMutability":"nonpayable"},{"type":"function","name":"setMetadata","inputs":[{"name":"assetType","type":"bytes32","internalType":"bytes32"},{"name":"metadata","type":"tuple[]","internalType":"struct MetadataStorage.Metadata[]","components":[{"name":"key","type":"string","internalType":"string"},{"name":"value","type":"string","internalType":"string"}]}],"outputs":[],"stateMutability":"nonpayable"},{"type":"function","name":"supportsInterface","inputs":[{"name":"interfaceId","type":"bytes4","internalType":"bytes4"}],"outputs":[{"name":"","type":"bool","internalType":"bool"}],"stateMutability":"view"},{"type":"function","name":"upgradeToAndCall","inputs":[{"name":"newImplementation","type":"address","internalType":"address"},{"name":"data","type":"bytes","internalType":"bytes"}],"outputs":[],"stateMutability":"payable"},{"type":"event","name":"AssetRegistered","inputs":[{"name":"assetId","type":"uint256","indexed":true,"internalType":"uint256"},{"name":"assetType","type":"bytes32","indexed":true,"internalType":"bytes32"},{"name":"tokenAddress","type":"address","indexed":false,"internalType":"address"}],"anonymous":false},{"type":"event","name":"AssetTypeCreated","inputs":[{"name":"name","type":"string","indexed":true,"internalType":"string"},{"name":"assetType","type":"bytes32","indexed":true,"internalType":"bytes32"},{"name":"requiredLeaseKeys","type":"bytes32[]","indexed":false,"internalType":"bytes32[]"}],"anonymous":false},{"type":"event","name":"Initialized","inputs":[{"name":"version","type":"uint64","indexed":false,"internalType":"uint64"}],"anonymous":false},{"type":"event","name":"MetadataRemoved","inputs":[{"name":"hash","type":"bytes32","indexed":true,"internalType":"bytes32"},{"name":"key","type":"string","indexed":false,"internalType":"string"}],"anonymous":false},{"type":"event","name":"MetadataUpdated","inputs":[{"name":"hash","type":"bytes32","indexed":true,"internalType":"bytes32"},{"name":"key","type":"string","indexed":false,"internalType":"string"},{"name":"value","type":"string","indexed":false,"internalType":"string"}],"anonymous":false},{"type":"event","name":"RoleAdminChanged","inputs":[{"name":"role","type":"bytes32","indexed":true,"internalType":"bytes32"},{"name":"previousAdminRole","type":"bytes32","indexed":true,"internalType":"bytes32"},{"name":"newAdminRole","type":"bytes32","indexed":true,"internalType":"bytes32"}],"anonymous":false},{"type":"event","name":"RoleGranted","inputs":[{"name":"role","type":"bytes32","indexed":true,"internalType":"bytes32"},{"name":"account","type":"address","indexed":true,"internalType":"address"},{"name":"sender","type":"address","indexed":true,"internalType":"address"}],"anonymous":false},{"type":"event","name":"RoleRevoked","inputs":[{"name":"role","type":"bytes32","indexed":true,"internalType":"bytes32"},{"name":"account","type":"address","indexed":true,"internalType":"address"},{"name":"sender","type":"address","indexed":true,"internalType":"address"}],"anonymous":false},{"type":"event","name":"Upgraded","inputs":[{"name":"implementation","type":"address","indexed":true,"internalType":"address"}],"anonymous":false},{"type":"error","name":"AccessControlBadConfirmation","inputs":[]},{"type":"error","name":"AccessControlUnauthorizedAccount","inputs":[{"name":"account","type":"address","internalType":"address"},{"name":"neededRole","type":"bytes32","internalType":"bytes32"}]},{"type":"error","name":"AddressEmptyCode","inputs":[{"name":"target","type":"address","internalType":"address"}]},{"type":"error","name":"ERC1967InvalidImplementation","inputs":[{"name":"implementation","type":"address","internalType":"address"}]},{"type":"error","name":"ERC1967NonPayable","inputs":[]},{"type":"error","name":"FailedCall","inputs":[]},{"type":"error","name":"FailedDeployment","inputs":[]},{"type":"error","name":"InsufficientBalance","inputs":[{"name":"balance","type":"uint256","internalType":"uint256"},{"name":"needed","type":"uint256","internalType":"uint256"}]},{"type":"error","name":"InvalidInitialization","inputs":[]},{"type":"error","name":"NotInitializing","inputs":[]},{"type":"error","name":"UUPSUnauthorizedCallContext","inputs":[]},{"type":"error","name":"UUPSUnsupportedProxiableUUID","inputs":[{"name":"slot","type":"bytes32","internalType":"bytes32"}]}],"bytecode":{"object":"0x60a080604052346100c257306080525f5160206130995f395f51905f525460ff8160401c166100b3576002600160401b03196001600160401b03821601610060575b604051612fd290816100c78239608051818181611203015261136b0152f35b6001600160401b0319166001600160401b039081175f5160206130995f395f51905f525581527fc7f505b2f371ae2175ee4913f4499e1f2633a7b5936321eed1cdaeb6115181d290602090a15f80610041565b63f92ee8a960e01b5f5260045ffd5b5f80fdfe6080806040526004361015610012575f80fd5b5f905f3560e01c90816301ffc9a714611f1d5750806305daf36814611cb15780630e1ae91b14611c13578063248a9ca314611ba357806326f389ba146118855780632f2ff15d1461180a578063358410d51461179a57806336568abe146117125780633b41f4ea146116a657806344de240a1461166b5780634f1ef286146112f0578063518e2bdd1461127b57806352d1902d146111be5780635cb0e05a146110a75780635e5971561461105f5780637f2aeea414610f2357806382190ddb14610cbe57806385f27d3214610c6d57806391d1485414610bd9578063a217fddf14610ba1578063ad3cb1cc14610b20578063d547741f14610a9e578063d904cd17146104df578063e5e0a25d1461049b578063eac8f5b8146103e95763f8c8765e1461013c575f80fd5b346103e65760807ffffffffffffffffffffffffffffffffffffffffffffffffffffffffffffffffc3601126103e6576101736121ba565b61017b612197565b6044359073ffffffffffffffffffffffffffffffffffffffff821682036103e4576064359273ffffffffffffffffffffffffffffffffffffffff84168094036103e0577ff0c57e16840df040f15088dc2f81fe391c3923bec73e23a9662efc9c229c6a00549360ff8560401c16159467ffffffffffffffff8116801590816103d8575b60011490816103ce575b1590816103c5575b5061039d576102a6926102ac959492828860017fffffffffffffffffffffffffffffffffffffffffffffffff00000000000000006102a09616177ff0c57e16840df040f15088dc2f81fe391c3923bec73e23a9662efc9c229c6a0055610348575b507fffffffffffffffffffffffff0000000000000000000000000000000000000000600354161760035561286a565b50612951565b50612a55565b506102b45780f35b7fffffffffffffffffffffffffffffffffffffffffffffff00ffffffffffffffff7ff0c57e16840df040f15088dc2f81fe391c3923bec73e23a9662efc9c229c6a0054167ff0c57e16840df040f15088dc2f81fe391c3923bec73e23a9662efc9c229c6a00557fc7f505b2f371ae2175ee4913f4499e1f2633a7b5936321eed1cdaeb6115181d2602060405160018152a180f35b7fffffffffffffffffffffffffffffffffffffffffffffff0000000000000000001668010000000000000001177ff0c57e16840df040f15088dc2f81fe391c3923bec73e23a9662efc9c229c6a00555f610271565b6004877ff92ee8a9000000000000000000000000000000000000000000000000000000008152fd5b9050155f610210565b303b159150610208565b8791506101fe565b8480fd5b835b80fd5b50346103e65760207ffffffffffffffffffffffffffffffffffffffffffffffffffffffffffffffffc3601126103e65760408160609282805161042b81612038565b8281528260208201520152600435815260056020522073ffffffffffffffffffffffffffffffffffffffff60405161046281612038565b81835493848352604082600281600185015416936020870194855201541693019283526040519485525116602084015251166040820152f35b50346103e6576104d56040602080936104b336612145565b9491839193528084522083604051948593843782019081520301902054612281565b1515604051908152f35b5034610997576101007ffffffffffffffffffffffffffffffffffffffffffffffffffffffffffffffffc360112610997576004359060243567ffffffffffffffff811161099757610534903690600401612117565b9260443567ffffffffffffffff811161099757610555903690600401612117565b936084359173ffffffffffffffffffffffffffffffffffffffff83168093036109975760a43573ffffffffffffffffffffffffffffffffffffffff81168091036109975760c4359373ffffffffffffffffffffffffffffffffffffffff85168095036109975760e43567ffffffffffffffff8111610997576105db9036906004016121dd565b335f9081527f07966f2ab141347034724e9b2a472c2f77f5cd745aeba27cacba797b8fcb70866020526040902054919490939160ff1615610a4e57875f52600460205261062b60405f2054612281565b156109f0576002547fffffffffffffffffffffffffffffffffffffffffffffffffffffffffffffffff81146109c357600101998a6002556e5af43d82803e903d91602b57fd5bf37fffffffffffffffffffffffffffffffffff000000000000000000000000000000600354763d602d80600a3d3981f3363d3d373d3d3d363d7300000062ffffff8260881c16175f5260781b161760205273ffffffffffffffffffffffffffffffffffffffff603760095ff016998a1561099b578a3b15610997579b95939291610764916107346040519e8f997f47a52eac000000000000000000000000000000000000000000000000000000008b5261010060048c01526101048b01916125be565b917ffffffffffffffffffffffffffffffffffffffffffffffffffffffffffffffffc8984030160248a01526125be565b9160643560448701528a6064870152608486015260a48501528560c48501527ffffffffffffffffffffffffffffffffffffffffffffffffffffffffffffffffc8482030160e4850152828152602081019260208160051b83010193835f917fffffffffffffffffffffffffffffffffffffffffffffffffffffffffffffffc182360301945b848410610908575050505050505090805f92038183885af19586156108fd576040966108e9575b50600273ffffffffffffffffffffffffffffffffffffffff80928189519561083787612038565b878752602087019081528a808801938a85528b8152600560205220965187555116826001870191167fffffffffffffffffffffffff00000000000000000000000000000000000000008254161790555116920191167fffffffffffffffffffffffff0000000000000000000000000000000000000000825416179055827f2aa9c4e6dfc93d089f25ff3356df5305b7977f768884056b3bf4c0361e2ab2ac60208651858152a382519182526020820152f35b6108f591505f90612054565b5f6002610810565b6040513d5f823e3d90fd5b91939597509193957fffffffffffffffffffffffffffffffffffffffffffffffffffffffffffffffe0828203018352873587811215610997576020610983600193878394019061097661096c61095e84806125fc565b6040855260408501916125be565b92858101906125fc565b91858185039101526125be565b99019301940191949290938d9796946107e9565b5f80fd5b7fb06ebf3d000000000000000000000000000000000000000000000000000000005f5260045ffd5b7f4e487b71000000000000000000000000000000000000000000000000000000005f52601160045260245ffd5b60646040517f08c379a000000000000000000000000000000000000000000000000000000000815260206004820152600c60248201527f74797065202165786973747300000000000000000000000000000000000000006044820152fd5b7fe2517d3f000000000000000000000000000000000000000000000000000000005f52336004527fedcc084d3dcd65a1f7f23c65c46722faca6953d28e43150a467cf43e5c30923860245260445ffd5b346109975760407ffffffffffffffffffffffffffffffffffffffffffffffffffffffffffffffffc36011261099757610b1e600435610adb612197565b90610b19610b14825f527f02dd7bc7dec4dceedda775e58dd541e08a116c6c53815c0bd028192f7b626800602052600160405f20015490565b6126b4565b612c6b565b005b34610997575f7ffffffffffffffffffffffffffffffffffffffffffffffffffffffffffffffffc36011261099757610b9d604051610b5f604082612054565b600581527f352e302e300000000000000000000000000000000000000000000000000000006020820152604051918291602083526020830190611fd9565b0390f35b34610997575f7ffffffffffffffffffffffffffffffffffffffffffffffffffffffffffffffffc3601126109975760206040515f8152f35b346109975760407ffffffffffffffffffffffffffffffffffffffffffffffffffffffffffffffffc36011261099757610c10612197565b6004355f527f02dd7bc7dec4dceedda775e58dd541e08a116c6c53815c0bd028192f7b62680060205273ffffffffffffffffffffffffffffffffffffffff60405f2091165f52602052602060ff60405f2054166040519015158152f35b34610997575f7ffffffffffffffffffffffffffffffffffffffffffffffffffffffffffffffffc36011261099757602073ffffffffffffffffffffffffffffffffffffffff60035416604051908152f35b346109975760807ffffffffffffffffffffffffffffffffffffffffffffffffffffffffffffffffc3601126109975760043567ffffffffffffffff811161099757610d0d903690600401612117565b906024359160443567ffffffffffffffff811161099757610d329036906004016121dd565b909160643567ffffffffffffffff811161099757610d549036906004016121dd565b9490610d5e61264c565b60405195610d6b8761201c565b610d76368585612095565b8752610d818561220e565b610d8e6040519182612054565b858152600586901b97878901602083013682116109975789905b828210610f1357505050806020600192019283528a5f526004602052610dd360405f2091518261249e565b0190519081519167ffffffffffffffff8311610ee657680100000000000000008311610ee6578154838355808410610ec0575b50602001905f5260205f205f5b838110610eac5750505050610e3391610e2d913691612386565b87612d73565b81604051928392833781015f8152039020927f07ffffffffffffffffffffffffffffffffffffffffffffffffffffffffffffff6040519260208452806020850152116109975781816040927fb465a381bc5b7c249b2d273580b13753c505208f430da9624481dc3a9d9133bc95848401378101030190a3005b600190602084519401938184015501610e13565b825f528360205f2091820191015b818110610edb5750610e06565b5f8155600101610ece565b7f4e487b71000000000000000000000000000000000000000000000000000000005f52604160045260245ffd5b8135815260209182019101610da8565b346109975760207ffffffffffffffffffffffffffffffffffffffffffffffffffffffffffffffffc36011261099757610f5a612226565b506004355f52600460205260405f20600160405191610f788361201c565b604051610f9081610f8981856122d2565b0382612054565b8352016040519081602082549182815201915f5260205f20905f5b81811061104957610fe68686610fc381880382612054565b602082019081526040519283926020845251604060208501526060840190611fd9565b9051907fffffffffffffffffffffffffffffffffffffffffffffffffffffffffffffffe0838203016040840152602080835192838152019201905f5b818110611030575050500390f35b8251845285945060209384019390920191600101611022565b8254845260209093019260019283019201610fab565b346109975760207ffffffffffffffffffffffffffffffffffffffffffffffffffffffffffffffffc360112610997576004355f526001602052602060405f2054604051908152f35b346109975760207ffffffffffffffffffffffffffffffffffffffffffffffffffffffffffffffffc360112610997576004355f52600160205260405f208054906110f08261220e565b916110fe6040519384612054565b8083526020830180925f5260205f205f915b83831061119957848660405191829160208301906020845251809152604083019060408160051b85010192915f905b82821061114e57505050500390f35b91936020611189827fffffffffffffffffffffffffffffffffffffffffffffffffffffffffffffffc060019597998495030186528851611fd9565b960192019201859493919261113f565b6001602081926040516111b081610f8981896122d2565b815201920192019190611110565b34610997575f7ffffffffffffffffffffffffffffffffffffffffffffffffffffffffffffffffc3601126109975773ffffffffffffffffffffffffffffffffffffffff7f00000000000000000000000000000000000000000000000000000000000000001630036112535760206040517f360894a13ba1a3210667c828492db98dca3e2076cc3735a920a3ca505d382bbc8152f35b7fe07c8dba000000000000000000000000000000000000000000000000000000005f5260045ffd5b346109975760207ffffffffffffffffffffffffffffffffffffffffffffffffffffffffffffffffc360112610997576004355f9081526005602052604090206002015473ffffffffffffffffffffffffffffffffffffffff16156112e857602060015b6040519015158152f35b60205f6112de565b60407ffffffffffffffffffffffffffffffffffffffffffffffffffffffffffffffffc360112610997576113226121ba565b60243567ffffffffffffffff8111610997573660238201121561099757611353903690602481600401359101612095565b9073ffffffffffffffffffffffffffffffffffffffff7f000000000000000000000000000000000000000000000000000000000000000016803014908115611629575b5061125357335f9081527fab71e3f32666744d246edff3f96e4bdafee2e9867098cdd118a979a7464786a8602052604090205460ff16156115d95773ffffffffffffffffffffffffffffffffffffffff8116916040517f52d1902d000000000000000000000000000000000000000000000000000000008152602081600481875afa5f91816115a5575b5061145157837f4c9c8ce3000000000000000000000000000000000000000000000000000000005f5260045260245ffd5b807f360894a13ba1a3210667c828492db98dca3e2076cc3735a920a3ca505d382bbc85920361157a5750823b1561154f57807fffffffffffffffffffffffff00000000000000000000000000000000000000007f360894a13ba1a3210667c828492db98dca3e2076cc3735a920a3ca505d382bbc5416177f360894a13ba1a3210667c828492db98dca3e2076cc3735a920a3ca505d382bbc557fbc7cd75a20ee27fd9adebab32041f755214dbc6bffa90cc0225b39da2e5c2d3b5f80a280511561151e57610b1e91612ed5565b50503461152757005b7fb398979f000000000000000000000000000000000000000000000000000000005f5260045ffd5b7f4c9c8ce3000000000000000000000000000000000000000000000000000000005f5260045260245ffd5b7faa1d49a4000000000000000000000000000000000000000000000000000000005f5260045260245ffd5b9091506020813d6020116115d1575b816115c160209383612054565b8101031261099757519085611420565b3d91506115b4565b7fe2517d3f000000000000000000000000000000000000000000000000000000005f52336004527f189ab7a9244df0848122154315af71fe140f3db0fe014031783b0946b8c9d2e360245260445ffd5b905073ffffffffffffffffffffffffffffffffffffffff7f360894a13ba1a3210667c828492db98dca3e2076cc3735a920a3ca505d382bbc5416141583611396565b34610997575f7ffffffffffffffffffffffffffffffffffffffffffffffffffffffffffffffffc360112610997576020600254604051908152f35b346109975760407ffffffffffffffffffffffffffffffffffffffffffffffffffffffffffffffffc3601126109975760243567ffffffffffffffff81116109975761170a6116fb610b1e9236906004016121dd565b61170361264c565b3691612386565b600435612d73565b346109975760407ffffffffffffffffffffffffffffffffffffffffffffffffffffffffffffffffc36011261099757611749612197565b3373ffffffffffffffffffffffffffffffffffffffff82160361177257610b1e90600435612c6b565b7f6697b232000000000000000000000000000000000000000000000000000000005f5260045ffd5b34610997575f7ffffffffffffffffffffffffffffffffffffffffffffffffffffffffffffffffc36011261099757602073ffffffffffffffffffffffffffffffffffffffff7f360894a13ba1a3210667c828492db98dca3e2076cc3735a920a3ca505d382bbc5416604051908152f35b346109975760407ffffffffffffffffffffffffffffffffffffffffffffffffffffffffffffffffc36011261099757610b1e600435611847612197565b90611880610b14825f527f02dd7bc7dec4dceedda775e58dd541e08a116c6c53815c0bd028192f7b626800602052600160405f20015490565b612b59565b346109975761189336612145565b9061189c61264c565b825f525f6020526118c560405f2060206040518092868683378682019081520301902054612281565b15611b4557825f525f60205260405f206020604051809285858337858201908152030190206118f48154612281565b9081611b02575b5050825f52600160205260405f20905f5b825480821015611ad757610f89611933611926848761223f565b50604051928380926122d2565b60208151910120611945368786612095565b602081519101201461195a575060010161190c565b7fffffffffffffffffffffffffffffffffffffffffffffffffffffffffffffffff8195939495019081116109c35761199561199d918661223f565b50918561223f565b919091611a7e576119ad9161273a565b82548015611aaa577fffffffffffffffffffffffffffffffffffffffffffffffffffffffffffffffff016119e1818561223f565b949094611a7e5784611a147fca45c60cf1bbd58b2ac673da0d008eb3606c36e814e8d7fe0df3a3e53ecc59b79654612281565b9081611a3b575b5050555b611a366040519283926020845260208401916125be565b0390a2005b81601f5f9311600114611a525750555b8680611a1b565b81835260208320611a6e91601f0160051c810190600101612443565b8082528160208120915555611a4b565b7f4e487b71000000000000000000000000000000000000000000000000000000005f525f60045260245ffd5b7f4e487b71000000000000000000000000000000000000000000000000000000005f52603160045260245ffd5b505090507fca45c60cf1bbd58b2ac673da0d008eb3606c36e814e8d7fe0df3a3e53ecc59b791611a1f565b81601f5f9311600114611b195750555b83806118fb565b81835260208320611b3591601f0160051c810190600101612443565b8082528160208120915555611b12565b60646040517f08c379a000000000000000000000000000000000000000000000000000000000815260206004820152601260248201527f4b657920646f6573206e6f7420657869737400000000000000000000000000006044820152fd5b346109975760207ffffffffffffffffffffffffffffffffffffffffffffffffffffffffffffffffc360112610997576020611c0b6004355f527f02dd7bc7dec4dceedda775e58dd541e08a116c6c53815c0bd028192f7b626800602052600160405f20015490565b604051908152f35b346109975760407ffffffffffffffffffffffffffffffffffffffffffffffffffffffffffffffffc3601126109975760243567ffffffffffffffff811161099757610f89611c9d602080611c6e610b9d9536906004016120f9565b6004355f525f825260405f20604051938285935191829101845e820190815203019020604051928380926122d2565b604051918291602083526020830190611fd9565b346109975760207ffffffffffffffffffffffffffffffffffffffffffffffffffffffffffffffffc36011261099757600435805f52600160205260405f208054611cfa8161220e565b92611d086040519485612054565b8184527fffffffffffffffffffffffffffffffffffffffffffffffffffffffffffffffe0611d358361220e565b015f5b818110611f065750505f5b828110611ded57846040518091602082016020835281518091526040830190602060408260051b8601019301915f905b828210611d8257505050500390f35b91936020611ddd827fffffffffffffffffffffffffffffffffffffffffffffffffffffffffffffffc0600195979984950301865288519083611dcd8351604084526040840190611fd9565b9201519084818403910152611fd9565b9601920192018594939192611d73565b611df7818561223f565b50825f525f60205260405f20611e0d838761223f565b50604051915f91805490611e2082612281565b9160018116908115611ed05750600114611e9b575b5050826020600196959484611e7a94610f89965203019020610f89611e6c60405195611e608761201c565b604051928380926122d2565b8452604051928380926122d2565b6020820152611e898288612372565b52611e948187612372565b5001611d43565b909192505f5260205f205f905b828210611ebc575050820190826020611e35565b600181602092548488015201910190611ea8565b7fffffffffffffffffffffffffffffffffffffffffffffffffffffffffffffff0016865250508015150283019150826020611e35565b602090611f11612226565b82828901015201611d38565b346109975760207ffffffffffffffffffffffffffffffffffffffffffffffffffffffffffffffffc36011261099757600435907fffffffff00000000000000000000000000000000000000000000000000000000821680920361099757817f7965db0b0000000000000000000000000000000000000000000000000000000060209314908115611faf575b5015158152f35b7f01ffc9a70000000000000000000000000000000000000000000000000000000091501483611fa8565b907fffffffffffffffffffffffffffffffffffffffffffffffffffffffffffffffe0601f602080948051918291828752018686015e5f8582860101520116010190565b6040810190811067ffffffffffffffff821117610ee657604052565b6060810190811067ffffffffffffffff821117610ee657604052565b90601f7fffffffffffffffffffffffffffffffffffffffffffffffffffffffffffffffe0910116810190811067ffffffffffffffff821117610ee657604052565b92919267ffffffffffffffff8211610ee657604051916120dd601f82017fffffffffffffffffffffffffffffffffffffffffffffffffffffffffffffffe01660200184612054565b829481845281830111610997578281602093845f960137010152565b9080601f830112156109975781602061211493359101612095565b90565b9181601f840112156109975782359167ffffffffffffffff8311610997576020838186019501011161099757565b9060407ffffffffffffffffffffffffffffffffffffffffffffffffffffffffffffffffc83011261099757600435916024359067ffffffffffffffff82116109975761219391600401612117565b9091565b6024359073ffffffffffffffffffffffffffffffffffffffff8216820361099757565b6004359073ffffffffffffffffffffffffffffffffffffffff8216820361099757565b9181601f840112156109975782359167ffffffffffffffff8311610997576020808501948460051b01011161099757565b67ffffffffffffffff8111610ee65760051b60200190565b604051906122338261201c565b60606020838281520152565b8054821015612254575f5260205f2001905f90565b7f4e487b71000000000000000000000000000000000000000000000000000000005f52603260045260245ffd5b90600182811c921680156122c8575b602083101461229b57565b7f4e487b71000000000000000000000000000000000000000000000000000000005f52602260045260245ffd5b91607f1691612290565b5f92918154916122e183612281565b808352926001811690811561233657506001146122fd57505050565b5f9081526020812093945091925b83831061231c575060209250010190565b60018160209294939454838587010152019101919061230b565b905060209495507fffffffffffffffffffffffffffffffffffffffffffffffffffffffffffffff0091509291921683830152151560051b010190565b80518210156122545760209160051b010190565b929190926123938461220e565b936123a16040519586612054565b602085828152019060051b8201918383116109975780915b8383106123c7575050505050565b823567ffffffffffffffff811161099757820160408187031261099757604051916123f18361201c565b813567ffffffffffffffff8111610997578761240e9184016120f9565b835260208201359267ffffffffffffffff841161099757612434886020958695016120f9565b838201528152019201916123b9565b81811061244e575050565b5f8155600101612443565b9190601f811161246857505050565b612492925f5260205f20906020601f840160051c83019310612494575b601f0160051c0190612443565b565b9091508190612485565b919091825167ffffffffffffffff8111610ee6576124c6816124c08454612281565b84612459565b6020601f82116001146125235781906125149394955f92612518575b50507fffffffffffffffffffffffffffffffffffffffffffffffffffffffffffffffff8260011b9260031b1c19161790565b9055565b015190505f806124e2565b7fffffffffffffffffffffffffffffffffffffffffffffffffffffffffffffffe0821690835f52805f20915f5b8181106125a65750958360019596971061256f575b505050811b019055565b01517fffffffffffffffffffffffffffffffffffffffffffffffffffffffffffffffff60f88460031b161c191690555f8080612565565b9192602060018192868b015181550194019201612550565b601f82602094937fffffffffffffffffffffffffffffffffffffffffffffffffffffffffffffffe093818652868601375f8582860101520116010190565b90357fffffffffffffffffffffffffffffffffffffffffffffffffffffffffffffffe18236030181121561099757016020813591019167ffffffffffffffff821161099757813603831361099757565b335f9081527fb7db2dd08fcb62d0c9e08c51941cae53c267786a0b75803fb7960902fc8ef97d602052604090205460ff161561268457565b7fe2517d3f000000000000000000000000000000000000000000000000000000005f52336004525f60245260445ffd5b805f527f02dd7bc7dec4dceedda775e58dd541e08a116c6c53815c0bd028192f7b62680060205260405f2073ffffffffffffffffffffffffffffffffffffffff33165f5260205260ff60405f2054161561270b5750565b7fe2517d3f000000000000000000000000000000000000000000000000000000005f523360045260245260445ffd5b9190918281146128655761274e8354612281565b67ffffffffffffffff8111610ee65761276b816124c08454612281565b5f93601f82116001146127c35761251492939482915f926127b85750507fffffffffffffffffffffffffffffffffffffffffffffffffffffffffffffffff8260011b9260031b1c19161790565b015490505f806124e2565b7fffffffffffffffffffffffffffffffffffffffffffffffffffffffffffffffe08216905f5260205f2094835f5260205f20915f5b81811061284d5750958360019596971061281657505050811b019055565b01547fffffffffffffffffffffffffffffffffffffffffffffffffffffffffffffffff60f88460031b161c191690555f8080612565565b9192600180602092868b0154815501940192016127f8565b509050565b73ffffffffffffffffffffffffffffffffffffffff81165f9081527fb7db2dd08fcb62d0c9e08c51941cae53c267786a0b75803fb7960902fc8ef97d602052604090205460ff1661294c5773ffffffffffffffffffffffffffffffffffffffff165f8181527fb7db2dd08fcb62d0c9e08c51941cae53c267786a0b75803fb7960902fc8ef97d6020526040812080547fffffffffffffffffffffffffffffffffffffffffffffffffffffffffffffff001660011790553391907f2f8788117e7eff1d82e926ec794901d17c78024a50270940304540a733656f0d8180a4600190565b505f90565b73ffffffffffffffffffffffffffffffffffffffff81165f9081527fab71e3f32666744d246edff3f96e4bdafee2e9867098cdd118a979a7464786a8602052604090205460ff1661294c5773ffffffffffffffffffffffffffffffffffffffff165f8181527fab71e3f32666744d246edff3f96e4bdafee2e9867098cdd118a979a7464786a86020526040812080547fffffffffffffffffffffffffffffffffffffffffffffffffffffffffffffff001660011790553391907f189ab7a9244df0848122154315af71fe140f3db0fe014031783b0946b8c9d2e3907f2f8788117e7eff1d82e926ec794901d17c78024a50270940304540a733656f0d9080a4600190565b73ffffffffffffffffffffffffffffffffffffffff81165f9081527f07966f2ab141347034724e9b2a472c2f77f5cd745aeba27cacba797b8fcb7086602052604090205460ff1661294c5773ffffffffffffffffffffffffffffffffffffffff165f8181527f07966f2ab141347034724e9b2a472c2f77f5cd745aeba27cacba797b8fcb70866020526040812080547fffffffffffffffffffffffffffffffffffffffffffffffffffffffffffffff001660011790553391907fedcc084d3dcd65a1f7f23c65c46722faca6953d28e43150a467cf43e5c309238907f2f8788117e7eff1d82e926ec794901d17c78024a50270940304540a733656f0d9080a4600190565b805f527f02dd7bc7dec4dceedda775e58dd541e08a116c6c53815c0bd028192f7b62680060205260405f2073ffffffffffffffffffffffffffffffffffffffff83165f5260205260ff60405f205416155f14612c6557805f527f02dd7bc7dec4dceedda775e58dd541e08a116c6c53815c0bd028192f7b62680060205260405f2073ffffffffffffffffffffffffffffffffffffffff83165f5260205260405f2060017fffffffffffffffffffffffffffffffffffffffffffffffffffffffffffffff0082541617905573ffffffffffffffffffffffffffffffffffffffff339216907f2f8788117e7eff1d82e926ec794901d17c78024a50270940304540a733656f0d5f80a4600190565b50505f90565b805f527f02dd7bc7dec4dceedda775e58dd541e08a116c6c53815c0bd028192f7b62680060205260405f2073ffffffffffffffffffffffffffffffffffffffff83165f5260205260ff60405f2054165f14612c6557805f527f02dd7bc7dec4dceedda775e58dd541e08a116c6c53815c0bd028192f7b62680060205260405f2073ffffffffffffffffffffffffffffffffffffffff83165f5260205260405f207fffffffffffffffffffffffffffffffffffffffffffffffffffffffffffffff00815416905573ffffffffffffffffffffffffffffffffffffffff339216907ff6391f5c32d9c69d2a47ea670b442974b53935d1edc7fd64eb21e047a839171b5f80a4600190565b9190915f5b8351811015612ecf57815f525f602052612dbc60208060405f20612d9c8589612372565b515190604051938285935191829101845e82019081520301902054612281565b15612e066020612dcc8488612372565b510151845f525f60205260208060405f20612de7878b612372565b515190604051938285935191829101845e82019081520301902061249e565b612e7c575b80827fc42c4edbc41dce02b01dd098a1f7a4c685c638d7a2fdfbe449b32e1f89fbfae1612e65612e3d60019589612372565b5151612e736020612e4e878c612372565b510151604051938493604085526040850190611fd9565b908382036020850152611fd9565b0390a201612d78565b815f52600160205260405f2090612e938186612372565b515191805468010000000000000000811015610ee657612eb89160018201815561223f565b611a7e57600192612ec89161249e565b9050612e0b565b50509050565b905f8091602081519101845af48080612f89575b15612f095750506040513d81523d5f602083013e60203d82010160405290565b15612f505773ffffffffffffffffffffffffffffffffffffffff907f9996b315000000000000000000000000000000000000000000000000000000005f521660045260245ffd5b3d15612f61576040513d5f823e3d90fd5b7fd6bda275000000000000000000000000000000000000000000000000000000005f5260045ffd5b503d151580612ee95750813b1515612ee956fea2646970667358221220dbf14e523f227c09db0265dc504b1c131fccce058bf6319bd3497fb0b29617f964736f6c634300081e0033f0c57e16840df040f15088dc2f81fe391c3923bec73e23a9662efc9c229c6a00","linkReferences":{}},"methodIdentifiers":{"DEFAULT_ADMIN_ROLE()":"a217fddf","UPGRADE_INTERFACE_VERSION()":"ad3cb1cc","assetERC20Implementation()":"85f27d32","assetExists(uint256)":"518e2bdd","assetId()":"44de240a","createAssetType(string,bytes32,bytes32[],(string,string)[])":"82190ddb","getAllMetadata(bytes32)":"05daf368","getAllMetadataKeys(bytes32)":"5cb0e05a","getAsset(uint256)":"eac8f5b8","getMetadata(bytes32,string)":"0e1ae91b","getMetadataCount(bytes32)":"5e597156","getRoleAdmin(bytes32)":"248a9ca3","getType(bytes32)":"7f2aeea4","getUupsImplementation()":"358410d5","grantRole(bytes32,address)":"2f2ff15d","hasMetadata(bytes32,string)":"e5e0a25d","hasRole(bytes32,address)":"91d14854","initialize(address,address,address,address)":"f8c8765e","proxiableUUID()":"52d1902d","registerAsset(bytes32,string,string,uint256,address,address,address,(string,string)[])":"d904cd17","removeMetadata(bytes32,string)":"26f389ba","renounceRole(bytes32,address)":"36568abe","revokeRole(bytes32,address)":"d547741f","setMetadata(bytes32,(string,string)[])":"3b41f4ea","supportsInterface(bytes4)":"01ffc9a7","upgradeToAndCall(address,bytes)":"4f1ef286"},"storageLayout":{"storage":[{"astId":56680,"contract":"src/AssetRegistry.sol:AssetRegistry","label":"_metadata","offset":0,"slot":"0","type":"t_mapping(t_bytes32,t_mapping(t_string_memory_ptr,t_string_storage))"},{"astId":56686,"contract":"src/AssetRegistry.sol:AssetRegistry","label":"_metadataKeys","offset":0,"slot":"1","type":"t_mapping(t_bytes32,t_array(t_string_storage)dyn_storage)"},{"astId":54802,"contract":"src/AssetRegistry.sol:AssetRegistry","label":"assetId","offset":0,"slot":"2","type":"t_uint256"},{"astId":54805,"contract":"src/AssetRegistry.sol:AssetRegistry","label":"assetERC20Implementation","offset":0,"slot":"3","type":"t_address"},{"astId":54811,"contract":"src/AssetRegistry.sol:AssetRegistry","label":"_assetTypes","offset":0,"slot":"4","type":"t_mapping(t_bytes32,t_struct(AssetType)54791_storage)"},{"astId":54817,"contract":"src/AssetRegistry.sol:AssetRegistry","label":"_assets","offset":0,"slot":"5","type":"t_mapping(t_uint256,t_struct(Asset)54799_storage)"}],"types":{"t_address":{"encoding":"inplace","label":"address","numberOfBytes":"20"},"t_array(t_bytes32)dyn_storage":{"encoding":"dynamic_array","label":"bytes32[]","numberOfBytes":"32","base":"t_bytes32"},"t_array(t_string_storage)dyn_storage":{"encoding":"dynamic_array","label":"string[]","numberOfBytes":"32","base":"t_string_storage"},"t_bytes32":{"encoding":"inplace","label":"bytes32","numberOfBytes":"32"},"t_mapping(t_bytes32,t_array(t_string_storage)dyn_storage)":{"encoding":"mapping","key":"t_bytes32","label":"mapping(bytes32 => string[])","numberOfBytes":"32","value":"t_array(t_string_storage)dyn_storage"},"t_mapping(t_bytes32,t_mapping(t_string_memory_ptr,t_string_storage))":{"encoding":"mapping","key":"t_bytes32","label":"mapping(bytes32 => mapping(string => string))","numberOfBytes":"32","value":"t_mapping(t_string_memory_ptr,t_string_storage)"},"t_mapping(t_bytes32,t_struct(AssetType)54791_storage)":{"encoding":"mapping","key":"t_bytes32","label":"mapping(bytes32 => struct AssetRegistry.AssetType)","numberOfBytes":"32","value":"t_struct(AssetType)54791_storage"},"t_mapping(t_string_memory_ptr,t_string_storage)":{"encoding":"mapping","key":"t_string_memory_ptr","label":"mapping(string => string)","numberOfBytes":"32","value":"t_string_storage"},"t_mapping(t_uint256,t_struct(Asset)54799_storage)":{"encoding":"mapping","key":"t_uint256","label":"mapping(uint256 => struct AssetRegistry.Asset)","numberOfBytes":"32","value":"t_struct(Asset)54799_storage"},"t_string_memory_ptr":{"encoding":"bytes","label":"string","numberOfBytes":"32"},"t_string_storage":{"encoding":"bytes","label":"string","numberOfBytes":"32"},"t_struct(Asset)54799_storage":{"encoding":"inplace","label":"struct AssetRegistry.Asset","numberOfBytes":"96","members":[{"astId":54794,"contract":"src/AssetRegistry.sol:AssetRegistry","label":"assetType","offset":0,"slot":"0","type":"t_bytes32"},{"astId":54796,"contract":"src/AssetRegistry.sol:AssetRegistry","label":"issuer","offset":0,"slot":"1","type":"t_address"},{"astId":54798,"contract":"src/AssetRegistry.sol:AssetRegistry","label":"tokenAddress","offset":0,"slot":"2","type":"t_address"}]},"t_struct(AssetType)54791_storage":{"encoding":"inplace","label":"struct AssetRegistry.AssetType","numberOfBytes":"64","members":[{"astId":54787,"contract":"src/AssetRegistry.sol:AssetRegistry","label":"name","offset":0,"slot":"0","type":"t_string_storage"},{"astId":54790,"contract":"src/AssetRegistry.sol:AssetRegistry","label":"requiredLeaseKeys","offset":0,"slot":"1","type":"t_array(t_bytes32)dyn_storage"}]},"t_uint256":{"encoding":"inplace","label":"uint256","numberOfBytes":"32"}}},"id":66}