{"abi":[{"type":"function","name":"DEFAULT_ADMIN_ROLE","inputs":[],"outputs":[{"name":"","type":"bytes32","internalType":"bytes32"}],"stateMutability":"view"},{"type":"function","name":"UPGRADE_INTERFACE_VERSION","inputs":[],"outputs":[{"name":"","type":"string","internalType":"string"}],"stateMutability":"view"},{"type":"function","name":"assetERC20Implementation","inputs":[],"outputs":[{"name":"","type":"address","internalType":"address"}],"stateMutability":"view"},{"type":"function","name":"assetExists","inputs":[{"name":"id","type":"uint256","internalType":"uint256"}],"outputs":[{"name":"","type":"bool","internalType":"bool"}],"stateMutability":"view"},{"type":"function","name":"assetId","inputs":[],"outputs":[{"name":"","type":"uint256","internalType":"uint256"}],"stateMutability":"view"},{"type":"function","name":"createAsset","inputs":[{"name":"name","type":"string","internalType":"string"},{"name":"schemaHash","type":"bytes32","internalType":"bytes32"},{"name":"requiredLeaseKeys","type":"bytes32[]","internalType":"bytes32[]"},{"name":"metadata","type":"tuple[]","internalType":"struct MetadataStorage.Metadata[]","components":[{"name":"key","type":"string","internalType":"string"},{"name":"value","type":"string","internalType":"string"}]}],"outputs":[],"stateMutability":"nonpayable"},{"type":"function","name":"getAllMetadata","inputs":[{"name":"hash","type":"bytes32","internalType":"bytes32"}],"outputs":[{"name":"metadata","type":"tuple[]","internalType":"struct MetadataStorage.Metadata[]","components":[{"name":"key","type":"string","internalType":"string"},{"name":"value","type":"string","internalType":"string"}]}],"stateMutability":"view"},{"type":"function","name":"getAllMetadataKeys","inputs":[{"name":"hash","type":"bytes32","internalType":"bytes32"}],"outputs":[{"name":"keys","type":"string[]","internalType":"string[]"}],"stateMutability":"view"},{"type":"function","name":"getAsset","inputs":[{"name":"id","type":"uint256","internalType":"uint256"}],"outputs":[{"name":"","type":"tuple","internalType":"struct AssetRegistry.Asset","components":[{"name":"schemaHash","type":"bytes32","internalType":"bytes32"},{"name":"issuer","type":"address","internalType":"address"},{"name":"tokenAddress","type":"address","internalType":"address"}]}],"stateMutability":"view"},{"type":"function","name":"getMetadata","inputs":[{"name":"hash","type":"bytes32","internalType":"bytes32"},{"name":"key","type":"string","internalType":"string"}],"outputs":[{"name":"value","type":"string","internalType":"string"}],"stateMutability":"view"},{"type":"function","name":"getMetadataCount","inputs":[{"name":"hash","type":"bytes32","internalType":"bytes32"}],"outputs":[{"name":"count","type":"uint256","internalType":"uint256"}],"stateMutability":"view"},{"type":"function","name":"getRoleAdmin","inputs":[{"name":"role","type":"bytes32","internalType":"bytes32"}],"outputs":[{"name":"","type":"bytes32","internalType":"bytes32"}],"stateMutability":"view"},{"type":"function","name":"getType","inputs":[{"name":"schemaHash","type":"bytes32","internalType":"bytes32"}],"outputs":[{"name":"","type":"tuple","internalType":"struct AssetRegistry.AssetType","components":[{"name":"name","type":"string","internalType":"string"},{"name":"requiredLeaseKeys","type":"bytes32[]","internalType":"bytes32[]"}]}],"stateMutability":"view"},{"type":"function","name":"getUupsImplementation","inputs":[],"outputs":[{"name":"","type":"address","internalType":"address"}],"stateMutability":"view"},{"type":"function","name":"grantRole","inputs":[{"name":"role","type":"bytes32","internalType":"bytes32"},{"name":"account","type":"address","internalType":"address"}],"outputs":[],"stateMutability":"nonpayable"},{"type":"function","name":"hasMetadata","inputs":[{"name":"hash","type":"bytes32","internalType":"bytes32"},{"name":"key","type":"string","internalType":"string"}],"outputs":[{"name":"exists","type":"bool","internalType":"bool"}],"stateMutability":"view"},{"type":"function","name":"hasRole","inputs":[{"name":"role","type":"bytes32","internalType":"bytes32"},{"name":"account","type":"address","internalType":"address"}],"outputs":[{"name":"","type":"bool","internalType":"bool"}],"stateMutability":"view"},{"type":"function","name":"initialize","inputs":[{"name":"admin","type":"address","internalType":"address"},{"name":"registrar","type":"address","internalType":"address"},{"name":"assetERC20Implementation","type":"address","internalType":"address"}],"outputs":[],"stateMutability":"nonpayable"},{"type":"function","name":"proxiableUUID","inputs":[],"outputs":[{"name":"","type":"bytes32","internalType":"bytes32"}],"stateMutability":"view"},{"type":"function","name":"registerAsset","inputs":[{"name":"schemaHash","type":"bytes32","internalType":"bytes32"},{"name":"tokenName","type":"string","internalType":"string"},{"name":"tokenSymbol","type":"string","internalType":"string"},{"name":"totalSupply","type":"uint256","internalType":"uint256"},{"name":"admin","type":"address","internalType":"address"},{"name":"tokenRecipient","type":"address","internalType":"address"},{"name":"metadata","type":"tuple[]","internalType":"struct MetadataStorage.Metadata[]","components":[{"name":"key","type":"string","internalType":"string"},{"name":"value","type":"string","internalType":"string"}]}],"outputs":[{"name":"newAssetId","type":"uint256","internalType":"uint256"},{"name":"tokenAddress","type":"address","internalType":"address"}],"stateMutability":"nonpayable"},{"type":"function","name":"removeMetadata","inputs":[{"name":"hash","type":"bytes32","internalType":"bytes32"},{"name":"key","type":"string","internalType":"string"}],"outputs":[],"stateMutability":"nonpayable"},{"type":"function","name":"renounceRole","inputs":[{"name":"role","type":"bytes32","internalType":"bytes32"},{"name":"callerConfirmation","type":"address","internalType":"address"}],"outputs":[],"stateMutability":"nonpayable"},{"type":"function","name":"revokeRole","inputs":[{"name":"role","type":"bytes32","internalType":"bytes32"},{"name":"account","type":"address","internalType":"address"}],"outputs":[],"stateMutability":"nonpayable"},{"type":"function","name":"setMetadata","inputs":[{"name":"hash","type":"bytes32","internalType":"bytes32"},{"name":"metadata_","type":"tuple[]","internalType":"struct MetadataStorage.Metadata[]","components":[{"name":"key","type":"string","internalType":"string"},{"name":"value","type":"string","internalType":"string"}]}],"outputs":[],"stateMutability":"nonpayable"},{"type":"function","name":"supportsInterface","inputs":[{"name":"interfaceId","type":"bytes4","internalType":"bytes4"}],"outputs":[{"name":"","type":"bool","internalType":"bool"}],"stateMutability":"view"},{"type":"function","name":"upgradeToAndCall","inputs":[{"name":"newImplementation","type":"address","internalType":"address"},{"name":"data","type":"bytes","internalType":"bytes"}],"outputs":[],"stateMutability":"payable"},{"type":"function","name":"uri","inputs":[{"name":"schemaHash","type":"bytes32","internalType":"bytes32"}],"outputs":[{"name":"","type":"string","internalType":"string"}],"stateMutability":"view"},{"type":"event","name":"AssetRegistered","inputs":[{"name":"assetId","type":"uint256","indexed":true,"internalType":"uint256"},{"name":"schemaHash","type":"bytes32","indexed":true,"internalType":"bytes32"},{"name":"tokenAddress","type":"address","indexed":false,"internalType":"address"}],"anonymous":false},{"type":"event","name":"AssetTypeCreated","inputs":[{"name":"name","type":"string","indexed":true,"internalType":"string"},{"name":"schemaHash","type":"bytes32","indexed":true,"internalType":"bytes32"},{"name":"requiredLeaseKeys","type":"bytes32[]","indexed":false,"internalType":"bytes32[]"}],"anonymous":false},{"type":"event","name":"Initialized","inputs":[{"name":"version","type":"uint64","indexed":false,"internalType":"uint64"}],"anonymous":false},{"type":"event","name":"MetadataRemoved","inputs":[{"name":"hash","type":"bytes32","indexed":true,"internalType":"bytes32"},{"name":"key","type":"string","indexed":false,"internalType":"string"}],"anonymous":false},{"type":"event","name":"MetadataUpdated","inputs":[{"name":"hash","type":"bytes32","indexed":true,"internalType":"bytes32"},{"name":"key","type":"string","indexed":false,"internalType":"string"},{"name":"value","type":"string","indexed":false,"internalType":"string"}],"anonymous":false},{"type":"event","name":"RoleAdminChanged","inputs":[{"name":"role","type":"bytes32","indexed":true,"internalType":"bytes32"},{"name":"previousAdminRole","type":"bytes32","indexed":true,"internalType":"bytes32"},{"name":"newAdminRole","type":"bytes32","indexed":true,"internalType":"bytes32"}],"anonymous":false},{"type":"event","name":"RoleGranted","inputs":[{"name":"role","type":"bytes32","indexed":true,"internalType":"bytes32"},{"name":"account","type":"address","indexed":true,"internalType":"address"},{"name":"sender","type":"address","indexed":true,"internalType":"address"}],"anonymous":false},{"type":"event","name":"RoleRevoked","inputs":[{"name":"role","type":"bytes32","indexed":true,"internalType":"bytes32"},{"name":"account","type":"address","indexed":true,"internalType":"address"},{"name":"sender","type":"address","indexed":true,"internalType":"address"}],"anonymous":false},{"type":"event","name":"Upgraded","inputs":[{"name":"implementation","type":"address","indexed":true,"internalType":"address"}],"anonymous":false},{"type":"error","name":"AccessControlBadConfirmation","inputs":[]},{"type":"error","name":"AccessControlUnauthorizedAccount","inputs":[{"name":"account","type":"address","internalType":"address"},{"name":"neededRole","type":"bytes32","internalType":"bytes32"}]},{"type":"error","name":"AddressEmptyCode","inputs":[{"name":"target","type":"address","internalType":"address"}]},{"type":"error","name":"ERC1967InvalidImplementation","inputs":[{"name":"implementation","type":"address","internalType":"address"}]},{"type":"error","name":"ERC1967NonPayable","inputs":[]},{"type":"error","name":"FailedCall","inputs":[]},{"type":"error","name":"FailedDeployment","inputs":[]},{"type":"error","name":"InsufficientBalance","inputs":[{"name":"balance","type":"uint256","internalType":"uint256"},{"name":"needed","type":"uint256","internalType":"uint256"}]},{"type":"error","name":"InvalidInitialization","inputs":[]},{"type":"error","name":"NotInitializing","inputs":[]},{"type":"error","name":"UUPSUnauthorizedCallContext","inputs":[]},{"type":"error","name":"UUPSUnsupportedProxiableUUID","inputs":[{"name":"slot","type":"bytes32","internalType":"bytes32"}]}],"bytecode":{"object":"0x60a080604052346100c257306080525f5160206124b35f395f51905f525460ff8160401c166100b3576002600160401b03196001600160401b03821601610060575b6040516123ec90816100c78239608051818181610e940152610f810152f35b6001600160401b0319166001600160401b039081175f5160206124b35f395f51905f525581527fc7f505b2f371ae2175ee4913f4499e1f2633a7b5936321eed1cdaeb6115181d290602090a15f80610041565b63f92ee8a960e01b5f5260045ffd5b5f80fdfe6080806040526004361015610012575f80fd5b5f905f3560e01c90816301ffc9a7146118de5750806305daf368146116e85780630e1ae91b1461167d578063248a9ca31461163e57806326f389ba146113c75780632f2ff15d1461137d578063358410d51461134957806336568abe146113055780633b41f4ea1461118157806344de240a146111645780634f1ef28614610f32578063518e2bdd14610ee857806352d1902d14610e825780635cb0e05a14610da55780635e59715614610d7b5780637a5782f8146109755780637f2aeea41461087357806385f27d321461084a57806391d14854146107f45780639ed19ddb146107c0578063a217fddf146107a4578063ad3cb1cc14610757578063c0c53b8b146105fa578063d547741f146105a6578063e5e0a25d14610562578063eac8f5b8146104d45763fba01f0314610147575f80fd5b346104d15760803660031901126104d1576004356001600160401b0381116104cf57610177903690600401611a0f565b91602435906044356001600160401b0381116104cf5761019b903690600401611b82565b906064356001600160401b0381116104cb576101bb903690600401611b82565b92906101c5611f7a565b604051936101d285611955565b6101dd368a8a6119ac565b85526101e883611ab1565b6101f5604051918261198b565b838152600584901b95858701602083013682116104c75787905b8282106104b75750505080602060019201928352898952600460205261023a60408a20915182611e1c565b019051908151916001600160401b0383116103fd57600160401b83116103fd578154838355808410610491575b5060200190885260208820885b83811061047d57505050509061028b913691611ac8565b96610294611f7a565b845b8851811015610411578686528560205285610322886020808d6103038760406102e68580838c206102c78689611cad565b5151908551938285935191829101845e82019081520301902054611bf4565b1598856102f38487611cad565b5101519781528086522092611cad565b515190604051938285935191829101845e820190815203019020611e1c565b610399575b80877fc42c4edbc41dce02b01dd098a1f7a4c685c638d7a2fdfbe449b32e1f89fbfae16103828c610390602061036b8761036360019a86611cad565b515194611cad565b510151604051938493604085526040850190611931565b908382036020850152611931565b0390a201610296565b8686526001602052604086206103af828b611cad565b515190805490600160401b8210156103fd57906103d191600182018155611bcb565b6103e957600192916103e291611e1c565b9050610327565b634e487b7160e01b88526004889052602488fd5b634e487b7160e01b89526041600452602489fd5b5086959495816040519283928337810187815203902060405160208082528101839052909390916001600160fb1b03106104795781816040927fb465a381bc5b7c249b2d273580b13753c505208f430da9624481dc3a9d9133bc95848401378101030190a380f35b8580fd5b600190602084519401938184015501610274565b828a528360208b2091820191015b8181106104ac5750610267565b8a815560010161049f565b813581526020918201910161020f565b8980fd5b8380fd5b505b80fd5b50346104d15760203660031901126104d1576040816060928280516104f881611970565b8281528260208201520152600435815260056020522060405161051a81611970565b815480825260018301546001600160a01b0390811660208085019182526002909501548216604094850190815284519384529051821694830194909452925190921690820152f35b50346104d15761059c60406020809361057a36611a3c565b9491839193528084522083604051948593843782019081520301902054611bf4565b1515604051908152f35b50346104d15760403660031901126104d1576105f66004356105c6611a6f565b906105f16105ec825f525f5160206123775f395f51905f52602052600160405f20015490565b611fc9565b61222e565b5080f35b50346104d15760603660031901126104d157610614611a85565b61061c611a6f565b610624611a9b565b505f5160206123975f395f51905f52549160ff8360401c1615926001600160401b0381168015908161074f575b6001149081610745575b15908161073c575b5061072d5767ffffffffffffffff1981166001175f5160206123975f395f51905f52556106a1929161069b9185610701575b5061200f565b506120be565b506106a95780f35b68ff0000000000000000195f5160206123975f395f51905f5254165f5160206123975f395f51905f52557fc7f505b2f371ae2175ee4913f4499e1f2633a7b5936321eed1cdaeb6115181d2602060405160018152a180f35b68ffffffffffffffffff191668010000000000000001175f5160206123975f395f51905f52555f610695565b63f92ee8a960e01b8552600485fd5b9050155f610663565b303b15915061065b565b859150610651565b50346104d157806003193601126104d157506107a060405161077a60408261198b565b60058152640352e302e360dc1b6020820152604051918291602083526020830190611931565b0390f35b50346104d157806003193601126104d157602090604051908152f35b50346104d15760203660031901126104d1576107a06107e0600435611f05565b604051918291602083526020830190611931565b50346104d15760403660031901126104d1576040610810611a6f565b9160043581525f5160206123775f395f51905f52602052209060018060a01b03165f52602052602060ff60405f2054166040519015158152f35b50346104d157806003193601126104d1576003546040516001600160a01b039091168152602090f35b50346104d15760203660031901126104d15761088d611bb2565b5060043581526004602052604081206001604051916108ab83611955565b6040516108c3816108bc8185611c2c565b038261198b565b8352019160405190816020855491828152019482526020822090825b81811061095f575050506108f88261091b95038361198b565b602083019182526040519384936020855251604060208601526060850190611931565b915191601f19848203016040850152602080845192838152019301915b818110610946575050500390f35b8251845285945060209384019390920191600101610938565b82548752602090960195600192830192016108df565b5034610ce95760e0366003190112610ce9576004356024356001600160401b038111610ce9576109a9903690600401611a0f565b9290916044356001600160401b038111610ce9576109cb903690600401611a0f565b90936084356001600160a01b038116929190839003610ce95760a4356001600160a01b0381169390849003610ce95760c4356001600160401b038111610ce957610a19903690600401611b82565b335f9081527f07966f2ab141347034724e9b2a472c2f77f5cd745aeba27cacba797b8fcb70866020526040902054919390929160ff1615610d4457865f526004602052610a6960405f2054611bf4565b15610d10576002545f198114610cfc5760010198896002556e5af43d82803e903d91602b57fd5bf3600354763d602d80600a3d3981f3363d3d373d3d3d363d7300000062ffffff8260881c16175f526effffffffffffffffffffffffffffff199060781b161760205260018060a01b03603760095ff016958615610ced57863b15610ce957604051633006727d60e01b815260e060048201529b8c969493610b2e939291610b1c9160e48a019190611dfc565b87810360031901602489015291611dfc565b90606435604486015289606486015260848501528560a48501526003198482030160c4850152828152602081019260208160051b83010193835f91603e1982360301945b848410610c78575050505050505090805f92038183855af1918215610c6d576040968693610c32575b507f2aa9c4e6dfc93d089f25ff3356df5305b7977f768884056b3bf4c0361e2ab2ac916020916002895191610bcf83611970565b8783528483019081528a8301848152878a52600586528b8a209351845590516001840180546001600160a01b039283166001600160a01b03199182161790915591519290930180549290931691161790558751908152a382519182526020820152f35b602091955091610c635f7f2aa9c4e6dfc93d089f25ff3356df5305b7977f768884056b3bf4c0361e2ab2ac9461198b565b5f95915091610b9b565b6040513d5f823e3d90fd5b9193959750919395601f19828203018352873587811215610ce9576020610cd56001938783940190610cc8610cbe610cb08480611ed4565b604085526040850191611dfc565b9285810190611ed4565b9185818503910152611dfc565b99019301940191949290938d979694610b72565b5f80fd5b63b06ebf3d60e01b5f5260045ffd5b634e487b7160e01b5f52601160045260245ffd5b60405162461bcd60e51b815260206004820152600c60248201526b74797065202165786973747360a01b6044820152606490fd5b63e2517d3f60e01b5f52336004527fedcc084d3dcd65a1f7f23c65c46722faca6953d28e43150a467cf43e5c30923860245260445ffd5b34610ce9576020366003190112610ce9576004355f526001602052602060405f2054604051908152f35b34610ce9576020366003190112610ce9576004355f52600160205260405f20805490610dd082611ab1565b91610dde604051938461198b565b8083526020830180925f5260205f205f915b838310610e5d57848660405191829160208301906020845251809152604083019060408160051b85010192915f905b828210610e2e57505050500390f35b91936001919395506020610e4d8192603f198a82030186528851611931565b9601920192018594939192610e1f565b600160208192604051610e74816108bc8189611c2c565b815201920192019190610df0565b34610ce9575f366003190112610ce9577f00000000000000000000000000000000000000000000000000000000000000006001600160a01b03163003610ed95760206040515f5160206123575f395f51905f528152f35b63703e46dd60e11b5f5260045ffd5b34610ce9576020366003190112610ce9576004355f908152600560205260409020600201546001600160a01b031615610f2a57602060015b6040519015158152f35b60205f610f20565b6040366003190112610ce957610f46611a85565b6024356001600160401b038111610ce95736602382011215610ce957610f769036906024816004013591016119ac565b906001600160a01b037f000000000000000000000000000000000000000000000000000000000000000016308114908115611142575b50610ed957335f9081527fab71e3f32666744d246edff3f96e4bdafee2e9867098cdd118a979a7464786a8602052604090205460ff161561110b576040516352d1902d60e01b81526001600160a01b0382169290602081600481875afa5f91816110d7575b506110295783634c9c8ce360e01b5f5260045260245ffd5b805f5160206123575f395f51905f528592036110c55750823b156110b3575f5160206123575f395f51905f5280546001600160a01b031916821790557fbc7cd75a20ee27fd9adebab32041f755214dbc6bffa90cc0225b39da2e5c2d3b5f80a280511561109b57611099916122ca565b005b5050346110a457005b63b398979f60e01b5f5260045ffd5b634c9c8ce360e01b5f5260045260245ffd5b632a87526960e21b5f5260045260245ffd5b9091506020813d602011611103575b816110f36020938361198b565b81010312610ce957519085611011565b3d91506110e6565b63e2517d3f60e01b5f52336004527f189ab7a9244df0848122154315af71fe140f3db0fe014031783b0946b8c9d2e360245260445ffd5b5f5160206123575f395f51905f52546001600160a01b03161415905083610fac565b34610ce9575f366003190112610ce9576020600254604051908152f35b34610ce9576040366003190112610ce9576004356024356001600160401b038111610ce95736602382011215610ce9576111c5903690602481600401359101611ac8565b906111ce611f7a565b5f5b825181101561109957815f525f60205261121460208060405f206111f48588611cad565b515190604051938285935191829101845e82019081520301902054611bf4565b1561123f60206112248487611cad565b510151845f525f60205260208060405f20610303878a611cad565b611290575b80827fc42c4edbc41dce02b01dd098a1f7a4c685c638d7a2fdfbe449b32e1f89fbfae161038261127660019588611cad565b5151611287602061036b878b611cad565b0390a2016111d0565b815f52600160205260405f20906112a78185611cad565b5151918054600160401b8110156112f1576112c791600182018155611bcb565b6112de576001926112d791611e1c565b9050611244565b634e487b7160e01b5f525f60045260245ffd5b634e487b7160e01b5f52604160045260245ffd5b34610ce9576040366003190112610ce95761131e611a6f565b336001600160a01b0382160361133a576110999060043561222e565b63334bd91960e11b5f5260045ffd5b34610ce9575f366003190112610ce9575f5160206123575f395f51905f52546040516001600160a01b039091168152602090f35b34610ce9576040366003190112610ce95761109960043561139c611a6f565b906113c26105ec825f525f5160206123775f395f51905f52602052600160405f20015490565b61218a565b34610ce9576113d536611a3c565b906113de611f7a565b825f525f60205261140760405f2060206040518092868683378682019081520301902054611bf4565b1561160457825f525f60205260405f206020604051809285858337858201908152030190206114368154611bf4565b90816115c1575b5050825f52600160205260405f20905f5b825480821015611596576108bc6114756114688487611bcb565b5060405192838092611c2c565b602081519101206114873687866119ac565b602081519101201461149c575060010161144e565b929391925f198101908111610cfc576114b86114c09186611bcb565b509185611bcb565b9190916112de576114d091611d1c565b82548015611582575f19016114e58185611bcb565b9490946112de57846115187fca45c60cf1bbd58b2ac673da0d008eb3606c36e814e8d7fe0df3a3e53ecc59b79654611bf4565b908161153f575b5050555b61153a604051928392602084526020840191611dfc565b0390a2005b81601f5f93116001146115565750555b868061151f565b8183526020832061157291601f0160051c810190600101611cc1565b808252816020812091555561154f565b634e487b7160e01b5f52603160045260245ffd5b505090507fca45c60cf1bbd58b2ac673da0d008eb3606c36e814e8d7fe0df3a3e53ecc59b791611523565b81601f5f93116001146115d85750555b838061143d565b818352602083206115f491601f0160051c810190600101611cc1565b80825281602081209155556115d1565b60405162461bcd60e51b815260206004820152601260248201527112d95e48191bd95cc81b9bdd08195e1a5cdd60721b6044820152606490fd5b34610ce9576020366003190112610ce95760206116756004355f525f5160206123775f395f51905f52602052600160405f20015490565b604051908152f35b34610ce9576040366003190112610ce9576024356001600160401b038111610ce9576108bc6107e06020806116b96107a09536906004016119f1565b6004355f525f825260405f20604051938285935191829101845e82019081520301902060405192838092611c2c565b34610ce9576020366003190112610ce957600435805f52600160205260405f20805461171381611ab1565b92611721604051948561198b565b818452601f1961173083611ab1565b015f5b8181106118c75750505f5b8281106117cc57846040518091602082016020835281518091526040830190602060408260051b8601019301915f905b82821061177d57505050500390f35b919360019193955060206117bc8192603f198a8203018652885190836117ac8351604084526040840190611931565b9201519084818403910152611931565b960192019201859493919261176e565b6117d68185611bcb565b50825f525f60205260405f206117ec8387611bcb565b50604051915f918054906117ff82611bf4565b91600181169081156118af575060011461187a575b5050826020600196959484611859946108bc9652030190206108bc61184b6040519561183f87611955565b60405192838092611c2c565b845260405192838092611c2c565b60208201526118688288611cad565b526118738187611cad565b500161173e565b909192505f5260205f205f905b82821061189b575050820190826020611814565b600181602092548488015201910190611887565b60ff1916865250508015150283019150826020611814565b6020906118d2611bb2565b82828901015201611733565b34610ce9576020366003190112610ce9576004359063ffffffff60e01b8216809203610ce957602091637965db0b60e01b8114908115611920575b5015158152f35b6301ffc9a760e01b14905083611919565b805180835260209291819084018484015e5f828201840152601f01601f1916010190565b604081019081106001600160401b038211176112f157604052565b606081019081106001600160401b038211176112f157604052565b90601f801991011681019081106001600160401b038211176112f157604052565b9291926001600160401b0382116112f157604051916119d5601f8201601f19166020018461198b565b829481845281830111610ce9578281602093845f960137010152565b9080601f83011215610ce957816020611a0c933591016119ac565b90565b9181601f84011215610ce9578235916001600160401b038311610ce95760208381860195010111610ce957565b906040600319830112610ce95760043591602435906001600160401b038211610ce957611a6b91600401611a0f565b9091565b602435906001600160a01b0382168203610ce957565b600435906001600160a01b0382168203610ce957565b604435906001600160a01b0382168203610ce957565b6001600160401b0381116112f15760051b60200190565b92919092611ad584611ab1565b93611ae3604051958661198b565b602085828152019060051b820191838311610ce95780915b838310611b09575050505050565b82356001600160401b038111610ce9578201604081870312610ce95760405191611b3283611955565b81356001600160401b038111610ce95787611b4e9184016119f1565b83526020820135926001600160401b038411610ce957611b73886020958695016119f1565b83820152815201920191611afb565b9181601f84011215610ce9578235916001600160401b038311610ce9576020808501948460051b010111610ce957565b60405190611bbf82611955565b60606020838281520152565b8054821015611be0575f5260205f2001905f90565b634e487b7160e01b5f52603260045260245ffd5b90600182811c92168015611c22575b6020831014611c0e57565b634e487b7160e01b5f52602260045260245ffd5b91607f1691611c03565b5f9291815491611c3b83611bf4565b8083529260018116908115611c905750600114611c5757505050565b5f9081526020812093945091925b838310611c76575060209250010190565b600181602092949394548385870101520191019190611c65565b915050602093945060ff929192191683830152151560051b010190565b8051821015611be05760209160051b010190565b818110611ccc575050565b5f8155600101611cc1565b9190601f8111611ce657505050565b611d10925f5260205f20906020601f840160051c83019310611d12575b601f0160051c0190611cc1565b565b9091508190611d03565b919091828114611df757611d308354611bf4565b6001600160401b0381116112f157611d5281611d4c8454611bf4565b84611cd7565b5f93601f8211600114611d9157611d8292939482915f92611d86575b50508160011b915f199060031b1c19161790565b9055565b015490505f80611d6e565b601f198216905f5260205f2094835f5260205f20915f5b818110611ddf57509583600195969710611dc7575b505050811b019055565b01545f1960f88460031b161c191690555f8080611dbd565b9192600180602092868b015481550194019201611da8565b509050565b908060209392818452848401375f828201840152601f01601f1916010190565b91909182516001600160401b0381116112f157611e3d81611d4c8454611bf4565b6020601f8211600114611e77578190611d829394955f92611e6c5750508160011b915f199060031b1c19161790565b015190505f80611d6e565b601f19821690835f52805f20915f5b818110611ebc57509583600195969710611ea457505050811b019055565b01515f1960f88460031b161c191690555f8080611dbd565b9192602060018192868b015181550194019201611e86565b9035601e1982360301811215610ce95701602081359101916001600160401b038211610ce9578136038313610ce957565b611f5490611f5b60409160208351611f1d858261198b565b60038152818101926275726960e81b84525f525f8252845f208551938492518091845e820190815203019020825193848092611c2c565b038361198b565b815115611f66575090565b905051611f7460208261198b565b5f815290565b335f9081527fb7db2dd08fcb62d0c9e08c51941cae53c267786a0b75803fb7960902fc8ef97d602052604090205460ff1615611fb257565b63e2517d3f60e01b5f52336004525f60245260445ffd5b5f8181525f5160206123775f395f51905f526020908152604080832033845290915290205460ff1615611ff95750565b63e2517d3f60e01b5f523360045260245260445ffd5b6001600160a01b0381165f9081527fb7db2dd08fcb62d0c9e08c51941cae53c267786a0b75803fb7960902fc8ef97d602052604090205460ff166120b9576001600160a01b03165f8181527fb7db2dd08fcb62d0c9e08c51941cae53c267786a0b75803fb7960902fc8ef97d60205260408120805460ff191660011790553391907f2f8788117e7eff1d82e926ec794901d17c78024a50270940304540a733656f0d8180a4600190565b505f90565b6001600160a01b0381165f9081527f07966f2ab141347034724e9b2a472c2f77f5cd745aeba27cacba797b8fcb7086602052604090205460ff166120b9576001600160a01b03165f8181527f07966f2ab141347034724e9b2a472c2f77f5cd745aeba27cacba797b8fcb708660205260408120805460ff191660011790553391907fedcc084d3dcd65a1f7f23c65c46722faca6953d28e43150a467cf43e5c309238907f2f8788117e7eff1d82e926ec794901d17c78024a50270940304540a733656f0d9080a4600190565b5f8181525f5160206123775f395f51905f52602090815260408083206001600160a01b038616845290915290205460ff16612228575f8181525f5160206123775f395f51905f52602090815260408083206001600160a01b0395909516808452949091528120805460ff19166001179055339291907f2f8788117e7eff1d82e926ec794901d17c78024a50270940304540a733656f0d9080a4600190565b50505f90565b5f8181525f5160206123775f395f51905f52602090815260408083206001600160a01b038616845290915290205460ff1615612228575f8181525f5160206123775f395f51905f52602090815260408083206001600160a01b0395909516808452949091528120805460ff19169055339291907ff6391f5c32d9c69d2a47ea670b442974b53935d1edc7fd64eb21e047a839171b9080a4600190565b905f8091602081519101845af48080612343575b156122fe5750506040513d81523d5f602083013e60203d82010160405290565b1561232357639996b31560e01b5f9081526001600160a01b0391909116600452602490fd5b3d15612334576040513d5f823e3d90fd5b63d6bda27560e01b5f5260045ffd5b503d1515806122de5750813b15156122de56fe360894a13ba1a3210667c828492db98dca3e2076cc3735a920a3ca505d382bbc02dd7bc7dec4dceedda775e58dd541e08a116c6c53815c0bd028192f7b626800f0c57e16840df040f15088dc2f81fe391c3923bec73e23a9662efc9c229c6a00a2646970667358221220a678e994dea04d6d0c3e4b365bcfd008fddc3a40b5cbcc40dc6090d9a2c784de64736f6c634300081e0033f0c57e16840df040f15088dc2f81fe391c3923bec73e23a9662efc9c229c6a00","linkReferences":{}},"methodIdentifiers":{"DEFAULT_ADMIN_ROLE()":"a217fddf","UPGRADE_INTERFACE_VERSION()":"ad3cb1cc","assetERC20Implementation()":"85f27d32","assetExists(uint256)":"518e2bdd","assetId()":"44de240a","createAsset(string,bytes32,bytes32[],(string,string)[])":"fba01f03","getAllMetadata(bytes32)":"05daf368","getAllMetadataKeys(bytes32)":"5cb0e05a","getAsset(uint256)":"eac8f5b8","getMetadata(bytes32,string)":"0e1ae91b","getMetadataCount(bytes32)":"5e597156","getRoleAdmin(bytes32)":"248a9ca3","getType(bytes32)":"7f2aeea4","getUupsImplementation()":"358410d5","grantRole(bytes32,address)":"2f2ff15d","hasMetadata(bytes32,string)":"e5e0a25d","hasRole(bytes32,address)":"91d14854","initialize(address,address,address)":"c0c53b8b","proxiableUUID()":"52d1902d","registerAsset(bytes32,string,string,uint256,address,address,(string,string)[])":"7a5782f8","removeMetadata(bytes32,string)":"26f389ba","renounceRole(bytes32,address)":"36568abe","revokeRole(bytes32,address)":"d547741f","setMetadata(bytes32,(string,string)[])":"3b41f4ea","supportsInterface(bytes4)":"01ffc9a7","upgradeToAndCall(address,bytes)":"4f1ef286","uri(bytes32)":"9ed19ddb"},"id":48}