{"abi":[{"type":"function","name":"DEFAULT_ADMIN_ROLE","inputs":[],"outputs":[{"name":"","type":"bytes32","internalType":"bytes32"}],"stateMutability":"view"},{"type":"function","name":"UPGRADE_INTERFACE_VERSION","inputs":[],"outputs":[{"name":"","type":"string","internalType":"string"}],"stateMutability":"view"},{"type":"function","name":"assetERC20Implementation","inputs":[],"outputs":[{"name":"","type":"address","internalType":"address"}],"stateMutability":"view"},{"type":"function","name":"assetExists","inputs":[{"name":"id","type":"uint256","internalType":"uint256"}],"outputs":[{"name":"","type":"bool","internalType":"bool"}],"stateMutability":"view"},{"type":"function","name":"assetId","inputs":[],"outputs":[{"name":"","type":"uint256","internalType":"uint256"}],"stateMutability":"view"},{"type":"function","name":"createAsset","inputs":[{"name":"name","type":"string","internalType":"string"},{"name":"schemaHash","type":"bytes32","internalType":"bytes32"},{"name":"requiredLeaseKeys","type":"bytes32[]","internalType":"bytes32[]"},{"name":"metadata","type":"tuple[]","internalType":"struct MetadataStorage.Metadata[]","components":[{"name":"key","type":"string","internalType":"string"},{"name":"value","type":"string","internalType":"string"}]}],"outputs":[],"stateMutability":"nonpayable"},{"type":"function","name":"getAllMetadata","inputs":[{"name":"hash","type":"bytes32","internalType":"bytes32"}],"outputs":[{"name":"metadata","type":"tuple[]","internalType":"struct MetadataStorage.Metadata[]","components":[{"name":"key","type":"string","internalType":"string"},{"name":"value","type":"string","internalType":"string"}]}],"stateMutability":"view"},{"type":"function","name":"getAllMetadataKeys","inputs":[{"name":"hash","type":"bytes32","internalType":"bytes32"}],"outputs":[{"name":"keys","type":"string[]","internalType":"string[]"}],"stateMutability":"view"},{"type":"function","name":"getAsset","inputs":[{"name":"id","type":"uint256","internalType":"uint256"}],"outputs":[{"name":"","type":"tuple","internalType":"struct AssetRegistry.Asset","components":[{"name":"schemaHash","type":"bytes32","internalType":"bytes32"},{"name":"issuer","type":"address","internalType":"address"},{"name":"tokenAddress","type":"address","internalType":"address"}]}],"stateMutability":"view"},{"type":"function","name":"getMetadata","inputs":[{"name":"hash","type":"bytes32","internalType":"bytes32"},{"name":"key","type":"string","internalType":"string"}],"outputs":[{"name":"value","type":"string","internalType":"string"}],"stateMutability":"view"},{"type":"function","name":"getMetadataCount","inputs":[{"name":"hash","type":"bytes32","internalType":"bytes32"}],"outputs":[{"name":"count","type":"uint256","internalType":"uint256"}],"stateMutability":"view"},{"type":"function","name":"getRoleAdmin","inputs":[{"name":"role","type":"bytes32","internalType":"bytes32"}],"outputs":[{"name":"","type":"bytes32","internalType":"bytes32"}],"stateMutability":"view"},{"type":"function","name":"getType","inputs":[{"name":"schemaHash","type":"bytes32","internalType":"bytes32"}],"outputs":[{"name":"","type":"tuple","internalType":"struct AssetRegistry.AssetType","components":[{"name":"name","type":"string","internalType":"string"},{"name":"requiredLeaseKeys","type":"bytes32[]","internalType":"bytes32[]"}]}],"stateMutability":"view"},{"type":"function","name":"getUupsImplementation","inputs":[],"outputs":[{"name":"","type":"address","internalType":"address"}],"stateMutability":"view"},{"type":"function","name":"grantRole","inputs":[{"name":"role","type":"bytes32","internalType":"bytes32"},{"name":"account","type":"address","internalType":"address"}],"outputs":[],"stateMutability":"nonpayable"},{"type":"function","name":"hasMetadata","inputs":[{"name":"hash","type":"bytes32","internalType":"bytes32"},{"name":"key","type":"string","internalType":"string"}],"outputs":[{"name":"exists","type":"bool","internalType":"bool"}],"stateMutability":"view"},{"type":"function","name":"hasRole","inputs":[{"name":"role","type":"bytes32","internalType":"bytes32"},{"name":"account","type":"address","internalType":"address"}],"outputs":[{"name":"","type":"bool","internalType":"bool"}],"stateMutability":"view"},{"type":"function","name":"initialize","inputs":[{"name":"admin","type":"address","internalType":"address"},{"name":"registrar","type":"address","internalType":"address"},{"name":"_assetERC20Implementation","type":"address","internalType":"address"}],"outputs":[],"stateMutability":"nonpayable"},{"type":"function","name":"proxiableUUID","inputs":[],"outputs":[{"name":"","type":"bytes32","internalType":"bytes32"}],"stateMutability":"view"},{"type":"function","name":"registerAsset","inputs":[{"name":"schemaHash","type":"bytes32","internalType":"bytes32"},{"name":"tokenName","type":"string","internalType":"string"},{"name":"tokenSymbol","type":"string","internalType":"string"},{"name":"totalSupply","type":"uint256","internalType":"uint256"},{"name":"admin","type":"address","internalType":"address"},{"name":"tokenRecipient","type":"address","internalType":"address"},{"name":"metadata","type":"tuple[]","internalType":"struct MetadataStorage.Metadata[]","components":[{"name":"key","type":"string","internalType":"string"},{"name":"value","type":"string","internalType":"string"}]}],"outputs":[{"name":"newAssetId","type":"uint256","internalType":"uint256"},{"name":"token","type":"address","internalType":"address"}],"stateMutability":"nonpayable"},{"type":"function","name":"removeMetadata","inputs":[{"name":"hash","type":"bytes32","internalType":"bytes32"},{"name":"key","type":"string","internalType":"string"}],"outputs":[],"stateMutability":"nonpayable"},{"type":"function","name":"renounceRole","inputs":[{"name":"role","type":"bytes32","internalType":"bytes32"},{"name":"callerConfirmation","type":"address","internalType":"address"}],"outputs":[],"stateMutability":"nonpayable"},{"type":"function","name":"revokeRole","inputs":[{"name":"role","type":"bytes32","internalType":"bytes32"},{"name":"account","type":"address","internalType":"address"}],"outputs":[],"stateMutability":"nonpayable"},{"type":"function","name":"setMetadata","inputs":[{"name":"hash","type":"bytes32","internalType":"bytes32"},{"name":"metadata_","type":"tuple[]","internalType":"struct MetadataStorage.Metadata[]","components":[{"name":"key","type":"string","internalType":"string"},{"name":"value","type":"string","internalType":"string"}]}],"outputs":[],"stateMutability":"nonpayable"},{"type":"function","name":"supportsInterface","inputs":[{"name":"interfaceId","type":"bytes4","internalType":"bytes4"}],"outputs":[{"name":"","type":"bool","internalType":"bool"}],"stateMutability":"view"},{"type":"function","name":"upgradeToAndCall","inputs":[{"name":"newImplementation","type":"address","internalType":"address"},{"name":"data","type":"bytes","internalType":"bytes"}],"outputs":[],"stateMutability":"payable"},{"type":"function","name":"uri","inputs":[{"name":"schemaHash","type":"bytes32","internalType":"bytes32"}],"outputs":[{"name":"","type":"string","internalType":"string"}],"stateMutability":"view"},{"type":"event","name":"AssetRegistered","inputs":[{"name":"assetId","type":"uint256","indexed":true,"internalType":"uint256"},{"name":"schemaHash","type":"bytes32","indexed":true,"internalType":"bytes32"},{"name":"tokenAddress","type":"address","indexed":false,"internalType":"address"}],"anonymous":false},{"type":"event","name":"AssetTypeCreated","inputs":[{"name":"name","type":"string","indexed":true,"internalType":"string"},{"name":"schemaHash","type":"bytes32","indexed":true,"internalType":"bytes32"},{"name":"requiredLeaseKeys","type":"bytes32[]","indexed":false,"internalType":"bytes32[]"}],"anonymous":false},{"type":"event","name":"Initialized","inputs":[{"name":"version","type":"uint64","indexed":false,"internalType":"uint64"}],"anonymous":false},{"type":"event","name":"MetadataRemoved","inputs":[{"name":"hash","type":"bytes32","indexed":true,"internalType":"bytes32"},{"name":"key","type":"string","indexed":false,"internalType":"string"}],"anonymous":false},{"type":"event","name":"MetadataUpdated","inputs":[{"name":"hash","type":"bytes32","indexed":true,"internalType":"bytes32"},{"name":"key","type":"string","indexed":false,"internalType":"string"},{"name":"value","type":"string","indexed":false,"internalType":"string"}],"anonymous":false},{"type":"event","name":"RoleAdminChanged","inputs":[{"name":"role","type":"bytes32","indexed":true,"internalType":"bytes32"},{"name":"previousAdminRole","type":"bytes32","indexed":true,"internalType":"bytes32"},{"name":"newAdminRole","type":"bytes32","indexed":true,"internalType":"bytes32"}],"anonymous":false},{"type":"event","name":"RoleGranted","inputs":[{"name":"role","type":"bytes32","indexed":true,"internalType":"bytes32"},{"name":"account","type":"address","indexed":true,"internalType":"address"},{"name":"sender","type":"address","indexed":true,"internalType":"address"}],"anonymous":false},{"type":"event","name":"RoleRevoked","inputs":[{"name":"role","type":"bytes32","indexed":true,"internalType":"bytes32"},{"name":"account","type":"address","indexed":true,"internalType":"address"},{"name":"sender","type":"address","indexed":true,"internalType":"address"}],"anonymous":false},{"type":"event","name":"Upgraded","inputs":[{"name":"implementation","type":"address","indexed":true,"internalType":"address"}],"anonymous":false},{"type":"error","name":"AccessControlBadConfirmation","inputs":[]},{"type":"error","name":"AccessControlUnauthorizedAccount","inputs":[{"name":"account","type":"address","internalType":"address"},{"name":"neededRole","type":"bytes32","internalType":"bytes32"}]},{"type":"error","name":"AddressEmptyCode","inputs":[{"name":"target","type":"address","internalType":"address"}]},{"type":"error","name":"ERC1967InvalidImplementation","inputs":[{"name":"implementation","type":"address","internalType":"address"}]},{"type":"error","name":"ERC1967NonPayable","inputs":[]},{"type":"error","name":"FailedCall","inputs":[]},{"type":"error","name":"FailedDeployment","inputs":[]},{"type":"error","name":"InsufficientBalance","inputs":[{"name":"balance","type":"uint256","internalType":"uint256"},{"name":"needed","type":"uint256","internalType":"uint256"}]},{"type":"error","name":"InvalidInitialization","inputs":[]},{"type":"error","name":"NotInitializing","inputs":[]},{"type":"error","name":"UUPSUnauthorizedCallContext","inputs":[]},{"type":"error","name":"UUPSUnsupportedProxiableUUID","inputs":[{"name":"slot","type":"bytes32","internalType":"bytes32"}]}],"bytecode":{"object":"0x60a080604052346100c257306080525f51602061319d5f395f51905f525460ff8160401c166100b3576002600160401b03196001600160401b03821601610060575b6040516130d690816100c782396080518181816113ae01526115160152f35b6001600160401b0319166001600160401b039081175f51602061319d5f395f51905f525581527fc7f505b2f371ae2175ee4913f4499e1f2633a7b5936321eed1cdaeb6115181d290602090a15f80610041565b63f92ee8a960e01b5f5260045ffd5b5f80fdfe6080806040526004361015610012575f80fd5b5f905f3560e01c90816301ffc9a7146121f85750806305daf36814611f8c5780630e1ae91b14611f02578063248a9ca314611e9257806326f389ba14611ba05780632f2ff15d14611b25578063358410d514611ab557806336568abe14611a2d5780633b41f4ea1461185357806344de240a146118185780634f1ef2861461149b578063518e2bdd1461142657806352d1902d146113695780635cb0e05a146112525780635e5971561461120a5780637a5782f814610c715780637f2aeea414610b3357806385f27d3214610ae157806391d1485414610a4c5780639ed19ddb146109fa578063a217fddf146109c0578063ad3cb1cc1461093d578063c0c53b8b146106c3578063d547741f1461063e578063e5e0a25d146105fa578063eac8f5b8146105485763fba01f0314610147575f80fd5b346105455760807ffffffffffffffffffffffffffffffffffffffffffffffffffffffffffffffffc3601126105455760043567ffffffffffffffff8111610543576101969036906004016123f2565b916024359060443567ffffffffffffffff8111610543576101bb90369060040161258d565b9060643567ffffffffffffffff811161053f576101dc90369060040161258d565b92906101e6612ae6565b604051936101f3856122f7565b6101fe368a8a612370565b8552610209836124b8565b610216604051918261232f565b838152600584901b958587016020830136821161053b5787905b82821061052b5750505080602060019201928352898952600460205261025b60408a209151826128f3565b0190519081519167ffffffffffffffff831161044157680100000000000000008311610441578154838355808410610505575b5060200190885260208820885b8381106104f15750505050906102b29136916124d0565b966102bb612ae6565b845b885181101561046e578686528560205285610349886020808d61032a87604061030d8580838c206102ee868961270a565b5151908551938285935191829101845e82019081520301902054612619565b15988561031a848761270a565b510151978152808652209261270a565b515190604051938285935191829101845e8201908152030190206128f3565b6103c0575b80877fc42c4edbc41dce02b01dd098a1f7a4c685c638d7a2fdfbe449b32e1f89fbfae16103a98c6103b760206103928761038a60019a8661270a565b51519461270a565b5101516040519384936040855260408501906122b4565b9083820360208501526122b4565b0390a2016102bd565b8686526001602052604086206103d6828b61270a565b5151908054906801000000000000000082101561044157906103fd916001820181556125d7565b610415576001929161040e916128f3565b905061034e565b6024887f4e487b7100000000000000000000000000000000000000000000000000000000815280600452fd5b6024897f4e487b710000000000000000000000000000000000000000000000000000000081526041600452fd5b50869594958160405192839283378101878152039020927f07ffffffffffffffffffffffffffffffffffffffffffffffffffffffffffffff6040519260208452806020850152116104ed5781816040927fb465a381bc5b7c249b2d273580b13753c505208f430da9624481dc3a9d9133bc95848401378101030190a380f35b8580fd5b60019060208451940193818401550161029b565b828a528360208b2091820191015b818110610520575061028e565b8a8155600101610513565b8135815260209182019101610230565b8980fd5b8380fd5b505b80fd5b50346105455760207ffffffffffffffffffffffffffffffffffffffffffffffffffffffffffffffffc3601126105455760408160609282805161058a81612313565b8281528260208201520152600435815260056020522073ffffffffffffffffffffffffffffffffffffffff6040516105c181612313565b81835493848352604082600281600185015416936020870194855201541693019283526040519485525116602084015251166040820152f35b50346105455761063460406020809361061236612420565b9491839193528084522083604051948593843782019081520301902054612619565b1515604051908152f35b50346105455760407ffffffffffffffffffffffffffffffffffffffffffffffffffffffffffffffffc360112610545576106bf60043561067c612472565b906106ba6106b5825f527f02dd7bc7dec4dceedda775e58dd541e08a116c6c53815c0bd028192f7b626800602052600160405f20015490565b612b4e565b612ed1565b5080f35b50346105455760607ffffffffffffffffffffffffffffffffffffffffffffffffffffffffffffffffc360112610545576106fb612495565b610703612472565b6044359173ffffffffffffffffffffffffffffffffffffffff831680930361053f577ff0c57e16840df040f15088dc2f81fe391c3923bec73e23a9662efc9c229c6a00549260ff8460401c16159367ffffffffffffffff811680159081610935575b600114908161092b575b159081610922575b506108fa579161080391838660017fffffffffffffffffffffffffffffffffffffffffffffffff0000000000000000610809989716177ff0c57e16840df040f15088dc2f81fe391c3923bec73e23a9662efc9c229c6a00556108a5575b507fffffffffffffffffffffffff00000000000000000000000000000000000000006003541617600355612bd4565b50612cbb565b506108115780f35b7fffffffffffffffffffffffffffffffffffffffffffffff00ffffffffffffffff7ff0c57e16840df040f15088dc2f81fe391c3923bec73e23a9662efc9c229c6a0054167ff0c57e16840df040f15088dc2f81fe391c3923bec73e23a9662efc9c229c6a00557fc7f505b2f371ae2175ee4913f4499e1f2633a7b5936321eed1cdaeb6115181d2602060405160018152a180f35b7fffffffffffffffffffffffffffffffffffffffffffffff0000000000000000001668010000000000000001177ff0c57e16840df040f15088dc2f81fe391c3923bec73e23a9662efc9c229c6a00555f6107d4565b6004867ff92ee8a9000000000000000000000000000000000000000000000000000000008152fd5b9050155f610777565b303b15915061076f565b869150610765565b503461054557807ffffffffffffffffffffffffffffffffffffffffffffffffffffffffffffffffc36011261054557506109bc60405161097e60408261232f565b600581527f352e302e3000000000000000000000000000000000000000000000000000000060208201526040519182916020835260208301906122b4565b0390f35b503461054557807ffffffffffffffffffffffffffffffffffffffffffffffffffffffffffffffffc36011261054557602090604051908152f35b50346105455760207ffffffffffffffffffffffffffffffffffffffffffffffffffffffffffffffffc360112610545576109bc610a38600435612a57565b6040519182916020835260208301906122b4565b50346105455760407ffffffffffffffffffffffffffffffffffffffffffffffffffffffffffffffffc3601126105455773ffffffffffffffffffffffffffffffffffffffff6040610a9b612472565b9260043581527f02dd7bc7dec4dceedda775e58dd541e08a116c6c53815c0bd028192f7b6268006020522091165f52602052602060ff60405f2054166040519015158152f35b503461054557807ffffffffffffffffffffffffffffffffffffffffffffffffffffffffffffffffc36011261054557602073ffffffffffffffffffffffffffffffffffffffff60035416604051908152f35b50346105455760207ffffffffffffffffffffffffffffffffffffffffffffffffffffffffffffffffc36011261054557610b6b6125be565b506004358152600460205260408120600160405191610b89836122f7565b604051610ba181610b9a818561266a565b038261232f565b8352019160405190816020855491828152019482526020822090825b818110610c5b57505050610bd682610bf995038361232f565b6020830191825260405193849360208552516040602086015260608501906122b4565b9151917fffffffffffffffffffffffffffffffffffffffffffffffffffffffffffffffe0848203016040850152602080845192838152019301915b818110610c42575050500390f35b8251845285945060209384019390920191600101610c34565b8254875260209096019560019283019201610bbd565b50346111035760e07ffffffffffffffffffffffffffffffffffffffffffffffffffffffffffffffffc360112611103576004359060243567ffffffffffffffff811161110357610cc59036906004016123f2565b9260443567ffffffffffffffff811161110357610ce69036906004016123f2565b9290936084359173ffffffffffffffffffffffffffffffffffffffff83168093036111035760a4359273ffffffffffffffffffffffffffffffffffffffff84168094036111035760c43567ffffffffffffffff811161110357610d4d90369060040161258d565b335f9081527f07966f2ab141347034724e9b2a472c2f77f5cd745aeba27cacba797b8fcb70866020526040902054919390929160ff16156111ba57865f526004602052610d9d60405f2054612619565b1561115c576002547fffffffffffffffffffffffffffffffffffffffffffffffffffffffffffffffff811461112f5760010198896002556e5af43d82803e903d91602b57fd5bf37fffffffffffffffffffffffffffffffffff000000000000000000000000000000600354763d602d80600a3d3981f3363d3d373d3d3d363d7300000062ffffff8260881c16175f5260781b161760205273ffffffffffffffffffffffffffffffffffffffff603760095ff01698891561110757893b156111035790610ed591610ea560409d9795949d519d8e987f3006727d000000000000000000000000000000000000000000000000000000008a5260e060048b015260e48a01916128b5565b917ffffffffffffffffffffffffffffffffffffffffffffffffffffffffffffffffc8884030160248901526128b5565b90606435604486015289606486015260848501528560a48501527ffffffffffffffffffffffffffffffffffffffffffffffffffffffffffffffffc8482030160c4850152828152602081019260208160051b83010193835f917fffffffffffffffffffffffffffffffffffffffffffffffffffffffffffffffc182360301945b848410611074575050505050505090805f92038183885af195861561106957604096611055575b50600273ffffffffffffffffffffffffffffffffffffffff809281895195610fa387612313565b878752602087019081528a808801938a85528b8152600560205220965187555116826001870191167fffffffffffffffffffffffff00000000000000000000000000000000000000008254161790555116920191167fffffffffffffffffffffffff0000000000000000000000000000000000000000825416179055827f2aa9c4e6dfc93d089f25ff3356df5305b7977f768884056b3bf4c0361e2ab2ac60208651858152a382519182526020820152f35b61106191505f9061232f565b5f6002610f7c565b6040513d5f823e3d90fd5b91939597509193957fffffffffffffffffffffffffffffffffffffffffffffffffffffffffffffffe08282030183528735878112156111035760206110ef60019387839401906110e26110d86110ca8480612a07565b6040855260408501916128b5565b9285810190612a07565b91858185039101526128b5565b99019301940191949290938d979694610f55565b5f80fd5b7fb06ebf3d000000000000000000000000000000000000000000000000000000005f5260045ffd5b7f4e487b71000000000000000000000000000000000000000000000000000000005f52601160045260245ffd5b60646040517f08c379a000000000000000000000000000000000000000000000000000000000815260206004820152600c60248201527f74797065202165786973747300000000000000000000000000000000000000006044820152fd5b7fe2517d3f000000000000000000000000000000000000000000000000000000005f52336004527fedcc084d3dcd65a1f7f23c65c46722faca6953d28e43150a467cf43e5c30923860245260445ffd5b346111035760207ffffffffffffffffffffffffffffffffffffffffffffffffffffffffffffffffc360112611103576004355f526001602052602060405f2054604051908152f35b346111035760207ffffffffffffffffffffffffffffffffffffffffffffffffffffffffffffffffc360112611103576004355f52600160205260405f2080549061129b826124b8565b916112a9604051938461232f565b8083526020830180925f5260205f205f915b83831061134457848660405191829160208301906020845251809152604083019060408160051b85010192915f905b8282106112f957505050500390f35b91936020611334827fffffffffffffffffffffffffffffffffffffffffffffffffffffffffffffffc0600195979984950301865288516122b4565b96019201920185949391926112ea565b60016020819260405161135b81610b9a818961266a565b8152019201920191906112bb565b34611103575f7ffffffffffffffffffffffffffffffffffffffffffffffffffffffffffffffffc3601126111035773ffffffffffffffffffffffffffffffffffffffff7f00000000000000000000000000000000000000000000000000000000000000001630036113fe5760206040517f360894a13ba1a3210667c828492db98dca3e2076cc3735a920a3ca505d382bbc8152f35b7fe07c8dba000000000000000000000000000000000000000000000000000000005f5260045ffd5b346111035760207ffffffffffffffffffffffffffffffffffffffffffffffffffffffffffffffffc360112611103576004355f9081526005602052604090206002015473ffffffffffffffffffffffffffffffffffffffff161561149357602060015b6040519015158152f35b60205f611489565b60407ffffffffffffffffffffffffffffffffffffffffffffffffffffffffffffffffc360112611103576114cd612495565b60243567ffffffffffffffff81116111035736602382011215611103576114fe903690602481600401359101612370565b9073ffffffffffffffffffffffffffffffffffffffff7f0000000000000000000000000000000000000000000000000000000000000000168030149081156117d6575b506113fe57335f9081527fab71e3f32666744d246edff3f96e4bdafee2e9867098cdd118a979a7464786a8602052604090205460ff16156117865773ffffffffffffffffffffffffffffffffffffffff8116916040517f52d1902d000000000000000000000000000000000000000000000000000000008152602081600481875afa5f9181611752575b506115fc57837f4c9c8ce3000000000000000000000000000000000000000000000000000000005f5260045260245ffd5b807f360894a13ba1a3210667c828492db98dca3e2076cc3735a920a3ca505d382bbc8592036117275750823b156116fc57807fffffffffffffffffffffffff00000000000000000000000000000000000000007f360894a13ba1a3210667c828492db98dca3e2076cc3735a920a3ca505d382bbc5416177f360894a13ba1a3210667c828492db98dca3e2076cc3735a920a3ca505d382bbc557fbc7cd75a20ee27fd9adebab32041f755214dbc6bffa90cc0225b39da2e5c2d3b5f80a28051156116cb576116c991612fd9565b005b5050346116d457005b7fb398979f000000000000000000000000000000000000000000000000000000005f5260045ffd5b7f4c9c8ce3000000000000000000000000000000000000000000000000000000005f5260045260245ffd5b7faa1d49a4000000000000000000000000000000000000000000000000000000005f5260045260245ffd5b9091506020813d60201161177e575b8161176e6020938361232f565b81010312611103575190856115cb565b3d9150611761565b7fe2517d3f000000000000000000000000000000000000000000000000000000005f52336004527f189ab7a9244df0848122154315af71fe140f3db0fe014031783b0946b8c9d2e360245260445ffd5b905073ffffffffffffffffffffffffffffffffffffffff7f360894a13ba1a3210667c828492db98dca3e2076cc3735a920a3ca505d382bbc5416141583611541565b34611103575f7ffffffffffffffffffffffffffffffffffffffffffffffffffffffffffffffffc360112611103576020600254604051908152f35b346111035760407ffffffffffffffffffffffffffffffffffffffffffffffffffffffffffffffffc3601126111035760043560243567ffffffffffffffff81116111035736602382011215611103576118b69036906024816004013591016124d0565b906118bf612ae6565b5f5b82518110156116c957815f525f60205261190560208060405f206118e5858861270a565b515190604051938285935191829101845e82019081520301902054612619565b156119306020611915848761270a565b510151845f525f60205260208060405f2061032a878a61270a565b611981575b80827fc42c4edbc41dce02b01dd098a1f7a4c685c638d7a2fdfbe449b32e1f89fbfae16103a96119676001958861270a565b51516119786020610392878b61270a565b0390a2016118c1565b815f52600160205260405f2090611998818561270a565b515191805468010000000000000000811015611a00576119bd916001820181556125d7565b6119d4576001926119cd916128f3565b9050611935565b7f4e487b71000000000000000000000000000000000000000000000000000000005f525f60045260245ffd5b7f4e487b71000000000000000000000000000000000000000000000000000000005f52604160045260245ffd5b346111035760407ffffffffffffffffffffffffffffffffffffffffffffffffffffffffffffffffc36011261110357611a64612472565b3373ffffffffffffffffffffffffffffffffffffffff821603611a8d576116c990600435612ed1565b7f6697b232000000000000000000000000000000000000000000000000000000005f5260045ffd5b34611103575f7ffffffffffffffffffffffffffffffffffffffffffffffffffffffffffffffffc36011261110357602073ffffffffffffffffffffffffffffffffffffffff7f360894a13ba1a3210667c828492db98dca3e2076cc3735a920a3ca505d382bbc5416604051908152f35b346111035760407ffffffffffffffffffffffffffffffffffffffffffffffffffffffffffffffffc360112611103576116c9600435611b62612472565b90611b9b6106b5825f527f02dd7bc7dec4dceedda775e58dd541e08a116c6c53815c0bd028192f7b626800602052600160405f20015490565b612dbf565b3461110357611bae36612420565b90611bb7612ae6565b825f525f602052611be060405f2060206040518092868683378682019081520301902054612619565b15611e3457825f525f60205260405f20602060405180928585833785820190815203019020611c0f8154612619565b9081611df1575b5050825f52600160205260405f20905f5b825480821015611dc657610b9a611c4e611c4184876125d7565b506040519283809261266a565b60208151910120611c60368786612370565b6020815191012014611c755750600101611c27565b7fffffffffffffffffffffffffffffffffffffffffffffffffffffffffffffffff81959394950190811161112f57611cb0611cb891866125d7565b5091856125d7565b9190916119d457611cc891612779565b82548015611d99577fffffffffffffffffffffffffffffffffffffffffffffffffffffffffffffffff01611cfc81856125d7565b9490946119d45784611d2f7fca45c60cf1bbd58b2ac673da0d008eb3606c36e814e8d7fe0df3a3e53ecc59b79654612619565b9081611d56575b5050555b611d516040519283926020845260208401916128b5565b0390a2005b81601f5f9311600114611d6d5750555b8680611d36565b81835260208320611d8991601f0160051c81019060010161271e565b8082528160208120915555611d66565b7f4e487b71000000000000000000000000000000000000000000000000000000005f52603160045260245ffd5b505090507fca45c60cf1bbd58b2ac673da0d008eb3606c36e814e8d7fe0df3a3e53ecc59b791611d3a565b81601f5f9311600114611e085750555b8380611c16565b81835260208320611e2491601f0160051c81019060010161271e565b8082528160208120915555611e01565b60646040517f08c379a000000000000000000000000000000000000000000000000000000000815260206004820152601260248201527f4b657920646f6573206e6f7420657869737400000000000000000000000000006044820152fd5b346111035760207ffffffffffffffffffffffffffffffffffffffffffffffffffffffffffffffffc360112611103576020611efa6004355f527f02dd7bc7dec4dceedda775e58dd541e08a116c6c53815c0bd028192f7b626800602052600160405f20015490565b604051908152f35b346111035760407ffffffffffffffffffffffffffffffffffffffffffffffffffffffffffffffffc3601126111035760243567ffffffffffffffff811161110357610b9a610a38602080611f5d6109bc9536906004016123d4565b6004355f525f825260405f20604051938285935191829101845e8201908152030190206040519283809261266a565b346111035760207ffffffffffffffffffffffffffffffffffffffffffffffffffffffffffffffffc36011261110357600435805f52600160205260405f208054611fd5816124b8565b92611fe3604051948561232f565b8184527fffffffffffffffffffffffffffffffffffffffffffffffffffffffffffffffe0612010836124b8565b015f5b8181106121e15750505f5b8281106120c857846040518091602082016020835281518091526040830190602060408260051b8601019301915f905b82821061205d57505050500390f35b919360206120b8827fffffffffffffffffffffffffffffffffffffffffffffffffffffffffffffffc06001959799849503018652885190836120a883516040845260408401906122b4565b92015190848184039101526122b4565b960192019201859493919261204e565b6120d281856125d7565b50825f525f60205260405f206120e883876125d7565b50604051915f918054906120fb82612619565b91600181169081156121ab5750600114612176575b505082602060019695948461215594610b9a965203019020610b9a6121476040519561213b876122f7565b6040519283809261266a565b84526040519283809261266a565b6020820152612164828861270a565b5261216f818761270a565b500161201e565b909192505f5260205f205f905b828210612197575050820190826020612110565b600181602092548488015201910190612183565b7fffffffffffffffffffffffffffffffffffffffffffffffffffffffffffffff0016865250508015150283019150826020612110565b6020906121ec6125be565b82828901015201612013565b346111035760207ffffffffffffffffffffffffffffffffffffffffffffffffffffffffffffffffc36011261110357600435907fffffffff00000000000000000000000000000000000000000000000000000000821680920361110357817f7965db0b000000000000000000000000000000000000000000000000000000006020931490811561228a575b5015158152f35b7f01ffc9a70000000000000000000000000000000000000000000000000000000091501483612283565b907fffffffffffffffffffffffffffffffffffffffffffffffffffffffffffffffe0601f602080948051918291828752018686015e5f8582860101520116010190565b6040810190811067ffffffffffffffff821117611a0057604052565b6060810190811067ffffffffffffffff821117611a0057604052565b90601f7fffffffffffffffffffffffffffffffffffffffffffffffffffffffffffffffe0910116810190811067ffffffffffffffff821117611a0057604052565b92919267ffffffffffffffff8211611a0057604051916123b8601f82017fffffffffffffffffffffffffffffffffffffffffffffffffffffffffffffffe0166020018461232f565b829481845281830111611103578281602093845f960137010152565b9080601f83011215611103578160206123ef93359101612370565b90565b9181601f840112156111035782359167ffffffffffffffff8311611103576020838186019501011161110357565b9060407ffffffffffffffffffffffffffffffffffffffffffffffffffffffffffffffffc83011261110357600435916024359067ffffffffffffffff82116111035761246e916004016123f2565b9091565b6024359073ffffffffffffffffffffffffffffffffffffffff8216820361110357565b6004359073ffffffffffffffffffffffffffffffffffffffff8216820361110357565b67ffffffffffffffff8111611a005760051b60200190565b929190926124dd846124b8565b936124eb604051958661232f565b602085828152019060051b8201918383116111035780915b838310612511575050505050565b823567ffffffffffffffff8111611103578201604081870312611103576040519161253b836122f7565b813567ffffffffffffffff811161110357876125589184016123d4565b835260208201359267ffffffffffffffff84116111035761257e886020958695016123d4565b83820152815201920191612503565b9181601f840112156111035782359167ffffffffffffffff8311611103576020808501948460051b01011161110357565b604051906125cb826122f7565b60606020838281520152565b80548210156125ec575f5260205f2001905f90565b7f4e487b71000000000000000000000000000000000000000000000000000000005f52603260045260245ffd5b90600182811c92168015612660575b602083101461263357565b7f4e487b71000000000000000000000000000000000000000000000000000000005f52602260045260245ffd5b91607f1691612628565b5f929181549161267983612619565b80835292600181169081156126ce575060011461269557505050565b5f9081526020812093945091925b8383106126b4575060209250010190565b6001816020929493945483858701015201910191906126a3565b905060209495507fffffffffffffffffffffffffffffffffffffffffffffffffffffffffffffff0091509291921683830152151560051b010190565b80518210156125ec5760209160051b010190565b818110612729575050565b5f815560010161271e565b9190601f811161274357505050565b61276d925f5260205f20906020601f840160051c8301931061276f575b601f0160051c019061271e565b565b9091508190612760565b9190918281146128b05761278d8354612619565b67ffffffffffffffff8111611a00576127b0816127aa8454612619565b84612734565b5f93601f821160011461280d576127fe92939482915f92612802575b50507fffffffffffffffffffffffffffffffffffffffffffffffffffffffffffffffff8260011b9260031b1c19161790565b9055565b015490505f806127cc565b7fffffffffffffffffffffffffffffffffffffffffffffffffffffffffffffffe08216905f5260205f2094835f5260205f20915f5b81811061289857509583600195969710612861575b505050811b019055565b01547fffffffffffffffffffffffffffffffffffffffffffffffffffffffffffffffff60f88460031b161c191690555f8080612857565b9192600180602092868b015481550194019201612842565b509050565b601f82602094937fffffffffffffffffffffffffffffffffffffffffffffffffffffffffffffffe093818652868601375f8582860101520116010190565b919091825167ffffffffffffffff8111611a0057612915816127aa8454612619565b6020601f821160011461296d5781906127fe9394955f926129625750507fffffffffffffffffffffffffffffffffffffffffffffffffffffffffffffffff8260011b9260031b1c19161790565b015190505f806127cc565b7fffffffffffffffffffffffffffffffffffffffffffffffffffffffffffffffe0821690835f52805f20915f5b8181106129ef575095836001959697106129b857505050811b019055565b01517fffffffffffffffffffffffffffffffffffffffffffffffffffffffffffffffff60f88460031b161c191690555f8080612857565b9192602060018192868b01518155019401920161299a565b90357fffffffffffffffffffffffffffffffffffffffffffffffffffffffffffffffe18236030181121561110357016020813591019167ffffffffffffffff821161110357813603831361110357565b612ac090612ac760409160208351612a6f858261232f565b60038152818101927f757269000000000000000000000000000000000000000000000000000000000084525f525f8252845f208551938492518091845e82019081520301902082519384809261266a565b038361232f565b815115612ad2575090565b905051612ae060208261232f565b5f815290565b335f9081527fb7db2dd08fcb62d0c9e08c51941cae53c267786a0b75803fb7960902fc8ef97d602052604090205460ff1615612b1e57565b7fe2517d3f000000000000000000000000000000000000000000000000000000005f52336004525f60245260445ffd5b805f527f02dd7bc7dec4dceedda775e58dd541e08a116c6c53815c0bd028192f7b62680060205260405f2073ffffffffffffffffffffffffffffffffffffffff33165f5260205260ff60405f20541615612ba55750565b7fe2517d3f000000000000000000000000000000000000000000000000000000005f523360045260245260445ffd5b73ffffffffffffffffffffffffffffffffffffffff81165f9081527fb7db2dd08fcb62d0c9e08c51941cae53c267786a0b75803fb7960902fc8ef97d602052604090205460ff16612cb65773ffffffffffffffffffffffffffffffffffffffff165f8181527fb7db2dd08fcb62d0c9e08c51941cae53c267786a0b75803fb7960902fc8ef97d6020526040812080547fffffffffffffffffffffffffffffffffffffffffffffffffffffffffffffff001660011790553391907f2f8788117e7eff1d82e926ec794901d17c78024a50270940304540a733656f0d8180a4600190565b505f90565b73ffffffffffffffffffffffffffffffffffffffff81165f9081527f07966f2ab141347034724e9b2a472c2f77f5cd745aeba27cacba797b8fcb7086602052604090205460ff16612cb65773ffffffffffffffffffffffffffffffffffffffff165f8181527f07966f2ab141347034724e9b2a472c2f77f5cd745aeba27cacba797b8fcb70866020526040812080547fffffffffffffffffffffffffffffffffffffffffffffffffffffffffffffff001660011790553391907fedcc084d3dcd65a1f7f23c65c46722faca6953d28e43150a467cf43e5c309238907f2f8788117e7eff1d82e926ec794901d17c78024a50270940304540a733656f0d9080a4600190565b805f527f02dd7bc7dec4dceedda775e58dd541e08a116c6c53815c0bd028192f7b62680060205260405f2073ffffffffffffffffffffffffffffffffffffffff83165f5260205260ff60405f205416155f14612ecb57805f527f02dd7bc7dec4dceedda775e58dd541e08a116c6c53815c0bd028192f7b62680060205260405f2073ffffffffffffffffffffffffffffffffffffffff83165f5260205260405f2060017fffffffffffffffffffffffffffffffffffffffffffffffffffffffffffffff0082541617905573ffffffffffffffffffffffffffffffffffffffff339216907f2f8788117e7eff1d82e926ec794901d17c78024a50270940304540a733656f0d5f80a4600190565b50505f90565b805f527f02dd7bc7dec4dceedda775e58dd541e08a116c6c53815c0bd028192f7b62680060205260405f2073ffffffffffffffffffffffffffffffffffffffff83165f5260205260ff60405f2054165f14612ecb57805f527f02dd7bc7dec4dceedda775e58dd541e08a116c6c53815c0bd028192f7b62680060205260405f2073ffffffffffffffffffffffffffffffffffffffff83165f5260205260405f207fffffffffffffffffffffffffffffffffffffffffffffffffffffffffffffff00815416905573ffffffffffffffffffffffffffffffffffffffff339216907ff6391f5c32d9c69d2a47ea670b442974b53935d1edc7fd64eb21e047a839171b5f80a4600190565b905f8091602081519101845af4808061308d575b1561300d5750506040513d81523d5f602083013e60203d82010160405290565b156130545773ffffffffffffffffffffffffffffffffffffffff907f9996b315000000000000000000000000000000000000000000000000000000005f521660045260245ffd5b3d15613065576040513d5f823e3d90fd5b7fd6bda275000000000000000000000000000000000000000000000000000000005f5260045ffd5b503d151580612fed5750813b1515612fed56fea2646970667358221220f39eb18c046ae39908735797c13b29e06936f13b25748100772f32534ec4b47364736f6c634300081e0033f0c57e16840df040f15088dc2f81fe391c3923bec73e23a9662efc9c229c6a00","linkReferences":{}},"methodIdentifiers":{"DEFAULT_ADMIN_ROLE()":"a217fddf","UPGRADE_INTERFACE_VERSION()":"ad3cb1cc","assetERC20Implementation()":"85f27d32","assetExists(uint256)":"518e2bdd","assetId()":"44de240a","createAsset(string,bytes32,bytes32[],(string,string)[])":"fba01f03","getAllMetadata(bytes32)":"05daf368","getAllMetadataKeys(bytes32)":"5cb0e05a","getAsset(uint256)":"eac8f5b8","getMetadata(bytes32,string)":"0e1ae91b","getMetadataCount(bytes32)":"5e597156","getRoleAdmin(bytes32)":"248a9ca3","getType(bytes32)":"7f2aeea4","getUupsImplementation()":"358410d5","grantRole(bytes32,address)":"2f2ff15d","hasMetadata(bytes32,string)":"e5e0a25d","hasRole(bytes32,address)":"91d14854","initialize(address,address,address)":"c0c53b8b","proxiableUUID()":"52d1902d","registerAsset(bytes32,string,string,uint256,address,address,(string,string)[])":"7a5782f8","removeMetadata(bytes32,string)":"26f389ba","renounceRole(bytes32,address)":"36568abe","revokeRole(bytes32,address)":"d547741f","setMetadata(bytes32,(string,string)[])":"3b41f4ea","supportsInterface(bytes4)":"01ffc9a7","upgradeToAndCall(address,bytes)":"4f1ef286","uri(bytes32)":"9ed19ddb"},"storageLayout":{"storage":[{"astId":61653,"contract":"src/AssetRegistry.sol:AssetRegistry","label":"_metadata","offset":0,"slot":"0","type":"t_mapping(t_bytes32,t_mapping(t_string_memory_ptr,t_string_storage))"},{"astId":61659,"contract":"src/AssetRegistry.sol:AssetRegistry","label":"_metadataKeys","offset":0,"slot":"1","type":"t_mapping(t_bytes32,t_array(t_string_storage)dyn_storage)"},{"astId":59817,"contract":"src/AssetRegistry.sol:AssetRegistry","label":"assetId","offset":0,"slot":"2","type":"t_uint256"},{"astId":59820,"contract":"src/AssetRegistry.sol:AssetRegistry","label":"assetERC20Implementation","offset":0,"slot":"3","type":"t_address"},{"astId":59826,"contract":"src/AssetRegistry.sol:AssetRegistry","label":"_assetTypes","offset":0,"slot":"4","type":"t_mapping(t_bytes32,t_struct(AssetType)59806_storage)"},{"astId":59832,"contract":"src/AssetRegistry.sol:AssetRegistry","label":"_assets","offset":0,"slot":"5","type":"t_mapping(t_uint256,t_struct(Asset)59814_storage)"}],"types":{"t_address":{"encoding":"inplace","label":"address","numberOfBytes":"20"},"t_array(t_bytes32)dyn_storage":{"encoding":"dynamic_array","label":"bytes32[]","numberOfBytes":"32","base":"t_bytes32"},"t_array(t_string_storage)dyn_storage":{"encoding":"dynamic_array","label":"string[]","numberOfBytes":"32","base":"t_string_storage"},"t_bytes32":{"encoding":"inplace","label":"bytes32","numberOfBytes":"32"},"t_mapping(t_bytes32,t_array(t_string_storage)dyn_storage)":{"encoding":"mapping","key":"t_bytes32","label":"mapping(bytes32 => string[])","numberOfBytes":"32","value":"t_array(t_string_storage)dyn_storage"},"t_mapping(t_bytes32,t_mapping(t_string_memory_ptr,t_string_storage))":{"encoding":"mapping","key":"t_bytes32","label":"mapping(bytes32 => mapping(string => string))","numberOfBytes":"32","value":"t_mapping(t_string_memory_ptr,t_string_storage)"},"t_mapping(t_bytes32,t_struct(AssetType)59806_storage)":{"encoding":"mapping","key":"t_bytes32","label":"mapping(bytes32 => struct AssetRegistry.AssetType)","numberOfBytes":"32","value":"t_struct(AssetType)59806_storage"},"t_mapping(t_string_memory_ptr,t_string_storage)":{"encoding":"mapping","key":"t_string_memory_ptr","label":"mapping(string => string)","numberOfBytes":"32","value":"t_string_storage"},"t_mapping(t_uint256,t_struct(Asset)59814_storage)":{"encoding":"mapping","key":"t_uint256","label":"mapping(uint256 => struct AssetRegistry.Asset)","numberOfBytes":"32","value":"t_struct(Asset)59814_storage"},"t_string_memory_ptr":{"encoding":"bytes","label":"string","numberOfBytes":"32"},"t_string_storage":{"encoding":"bytes","label":"string","numberOfBytes":"32"},"t_struct(Asset)59814_storage":{"encoding":"inplace","label":"struct AssetRegistry.Asset","numberOfBytes":"96","members":[{"astId":59809,"contract":"src/AssetRegistry.sol:AssetRegistry","label":"schemaHash","offset":0,"slot":"0","type":"t_bytes32"},{"astId":59811,"contract":"src/AssetRegistry.sol:AssetRegistry","label":"issuer","offset":0,"slot":"1","type":"t_address"},{"astId":59813,"contract":"src/AssetRegistry.sol:AssetRegistry","label":"tokenAddress","offset":0,"slot":"2","type":"t_address"}]},"t_struct(AssetType)59806_storage":{"encoding":"inplace","label":"struct AssetRegistry.AssetType","numberOfBytes":"64","members":[{"astId":59802,"contract":"src/AssetRegistry.sol:AssetRegistry","label":"name","offset":0,"slot":"0","type":"t_string_storage"},{"astId":59805,"contract":"src/AssetRegistry.sol:AssetRegistry","label":"requiredLeaseKeys","offset":0,"slot":"1","type":"t_array(t_bytes32)dyn_storage"}]},"t_uint256":{"encoding":"inplace","label":"uint256","numberOfBytes":"32"}}},"id":82}