{"abi":[{"type":"constructor","inputs":[{"name":"name_","type":"string","internalType":"string"},{"name":"symbol_","type":"string","internalType":"string"},{"name":"assetId_","type":"uint256","internalType":"uint256"},{"name":"admin","type":"address","internalType":"address"},{"name":"initialOwner","type":"address","internalType":"address"},{"name":"totalSupply","type":"uint256","internalType":"uint256"}],"stateMutability":"nonpayable"},{"type":"function","name":"CLOCK_MODE","inputs":[],"outputs":[{"name":"","type":"string","internalType":"string"}],"stateMutability":"view"},{"type":"function","name":"DEFAULT_ADMIN_ROLE","inputs":[],"outputs":[{"name":"","type":"bytes32","internalType":"bytes32"}],"stateMutability":"view"},{"type":"function","name":"MINTER_ROLE","inputs":[],"outputs":[{"name":"","type":"bytes32","internalType":"bytes32"}],"stateMutability":"view"},{"type":"function","name":"SNAPSHOT_ROLE","inputs":[],"outputs":[{"name":"","type":"bytes32","internalType":"bytes32"}],"stateMutability":"view"},{"type":"function","name":"allowance","inputs":[{"name":"owner","type":"address","internalType":"address"},{"name":"spender","type":"address","internalType":"address"}],"outputs":[{"name":"","type":"uint256","internalType":"uint256"}],"stateMutability":"view"},{"type":"function","name":"approve","inputs":[{"name":"spender","type":"address","internalType":"address"},{"name":"value","type":"uint256","internalType":"uint256"}],"outputs":[{"name":"","type":"bool","internalType":"bool"}],"stateMutability":"nonpayable"},{"type":"function","name":"assetId","inputs":[],"outputs":[{"name":"","type":"uint256","internalType":"uint256"}],"stateMutability":"view"},{"type":"function","name":"balanceOf","inputs":[{"name":"account","type":"address","internalType":"address"}],"outputs":[{"name":"","type":"uint256","internalType":"uint256"}],"stateMutability":"view"},{"type":"function","name":"balanceOfAt","inputs":[{"name":"account","type":"address","internalType":"address"},{"name":"snapshotId","type":"uint256","internalType":"uint256"}],"outputs":[{"name":"","type":"uint256","internalType":"uint256"}],"stateMutability":"view"},{"type":"function","name":"checkpoints","inputs":[{"name":"account","type":"address","internalType":"address"},{"name":"pos","type":"uint32","internalType":"uint32"}],"outputs":[{"name":"","type":"tuple","internalType":"struct Checkpoints.Checkpoint208","components":[{"name":"_key","type":"uint48","internalType":"uint48"},{"name":"_value","type":"uint208","internalType":"uint208"}]}],"stateMutability":"view"},{"type":"function","name":"clock","inputs":[],"outputs":[{"name":"","type":"uint48","internalType":"uint48"}],"stateMutability":"view"},{"type":"function","name":"decimals","inputs":[],"outputs":[{"name":"","type":"uint8","internalType":"uint8"}],"stateMutability":"view"},{"type":"function","name":"delegate","inputs":[{"name":"delegatee","type":"address","internalType":"address"}],"outputs":[],"stateMutability":"nonpayable"},{"type":"function","name":"delegateBySig","inputs":[{"name":"delegatee","type":"address","internalType":"address"},{"name":"nonce","type":"uint256","internalType":"uint256"},{"name":"expiry","type":"uint256","internalType":"uint256"},{"name":"v","type":"uint8","internalType":"uint8"},{"name":"r","type":"bytes32","internalType":"bytes32"},{"name":"s","type":"bytes32","internalType":"bytes32"}],"outputs":[],"stateMutability":"nonpayable"},{"type":"function","name":"delegates","inputs":[{"name":"account","type":"address","internalType":"address"}],"outputs":[{"name":"","type":"address","internalType":"address"}],"stateMutability":"view"},{"type":"function","name":"eip712Domain","inputs":[],"outputs":[{"name":"fields","type":"bytes1","internalType":"bytes1"},{"name":"name","type":"string","internalType":"string"},{"name":"version","type":"string","internalType":"string"},{"name":"chainId","type":"uint256","internalType":"uint256"},{"name":"verifyingContract","type":"address","internalType":"address"},{"name":"salt","type":"bytes32","internalType":"bytes32"},{"name":"extensions","type":"uint256[]","internalType":"uint256[]"}],"stateMutability":"view"},{"type":"function","name":"getCurrentSnapshotId","inputs":[],"outputs":[{"name":"","type":"uint256","internalType":"uint256"}],"stateMutability":"view"},{"type":"function","name":"getPastTotalSupply","inputs":[{"name":"timepoint","type":"uint256","internalType":"uint256"}],"outputs":[{"name":"","type":"uint256","internalType":"uint256"}],"stateMutability":"view"},{"type":"function","name":"getPastVotes","inputs":[{"name":"account","type":"address","internalType":"address"},{"name":"timepoint","type":"uint256","internalType":"uint256"}],"outputs":[{"name":"","type":"uint256","internalType":"uint256"}],"stateMutability":"view"},{"type":"function","name":"getRoleAdmin","inputs":[{"name":"role","type":"bytes32","internalType":"bytes32"}],"outputs":[{"name":"","type":"bytes32","internalType":"bytes32"}],"stateMutability":"view"},{"type":"function","name":"getVotes","inputs":[{"name":"account","type":"address","internalType":"address"}],"outputs":[{"name":"","type":"uint256","internalType":"uint256"}],"stateMutability":"view"},{"type":"function","name":"grantRole","inputs":[{"name":"role","type":"bytes32","internalType":"bytes32"},{"name":"account","type":"address","internalType":"address"}],"outputs":[],"stateMutability":"nonpayable"},{"type":"function","name":"hasRole","inputs":[{"name":"role","type":"bytes32","internalType":"bytes32"},{"name":"account","type":"address","internalType":"address"}],"outputs":[{"name":"","type":"bool","internalType":"bool"}],"stateMutability":"view"},{"type":"function","name":"name","inputs":[],"outputs":[{"name":"","type":"string","internalType":"string"}],"stateMutability":"view"},{"type":"function","name":"nonces","inputs":[{"name":"owner","type":"address","internalType":"address"}],"outputs":[{"name":"","type":"uint256","internalType":"uint256"}],"stateMutability":"view"},{"type":"function","name":"numCheckpoints","inputs":[{"name":"account","type":"address","internalType":"address"}],"outputs":[{"name":"","type":"uint32","internalType":"uint32"}],"stateMutability":"view"},{"type":"function","name":"renounceRole","inputs":[{"name":"role","type":"bytes32","internalType":"bytes32"},{"name":"callerConfirmation","type":"address","internalType":"address"}],"outputs":[],"stateMutability":"nonpayable"},{"type":"function","name":"revokeRole","inputs":[{"name":"role","type":"bytes32","internalType":"bytes32"},{"name":"account","type":"address","internalType":"address"}],"outputs":[],"stateMutability":"nonpayable"},{"type":"function","name":"snapshot","inputs":[],"outputs":[{"name":"snapshotId","type":"uint256","internalType":"uint256"}],"stateMutability":"nonpayable"},{"type":"function","name":"supportsInterface","inputs":[{"name":"interfaceId","type":"bytes4","internalType":"bytes4"}],"outputs":[{"name":"","type":"bool","internalType":"bool"}],"stateMutability":"view"},{"type":"function","name":"symbol","inputs":[],"outputs":[{"name":"","type":"string","internalType":"string"}],"stateMutability":"view"},{"type":"function","name":"totalSupply","inputs":[],"outputs":[{"name":"","type":"uint256","internalType":"uint256"}],"stateMutability":"view"},{"type":"function","name":"totalSupplyAt","inputs":[{"name":"snapshotId","type":"uint256","internalType":"uint256"}],"outputs":[{"name":"","type":"uint256","internalType":"uint256"}],"stateMutability":"view"},{"type":"function","name":"transfer","inputs":[{"name":"to","type":"address","internalType":"address"},{"name":"value","type":"uint256","internalType":"uint256"}],"outputs":[{"name":"","type":"bool","internalType":"bool"}],"stateMutability":"nonpayable"},{"type":"function","name":"transferFrom","inputs":[{"name":"from","type":"address","internalType":"address"},{"name":"to","type":"address","internalType":"address"},{"name":"value","type":"uint256","internalType":"uint256"}],"outputs":[{"name":"","type":"bool","internalType":"bool"}],"stateMutability":"nonpayable"},{"type":"event","name":"Approval","inputs":[{"name":"owner","type":"address","indexed":true,"internalType":"address"},{"name":"spender","type":"address","indexed":true,"internalType":"address"},{"name":"value","type":"uint256","indexed":false,"internalType":"uint256"}],"anonymous":false},{"type":"event","name":"DelegateChanged","inputs":[{"name":"delegator","type":"address","indexed":true,"internalType":"address"},{"name":"fromDelegate","type":"address","indexed":true,"internalType":"address"},{"name":"toDelegate","type":"address","indexed":true,"internalType":"address"}],"anonymous":false},{"type":"event","name":"DelegateVotesChanged","inputs":[{"name":"delegate","type":"address","indexed":true,"internalType":"address"},{"name":"previousVotes","type":"uint256","indexed":false,"internalType":"uint256"},{"name":"newVotes","type":"uint256","indexed":false,"internalType":"uint256"}],"anonymous":false},{"type":"event","name":"EIP712DomainChanged","inputs":[],"anonymous":false},{"type":"event","name":"RoleAdminChanged","inputs":[{"name":"role","type":"bytes32","indexed":true,"internalType":"bytes32"},{"name":"previousAdminRole","type":"bytes32","indexed":true,"internalType":"bytes32"},{"name":"newAdminRole","type":"bytes32","indexed":true,"internalType":"bytes32"}],"anonymous":false},{"type":"event","name":"RoleGranted","inputs":[{"name":"role","type":"bytes32","indexed":true,"internalType":"bytes32"},{"name":"account","type":"address","indexed":true,"internalType":"address"},{"name":"sender","type":"address","indexed":true,"internalType":"address"}],"anonymous":false},{"type":"event","name":"RoleRevoked","inputs":[{"name":"role","type":"bytes32","indexed":true,"internalType":"bytes32"},{"name":"account","type":"address","indexed":true,"internalType":"address"},{"name":"sender","type":"address","indexed":true,"internalType":"address"}],"anonymous":false},{"type":"event","name":"Snapshot","inputs":[{"name":"id","type":"uint256","indexed":false,"internalType":"uint256"}],"anonymous":false},{"type":"event","name":"Transfer","inputs":[{"name":"from","type":"address","indexed":true,"internalType":"address"},{"name":"to","type":"address","indexed":true,"internalType":"address"},{"name":"value","type":"uint256","indexed":false,"internalType":"uint256"}],"anonymous":false},{"type":"error","name":"AccessControlBadConfirmation","inputs":[]},{"type":"error","name":"AccessControlUnauthorizedAccount","inputs":[{"name":"account","type":"address","internalType":"address"},{"name":"neededRole","type":"bytes32","internalType":"bytes32"}]},{"type":"error","name":"CheckpointUnorderedInsertion","inputs":[]},{"type":"error","name":"ECDSAInvalidSignature","inputs":[]},{"type":"error","name":"ECDSAInvalidSignatureLength","inputs":[{"name":"length","type":"uint256","internalType":"uint256"}]},{"type":"error","name":"ECDSAInvalidSignatureS","inputs":[{"name":"s","type":"bytes32","internalType":"bytes32"}]},{"type":"error","name":"ERC20ExceededSafeSupply","inputs":[{"name":"increasedSupply","type":"uint256","internalType":"uint256"},{"name":"cap","type":"uint256","internalType":"uint256"}]},{"type":"error","name":"ERC20InsufficientAllowance","inputs":[{"name":"spender","type":"address","internalType":"address"},{"name":"allowance","type":"uint256","internalType":"uint256"},{"name":"needed","type":"uint256","internalType":"uint256"}]},{"type":"error","name":"ERC20InsufficientBalance","inputs":[{"name":"sender","type":"address","internalType":"address"},{"name":"balance","type":"uint256","internalType":"uint256"},{"name":"needed","type":"uint256","internalType":"uint256"}]},{"type":"error","name":"ERC20InvalidApprover","inputs":[{"name":"approver","type":"address","internalType":"address"}]},{"type":"error","name":"ERC20InvalidReceiver","inputs":[{"name":"receiver","type":"address","internalType":"address"}]},{"type":"error","name":"ERC20InvalidSender","inputs":[{"name":"sender","type":"address","internalType":"address"}]},{"type":"error","name":"ERC20InvalidSpender","inputs":[{"name":"spender","type":"address","internalType":"address"}]},{"type":"error","name":"ERC5805FutureLookup","inputs":[{"name":"timepoint","type":"uint256","internalType":"uint256"},{"name":"clock","type":"uint48","internalType":"uint48"}]},{"type":"error","name":"ERC6372InconsistentClock","inputs":[]},{"type":"error","name":"InvalidAccountNonce","inputs":[{"name":"account","type":"address","internalType":"address"},{"name":"currentNonce","type":"uint256","internalType":"uint256"}]},{"type":"error","name":"InvalidShortString","inputs":[]},{"type":"error","name":"SafeCastOverflowedUintDowncast","inputs":[{"name":"bits","type":"uint8","internalType":"uint8"},{"name":"value","type":"uint256","internalType":"uint256"}]},{"type":"error","name":"StringTooLong","inputs":[{"name":"str","type":"string","internalType":"string"}]},{"type":"error","name":"VotesExpiredSignature","inputs":[{"name":"expiry","type":"uint256","internalType":"uint256"}]}],"bytecode":{"object":"0x6101806040523461007c5761002161001561014f565b949390939291926101d8565b6040516123329081611174823960805181611d12015260a05181611dcd015260c05181611cdc015260e05181611d6101526101005181611d87015261012051816108fe01526101405181610927015261016051816106830152f35b5f80fd5b634e487b7160e01b5f52604160045260245ffd5b604081019081106001600160401b038211176100af57604052565b610080565b601f909101601f19168101906001600160401b038211908210176100af57604052565b604051906100e482610094565b565b81601f8201121561007c578051906001600160401b0382116100af576040519261011a601f8401601f1916602001856100b4565b8284526020838301011161007c57815f9260208093018386015e8301015290565b51906001600160a01b038216820361007c57565b61352690813803806040519361016582866100b4565b843982019060c08383031261007c5782516001600160401b039081811161007c57836101929186016100e6565b92602085015191821161007c576101aa9185016100e6565b926040810151926101bd6060830161013b565b9260a06101cc6080850161013b565b93015191959493929190565b949394604051906101e882610094565b6001808352603160f81b602080850191825283519195926001600160401b0383116100af576102218361021c600354610378565b6103b0565b602091601f84116001146102e05750509261026d6102c89693610265846102cf9b98956100e49e9d9b985f916102d5575b508160011b915f199060031b1c19161790565b6003556104f0565b610276816108c4565b61012052610283826109bf565b610140526020815191012060e052519020610100524660a0526102a4610ab7565b6080523060c052610160526102b8816105d9565b506102c28161064f565b50610705565b5082610765565b80610857565b90508501515f610252565b60035f529190601f198416907fc2575a0e9e593c00f959f8c92f12db2869c3395a3b0502d05e2516446f71f85b935f915b83831061036157505050936001846100e49d9c9a979461026d946102cf9d9a976102c89c9910610349575b5050811b016003556104f0565b8601515f1960f88460031b161c191690555f8061033c565b888501518655948501949381019391810191610311565b90600182811c921680156103a6575b602083101461039257565b634e487b7160e01b5f52602260045260245ffd5b91607f1691610387565b601f81116103bc575050565b60035f5260205f20906020601f840160051c830193106103f6575b601f0160051c01905b8181106103eb575050565b5f81556001016103e0565b90915081906103d7565b601f811161040c575050565b60045f5260205f20906020601f840160051c83019310610446575b601f0160051c01905b81811061043b575050565b5f8155600101610430565b9091508190610427565b601f811161045c575050565b60055f5260205f20906020601f840160051c83019310610496575b601f0160051c01905b81811061048b575050565b5f8155600101610480565b9091508190610477565b601f81116104ac575050565b60065f5260205f20906020601f840160051c830193106104e6575b601f0160051c01905b8181106104db575050565b5f81556001016104d0565b90915081906104c7565b80519091906001600160401b0381116100af5761051781610512600454610378565b610400565b602080601f83116001146105585750819061054893945f9261054d575b50508160011b915f199060031b1c19161790565b600455565b015190505f80610534565b60045f52601f198316949091907f8a35acfbc15ff81a39ae7d344fd709f28e8600b4aa8c65c6b64bfe7fe36bd19b925f905b8782106105c15750508360019596106105a9575b505050811b01600455565b01515f1960f88460031b161c191690555f808061059e565b8060018596829496860151815501950193019061058a565b6001600160a01b0381165f9081525f805160206134e6833981519152602052604090205460ff1661064a576001600160a01b03165f8181525f805160206134e683398151915260205260408120805460ff191660011790553391905f805160206134a68339815191528180a4600190565b505f90565b6001600160a01b0381165f9081527ff70e363b3d7895af770c4a138460777d52eebd3cb9962ccc6b58721f6127bbc8602052604090207f9f2df0fed2c77648de5860a4cc508cd0818c85b8b8a1ab4ceeef8d981c8956a69060ff905b54166106ff575f818152600b602090815260408083206001600160a01b03861684529091529020805460ff1916600117905533916001600160a01b0316905f805160206134a68339815191525f80a4600190565b50505f90565b6001600160a01b0381165f9081527f2c41cd13c060c3e01f710afdda82206ec3c37d5eb5fd1c19c0d0fd8877cc7684602052604090207f5fdbd35e8da83ee755d5e62a539e5ed7f47126abede0b8b10f9ea43dc6eed07f9060ff906106ab565b906001600160a01b038216801561083f5761078a61078583600254610dfc565b600255565b6001600160a01b0383165f90815260208181526040808320805486019055518481527fddf252ad1be2c89b69c2b068fc378daa952ba7f163c4a11628f55a4df523b3ef9190a36002546001600160d01b03811161081857506107ec9082610e09565b6001600160a01b038181165f90815260086020526040902054161561080e5750565b806100e491610857565b604051630e58ae9360e11b815260048101919091526001600160d01b036024820152604490fd5b60405163ec442f0560e01b81525f6004820152602490fd5b6001600160a01b039081165f81815260086020526040812080548585166001600160a01b0319821681179092556100e4959416939290918491907f3134e8a2e6d97e929a7e54011ea5485d7d196dd5f0ba4d4ef95803e8e3fc257f9080a45f60205260405f205491610b22565b90815160208082105f146108e1575050906108de90610c9e565b90565b6001600160401b0382116100af57610903826108fe600554610378565b610450565b602090601f831160011461093b5750819061093393945f9261054d5750508160011b915f199060031b1c19161790565b60055560ff90565b60055f52601f198316949091907f036b6384b5eca791c62761152d0c79bb0604c104a5fb6f4eb0703f3154bb3db0925f905b8782106109a757505083600195961061098f575b505050811b0160055560ff90565b01515f1960f88460031b161c191690555f8080610981565b8060018596829496860151815501950193019061096d565b90815160208082105f146109d9575050906108de90610c9e565b6001600160401b0382116100af576109fb826109f6600654610378565b6104a0565b602090601f8311600114610a3357508190610a2b93945f9261054d5750508160011b915f199060031b1c19161790565b60065560ff90565b60065f52601f198316949091907ff652222313e28459528d920b65115c16c04f3efc82aaedc97be59f3f377c0d3f925f905b878210610a9f575050836001959610610a87575b505050811b0160065560ff90565b01515f1960f88460031b161c191690555f8080610a79565b80600185968294968601518155019501930190610a65565b60e051610100516040519060208201927f8b73c3c69bb8fe3d512ecc4cf759cc79239f7b179b0ffacaa9a75d522b39400f8452604083015260608201524660808201523060a082015260a0815260c0810181811060018060401b038211176100af5760405251902090565b6001600160a01b03808316939291908116908185141580610c95575b610b4a575b5050505050565b81610bbb575b505082610b5f575b8080610b43565b6001600160a01b03165f9081526009602052604090205f8051602061350683398151915291610b9891610b929091610d1d565b90610d50565b604080516001600160d01b039384168152919092166020820152a25f8080610b58565b6001600160a01b03165f908152600960205260409020610bda84610d1d565b9065ffffffffffff90814311610c7657805480610c3a575090610c1891610c0f5f80516020613506833981519152945f611141565b91431690611087565b604080516001600160d01b039384168152919092166020820152a25f80610b50565b91905f19928084810111610c71575f8051602061350683398151915294610c1894610c0f92845f5260205f2001015460301c611141565b610d09565b6040516306dfcc6560e41b815260306004820152436024820152604490fd5b50831515610b3e565b601f815111610cc9576020815191015160208210610cba571790565b5f198260200360031b1b161790565b604460209160405192839163305a27a960e01b83528160048401528051918291826024860152018484015e5f828201840152601f01601f19168101030190fd5b634e487b7160e01b5f52601160045260245ffd5b6001600160d01b0390818111610d31571690565b604490604051906306dfcc6560e41b825260d060048301526024820152fd5b65ffffffffffff90814311610c7657805480610d785750610c0f610d74935f61115a565b9091565b5f19938185810111610c7157610d7494610c0f92845f5260205f2001015460301c61115a565b65ffffffffffff804311610c7657600a5480610dca5750610dc2610d74925f611141565b904316610fa1565b5f19928184810111610c7157600a5f5292015f805160206134c68339815191520154610d7492610dc29160301c611141565b91908201809211610c7157565b90610e1381610d1d565b9165ffffffffffff804311610c7657600a5480610ea35750610e3c90610dc26100e4955f61115a565b50506001600160a01b03908116908115610e8b575b60086020527f5eff886ea0ce6ca488a3d6e336d6c0f75f46d19b42c06ce5ee98e42c96d256c7545f92835260409092205481169116610b22565b610e9c610e9784610d1d565b610d9e565b5050610e51565b905f19918083810111610c71576100e495610e3c93610dc292600a5f5260205f2001015460301c61115a565b5f19810191908211610c7157565b600a5490680100000000000000008210156100af576001820180600a55821015610f3a57600a5f5280516020919091015160301b65ffffffffffff191665ffffffffffff91909116175f805160206134c683398151915290910155565b634e487b7160e01b5f52603260045260245ffd5b908154680100000000000000008110156100af5760018101808455811015610f3a575f9283526020928390208251929093015160301b65ffffffffffff191665ffffffffffff9290921691909117910155565b600a54919291801561105e57610fb9610fcf91610ecf565b600a5f525f805160206134c68339815191520190565b9081549165ffffffffffff9081841691831680831161104c578692036110145761100d92509065ffffffffffff82549181199060301b169116179055565b60301c9190565b5050611047906110336110256100d7565b65ffffffffffff9092168252565b6001600160d01b0385166020820152610edd565b61100d565b604051632520601d60e01b8152600490fd5b506110829061106e6110256100d7565b6001600160d01b0384166020820152610edd565b5f9190565b8054929392801561111c5761109e6110a991610ecf565b825f5260205f200190565b9182549265ffffffffffff9182851692811680841161104c578793036110e8575061100d92509065ffffffffffff82549181199060301b169116179055565b915050611047916111086110fa6100d7565b65ffffffffffff9093168352565b6001600160d01b0386166020830152610f4e565b50906110829161112d6110fa6100d7565b6001600160d01b0385166020830152610f4e565b6001600160d01b0391821690821603908111610c715790565b6001600160d01b0391821690821601908111610c71579056fe60806040526004361015610011575f80fd5b5f3560e01c806301ffc9a71461024457806306fdde031461023f578063095ea7b31461023a57806318160ddd1461023557806323b872dd14610230578063248a9ca31461022b5780632f2ff15d14610226578063313ce5671461022157806336568abe1461021c5780633a46b1a81461021757806344de240a146102125780634bf5d7e91461020d5780634ee2cd7e146102085780635439ad8614610203578063587cde1e146101fe5780635c19a95c146101f95780636fcfff45146101f45780637028e2cd146101ef57806370a08231146101ea5780637ecebe00146101e557806384b0196e146101e05780638e539e8c146101db57806391d14854146101d657806391ddadf4146101d157806395d89b41146101cc5780639711715a146101c7578063981b24d0146101c25780639ab24eb0146101bd578063a217fddf146101b8578063a9059cbb146101b3578063c3cda520146101ae578063d5391393146101a9578063d547741f146101a4578063dd62ed3e1461019f5763f1127ed81461019a575f80fd5b610e33565b610ddc565b610d9f565b610d65565b610c97565b610c66565b610c4c565b610c0e565b610bf0565b610b31565b610a8c565b610a61565b610a13565b6109dc565b6108e6565b6108ae565b610876565b61083c565b6107d6565b6107b4565b61077b565b61075e565b610737565b6106a6565b61066c565b61063d565b6105f6565b6105db565b61059c565b61056f565b6104c4565b6104a7565b6103e2565b6102d6565b3461029a57602036600319011261029a5760043563ffffffff60e01b811680910361029a57602090637965db0b60e01b8114908115610289575b506040519015158152f35b6301ffc9a760e01b1490505f61027e565b5f80fd5b805180835260209291819084018484015e5f828201840152601f01601f1916010190565b9060206102d392818152019061029e565b90565b3461029a575f36600319011261029a576040515f6003546102f681610ef9565b8084529060209060019081811690811561038c5750600114610333575b61032f8561032381870382610fba565b604051918291826102c2565b0390f35b60035f90815293507fc2575a0e9e593c00f959f8c92f12db2869c3395a3b0502d05e2516446f71f85b5b838510610379575050505081016020016103238261032f610313565b805486860184015293820193810161035d565b86955061032f9693506020925061032394915060ff191682840152151560051b8201019293610313565b600435906001600160a01b038216820361029a57565b602435906001600160a01b038216820361029a57565b3461029a57604036600319011261029a576103fb6103b6565b602435331561048f576001600160a01b03821691821561047757335f908152600160205260409020829161043f915b9060018060a01b03165f5260205260405f2090565b556040519081527f8c5be1e5ebec7d5bd14f71427d1e84f3dd0314c0f7b2291e5b200ac8c7c3b92560203392a3602060405160018152f35b604051634a1406b160e11b81525f6004820152602490fd5b60405163e602df0560e01b81525f6004820152602490fd5b3461029a575f36600319011261029a576020600254604051908152f35b3461029a57606036600319011261029a576104dd6103b6565b6104e56103cc565b6001600160a01b0382165f9081526001602090815260408083203384529091529020604435919054925f19841061052d575b61052193506111f6565b60405160018152602090f35b8284106105495761054483610521950333836117bc565b610517565b604051637dc7a0d960e11b81523360048201526024810185905260448101849052606490fd5b3461029a57602036600319011261029a576004355f52600b6020526020600160405f200154604051908152f35b3461029a57604036600319011261029a576105d96004356105bb6103cc565b90805f52600b6020526105d4600160405f2001546113c7565b6113e7565b005b3461029a575f36600319011261029a57602060405160128152f35b3461029a57604036600319011261029a5761060f6103cc565b336001600160a01b0382160361062b576105d990600435611477565b60405163334bd91960e11b8152600490fd5b3461029a57604036600319011261029a57602061066461065b6103b6565b60243590610fdc565b604051908152f35b3461029a575f36600319011261029a5760206040517f00000000000000000000000000000000000000000000000000000000000000008152f35b3461029a575f36600319011261029a576106bf436117f4565b65ffffffffffff806106d0436117f4565b169116036107255761032f6040516106e781610f45565b601d81527f6d6f64653d626c6f636b6e756d6265722666726f6d3d64656661756c74000000602082015260405191829160208352602083019061029e565b6040516301bfc1c560e61b8152600490fd5b3461029a57604036600319011261029a5760206106646107556103b6565b602435906110fa565b3461029a575f36600319011261029a576020600c54604051908152f35b3461029a57602036600319011261029a5760206001600160a01b038061079f6103b6565b165f526008825260405f205416604051908152f35b3461029a57602036600319011261029a576105d96107d06103b6565b33611647565b3461029a57602036600319011261029a576001600160a01b036107f76103b6565b165f52600960205260405f205463ffffffff9081811161081d5760209160405191168152f35b604490604051906306dfcc6560e41b8252602060048301526024820152fd5b3461029a575f36600319011261029a5760206040517f5fdbd35e8da83ee755d5e62a539e5ed7f47126abede0b8b10f9ea43dc6eed07f8152f35b3461029a57602036600319011261029a5760206106646108946103b6565b6001600160a01b03165f9081526020819052604090205490565b3461029a57602036600319011261029a576001600160a01b036108cf6103b6565b165f526007602052602060405f2054604051908152f35b3461029a575f36600319011261029a5761097f6109227f0000000000000000000000000000000000000000000000000000000000000000611b1e565b61094b7f0000000000000000000000000000000000000000000000000000000000000000611c1c565b6040519061095882610f66565b5f825261098d602091604051958695600f60f81b875260e0602088015260e087019061029e565b90858203604087015261029e565b4660608501523060808501525f60a085015283810360c0850152602080845192838152019301915f5b8281106109c557505050500390f35b8351855286955093810193928101926001016109b6565b3461029a57602036600319011261029a5760206001600160d01b03610a0a610a056004356114ff565b61154e565b16604051908152f35b3461029a57604036600319011261029a57602060ff610a55610a336103cc565b6004355f52600b845260405f209060018060a01b03165f5260205260405f2090565b54166040519015158152f35b3461029a575f36600319011261029a576020610a7c436117f4565b65ffffffffffff60405191168152f35b3461029a575f36600319011261029a576040515f600454610aac81610ef9565b8084529060209060019081811690811561038c5750600114610ad85761032f8561032381870382610fba565b60045f90815293507f8a35acfbc15ff81a39ae7d344fd709f28e8600b4aa8c65c6b64bfe7fe36bd19b5b838510610b1e575050505081016020016103238261032f610313565b8054868601840152938201938101610b02565b3461029a575f36600319011261029a57610b4961134c565b600c545f1990818114610beb5760010180600c5565ffffffffffff610b6d436117f4565b169160018311610bcc575061032f91610b8e825f52600d60205260405f2090565b555b6040518181527f8030e83b04d87bef53480e26263266d6ca66863aa8506aca6f2559d18aa1cb6790602090a16040519081529081906020820190565b8201918211610beb5761032f91815f52600d60205260405f2055610b90565b610ee5565b3461029a57602036600319011261029a576020610664600435611180565b3461029a57602036600319011261029a576001600160a01b03610c2f6103b6565b165f526009602052602060018060d01b03610a0a60405f2061170c565b3461029a575f36600319011261029a5760206040515f8152f35b3461029a57604036600319011261029a57610c8c610c826103b6565b60243590336111f6565b602060405160018152f35b3461029a5760c036600319011261029a57610cb06103b6565b6044359060243560643560ff8116810361029a57834211610d4c57610d406105d994610d47926040519060208201927fe48329057bfd03d55e49b547132e39cffd9c1820ad7b9d4c5307691425d15adf845260018060a01b0388166040840152866060840152608083015260808252610d2882610f82565b610d3b60a4359360843593519020611734565b61175a565b9182611772565b611647565b604051632341d78760e11b815260048101859052602490fd5b3461029a575f36600319011261029a5760206040517f9f2df0fed2c77648de5860a4cc508cd0818c85b8b8a1ab4ceeef8d981c8956a68152f35b3461029a57604036600319011261029a576105d9600435610dbe6103cc565b90805f52600b602052610dd7600160405f2001546113c7565b611477565b3461029a57604036600319011261029a576020610e2a610dfa6103b6565b610e026103cc565b6001600160a01b039182165f9081526001855260408082209290931681526020919091522090565b54604051908152f35b3461029a57604036600319011261029a57610e4c6103b6565b6024359063ffffffff8216820361029a5761032f91610e9b91610e6d6111de565b50610e766111de565b506001600160a01b03165f908152600960205260409020610e956111de565b50611f2b565b5060405190610ea982610f45565b5465ffffffffffff811680835260309190911c60209283019081526040805192835290516001600160d01b031692820192909252918291820190565b634e487b7160e01b5f52601160045260245ffd5b90600182811c92168015610f27575b6020831014610f1357565b634e487b7160e01b5f52602260045260245ffd5b91607f1691610f08565b634e487b7160e01b5f52604160045260245ffd5b6040810190811067ffffffffffffffff821117610f6157604052565b610f31565b6020810190811067ffffffffffffffff821117610f6157604052565b60a0810190811067ffffffffffffffff821117610f6157604052565b60c0810190811067ffffffffffffffff821117610f6157604052565b90601f8019910116810190811067ffffffffffffffff821117610f6157604052565b6001600160a01b03165f90815260096020526040902090610ffc906114ff565b8154905f829160058411611045575b61101693508461196f565b8061102b5750505f5b6001600160d01b031690565b61103490611172565b905f5260205f20015460301c61101f565b919261105081611844565b8103908111610beb5761101693855f5265ffffffffffff808360205f20015416908516105f1461108157509161100b565b92915061108d90611540565b9061100b565b604051906110a082610f45565b565b156110a957565b60405162461bcd60e51b815260206004820152602360248201527f4552433230536e617073686f743a206e6f6e6578697374656e7420736e6170736044820152621a1bdd60ea1b6064820152608490fd5b9080151580611166575b61110d906110a2565b5f52600d60205260405f205465ffffffffffff611129436117f4565b168114611139576102d391610fdc565b506001600160a01b03165f9081526009602052604090206001600160d01b03906111629061170c565b1690565b50600c54811115611104565b5f19810191908211610beb57565b801515806111d2575b611192906110a2565b5f52600d60205260405f205465ffffffffffff6111ae436117f4565b1681146111cb576001600160d01b039061116290610a05906114ff565b5060025490565b50600c54811115611189565b604051906111eb82610f45565b5f6020838281520152565b90916001600160a01b03808316929190831561133457841691821561131c576001600160a01b0381165f908152602081905260409020548281106112ec5782916112b2938792036112568260018060a01b03165f525f60205260405f2090565b556001600160a01b0382165f90815260208190526040902083815401905584867fddf252ad1be2c89b69c2b068fc378daa952ba7f163c4a11628f55a4df523b3ef604051806112aa88829190602083019252565b0390a3611fbd565b1415806112cb575b6112c15750565b806110a091611647565b506001600160a01b038181165f9081526008602052604090205416156112ba565b60405163391434e360e21b81526001600160a01b0392909216600483015260248201526044810191909152606490fd5b60405163ec442f0560e01b81525f6004820152602490fd5b604051634b637e8f60e11b81525f6004820152602490fd5b335f9081527f2c41cd13c060c3e01f710afdda82206ec3c37d5eb5fd1c19c0d0fd8877cc7684602052604090207f5fdbd35e8da83ee755d5e62a539e5ed7f47126abede0b8b10f9ea43dc6eed07f9060ff905b5416156113a95750565b6044906040519063e2517d3f60e01b82523360048301526024820152fd5b5f818152600b60209081526040808320338452909152902060ff9061139f565b5f818152600b602090815260408083206001600160a01b038616845290915290205460ff16611471575f818152600b602090815260408083206001600160a01b03861684529091529020805460ff1916600117905533916001600160a01b0316907f2f8788117e7eff1d82e926ec794901d17c78024a50270940304540a733656f0d5f80a4600190565b50505f90565b5f818152600b602090815260408083206001600160a01b038616845290915290205460ff1615611471575f818152600b602090815260408083206001600160a01b03861684529091529020805460ff1916905533916001600160a01b0316907ff6391f5c32d9c69d2a47ea670b442974b53935d1edc7fd64eb21e047a839171b5f80a4600190565b65ffffffffffff61150f436117f4565b168082101561152257506102d3906117f4565b6044925060405191637669fc0f60e11b835260048301526024820152fd5b9060018201809211610beb57565b600a8054915f9280600581116115f3575b5092905b83821061159a575050508061157757505f90565b61158090611172565b600a5f525f805160206122dd833981519152015460301c90565b9091928083169080841860011c8201809211610beb57845f5265ffffffffffff80835f805160206122dd833981519152015416908416105f146115e15750925b9190611563565b9392506115ed90611540565b916115da565b906115fd82611844565b8203918211610beb57600a5f5265ffffffffffff80835f805160206122dd833981519152015416908416105f1461163657505b5f61155f565b935061164190611540565b92611630565b6001600160a01b038181165f81815260086020526040812080548685166001600160a01b0319821681179092556110a0969416946116c29390928691907f3134e8a2e6d97e929a7e54011ea5485d7d196dd5f0ba4d4ef95803e8e3fc257f9080a46001600160a01b03165f9081526020819052604090205490565b916119ce565b600a54806116d557505f90565b805f19810111610beb57600a5f527fc65a7bb8d6351c1cf70c95a316cc6a92839c986682d98bc35f958f4883f9d2a7015460301c90565b8054806117195750505f90565b5f19918183810111610beb575f5260205f2001015460301c90565b60429061173f611cd9565b906040519161190160f01b8352600283015260228201522090565b916102d3939161176993611df3565b90929192611e9e565b6001600160a01b03165f818152600760205260409020805460018101909155909181900361179e575050565b60449250604051916301d4b62360e61b835260048301526024820152fd5b906001600160a01b038083161561048f578116156104775761042a6117f19260018060a01b03165f52600160205260405f2090565b55565b65ffffffffffff90818111611807571690565b604490604051906306dfcc6560e41b8252603060048301526024820152fd5b8115611830570490565b634e487b7160e01b5f52601260045260245ffd5b60018111156102d357600181600160801b81101561195d575b6119056118fb6118f16118e76118dd6118d361191197600488600160401b61190c9a1015611950575b640100000000811015611943575b62010000811015611936575b61010081101561192a575b601081101561191e575b1015611916575b60030260011c6118cc818b611826565b0160011c90565b6118cc818a611826565b6118cc8189611826565b6118cc8188611826565b6118cc8187611826565b6118cc8186611826565b8093611826565b821190565b900390565b60011b6118bc565b811c9160021b916118b5565b60081c91811b916118ab565b60101c9160081b916118a0565b60201c9160101b91611894565b60401c9160201b91611886565b50600160401b9050608082901c61185d565b91905b83821061197f5750505090565b9091928083169080841860011c8201809211610beb57845f5265ffffffffffff808360205f20015416908416105f146119bc5750925b9190611972565b9392506119c890611540565b916119b5565b6001600160a01b03808316939291908116908185141580611b15575b6119f6575b5050505050565b81611a7a575b505082611a0b575b80806119ef565b6001600160a01b03165f9081526009602052604090207fdec2bacdd2f05b59de34da9b523dff8be42e5e38e818c82fdb0bae774387a72491611a5791611a519091611f54565b90611f87565b604080516001600160d01b039384168152919092166020820152a25f8080611a04565b6001600160a01b03165f908152600960205260409020611a9984611f54565b611aa2436117f4565b6001600160d01b03918280611ab68661170c565b169116900392828411610beb577fdec2bacdd2f05b59de34da9b523dff8be42e5e38e818c82fdb0bae774387a72493611b0b92611af292612222565b6040805192851683529316602082015291829190820190565b0390a25f806119fc565b508315156119ea565b60ff8114611b5c5760ff811690601f8211611b4a5760405191611b4083610f45565b8252602082015290565b604051632cd44ac360e21b8152600490fd5b50604051600554815f611b6e83610ef9565b80835292602090600190818116908115611bf85750600114611b99575b50506102d392500382610fba565b91509260055f527f036b6384b5eca791c62761152d0c79bb0604c104a5fb6f4eb0703f3154bb3db0935f925b828410611be057506102d39450505081016020015f80611b8b565b85548785018301529485019486945092810192611bc5565b915050602092506102d394915060ff191682840152151560051b8201015f80611b8b565b60ff8114611c3e5760ff811690601f8211611b4a5760405191611b4083610f45565b50604051600654815f611c5083610ef9565b80835292602090600190818116908115611bf85750600114611c7a5750506102d392500382610fba565b91509260065f527ff652222313e28459528d920b65115c16c04f3efc82aaedc97be59f3f377c0d3f935f925b828410611cc157506102d39450505081016020015f80611b8b565b85548785018301529485019486945092810192611ca6565b307f00000000000000000000000000000000000000000000000000000000000000006001600160a01b03161480611dca575b15611d34577f000000000000000000000000000000000000000000000000000000000000000090565b60405160208101907f8b73c3c69bb8fe3d512ecc4cf759cc79239f7b179b0ffacaa9a75d522b39400f82527f000000000000000000000000000000000000000000000000000000000000000060408201527f000000000000000000000000000000000000000000000000000000000000000060608201524660808201523060a082015260a08152611dc481610f9e565b51902090565b507f00000000000000000000000000000000000000000000000000000000000000004614611d0b565b91907f7fffffffffffffffffffffffffffffff5d576e7357a4501ddfe92f46681b20a08411611e75579160209360809260ff5f9560405194855216868401526040830152606082015282805260015afa15611e6a575f516001600160a01b03811615611e6057905f905f90565b505f906001905f90565b6040513d5f823e3d90fd5b5050505f9160039190565b60041115611e8a57565b634e487b7160e01b5f52602160045260245ffd5b611ea781611e80565b80611eb0575050565b611eb981611e80565b60018103611ed35760405163f645eedf60e01b8152600490fd5b611edc81611e80565b60028103611efd5760405163fce698f760e01b815260048101839052602490fd5b80611f09600392611e80565b14611f115750565b6040516335e2f38360e21b81526004810191909152602490fd5b8054821015611f40575f5260205f2001905f90565b634e487b7160e01b5f52603260045260245ffd5b6001600160d01b0390818111611f68571690565b604490604051906306dfcc6560e41b825260d060048301526024820152fd5b90611f91436117f4565b6001600160d01b03918280611fa58661170c565b16911601918211610beb57611fb992612222565b9091565b6001600160a01b03908116929181908415612045575b16908115611ffd575b6110a0935f5260086020528060405f205416915f5260405f205416906119ce565b61200683611f54565b93612010436117f4565b6001600160d01b039586806120236116c8565b1691169003958611610beb576110a09561203c9161213c565b50509350611fdc565b905061205083611f54565b9061205a436117f4565b6001600160d01b0392838061206d6116c8565b16911601928311610beb5783926120839161213c565b5050611fd3565b600a5490600160401b821015610f61576001820180600a55821015611f4057600a5f52805160209091015160301b65ffffffffffff191665ffffffffffff91909116175f805160206122dd83398151915290910155565b8054600160401b811015610f61576120fe91600182018155611f2b565b61212957815160209092015160301b65ffffffffffff191665ffffffffffff92909216919091179055565b634e487b7160e01b5f525f60045260245ffd5b600a5491929180156121f95761215461216a91611172565b600a5f525f805160206122dd8339815191520190565b9081549165ffffffffffff908184169183168083116121e7578692036121af576121a892509065ffffffffffff82549181199060301b169116179055565b60301c9190565b50506121e2906121ce6121c0611093565b65ffffffffffff9092168252565b6001600160d01b038516602082015261208a565b6121a8565b604051632520601d60e01b8152600490fd5b5061221d906122096121c0611093565b6001600160d01b038416602082015261208a565b5f9190565b805492939280156122b75761223961224491611172565b825f5260205f200190565b9182549265ffffffffffff918285169281168084116121e75787930361228357506121a892509065ffffffffffff82549181199060301b169116179055565b9150506121e2916122a3612295611093565b65ffffffffffff9093168352565b6001600160d01b03861660208301526120e1565b509061221d916122c8612295611093565b6001600160d01b03851660208301526120e156fec65a7bb8d6351c1cf70c95a316cc6a92839c986682d98bc35f958f4883f9d2a8a2646970667358221220cb13e8b81e706a9dfb25c702c05e99ef6c7fa5da27bc050178091646e3ff6b9064736f6c634300081900332f8788117e7eff1d82e926ec794901d17c78024a50270940304540a733656f0dc65a7bb8d6351c1cf70c95a316cc6a92839c986682d98bc35f958f4883f9d2a8df7de25b7f1fd6d0b5205f0e18f1f35bd7b8d84cce336588d184533ce43a6f76dec2bacdd2f05b59de34da9b523dff8be42e5e38e818c82fdb0bae774387a724","linkReferences":{}},"methodIdentifiers":{"CLOCK_MODE()":"4bf5d7e9","DEFAULT_ADMIN_ROLE()":"a217fddf","MINTER_ROLE()":"d5391393","SNAPSHOT_ROLE()":"7028e2cd","allowance(address,address)":"dd62ed3e","approve(address,uint256)":"095ea7b3","assetId()":"44de240a","balanceOf(address)":"70a08231","balanceOfAt(address,uint256)":"4ee2cd7e","checkpoints(address,uint32)":"f1127ed8","clock()":"91ddadf4","decimals()":"313ce567","delegate(address)":"5c19a95c","delegateBySig(address,uint256,uint256,uint8,bytes32,bytes32)":"c3cda520","delegates(address)":"587cde1e","eip712Domain()":"84b0196e","getCurrentSnapshotId()":"5439ad86","getPastTotalSupply(uint256)":"8e539e8c","getPastVotes(address,uint256)":"3a46b1a8","getRoleAdmin(bytes32)":"248a9ca3","getVotes(address)":"9ab24eb0","grantRole(bytes32,address)":"2f2ff15d","hasRole(bytes32,address)":"91d14854","name()":"06fdde03","nonces(address)":"7ecebe00","numCheckpoints(address)":"6fcfff45","renounceRole(bytes32,address)":"36568abe","revokeRole(bytes32,address)":"d547741f","snapshot()":"9711715a","supportsInterface(bytes4)":"01ffc9a7","symbol()":"95d89b41","totalSupply()":"18160ddd","totalSupplyAt(uint256)":"981b24d0","transfer(address,uint256)":"a9059cbb","transferFrom(address,address,uint256)":"23b872dd"},"id":53}