{"abi":[{"type":"function","name":"DEFAULT_ADMIN_ROLE","inputs":[],"outputs":[{"name":"","type":"bytes32","internalType":"bytes32"}],"stateMutability":"view"},{"type":"function","name":"UPGRADE_INTERFACE_VERSION","inputs":[],"outputs":[{"name":"","type":"string","internalType":"string"}],"stateMutability":"view"},{"type":"function","name":"allowance","inputs":[{"name":"owner","type":"address","internalType":"address"},{"name":"spender","type":"address","internalType":"address"}],"outputs":[{"name":"","type":"uint256","internalType":"uint256"}],"stateMutability":"view"},{"type":"function","name":"approve","inputs":[{"name":"spender","type":"address","internalType":"address"},{"name":"value","type":"uint256","internalType":"uint256"}],"outputs":[{"name":"","type":"bool","internalType":"bool"}],"stateMutability":"nonpayable"},{"type":"function","name":"balanceOf","inputs":[{"name":"account","type":"address","internalType":"address"}],"outputs":[{"name":"","type":"uint256","internalType":"uint256"}],"stateMutability":"view"},{"type":"function","name":"decimals","inputs":[],"outputs":[{"name":"","type":"uint8","internalType":"uint8"}],"stateMutability":"view"},{"type":"function","name":"eip712Domain","inputs":[],"outputs":[{"name":"fields","type":"bytes1","internalType":"bytes1"},{"name":"name","type":"string","internalType":"string"},{"name":"version","type":"string","internalType":"string"},{"name":"chainId","type":"uint256","internalType":"uint256"},{"name":"verifyingContract","type":"address","internalType":"address"},{"name":"salt","type":"bytes32","internalType":"bytes32"},{"name":"extensions","type":"uint256[]","internalType":"uint256[]"}],"stateMutability":"view"},{"type":"function","name":"getAllMetadata","inputs":[{"name":"hash","type":"bytes32","internalType":"bytes32"}],"outputs":[{"name":"metadata","type":"tuple[]","internalType":"struct MetadataStorage.Metadata[]","components":[{"name":"key","type":"string","internalType":"string"},{"name":"value","type":"string","internalType":"string"}]}],"stateMutability":"view"},{"type":"function","name":"getAllMetadata","inputs":[],"outputs":[{"name":"metadata","type":"tuple[]","internalType":"struct MetadataStorage.Metadata[]","components":[{"name":"key","type":"string","internalType":"string"},{"name":"value","type":"string","internalType":"string"}]}],"stateMutability":"view"},{"type":"function","name":"getAllMetadataKeys","inputs":[{"name":"hash","type":"bytes32","internalType":"bytes32"}],"outputs":[{"name":"keys","type":"string[]","internalType":"string[]"}],"stateMutability":"view"},{"type":"function","name":"getAllMetadataKeys","inputs":[],"outputs":[{"name":"keys","type":"string[]","internalType":"string[]"}],"stateMutability":"view"},{"type":"function","name":"getHolders","inputs":[],"outputs":[{"name":"holders","type":"address[]","internalType":"address[]"},{"name":"balances","type":"uint256[]","internalType":"uint256[]"}],"stateMutability":"view"},{"type":"function","name":"getMetadata","inputs":[{"name":"hash","type":"bytes32","internalType":"bytes32"},{"name":"key","type":"string","internalType":"string"}],"outputs":[{"name":"value","type":"string","internalType":"string"}],"stateMutability":"view"},{"type":"function","name":"getMetadata","inputs":[{"name":"key","type":"string","internalType":"string"}],"outputs":[{"name":"value","type":"string","internalType":"string"}],"stateMutability":"view"},{"type":"function","name":"getMetadataCount","inputs":[{"name":"hash","type":"bytes32","internalType":"bytes32"}],"outputs":[{"name":"count","type":"uint256","internalType":"uint256"}],"stateMutability":"view"},{"type":"function","name":"getMetadataCount","inputs":[],"outputs":[{"name":"count","type":"uint256","internalType":"uint256"}],"stateMutability":"view"},{"type":"function","name":"getRoleAdmin","inputs":[{"name":"role","type":"bytes32","internalType":"bytes32"}],"outputs":[{"name":"","type":"bytes32","internalType":"bytes32"}],"stateMutability":"view"},{"type":"function","name":"getUupsImplementation","inputs":[],"outputs":[{"name":"","type":"address","internalType":"address"}],"stateMutability":"view"},{"type":"function","name":"grantRole","inputs":[{"name":"role","type":"bytes32","internalType":"bytes32"},{"name":"account","type":"address","internalType":"address"}],"outputs":[],"stateMutability":"nonpayable"},{"type":"function","name":"hasMetadata","inputs":[{"name":"key","type":"string","internalType":"string"}],"outputs":[{"name":"exists","type":"bool","internalType":"bool"}],"stateMutability":"view"},{"type":"function","name":"hasMetadata","inputs":[{"name":"hash","type":"bytes32","internalType":"bytes32"},{"name":"key","type":"string","internalType":"string"}],"outputs":[{"name":"exists","type":"bool","internalType":"bool"}],"stateMutability":"view"},{"type":"function","name":"hasRole","inputs":[{"name":"role","type":"bytes32","internalType":"bytes32"},{"name":"account","type":"address","internalType":"address"}],"outputs":[{"name":"","type":"bool","internalType":"bool"}],"stateMutability":"view"},{"type":"function","name":"initialize","inputs":[{"name":"name","type":"string","internalType":"string"},{"name":"symbol","type":"string","internalType":"string"},{"name":"totalSupply","type":"uint256","internalType":"uint256"},{"name":"assetId","type":"uint256","internalType":"uint256"},{"name":"admin","type":"address","internalType":"address"},{"name":"upgrader","type":"address","internalType":"address"},{"name":"tokenRecipient","type":"address","internalType":"address"},{"name":"metadata","type":"tuple[]","internalType":"struct MetadataStorage.Metadata[]","components":[{"name":"key","type":"string","internalType":"string"},{"name":"value","type":"string","internalType":"string"}]}],"outputs":[],"stateMutability":"nonpayable"},{"type":"function","name":"name","inputs":[],"outputs":[{"name":"","type":"string","internalType":"string"}],"stateMutability":"view"},{"type":"function","name":"proxiableUUID","inputs":[],"outputs":[{"name":"","type":"bytes32","internalType":"bytes32"}],"stateMutability":"view"},{"type":"function","name":"removeMetadata","inputs":[{"name":"key","type":"string","internalType":"string"}],"outputs":[],"stateMutability":"nonpayable"},{"type":"function","name":"renounceRole","inputs":[{"name":"role","type":"bytes32","internalType":"bytes32"},{"name":"callerConfirmation","type":"address","internalType":"address"}],"outputs":[],"stateMutability":"nonpayable"},{"type":"function","name":"revokeRole","inputs":[{"name":"role","type":"bytes32","internalType":"bytes32"},{"name":"account","type":"address","internalType":"address"}],"outputs":[],"stateMutability":"nonpayable"},{"type":"function","name":"setMetadata","inputs":[{"name":"metadata_","type":"tuple[]","internalType":"struct MetadataStorage.Metadata[]","components":[{"name":"key","type":"string","internalType":"string"},{"name":"value","type":"string","internalType":"string"}]}],"outputs":[],"stateMutability":"nonpayable"},{"type":"function","name":"supportsInterface","inputs":[{"name":"interfaceId","type":"bytes4","internalType":"bytes4"}],"outputs":[{"name":"","type":"bool","internalType":"bool"}],"stateMutability":"view"},{"type":"function","name":"symbol","inputs":[],"outputs":[{"name":"","type":"string","internalType":"string"}],"stateMutability":"view"},{"type":"function","name":"totalSupply","inputs":[],"outputs":[{"name":"","type":"uint256","internalType":"uint256"}],"stateMutability":"view"},{"type":"function","name":"transfer","inputs":[{"name":"to","type":"address","internalType":"address"},{"name":"value","type":"uint256","internalType":"uint256"}],"outputs":[{"name":"","type":"bool","internalType":"bool"}],"stateMutability":"nonpayable"},{"type":"function","name":"transferFrom","inputs":[{"name":"from","type":"address","internalType":"address"},{"name":"to","type":"address","internalType":"address"},{"name":"value","type":"uint256","internalType":"uint256"}],"outputs":[{"name":"","type":"bool","internalType":"bool"}],"stateMutability":"nonpayable"},{"type":"function","name":"upgradeToAndCall","inputs":[{"name":"newImplementation","type":"address","internalType":"address"},{"name":"data","type":"bytes","internalType":"bytes"}],"outputs":[],"stateMutability":"payable"},{"type":"event","name":"Approval","inputs":[{"name":"owner","type":"address","indexed":true,"internalType":"address"},{"name":"spender","type":"address","indexed":true,"internalType":"address"},{"name":"value","type":"uint256","indexed":false,"internalType":"uint256"}],"anonymous":false},{"type":"event","name":"EIP712DomainChanged","inputs":[],"anonymous":false},{"type":"event","name":"Initialized","inputs":[{"name":"version","type":"uint64","indexed":false,"internalType":"uint64"}],"anonymous":false},{"type":"event","name":"MetadataRemoved","inputs":[{"name":"hash","type":"bytes32","indexed":true,"internalType":"bytes32"},{"name":"key","type":"string","indexed":false,"internalType":"string"}],"anonymous":false},{"type":"event","name":"MetadataUpdated","inputs":[{"name":"hash","type":"bytes32","indexed":true,"internalType":"bytes32"},{"name":"key","type":"string","indexed":false,"internalType":"string"},{"name":"value","type":"string","indexed":false,"internalType":"string"}],"anonymous":false},{"type":"event","name":"RoleAdminChanged","inputs":[{"name":"role","type":"bytes32","indexed":true,"internalType":"bytes32"},{"name":"previousAdminRole","type":"bytes32","indexed":true,"internalType":"bytes32"},{"name":"newAdminRole","type":"bytes32","indexed":true,"internalType":"bytes32"}],"anonymous":false},{"type":"event","name":"RoleGranted","inputs":[{"name":"role","type":"bytes32","indexed":true,"internalType":"bytes32"},{"name":"account","type":"address","indexed":true,"internalType":"address"},{"name":"sender","type":"address","indexed":true,"internalType":"address"}],"anonymous":false},{"type":"event","name":"RoleRevoked","inputs":[{"name":"role","type":"bytes32","indexed":true,"internalType":"bytes32"},{"name":"account","type":"address","indexed":true,"internalType":"address"},{"name":"sender","type":"address","indexed":true,"internalType":"address"}],"anonymous":false},{"type":"event","name":"Transfer","inputs":[{"name":"from","type":"address","indexed":true,"internalType":"address"},{"name":"to","type":"address","indexed":true,"internalType":"address"},{"name":"value","type":"uint256","indexed":false,"internalType":"uint256"}],"anonymous":false},{"type":"event","name":"Upgraded","inputs":[{"name":"implementation","type":"address","indexed":true,"internalType":"address"}],"anonymous":false},{"type":"error","name":"AccessControlBadConfirmation","inputs":[]},{"type":"error","name":"AccessControlUnauthorizedAccount","inputs":[{"name":"account","type":"address","internalType":"address"},{"name":"neededRole","type":"bytes32","internalType":"bytes32"}]},{"type":"error","name":"AddressEmptyCode","inputs":[{"name":"target","type":"address","internalType":"address"}]},{"type":"error","name":"ERC1967InvalidImplementation","inputs":[{"name":"implementation","type":"address","internalType":"address"}]},{"type":"error","name":"ERC1967NonPayable","inputs":[]},{"type":"error","name":"ERC20InsufficientAllowance","inputs":[{"name":"spender","type":"address","internalType":"address"},{"name":"allowance","type":"uint256","internalType":"uint256"},{"name":"needed","type":"uint256","internalType":"uint256"}]},{"type":"error","name":"ERC20InsufficientBalance","inputs":[{"name":"sender","type":"address","internalType":"address"},{"name":"balance","type":"uint256","internalType":"uint256"},{"name":"needed","type":"uint256","internalType":"uint256"}]},{"type":"error","name":"ERC20InvalidApprover","inputs":[{"name":"approver","type":"address","internalType":"address"}]},{"type":"error","name":"ERC20InvalidReceiver","inputs":[{"name":"receiver","type":"address","internalType":"address"}]},{"type":"error","name":"ERC20InvalidSender","inputs":[{"name":"sender","type":"address","internalType":"address"}]},{"type":"error","name":"ERC20InvalidSpender","inputs":[{"name":"spender","type":"address","internalType":"address"}]},{"type":"error","name":"FailedCall","inputs":[]},{"type":"error","name":"InvalidInitialization","inputs":[]},{"type":"error","name":"NotInitializing","inputs":[]},{"type":"error","name":"UUPSUnauthorizedCallContext","inputs":[]},{"type":"error","name":"UUPSUnsupportedProxiableUUID","inputs":[{"name":"slot","type":"bytes32","internalType":"bytes32"}]}],"bytecode":{"object":"0x60a080604052346100c257306080525f5160206140865f395f51905f525460ff8160401c166100b3576002600160401b03196001600160401b03821601610060575b604051613fbf90816100c78239608051818181610f7b015261106e0152f35b6001600160401b0319166001600160401b039081175f5160206140865f395f51905f525581527fc7f505b2f371ae2175ee4913f4499e1f2633a7b5936321eed1cdaeb6115181d290602090a15f80610041565b63f92ee8a960e01b5f5260045ffd5b5f80fdfe6080806040526004361015610012575f80fd5b5f3560e01c90816301ffc9a714612a1f5750806305daf368146129e257806306fdde03146128e1578063095ea7b3146128135780630e1ae91b1461278957806318160ddd1461272f57806323b872dd14612527578063248a9ca3146124b75780632f2ff15d1461243c578063313ce56714612403578063358410d51461239357806336568abe1461230b5780633dc3c17514611f7157806347a52eac1461136e5780634f1ef28614610ff357806352d1902d14610f365780635a45403414610e9f5780635cb0e05a14610e625780635e59715614610e1a5780635fe8e7cc14610c2357806370a0823114610ba157806384b0196e1461081b57806391d148541461078757806395d89b4114610643578063a020731d146105f6578063a217fddf146105be578063a9059cbb1461056f578063ad3cb1cc146104f2578063b719d45a14610490578063b93f3f3414610444578063d11a1f071461038c578063d547741f1461030a578063d9a19635146102b9578063dd62ed3e146102085763e5e0a25d1461019d575f80fd5b346102045760407ffffffffffffffffffffffffffffffffffffffffffffffffffffffffffffffffc3601126102045760243567ffffffffffffffff8111610204576101fa6101f16020923690600401612ce0565b906004356131c3565b6040519015158152f35b5f80fd5b346102045760407ffffffffffffffffffffffffffffffffffffffffffffffffffffffffffffffffc3601126102045761023f612bbb565b73ffffffffffffffffffffffffffffffffffffffff6102a361025f612bde565b9273ffffffffffffffffffffffffffffffffffffffff165f527f52c63247e1f47db19d5ce0460030c497f067ca4cebf71ba98eeadabe20bace0160205260405f2090565b91165f52602052602060405f2054604051908152f35b34610204575f7ffffffffffffffffffffffffffffffffffffffffffffffffffffffffffffffffc360112610204576103066102fa6102f561388d565b612fad565b60405191829182612b1e565b0390f35b346102045760407ffffffffffffffffffffffffffffffffffffffffffffffffffffffffffffffffc3601126102045761038a600435610347612bde565b90610385610380825f527f02dd7bc7dec4dceedda775e58dd541e08a116c6c53815c0bd028192f7b626800602052600160405f20015490565b613402565b613785565b005b346102045760207ffffffffffffffffffffffffffffffffffffffffffffffffffffffffffffffffc3601126102045760043567ffffffffffffffff8111610204576104296104306020806103fc6103ea610306963690600401612ce0565b91906103f461388d565b923691612c5e565b905f525f825260405f20604051938285935191829101845e82019081520301902060405192838092612ef9565b0382612c1d565b604051918291602083526020830190612adb565b34610204575f7ffffffffffffffffffffffffffffffffffffffffffffffffffffffffffffffffc3601126102045761047a61388d565b5f526001602052602060405f2054604051908152f35b346102045760207ffffffffffffffffffffffffffffffffffffffffffffffffffffffffffffffffc3601126102045760043567ffffffffffffffff8111610204576101fa6104e46020923690600401612ce0565b906104ed61388d565b6131c3565b34610204575f7ffffffffffffffffffffffffffffffffffffffffffffffffffffffffffffffffc36011261020457610306604051610531604082612c1d565b600581527f352e302e300000000000000000000000000000000000000000000000000000006020820152604051918291602083526020830190612adb565b346102045760407ffffffffffffffffffffffffffffffffffffffffffffffffffffffffffffffffc360112610204576105b36105a9612bbb565b60243590336131f1565b602060405160018152f35b34610204575f7ffffffffffffffffffffffffffffffffffffffffffffffffffffffffffffffffc3601126102045760206040515f8152f35b34610204575f7ffffffffffffffffffffffffffffffffffffffffffffffffffffffffffffffffc3601126102045761030661063761063261388d565b61315b565b60405191829182612de3565b34610204575f7ffffffffffffffffffffffffffffffffffffffffffffffffffffffffffffffffc360112610204576040515f7f52c63247e1f47db19d5ce0460030c497f067ca4cebf71ba98eeadabe20bace04546106a081612ea8565b808452906001811690811561074557506001146106c8575b6103068361043081850382612c1d565b7f52c63247e1f47db19d5ce0460030c497f067ca4cebf71ba98eeadabe20bace045f9081527f46a2803e59a4de4e7a4c574b1243f25977ac4c77d5a1a4a609b5394cebb4a2aa939250905b80821061072b575090915081016020016104306106b8565b919260018160209254838588010152019101909291610713565b7fffffffffffffffffffffffffffffffffffffffffffffffffffffffffffffff001660208086019190915291151560051b8401909101915061043090506106b8565b346102045760407ffffffffffffffffffffffffffffffffffffffffffffffffffffffffffffffffc360112610204576107be612bde565b6004355f527f02dd7bc7dec4dceedda775e58dd541e08a116c6c53815c0bd028192f7b62680060205273ffffffffffffffffffffffffffffffffffffffff60405f2091165f52602052602060ff60405f2054166040519015158152f35b34610204575f7ffffffffffffffffffffffffffffffffffffffffffffffffffffffffffffffffc360112610204577fa16a46d94261c7517cc8ff89f61c0ce93598e3c849801011dee649a6a557d100541580610b78575b15610b1a576040517fa16a46d94261c7517cc8ff89f61c0ce93598e3c849801011dee649a6a557d10254815f6108a783612ea8565b8083529260018116908115610add5750600114610a5f575b6108cb92500382612c1d565b604051905f7fa16a46d94261c7517cc8ff89f61c0ce93598e3c849801011dee649a6a557d103546108fb81612ea8565b8085529060018116908115610a1f57506001146109a8575b508261092761097a94610306930382612c1d565b61098860405191610939602084612c1d565b5f83525f3681376040519586957f0f00000000000000000000000000000000000000000000000000000000000000875260e0602088015260e0870190612adb565b908582036040870152612adb565b904660608501523060808501525f60a085015283820360c0850152612e60565b7fa16a46d94261c7517cc8ff89f61c0ce93598e3c849801011dee649a6a557d1035f90815291507f5f9ce34815f8e11431c7bb75a8e6886a91478f7ffc1dbb0a98dc240fddd76b755b818310610a05575050820160200182610913565b6001816020929493945483858901015201910191906109f1565b7fffffffffffffffffffffffffffffffffffffffffffffffffffffffffffffff001660208087019190915291151560051b85019091019150839050610913565b507fa16a46d94261c7517cc8ff89f61c0ce93598e3c849801011dee649a6a557d1025f90815290917f42ad5d3e1f2e6e70edcf6d991b8a3023d3fca8047a131592f9edb9fd9b89d57d5b818310610ac15750509060206108cb928201016108bf565b6020919350806001915483858801015201910190918392610aa9565b602092506108cb9491507fffffffffffffffffffffffffffffffffffffffffffffffffffffffffffffff001682840152151560051b8201016108bf565b60646040517f08c379a000000000000000000000000000000000000000000000000000000000815260206004820152601560248201527f4549503731323a20556e696e697469616c697a656400000000000000000000006044820152fd5b507fa16a46d94261c7517cc8ff89f61c0ce93598e3c849801011dee649a6a557d1015415610872565b346102045760207ffffffffffffffffffffffffffffffffffffffffffffffffffffffffffffffffc3601126102045773ffffffffffffffffffffffffffffffffffffffff610bed612bbb565b165f527f52c63247e1f47db19d5ce0460030c497f067ca4cebf71ba98eeadabe20bace00602052602060405f2054604051908152f35b34610204575f7ffffffffffffffffffffffffffffffffffffffffffffffffffffffffffffffffc36011261020457600354610c5d81612d0e565b610c6a6040519182612c1d565b818152610c7682612d0e565b917fffffffffffffffffffffffffffffffffffffffffffffffffffffffffffffffe0602083019301368437610caa81612d0e565b90610cb86040519283612c1d565b8082527fffffffffffffffffffffffffffffffffffffffffffffffffffffffffffffffe0610ce582612d0e565b013660208401376003545f5b828110610d5b5750505060405191604083019060408452518091526060830193905f5b818110610d2f57848061030688878382036020850152612e60565b825173ffffffffffffffffffffffffffffffffffffffff16865260209586019590920191600101610d14565b81811015610ded5760035f527fc2575a0e9e593c00f959f8c92f12db2869c3395a3b0502d05e2516446f71f85b8101546001919073ffffffffffffffffffffffffffffffffffffffff1680610db08389612f99565b525f527f52c63247e1f47db19d5ce0460030c497f067ca4cebf71ba98eeadabe20bace0060205260405f2054610de68287612f99565b5201610cf1565b7f4e487b71000000000000000000000000000000000000000000000000000000005f52603260045260245ffd5b346102045760207ffffffffffffffffffffffffffffffffffffffffffffffffffffffffffffffffc360112610204576004355f526001602052602060405f2054604051908152f35b346102045760207ffffffffffffffffffffffffffffffffffffffffffffffffffffffffffffffffc3601126102045761030661063760043561315b565b346102045760207ffffffffffffffffffffffffffffffffffffffffffffffffffffffffffffffffc3601126102045760043567ffffffffffffffff8111610204573660238201121561020457806004013567ffffffffffffffff8111610204573660248260051b8401011161020457610f3061038a92610f1d61339a565b610f2561388d565b926024369201612d26565b90613b59565b34610204575f7ffffffffffffffffffffffffffffffffffffffffffffffffffffffffffffffffc3601126102045773ffffffffffffffffffffffffffffffffffffffff7f0000000000000000000000000000000000000000000000000000000000000000163003610fcb5760206040517f360894a13ba1a3210667c828492db98dca3e2076cc3735a920a3ca505d382bbc8152f35b7fe07c8dba000000000000000000000000000000000000000000000000000000005f5260045ffd5b60407ffffffffffffffffffffffffffffffffffffffffffffffffffffffffffffffffc36011261020457611025612bbb565b60243567ffffffffffffffff8111610204573660238201121561020457611056903690602481600401359101612c5e565b9073ffffffffffffffffffffffffffffffffffffffff7f00000000000000000000000000000000000000000000000000000000000000001680301490811561132c575b50610fcb57335f9081527fab71e3f32666744d246edff3f96e4bdafee2e9867098cdd118a979a7464786a8602052604090205460ff16156112dc5773ffffffffffffffffffffffffffffffffffffffff8116916040517f52d1902d000000000000000000000000000000000000000000000000000000008152602081600481875afa5f91816112a8575b5061115457837f4c9c8ce3000000000000000000000000000000000000000000000000000000005f5260045260245ffd5b807f360894a13ba1a3210667c828492db98dca3e2076cc3735a920a3ca505d382bbc85920361127d5750823b1561125257807fffffffffffffffffffffffff00000000000000000000000000000000000000007f360894a13ba1a3210667c828492db98dca3e2076cc3735a920a3ca505d382bbc5416177f360894a13ba1a3210667c828492db98dca3e2076cc3735a920a3ca505d382bbc557fbc7cd75a20ee27fd9adebab32041f755214dbc6bffa90cc0225b39da2e5c2d3b5f80a28051156112215761038a91613d12565b50503461122a57005b7fb398979f000000000000000000000000000000000000000000000000000000005f5260045ffd5b7f4c9c8ce3000000000000000000000000000000000000000000000000000000005f5260045260245ffd5b7faa1d49a4000000000000000000000000000000000000000000000000000000005f5260045260245ffd5b9091506020813d6020116112d4575b816112c460209383612c1d565b8101031261020457519085611123565b3d91506112b7565b7fe2517d3f000000000000000000000000000000000000000000000000000000005f52336004527f189ab7a9244df0848122154315af71fe140f3db0fe014031783b0946b8c9d2e360245260445ffd5b905073ffffffffffffffffffffffffffffffffffffffff7f360894a13ba1a3210667c828492db98dca3e2076cc3735a920a3ca505d382bbc5416141583611099565b34610204576101007ffffffffffffffffffffffffffffffffffffffffffffffffffffffffffffffffc3601126102045760043567ffffffffffffffff8111610204576113be903690600401612cc2565b60243567ffffffffffffffff8111610204576113de903690600401612cc2565b60443560843573ffffffffffffffffffffffffffffffffffffffff811681036102045760a43573ffffffffffffffffffffffffffffffffffffffff811681036102045760c4359073ffffffffffffffffffffffffffffffffffffffff82168092036102045760e43567ffffffffffffffff8111610204573660238201121561020457611474903690602481600401359101612d26565b927ff0c57e16840df040f15088dc2f81fe391c3923bec73e23a9662efc9c229c6a00549560ff8760401c16159667ffffffffffffffff811680159081611f69575b6001149081611f5f575b159081611f56575b50611f2e578760017fffffffffffffffffffffffffffffffffffffffffffffffff00000000000000008316177ff0c57e16840df040f15088dc2f81fe391c3923bec73e23a9662efc9c229c6a0055611ed9575b50611523613cbb565b61152b613cbb565b875167ffffffffffffffff8111611bec576115908161156a7f52c63247e1f47db19d5ce0460030c497f067ca4cebf71ba98eeadabe20bace0354612ea8565b7f52c63247e1f47db19d5ce0460030c497f067ca4cebf71ba98eeadabe20bace036138c5565b6020601f8211600114611dfa5790806115db925f91611def575b507fffffffffffffffffffffffffffffffffffffffffffffffffffffffffffffffff8260011b9260031b1c19161790565b7f52c63247e1f47db19d5ce0460030c497f067ca4cebf71ba98eeadabe20bace03555b80519067ffffffffffffffff8211611bec576116648261163e7f52c63247e1f47db19d5ce0460030c497f067ca4cebf71ba98eeadabe20bace0454612ea8565b7f52c63247e1f47db19d5ce0460030c497f067ca4cebf71ba98eeadabe20bace046138c5565b602090601f8311600114611d0f576116b192915f9183611d04575b50507fffffffffffffffffffffffffffffffffffffffffffffffffffffffffffffffff8260011b9260031b1c19161790565b7f52c63247e1f47db19d5ce0460030c497f067ca4cebf71ba98eeadabe20bace04555b6040968751906116e48983612c1d565b600182527f31000000000000000000000000000000000000000000000000000000000000006020830152611716613cbb565b61171e613cbb565b80519067ffffffffffffffff8211611bec576117848261175e7fa16a46d94261c7517cc8ff89f61c0ce93598e3c849801011dee649a6a557d10254612ea8565b7fa16a46d94261c7517cc8ff89f61c0ce93598e3c849801011dee649a6a557d1026138c5565b602090601f8311600114611c24576117d092915f9183611c195750507fffffffffffffffffffffffffffffffffffffffffffffffffffffffffffffffff8260011b9260031b1c19161790565b7fa16a46d94261c7517cc8ff89f61c0ce93598e3c849801011dee649a6a557d102555b80519067ffffffffffffffff8211611bec57611859826118337fa16a46d94261c7517cc8ff89f61c0ce93598e3c849801011dee649a6a557d10354612ea8565b7fa16a46d94261c7517cc8ff89f61c0ce93598e3c849801011dee649a6a557d1036138c5565b602090601f8311600114611b045782611922936119289695936118ae935f92611af95750507fffffffffffffffffffffffffffffffffffffffffffffffffffffffffffffffff8260011b9260031b1c19161790565b7fa16a46d94261c7517cc8ff89f61c0ce93598e3c849801011dee649a6a557d103555b5f7fa16a46d94261c7517cc8ff89f61c0ce93598e3c849801011dee649a6a557d100555f7fa16a46d94261c7517cc8ff89f61c0ce93598e3c849801011dee649a6a557d10155606435600255613488565b5061356f565b508015611acd577f52c63247e1f47db19d5ce0460030c497f067ca4cebf71ba98eeadabe20bace025490838201809211611aa057805f7fddf252ad1be2c89b69c2b068fc378daa952ba7f163c4a11628f55a4df523b3ef6020611a08976119e5967f52c63247e1f47db19d5ce0460030c497f067ca4cebf71ba98eeadabe20bace02558484527f52c63247e1f47db19d5ce0460030c497f067ca4cebf71ba98eeadabe20bace0082528a84208181540190558a51908152a3613f34565b5060025484516020810191825260208152611a008682612c1d565b519020613b59565b611a0e57005b60207fc7f505b2f371ae2175ee4913f4499e1f2633a7b5936321eed1cdaeb6115181d2917fffffffffffffffffffffffffffffffffffffffffffffff00ffffffffffffffff7ff0c57e16840df040f15088dc2f81fe391c3923bec73e23a9662efc9c229c6a0054167ff0c57e16840df040f15088dc2f81fe391c3923bec73e23a9662efc9c229c6a00555160018152a1005b7f4e487b71000000000000000000000000000000000000000000000000000000005f52601160045260245ffd5b7fec442f05000000000000000000000000000000000000000000000000000000005f525f60045260245ffd5b015190508c8061167f565b907fffffffffffffffffffffffffffffffffffffffffffffffffffffffffffffffe08316917fa16a46d94261c7517cc8ff89f61c0ce93598e3c849801011dee649a6a557d1035f52815f20925f5b818110611bd457509260019285926119229661192899989610611b9d575b505050811b017fa16a46d94261c7517cc8ff89f61c0ce93598e3c849801011dee649a6a557d103556118d1565b01517fffffffffffffffffffffffffffffffffffffffffffffffffffffffffffffffff60f88460031b161c191690558b8080611b70565b92936020600181928786015181550195019301611b52565b7f4e487b71000000000000000000000000000000000000000000000000000000005f52604160045260245ffd5b015190508b8061167f565b907fffffffffffffffffffffffffffffffffffffffffffffffffffffffffffffffe08316917fa16a46d94261c7517cc8ff89f61c0ce93598e3c849801011dee649a6a557d1025f52815f20925f5b818110611cec5750908460019594939210611cb5575b505050811b017fa16a46d94261c7517cc8ff89f61c0ce93598e3c849801011dee649a6a557d102556117f3565b01517fffffffffffffffffffffffffffffffffffffffffffffffffffffffffffffffff60f88460031b161c191690558a8080611c88565b92936020600181928786015181550195019301611c72565b015190508a8061167f565b907fffffffffffffffffffffffffffffffffffffffffffffffffffffffffffffffe08316917f52c63247e1f47db19d5ce0460030c497f067ca4cebf71ba98eeadabe20bace045f52815f20925f5b818110611dd75750908460019594939210611da0575b505050811b017f52c63247e1f47db19d5ce0460030c497f067ca4cebf71ba98eeadabe20bace04556116d4565b01517fffffffffffffffffffffffffffffffffffffffffffffffffffffffffffffffff60f88460031b161c19169055898080611d73565b92936020600181928786015181550195019301611d5d565b90508a01518b6115aa565b7fffffffffffffffffffffffffffffffffffffffffffffffffffffffffffffffe08216907f52c63247e1f47db19d5ce0460030c497f067ca4cebf71ba98eeadabe20bace035f52805f20915f5b8c828210611ec15750509083600194939210611e8a575b5050811b017f52c63247e1f47db19d5ce0460030c497f067ca4cebf71ba98eeadabe20bace03556115fe565b8b01517fffffffffffffffffffffffffffffffffffffffffffffffffffffffffffffffff60f88460031b161c191690558a80611e5e565b60018495602093958493015181550194019201611e47565b7fffffffffffffffffffffffffffffffffffffffffffffff0000000000000000001668010000000000000001177ff0c57e16840df040f15088dc2f81fe391c3923bec73e23a9662efc9c229c6a00558861151a565b7ff92ee8a9000000000000000000000000000000000000000000000000000000005f5260045ffd5b9050158a6114c7565b303b1591506114bf565b8991506114b5565b346102045760207ffffffffffffffffffffffffffffffffffffffffffffffffffffffffffffffffc3601126102045760043567ffffffffffffffff811161020457611fc0903690600401612ce0565b90611fc961339a565b611fd161388d565b91825f525f602052611ffb60405f2060206040518092858783378582019081520301902054612ea8565b156122ad57825f525f60205260405f2060206040518092848683378482019081520301902061202a8154612ea8565b908161226a575b5050825f52600160205260405f20905f5b82548082101561223d5761042961206961205c8487612e93565b5060405192838092612ef9565b6020815191012061207b368588612c5e565b60208151910120146120905750600101612042565b7fffffffffffffffffffffffffffffffffffffffffffffffffffffffffffffffff819593949501908111611aa0576120cb6120d39186612e93565b509185612e93565b9190916121e4576120e39161390a565b82548015612210577fffffffffffffffffffffffffffffffffffffffffffffffffffffffffffffffff01906121188285612e93565b9290926121e4577fca45c60cf1bbd58b2ac673da0d008eb3606c36e814e8d7fe0df3a3e53ecc59b7948361214e60409554612ea8565b90816121a1575b5050555b7fffffffffffffffffffffffffffffffffffffffffffffffffffffffffffffffe0601f84845195869460208652816020870152868601375f85828601015201168101030190a2005b81601f5f93116001146121b85750555b8780612155565b818352602083206121d491601f0160051c8101906001016138af565b80825281602081209155556121b1565b7f4e487b71000000000000000000000000000000000000000000000000000000005f525f60045260245ffd5b7f4e487b71000000000000000000000000000000000000000000000000000000005f52603160045260245ffd5b5050905060407fca45c60cf1bbd58b2ac673da0d008eb3606c36e814e8d7fe0df3a3e53ecc59b792612159565b81601f5f93116001146122815750555b8380612031565b8183526020832061229d91601f0160051c8101906001016138af565b808252816020812091555561227a565b60646040517f08c379a000000000000000000000000000000000000000000000000000000000815260206004820152601260248201527f4b657920646f6573206e6f7420657869737400000000000000000000000000006044820152fd5b346102045760407ffffffffffffffffffffffffffffffffffffffffffffffffffffffffffffffffc36011261020457612342612bde565b3373ffffffffffffffffffffffffffffffffffffffff82160361236b5761038a90600435613785565b7f6697b232000000000000000000000000000000000000000000000000000000005f5260045ffd5b34610204575f7ffffffffffffffffffffffffffffffffffffffffffffffffffffffffffffffffc36011261020457602073ffffffffffffffffffffffffffffffffffffffff7f360894a13ba1a3210667c828492db98dca3e2076cc3735a920a3ca505d382bbc5416604051908152f35b34610204575f7ffffffffffffffffffffffffffffffffffffffffffffffffffffffffffffffffc36011261020457602060405160128152f35b346102045760407ffffffffffffffffffffffffffffffffffffffffffffffffffffffffffffffffc3601126102045761038a600435612479612bde565b906124b2610380825f527f02dd7bc7dec4dceedda775e58dd541e08a116c6c53815c0bd028192f7b626800602052600160405f20015490565b613673565b346102045760207ffffffffffffffffffffffffffffffffffffffffffffffffffffffffffffffffc36011261020457602061251f6004355f527f02dd7bc7dec4dceedda775e58dd541e08a116c6c53815c0bd028192f7b626800602052600160405f20015490565b604051908152f35b346102045760607ffffffffffffffffffffffffffffffffffffffffffffffffffffffffffffffffc3601126102045761255e612bbb565b612566612bde565b604435906125b18373ffffffffffffffffffffffffffffffffffffffff165f527f52c63247e1f47db19d5ce0460030c497f067ca4cebf71ba98eeadabe20bace0160205260405f2090565b73ffffffffffffffffffffffffffffffffffffffff33165f5260205260405f2054927fffffffffffffffffffffffffffffffffffffffffffffffffffffffffffffffff8410612605575b6105b393506131f1565b8284106126fb5773ffffffffffffffffffffffffffffffffffffffff8116156126cf5733156126a3576105b3936126798273ffffffffffffffffffffffffffffffffffffffff165f527f52c63247e1f47db19d5ce0460030c497f067ca4cebf71ba98eeadabe20bace0160205260405f2090565b73ffffffffffffffffffffffffffffffffffffffff33165f526020528360405f20910390556125fb565b7f94280d62000000000000000000000000000000000000000000000000000000005f525f60045260245ffd5b7fe602df05000000000000000000000000000000000000000000000000000000005f525f60045260245ffd5b82847ffb8f41b2000000000000000000000000000000000000000000000000000000005f523360045260245260445260645ffd5b34610204575f7ffffffffffffffffffffffffffffffffffffffffffffffffffffffffffffffffc3601126102045760207f52c63247e1f47db19d5ce0460030c497f067ca4cebf71ba98eeadabe20bace0254604051908152f35b346102045760407ffffffffffffffffffffffffffffffffffffffffffffffffffffffffffffffffc3601126102045760243567ffffffffffffffff8111610204576104296104306020806127e4610306953690600401612cc2565b6004355f525f825260405f20604051938285935191829101845e82019081520301902060405192838092612ef9565b346102045760407ffffffffffffffffffffffffffffffffffffffffffffffffffffffffffffffffc3601126102045761284a612bbb565b6024359033156126cf5773ffffffffffffffffffffffffffffffffffffffff169081156126a357335f9081527f52c63247e1f47db19d5ce0460030c497f067ca4cebf71ba98eeadabe20bace0160205260409020825f526020528060405f20556040519081527f8c5be1e5ebec7d5bd14f71427d1e84f3dd0314c0f7b2291e5b200ac8c7c3b92560203392a3602060405160018152f35b34610204575f7ffffffffffffffffffffffffffffffffffffffffffffffffffffffffffffffffc360112610204576040515f7f52c63247e1f47db19d5ce0460030c497f067ca4cebf71ba98eeadabe20bace035461293e81612ea8565b80845290600181169081156107455750600114612965576103068361043081850382612c1d565b7f52c63247e1f47db19d5ce0460030c497f067ca4cebf71ba98eeadabe20bace035f9081527f2ae08a8e29253f69ac5d979a101956ab8f8d9d7ded63fa7a83b16fc47648eab0939250905b8082106129c8575090915081016020016104306106b8565b9192600181602092548385880101520191019092916129b0565b346102045760207ffffffffffffffffffffffffffffffffffffffffffffffffffffffffffffffffc360112610204576103066102fa600435612fad565b346102045760207ffffffffffffffffffffffffffffffffffffffffffffffffffffffffffffffffc36011261020457600435907fffffffff00000000000000000000000000000000000000000000000000000000821680920361020457817f7965db0b0000000000000000000000000000000000000000000000000000000060209314908115612ab1575b5015158152f35b7f01ffc9a70000000000000000000000000000000000000000000000000000000091501483612aaa565b907fffffffffffffffffffffffffffffffffffffffffffffffffffffffffffffffe0601f602080948051918291828752018686015e5f8582860101520116010190565b602081016020825282518091526040820191602060408360051b8301019401925f915b838310612b5057505050505090565b9091929394602080612bac837fffffffffffffffffffffffffffffffffffffffffffffffffffffffffffffffc0866001960301875289519083612b9c8351604084526040840190612adb565b9201519084818403910152612adb565b97019301930191939290612b41565b6004359073ffffffffffffffffffffffffffffffffffffffff8216820361020457565b6024359073ffffffffffffffffffffffffffffffffffffffff8216820361020457565b6040810190811067ffffffffffffffff821117611bec57604052565b90601f7fffffffffffffffffffffffffffffffffffffffffffffffffffffffffffffffe0910116810190811067ffffffffffffffff821117611bec57604052565b92919267ffffffffffffffff8211611bec5760405191612ca6601f82017fffffffffffffffffffffffffffffffffffffffffffffffffffffffffffffffe01660200184612c1d565b829481845281830111610204578281602093845f960137010152565b9080601f8301121561020457816020612cdd93359101612c5e565b90565b9181601f840112156102045782359167ffffffffffffffff8311610204576020838186019501011161020457565b67ffffffffffffffff8111611bec5760051b60200190565b92919092612d3384612d0e565b93612d416040519586612c1d565b602085828152019060051b8201918383116102045780915b838310612d67575050505050565b823567ffffffffffffffff81116102045782016040818703126102045760405191612d9183612c01565b813567ffffffffffffffff81116102045787612dae918401612cc2565b835260208201359267ffffffffffffffff841161020457612dd488602095869501612cc2565b83820152815201920191612d59565b602081016020825282518091526040820191602060408360051b8301019401925f915b838310612e1557505050505090565b9091929394602080612e51837fffffffffffffffffffffffffffffffffffffffffffffffffffffffffffffffc086600196030187528951612adb565b97019301930191939290612e06565b90602080835192838152019201905f5b818110612e7d5750505090565b8251845260209384019390920191600101612e70565b8054821015610ded575f5260205f2001905f90565b90600182811c92168015612eef575b6020831014612ec257565b7f4e487b71000000000000000000000000000000000000000000000000000000005f52602260045260245ffd5b91607f1691612eb7565b5f9291815491612f0883612ea8565b8083529260018116908115612f5d5750600114612f2457505050565b5f9081526020812093945091925b838310612f43575060209250010190565b600181602092949394548385870101520191019190612f32565b905060209495507fffffffffffffffffffffffffffffffffffffffffffffffffffffffffffffff0091509291921683830152151560051b010190565b8051821015610ded5760209160051b010190565b90815f52600160205260405f208054612fc581612d0e565b612fd26040519182612c1d565b8181527fffffffffffffffffffffffffffffffffffffffffffffffffffffffffffffffe0612fff83612d0e565b015f5b81811061313657505080945f5b83811061301d575050505050565b6130278186612e93565b50825f525f60205260405f2061303d8388612e93565b50604051915f9180549061305082612ea8565b916001811690811561310057506001146130cb575b50508260206001969594846130aa9461042996520301902061042961309c6040519561309087612c01565b60405192838092612ef9565b845260405192838092612ef9565b60208201526130b98286612f99565b526130c48185612f99565b500161300f565b909192505f5260205f205f905b8282106130ec575050820190826020613065565b6001816020925484880152019101906130d8565b7fffffffffffffffffffffffffffffffffffffffffffffffffffffffffffffff0016865250508015150283019150826020613065565b60209060405161314581612c01565b6060815260608382015282828601015201613002565b5f52600160205260405f20805461317181612d0e565b9161317f6040519384612c1d565b81835260208301905f5260205f205f915b83831061319e575050505090565b6001602081926040516131b5816104298189612ef9565b815201920192019190613190565b6131ec92916020915f525f825260405f2083604051948593843782019081520301902054612ea8565b151590565b91929173ffffffffffffffffffffffffffffffffffffffff1690811561336e5773ffffffffffffffffffffffffffffffffffffffff16908115611acd57805f527f52c63247e1f47db19d5ce0460030c497f067ca4cebf71ba98eeadabe20bace0060205260405f205484811061333b57817fddf252ad1be2c89b69c2b068fc378daa952ba7f163c4a11628f55a4df523b3ef60208761332897988795855f527f52c63247e1f47db19d5ce0460030c497f067ca4cebf71ba98eeadabe20bace0084520360405f2055845f527f52c63247e1f47db19d5ce0460030c497f067ca4cebf71ba98eeadabe20bace00825260405f20818154019055604051908152a3805f527f52c63247e1f47db19d5ce0460030c497f067ca4cebf71ba98eeadabe20bace0060205260405f20541561332b575b50613f34565b50565b61333490613dd9565b505f613322565b84917fe450d38c000000000000000000000000000000000000000000000000000000005f5260045260245260445260645ffd5b7f96c6fd1e000000000000000000000000000000000000000000000000000000005f525f60045260245ffd5b335f9081527fb7db2dd08fcb62d0c9e08c51941cae53c267786a0b75803fb7960902fc8ef97d602052604090205460ff16156133d257565b7fe2517d3f000000000000000000000000000000000000000000000000000000005f52336004525f60245260445ffd5b805f527f02dd7bc7dec4dceedda775e58dd541e08a116c6c53815c0bd028192f7b62680060205260405f2073ffffffffffffffffffffffffffffffffffffffff33165f5260205260ff60405f205416156134595750565b7fe2517d3f000000000000000000000000000000000000000000000000000000005f523360045260245260445ffd5b73ffffffffffffffffffffffffffffffffffffffff81165f9081527fb7db2dd08fcb62d0c9e08c51941cae53c267786a0b75803fb7960902fc8ef97d602052604090205460ff1661356a5773ffffffffffffffffffffffffffffffffffffffff165f8181527fb7db2dd08fcb62d0c9e08c51941cae53c267786a0b75803fb7960902fc8ef97d6020526040812080547fffffffffffffffffffffffffffffffffffffffffffffffffffffffffffffff001660011790553391907f2f8788117e7eff1d82e926ec794901d17c78024a50270940304540a733656f0d8180a4600190565b505f90565b73ffffffffffffffffffffffffffffffffffffffff81165f9081527fab71e3f32666744d246edff3f96e4bdafee2e9867098cdd118a979a7464786a8602052604090205460ff1661356a5773ffffffffffffffffffffffffffffffffffffffff165f8181527fab71e3f32666744d246edff3f96e4bdafee2e9867098cdd118a979a7464786a86020526040812080547fffffffffffffffffffffffffffffffffffffffffffffffffffffffffffffff001660011790553391907f189ab7a9244df0848122154315af71fe140f3db0fe014031783b0946b8c9d2e3907f2f8788117e7eff1d82e926ec794901d17c78024a50270940304540a733656f0d9080a4600190565b805f527f02dd7bc7dec4dceedda775e58dd541e08a116c6c53815c0bd028192f7b62680060205260405f2073ffffffffffffffffffffffffffffffffffffffff83165f5260205260ff60405f205416155f1461377f57805f527f02dd7bc7dec4dceedda775e58dd541e08a116c6c53815c0bd028192f7b62680060205260405f2073ffffffffffffffffffffffffffffffffffffffff83165f5260205260405f2060017fffffffffffffffffffffffffffffffffffffffffffffffffffffffffffffff0082541617905573ffffffffffffffffffffffffffffffffffffffff339216907f2f8788117e7eff1d82e926ec794901d17c78024a50270940304540a733656f0d5f80a4600190565b50505f90565b805f527f02dd7bc7dec4dceedda775e58dd541e08a116c6c53815c0bd028192f7b62680060205260405f2073ffffffffffffffffffffffffffffffffffffffff83165f5260205260ff60405f2054165f1461377f57805f527f02dd7bc7dec4dceedda775e58dd541e08a116c6c53815c0bd028192f7b62680060205260405f2073ffffffffffffffffffffffffffffffffffffffff83165f5260205260405f207fffffffffffffffffffffffffffffffffffffffffffffffffffffffffffffff00815416905573ffffffffffffffffffffffffffffffffffffffff339216907ff6391f5c32d9c69d2a47ea670b442974b53935d1edc7fd64eb21e047a839171b5f80a4600190565b60025460405160208101918252602081526138a9604082612c1d565b51902090565b8181106138ba575050565b5f81556001016138af565b9190601f81116138d457505050565b6138fe925f5260205f20906020601f840160051c83019310613900575b601f0160051c01906138af565b565b90915081906138f1565b919091828114613a405761391e8354612ea8565b67ffffffffffffffff8111611bec576139418161393b8454612ea8565b846138c5565b5f93601f821160011461399d5761398e92939482915f926139925750507fffffffffffffffffffffffffffffffffffffffffffffffffffffffffffffffff8260011b9260031b1c19161790565b9055565b015490505f8061167f565b7fffffffffffffffffffffffffffffffffffffffffffffffffffffffffffffffe08216905f5260205f2094835f5260205f20915f5b818110613a28575095836001959697106139f1575b505050811b019055565b01547fffffffffffffffffffffffffffffffffffffffffffffffffffffffffffffffff60f88460031b161c191690555f80806139e7565b9192600180602092868b0154815501940192016139d2565b509050565b919091825167ffffffffffffffff8111611bec57613a678161393b8454612ea8565b6020601f8211600114613abf57819061398e9394955f92613ab45750507fffffffffffffffffffffffffffffffffffffffffffffffffffffffffffffffff8260011b9260031b1c19161790565b015190505f8061167f565b7fffffffffffffffffffffffffffffffffffffffffffffffffffffffffffffffe0821690835f52805f20915f5b818110613b4157509583600195969710613b0a57505050811b019055565b01517fffffffffffffffffffffffffffffffffffffffffffffffffffffffffffffffff60f88460031b161c191690555f80806139e7565b9192602060018192868b015181550194019201613aec565b9190915f5b8351811015613cb557815f525f602052613ba260208060405f20613b828589612f99565b515190604051938285935191829101845e82019081520301902054612ea8565b15613bec6020613bb28488612f99565b510151845f525f60205260208060405f20613bcd878b612f99565b515190604051938285935191829101845e820190815203019020613a45565b613c62575b80827fc42c4edbc41dce02b01dd098a1f7a4c685c638d7a2fdfbe449b32e1f89fbfae1613c4b613c2360019589612f99565b5151613c596020613c34878c612f99565b510151604051938493604085526040850190612adb565b908382036020850152612adb565b0390a201613b5e565b815f52600160205260405f2090613c798186612f99565b515191805468010000000000000000811015611bec57613c9e91600182018155612e93565b6121e457600192613cae91613a45565b9050613bf1565b50509050565b60ff7ff0c57e16840df040f15088dc2f81fe391c3923bec73e23a9662efc9c229c6a005460401c1615613cea57565b7fd7e6bcf8000000000000000000000000000000000000000000000000000000005f5260045ffd5b905f8091602081519101845af48080613dc6575b15613d465750506040513d81523d5f602083013e60203d82010160405290565b15613d8d5773ffffffffffffffffffffffffffffffffffffffff907f9996b315000000000000000000000000000000000000000000000000000000005f521660045260245ffd5b3d15613d9e576040513d5f823e3d90fd5b7fd6bda275000000000000000000000000000000000000000000000000000000005f5260045ffd5b503d151580613d265750813b1515613d26565b5f81815260046020526040902054801561377f577fffffffffffffffffffffffffffffffffffffffffffffffffffffffffffffffff8101818111611aa057600354907fffffffffffffffffffffffffffffffffffffffffffffffffffffffffffffffff8201918211611aa057818103613ec7575b5050506003548015612210577fffffffffffffffffffffffffffffffffffffffffffffffffffffffffffffffff01613e86816003612e93565b7fffffffffffffffffffffffffffffffffffffffffffffffffffffffffffffffff82549160031b1b191690556003555f5260046020525f6040812055600190565b613f1e613ed8613ee9936003612e93565b90549060031b1c9283926003612e93565b81939154907fffffffffffffffffffffffffffffffffffffffffffffffffffffffffffffffff9060031b92831b921b19161790565b90555f52600460205260405f20555f8080613e4d565b805f52600460205260405f2054155f1461356a5760035468010000000000000000811015611bec57613f72613ee98260018594016003556003612e93565b9055600354905f52600460205260405f205560019056fea26469706673582212205cb0e50e1c812e152c846966c34297a044192f315ccbaf0890590153618547db64736f6c634300081e0033f0c57e16840df040f15088dc2f81fe391c3923bec73e23a9662efc9c229c6a00","linkReferences":{}},"methodIdentifiers":{"DEFAULT_ADMIN_ROLE()":"a217fddf","UPGRADE_INTERFACE_VERSION()":"ad3cb1cc","allowance(address,address)":"dd62ed3e","approve(address,uint256)":"095ea7b3","balanceOf(address)":"70a08231","decimals()":"313ce567","eip712Domain()":"84b0196e","getAllMetadata()":"d9a19635","getAllMetadata(bytes32)":"05daf368","getAllMetadataKeys()":"a020731d","getAllMetadataKeys(bytes32)":"5cb0e05a","getHolders()":"5fe8e7cc","getMetadata(bytes32,string)":"0e1ae91b","getMetadata(string)":"d11a1f07","getMetadataCount()":"b93f3f34","getMetadataCount(bytes32)":"5e597156","getRoleAdmin(bytes32)":"248a9ca3","getUupsImplementation()":"358410d5","grantRole(bytes32,address)":"2f2ff15d","hasMetadata(bytes32,string)":"e5e0a25d","hasMetadata(string)":"b719d45a","hasRole(bytes32,address)":"91d14854","initialize(string,string,uint256,uint256,address,address,address,(string,string)[])":"47a52eac","name()":"06fdde03","proxiableUUID()":"52d1902d","removeMetadata(string)":"3dc3c175","renounceRole(bytes32,address)":"36568abe","revokeRole(bytes32,address)":"d547741f","setMetadata((string,string)[])":"5a454034","supportsInterface(bytes4)":"01ffc9a7","symbol()":"95d89b41","totalSupply()":"18160ddd","transfer(address,uint256)":"a9059cbb","transferFrom(address,address,uint256)":"23b872dd","upgradeToAndCall(address,bytes)":"4f1ef286"},"storageLayout":{"storage":[{"astId":56680,"contract":"src/AssetERC20.sol:AssetERC20","label":"_metadata","offset":0,"slot":"0","type":"t_mapping(t_bytes32,t_mapping(t_string_memory_ptr,t_string_storage))"},{"astId":56686,"contract":"src/AssetERC20.sol:AssetERC20","label":"_metadataKeys","offset":0,"slot":"1","type":"t_mapping(t_bytes32,t_array(t_string_storage)dyn_storage)"},{"astId":54450,"contract":"src/AssetERC20.sol:AssetERC20","label":"_assetId","offset":0,"slot":"2","type":"t_uint256"},{"astId":54454,"contract":"src/AssetERC20.sol:AssetERC20","label":"_holders","offset":0,"slot":"3","type":"t_struct(AddressSet)53395_storage"}],"types":{"t_array(t_bytes32)dyn_storage":{"encoding":"dynamic_array","label":"bytes32[]","numberOfBytes":"32","base":"t_bytes32"},"t_array(t_string_storage)dyn_storage":{"encoding":"dynamic_array","label":"string[]","numberOfBytes":"32","base":"t_string_storage"},"t_bytes32":{"encoding":"inplace","label":"bytes32","numberOfBytes":"32"},"t_mapping(t_bytes32,t_array(t_string_storage)dyn_storage)":{"encoding":"mapping","key":"t_bytes32","label":"mapping(bytes32 => string[])","numberOfBytes":"32","value":"t_array(t_string_storage)dyn_storage"},"t_mapping(t_bytes32,t_mapping(t_string_memory_ptr,t_string_storage))":{"encoding":"mapping","key":"t_bytes32","label":"mapping(bytes32 => mapping(string => string))","numberOfBytes":"32","value":"t_mapping(t_string_memory_ptr,t_string_storage)"},"t_mapping(t_bytes32,t_uint256)":{"encoding":"mapping","key":"t_bytes32","label":"mapping(bytes32 => uint256)","numberOfBytes":"32","value":"t_uint256"},"t_mapping(t_string_memory_ptr,t_string_storage)":{"encoding":"mapping","key":"t_string_memory_ptr","label":"mapping(string => string)","numberOfBytes":"32","value":"t_string_storage"},"t_string_memory_ptr":{"encoding":"bytes","label":"string","numberOfBytes":"32"},"t_string_storage":{"encoding":"bytes","label":"string","numberOfBytes":"32"},"t_struct(AddressSet)53395_storage":{"encoding":"inplace","label":"struct EnumerableSet.AddressSet","numberOfBytes":"64","members":[{"astId":53394,"contract":"src/AssetERC20.sol:AssetERC20","label":"_inner","offset":0,"slot":"0","type":"t_struct(Set)52909_storage"}]},"t_struct(Set)52909_storage":{"encoding":"inplace","label":"struct EnumerableSet.Set","numberOfBytes":"64","members":[{"astId":52904,"contract":"src/AssetERC20.sol:AssetERC20","label":"_values","offset":0,"slot":"0","type":"t_array(t_bytes32)dyn_storage"},{"astId":52908,"contract":"src/AssetERC20.sol:AssetERC20","label":"_positions","offset":0,"slot":"1","type":"t_mapping(t_bytes32,t_uint256)"}]},"t_uint256":{"encoding":"inplace","label":"uint256","numberOfBytes":"32"}}},"id":65}