{"abi":[{"type":"function","name":"ASSET_ID","inputs":[],"outputs":[{"name":"","type":"uint256","internalType":"uint256"}],"stateMutability":"view"},{"type":"function","name":"DEFAULT_ADMIN_ROLE","inputs":[],"outputs":[{"name":"","type":"bytes32","internalType":"bytes32"}],"stateMutability":"view"},{"type":"function","name":"UPGRADE_INTERFACE_VERSION","inputs":[],"outputs":[{"name":"","type":"string","internalType":"string"}],"stateMutability":"view"},{"type":"function","name":"allowance","inputs":[{"name":"owner","type":"address","internalType":"address"},{"name":"spender","type":"address","internalType":"address"}],"outputs":[{"name":"","type":"uint256","internalType":"uint256"}],"stateMutability":"view"},{"type":"function","name":"approve","inputs":[{"name":"spender","type":"address","internalType":"address"},{"name":"value","type":"uint256","internalType":"uint256"}],"outputs":[{"name":"","type":"bool","internalType":"bool"}],"stateMutability":"nonpayable"},{"type":"function","name":"balanceOf","inputs":[{"name":"account","type":"address","internalType":"address"}],"outputs":[{"name":"","type":"uint256","internalType":"uint256"}],"stateMutability":"view"},{"type":"function","name":"decimals","inputs":[],"outputs":[{"name":"","type":"uint8","internalType":"uint8"}],"stateMutability":"view"},{"type":"function","name":"eip712Domain","inputs":[],"outputs":[{"name":"fields","type":"bytes1","internalType":"bytes1"},{"name":"name","type":"string","internalType":"string"},{"name":"version","type":"string","internalType":"string"},{"name":"chainId","type":"uint256","internalType":"uint256"},{"name":"verifyingContract","type":"address","internalType":"address"},{"name":"salt","type":"bytes32","internalType":"bytes32"},{"name":"extensions","type":"uint256[]","internalType":"uint256[]"}],"stateMutability":"view"},{"type":"function","name":"getAllMetadata","inputs":[{"name":"hash","type":"bytes32","internalType":"bytes32"}],"outputs":[{"name":"metadata","type":"tuple[]","internalType":"struct MetadataStorage.Metadata[]","components":[{"name":"key","type":"string","internalType":"string"},{"name":"value","type":"string","internalType":"string"}]}],"stateMutability":"view"},{"type":"function","name":"getAllMetadata","inputs":[],"outputs":[{"name":"metadata","type":"tuple[]","internalType":"struct MetadataStorage.Metadata[]","components":[{"name":"key","type":"string","internalType":"string"},{"name":"value","type":"string","internalType":"string"}]}],"stateMutability":"view"},{"type":"function","name":"getAllMetadataKeys","inputs":[{"name":"hash","type":"bytes32","internalType":"bytes32"}],"outputs":[{"name":"keys","type":"string[]","internalType":"string[]"}],"stateMutability":"view"},{"type":"function","name":"getAllMetadataKeys","inputs":[],"outputs":[{"name":"keys","type":"string[]","internalType":"string[]"}],"stateMutability":"view"},{"type":"function","name":"getAssetIdHash","inputs":[],"outputs":[{"name":"hash","type":"bytes32","internalType":"bytes32"}],"stateMutability":"view"},{"type":"function","name":"getHolders","inputs":[],"outputs":[{"name":"holders","type":"address[]","internalType":"address[]"},{"name":"balances","type":"uint256[]","internalType":"uint256[]"}],"stateMutability":"view"},{"type":"function","name":"getMetadata","inputs":[{"name":"hash","type":"bytes32","internalType":"bytes32"},{"name":"key","type":"string","internalType":"string"}],"outputs":[{"name":"value","type":"string","internalType":"string"}],"stateMutability":"view"},{"type":"function","name":"getMetadata","inputs":[{"name":"key","type":"string","internalType":"string"}],"outputs":[{"name":"value","type":"string","internalType":"string"}],"stateMutability":"view"},{"type":"function","name":"getMetadataCount","inputs":[{"name":"hash","type":"bytes32","internalType":"bytes32"}],"outputs":[{"name":"count","type":"uint256","internalType":"uint256"}],"stateMutability":"view"},{"type":"function","name":"getMetadataCount","inputs":[],"outputs":[{"name":"count","type":"uint256","internalType":"uint256"}],"stateMutability":"view"},{"type":"function","name":"getRoleAdmin","inputs":[{"name":"role","type":"bytes32","internalType":"bytes32"}],"outputs":[{"name":"","type":"bytes32","internalType":"bytes32"}],"stateMutability":"view"},{"type":"function","name":"getUupsImplementation","inputs":[],"outputs":[{"name":"","type":"address","internalType":"address"}],"stateMutability":"view"},{"type":"function","name":"grantRole","inputs":[{"name":"role","type":"bytes32","internalType":"bytes32"},{"name":"account","type":"address","internalType":"address"}],"outputs":[],"stateMutability":"nonpayable"},{"type":"function","name":"hasMetadata","inputs":[{"name":"key","type":"string","internalType":"string"}],"outputs":[{"name":"exists","type":"bool","internalType":"bool"}],"stateMutability":"view"},{"type":"function","name":"hasMetadata","inputs":[{"name":"hash","type":"bytes32","internalType":"bytes32"},{"name":"key","type":"string","internalType":"string"}],"outputs":[{"name":"exists","type":"bool","internalType":"bool"}],"stateMutability":"view"},{"type":"function","name":"hasRole","inputs":[{"name":"role","type":"bytes32","internalType":"bytes32"},{"name":"account","type":"address","internalType":"address"}],"outputs":[{"name":"","type":"bool","internalType":"bool"}],"stateMutability":"view"},{"type":"function","name":"initialize","inputs":[{"name":"name","type":"string","internalType":"string"},{"name":"symbol","type":"string","internalType":"string"},{"name":"totalSupply","type":"uint256","internalType":"uint256"},{"name":"assetId","type":"uint256","internalType":"uint256"},{"name":"admin","type":"address","internalType":"address"},{"name":"tokenRecipient","type":"address","internalType":"address"},{"name":"metadata","type":"tuple[]","internalType":"struct MetadataStorage.Metadata[]","components":[{"name":"key","type":"string","internalType":"string"},{"name":"value","type":"string","internalType":"string"}]}],"outputs":[],"stateMutability":"nonpayable"},{"type":"function","name":"name","inputs":[],"outputs":[{"name":"","type":"string","internalType":"string"}],"stateMutability":"view"},{"type":"function","name":"proxiableUUID","inputs":[],"outputs":[{"name":"","type":"bytes32","internalType":"bytes32"}],"stateMutability":"view"},{"type":"function","name":"removeMetadata","inputs":[{"name":"hash","type":"bytes32","internalType":"bytes32"},{"name":"key","type":"string","internalType":"string"}],"outputs":[],"stateMutability":"nonpayable"},{"type":"function","name":"removeMetadata","inputs":[{"name":"key","type":"string","internalType":"string"}],"outputs":[],"stateMutability":"nonpayable"},{"type":"function","name":"renounceRole","inputs":[{"name":"role","type":"bytes32","internalType":"bytes32"},{"name":"callerConfirmation","type":"address","internalType":"address"}],"outputs":[],"stateMutability":"nonpayable"},{"type":"function","name":"revokeRole","inputs":[{"name":"role","type":"bytes32","internalType":"bytes32"},{"name":"account","type":"address","internalType":"address"}],"outputs":[],"stateMutability":"nonpayable"},{"type":"function","name":"setMetadata","inputs":[{"name":"hash","type":"bytes32","internalType":"bytes32"},{"name":"metadata_","type":"tuple[]","internalType":"struct MetadataStorage.Metadata[]","components":[{"name":"key","type":"string","internalType":"string"},{"name":"value","type":"string","internalType":"string"}]}],"outputs":[],"stateMutability":"nonpayable"},{"type":"function","name":"setMetadata","inputs":[{"name":"metadata_","type":"tuple[]","internalType":"struct MetadataStorage.Metadata[]","components":[{"name":"key","type":"string","internalType":"string"},{"name":"value","type":"string","internalType":"string"}]}],"outputs":[],"stateMutability":"nonpayable"},{"type":"function","name":"supportsInterface","inputs":[{"name":"interfaceId","type":"bytes4","internalType":"bytes4"}],"outputs":[{"name":"","type":"bool","internalType":"bool"}],"stateMutability":"view"},{"type":"function","name":"symbol","inputs":[],"outputs":[{"name":"","type":"string","internalType":"string"}],"stateMutability":"view"},{"type":"function","name":"totalSupply","inputs":[],"outputs":[{"name":"","type":"uint256","internalType":"uint256"}],"stateMutability":"view"},{"type":"function","name":"transfer","inputs":[{"name":"to","type":"address","internalType":"address"},{"name":"value","type":"uint256","internalType":"uint256"}],"outputs":[{"name":"","type":"bool","internalType":"bool"}],"stateMutability":"nonpayable"},{"type":"function","name":"transferFrom","inputs":[{"name":"from","type":"address","internalType":"address"},{"name":"to","type":"address","internalType":"address"},{"name":"value","type":"uint256","internalType":"uint256"}],"outputs":[{"name":"","type":"bool","internalType":"bool"}],"stateMutability":"nonpayable"},{"type":"function","name":"upgradeToAndCall","inputs":[{"name":"newImplementation","type":"address","internalType":"address"},{"name":"data","type":"bytes","internalType":"bytes"}],"outputs":[],"stateMutability":"payable"},{"type":"function","name":"uri","inputs":[],"outputs":[{"name":"","type":"string","internalType":"string"}],"stateMutability":"view"},{"type":"event","name":"Approval","inputs":[{"name":"owner","type":"address","indexed":true,"internalType":"address"},{"name":"spender","type":"address","indexed":true,"internalType":"address"},{"name":"value","type":"uint256","indexed":false,"internalType":"uint256"}],"anonymous":false},{"type":"event","name":"EIP712DomainChanged","inputs":[],"anonymous":false},{"type":"event","name":"Initialized","inputs":[{"name":"version","type":"uint64","indexed":false,"internalType":"uint64"}],"anonymous":false},{"type":"event","name":"MetadataRemoved","inputs":[{"name":"hash","type":"bytes32","indexed":true,"internalType":"bytes32"},{"name":"key","type":"string","indexed":false,"internalType":"string"}],"anonymous":false},{"type":"event","name":"MetadataUpdated","inputs":[{"name":"hash","type":"bytes32","indexed":true,"internalType":"bytes32"},{"name":"key","type":"string","indexed":false,"internalType":"string"},{"name":"value","type":"string","indexed":false,"internalType":"string"}],"anonymous":false},{"type":"event","name":"RoleAdminChanged","inputs":[{"name":"role","type":"bytes32","indexed":true,"internalType":"bytes32"},{"name":"previousAdminRole","type":"bytes32","indexed":true,"internalType":"bytes32"},{"name":"newAdminRole","type":"bytes32","indexed":true,"internalType":"bytes32"}],"anonymous":false},{"type":"event","name":"RoleGranted","inputs":[{"name":"role","type":"bytes32","indexed":true,"internalType":"bytes32"},{"name":"account","type":"address","indexed":true,"internalType":"address"},{"name":"sender","type":"address","indexed":true,"internalType":"address"}],"anonymous":false},{"type":"event","name":"RoleRevoked","inputs":[{"name":"role","type":"bytes32","indexed":true,"internalType":"bytes32"},{"name":"account","type":"address","indexed":true,"internalType":"address"},{"name":"sender","type":"address","indexed":true,"internalType":"address"}],"anonymous":false},{"type":"event","name":"Transfer","inputs":[{"name":"from","type":"address","indexed":true,"internalType":"address"},{"name":"to","type":"address","indexed":true,"internalType":"address"},{"name":"value","type":"uint256","indexed":false,"internalType":"uint256"}],"anonymous":false},{"type":"event","name":"Upgraded","inputs":[{"name":"implementation","type":"address","indexed":true,"internalType":"address"}],"anonymous":false},{"type":"error","name":"AccessControlBadConfirmation","inputs":[]},{"type":"error","name":"AccessControlUnauthorizedAccount","inputs":[{"name":"account","type":"address","internalType":"address"},{"name":"neededRole","type":"bytes32","internalType":"bytes32"}]},{"type":"error","name":"AddressEmptyCode","inputs":[{"name":"target","type":"address","internalType":"address"}]},{"type":"error","name":"ERC1967InvalidImplementation","inputs":[{"name":"implementation","type":"address","internalType":"address"}]},{"type":"error","name":"ERC1967NonPayable","inputs":[]},{"type":"error","name":"ERC20InsufficientAllowance","inputs":[{"name":"spender","type":"address","internalType":"address"},{"name":"allowance","type":"uint256","internalType":"uint256"},{"name":"needed","type":"uint256","internalType":"uint256"}]},{"type":"error","name":"ERC20InsufficientBalance","inputs":[{"name":"sender","type":"address","internalType":"address"},{"name":"balance","type":"uint256","internalType":"uint256"},{"name":"needed","type":"uint256","internalType":"uint256"}]},{"type":"error","name":"ERC20InvalidApprover","inputs":[{"name":"approver","type":"address","internalType":"address"}]},{"type":"error","name":"ERC20InvalidReceiver","inputs":[{"name":"receiver","type":"address","internalType":"address"}]},{"type":"error","name":"ERC20InvalidSender","inputs":[{"name":"sender","type":"address","internalType":"address"}]},{"type":"error","name":"ERC20InvalidSpender","inputs":[{"name":"spender","type":"address","internalType":"address"}]},{"type":"error","name":"FailedCall","inputs":[]},{"type":"error","name":"InvalidInitialization","inputs":[]},{"type":"error","name":"NotInitializing","inputs":[]},{"type":"error","name":"UUPSUnauthorizedCallContext","inputs":[]},{"type":"error","name":"UUPSUnsupportedProxiableUUID","inputs":[{"name":"slot","type":"bytes32","internalType":"bytes32"}]}],"bytecode":{"object":"0x60a080604052346100c257306080525f516020612f1c5f395f51905f525460ff8160401c166100b3576002600160401b03196001600160401b03821601610060575b604051612e5590816100c78239608051818181610c7a0152610d1d0152f35b6001600160401b0319166001600160401b039081175f516020612f1c5f395f51905f525581527fc7f505b2f371ae2175ee4913f4499e1f2633a7b5936321eed1cdaeb6115181d290602090a15f80610041565b63f92ee8a960e01b5f5260045ffd5b5f80fdfe6080806040526004361015610012575f80fd5b5f3560e01c90816301ffc9a714611f5d5750806305daf36814611f3e57806306fdde0314611e81578063095ea7b314611e025780630e1ae91b14611d9757806318160ddd14611d5b57806323b872dd14611c83578063248a9ca314611c4c57806326f389ba14611b905780632f2ff15d14611b465780633006727d146112da578063313ce567146112bf578063358410d51461128b57806336568abe146112475780633b41f4ea146111365780633dc3c17514610efe5780634f1ef28614610cce57806352d1902d14610c685780635a45403414610a755780635cb0e05a14610a565780635e59715614610a2c5780635f4cd4db14610a0a5780635fe8e7cc146108b357806370a082311461086f57806384b0196e146105cc57806391d148541461057757806395d89b41146104955780639ceb21ae14610478578063a020731d14610449578063a217fddf1461042f578063a9059cbb146103fe578063ad3cb1cc146103b7578063b719d45a14610374578063b93f3f3414610346578063d11a1f07146102f5578063d547741f146102a4578063d9a1963514610275578063dd62ed3e1461022e578063e5e0a25d1461020b5763eac989f8146101d4575f80fd5b34610207575f366003190112610207576102036101ef6128c5565b604051918291602083526020830190611fb0565b0390f35b5f80fd5b3461020757602061022461021e3661214b565b91612897565b6040519015158152f35b3461020757604036600319011261020757610247612053565b610258610252612069565b9161285f565b9060018060a01b03165f52602052602060405f2054604051908152f35b34610207575f3660031901126102075761020361029861029361283d565b6123de565b60405191829182611fd4565b34610207576040366003190112610207576102f36004356102c3612069565b906102ee6102e9825f525f516020612de05f395f51905f52602052600160405f20015490565b612a33565b612bcc565b005b34610207576020366003190112610207576004356001600160401b038111610207576101ef61034061032e61020393369060040161211e565b919061033861283d565b9236916120bb565b90612550565b34610207575f3660031901126102075761035e61283d565b5f526001602052602060405f2054604051908152f35b34610207576020366003190112610207576004356001600160401b038111610207576102246103a9602092369060040161211e565b906103b261283d565b612897565b34610207575f366003190112610207576102036040516103d860408261209a565b60058152640352e302e360dc1b6020820152604051918291602083526020830190611fb0565b346102075760403660031901126102075761042461041a612053565b6024359033612913565b602060405160018152f35b34610207575f3660031901126102075760206040515f8152f35b34610207575f3660031901126102075761020361046c61046761283d565b6127d5565b6040519182918261226a565b34610207575f366003190112610207576020600254604051908152f35b34610207575f366003190112610207576040515f5f516020612d805f395f51905f52546104c181612311565b808452906001811690811561055357506001146104e9575b610203836101ef8185038261209a565b5f516020612d805f395f51905f525f9081527f46a2803e59a4de4e7a4c574b1243f25977ac4c77d5a1a4a609b5394cebb4a2aa939250905b808210610539575090915081016020016101ef6104d9565b919260018160209254838588010152019101909291610521565b60ff191660208086019190915291151560051b840190910191506101ef90506104d9565b3461020757604036600319011261020757610590612069565b6004355f525f516020612de05f395f51905f5260205260405f209060018060a01b03165f52602052602060ff60405f2054166040519015158152f35b34610207575f366003190112610207577fa16a46d94261c7517cc8ff89f61c0ce93598e3c849801011dee649a6a557d100541580610846575b15610809576040515f516020612d605f395f51905f5254815f61062783612311565b80835292600181169081156107ea575060011461077f575b61064b9250038261209a565b604051905f5f516020612da05f395f51905f525461066881612311565b808552906001811690811561075d57506001146106f9575b50826106946106cb9461020393038261209a565b6106d9604051916106a660208461209a565b5f83525f368137604051958695600f60f81b875260e0602088015260e0870190611fb0565b908582036040870152611fb0565b904660608501523060808501525f60a085015283820360c08501526122c9565b5f516020612da05f395f51905f525f90815291507f5f9ce34815f8e11431c7bb75a8e6886a91478f7ffc1dbb0a98dc240fddd76b755b818310610743575050820160200182610680565b60018160209294939454838589010152019101919061072f565b60ff191660208087019190915291151560051b85019091019150839050610680565b505f516020612d605f395f51905f525f90815290917f42ad5d3e1f2e6e70edcf6d991b8a3023d3fca8047a131592f9edb9fd9b89d57d5b8183106107ce57505090602061064b9282010161063f565b60209193508060019154838588010152019101909183926107b6565b6020925061064b94915060ff191682840152151560051b82010161063f565b60405162461bcd60e51b81526020600482015260156024820152741152540dcc4c8e88155b9a5b9a5d1a585b1a5e9959605a1b6044820152606490fd5b507fa16a46d94261c7517cc8ff89f61c0ce93598e3c849801011dee649a6a557d1015415610605565b34610207576020366003190112610207576001600160a01b03610890612053565b165f525f516020612d405f395f51905f52602052602060405f2054604051908152f35b34610207575f366003190112610207576003546108cf8161217e565b6108dc604051918261209a565b8181526108e88261217e565b602082019290601f19013684376108fe8161217e565b9061090c604051928361209a565b808252601f1961091b8261217e565b013660208401376003545f5b8281106109845750505060405191604083019060408452518091526060830193905f5b818110610965578480610203888783820360208501526122c9565b82516001600160a01b031686526020958601959092019160010161094a565b818110156109f65760035f527fc2575a0e9e593c00f959f8c92f12db2869c3395a3b0502d05e2516446f71f85b810154600191906001600160a01b0316806109cc83896123ca565b525f525f516020612d405f395f51905f5260205260405f20546109ef82876123ca565b5201610927565b634e487b7160e01b5f52603260045260245ffd5b34610207575f366003190112610207576020610a2461283d565b604051908152f35b34610207576020366003190112610207576004355f526001602052602060405f2054604051908152f35b346102075760203660031901126102075761020361046c6004356127d5565b34610207576020366003190112610207576004356001600160401b0381116102075736602382011215610207578060040135906001600160401b038211610207573660248360051b8301011161020757610ae490610ad16129e4565b610ad961283d565b926024369201612195565b90610aed6129e4565b5f5b82518110156102f357815f525f602052610b3360208060405f20610b1385886123ca565b515190604051938285935191829101845e82019081520301902054612311565b15610b7d6020610b4384876123ca565b510151845f525f60205260208060405f20610b5e878a6123ca565b515190604051938285935191829101845e82019081520301902061271d565b610bf3575b80827fc42c4edbc41dce02b01dd098a1f7a4c685c638d7a2fdfbe449b32e1f89fbfae1610bdc610bb4600195886123ca565b5151610bea6020610bc5878b6123ca565b510151604051938493604085526040850190611fb0565b908382036020850152611fb0565b0390a201610aef565b815f52600160205260405f2090610c0a81856123ca565b5151918054600160401b811015610c5457610c2a916001820181556122fc565b610c4157600192610c3a9161271d565b9050610b82565b634e487b7160e01b5f525f60045260245ffd5b634e487b7160e01b5f52604160045260245ffd5b34610207575f366003190112610207577f00000000000000000000000000000000000000000000000000000000000000006001600160a01b03163003610cbf5760206040515f516020612dc05f395f51905f528152f35b63703e46dd60e11b5f5260045ffd5b604036600319011261020757610ce2612053565b6024356001600160401b038111610207573660238201121561020757610d129036906024816004013591016120bb565b906001600160a01b037f000000000000000000000000000000000000000000000000000000000000000016308114908115610edc575b50610cbf57335f9081527fab71e3f32666744d246edff3f96e4bdafee2e9867098cdd118a979a7464786a8602052604090205460ff1615610ea5576040516352d1902d60e01b81526001600160a01b0382169290602081600481875afa5f9181610e71575b50610dc55783634c9c8ce360e01b5f5260045260245ffd5b805f516020612dc05f395f51905f52859203610e5f5750823b15610e4d575f516020612dc05f395f51905f5280546001600160a01b031916821790557fbc7cd75a20ee27fd9adebab32041f755214dbc6bffa90cc0225b39da2e5c2d3b5f80a2805115610e35576102f391612c93565b505034610e3e57005b63b398979f60e01b5f5260045ffd5b634c9c8ce360e01b5f5260045260245ffd5b632a87526960e21b5f5260045260245ffd5b9091506020813d602011610e9d575b81610e8d6020938361209a565b8101031261020757519085610dad565b3d9150610e80565b63e2517d3f60e01b5f52336004527f189ab7a9244df0848122154315af71fe140f3db0fe014031783b0946b8c9d2e360245260445ffd5b5f516020612dc05f395f51905f52546001600160a01b03161415905083610d48565b34610207576020366003190112610207576004356001600160401b03811161020757610f2e90369060040161211e565b90610f376129e4565b610f3f61283d565b91610f486129e4565b825f525f602052610f7160405f2060206040518092858783378582019081520301902054612311565b156110fc57825f525f602052610f9e60405f2060206040518092858783378582019081520301902061259d565b825f52600160205260405f20905f5b8254808210156110cf57610fd4610fdb610fc784876122fc565b5060405192838092612349565b038261209a565b60208151910120610fed3685886120bb565b60208151910120146110025750600101610fad565b929391925f1981019081116110bb5761101e61102691866122fc565b5091856122fc565b919091610c41576110369161263e565b82549081156110a7577fca45c60cf1bbd58b2ac673da0d008eb3606c36e814e8d7fe0df3a3e53ecc59b7936040925f19019061107b61107583836122fc565b906125ec565b555b82825193849260208452816020850152848401375f828201840152601f01601f19168101030190a2005b634e487b7160e01b5f52603160045260245ffd5b634e487b7160e01b5f52601160045260245ffd5b5050905060407fca45c60cf1bbd58b2ac673da0d008eb3606c36e814e8d7fe0df3a3e53ecc59b79261107d565b60405162461bcd60e51b815260206004820152601260248201527112d95e48191bd95cc81b9bdd08195e1a5cdd60721b6044820152606490fd5b34610207576040366003190112610207576004356024356001600160401b0381116102075761116990369060040161224f565b906111726129e4565b5f5b82518110156102f357815f525f60205261119860208060405f20610b1385886123ca565b156111a86020610b4384876123ca565b6111f9575b80827fc42c4edbc41dce02b01dd098a1f7a4c685c638d7a2fdfbe449b32e1f89fbfae1610bdc6111df600195886123ca565b51516111f06020610bc5878b6123ca565b0390a201611174565b815f52600160205260405f209061121081856123ca565b5151918054600160401b811015610c5457611230916001820181556122fc565b610c41576001926112409161271d565b90506111ad565b3461020757604036600319011261020757611260612069565b336001600160a01b0382160361127c576102f390600435612bcc565b63334bd91960e11b5f5260045ffd5b34610207575f366003190112610207575f516020612dc05f395f51905f52546040516001600160a01b039091168152602090f35b34610207575f36600319011261020757602060405160128152f35b346102075760e0366003190112610207576004356001600160401b0381116102075761130a903690600401612100565b6024356001600160401b03811161020757611329903690600401612100565b6084356044356001600160a01b03821682036102075760a4356001600160a01b03811691908290036102075760c4356001600160401b0381116102075761137490369060040161224f565b925f516020612e005f395f51905f52549460ff8660401c1615956001600160401b03811680159081611b3e575b6001149081611b34575b159081611b2b575b50611b1c5767ffffffffffffffff1981166001175f516020612e005f395f51905f525586611af0575b506113e5612c68565b6113ed612c68565b86516001600160401b038111610c545761142b816114185f516020612d205f395f51905f5254612311565b5f516020612d205f395f51905f526125fb565b6020601f8211600114611a74579080611458925f91611a69575b508160011b915f199060031b1c19161790565b5f516020612d205f395f51905f52555b8051906001600160401b038211610c54576114a7826114945f516020612d805f395f51905f5254612311565b5f516020612d805f395f51905f526125fb565b602090601f83116001146119ec576114d692915f91836119e1575b50508160011b915f199060031b1c19161790565b5f516020612d805f395f51905f52555b6040958651906114f6888361209a565b60018252603160f81b602083015261150c612c68565b611514612c68565b8051906001600160401b038211610c5457611553826115405f516020612d605f395f51905f5254612311565b5f516020612d605f395f51905f526125fb565b602090601f83116001146119645761158192915f91836118d85750508160011b915f199060031b1c19161790565b5f516020612d605f395f51905f52555b8051906001600160401b038211610c54576115d0826115bd5f516020612da05f395f51905f5254612311565b5f516020612da05f395f51905f526125fb565b602090601f83116001146118e35791806116039261166495945f926118d85750508160011b915f199060031b1c19161790565b5f516020612da05f395f51905f52555b5f7fa16a46d94261c7517cc8ff89f61c0ce93598e3c849801011dee649a6a557d100555f7fa16a46d94261c7517cc8ff89f61c0ce93598e3c849801011dee649a6a557d10155606435600255612a79565b5081156118c5577f52c63247e1f47db19d5ce0460030c497f067ca4cebf71ba98eeadabe20bace0254908082018092116110bb5760207fddf252ad1be2c89b69c2b068fc378daa952ba7f163c4a11628f55a4df523b3ef915f937f52c63247e1f47db19d5ce0460030c497f067ca4cebf71ba98eeadabe20bace02558484525f516020612d405f395f51905f5282528784208181540190558751908152a36002548351602081019182526020815261171c858261209a565b519020906117286129e4565b5f5b815181101561186657825f525f60205261176c602080875f2061174d85876123ca565b5151908951938285935191829101845e82019081520301902054612311565b156117b4602061177c84866123ca565b510151855f525f602052602080895f2061179687896123ca565b5151908b51938285935191829101845e82019081520301902061271d565b611819575b80837fc42c4edbc41dce02b01dd098a1f7a4c685c638d7a2fdfbe449b32e1f89fbfae1610bdc6117eb600195876123ca565b515161181060206117fc878a6123ca565b5101518b519384938d85528d850190611fb0565b0390a20161172a565b825f526001602052845f209061182f81846123ca565b5151918054600160401b811015610c545761184f916001820181556122fc565b610c415760019261185f9161271d565b90506117b9565b50505061186f57005b60207fc7f505b2f371ae2175ee4913f4499e1f2633a7b5936321eed1cdaeb6115181d29168ff0000000000000000195f516020612e005f395f51905f5254165f516020612e005f395f51905f52555160018152a1005b63ec442f0560e01b5f525f60045260245ffd5b015190508a806114c2565b90601f198316915f516020612da05f395f51905f525f52815f20925f5b81811061194c575091600193918561166497969410611934575b505050811b015f516020612da05f395f51905f5255611613565b01515f1960f88460031b161c1916905589808061191a565b92936020600181928786015181550195019301611900565b90601f198316915f516020612d605f395f51905f525f52815f20925f5b8181106119c957509084600195949392106119b1575b505050811b015f516020612d605f395f51905f5255611591565b01515f1960f88460031b161c19169055898080611997565b92936020600181928786015181550195019301611981565b0151905089806114c2565b90601f198316915f516020612d805f395f51905f525f52815f20925f5b818110611a515750908460019594939210611a39575b505050811b015f516020612d805f395f51905f52556114e6565b01515f1960f88460031b161c19169055888080611a1f565b92936020600181928786015181550195019301611a09565b90508901518a611445565b601f198216905f516020612d205f395f51905f525f52805f20915f5b8b828210611ad85750509083600194939210611ac0575b5050811b015f516020612d205f395f51905f5255611468565b8a01515f1960f88460031b161c191690558980611aa7565b60018495602093958493015181550194019201611a90565b68ffffffffffffffffff191668010000000000000001175f516020612e005f395f51905f5255876113dc565b63f92ee8a960e01b5f5260045ffd5b905015896113b3565b303b1591506113ab565b8891506113a1565b34610207576040366003190112610207576102f3600435611b65612069565b90611b8b6102e9825f525f516020612de05f395f51905f52602052600160405f20015490565b612b28565b3461020757611b9e3661214b565b611ba66129e4565b825f525f602052611bcf60405f2060206040518092858783378582019081520301902054612311565b156110fc57825f525f602052611bfc60405f2060206040518092858783378582019081520301902061259d565b825f52600160205260405f20905f5b8254808210156110cf57610fd4611c25610fc784876122fc565b60208151910120611c373685886120bb565b60208151910120146110025750600101611c0b565b34610207576020366003190112610207576020610a246004355f525f516020612de05f395f51905f52602052600160405f20015490565b3461020757606036600319011261020757611c9c612053565b611ca4612069565b60443590611cb18361285f565b335f9081526020919091526040902054925f198410611cd5575b6104249350612913565b828410611d40576001600160a01b03811615611d2d573315611d1a5761042493611cfe8261285f565b60018060a01b0333165f526020528360405f2091039055611ccb565b634a1406b160e11b5f525f60045260245ffd5b63e602df0560e01b5f525f60045260245ffd5b8284637dc7a0d960e11b5f523360045260245260445260645ffd5b34610207575f3660031901126102075760207f52c63247e1f47db19d5ce0460030c497f067ca4cebf71ba98eeadabe20bace0254604051908152f35b34610207576040366003190112610207576024356001600160401b03811161020757610fd46101ef602080611dd3610203953690600401612100565b6004355f525f825260405f20604051938285935191829101845e82019081520301902060405192838092612349565b3461020757604036600319011261020757611e1b612053565b602435903315611d2d576001600160a01b0316908115611d1a57611e3e3361285f565b825f526020528060405f20556040519081527f8c5be1e5ebec7d5bd14f71427d1e84f3dd0314c0f7b2291e5b200ac8c7c3b92560203392a3602060405160018152f35b34610207575f366003190112610207576040515f5f516020612d205f395f51905f5254611ead81612311565b80845290600181169081156105535750600114611ed457610203836101ef8185038261209a565b5f516020612d205f395f51905f525f9081527f2ae08a8e29253f69ac5d979a101956ab8f8d9d7ded63fa7a83b16fc47648eab0939250905b808210611f24575090915081016020016101ef6104d9565b919260018160209254838588010152019101909291611f0c565b34610207576020366003190112610207576102036102986004356123de565b34610207576020366003190112610207576004359063ffffffff60e01b821680920361020757602091637965db0b60e01b8114908115611f9f575b5015158152f35b6301ffc9a760e01b14905083611f98565b805180835260209291819084018484015e5f828201840152601f01601f1916010190565b602081016020825282518091526040820191602060408360051b8301019401925f915b83831061200657505050505090565b9091929394602080612044600193603f19868203018752895190836120348351604084526040840190611fb0565b9201519084818403910152611fb0565b97019301930191939290611ff7565b600435906001600160a01b038216820361020757565b602435906001600160a01b038216820361020757565b604081019081106001600160401b03821117610c5457604052565b90601f801991011681019081106001600160401b03821117610c5457604052565b9291926001600160401b038211610c5457604051916120e4601f8201601f19166020018461209a565b829481845281830111610207578281602093845f960137010152565b9080601f830112156102075781602061211b933591016120bb565b90565b9181601f84011215610207578235916001600160401b038311610207576020838186019501011161020757565b9060406003198301126102075760043591602435906001600160401b0382116102075761217a9160040161211e565b9091565b6001600160401b038111610c545760051b60200190565b929190926121a28461217e565b936121b0604051958661209a565b602085828152019060051b8201918383116102075780915b8383106121d6575050505050565b82356001600160401b03811161020757820160408187031261020757604051916121ff8361207f565b81356001600160401b038111610207578761221b918401612100565b83526020820135926001600160401b0384116102075761224088602095869501612100565b838201528152019201916121c8565b9080601f830112156102075781602061211b93359101612195565b602081016020825282518091526040820191602060408360051b8301019401925f915b83831061229c57505050505090565b90919293946020806122ba600193603f198682030187528951611fb0565b9701930193019193929061228d565b90602080835192838152019201905f5b8181106122e65750505090565b82518452602093840193909201916001016122d9565b80548210156109f6575f5260205f2001905f90565b90600182811c9216801561233f575b602083101461232b57565b634e487b7160e01b5f52602260045260245ffd5b91607f1691612320565b5f929181549161235883612311565b80835292600181169081156123ad575060011461237457505050565b5f9081526020812093945091925b838310612393575060209250010190565b600181602092949394548385870101520191019190612382565b915050602093945060ff929192191683830152151560051b010190565b80518210156109f65760209160051b010190565b90815f52600160205260405f2080546123f68161217e565b612403604051918261209a565b818152601f196124128361217e565b015f5b81811061252b57505080945f5b838110612430575050505050565b61243a81866122fc565b50825f525f60205260405f2061245083886122fc565b50604051915f9180549061246382612311565b916001811690811561251357506001146124de575b50508260206001969594846124bd94610fd4965203019020610fd46124af604051956124a38761207f565b60405192838092612349565b845260405192838092612349565b60208201526124cc82866123ca565b526124d781856123ca565b5001612422565b909192505f5260205f205f905b8282106124ff575050820190826020612478565b6001816020925484880152019101906124eb565b60ff1916865250508015150283019150826020612478565b60209060405161253a8161207f565b6060815260608382015282828601015201612415565b602080610fd49361211b935f525f825260405f20604051938285935191829101845e82019081520301902060405192838092612349565b818110612592575050565b5f8155600101612587565b6125a78154612311565b90816125b1575050565b81601f5f93116001146125c35750555b565b818352602083206125df91601f0160051c810190600101612587565b8082528160208120915555565b90610c41576125a78154612311565b9190601f811161260a57505050565b6125c1925f5260205f20906020601f840160051c83019310612634575b601f0160051c0190612587565b9091508190612627565b919091828114612718576126528354612311565b6001600160401b038111610c54576126748161266e8454612311565b846125fb565b5f93601f82116001146126b2576126a392939482915f926126a75750508160011b915f199060031b1c19161790565b9055565b015490505f806114c2565b601f198216905f5260205f2094835f5260205f20915f5b818110612700575095836001959697106126e8575b505050811b019055565b01545f1960f88460031b161c191690555f80806126de565b9192600180602092868b0154815501940192016126c9565b509050565b91909182516001600160401b038111610c545761273e8161266e8454612311565b6020601f82116001146127785781906126a39394955f9261276d5750508160011b915f199060031b1c19161790565b015190505f806114c2565b601f19821690835f52805f20915f5b8181106127bd575095836001959697106127a557505050811b019055565b01515f1960f88460031b161c191690555f80806126de565b9192602060018192868b015181550194019201612787565b5f52600160205260405f2080546127eb8161217e565b916127f9604051938461209a565b81835260208301905f5260205f205f915b838310612818575050505090565b60016020819260405161282f81610fd48189612349565b81520192019201919061280a565b600254604051602081019182526020815261285960408261209a565b51902090565b6001600160a01b03165f9081527f52c63247e1f47db19d5ce0460030c497f067ca4cebf71ba98eeadabe20bace016020526040902090565b6128c092916020915f525f825260405f2083604051948593843782019081520301902054612311565b151590565b6128f46128d061283d565b604051906128df60408361209a565b600382526275726960e81b6020830152612550565b8051156128fe5790565b5060405161290d60208261209a565b5f815290565b6001600160a01b03169081156129d1576001600160a01b03169182156118c557815f525f516020612d405f395f51905f5260205260405f20548181106129b857817fddf252ad1be2c89b69c2b068fc378daa952ba7f163c4a11628f55a4df523b3ef92602092855f525f516020612d405f395f51905f5284520360405f2055845f525f516020612d405f395f51905f52825260405f20818154019055604051908152a3565b8263391434e360e21b5f5260045260245260445260645ffd5b634b637e8f60e11b5f525f60045260245ffd5b335f9081527fb7db2dd08fcb62d0c9e08c51941cae53c267786a0b75803fb7960902fc8ef97d602052604090205460ff1615612a1c57565b63e2517d3f60e01b5f52336004525f60245260445ffd5b5f8181525f516020612de05f395f51905f526020908152604080832033845290915290205460ff1615612a635750565b63e2517d3f60e01b5f523360045260245260445ffd5b6001600160a01b0381165f9081527fb7db2dd08fcb62d0c9e08c51941cae53c267786a0b75803fb7960902fc8ef97d602052604090205460ff16612b23576001600160a01b03165f8181527fb7db2dd08fcb62d0c9e08c51941cae53c267786a0b75803fb7960902fc8ef97d60205260408120805460ff191660011790553391907f2f8788117e7eff1d82e926ec794901d17c78024a50270940304540a733656f0d8180a4600190565b505f90565b5f8181525f516020612de05f395f51905f52602090815260408083206001600160a01b038616845290915290205460ff16612bc6575f8181525f516020612de05f395f51905f52602090815260408083206001600160a01b0395909516808452949091528120805460ff19166001179055339291907f2f8788117e7eff1d82e926ec794901d17c78024a50270940304540a733656f0d9080a4600190565b50505f90565b5f8181525f516020612de05f395f51905f52602090815260408083206001600160a01b038616845290915290205460ff1615612bc6575f8181525f516020612de05f395f51905f52602090815260408083206001600160a01b0395909516808452949091528120805460ff19169055339291907ff6391f5c32d9c69d2a47ea670b442974b53935d1edc7fd64eb21e047a839171b9080a4600190565b60ff5f516020612e005f395f51905f525460401c1615612c8457565b631afcd79f60e31b5f5260045ffd5b905f8091602081519101845af48080612d0c575b15612cc75750506040513d81523d5f602083013e60203d82010160405290565b15612cec57639996b31560e01b5f9081526001600160a01b0391909116600452602490fd5b3d15612cfd576040513d5f823e3d90fd5b63d6bda27560e01b5f5260045ffd5b503d151580612ca75750813b1515612ca756fe52c63247e1f47db19d5ce0460030c497f067ca4cebf71ba98eeadabe20bace0352c63247e1f47db19d5ce0460030c497f067ca4cebf71ba98eeadabe20bace00a16a46d94261c7517cc8ff89f61c0ce93598e3c849801011dee649a6a557d10252c63247e1f47db19d5ce0460030c497f067ca4cebf71ba98eeadabe20bace04a16a46d94261c7517cc8ff89f61c0ce93598e3c849801011dee649a6a557d103360894a13ba1a3210667c828492db98dca3e2076cc3735a920a3ca505d382bbc02dd7bc7dec4dceedda775e58dd541e08a116c6c53815c0bd028192f7b626800f0c57e16840df040f15088dc2f81fe391c3923bec73e23a9662efc9c229c6a00a2646970667358221220dc8825745494183c4f3c8a633ff533851903a265ebdbffd61af8ce677bdb4ddc64736f6c634300081e0033f0c57e16840df040f15088dc2f81fe391c3923bec73e23a9662efc9c229c6a00","linkReferences":{}},"methodIdentifiers":{"ASSET_ID()":"9ceb21ae","DEFAULT_ADMIN_ROLE()":"a217fddf","UPGRADE_INTERFACE_VERSION()":"ad3cb1cc","allowance(address,address)":"dd62ed3e","approve(address,uint256)":"095ea7b3","balanceOf(address)":"70a08231","decimals()":"313ce567","eip712Domain()":"84b0196e","getAllMetadata()":"d9a19635","getAllMetadata(bytes32)":"05daf368","getAllMetadataKeys()":"a020731d","getAllMetadataKeys(bytes32)":"5cb0e05a","getAssetIdHash()":"5f4cd4db","getHolders()":"5fe8e7cc","getMetadata(bytes32,string)":"0e1ae91b","getMetadata(string)":"d11a1f07","getMetadataCount()":"b93f3f34","getMetadataCount(bytes32)":"5e597156","getRoleAdmin(bytes32)":"248a9ca3","getUupsImplementation()":"358410d5","grantRole(bytes32,address)":"2f2ff15d","hasMetadata(bytes32,string)":"e5e0a25d","hasMetadata(string)":"b719d45a","hasRole(bytes32,address)":"91d14854","initialize(string,string,uint256,uint256,address,address,(string,string)[])":"3006727d","name()":"06fdde03","proxiableUUID()":"52d1902d","removeMetadata(bytes32,string)":"26f389ba","removeMetadata(string)":"3dc3c175","renounceRole(bytes32,address)":"36568abe","revokeRole(bytes32,address)":"d547741f","setMetadata((string,string)[])":"5a454034","setMetadata(bytes32,(string,string)[])":"3b41f4ea","supportsInterface(bytes4)":"01ffc9a7","symbol()":"95d89b41","totalSupply()":"18160ddd","transfer(address,uint256)":"a9059cbb","transferFrom(address,address,uint256)":"23b872dd","upgradeToAndCall(address,bytes)":"4f1ef286","uri()":"eac989f8"},"id":47}