{"abi":[{"type":"constructor","inputs":[{"name":"name","type":"string","internalType":"string"},{"name":"symbol","type":"string","internalType":"string"},{"name":"totalSupply","type":"uint256","internalType":"uint256"},{"name":"assetId","type":"uint256","internalType":"uint256"},{"name":"admin","type":"address","internalType":"address"},{"name":"tokenRecipient","type":"address","internalType":"address"},{"name":"metadata","type":"tuple[]","internalType":"struct MetadataStorage.Metadata[]","components":[{"name":"key","type":"string","internalType":"string"},{"name":"value","type":"string","internalType":"string"}]}],"stateMutability":"nonpayable"},{"type":"function","name":"ASSET_ID","inputs":[],"outputs":[{"name":"","type":"uint256","internalType":"uint256"}],"stateMutability":"view"},{"type":"function","name":"DEFAULT_ADMIN_ROLE","inputs":[],"outputs":[{"name":"","type":"bytes32","internalType":"bytes32"}],"stateMutability":"view"},{"type":"function","name":"allowance","inputs":[{"name":"owner","type":"address","internalType":"address"},{"name":"spender","type":"address","internalType":"address"}],"outputs":[{"name":"","type":"uint256","internalType":"uint256"}],"stateMutability":"view"},{"type":"function","name":"approve","inputs":[{"name":"spender","type":"address","internalType":"address"},{"name":"value","type":"uint256","internalType":"uint256"}],"outputs":[{"name":"","type":"bool","internalType":"bool"}],"stateMutability":"nonpayable"},{"type":"function","name":"balanceOf","inputs":[{"name":"account","type":"address","internalType":"address"}],"outputs":[{"name":"","type":"uint256","internalType":"uint256"}],"stateMutability":"view"},{"type":"function","name":"decimals","inputs":[],"outputs":[{"name":"","type":"uint8","internalType":"uint8"}],"stateMutability":"view"},{"type":"function","name":"eip712Domain","inputs":[],"outputs":[{"name":"fields","type":"bytes1","internalType":"bytes1"},{"name":"name","type":"string","internalType":"string"},{"name":"version","type":"string","internalType":"string"},{"name":"chainId","type":"uint256","internalType":"uint256"},{"name":"verifyingContract","type":"address","internalType":"address"},{"name":"salt","type":"bytes32","internalType":"bytes32"},{"name":"extensions","type":"uint256[]","internalType":"uint256[]"}],"stateMutability":"view"},{"type":"function","name":"getAllMetadata","inputs":[{"name":"hash","type":"bytes32","internalType":"bytes32"}],"outputs":[{"name":"metadata","type":"tuple[]","internalType":"struct MetadataStorage.Metadata[]","components":[{"name":"key","type":"string","internalType":"string"},{"name":"value","type":"string","internalType":"string"}]}],"stateMutability":"view"},{"type":"function","name":"getAllMetadata","inputs":[],"outputs":[{"name":"metadata","type":"tuple[]","internalType":"struct MetadataStorage.Metadata[]","components":[{"name":"key","type":"string","internalType":"string"},{"name":"value","type":"string","internalType":"string"}]}],"stateMutability":"view"},{"type":"function","name":"getAllMetadataKeys","inputs":[{"name":"hash","type":"bytes32","internalType":"bytes32"}],"outputs":[{"name":"keys","type":"string[]","internalType":"string[]"}],"stateMutability":"view"},{"type":"function","name":"getAllMetadataKeys","inputs":[],"outputs":[{"name":"keys","type":"string[]","internalType":"string[]"}],"stateMutability":"view"},{"type":"function","name":"getAssetIdHash","inputs":[],"outputs":[{"name":"hash","type":"bytes32","internalType":"bytes32"}],"stateMutability":"view"},{"type":"function","name":"getHolders","inputs":[],"outputs":[{"name":"holders","type":"address[]","internalType":"address[]"},{"name":"balances","type":"uint256[]","internalType":"uint256[]"}],"stateMutability":"view"},{"type":"function","name":"getMetadata","inputs":[{"name":"hash","type":"bytes32","internalType":"bytes32"},{"name":"key","type":"string","internalType":"string"}],"outputs":[{"name":"value","type":"string","internalType":"string"}],"stateMutability":"view"},{"type":"function","name":"getMetadata","inputs":[{"name":"key","type":"string","internalType":"string"}],"outputs":[{"name":"value","type":"string","internalType":"string"}],"stateMutability":"view"},{"type":"function","name":"getMetadataCount","inputs":[{"name":"hash","type":"bytes32","internalType":"bytes32"}],"outputs":[{"name":"count","type":"uint256","internalType":"uint256"}],"stateMutability":"view"},{"type":"function","name":"getMetadataCount","inputs":[],"outputs":[{"name":"count","type":"uint256","internalType":"uint256"}],"stateMutability":"view"},{"type":"function","name":"getRoleAdmin","inputs":[{"name":"role","type":"bytes32","internalType":"bytes32"}],"outputs":[{"name":"","type":"bytes32","internalType":"bytes32"}],"stateMutability":"view"},{"type":"function","name":"grantRole","inputs":[{"name":"role","type":"bytes32","internalType":"bytes32"},{"name":"account","type":"address","internalType":"address"}],"outputs":[],"stateMutability":"nonpayable"},{"type":"function","name":"hasMetadata","inputs":[{"name":"key","type":"string","internalType":"string"}],"outputs":[{"name":"exists","type":"bool","internalType":"bool"}],"stateMutability":"view"},{"type":"function","name":"hasMetadata","inputs":[{"name":"hash","type":"bytes32","internalType":"bytes32"},{"name":"key","type":"string","internalType":"string"}],"outputs":[{"name":"exists","type":"bool","internalType":"bool"}],"stateMutability":"view"},{"type":"function","name":"hasRole","inputs":[{"name":"role","type":"bytes32","internalType":"bytes32"},{"name":"account","type":"address","internalType":"address"}],"outputs":[{"name":"","type":"bool","internalType":"bool"}],"stateMutability":"view"},{"type":"function","name":"name","inputs":[],"outputs":[{"name":"","type":"string","internalType":"string"}],"stateMutability":"view"},{"type":"function","name":"removeMetadata","inputs":[{"name":"hash","type":"bytes32","internalType":"bytes32"},{"name":"key","type":"string","internalType":"string"}],"outputs":[],"stateMutability":"nonpayable"},{"type":"function","name":"removeMetadata","inputs":[{"name":"key","type":"string","internalType":"string"}],"outputs":[],"stateMutability":"nonpayable"},{"type":"function","name":"renounceRole","inputs":[{"name":"role","type":"bytes32","internalType":"bytes32"},{"name":"callerConfirmation","type":"address","internalType":"address"}],"outputs":[],"stateMutability":"nonpayable"},{"type":"function","name":"revokeRole","inputs":[{"name":"role","type":"bytes32","internalType":"bytes32"},{"name":"account","type":"address","internalType":"address"}],"outputs":[],"stateMutability":"nonpayable"},{"type":"function","name":"setMetadata","inputs":[{"name":"hash","type":"bytes32","internalType":"bytes32"},{"name":"metadata_","type":"tuple[]","internalType":"struct MetadataStorage.Metadata[]","components":[{"name":"key","type":"string","internalType":"string"},{"name":"value","type":"string","internalType":"string"}]}],"outputs":[],"stateMutability":"nonpayable"},{"type":"function","name":"setMetadata","inputs":[{"name":"metadata_","type":"tuple[]","internalType":"struct MetadataStorage.Metadata[]","components":[{"name":"key","type":"string","internalType":"string"},{"name":"value","type":"string","internalType":"string"}]}],"outputs":[],"stateMutability":"nonpayable"},{"type":"function","name":"supportsInterface","inputs":[{"name":"interfaceId","type":"bytes4","internalType":"bytes4"}],"outputs":[{"name":"","type":"bool","internalType":"bool"}],"stateMutability":"view"},{"type":"function","name":"symbol","inputs":[],"outputs":[{"name":"","type":"string","internalType":"string"}],"stateMutability":"view"},{"type":"function","name":"tokenURI","inputs":[],"outputs":[{"name":"","type":"string","internalType":"string"}],"stateMutability":"view"},{"type":"function","name":"totalSupply","inputs":[],"outputs":[{"name":"","type":"uint256","internalType":"uint256"}],"stateMutability":"view"},{"type":"function","name":"transfer","inputs":[{"name":"to","type":"address","internalType":"address"},{"name":"value","type":"uint256","internalType":"uint256"}],"outputs":[{"name":"","type":"bool","internalType":"bool"}],"stateMutability":"nonpayable"},{"type":"function","name":"transferFrom","inputs":[{"name":"from","type":"address","internalType":"address"},{"name":"to","type":"address","internalType":"address"},{"name":"value","type":"uint256","internalType":"uint256"}],"outputs":[{"name":"","type":"bool","internalType":"bool"}],"stateMutability":"nonpayable"},{"type":"event","name":"Approval","inputs":[{"name":"owner","type":"address","indexed":true,"internalType":"address"},{"name":"spender","type":"address","indexed":true,"internalType":"address"},{"name":"value","type":"uint256","indexed":false,"internalType":"uint256"}],"anonymous":false},{"type":"event","name":"EIP712DomainChanged","inputs":[],"anonymous":false},{"type":"event","name":"MetadataRemoved","inputs":[{"name":"hash","type":"bytes32","indexed":true,"internalType":"bytes32"},{"name":"key","type":"string","indexed":false,"internalType":"string"}],"anonymous":false},{"type":"event","name":"MetadataUpdated","inputs":[{"name":"hash","type":"bytes32","indexed":true,"internalType":"bytes32"},{"name":"key","type":"string","indexed":false,"internalType":"string"},{"name":"value","type":"string","indexed":false,"internalType":"string"}],"anonymous":false},{"type":"event","name":"RoleAdminChanged","inputs":[{"name":"role","type":"bytes32","indexed":true,"internalType":"bytes32"},{"name":"previousAdminRole","type":"bytes32","indexed":true,"internalType":"bytes32"},{"name":"newAdminRole","type":"bytes32","indexed":true,"internalType":"bytes32"}],"anonymous":false},{"type":"event","name":"RoleGranted","inputs":[{"name":"role","type":"bytes32","indexed":true,"internalType":"bytes32"},{"name":"account","type":"address","indexed":true,"internalType":"address"},{"name":"sender","type":"address","indexed":true,"internalType":"address"}],"anonymous":false},{"type":"event","name":"RoleRevoked","inputs":[{"name":"role","type":"bytes32","indexed":true,"internalType":"bytes32"},{"name":"account","type":"address","indexed":true,"internalType":"address"},{"name":"sender","type":"address","indexed":true,"internalType":"address"}],"anonymous":false},{"type":"event","name":"Transfer","inputs":[{"name":"from","type":"address","indexed":true,"internalType":"address"},{"name":"to","type":"address","indexed":true,"internalType":"address"},{"name":"value","type":"uint256","indexed":false,"internalType":"uint256"}],"anonymous":false},{"type":"error","name":"AccessControlBadConfirmation","inputs":[]},{"type":"error","name":"AccessControlUnauthorizedAccount","inputs":[{"name":"account","type":"address","internalType":"address"},{"name":"neededRole","type":"bytes32","internalType":"bytes32"}]},{"type":"error","name":"ERC20InsufficientAllowance","inputs":[{"name":"spender","type":"address","internalType":"address"},{"name":"allowance","type":"uint256","internalType":"uint256"},{"name":"needed","type":"uint256","internalType":"uint256"}]},{"type":"error","name":"ERC20InsufficientBalance","inputs":[{"name":"sender","type":"address","internalType":"address"},{"name":"balance","type":"uint256","internalType":"uint256"},{"name":"needed","type":"uint256","internalType":"uint256"}]},{"type":"error","name":"ERC20InvalidApprover","inputs":[{"name":"approver","type":"address","internalType":"address"}]},{"type":"error","name":"ERC20InvalidReceiver","inputs":[{"name":"receiver","type":"address","internalType":"address"}]},{"type":"error","name":"ERC20InvalidSender","inputs":[{"name":"sender","type":"address","internalType":"address"}]},{"type":"error","name":"ERC20InvalidSpender","inputs":[{"name":"spender","type":"address","internalType":"address"}]},{"type":"error","name":"InvalidShortString","inputs":[]},{"type":"error","name":"StringTooLong","inputs":[{"name":"str","type":"string","internalType":"string"}]}],"bytecode":{"object":"0x610180806040523461079157612db4803803809161001d82856107b0565b833981019060e0818303126107915780516001600160401b03811161079157826100489183016107d3565b60208201519091906001600160401b038111610791578361006a9183016107d3565b60408201519160608101519261008260808301610828565b9061008f60a08401610828565b60c084015190936001600160401b03821161079157019680601f89011215610791578751976001600160401b0389116105f8578860051b604051996100d7602083018c6107b0565b8a526020808b0191830101918383116107915760208101915b8383106106fa5750505050506040519261010984610795565b60018452603160f81b602085015286516001600160401b0381116105f85761013260035461083c565b601f811161069b575b50806020601f8211600114610617575f9161060c575b508160011b915f199060031b1c1916176003555b84516001600160401b0381116105f85780600496610183885461083c565b601f81116105a8575b50602090601f8311600114610544575f92610539575b50508160011b915f199060031b1c19161785555b6101bf87610a46565b926101209384526101cf85610b99565b9761014098895260208151910120948560e0526020815191012094610100958087524660a0526040519060208201927f8b73c3c69bb8fe3d512ecc4cf759cc79239f7b179b0ffacaa9a75d522b39400f8452604083015260608201524660808201523060a082015260a0815260c0810181811060018060401b03821117610526576040525190206080523060c05261016096875261026c9061097b565b506001600160a01b031690811561050f576002548181018091116104fc5760205f927fddf252ad1be2c89b69c2b068fc378daa952ba7f163c4a11628f55a4df523b3ef9260025584845283825260408420818154019055604051908152a3835160405160208101918252602081526102e381610795565b519020335f9081525f80516020612d94833981519152602052604090205490949060ff16156104df575f5b875181101561049557855f526008806020526103a16103586020808c6103388760405f20926109fa565b515190604051938285935191829101845e8201908152030190205461083c565b15916020610366858d6109fa565b51015190895f526020526020808c6103828760405f20926109fa565b515190604051938285935191829101845e820190815203019020610874565b610418575b80867fc42c4edbc41dce02b01dd098a1f7a4c685c638d7a2fdfbe449b32e1f89fbfae16104018b61040f60206103ea876103e260019a866109fa565b5151946109fa565b510151604051938493604085526040850190610a22565b908382036020850152610a22565b0390a20161030e565b855f52600960205260405f2061042e828a6109fa565b51519080549068010000000000000000821015610482576001820180825582101561046f579161046891600194935f5260205f2001610874565b90506103a6565b603288634e487b7160e01b5f525260245ffd5b604188634e487b7160e01b5f525260245ffd5b5085604051926120d89485610cbc863960805185505060a05185505060c05185505060e0518550505184505051836105510152518261057e0152518181816103e50152611c220152f35b60405163e2517d3f60e01b815233818601525f6024820152604490fd5b601186634e487b7160e01b5f525260245ffd5b60405163ec442f0560e01b81525f81870152602490fd5b604189634e487b7160e01b5f525260245ffd5b015190505f806101a2565b5f898152602081209350601f198516905b8181106105905750908460019594939210610578575b505050811b0185556101b6565b01515f1960f88460031b161c191690555f808061056b565b92936020600181928786015181550195019301610555565b909150875f5260205f20601f840160051c810191602085106105ee575b90601f859493920160051c01905b8181106105e0575061018c565b5f81558493506001016105d3565b90915081906105c5565b634e487b7160e01b5f52604160045260245ffd5b90508801515f610151565b60035f90815292507fc2575a0e9e593c00f959f8c92f12db2869c3395a3b0502d05e2516446f71f85b905b8a601f198416851061068457506001935082601f1981161061066c575b5050811b01600355610165565b8a01515f1960f88460031b161c191690555f8061065f565b810151825560209384019360019092019101610642565b60035f527fc2575a0e9e593c00f959f8c92f12db2869c3395a3b0502d05e2516446f71f85b601f830160051c8101602084106106f3575b601f830160051c820181106106e857505061013b565b5f81556001016106d2565b50806106d2565b82516001600160401b038111610791578201906040828703601f1901126107915760408051919082016001600160401b038111838210176105f85760405260208301516001600160401b0381116107915787602061075a928601016107d3565b82526040830151916001600160401b03831161079157610782886020809695819601016107d3565b838201528152019201916100f0565b5f80fd5b604081019081106001600160401b038211176105f857604052565b601f909101601f19168101906001600160401b038211908210176105f857604052565b81601f82011215610791578051906001600160401b0382116105f85760405192610807601f8401601f1916602001856107b0565b8284526020838301011161079157815f9260208093018386015e8301015290565b51906001600160a01b038216820361079157565b90600182811c9216801561086a575b602083101461085657565b634e487b7160e01b5f52602260045260245ffd5b91607f169161084b565b81519192916001600160401b0381116105f857610891825461083c565b601f8111610936575b50602080601f83116001146108d55750819293945f926108ca575b50508160011b915f199060031b1c1916179055565b015190505f806108b5565b90601f19831695845f5260205f20925f905b88821061091e57505083600195969710610906575b505050811b019055565b01515f1960f88460031b161c191690555f80806108fc565b806001859682949686015181550195019301906108e7565b825f5260205f20601f830160051c81019160208410610971575b601f0160051c01905b818110610966575061089a565b5f8155600101610959565b9091508190610950565b6001600160a01b03165f8181525f80516020612d94833981519152602052604090205460ff166109f5575f8181525f80516020612d9483398151915260205260408120805460ff191660011790553391907f2f8788117e7eff1d82e926ec794901d17c78024a50270940304540a733656f0d8180a4600190565b505f90565b8051821015610a0e5760209160051b010190565b634e487b7160e01b5f52603260045260245ffd5b805180835260209291819084018484015e5f828201840152601f01601f1916010190565b805160209081811015610aa45750601f825111610a7e5780825192015190808310610a7057501790565b825f19910360031b1b161790565b610aa060405192839263305a27a960e01b845260048401526024830190610a22565b0390fd5b9192916001600160401b0381116105f857600591610ac2835461083c565b601f8111610b6a575b5080601f8311600114610b075750819293945f92610afc575b50508160011b915f199060031b1c191617905560ff90565b015190505f80610ae4565b90601f19831695845f52825f20925f905b888210610b5257505083600195969710610b3a575b505050811b01905560ff90565b01515f1960f88460031b161c191690555f8080610b2d565b80600185968294968601518155019501930190610b18565b835f52601f825f209101841c810190601f8401851c015b818110610b8e5750610acb565b5f8155600101610b81565b805160209081811015610bc35750601f825111610a7e5780825192015190808310610a7057501790565b919291906001600160401b0382116105f857610be060065461083c565b601f8111610c89575b5080601f8311600114610c2557508192935f92610c1a575b50508160011b915f199060031b1c19161760065560ff90565b015190505f80610c01565b90601f1983169460065f52825f20925f905b878210610c71575050836001959610610c59575b505050811b0160065560ff90565b01515f1960f88460031b161c191690555f8080610c4b565b80600185968294968601518155019501930190610c37565b60065f52601f825f20910160051c810190601f840160051c015b818110610cb05750610be9565b5f8155600101610ca356fe6080604090808252600480361015610015575f80fd5b5f3560e01c91826301ffc9a7146112885750816305daf3681461126957816306fdde0314611197578163095ea7b3146110ef5781630e1ae91b1461106c57816318160ddd1461104e57816323b872dd14610f5c578163248a9ca314610f3257816326f389ba14610e7b5781632f2ff15d14610e53578163313ce56714610e3857816336568abe14610df45781633b41f4ea14610c035781633c130d9014610be65781633dc3c175146109a75781635a454034146107c15781635cb0e05a146107a25781635e5971561461077b5781635f4cd4db146107585781635fe8e7cc1461063257816370a08231146105fc57816384b0196e1461053457816391d14854146104f057816395d89b41146104085781639ceb21ae146103ce578163a020731d1461039e578163a217fddf14610384578163a9059cbb14610354578163b719d45a14610311578163b93f3f34146102e4578163d11a1f0714610281578163d547741f1461024557508063d9a1963514610211578063dd62ed3e146101c85763e5e0a25d146101a1575f80fd5b346101c4576020906101bb6101b5366114a9565b91611c56565b90519015158152f35b5f80fd5b50346101c457806003193601126101c4576020906101e4611382565b6101ec611398565b9060018060a01b038091165f5260018452825f2091165f528252805f20549051908152f35b50346101c4575f3660031901126101c45761024190610236610231611c18565b611740565b9051918291826112fe565b0390f35b82346101c457806003193601126101c45761027f913561027a6001610268611398565b93835f5260076020525f200154611db5565b611e73565b005b82346101c45760203660031901126101c45781356001600160401b0381116101c4576102cb6102b9610241946102d19336910161147c565b91906102c3611c18565b923691611419565b906118b7565b90519182916020835260208301906112da565b82346101c4575f3660031901126101c457602090610300611c18565b5f5260098252805f20549051908152f35b82346101c45760203660031901126101c4578135916001600160401b0383116101c4576103466101bb9160209436910161147c565b9061034f611c18565b611c56565b82346101c457806003193601126101c45760209061037d610373611382565b6024359033611c85565b5160018152f35b82346101c4575f3660031901126101c457602090515f8152f35b82346101c4575f3660031901126101c457610241906103c36103be611c18565b611ba9565b9051918291826115a4565b82346101c4575f3660031901126101c457602090517f00000000000000000000000000000000000000000000000000000000000000008152f35b9050346101c4575f3660031901126101c457815191825f835461042a81611663565b90818452602095600191876001821691825f146104c957505060011461046d575b505050610241929161045e9103856113f8565b519282849384528301906112da565b5f90815286935091907f8a35acfbc15ff81a39ae7d344fd709f28e8600b4aa8c65c6b64bfe7fe36bd19b5b8284106104b1575050508201018161045e61024161044b565b8054848a018601528895508794909301928101610498565b60ff19168782015293151560051b8601909301935084925061045e9150610241905061044b565b82346101c457806003193601126101c45760209161050c611398565b90355f5260078352815f209060018060a01b03165f52825260ff815f20541690519015158152f35b82346101c4575f3660031901126101c4576105cf906102416105757f0000000000000000000000000000000000000000000000000000000000000000611ee7565b916105dc6105a27f0000000000000000000000000000000000000000000000000000000000000000611fe5565b918051926105af846113dd565b5f84528151968796600f60f81b885260e0602089015260e08801906112da565b91868303908701526112da565b904660608501523060808501525f60a085015283820360c0850152611607565b82346101c45760203660031901126101c4576020906001600160a01b03610621611382565b165f525f8252805f20549051908152f35b82346101c4575f3660031901126101c457600a90600a5490610653826114dc565b91610660825193846113f8565b80835261066c816114dc565b9160209182850195601f19809501368837610686826114dc565b94610693845196876113f8565b82865261069f836114dc565b0136858701375f5b8281106106fd57505050805193818501918552518091526060840194905f5b8181106106e0578587038487015285806102418988611607565b82516001600160a01b0316875295830195918301916001016106c6565b5f8290527fc65a7bb8d6351c1cf70c95a316cc6a92839c986682d98bc35f958f4883f9d2a8810154600191906001600160a01b03168061073d838b61172c565b525f525f8652845f2054610751828961172c565b52016106a7565b82346101c4575f3660031901126101c457602090610774611c18565b9051908152f35b82346101c45760203660031901126101c457602091355f5260098252805f20549051908152f35b82346101c45760203660031901126101c4576103c36102419235611ba9565b9050346101c4576020806003193601126101c4578135926001600160401b03918285116101c457366023860112156101c457848401359283116101c4576024943660248560051b830101116101c45761082f9061081c611d5f565b610824611c18565b9460243692016114f3565b94610838611d5f565b5f5b865181101561027f57845f5260088084526108c461088085808b610861878b5f209261172c565b5151908a51938285935191829101845e82019081520301902054611663565b15918561088d858c61172c565b51015190885f52865285808b6108a6878b5f209261172c565b5151908a51938285935191829101845e820190815203019020611a97565b610936575b80857fc42c4edbc41dce02b01dd098a1f7a4c685c638d7a2fdfbe449b32e1f89fbfae16109208a61092d8861090c8761090460019a8661172c565b51519461172c565b5101518a519384938c85528c8501906112da565b908382038b8501526112da565b0390a20161083a565b845f5260098352835f2061094a828961172c565b515190805490600160401b821015610995579061096c9160018201815561163a565b610984576001929161097d91611a97565b90506108c9565b835f89634e487b7160e01b8252525ffd5b8460418a634e487b7160e01b5f52525ffd5b9050346101c4576020806003193601126101c45781356001600160401b0381116101c4576109d8903690840161147c565b90936109e2611d5f565b6109ea611c18565b926109f3611d5f565b835f5260088152610a19825f208284518092878b83378782019081520301902054611663565b15610baf57835f5260088152610a43825f208284518092878b833787820190815203019020611905565b835f5260098152815f205f5b815480821015610b7e57610a75610a7c610a69848661163a565b5087519283809261169b565b03826113f8565b848151910120610a8d36888c611419565b85815191012014610aa15750600101610a4f565b919293949596905f1992838101908111610b6b57610ac2610aca918661163a565b50918561163a565b610b595790610ad8916119b3565b8254908115610b46575096859283927fca45c60cf1bbd58b2ac673da0d008eb3606c36e814e8d7fe0df3a3e53ecc59b798990190610b1f610b19838361163a565b9061194e565b555b8451958487958652850152848401375f828201840152601f01601f19168101030190a2005b603190634e487b7160e01b5f525260245ffd5b5f83634e487b7160e01b82525260245ffd5b601183634e487b7160e01b5f525260245ffd5b50505090917fca45c60cf1bbd58b2ac673da0d008eb3606c36e814e8d7fe0df3a3e53ecc59b7945080809496610b21565b8490606492519162461bcd60e51b8352820152601260248201527112d95e48191bd95cc81b9bdd08195e1a5cdd60721b6044820152fd5b82346101c4575f3660031901126101c457610241906102d1611b5a565b82346101c457806003193601126101c45781356024916024356001600160401b0381116101c457366023820112156101c457610c4890369060248188013591016114f3565b93610c51611d5f565b5f5b855181101561027f57835f526008908487602093808552610ce1610c9e86808a5f20610c7f898861172c565b5151908c51938285935191829101845e82019081520301902054611663565b159186610cab878661172c565b51015190855f52875286808a5f20610cc3898861172c565b5151908c51938285935191829101845e820190815203019020611a97565b610d52575b610d3c81610d4986600197610d2888610d20817fc42c4edbc41dce02b01dd098a1f7a4c685c638d7a2fdfbe449b32e1f89fbfae19961172c565b51519561172c565b5101518a519485948c86528c8601906112da565b91848303908501526112da565b0390a201610c53565b505f9291925260098152835f20610d69838961172c565b515190805490600160401b821015610de25790610d8b9160018201815561163a565b610dd157610d3c89610d4960019695610dc68b967fc42c4edbc41dce02b01dd098a1f7a4c685c638d7a2fdfbe449b32e1f89fbfae196611a97565b965050915050610ce6565b875f86634e487b7160e01b8252525ffd5b88604187634e487b7160e01b5f52525ffd5b82346101c457806003193601126101c457610e0d611398565b90336001600160a01b03831603610e29575061027f9135611e73565b5163334bd91960e11b81529050fd5b82346101c4575f3660031901126101c4576020905160128152f35b82346101c457806003193601126101c45761027f9135610e766001610268611398565b611df5565b9050346101c457610e8b366114a9565b9093610e95611d5f565b825f52602060088152610ebd825f208284518092878b83378782019081520301902054611663565b15610baf57835f5260088152610ee7825f208284518092878b833787820190815203019020611905565b835f5260098152815f205f5b815480821015610b7e57610a75610f0d610a69848661163a565b848151910120610f1e36888c611419565b85815191012014610aa15750600101610ef3565b82346101c45760203660031901126101c457602091355f52600782526001815f2001549051908152f35b9050346101c45760603660031901126101c457610f77611382565b610f7f611398565b906044359260018060a01b038216805f526001602052855f20335f52602052855f2054915f198310610fba575b60208761037d888888611c85565b85831061102257811561100c573315610ff657505f9081526001602090815286822033835281529086902091859003909155829061037d610fac565b6024905f885191634a1406b160e11b8352820152fd5b6024905f88519163e602df0560e01b8352820152fd5b8651637dc7a0d960e11b8152339181019182526020820193909352604081018690528291506060010390fd5b82346101c4575f3660031901126101c4576020906002549051908152f35b9050346101c457816003193601126101c457602435916001600160401b0383116101c4576110dd6020806110d6946110aa610241973690830161145e565b90355f5260088252845f208551938285935191829101845e82019081520301902082519384809261169b565b03836113f8565b519182916020835260208301906112da565b82346101c457806003193601126101c457611108611382565b602435903315611181576001600160a01b031690811561116b5760209350335f5260018452825f20825f52845280835f205582519081527f8c5be1e5ebec7d5bd14f71427d1e84f3dd0314c0f7b2291e5b200ac8c7c3b925843392a35160018152f35b8251634a1406b160e11b81525f81860152602490fd5b825163e602df0560e01b81525f81860152602490fd5b82346101c4575f3660031901126101c45780516003549091825f6111ba84611663565b808352602094600190866001821691825f146112475750506001146111ec575b5050610241929161045e9103856113f8565b9085925060035f527fc2575a0e9e593c00f959f8c92f12db2869c3395a3b0502d05e2516446f71f85b915f925b82841061122f575050508201018161045e6111da565b8054848a018601528895508794909301928101611219565b60ff19168682015292151560051b8501909201925083915061045e90506111da565b82346101c45760203660031901126101c4576102366102419235611740565b90346101c45760203660031901126101c457359063ffffffff60e01b82168092036101c457602091637965db0b60e01b81149081156112c9575b5015158152f35b6301ffc9a760e01b149050836112c2565b805180835260209291819084018484015e5f828201840152601f01601f1916010190565b6020808201908083528351809252604092604081018260408560051b8401019601945f925b858410611334575050505050505090565b909192939495968580611371600193603f198682030188528b51908361136183518a84528a8401906112da565b92015190848184039101526112da565b990194019401929594939190611323565b600435906001600160a01b03821682036101c457565b602435906001600160a01b03821682036101c457565b604081019081106001600160401b038211176113c957604052565b634e487b7160e01b5f52604160045260245ffd5b602081019081106001600160401b038211176113c957604052565b90601f801991011681019081106001600160401b038211176113c957604052565b9291926001600160401b0382116113c95760405191611442601f8201601f1916602001846113f8565b8294818452818301116101c4578281602093845f960137010152565b9080601f830112156101c45781602061147993359101611419565b90565b9181601f840112156101c4578235916001600160401b0383116101c457602083818601950101116101c457565b9060406003198301126101c45760043591602435906001600160401b0382116101c4576114d89160040161147c565b9091565b6001600160401b0381116113c95760051b60200190565b90929192611500816114dc565b9160409161151160405194856113f8565b839581855260208095019160051b8301938185116101c45783925b85841061153c5750505050505050565b6001600160401b039084358281116101c45786019083828603126101c4578351611565816113ae565b82358481116101c4578661157a91850161145e565b8152898301359384116101c457611595868b9586950161145e565b8382015281520193019261152c565b6020808201906020835283518092526040830192602060408460051b8301019501935f915b8483106115d95750505050505090565b90919293949584806115f7600193603f198682030187528a516112da565b98019301930191949392906115c9565b9081518082526020808093019301915f5b828110611626575050505090565b835185529381019392810192600101611618565b805482101561164f575f5260205f2001905f90565b634e487b7160e01b5f52603260045260245ffd5b90600182811c92168015611691575b602083101461167d57565b634e487b7160e01b5f52602260045260245ffd5b91607f1691611672565b80545f93926116a982611663565b918282526020936001916001811690815f1461170d57506001146116cf575b5050505050565b90939495505f92919252835f2092845f945b8386106116f957505050500101905f808080806116c8565b8054858701830152940193859082016116e1565b60ff19168685015250505090151560051b010191505f808080806116c8565b805182101561164f5760209160051b010190565b90815f52602060098152604092835f209384549161175d836114dc565b9161176a815193846113f8565b838352601f19611779856114dc565b01855f5b8281106118955750505082965f5b85811061179b5750505050505050565b6117a5818361163a565b50845f5260088852835f20886117bb848661163a565b508651925f9180546117cc81611663565b9160019180831690811561187b5750600114611845575b50505092610a759281836001989796611825955203019020610a7561181889519561180d876113ae565b8a519283809261169b565b845287519283809261169b565b89820152611833828861172c565b5261183e818761172c565b500161178b565b5f90815285812093945091925b83831061186857505050830190828460016117e3565b8054878401528e95909201918101611852565b60ff191688525050508015150284019150828460016117e3565b83516118a0816113ae565b60608082528382015282828801015201869061177d565b602080610a7593611479935f526008825260405f20604051938285935191829101845e8201908152030190206040519283809261169b565b8181106118fa575050565b5f81556001016118ef565b61190f8154611663565b9081611919575050565b81601f5f931160011461192b5750555b565b90808391825261194a601f60208420940160051c8401600185016118ef565b5555565b9061195d5761190f8154611663565b634e487b7160e01b5f525f60045260245ffd5b9190601f811161197f57505050565b611929925f5260205f20906020601f840160051c830193106119a9575b601f0160051c01906118ef565b909150819061199c565b90808214611a93576119c58154611663565b906001600160401b0382116113c9576119e8826119e28554611663565b85611970565b5f90601f8311600114611a2557611a1692915f9183611a1a575b50508160011b915f199060031b1c19161790565b9055565b015490505f80611a02565b90601f198316915f5260209160205f2090855f5260205f20935f905b828210611a7a575050908460019594939210611a62575b505050811b019055565b01545f1960f88460031b161c191690555f8080611a58565b8495819295850154815560018091019601940190611a41565b5050565b91909182516001600160401b0381116113c957611abe81611ab88454611663565b84611970565b602080601f8311600114611afa57508190611a169394955f92611aef5750508160011b915f199060031b1c19161790565b015190505f80611a02565b90601f19831695845f5260205f20925f905b888210611b4257505083600195969710611b2a57505050811b019055565b01515f1960f88460031b161c191690555f8080611a58565b80600185968294968601518155019501930190611b0c565b611b8c611b65611c18565b60405190611b72826113ae565b6008825267746f6b656e55524960c01b60208301526118b7565b805115611b965790565b50604051611ba3816113dd565b5f815290565b5f526020600960205260409060405f20805491611bc5836114dc565b93611bd360405195866113f8565b83855260208501925f5260205f20905f935b858510611bf55750505050505090565b60018481928451611c0a81610a75818a61169b565b815201930194019391611be5565b60405160208101907f0000000000000000000000000000000000000000000000000000000000000000825260208152611c50816113ae565b51902090565b611c8092916020915f526008825260405f2083604051948593843782019081520301902054611663565b151590565b916001600160a01b03808416928315611d475716928315611d2f57825f525f60205260405f205490828210611cfd5750817fddf252ad1be2c89b69c2b068fc378daa952ba7f163c4a11628f55a4df523b3ef92602092855f525f84520360405f2055845f5260405f20818154019055604051908152a3565b60405163391434e360e21b81526001600160a01b03919091166004820152602481019190915260448101829052606490fd5b60405163ec442f0560e01b81525f6004820152602490fd5b604051634b637e8f60e11b81525f6004820152602490fd5b335f9081527f6d5257204ebe7d88fd91ae87941cb2dd9d8062b64ae5a2bd2d28ec40b9fbf6df602052604090205460ff1615611d9757565b60405163e2517d3f60e01b81523360048201525f6024820152604490fd5b805f52600760205260405f20335f5260205260ff60405f20541615611dd75750565b6044906040519063e2517d3f60e01b82523360048301526024820152fd5b90815f52600760205260405f209060018060a01b031690815f5260205260ff60405f205416155f14611e6d57815f52600760205260405f20815f5260205260405f20600160ff1982541617905533917f2f8788117e7eff1d82e926ec794901d17c78024a50270940304540a733656f0d5f80a4600190565b50505f90565b90815f52600760205260405f209060018060a01b031690815f5260205260ff60405f2054165f14611e6d57815f52600760205260405f20815f5260205260405f2060ff19815416905533917ff6391f5c32d9c69d2a47ea670b442974b53935d1edc7fd64eb21e047a839171b5f80a4600190565b60ff8114611f255760ff811690601f8211611f135760405191611f09836113ae565b8252602082015290565b604051632cd44ac360e21b8152600490fd5b50604051600554815f611f3783611663565b80835292602090600190818116908115611fc15750600114611f62575b5050611479925003826113f8565b91509260055f527f036b6384b5eca791c62761152d0c79bb0604c104a5fb6f4eb0703f3154bb3db0935f925b828410611fa957506114799450505081016020015f80611f54565b85548785018301529485019486945092810192611f8e565b9150506020925061147994915060ff191682840152151560051b8201015f80611f54565b60ff81146120075760ff811690601f8211611f135760405191611f09836113ae565b50604051600654815f61201983611663565b80835292602090600190818116908115611fc15750600114612043575050611479925003826113f8565b91509260065f527ff652222313e28459528d920b65115c16c04f3efc82aaedc97be59f3f377c0d3f935f925b82841061208a57506114799450505081016020015f80611f54565b8554878501830152948501948694509281019261206f56fea26469706673582212206a7723ad3d5872ffb51b94ac13a9a7bda95371168a8195f3593e06830d94b86c64736f6c634300081900336d5257204ebe7d88fd91ae87941cb2dd9d8062b64ae5a2bd2d28ec40b9fbf6df","linkReferences":{}},"methodIdentifiers":{"ASSET_ID()":"9ceb21ae","DEFAULT_ADMIN_ROLE()":"a217fddf","allowance(address,address)":"dd62ed3e","approve(address,uint256)":"095ea7b3","balanceOf(address)":"70a08231","decimals()":"313ce567","eip712Domain()":"84b0196e","getAllMetadata()":"d9a19635","getAllMetadata(bytes32)":"05daf368","getAllMetadataKeys()":"a020731d","getAllMetadataKeys(bytes32)":"5cb0e05a","getAssetIdHash()":"5f4cd4db","getHolders()":"5fe8e7cc","getMetadata(bytes32,string)":"0e1ae91b","getMetadata(string)":"d11a1f07","getMetadataCount()":"b93f3f34","getMetadataCount(bytes32)":"5e597156","getRoleAdmin(bytes32)":"248a9ca3","grantRole(bytes32,address)":"2f2ff15d","hasMetadata(bytes32,string)":"e5e0a25d","hasMetadata(string)":"b719d45a","hasRole(bytes32,address)":"91d14854","name()":"06fdde03","removeMetadata(bytes32,string)":"26f389ba","removeMetadata(string)":"3dc3c175","renounceRole(bytes32,address)":"36568abe","revokeRole(bytes32,address)":"d547741f","setMetadata((string,string)[])":"5a454034","setMetadata(bytes32,(string,string)[])":"3b41f4ea","supportsInterface(bytes4)":"01ffc9a7","symbol()":"95d89b41","tokenURI()":"3c130d90","totalSupply()":"18160ddd","transfer(address,uint256)":"a9059cbb","transferFrom(address,address,uint256)":"23b872dd"},"id":31}