{"abi":[{"type":"function","name":"ASSET_ID","inputs":[],"outputs":[{"name":"","type":"uint256","internalType":"uint256"}],"stateMutability":"view"},{"type":"function","name":"DEFAULT_ADMIN_ROLE","inputs":[],"outputs":[{"name":"","type":"bytes32","internalType":"bytes32"}],"stateMutability":"view"},{"type":"function","name":"UPGRADE_INTERFACE_VERSION","inputs":[],"outputs":[{"name":"","type":"string","internalType":"string"}],"stateMutability":"view"},{"type":"function","name":"allowance","inputs":[{"name":"owner","type":"address","internalType":"address"},{"name":"spender","type":"address","internalType":"address"}],"outputs":[{"name":"","type":"uint256","internalType":"uint256"}],"stateMutability":"view"},{"type":"function","name":"approve","inputs":[{"name":"spender","type":"address","internalType":"address"},{"name":"value","type":"uint256","internalType":"uint256"}],"outputs":[{"name":"","type":"bool","internalType":"bool"}],"stateMutability":"nonpayable"},{"type":"function","name":"balanceOf","inputs":[{"name":"account","type":"address","internalType":"address"}],"outputs":[{"name":"","type":"uint256","internalType":"uint256"}],"stateMutability":"view"},{"type":"function","name":"decimals","inputs":[],"outputs":[{"name":"","type":"uint8","internalType":"uint8"}],"stateMutability":"view"},{"type":"function","name":"eip712Domain","inputs":[],"outputs":[{"name":"fields","type":"bytes1","internalType":"bytes1"},{"name":"name","type":"string","internalType":"string"},{"name":"version","type":"string","internalType":"string"},{"name":"chainId","type":"uint256","internalType":"uint256"},{"name":"verifyingContract","type":"address","internalType":"address"},{"name":"salt","type":"bytes32","internalType":"bytes32"},{"name":"extensions","type":"uint256[]","internalType":"uint256[]"}],"stateMutability":"view"},{"type":"function","name":"getAllMetadata","inputs":[{"name":"hash","type":"bytes32","internalType":"bytes32"}],"outputs":[{"name":"metadata","type":"tuple[]","internalType":"struct MetadataStorage.Metadata[]","components":[{"name":"key","type":"string","internalType":"string"},{"name":"value","type":"string","internalType":"string"}]}],"stateMutability":"view"},{"type":"function","name":"getAllMetadata","inputs":[],"outputs":[{"name":"metadata","type":"tuple[]","internalType":"struct MetadataStorage.Metadata[]","components":[{"name":"key","type":"string","internalType":"string"},{"name":"value","type":"string","internalType":"string"}]}],"stateMutability":"view"},{"type":"function","name":"getAllMetadataKeys","inputs":[{"name":"hash","type":"bytes32","internalType":"bytes32"}],"outputs":[{"name":"keys","type":"string[]","internalType":"string[]"}],"stateMutability":"view"},{"type":"function","name":"getAllMetadataKeys","inputs":[],"outputs":[{"name":"keys","type":"string[]","internalType":"string[]"}],"stateMutability":"view"},{"type":"function","name":"getAssetIdHash","inputs":[],"outputs":[{"name":"hash","type":"bytes32","internalType":"bytes32"}],"stateMutability":"view"},{"type":"function","name":"getHolders","inputs":[],"outputs":[{"name":"holders","type":"address[]","internalType":"address[]"},{"name":"balances","type":"uint256[]","internalType":"uint256[]"}],"stateMutability":"view"},{"type":"function","name":"getMetadata","inputs":[{"name":"hash","type":"bytes32","internalType":"bytes32"},{"name":"key","type":"string","internalType":"string"}],"outputs":[{"name":"value","type":"string","internalType":"string"}],"stateMutability":"view"},{"type":"function","name":"getMetadata","inputs":[{"name":"key","type":"string","internalType":"string"}],"outputs":[{"name":"value","type":"string","internalType":"string"}],"stateMutability":"view"},{"type":"function","name":"getMetadataCount","inputs":[{"name":"hash","type":"bytes32","internalType":"bytes32"}],"outputs":[{"name":"count","type":"uint256","internalType":"uint256"}],"stateMutability":"view"},{"type":"function","name":"getMetadataCount","inputs":[],"outputs":[{"name":"count","type":"uint256","internalType":"uint256"}],"stateMutability":"view"},{"type":"function","name":"getRoleAdmin","inputs":[{"name":"role","type":"bytes32","internalType":"bytes32"}],"outputs":[{"name":"","type":"bytes32","internalType":"bytes32"}],"stateMutability":"view"},{"type":"function","name":"getUupsImplementation","inputs":[],"outputs":[{"name":"","type":"address","internalType":"address"}],"stateMutability":"view"},{"type":"function","name":"grantRole","inputs":[{"name":"role","type":"bytes32","internalType":"bytes32"},{"name":"account","type":"address","internalType":"address"}],"outputs":[],"stateMutability":"nonpayable"},{"type":"function","name":"hasMetadata","inputs":[{"name":"key","type":"string","internalType":"string"}],"outputs":[{"name":"exists","type":"bool","internalType":"bool"}],"stateMutability":"view"},{"type":"function","name":"hasMetadata","inputs":[{"name":"hash","type":"bytes32","internalType":"bytes32"},{"name":"key","type":"string","internalType":"string"}],"outputs":[{"name":"exists","type":"bool","internalType":"bool"}],"stateMutability":"view"},{"type":"function","name":"hasRole","inputs":[{"name":"role","type":"bytes32","internalType":"bytes32"},{"name":"account","type":"address","internalType":"address"}],"outputs":[{"name":"","type":"bool","internalType":"bool"}],"stateMutability":"view"},{"type":"function","name":"initialize","inputs":[{"name":"name","type":"string","internalType":"string"},{"name":"symbol","type":"string","internalType":"string"},{"name":"totalSupply","type":"uint256","internalType":"uint256"},{"name":"assetId","type":"uint256","internalType":"uint256"},{"name":"admin","type":"address","internalType":"address"},{"name":"upgrader","type":"address","internalType":"address"},{"name":"tokenRecipient","type":"address","internalType":"address"},{"name":"metadata","type":"tuple[]","internalType":"struct MetadataStorage.Metadata[]","components":[{"name":"key","type":"string","internalType":"string"},{"name":"value","type":"string","internalType":"string"}]}],"outputs":[],"stateMutability":"nonpayable"},{"type":"function","name":"name","inputs":[],"outputs":[{"name":"","type":"string","internalType":"string"}],"stateMutability":"view"},{"type":"function","name":"proxiableUUID","inputs":[],"outputs":[{"name":"","type":"bytes32","internalType":"bytes32"}],"stateMutability":"view"},{"type":"function","name":"removeMetadata","inputs":[{"name":"hash","type":"bytes32","internalType":"bytes32"},{"name":"key","type":"string","internalType":"string"}],"outputs":[],"stateMutability":"nonpayable"},{"type":"function","name":"removeMetadata","inputs":[{"name":"key","type":"string","internalType":"string"}],"outputs":[],"stateMutability":"nonpayable"},{"type":"function","name":"renounceRole","inputs":[{"name":"role","type":"bytes32","internalType":"bytes32"},{"name":"callerConfirmation","type":"address","internalType":"address"}],"outputs":[],"stateMutability":"nonpayable"},{"type":"function","name":"revokeRole","inputs":[{"name":"role","type":"bytes32","internalType":"bytes32"},{"name":"account","type":"address","internalType":"address"}],"outputs":[],"stateMutability":"nonpayable"},{"type":"function","name":"setMetadata","inputs":[{"name":"hash","type":"bytes32","internalType":"bytes32"},{"name":"metadata_","type":"tuple[]","internalType":"struct MetadataStorage.Metadata[]","components":[{"name":"key","type":"string","internalType":"string"},{"name":"value","type":"string","internalType":"string"}]}],"outputs":[],"stateMutability":"nonpayable"},{"type":"function","name":"setMetadata","inputs":[{"name":"metadata_","type":"tuple[]","internalType":"struct MetadataStorage.Metadata[]","components":[{"name":"key","type":"string","internalType":"string"},{"name":"value","type":"string","internalType":"string"}]}],"outputs":[],"stateMutability":"nonpayable"},{"type":"function","name":"supportsInterface","inputs":[{"name":"interfaceId","type":"bytes4","internalType":"bytes4"}],"outputs":[{"name":"","type":"bool","internalType":"bool"}],"stateMutability":"view"},{"type":"function","name":"symbol","inputs":[],"outputs":[{"name":"","type":"string","internalType":"string"}],"stateMutability":"view"},{"type":"function","name":"totalSupply","inputs":[],"outputs":[{"name":"","type":"uint256","internalType":"uint256"}],"stateMutability":"view"},{"type":"function","name":"transfer","inputs":[{"name":"to","type":"address","internalType":"address"},{"name":"value","type":"uint256","internalType":"uint256"}],"outputs":[{"name":"","type":"bool","internalType":"bool"}],"stateMutability":"nonpayable"},{"type":"function","name":"transferFrom","inputs":[{"name":"from","type":"address","internalType":"address"},{"name":"to","type":"address","internalType":"address"},{"name":"value","type":"uint256","internalType":"uint256"}],"outputs":[{"name":"","type":"bool","internalType":"bool"}],"stateMutability":"nonpayable"},{"type":"function","name":"upgradeToAndCall","inputs":[{"name":"newImplementation","type":"address","internalType":"address"},{"name":"data","type":"bytes","internalType":"bytes"}],"outputs":[],"stateMutability":"payable"},{"type":"function","name":"uri","inputs":[],"outputs":[{"name":"","type":"string","internalType":"string"}],"stateMutability":"view"},{"type":"event","name":"Approval","inputs":[{"name":"owner","type":"address","indexed":true,"internalType":"address"},{"name":"spender","type":"address","indexed":true,"internalType":"address"},{"name":"value","type":"uint256","indexed":false,"internalType":"uint256"}],"anonymous":false},{"type":"event","name":"EIP712DomainChanged","inputs":[],"anonymous":false},{"type":"event","name":"Initialized","inputs":[{"name":"version","type":"uint64","indexed":false,"internalType":"uint64"}],"anonymous":false},{"type":"event","name":"MetadataRemoved","inputs":[{"name":"hash","type":"bytes32","indexed":true,"internalType":"bytes32"},{"name":"key","type":"string","indexed":false,"internalType":"string"}],"anonymous":false},{"type":"event","name":"MetadataUpdated","inputs":[{"name":"hash","type":"bytes32","indexed":true,"internalType":"bytes32"},{"name":"key","type":"string","indexed":false,"internalType":"string"},{"name":"value","type":"string","indexed":false,"internalType":"string"}],"anonymous":false},{"type":"event","name":"RoleAdminChanged","inputs":[{"name":"role","type":"bytes32","indexed":true,"internalType":"bytes32"},{"name":"previousAdminRole","type":"bytes32","indexed":true,"internalType":"bytes32"},{"name":"newAdminRole","type":"bytes32","indexed":true,"internalType":"bytes32"}],"anonymous":false},{"type":"event","name":"RoleGranted","inputs":[{"name":"role","type":"bytes32","indexed":true,"internalType":"bytes32"},{"name":"account","type":"address","indexed":true,"internalType":"address"},{"name":"sender","type":"address","indexed":true,"internalType":"address"}],"anonymous":false},{"type":"event","name":"RoleRevoked","inputs":[{"name":"role","type":"bytes32","indexed":true,"internalType":"bytes32"},{"name":"account","type":"address","indexed":true,"internalType":"address"},{"name":"sender","type":"address","indexed":true,"internalType":"address"}],"anonymous":false},{"type":"event","name":"Transfer","inputs":[{"name":"from","type":"address","indexed":true,"internalType":"address"},{"name":"to","type":"address","indexed":true,"internalType":"address"},{"name":"value","type":"uint256","indexed":false,"internalType":"uint256"}],"anonymous":false},{"type":"event","name":"Upgraded","inputs":[{"name":"implementation","type":"address","indexed":true,"internalType":"address"}],"anonymous":false},{"type":"error","name":"AccessControlBadConfirmation","inputs":[]},{"type":"error","name":"AccessControlUnauthorizedAccount","inputs":[{"name":"account","type":"address","internalType":"address"},{"name":"neededRole","type":"bytes32","internalType":"bytes32"}]},{"type":"error","name":"AddressEmptyCode","inputs":[{"name":"target","type":"address","internalType":"address"}]},{"type":"error","name":"ERC1967InvalidImplementation","inputs":[{"name":"implementation","type":"address","internalType":"address"}]},{"type":"error","name":"ERC1967NonPayable","inputs":[]},{"type":"error","name":"ERC20InsufficientAllowance","inputs":[{"name":"spender","type":"address","internalType":"address"},{"name":"allowance","type":"uint256","internalType":"uint256"},{"name":"needed","type":"uint256","internalType":"uint256"}]},{"type":"error","name":"ERC20InsufficientBalance","inputs":[{"name":"sender","type":"address","internalType":"address"},{"name":"balance","type":"uint256","internalType":"uint256"},{"name":"needed","type":"uint256","internalType":"uint256"}]},{"type":"error","name":"ERC20InvalidApprover","inputs":[{"name":"approver","type":"address","internalType":"address"}]},{"type":"error","name":"ERC20InvalidReceiver","inputs":[{"name":"receiver","type":"address","internalType":"address"}]},{"type":"error","name":"ERC20InvalidSender","inputs":[{"name":"sender","type":"address","internalType":"address"}]},{"type":"error","name":"ERC20InvalidSpender","inputs":[{"name":"spender","type":"address","internalType":"address"}]},{"type":"error","name":"FailedCall","inputs":[]},{"type":"error","name":"InvalidInitialization","inputs":[]},{"type":"error","name":"NotInitializing","inputs":[]},{"type":"error","name":"UUPSUnauthorizedCallContext","inputs":[]},{"type":"error","name":"UUPSUnsupportedProxiableUUID","inputs":[{"name":"slot","type":"bytes32","internalType":"bytes32"}]}],"bytecode":{"object":"0x60a080604052346100c257306080525f5160206144e65f395f51905f525460ff8160401c166100b3576002600160401b03196001600160401b03821601610060575b60405161441f90816100c782396080518181816111a101526112940152f35b6001600160401b0319166001600160401b039081175f5160206144e65f395f51905f525581527fc7f505b2f371ae2175ee4913f4499e1f2633a7b5936321eed1cdaeb6115181d290602090a15f80610041565b63f92ee8a960e01b5f5260045ffd5b5f80fdfe6080806040526004361015610012575f80fd5b5f3560e01c90816301ffc9a714612e795750806305daf36814612e3c57806306fdde0314612d3b578063095ea7b314612c6d5780630e1ae91b14612be357806318160ddd14612b8957806323b872dd14612981578063248a9ca31461291957806326f389ba1461285d5780632f2ff15d146127e2578063313ce567146127a9578063358410d51461273957806336568abe146126b15780633b41f4ea1461257c5780633dc3c175146122a057806347a52eac146115945780634f1ef2861461121957806352d1902d1461115c5780635a45403414610f125780635cb0e05a14610ed55780635e59715614610e8d5780635f4cd4db14610e4d5780635fe8e7cc14610c5657806370a0823114610bd457806384b0196e1461084e57806391d14854146107ba57806395d89b41146106765780639ceb21ae1461063b578063a020731d146105ee578063a217fddf146105b6578063a9059cbb14610567578063ad3cb1cc146104ea578063b719d45a14610488578063b93f3f341461043c578063d11a1f07146103cc578063d547741f1461034a578063d9a19635146102fd578063dd62ed3e1461024c578063e5e0a25d146102295763eac989f8146101d4575f80fd5b34610225575f7ffffffffffffffffffffffffffffffffffffffffffffffffffffffffffffffffc3601126102255761022161020d613a17565b604051918291602083526020830190612f35565b0390f35b5f80fd5b3461022557602061024261023c36613168565b916139e9565b6040519015158152f35b346102255760407ffffffffffffffffffffffffffffffffffffffffffffffffffffffffffffffffc36011261022557610283613015565b73ffffffffffffffffffffffffffffffffffffffff6102e76102a3613038565b9273ffffffffffffffffffffffffffffffffffffffff165f527f52c63247e1f47db19d5ce0460030c497f067ca4cebf71ba98eeadabe20bace0160205260405f2090565b91165f52602052602060405f2054604051908152f35b34610225575f7ffffffffffffffffffffffffffffffffffffffffffffffffffffffffffffffffc3601126102255761022161033e6103396139c7565b613474565b60405191829182612f78565b346102255760407ffffffffffffffffffffffffffffffffffffffffffffffffffffffffffffffffc360112610225576103ca600435610387613038565b906103c56103c0825f527f02dd7bc7dec4dceedda775e58dd541e08a116c6c53815c0bd028192f7b626800602052600160405f20015490565b613c90565b614013565b005b346102255760207ffffffffffffffffffffffffffffffffffffffffffffffffffffffffffffffffc3601126102255760043567ffffffffffffffff81116102255761020d61043661042461022193369060040161313a565b919061042e6139c7565b9236916130b8565b90613622565b34610225575f7ffffffffffffffffffffffffffffffffffffffffffffffffffffffffffffffffc360112610225576104726139c7565b5f526001602052602060405f2054604051908152f35b346102255760207ffffffffffffffffffffffffffffffffffffffffffffffffffffffffffffffffc3601126102255760043567ffffffffffffffff8111610225576102426104dc602092369060040161313a565b906104e56139c7565b6139e9565b34610225575f7ffffffffffffffffffffffffffffffffffffffffffffffffffffffffffffffffc36011261022557610221604051610529604082613077565b600581527f352e302e300000000000000000000000000000000000000000000000000000006020820152604051918291602083526020830190612f35565b346102255760407ffffffffffffffffffffffffffffffffffffffffffffffffffffffffffffffffc360112610225576105ab6105a1613015565b6024359033613a7f565b602060405160018152f35b34610225575f7ffffffffffffffffffffffffffffffffffffffffffffffffffffffffffffffffc3601126102255760206040515f8152f35b34610225575f7ffffffffffffffffffffffffffffffffffffffffffffffffffffffffffffffffc3601126102255761022161062f61062a6139c7565b61395f565b604051918291826132aa565b34610225575f7ffffffffffffffffffffffffffffffffffffffffffffffffffffffffffffffffc360112610225576020600254604051908152f35b34610225575f7ffffffffffffffffffffffffffffffffffffffffffffffffffffffffffffffffc360112610225576040515f7f52c63247e1f47db19d5ce0460030c497f067ca4cebf71ba98eeadabe20bace04546106d38161336f565b808452906001811690811561077857506001146106fb575b6102218361020d81850382613077565b7f52c63247e1f47db19d5ce0460030c497f067ca4cebf71ba98eeadabe20bace045f9081527f46a2803e59a4de4e7a4c574b1243f25977ac4c77d5a1a4a609b5394cebb4a2aa939250905b80821061075e5750909150810160200161020d6106eb565b919260018160209254838588010152019101909291610746565b7fffffffffffffffffffffffffffffffffffffffffffffffffffffffffffffff001660208086019190915291151560051b8401909101915061020d90506106eb565b346102255760407ffffffffffffffffffffffffffffffffffffffffffffffffffffffffffffffffc360112610225576107f1613038565b6004355f527f02dd7bc7dec4dceedda775e58dd541e08a116c6c53815c0bd028192f7b62680060205273ffffffffffffffffffffffffffffffffffffffff60405f2091165f52602052602060ff60405f2054166040519015158152f35b34610225575f7ffffffffffffffffffffffffffffffffffffffffffffffffffffffffffffffffc360112610225577fa16a46d94261c7517cc8ff89f61c0ce93598e3c849801011dee649a6a557d100541580610bab575b15610b4d576040517fa16a46d94261c7517cc8ff89f61c0ce93598e3c849801011dee649a6a557d10254815f6108da8361336f565b8083529260018116908115610b105750600114610a92575b6108fe92500382613077565b604051905f7fa16a46d94261c7517cc8ff89f61c0ce93598e3c849801011dee649a6a557d1035461092e8161336f565b8085529060018116908115610a5257506001146109db575b508261095a6109ad94610221930382613077565b6109bb6040519161096c602084613077565b5f83525f3681376040519586957f0f00000000000000000000000000000000000000000000000000000000000000875260e0602088015260e0870190612f35565b908582036040870152612f35565b904660608501523060808501525f60a085015283820360c0850152613327565b7fa16a46d94261c7517cc8ff89f61c0ce93598e3c849801011dee649a6a557d1035f90815291507f5f9ce34815f8e11431c7bb75a8e6886a91478f7ffc1dbb0a98dc240fddd76b755b818310610a38575050820160200182610946565b600181602092949394548385890101520191019190610a24565b7fffffffffffffffffffffffffffffffffffffffffffffffffffffffffffffff001660208087019190915291151560051b85019091019150839050610946565b507fa16a46d94261c7517cc8ff89f61c0ce93598e3c849801011dee649a6a557d1025f90815290917f42ad5d3e1f2e6e70edcf6d991b8a3023d3fca8047a131592f9edb9fd9b89d57d5b818310610af45750509060206108fe928201016108f2565b6020919350806001915483858801015201910190918392610adc565b602092506108fe9491507fffffffffffffffffffffffffffffffffffffffffffffffffffffffffffffff001682840152151560051b8201016108f2565b60646040517f08c379a000000000000000000000000000000000000000000000000000000000815260206004820152601560248201527f4549503731323a20556e696e697469616c697a656400000000000000000000006044820152fd5b507fa16a46d94261c7517cc8ff89f61c0ce93598e3c849801011dee649a6a557d10154156108a5565b346102255760207ffffffffffffffffffffffffffffffffffffffffffffffffffffffffffffffffc3601126102255773ffffffffffffffffffffffffffffffffffffffff610c20613015565b165f527f52c63247e1f47db19d5ce0460030c497f067ca4cebf71ba98eeadabe20bace00602052602060405f2054604051908152f35b34610225575f7ffffffffffffffffffffffffffffffffffffffffffffffffffffffffffffffffc36011261022557600354610c90816131ba565b610c9d6040519182613077565b818152610ca9826131ba565b917fffffffffffffffffffffffffffffffffffffffffffffffffffffffffffffffe0602083019301368437610cdd816131ba565b90610ceb6040519283613077565b8082527fffffffffffffffffffffffffffffffffffffffffffffffffffffffffffffffe0610d18826131ba565b013660208401376003545f5b828110610d8e5750505060405191604083019060408452518091526060830193905f5b818110610d6257848061022188878382036020850152613327565b825173ffffffffffffffffffffffffffffffffffffffff16865260209586019590920191600101610d47565b81811015610e205760035f527fc2575a0e9e593c00f959f8c92f12db2869c3395a3b0502d05e2516446f71f85b8101546001919073ffffffffffffffffffffffffffffffffffffffff1680610de38389613460565b525f527f52c63247e1f47db19d5ce0460030c497f067ca4cebf71ba98eeadabe20bace0060205260405f2054610e198287613460565b5201610d24565b7f4e487b71000000000000000000000000000000000000000000000000000000005f52603260045260245ffd5b34610225575f7ffffffffffffffffffffffffffffffffffffffffffffffffffffffffffffffffc360112610225576020610e856139c7565b604051908152f35b346102255760207ffffffffffffffffffffffffffffffffffffffffffffffffffffffffffffffffc360112610225576004355f526001602052602060405f2054604051908152f35b346102255760207ffffffffffffffffffffffffffffffffffffffffffffffffffffffffffffffffc3601126102255761022161062f60043561395f565b346102255760207ffffffffffffffffffffffffffffffffffffffffffffffffffffffffffffffffc3601126102255760043567ffffffffffffffff811161022557366023820112156102255780600401359067ffffffffffffffff8211610225573660248360051b8301011161022557610fa190610f8e613c28565b610f966139c7565b9260243692016131d2565b90610faa613c28565b5f5b82518110156103ca57815f525f602052610ff060208060405f20610fd08588613460565b515190604051938285935191829101845e8201908152030190205461336f565b1561103a60206110008487613460565b510151845f525f60205260208060405f2061101b878a613460565b515190604051938285935191829101845e82019081520301902061384b565b6110b0575b80827fc42c4edbc41dce02b01dd098a1f7a4c685c638d7a2fdfbe449b32e1f89fbfae161109961107160019588613460565b51516110a76020611082878b613460565b510151604051938493604085526040850190612f35565b908382036020850152612f35565b0390a201610fac565b815f52600160205260405f20906110c78185613460565b51519180546801000000000000000081101561112f576110ec9160018201815561335a565b611103576001926110fc9161384b565b905061103f565b7f4e487b71000000000000000000000000000000000000000000000000000000005f525f60045260245ffd5b7f4e487b71000000000000000000000000000000000000000000000000000000005f52604160045260245ffd5b34610225575f7ffffffffffffffffffffffffffffffffffffffffffffffffffffffffffffffffc3601126102255773ffffffffffffffffffffffffffffffffffffffff7f00000000000000000000000000000000000000000000000000000000000000001630036111f15760206040517f360894a13ba1a3210667c828492db98dca3e2076cc3735a920a3ca505d382bbc8152f35b7fe07c8dba000000000000000000000000000000000000000000000000000000005f5260045ffd5b60407ffffffffffffffffffffffffffffffffffffffffffffffffffffffffffffffffc3601126102255761124b613015565b60243567ffffffffffffffff811161022557366023820112156102255761127c9036906024816004013591016130b8565b9073ffffffffffffffffffffffffffffffffffffffff7f000000000000000000000000000000000000000000000000000000000000000016803014908115611552575b506111f157335f9081527fab71e3f32666744d246edff3f96e4bdafee2e9867098cdd118a979a7464786a8602052604090205460ff16156115025773ffffffffffffffffffffffffffffffffffffffff8116916040517f52d1902d000000000000000000000000000000000000000000000000000000008152602081600481875afa5f91816114ce575b5061137a57837f4c9c8ce3000000000000000000000000000000000000000000000000000000005f5260045260245ffd5b807f360894a13ba1a3210667c828492db98dca3e2076cc3735a920a3ca505d382bbc8592036114a35750823b1561147857807fffffffffffffffffffffffff00000000000000000000000000000000000000007f360894a13ba1a3210667c828492db98dca3e2076cc3735a920a3ca505d382bbc5416177f360894a13ba1a3210667c828492db98dca3e2076cc3735a920a3ca505d382bbc557fbc7cd75a20ee27fd9adebab32041f755214dbc6bffa90cc0225b39da2e5c2d3b5f80a2805115611447576103ca91614172565b50503461145057005b7fb398979f000000000000000000000000000000000000000000000000000000005f5260045ffd5b7f4c9c8ce3000000000000000000000000000000000000000000000000000000005f5260045260245ffd5b7faa1d49a4000000000000000000000000000000000000000000000000000000005f5260045260245ffd5b9091506020813d6020116114fa575b816114ea60209383613077565b8101031261022557519085611349565b3d91506114dd565b7fe2517d3f000000000000000000000000000000000000000000000000000000005f52336004527f189ab7a9244df0848122154315af71fe140f3db0fe014031783b0946b8c9d2e360245260445ffd5b905073ffffffffffffffffffffffffffffffffffffffff7f360894a13ba1a3210667c828492db98dca3e2076cc3735a920a3ca505d382bbc54161415836112bf565b34610225576101007ffffffffffffffffffffffffffffffffffffffffffffffffffffffffffffffffc3601126102255760043567ffffffffffffffff8111610225576115e490369060040161311c565b60243567ffffffffffffffff81116102255761160490369060040161311c565b60843560443573ffffffffffffffffffffffffffffffffffffffff821682036102255760a43573ffffffffffffffffffffffffffffffffffffffff811681036102255760c4359073ffffffffffffffffffffffffffffffffffffffff82168092036102255760e43567ffffffffffffffff81116102255761168990369060040161328f565b937ff0c57e16840df040f15088dc2f81fe391c3923bec73e23a9662efc9c229c6a00549560ff8760401c16159667ffffffffffffffff811680159081612298575b600114908161228e575b159081612285575b5061225d578760017fffffffffffffffffffffffffffffffffffffffffffffffff00000000000000008316177ff0c57e16840df040f15088dc2f81fe391c3923bec73e23a9662efc9c229c6a0055612208575b5061173861411b565b61174061411b565b875167ffffffffffffffff811161112f576117a58161177f7f52c63247e1f47db19d5ce0460030c497f067ca4cebf71ba98eeadabe20bace035461336f565b7f52c63247e1f47db19d5ce0460030c497f067ca4cebf71ba98eeadabe20bace036136cd565b6020601f82116001146121295790806117f0925f9161211e575b507fffffffffffffffffffffffffffffffffffffffffffffffffffffffffffffffff8260011b9260031b1c19161790565b7f52c63247e1f47db19d5ce0460030c497f067ca4cebf71ba98eeadabe20bace03555b80519067ffffffffffffffff821161112f57611879826118537f52c63247e1f47db19d5ce0460030c497f067ca4cebf71ba98eeadabe20bace045461336f565b7f52c63247e1f47db19d5ce0460030c497f067ca4cebf71ba98eeadabe20bace046136cd565b602090601f831160011461203e576118c692915f9183612033575b50507fffffffffffffffffffffffffffffffffffffffffffffffffffffffffffffffff8260011b9260031b1c19161790565b7f52c63247e1f47db19d5ce0460030c497f067ca4cebf71ba98eeadabe20bace04555b6040968751906118f98983613077565b600182527f3100000000000000000000000000000000000000000000000000000000000000602083015261192b61411b565b61193361411b565b80519067ffffffffffffffff821161112f57611999826119737fa16a46d94261c7517cc8ff89f61c0ce93598e3c849801011dee649a6a557d1025461336f565b7fa16a46d94261c7517cc8ff89f61c0ce93598e3c849801011dee649a6a557d1026136cd565b602090601f8311600114611f53576119e592915f9183611f485750507fffffffffffffffffffffffffffffffffffffffffffffffffffffffffffffffff8260011b9260031b1c19161790565b7fa16a46d94261c7517cc8ff89f61c0ce93598e3c849801011dee649a6a557d102555b80519067ffffffffffffffff821161112f57611a6e82611a487fa16a46d94261c7517cc8ff89f61c0ce93598e3c849801011dee649a6a557d1035461336f565b7fa16a46d94261c7517cc8ff89f61c0ce93598e3c849801011dee649a6a557d1036136cd565b602090601f8311600114611e605782611b3793611b3d969593611ac3935f92611e555750507fffffffffffffffffffffffffffffffffffffffffffffffffffffffffffffffff8260011b9260031b1c19161790565b7fa16a46d94261c7517cc8ff89f61c0ce93598e3c849801011dee649a6a557d103555b5f7fa16a46d94261c7517cc8ff89f61c0ce93598e3c849801011dee649a6a557d100555f7fa16a46d94261c7517cc8ff89f61c0ce93598e3c849801011dee649a6a557d10155606435600255613d16565b50613dfd565b508015611e29577f52c63247e1f47db19d5ce0460030c497f067ca4cebf71ba98eeadabe20bace025491808301809311611dfc575f7fddf252ad1be2c89b69c2b068fc378daa952ba7f163c4a11628f55a4df523b3ef60208493611bf7967f52c63247e1f47db19d5ce0460030c497f067ca4cebf71ba98eeadabe20bace02558484527f52c63247e1f47db19d5ce0460030c497f067ca4cebf71ba98eeadabe20bace0082528984208181540190558951908152a3614394565b5060025483516020810191825260208152611c128582613077565b51902090611c1e613c28565b5f5b8151811015611d6157825f525f602052611c62602080875f20611c438587613460565b5151908951938285935191829101845e8201908152030190205461336f565b15611caa6020611c728486613460565b510151855f525f602052602080895f20611c8c8789613460565b5151908b51938285935191829101845e82019081520301902061384b565b611d0f575b80837fc42c4edbc41dce02b01dd098a1f7a4c685c638d7a2fdfbe449b32e1f89fbfae1611099611ce160019587613460565b5151611d066020611cf2878a613460565b5101518b519384938d85528d850190612f35565b0390a201611c20565b825f526001602052845f2090611d258184613460565b51519180546801000000000000000081101561112f57611d4a9160018201815561335a565b61110357600192611d5a9161384b565b9050611caf565b505050611d6a57005b60207fc7f505b2f371ae2175ee4913f4499e1f2633a7b5936321eed1cdaeb6115181d2917fffffffffffffffffffffffffffffffffffffffffffffff00ffffffffffffffff7ff0c57e16840df040f15088dc2f81fe391c3923bec73e23a9662efc9c229c6a0054167ff0c57e16840df040f15088dc2f81fe391c3923bec73e23a9662efc9c229c6a00555160018152a1005b7f4e487b71000000000000000000000000000000000000000000000000000000005f52601160045260245ffd5b7fec442f05000000000000000000000000000000000000000000000000000000005f525f60045260245ffd5b015190508c80611894565b907fffffffffffffffffffffffffffffffffffffffffffffffffffffffffffffffe08316917fa16a46d94261c7517cc8ff89f61c0ce93598e3c849801011dee649a6a557d1035f52815f20925f5b818110611f305750926001928592611b3796611b3d99989610611ef9575b505050811b017fa16a46d94261c7517cc8ff89f61c0ce93598e3c849801011dee649a6a557d10355611ae6565b01517fffffffffffffffffffffffffffffffffffffffffffffffffffffffffffffffff60f88460031b161c191690558b8080611ecc565b92936020600181928786015181550195019301611eae565b015190508b80611894565b907fffffffffffffffffffffffffffffffffffffffffffffffffffffffffffffffe08316917fa16a46d94261c7517cc8ff89f61c0ce93598e3c849801011dee649a6a557d1025f52815f20925f5b81811061201b5750908460019594939210611fe4575b505050811b017fa16a46d94261c7517cc8ff89f61c0ce93598e3c849801011dee649a6a557d10255611a08565b01517fffffffffffffffffffffffffffffffffffffffffffffffffffffffffffffffff60f88460031b161c191690558a8080611fb7565b92936020600181928786015181550195019301611fa1565b015190508a80611894565b907fffffffffffffffffffffffffffffffffffffffffffffffffffffffffffffffe08316917f52c63247e1f47db19d5ce0460030c497f067ca4cebf71ba98eeadabe20bace045f52815f20925f5b81811061210657509084600195949392106120cf575b505050811b017f52c63247e1f47db19d5ce0460030c497f067ca4cebf71ba98eeadabe20bace04556118e9565b01517fffffffffffffffffffffffffffffffffffffffffffffffffffffffffffffffff60f88460031b161c191690558980806120a2565b9293602060018192878601518155019501930161208c565b90508a01518b6117bf565b7fffffffffffffffffffffffffffffffffffffffffffffffffffffffffffffffe08216907f52c63247e1f47db19d5ce0460030c497f067ca4cebf71ba98eeadabe20bace035f52805f20915f5b8c8282106121f057505090836001949392106121b9575b5050811b017f52c63247e1f47db19d5ce0460030c497f067ca4cebf71ba98eeadabe20bace0355611813565b8b01517fffffffffffffffffffffffffffffffffffffffffffffffffffffffffffffffff60f88460031b161c191690558a8061218d565b60018495602093958493015181550194019201612176565b7fffffffffffffffffffffffffffffffffffffffffffffff0000000000000000001668010000000000000001177ff0c57e16840df040f15088dc2f81fe391c3923bec73e23a9662efc9c229c6a00558861172f565b7ff92ee8a9000000000000000000000000000000000000000000000000000000005f5260045ffd5b9050158a6116dc565b303b1591506116d4565b8991506116ca565b346102255760207ffffffffffffffffffffffffffffffffffffffffffffffffffffffffffffffffc3601126102255760043567ffffffffffffffff8111610225576122ef90369060040161313a565b906122f8613c28565b6123006139c7565b91612309613c28565b825f525f60205261233260405f206020604051809285878337858201908152030190205461336f565b1561251e57825f525f60205261235f60405f2060206040518092858783378582019081520301902061366f565b825f52600160205260405f20905f5b8254808210156124f15761239561239c612388848761335a565b50604051928380926133c0565b0382613077565b602081519101206123ae3685886130b8565b60208151910120146123c3575060010161236e565b7fffffffffffffffffffffffffffffffffffffffffffffffffffffffffffffffff819593949501908111611dfc576123fe612406918661335a565b50918561335a565b9190916111035761241691613710565b82549081156124c4577fca45c60cf1bbd58b2ac673da0d008eb3606c36e814e8d7fe0df3a3e53ecc59b7937fffffffffffffffffffffffffffffffffffffffffffffffffffffffffffffffff604093019061247a612474838361335a565b906136be565b555b7fffffffffffffffffffffffffffffffffffffffffffffffffffffffffffffffe0601f84845195869460208652816020870152868601375f85828601015201168101030190a2005b7f4e487b71000000000000000000000000000000000000000000000000000000005f52603160045260245ffd5b5050905060407fca45c60cf1bbd58b2ac673da0d008eb3606c36e814e8d7fe0df3a3e53ecc59b79261247c565b60646040517f08c379a000000000000000000000000000000000000000000000000000000000815260206004820152601260248201527f4b657920646f6573206e6f7420657869737400000000000000000000000000006044820152fd5b346102255760407ffffffffffffffffffffffffffffffffffffffffffffffffffffffffffffffffc3601126102255760043560243567ffffffffffffffff8111610225576125ce90369060040161328f565b906125d7613c28565b5f5b82518110156103ca57815f525f6020526125fd60208060405f20610fd08588613460565b1561260d60206110008487613460565b61265e575b80827fc42c4edbc41dce02b01dd098a1f7a4c685c638d7a2fdfbe449b32e1f89fbfae161109961264460019588613460565b51516126556020611082878b613460565b0390a2016125d9565b815f52600160205260405f20906126758185613460565b51519180546801000000000000000081101561112f5761269a9160018201815561335a565b611103576001926126aa9161384b565b9050612612565b346102255760407ffffffffffffffffffffffffffffffffffffffffffffffffffffffffffffffffc360112610225576126e8613038565b3373ffffffffffffffffffffffffffffffffffffffff821603612711576103ca90600435614013565b7f6697b232000000000000000000000000000000000000000000000000000000005f5260045ffd5b34610225575f7ffffffffffffffffffffffffffffffffffffffffffffffffffffffffffffffffc36011261022557602073ffffffffffffffffffffffffffffffffffffffff7f360894a13ba1a3210667c828492db98dca3e2076cc3735a920a3ca505d382bbc5416604051908152f35b34610225575f7ffffffffffffffffffffffffffffffffffffffffffffffffffffffffffffffffc36011261022557602060405160128152f35b346102255760407ffffffffffffffffffffffffffffffffffffffffffffffffffffffffffffffffc360112610225576103ca60043561281f613038565b906128586103c0825f527f02dd7bc7dec4dceedda775e58dd541e08a116c6c53815c0bd028192f7b626800602052600160405f20015490565b613f01565b346102255761286b36613168565b612873613c28565b825f525f60205261289c60405f206020604051809285878337858201908152030190205461336f565b1561251e57825f525f6020526128c960405f2060206040518092858783378582019081520301902061366f565b825f52600160205260405f20905f5b8254808210156124f1576123956128f2612388848761335a565b602081519101206129043685886130b8565b60208151910120146123c357506001016128d8565b346102255760207ffffffffffffffffffffffffffffffffffffffffffffffffffffffffffffffffc360112610225576020610e856004355f527f02dd7bc7dec4dceedda775e58dd541e08a116c6c53815c0bd028192f7b626800602052600160405f20015490565b346102255760607ffffffffffffffffffffffffffffffffffffffffffffffffffffffffffffffffc360112610225576129b8613015565b6129c0613038565b60443590612a0b8373ffffffffffffffffffffffffffffffffffffffff165f527f52c63247e1f47db19d5ce0460030c497f067ca4cebf71ba98eeadabe20bace0160205260405f2090565b73ffffffffffffffffffffffffffffffffffffffff33165f5260205260405f2054927fffffffffffffffffffffffffffffffffffffffffffffffffffffffffffffffff8410612a5f575b6105ab9350613a7f565b828410612b555773ffffffffffffffffffffffffffffffffffffffff811615612b29573315612afd576105ab93612ad38273ffffffffffffffffffffffffffffffffffffffff165f527f52c63247e1f47db19d5ce0460030c497f067ca4cebf71ba98eeadabe20bace0160205260405f2090565b73ffffffffffffffffffffffffffffffffffffffff33165f526020528360405f2091039055612a55565b7f94280d62000000000000000000000000000000000000000000000000000000005f525f60045260245ffd5b7fe602df05000000000000000000000000000000000000000000000000000000005f525f60045260245ffd5b82847ffb8f41b2000000000000000000000000000000000000000000000000000000005f523360045260245260445260645ffd5b34610225575f7ffffffffffffffffffffffffffffffffffffffffffffffffffffffffffffffffc3601126102255760207f52c63247e1f47db19d5ce0460030c497f067ca4cebf71ba98eeadabe20bace0254604051908152f35b346102255760407ffffffffffffffffffffffffffffffffffffffffffffffffffffffffffffffffc3601126102255760243567ffffffffffffffff81116102255761239561020d602080612c3e61022195369060040161311c565b6004355f525f825260405f20604051938285935191829101845e820190815203019020604051928380926133c0565b346102255760407ffffffffffffffffffffffffffffffffffffffffffffffffffffffffffffffffc36011261022557612ca4613015565b602435903315612b295773ffffffffffffffffffffffffffffffffffffffff16908115612afd57335f9081527f52c63247e1f47db19d5ce0460030c497f067ca4cebf71ba98eeadabe20bace0160205260409020825f526020528060405f20556040519081527f8c5be1e5ebec7d5bd14f71427d1e84f3dd0314c0f7b2291e5b200ac8c7c3b92560203392a3602060405160018152f35b34610225575f7ffffffffffffffffffffffffffffffffffffffffffffffffffffffffffffffffc360112610225576040515f7f52c63247e1f47db19d5ce0460030c497f067ca4cebf71ba98eeadabe20bace0354612d988161336f565b80845290600181169081156107785750600114612dbf576102218361020d81850382613077565b7f52c63247e1f47db19d5ce0460030c497f067ca4cebf71ba98eeadabe20bace035f9081527f2ae08a8e29253f69ac5d979a101956ab8f8d9d7ded63fa7a83b16fc47648eab0939250905b808210612e225750909150810160200161020d6106eb565b919260018160209254838588010152019101909291612e0a565b346102255760207ffffffffffffffffffffffffffffffffffffffffffffffffffffffffffffffffc3601126102255761022161033e600435613474565b346102255760207ffffffffffffffffffffffffffffffffffffffffffffffffffffffffffffffffc36011261022557600435907fffffffff00000000000000000000000000000000000000000000000000000000821680920361022557817f7965db0b0000000000000000000000000000000000000000000000000000000060209314908115612f0b575b5015158152f35b7f01ffc9a70000000000000000000000000000000000000000000000000000000091501483612f04565b907fffffffffffffffffffffffffffffffffffffffffffffffffffffffffffffffe0601f602080948051918291828752018686015e5f8582860101520116010190565b602081016020825282518091526040820191602060408360051b8301019401925f915b838310612faa57505050505090565b9091929394602080613006837fffffffffffffffffffffffffffffffffffffffffffffffffffffffffffffffc0866001960301875289519083612ff68351604084526040840190612f35565b9201519084818403910152612f35565b97019301930191939290612f9b565b6004359073ffffffffffffffffffffffffffffffffffffffff8216820361022557565b6024359073ffffffffffffffffffffffffffffffffffffffff8216820361022557565b6040810190811067ffffffffffffffff82111761112f57604052565b90601f7fffffffffffffffffffffffffffffffffffffffffffffffffffffffffffffffe0910116810190811067ffffffffffffffff82111761112f57604052565b92919267ffffffffffffffff821161112f5760405191613100601f82017fffffffffffffffffffffffffffffffffffffffffffffffffffffffffffffffe01660200184613077565b829481845281830111610225578281602093845f960137010152565b9080601f8301121561022557816020613137933591016130b8565b90565b9181601f840112156102255782359167ffffffffffffffff8311610225576020838186019501011161022557565b9060407ffffffffffffffffffffffffffffffffffffffffffffffffffffffffffffffffc83011261022557600435916024359067ffffffffffffffff8211610225576131b69160040161313a565b9091565b67ffffffffffffffff811161112f5760051b60200190565b929190926131df846131ba565b936131ed6040519586613077565b602085828152019060051b8201918383116102255780915b838310613213575050505050565b823567ffffffffffffffff8111610225578201604081870312610225576040519161323d8361305b565b813567ffffffffffffffff8111610225578761325a91840161311c565b835260208201359267ffffffffffffffff8411610225576132808860209586950161311c565b83820152815201920191613205565b9080601f8301121561022557816020613137933591016131d2565b602081016020825282518091526040820191602060408360051b8301019401925f915b8383106132dc57505050505090565b9091929394602080613318837fffffffffffffffffffffffffffffffffffffffffffffffffffffffffffffffc086600196030187528951612f35565b970193019301919392906132cd565b90602080835192838152019201905f5b8181106133445750505090565b8251845260209384019390920191600101613337565b8054821015610e20575f5260205f2001905f90565b90600182811c921680156133b6575b602083101461338957565b7f4e487b71000000000000000000000000000000000000000000000000000000005f52602260045260245ffd5b91607f169161337e565b5f92918154916133cf8361336f565b808352926001811690811561342457506001146133eb57505050565b5f9081526020812093945091925b83831061340a575060209250010190565b6001816020929493945483858701015201910191906133f9565b905060209495507fffffffffffffffffffffffffffffffffffffffffffffffffffffffffffffff0091509291921683830152151560051b010190565b8051821015610e205760209160051b010190565b90815f52600160205260405f20805461348c816131ba565b6134996040519182613077565b8181527fffffffffffffffffffffffffffffffffffffffffffffffffffffffffffffffe06134c6836131ba565b015f5b8181106135fd57505080945f5b8381106134e4575050505050565b6134ee818661335a565b50825f525f60205260405f20613504838861335a565b50604051915f918054906135178261336f565b91600181169081156135c75750600114613592575b505082602060019695948461357194612395965203019020612395613563604051956135578761305b565b604051928380926133c0565b8452604051928380926133c0565b60208201526135808286613460565b5261358b8185613460565b50016134d6565b909192505f5260205f205f905b8282106135b357505082019082602061352c565b60018160209254848801520191019061359f565b7fffffffffffffffffffffffffffffffffffffffffffffffffffffffffffffff001686525050801515028301915082602061352c565b60209060405161360c8161305b565b60608152606083820152828286010152016134c9565b60208061239593613137935f525f825260405f20604051938285935191829101845e820190815203019020604051928380926133c0565b818110613664575050565b5f8155600101613659565b613679815461336f565b9081613683575050565b81601f5f93116001146136955750555b565b818352602083206136b191601f0160051c810190600101613659565b8082528160208120915555565b9061110357613679815461336f565b9190601f81116136dc57505050565b613693925f5260205f20906020601f840160051c83019310613706575b601f0160051c0190613659565b90915081906136f9565b91909182811461384657613724835461336f565b67ffffffffffffffff811161112f5761374781613741845461336f565b846136cd565b5f93601f82116001146137a35761379492939482915f926137985750507fffffffffffffffffffffffffffffffffffffffffffffffffffffffffffffffff8260011b9260031b1c19161790565b9055565b015490505f80611894565b7fffffffffffffffffffffffffffffffffffffffffffffffffffffffffffffffe08216905f5260205f2094835f5260205f20915f5b81811061382e575095836001959697106137f7575b505050811b019055565b01547fffffffffffffffffffffffffffffffffffffffffffffffffffffffffffffffff60f88460031b161c191690555f80806137ed565b9192600180602092868b0154815501940192016137d8565b509050565b919091825167ffffffffffffffff811161112f5761386d81613741845461336f565b6020601f82116001146138c55781906137949394955f926138ba5750507fffffffffffffffffffffffffffffffffffffffffffffffffffffffffffffffff8260011b9260031b1c19161790565b015190505f80611894565b7fffffffffffffffffffffffffffffffffffffffffffffffffffffffffffffffe0821690835f52805f20915f5b8181106139475750958360019596971061391057505050811b019055565b01517fffffffffffffffffffffffffffffffffffffffffffffffffffffffffffffffff60f88460031b161c191690555f80806137ed565b9192602060018192868b0151815501940192016138f2565b5f52600160205260405f208054613975816131ba565b916139836040519384613077565b81835260208301905f5260205f205f915b8383106139a2575050505090565b6001602081926040516139b98161239581896133c0565b815201920192019190613994565b60025460405160208101918252602081526139e3604082613077565b51902090565b613a1292916020915f525f825260405f208360405194859384378201908152030190205461336f565b151590565b613a60613a226139c7565b60405190613a31604083613077565b600382527f75726900000000000000000000000000000000000000000000000000000000006020830152613622565b805115613a6a5790565b50604051613a79602082613077565b5f815290565b91929173ffffffffffffffffffffffffffffffffffffffff16908115613bfc5773ffffffffffffffffffffffffffffffffffffffff16908115611e2957805f527f52c63247e1f47db19d5ce0460030c497f067ca4cebf71ba98eeadabe20bace0060205260405f2054848110613bc957817fddf252ad1be2c89b69c2b068fc378daa952ba7f163c4a11628f55a4df523b3ef602087613bb697988795855f527f52c63247e1f47db19d5ce0460030c497f067ca4cebf71ba98eeadabe20bace0084520360405f2055845f527f52c63247e1f47db19d5ce0460030c497f067ca4cebf71ba98eeadabe20bace00825260405f20818154019055604051908152a3805f527f52c63247e1f47db19d5ce0460030c497f067ca4cebf71ba98eeadabe20bace0060205260405f205415613bb9575b50614394565b50565b613bc290614239565b505f613bb0565b84917fe450d38c000000000000000000000000000000000000000000000000000000005f5260045260245260445260645ffd5b7f96c6fd1e000000000000000000000000000000000000000000000000000000005f525f60045260245ffd5b335f9081527fb7db2dd08fcb62d0c9e08c51941cae53c267786a0b75803fb7960902fc8ef97d602052604090205460ff1615613c6057565b7fe2517d3f000000000000000000000000000000000000000000000000000000005f52336004525f60245260445ffd5b805f527f02dd7bc7dec4dceedda775e58dd541e08a116c6c53815c0bd028192f7b62680060205260405f2073ffffffffffffffffffffffffffffffffffffffff33165f5260205260ff60405f20541615613ce75750565b7fe2517d3f000000000000000000000000000000000000000000000000000000005f523360045260245260445ffd5b73ffffffffffffffffffffffffffffffffffffffff81165f9081527fb7db2dd08fcb62d0c9e08c51941cae53c267786a0b75803fb7960902fc8ef97d602052604090205460ff16613df85773ffffffffffffffffffffffffffffffffffffffff165f8181527fb7db2dd08fcb62d0c9e08c51941cae53c267786a0b75803fb7960902fc8ef97d6020526040812080547fffffffffffffffffffffffffffffffffffffffffffffffffffffffffffffff001660011790553391907f2f8788117e7eff1d82e926ec794901d17c78024a50270940304540a733656f0d8180a4600190565b505f90565b73ffffffffffffffffffffffffffffffffffffffff81165f9081527fab71e3f32666744d246edff3f96e4bdafee2e9867098cdd118a979a7464786a8602052604090205460ff16613df85773ffffffffffffffffffffffffffffffffffffffff165f8181527fab71e3f32666744d246edff3f96e4bdafee2e9867098cdd118a979a7464786a86020526040812080547fffffffffffffffffffffffffffffffffffffffffffffffffffffffffffffff001660011790553391907f189ab7a9244df0848122154315af71fe140f3db0fe014031783b0946b8c9d2e3907f2f8788117e7eff1d82e926ec794901d17c78024a50270940304540a733656f0d9080a4600190565b805f527f02dd7bc7dec4dceedda775e58dd541e08a116c6c53815c0bd028192f7b62680060205260405f2073ffffffffffffffffffffffffffffffffffffffff83165f5260205260ff60405f205416155f1461400d57805f527f02dd7bc7dec4dceedda775e58dd541e08a116c6c53815c0bd028192f7b62680060205260405f2073ffffffffffffffffffffffffffffffffffffffff83165f5260205260405f2060017fffffffffffffffffffffffffffffffffffffffffffffffffffffffffffffff0082541617905573ffffffffffffffffffffffffffffffffffffffff339216907f2f8788117e7eff1d82e926ec794901d17c78024a50270940304540a733656f0d5f80a4600190565b50505f90565b805f527f02dd7bc7dec4dceedda775e58dd541e08a116c6c53815c0bd028192f7b62680060205260405f2073ffffffffffffffffffffffffffffffffffffffff83165f5260205260ff60405f2054165f1461400d57805f527f02dd7bc7dec4dceedda775e58dd541e08a116c6c53815c0bd028192f7b62680060205260405f2073ffffffffffffffffffffffffffffffffffffffff83165f5260205260405f207fffffffffffffffffffffffffffffffffffffffffffffffffffffffffffffff00815416905573ffffffffffffffffffffffffffffffffffffffff339216907ff6391f5c32d9c69d2a47ea670b442974b53935d1edc7fd64eb21e047a839171b5f80a4600190565b60ff7ff0c57e16840df040f15088dc2f81fe391c3923bec73e23a9662efc9c229c6a005460401c161561414a57565b7fd7e6bcf8000000000000000000000000000000000000000000000000000000005f5260045ffd5b905f8091602081519101845af48080614226575b156141a65750506040513d81523d5f602083013e60203d82010160405290565b156141ed5773ffffffffffffffffffffffffffffffffffffffff907f9996b315000000000000000000000000000000000000000000000000000000005f521660045260245ffd5b3d156141fe576040513d5f823e3d90fd5b7fd6bda275000000000000000000000000000000000000000000000000000000005f5260045ffd5b503d1515806141865750813b1515614186565b5f81815260046020526040902054801561400d577fffffffffffffffffffffffffffffffffffffffffffffffffffffffffffffffff8101818111611dfc57600354907fffffffffffffffffffffffffffffffffffffffffffffffffffffffffffffffff8201918211611dfc57818103614327575b50505060035480156124c4577fffffffffffffffffffffffffffffffffffffffffffffffffffffffffffffffff016142e681600361335a565b7fffffffffffffffffffffffffffffffffffffffffffffffffffffffffffffffff82549160031b1b191690556003555f5260046020525f6040812055600190565b61437e61433861434993600361335a565b90549060031b1c928392600361335a565b81939154907fffffffffffffffffffffffffffffffffffffffffffffffffffffffffffffffff9060031b92831b921b19161790565b90555f52600460205260405f20555f80806142ad565b805f52600460205260405f2054155f14613df8576003546801000000000000000081101561112f576143d2614349826001859401600355600361335a565b9055600354905f52600460205260405f205560019056fea26469706673582212204ed496019903236f93fd9fd6cad67bc8c40b91d5c673c30bbd7f145786c1514764736f6c634300081e0033f0c57e16840df040f15088dc2f81fe391c3923bec73e23a9662efc9c229c6a00","linkReferences":{}},"methodIdentifiers":{"ASSET_ID()":"9ceb21ae","DEFAULT_ADMIN_ROLE()":"a217fddf","UPGRADE_INTERFACE_VERSION()":"ad3cb1cc","allowance(address,address)":"dd62ed3e","approve(address,uint256)":"095ea7b3","balanceOf(address)":"70a08231","decimals()":"313ce567","eip712Domain()":"84b0196e","getAllMetadata()":"d9a19635","getAllMetadata(bytes32)":"05daf368","getAllMetadataKeys()":"a020731d","getAllMetadataKeys(bytes32)":"5cb0e05a","getAssetIdHash()":"5f4cd4db","getHolders()":"5fe8e7cc","getMetadata(bytes32,string)":"0e1ae91b","getMetadata(string)":"d11a1f07","getMetadataCount()":"b93f3f34","getMetadataCount(bytes32)":"5e597156","getRoleAdmin(bytes32)":"248a9ca3","getUupsImplementation()":"358410d5","grantRole(bytes32,address)":"2f2ff15d","hasMetadata(bytes32,string)":"e5e0a25d","hasMetadata(string)":"b719d45a","hasRole(bytes32,address)":"91d14854","initialize(string,string,uint256,uint256,address,address,address,(string,string)[])":"47a52eac","name()":"06fdde03","proxiableUUID()":"52d1902d","removeMetadata(bytes32,string)":"26f389ba","removeMetadata(string)":"3dc3c175","renounceRole(bytes32,address)":"36568abe","revokeRole(bytes32,address)":"d547741f","setMetadata((string,string)[])":"5a454034","setMetadata(bytes32,(string,string)[])":"3b41f4ea","supportsInterface(bytes4)":"01ffc9a7","symbol()":"95d89b41","totalSupply()":"18160ddd","transfer(address,uint256)":"a9059cbb","transferFrom(address,address,uint256)":"23b872dd","upgradeToAndCall(address,bytes)":"4f1ef286","uri()":"eac989f8"},"storageLayout":{"storage":[{"astId":61744,"contract":"src/AssetERC20.sol:AssetERC20","label":"_metadata","offset":0,"slot":"0","type":"t_mapping(t_bytes32,t_mapping(t_string_memory_ptr,t_string_storage))"},{"astId":61750,"contract":"src/AssetERC20.sol:AssetERC20","label":"_metadataKeys","offset":0,"slot":"1","type":"t_mapping(t_bytes32,t_array(t_string_storage)dyn_storage)"},{"astId":59497,"contract":"src/AssetERC20.sol:AssetERC20","label":"ASSET_ID","offset":0,"slot":"2","type":"t_uint256"},{"astId":59501,"contract":"src/AssetERC20.sol:AssetERC20","label":"_holders","offset":0,"slot":"3","type":"t_struct(AddressSet)53873_storage"}],"types":{"t_array(t_bytes32)dyn_storage":{"encoding":"dynamic_array","label":"bytes32[]","numberOfBytes":"32","base":"t_bytes32"},"t_array(t_string_storage)dyn_storage":{"encoding":"dynamic_array","label":"string[]","numberOfBytes":"32","base":"t_string_storage"},"t_bytes32":{"encoding":"inplace","label":"bytes32","numberOfBytes":"32"},"t_mapping(t_bytes32,t_array(t_string_storage)dyn_storage)":{"encoding":"mapping","key":"t_bytes32","label":"mapping(bytes32 => string[])","numberOfBytes":"32","value":"t_array(t_string_storage)dyn_storage"},"t_mapping(t_bytes32,t_mapping(t_string_memory_ptr,t_string_storage))":{"encoding":"mapping","key":"t_bytes32","label":"mapping(bytes32 => mapping(string => string))","numberOfBytes":"32","value":"t_mapping(t_string_memory_ptr,t_string_storage)"},"t_mapping(t_bytes32,t_uint256)":{"encoding":"mapping","key":"t_bytes32","label":"mapping(bytes32 => uint256)","numberOfBytes":"32","value":"t_uint256"},"t_mapping(t_string_memory_ptr,t_string_storage)":{"encoding":"mapping","key":"t_string_memory_ptr","label":"mapping(string => string)","numberOfBytes":"32","value":"t_string_storage"},"t_string_memory_ptr":{"encoding":"bytes","label":"string","numberOfBytes":"32"},"t_string_storage":{"encoding":"bytes","label":"string","numberOfBytes":"32"},"t_struct(AddressSet)53873_storage":{"encoding":"inplace","label":"struct EnumerableSet.AddressSet","numberOfBytes":"64","members":[{"astId":53872,"contract":"src/AssetERC20.sol:AssetERC20","label":"_inner","offset":0,"slot":"0","type":"t_struct(Set)53387_storage"}]},"t_struct(Set)53387_storage":{"encoding":"inplace","label":"struct EnumerableSet.Set","numberOfBytes":"64","members":[{"astId":53382,"contract":"src/AssetERC20.sol:AssetERC20","label":"_values","offset":0,"slot":"0","type":"t_array(t_bytes32)dyn_storage"},{"astId":53386,"contract":"src/AssetERC20.sol:AssetERC20","label":"_positions","offset":0,"slot":"1","type":"t_mapping(t_bytes32,t_uint256)"}]},"t_uint256":{"encoding":"inplace","label":"uint256","numberOfBytes":"32"}}},"id":81}