{"abi":[{"type":"function","name":"ASSET_ID","inputs":[],"outputs":[{"name":"","type":"uint256","internalType":"uint256"}],"stateMutability":"view"},{"type":"function","name":"DEFAULT_ADMIN_ROLE","inputs":[],"outputs":[{"name":"","type":"bytes32","internalType":"bytes32"}],"stateMutability":"view"},{"type":"function","name":"UPGRADE_INTERFACE_VERSION","inputs":[],"outputs":[{"name":"","type":"string","internalType":"string"}],"stateMutability":"view"},{"type":"function","name":"allowance","inputs":[{"name":"owner","type":"address","internalType":"address"},{"name":"spender","type":"address","internalType":"address"}],"outputs":[{"name":"","type":"uint256","internalType":"uint256"}],"stateMutability":"view"},{"type":"function","name":"approve","inputs":[{"name":"spender","type":"address","internalType":"address"},{"name":"value","type":"uint256","internalType":"uint256"}],"outputs":[{"name":"","type":"bool","internalType":"bool"}],"stateMutability":"nonpayable"},{"type":"function","name":"balanceOf","inputs":[{"name":"account","type":"address","internalType":"address"}],"outputs":[{"name":"","type":"uint256","internalType":"uint256"}],"stateMutability":"view"},{"type":"function","name":"decimals","inputs":[],"outputs":[{"name":"","type":"uint8","internalType":"uint8"}],"stateMutability":"view"},{"type":"function","name":"eip712Domain","inputs":[],"outputs":[{"name":"fields","type":"bytes1","internalType":"bytes1"},{"name":"name","type":"string","internalType":"string"},{"name":"version","type":"string","internalType":"string"},{"name":"chainId","type":"uint256","internalType":"uint256"},{"name":"verifyingContract","type":"address","internalType":"address"},{"name":"salt","type":"bytes32","internalType":"bytes32"},{"name":"extensions","type":"uint256[]","internalType":"uint256[]"}],"stateMutability":"view"},{"type":"function","name":"getAllMetadata","inputs":[{"name":"hash","type":"bytes32","internalType":"bytes32"}],"outputs":[{"name":"metadata","type":"tuple[]","internalType":"struct MetadataStorage.Metadata[]","components":[{"name":"key","type":"string","internalType":"string"},{"name":"value","type":"string","internalType":"string"}]}],"stateMutability":"view"},{"type":"function","name":"getAllMetadata","inputs":[],"outputs":[{"name":"metadata","type":"tuple[]","internalType":"struct MetadataStorage.Metadata[]","components":[{"name":"key","type":"string","internalType":"string"},{"name":"value","type":"string","internalType":"string"}]}],"stateMutability":"view"},{"type":"function","name":"getAllMetadataKeys","inputs":[{"name":"hash","type":"bytes32","internalType":"bytes32"}],"outputs":[{"name":"keys","type":"string[]","internalType":"string[]"}],"stateMutability":"view"},{"type":"function","name":"getAllMetadataKeys","inputs":[],"outputs":[{"name":"keys","type":"string[]","internalType":"string[]"}],"stateMutability":"view"},{"type":"function","name":"getAssetIdHash","inputs":[],"outputs":[{"name":"hash","type":"bytes32","internalType":"bytes32"}],"stateMutability":"view"},{"type":"function","name":"getHolders","inputs":[],"outputs":[{"name":"holders","type":"address[]","internalType":"address[]"},{"name":"balances","type":"uint256[]","internalType":"uint256[]"}],"stateMutability":"view"},{"type":"function","name":"getMetadata","inputs":[{"name":"hash","type":"bytes32","internalType":"bytes32"},{"name":"key","type":"string","internalType":"string"}],"outputs":[{"name":"value","type":"string","internalType":"string"}],"stateMutability":"view"},{"type":"function","name":"getMetadata","inputs":[{"name":"key","type":"string","internalType":"string"}],"outputs":[{"name":"value","type":"string","internalType":"string"}],"stateMutability":"view"},{"type":"function","name":"getMetadataCount","inputs":[{"name":"hash","type":"bytes32","internalType":"bytes32"}],"outputs":[{"name":"count","type":"uint256","internalType":"uint256"}],"stateMutability":"view"},{"type":"function","name":"getMetadataCount","inputs":[],"outputs":[{"name":"count","type":"uint256","internalType":"uint256"}],"stateMutability":"view"},{"type":"function","name":"getRoleAdmin","inputs":[{"name":"role","type":"bytes32","internalType":"bytes32"}],"outputs":[{"name":"","type":"bytes32","internalType":"bytes32"}],"stateMutability":"view"},{"type":"function","name":"getUupsImplementation","inputs":[],"outputs":[{"name":"","type":"address","internalType":"address"}],"stateMutability":"view"},{"type":"function","name":"grantRole","inputs":[{"name":"role","type":"bytes32","internalType":"bytes32"},{"name":"account","type":"address","internalType":"address"}],"outputs":[],"stateMutability":"nonpayable"},{"type":"function","name":"hasMetadata","inputs":[{"name":"key","type":"string","internalType":"string"}],"outputs":[{"name":"exists","type":"bool","internalType":"bool"}],"stateMutability":"view"},{"type":"function","name":"hasMetadata","inputs":[{"name":"hash","type":"bytes32","internalType":"bytes32"},{"name":"key","type":"string","internalType":"string"}],"outputs":[{"name":"exists","type":"bool","internalType":"bool"}],"stateMutability":"view"},{"type":"function","name":"hasRole","inputs":[{"name":"role","type":"bytes32","internalType":"bytes32"},{"name":"account","type":"address","internalType":"address"}],"outputs":[{"name":"","type":"bool","internalType":"bool"}],"stateMutability":"view"},{"type":"function","name":"initialize","inputs":[{"name":"name","type":"string","internalType":"string"},{"name":"symbol","type":"string","internalType":"string"},{"name":"totalSupply","type":"uint256","internalType":"uint256"},{"name":"assetId","type":"uint256","internalType":"uint256"},{"name":"admin","type":"address","internalType":"address"},{"name":"tokenRecipient","type":"address","internalType":"address"},{"name":"metadata","type":"tuple[]","internalType":"struct MetadataStorage.Metadata[]","components":[{"name":"key","type":"string","internalType":"string"},{"name":"value","type":"string","internalType":"string"}]}],"outputs":[],"stateMutability":"nonpayable"},{"type":"function","name":"name","inputs":[],"outputs":[{"name":"","type":"string","internalType":"string"}],"stateMutability":"view"},{"type":"function","name":"proxiableUUID","inputs":[],"outputs":[{"name":"","type":"bytes32","internalType":"bytes32"}],"stateMutability":"view"},{"type":"function","name":"removeMetadata","inputs":[{"name":"hash","type":"bytes32","internalType":"bytes32"},{"name":"key","type":"string","internalType":"string"}],"outputs":[],"stateMutability":"nonpayable"},{"type":"function","name":"removeMetadata","inputs":[{"name":"key","type":"string","internalType":"string"}],"outputs":[],"stateMutability":"nonpayable"},{"type":"function","name":"renounceRole","inputs":[{"name":"role","type":"bytes32","internalType":"bytes32"},{"name":"callerConfirmation","type":"address","internalType":"address"}],"outputs":[],"stateMutability":"nonpayable"},{"type":"function","name":"revokeRole","inputs":[{"name":"role","type":"bytes32","internalType":"bytes32"},{"name":"account","type":"address","internalType":"address"}],"outputs":[],"stateMutability":"nonpayable"},{"type":"function","name":"setMetadata","inputs":[{"name":"hash","type":"bytes32","internalType":"bytes32"},{"name":"metadata_","type":"tuple[]","internalType":"struct MetadataStorage.Metadata[]","components":[{"name":"key","type":"string","internalType":"string"},{"name":"value","type":"string","internalType":"string"}]}],"outputs":[],"stateMutability":"nonpayable"},{"type":"function","name":"setMetadata","inputs":[{"name":"metadata_","type":"tuple[]","internalType":"struct MetadataStorage.Metadata[]","components":[{"name":"key","type":"string","internalType":"string"},{"name":"value","type":"string","internalType":"string"}]}],"outputs":[],"stateMutability":"nonpayable"},{"type":"function","name":"supportsInterface","inputs":[{"name":"interfaceId","type":"bytes4","internalType":"bytes4"}],"outputs":[{"name":"","type":"bool","internalType":"bool"}],"stateMutability":"view"},{"type":"function","name":"symbol","inputs":[],"outputs":[{"name":"","type":"string","internalType":"string"}],"stateMutability":"view"},{"type":"function","name":"totalSupply","inputs":[],"outputs":[{"name":"","type":"uint256","internalType":"uint256"}],"stateMutability":"view"},{"type":"function","name":"transfer","inputs":[{"name":"to","type":"address","internalType":"address"},{"name":"value","type":"uint256","internalType":"uint256"}],"outputs":[{"name":"","type":"bool","internalType":"bool"}],"stateMutability":"nonpayable"},{"type":"function","name":"transferFrom","inputs":[{"name":"from","type":"address","internalType":"address"},{"name":"to","type":"address","internalType":"address"},{"name":"value","type":"uint256","internalType":"uint256"}],"outputs":[{"name":"","type":"bool","internalType":"bool"}],"stateMutability":"nonpayable"},{"type":"function","name":"upgradeToAndCall","inputs":[{"name":"newImplementation","type":"address","internalType":"address"},{"name":"data","type":"bytes","internalType":"bytes"}],"outputs":[],"stateMutability":"payable"},{"type":"function","name":"uri","inputs":[],"outputs":[{"name":"","type":"string","internalType":"string"}],"stateMutability":"view"},{"type":"event","name":"Approval","inputs":[{"name":"owner","type":"address","indexed":true,"internalType":"address"},{"name":"spender","type":"address","indexed":true,"internalType":"address"},{"name":"value","type":"uint256","indexed":false,"internalType":"uint256"}],"anonymous":false},{"type":"event","name":"EIP712DomainChanged","inputs":[],"anonymous":false},{"type":"event","name":"Initialized","inputs":[{"name":"version","type":"uint64","indexed":false,"internalType":"uint64"}],"anonymous":false},{"type":"event","name":"MetadataRemoved","inputs":[{"name":"hash","type":"bytes32","indexed":true,"internalType":"bytes32"},{"name":"key","type":"string","indexed":false,"internalType":"string"}],"anonymous":false},{"type":"event","name":"MetadataUpdated","inputs":[{"name":"hash","type":"bytes32","indexed":true,"internalType":"bytes32"},{"name":"key","type":"string","indexed":false,"internalType":"string"},{"name":"value","type":"string","indexed":false,"internalType":"string"}],"anonymous":false},{"type":"event","name":"RoleAdminChanged","inputs":[{"name":"role","type":"bytes32","indexed":true,"internalType":"bytes32"},{"name":"previousAdminRole","type":"bytes32","indexed":true,"internalType":"bytes32"},{"name":"newAdminRole","type":"bytes32","indexed":true,"internalType":"bytes32"}],"anonymous":false},{"type":"event","name":"RoleGranted","inputs":[{"name":"role","type":"bytes32","indexed":true,"internalType":"bytes32"},{"name":"account","type":"address","indexed":true,"internalType":"address"},{"name":"sender","type":"address","indexed":true,"internalType":"address"}],"anonymous":false},{"type":"event","name":"RoleRevoked","inputs":[{"name":"role","type":"bytes32","indexed":true,"internalType":"bytes32"},{"name":"account","type":"address","indexed":true,"internalType":"address"},{"name":"sender","type":"address","indexed":true,"internalType":"address"}],"anonymous":false},{"type":"event","name":"Transfer","inputs":[{"name":"from","type":"address","indexed":true,"internalType":"address"},{"name":"to","type":"address","indexed":true,"internalType":"address"},{"name":"value","type":"uint256","indexed":false,"internalType":"uint256"}],"anonymous":false},{"type":"event","name":"Upgraded","inputs":[{"name":"implementation","type":"address","indexed":true,"internalType":"address"}],"anonymous":false},{"type":"error","name":"AccessControlBadConfirmation","inputs":[]},{"type":"error","name":"AccessControlUnauthorizedAccount","inputs":[{"name":"account","type":"address","internalType":"address"},{"name":"neededRole","type":"bytes32","internalType":"bytes32"}]},{"type":"error","name":"AddressEmptyCode","inputs":[{"name":"target","type":"address","internalType":"address"}]},{"type":"error","name":"ERC1967InvalidImplementation","inputs":[{"name":"implementation","type":"address","internalType":"address"}]},{"type":"error","name":"ERC1967NonPayable","inputs":[]},{"type":"error","name":"ERC20InsufficientAllowance","inputs":[{"name":"spender","type":"address","internalType":"address"},{"name":"allowance","type":"uint256","internalType":"uint256"},{"name":"needed","type":"uint256","internalType":"uint256"}]},{"type":"error","name":"ERC20InsufficientBalance","inputs":[{"name":"sender","type":"address","internalType":"address"},{"name":"balance","type":"uint256","internalType":"uint256"},{"name":"needed","type":"uint256","internalType":"uint256"}]},{"type":"error","name":"ERC20InvalidApprover","inputs":[{"name":"approver","type":"address","internalType":"address"}]},{"type":"error","name":"ERC20InvalidReceiver","inputs":[{"name":"receiver","type":"address","internalType":"address"}]},{"type":"error","name":"ERC20InvalidSender","inputs":[{"name":"sender","type":"address","internalType":"address"}]},{"type":"error","name":"ERC20InvalidSpender","inputs":[{"name":"spender","type":"address","internalType":"address"}]},{"type":"error","name":"FailedCall","inputs":[]},{"type":"error","name":"InvalidInitialization","inputs":[]},{"type":"error","name":"NotInitializing","inputs":[]},{"type":"error","name":"UUPSUnauthorizedCallContext","inputs":[]},{"type":"error","name":"UUPSUnsupportedProxiableUUID","inputs":[{"name":"slot","type":"bytes32","internalType":"bytes32"}]}],"bytecode":{"object":"0x60a080604052346100c257306080525f51602061419b5f395f51905f525460ff8160401c166100b3576002600160401b03196001600160401b03821601610060575b6040516140d490816100c782396080518181816111a101526112940152f35b6001600160401b0319166001600160401b039081175f51602061419b5f395f51905f525581527fc7f505b2f371ae2175ee4913f4499e1f2633a7b5936321eed1cdaeb6115181d290602090a15f80610041565b63f92ee8a960e01b5f5260045ffd5b5f80fdfe6080806040526004361015610012575f80fd5b5f3560e01c90816301ffc9a714612e355750806305daf36814612df857806306fdde0314612cf7578063095ea7b314612c295780630e1ae91b14612b9f57806318160ddd14612b4557806323b872dd1461293d578063248a9ca3146128d557806326f389ba146128195780632f2ff15d1461279e5780633006727d14611b03578063313ce56714611aca578063358410d514611a5a57806336568abe146119d25780633b41f4ea1461189d5780633dc3c175146115945780634f1ef2861461121957806352d1902d1461115c5780635a45403414610f125780635cb0e05a14610ed55780635e59715614610e8d5780635f4cd4db14610e4d5780635fe8e7cc14610c5657806370a0823114610bd457806384b0196e1461084e57806391d14854146107ba57806395d89b41146106765780639ceb21ae1461063b578063a020731d146105ee578063a217fddf146105b6578063a9059cbb14610567578063ad3cb1cc146104ea578063b719d45a14610488578063b93f3f341461043c578063d11a1f07146103cc578063d547741f1461034a578063d9a19635146102fd578063dd62ed3e1461024c578063e5e0a25d146102295763eac989f8146101d4575f80fd5b34610225575f7ffffffffffffffffffffffffffffffffffffffffffffffffffffffffffffffffc3601126102255761022161020d6139d3565b604051918291602083526020830190612ef1565b0390f35b5f80fd5b3461022557602061024261023c36613124565b916139a5565b6040519015158152f35b346102255760407ffffffffffffffffffffffffffffffffffffffffffffffffffffffffffffffffc36011261022557610283612fd1565b73ffffffffffffffffffffffffffffffffffffffff6102e76102a3612ff4565b9273ffffffffffffffffffffffffffffffffffffffff165f527f52c63247e1f47db19d5ce0460030c497f067ca4cebf71ba98eeadabe20bace0160205260405f2090565b91165f52602052602060405f2054604051908152f35b34610225575f7ffffffffffffffffffffffffffffffffffffffffffffffffffffffffffffffffc3601126102255761022161033e610339613983565b613430565b60405191829182612f34565b346102255760407ffffffffffffffffffffffffffffffffffffffffffffffffffffffffffffffffc360112610225576103ca600435610387612ff4565b906103c56103c0825f527f02dd7bc7dec4dceedda775e58dd541e08a116c6c53815c0bd028192f7b626800602052600160405f20015490565b613bf9565b613e78565b005b346102255760207ffffffffffffffffffffffffffffffffffffffffffffffffffffffffffffffffc3601126102255760043567ffffffffffffffff81116102255761020d6104366104246102219336906004016130f6565b919061042e613983565b923691613074565b906135de565b34610225575f7ffffffffffffffffffffffffffffffffffffffffffffffffffffffffffffffffc36011261022557610472613983565b5f526001602052602060405f2054604051908152f35b346102255760207ffffffffffffffffffffffffffffffffffffffffffffffffffffffffffffffffc3601126102255760043567ffffffffffffffff8111610225576102426104dc60209236906004016130f6565b906104e5613983565b6139a5565b34610225575f7ffffffffffffffffffffffffffffffffffffffffffffffffffffffffffffffffc36011261022557610221604051610529604082613033565b600581527f352e302e300000000000000000000000000000000000000000000000000000006020820152604051918291602083526020830190612ef1565b346102255760407ffffffffffffffffffffffffffffffffffffffffffffffffffffffffffffffffc360112610225576105ab6105a1612fd1565b6024359033613a3b565b602060405160018152f35b34610225575f7ffffffffffffffffffffffffffffffffffffffffffffffffffffffffffffffffc3601126102255760206040515f8152f35b34610225575f7ffffffffffffffffffffffffffffffffffffffffffffffffffffffffffffffffc3601126102255761022161062f61062a613983565b61391b565b60405191829182613266565b34610225575f7ffffffffffffffffffffffffffffffffffffffffffffffffffffffffffffffffc360112610225576020600254604051908152f35b34610225575f7ffffffffffffffffffffffffffffffffffffffffffffffffffffffffffffffffc360112610225576040515f7f52c63247e1f47db19d5ce0460030c497f067ca4cebf71ba98eeadabe20bace04546106d38161332b565b808452906001811690811561077857506001146106fb575b6102218361020d81850382613033565b7f52c63247e1f47db19d5ce0460030c497f067ca4cebf71ba98eeadabe20bace045f9081527f46a2803e59a4de4e7a4c574b1243f25977ac4c77d5a1a4a609b5394cebb4a2aa939250905b80821061075e5750909150810160200161020d6106eb565b919260018160209254838588010152019101909291610746565b7fffffffffffffffffffffffffffffffffffffffffffffffffffffffffffffff001660208086019190915291151560051b8401909101915061020d90506106eb565b346102255760407ffffffffffffffffffffffffffffffffffffffffffffffffffffffffffffffffc360112610225576107f1612ff4565b6004355f527f02dd7bc7dec4dceedda775e58dd541e08a116c6c53815c0bd028192f7b62680060205273ffffffffffffffffffffffffffffffffffffffff60405f2091165f52602052602060ff60405f2054166040519015158152f35b34610225575f7ffffffffffffffffffffffffffffffffffffffffffffffffffffffffffffffffc360112610225577fa16a46d94261c7517cc8ff89f61c0ce93598e3c849801011dee649a6a557d100541580610bab575b15610b4d576040517fa16a46d94261c7517cc8ff89f61c0ce93598e3c849801011dee649a6a557d10254815f6108da8361332b565b8083529260018116908115610b105750600114610a92575b6108fe92500382613033565b604051905f7fa16a46d94261c7517cc8ff89f61c0ce93598e3c849801011dee649a6a557d1035461092e8161332b565b8085529060018116908115610a5257506001146109db575b508261095a6109ad94610221930382613033565b6109bb6040519161096c602084613033565b5f83525f3681376040519586957f0f00000000000000000000000000000000000000000000000000000000000000875260e0602088015260e0870190612ef1565b908582036040870152612ef1565b904660608501523060808501525f60a085015283820360c08501526132e3565b7fa16a46d94261c7517cc8ff89f61c0ce93598e3c849801011dee649a6a557d1035f90815291507f5f9ce34815f8e11431c7bb75a8e6886a91478f7ffc1dbb0a98dc240fddd76b755b818310610a38575050820160200182610946565b600181602092949394548385890101520191019190610a24565b7fffffffffffffffffffffffffffffffffffffffffffffffffffffffffffffff001660208087019190915291151560051b85019091019150839050610946565b507fa16a46d94261c7517cc8ff89f61c0ce93598e3c849801011dee649a6a557d1025f90815290917f42ad5d3e1f2e6e70edcf6d991b8a3023d3fca8047a131592f9edb9fd9b89d57d5b818310610af45750509060206108fe928201016108f2565b6020919350806001915483858801015201910190918392610adc565b602092506108fe9491507fffffffffffffffffffffffffffffffffffffffffffffffffffffffffffffff001682840152151560051b8201016108f2565b60646040517f08c379a000000000000000000000000000000000000000000000000000000000815260206004820152601560248201527f4549503731323a20556e696e697469616c697a656400000000000000000000006044820152fd5b507fa16a46d94261c7517cc8ff89f61c0ce93598e3c849801011dee649a6a557d10154156108a5565b346102255760207ffffffffffffffffffffffffffffffffffffffffffffffffffffffffffffffffc3601126102255773ffffffffffffffffffffffffffffffffffffffff610c20612fd1565b165f527f52c63247e1f47db19d5ce0460030c497f067ca4cebf71ba98eeadabe20bace00602052602060405f2054604051908152f35b34610225575f7ffffffffffffffffffffffffffffffffffffffffffffffffffffffffffffffffc36011261022557600354610c9081613176565b610c9d6040519182613033565b818152610ca982613176565b917fffffffffffffffffffffffffffffffffffffffffffffffffffffffffffffffe0602083019301368437610cdd81613176565b90610ceb6040519283613033565b8082527fffffffffffffffffffffffffffffffffffffffffffffffffffffffffffffffe0610d1882613176565b013660208401376003545f5b828110610d8e5750505060405191604083019060408452518091526060830193905f5b818110610d62578480610221888783820360208501526132e3565b825173ffffffffffffffffffffffffffffffffffffffff16865260209586019590920191600101610d47565b81811015610e205760035f527fc2575a0e9e593c00f959f8c92f12db2869c3395a3b0502d05e2516446f71f85b8101546001919073ffffffffffffffffffffffffffffffffffffffff1680610de3838961341c565b525f527f52c63247e1f47db19d5ce0460030c497f067ca4cebf71ba98eeadabe20bace0060205260405f2054610e19828761341c565b5201610d24565b7f4e487b71000000000000000000000000000000000000000000000000000000005f52603260045260245ffd5b34610225575f7ffffffffffffffffffffffffffffffffffffffffffffffffffffffffffffffffc360112610225576020610e85613983565b604051908152f35b346102255760207ffffffffffffffffffffffffffffffffffffffffffffffffffffffffffffffffc360112610225576004355f526001602052602060405f2054604051908152f35b346102255760207ffffffffffffffffffffffffffffffffffffffffffffffffffffffffffffffffc3601126102255761022161062f60043561391b565b346102255760207ffffffffffffffffffffffffffffffffffffffffffffffffffffffffffffffffc3601126102255760043567ffffffffffffffff811161022557366023820112156102255780600401359067ffffffffffffffff8211610225573660248360051b8301011161022557610fa190610f8e613b91565b610f96613983565b92602436920161318e565b90610faa613b91565b5f5b82518110156103ca57815f525f602052610ff060208060405f20610fd0858861341c565b515190604051938285935191829101845e8201908152030190205461332b565b1561103a6020611000848761341c565b510151845f525f60205260208060405f2061101b878a61341c565b515190604051938285935191829101845e820190815203019020613807565b6110b0575b80827fc42c4edbc41dce02b01dd098a1f7a4c685c638d7a2fdfbe449b32e1f89fbfae16110996110716001958861341c565b51516110a76020611082878b61341c565b510151604051938493604085526040850190612ef1565b908382036020850152612ef1565b0390a201610fac565b815f52600160205260405f20906110c7818561341c565b51519180546801000000000000000081101561112f576110ec91600182018155613316565b611103576001926110fc91613807565b905061103f565b7f4e487b71000000000000000000000000000000000000000000000000000000005f525f60045260245ffd5b7f4e487b71000000000000000000000000000000000000000000000000000000005f52604160045260245ffd5b34610225575f7ffffffffffffffffffffffffffffffffffffffffffffffffffffffffffffffffc3601126102255773ffffffffffffffffffffffffffffffffffffffff7f00000000000000000000000000000000000000000000000000000000000000001630036111f15760206040517f360894a13ba1a3210667c828492db98dca3e2076cc3735a920a3ca505d382bbc8152f35b7fe07c8dba000000000000000000000000000000000000000000000000000000005f5260045ffd5b60407ffffffffffffffffffffffffffffffffffffffffffffffffffffffffffffffffc3601126102255761124b612fd1565b60243567ffffffffffffffff811161022557366023820112156102255761127c903690602481600401359101613074565b9073ffffffffffffffffffffffffffffffffffffffff7f000000000000000000000000000000000000000000000000000000000000000016803014908115611552575b506111f157335f9081527fab71e3f32666744d246edff3f96e4bdafee2e9867098cdd118a979a7464786a8602052604090205460ff16156115025773ffffffffffffffffffffffffffffffffffffffff8116916040517f52d1902d000000000000000000000000000000000000000000000000000000008152602081600481875afa5f91816114ce575b5061137a57837f4c9c8ce3000000000000000000000000000000000000000000000000000000005f5260045260245ffd5b807f360894a13ba1a3210667c828492db98dca3e2076cc3735a920a3ca505d382bbc8592036114a35750823b1561147857807fffffffffffffffffffffffff00000000000000000000000000000000000000007f360894a13ba1a3210667c828492db98dca3e2076cc3735a920a3ca505d382bbc5416177f360894a13ba1a3210667c828492db98dca3e2076cc3735a920a3ca505d382bbc557fbc7cd75a20ee27fd9adebab32041f755214dbc6bffa90cc0225b39da2e5c2d3b5f80a2805115611447576103ca91613fd7565b50503461145057005b7fb398979f000000000000000000000000000000000000000000000000000000005f5260045ffd5b7f4c9c8ce3000000000000000000000000000000000000000000000000000000005f5260045260245ffd5b7faa1d49a4000000000000000000000000000000000000000000000000000000005f5260045260245ffd5b9091506020813d6020116114fa575b816114ea60209383613033565b8101031261022557519085611349565b3d91506114dd565b7fe2517d3f000000000000000000000000000000000000000000000000000000005f52336004527f189ab7a9244df0848122154315af71fe140f3db0fe014031783b0946b8c9d2e360245260445ffd5b905073ffffffffffffffffffffffffffffffffffffffff7f360894a13ba1a3210667c828492db98dca3e2076cc3735a920a3ca505d382bbc54161415836112bf565b346102255760207ffffffffffffffffffffffffffffffffffffffffffffffffffffffffffffffffc3601126102255760043567ffffffffffffffff8111610225576115e39036906004016130f6565b906115ec613b91565b6115f4613983565b916115fd613b91565b825f525f60205261162660405f206020604051809285878337858201908152030190205461332b565b1561183f57825f525f60205261165360405f2060206040518092858783378582019081520301902061362b565b825f52600160205260405f20905f5b8254808210156118125761168961169061167c8487613316565b506040519283809261337c565b0382613033565b602081519101206116a2368588613074565b60208151910120146116b75750600101611662565b7fffffffffffffffffffffffffffffffffffffffffffffffffffffffffffffffff8195939495019081116117e5576116f26116fa9186613316565b509185613316565b9190916111035761170a916136cc565b82549081156117b8577fca45c60cf1bbd58b2ac673da0d008eb3606c36e814e8d7fe0df3a3e53ecc59b7937fffffffffffffffffffffffffffffffffffffffffffffffffffffffffffffffff604093019061176e6117688383613316565b9061367a565b555b7fffffffffffffffffffffffffffffffffffffffffffffffffffffffffffffffe0601f84845195869460208652816020870152868601375f85828601015201168101030190a2005b7f4e487b71000000000000000000000000000000000000000000000000000000005f52603160045260245ffd5b7f4e487b71000000000000000000000000000000000000000000000000000000005f52601160045260245ffd5b5050905060407fca45c60cf1bbd58b2ac673da0d008eb3606c36e814e8d7fe0df3a3e53ecc59b792611770565b60646040517f08c379a000000000000000000000000000000000000000000000000000000000815260206004820152601260248201527f4b657920646f6573206e6f7420657869737400000000000000000000000000006044820152fd5b346102255760407ffffffffffffffffffffffffffffffffffffffffffffffffffffffffffffffffc3601126102255760043560243567ffffffffffffffff8111610225576118ef90369060040161324b565b906118f8613b91565b5f5b82518110156103ca57815f525f60205261191e60208060405f20610fd0858861341c565b1561192e6020611000848761341c565b61197f575b80827fc42c4edbc41dce02b01dd098a1f7a4c685c638d7a2fdfbe449b32e1f89fbfae16110996119656001958861341c565b51516119766020611082878b61341c565b0390a2016118fa565b815f52600160205260405f2090611996818561341c565b51519180546801000000000000000081101561112f576119bb91600182018155613316565b611103576001926119cb91613807565b9050611933565b346102255760407ffffffffffffffffffffffffffffffffffffffffffffffffffffffffffffffffc36011261022557611a09612ff4565b3373ffffffffffffffffffffffffffffffffffffffff821603611a32576103ca90600435613e78565b7f6697b232000000000000000000000000000000000000000000000000000000005f5260045ffd5b34610225575f7ffffffffffffffffffffffffffffffffffffffffffffffffffffffffffffffffc36011261022557602073ffffffffffffffffffffffffffffffffffffffff7f360894a13ba1a3210667c828492db98dca3e2076cc3735a920a3ca505d382bbc5416604051908152f35b34610225575f7ffffffffffffffffffffffffffffffffffffffffffffffffffffffffffffffffc36011261022557602060405160128152f35b346102255760e07ffffffffffffffffffffffffffffffffffffffffffffffffffffffffffffffffc3601126102255760043567ffffffffffffffff811161022557611b529036906004016130d8565b60243567ffffffffffffffff811161022557611b729036906004016130d8565b60843560443573ffffffffffffffffffffffffffffffffffffffff821682036102255760a4359073ffffffffffffffffffffffffffffffffffffffff82168092036102255760c43567ffffffffffffffff811161022557611bd790369060040161324b565b927ff0c57e16840df040f15088dc2f81fe391c3923bec73e23a9662efc9c229c6a00549460ff8660401c16159567ffffffffffffffff811680159081612796575b600114908161278c575b159081612783575b5061275b578660017fffffffffffffffffffffffffffffffffffffffffffffffff00000000000000008316177ff0c57e16840df040f15088dc2f81fe391c3923bec73e23a9662efc9c229c6a0055612706575b50611c86613f80565b611c8e613f80565b865167ffffffffffffffff811161112f57611cf381611ccd7f52c63247e1f47db19d5ce0460030c497f067ca4cebf71ba98eeadabe20bace035461332b565b7f52c63247e1f47db19d5ce0460030c497f067ca4cebf71ba98eeadabe20bace03613689565b6020601f8211600114612627579080611d3e925f9161261c575b507fffffffffffffffffffffffffffffffffffffffffffffffffffffffffffffffff8260011b9260031b1c19161790565b7f52c63247e1f47db19d5ce0460030c497f067ca4cebf71ba98eeadabe20bace03555b80519067ffffffffffffffff821161112f57611dc782611da17f52c63247e1f47db19d5ce0460030c497f067ca4cebf71ba98eeadabe20bace045461332b565b7f52c63247e1f47db19d5ce0460030c497f067ca4cebf71ba98eeadabe20bace04613689565b602090601f831160011461253c57611e1492915f9183612531575b50507fffffffffffffffffffffffffffffffffffffffffffffffffffffffffffffffff8260011b9260031b1c19161790565b7f52c63247e1f47db19d5ce0460030c497f067ca4cebf71ba98eeadabe20bace04555b604095865190611e478883613033565b600182527f31000000000000000000000000000000000000000000000000000000000000006020830152611e79613f80565b611e81613f80565b80519067ffffffffffffffff821161112f57611ee782611ec17fa16a46d94261c7517cc8ff89f61c0ce93598e3c849801011dee649a6a557d1025461332b565b7fa16a46d94261c7517cc8ff89f61c0ce93598e3c849801011dee649a6a557d102613689565b602090601f831160011461245157611f3392915f91836123625750507fffffffffffffffffffffffffffffffffffffffffffffffffffffffffffffffff8260011b9260031b1c19161790565b7fa16a46d94261c7517cc8ff89f61c0ce93598e3c849801011dee649a6a557d102555b80519067ffffffffffffffff821161112f57611fbc82611f967fa16a46d94261c7517cc8ff89f61c0ce93598e3c849801011dee649a6a557d1035461332b565b7fa16a46d94261c7517cc8ff89f61c0ce93598e3c849801011dee649a6a557d103613689565b602090601f831160011461236d57918061200d9261208195945f926123625750507fffffffffffffffffffffffffffffffffffffffffffffffffffffffffffffffff8260011b9260031b1c19161790565b7fa16a46d94261c7517cc8ff89f61c0ce93598e3c849801011dee649a6a557d103555b5f7fa16a46d94261c7517cc8ff89f61c0ce93598e3c849801011dee649a6a557d100555f7fa16a46d94261c7517cc8ff89f61c0ce93598e3c849801011dee649a6a557d10155606435600255613c7f565b508115612336577f52c63247e1f47db19d5ce0460030c497f067ca4cebf71ba98eeadabe20bace0254908082018092116117e55760207fddf252ad1be2c89b69c2b068fc378daa952ba7f163c4a11628f55a4df523b3ef915f937f52c63247e1f47db19d5ce0460030c497f067ca4cebf71ba98eeadabe20bace02558484527f52c63247e1f47db19d5ce0460030c497f067ca4cebf71ba98eeadabe20bace0082528784208181540190558751908152a36002548351602081019182526020815261214c8582613033565b51902090612158613b91565b5f5b815181101561229b57825f525f60205261219c602080875f2061217d858761341c565b5151908951938285935191829101845e8201908152030190205461332b565b156121e460206121ac848661341c565b510151855f525f602052602080895f206121c6878961341c565b5151908b51938285935191829101845e820190815203019020613807565b612249575b80837fc42c4edbc41dce02b01dd098a1f7a4c685c638d7a2fdfbe449b32e1f89fbfae161109961221b6001958761341c565b5151612240602061222c878a61341c565b5101518b519384938d85528d850190612ef1565b0390a20161215a565b825f526001602052845f209061225f818461341c565b51519180546801000000000000000081101561112f5761228491600182018155613316565b6111035760019261229491613807565b90506121e9565b5050506122a457005b60207fc7f505b2f371ae2175ee4913f4499e1f2633a7b5936321eed1cdaeb6115181d2917fffffffffffffffffffffffffffffffffffffffffffffff00ffffffffffffffff7ff0c57e16840df040f15088dc2f81fe391c3923bec73e23a9662efc9c229c6a0054167ff0c57e16840df040f15088dc2f81fe391c3923bec73e23a9662efc9c229c6a00555160018152a1005b7fec442f05000000000000000000000000000000000000000000000000000000005f525f60045260245ffd5b015190508a80611de2565b907fffffffffffffffffffffffffffffffffffffffffffffffffffffffffffffffe08316917fa16a46d94261c7517cc8ff89f61c0ce93598e3c849801011dee649a6a557d1035f52815f20925f5b818110612439575091600193918561208197969410612402575b505050811b017fa16a46d94261c7517cc8ff89f61c0ce93598e3c849801011dee649a6a557d10355612030565b01517fffffffffffffffffffffffffffffffffffffffffffffffffffffffffffffffff60f88460031b161c191690558980806123d5565b929360206001819287860151815501950193016123bb565b907fffffffffffffffffffffffffffffffffffffffffffffffffffffffffffffffe08316917fa16a46d94261c7517cc8ff89f61c0ce93598e3c849801011dee649a6a557d1025f52815f20925f5b81811061251957509084600195949392106124e2575b505050811b017fa16a46d94261c7517cc8ff89f61c0ce93598e3c849801011dee649a6a557d10255611f56565b01517fffffffffffffffffffffffffffffffffffffffffffffffffffffffffffffffff60f88460031b161c191690558980806124b5565b9293602060018192878601518155019501930161249f565b015190508980611de2565b907fffffffffffffffffffffffffffffffffffffffffffffffffffffffffffffffe08316917f52c63247e1f47db19d5ce0460030c497f067ca4cebf71ba98eeadabe20bace045f52815f20925f5b81811061260457509084600195949392106125cd575b505050811b017f52c63247e1f47db19d5ce0460030c497f067ca4cebf71ba98eeadabe20bace0455611e37565b01517fffffffffffffffffffffffffffffffffffffffffffffffffffffffffffffffff60f88460031b161c191690558880806125a0565b9293602060018192878601518155019501930161258a565b90508901518a611d0d565b7fffffffffffffffffffffffffffffffffffffffffffffffffffffffffffffffe08216907f52c63247e1f47db19d5ce0460030c497f067ca4cebf71ba98eeadabe20bace035f52805f20915f5b8b8282106126ee57505090836001949392106126b7575b5050811b017f52c63247e1f47db19d5ce0460030c497f067ca4cebf71ba98eeadabe20bace0355611d61565b8a01517fffffffffffffffffffffffffffffffffffffffffffffffffffffffffffffffff60f88460031b161c19169055898061268b565b60018495602093958493015181550194019201612674565b7fffffffffffffffffffffffffffffffffffffffffffffff0000000000000000001668010000000000000001177ff0c57e16840df040f15088dc2f81fe391c3923bec73e23a9662efc9c229c6a005587611c7d565b7ff92ee8a9000000000000000000000000000000000000000000000000000000005f5260045ffd5b90501589611c2a565b303b159150611c22565b889150611c18565b346102255760407ffffffffffffffffffffffffffffffffffffffffffffffffffffffffffffffffc360112610225576103ca6004356127db612ff4565b906128146103c0825f527f02dd7bc7dec4dceedda775e58dd541e08a116c6c53815c0bd028192f7b626800602052600160405f20015490565b613d66565b346102255761282736613124565b61282f613b91565b825f525f60205261285860405f206020604051809285878337858201908152030190205461332b565b1561183f57825f525f60205261288560405f2060206040518092858783378582019081520301902061362b565b825f52600160205260405f20905f5b825480821015611812576116896128ae61167c8487613316565b602081519101206128c0368588613074565b60208151910120146116b75750600101612894565b346102255760207ffffffffffffffffffffffffffffffffffffffffffffffffffffffffffffffffc360112610225576020610e856004355f527f02dd7bc7dec4dceedda775e58dd541e08a116c6c53815c0bd028192f7b626800602052600160405f20015490565b346102255760607ffffffffffffffffffffffffffffffffffffffffffffffffffffffffffffffffc36011261022557612974612fd1565b61297c612ff4565b604435906129c78373ffffffffffffffffffffffffffffffffffffffff165f527f52c63247e1f47db19d5ce0460030c497f067ca4cebf71ba98eeadabe20bace0160205260405f2090565b73ffffffffffffffffffffffffffffffffffffffff33165f5260205260405f2054927fffffffffffffffffffffffffffffffffffffffffffffffffffffffffffffffff8410612a1b575b6105ab9350613a3b565b828410612b115773ffffffffffffffffffffffffffffffffffffffff811615612ae5573315612ab9576105ab93612a8f8273ffffffffffffffffffffffffffffffffffffffff165f527f52c63247e1f47db19d5ce0460030c497f067ca4cebf71ba98eeadabe20bace0160205260405f2090565b73ffffffffffffffffffffffffffffffffffffffff33165f526020528360405f2091039055612a11565b7f94280d62000000000000000000000000000000000000000000000000000000005f525f60045260245ffd5b7fe602df05000000000000000000000000000000000000000000000000000000005f525f60045260245ffd5b82847ffb8f41b2000000000000000000000000000000000000000000000000000000005f523360045260245260445260645ffd5b34610225575f7ffffffffffffffffffffffffffffffffffffffffffffffffffffffffffffffffc3601126102255760207f52c63247e1f47db19d5ce0460030c497f067ca4cebf71ba98eeadabe20bace0254604051908152f35b346102255760407ffffffffffffffffffffffffffffffffffffffffffffffffffffffffffffffffc3601126102255760243567ffffffffffffffff81116102255761168961020d602080612bfa6102219536906004016130d8565b6004355f525f825260405f20604051938285935191829101845e8201908152030190206040519283809261337c565b346102255760407ffffffffffffffffffffffffffffffffffffffffffffffffffffffffffffffffc36011261022557612c60612fd1565b602435903315612ae55773ffffffffffffffffffffffffffffffffffffffff16908115612ab957335f9081527f52c63247e1f47db19d5ce0460030c497f067ca4cebf71ba98eeadabe20bace0160205260409020825f526020528060405f20556040519081527f8c5be1e5ebec7d5bd14f71427d1e84f3dd0314c0f7b2291e5b200ac8c7c3b92560203392a3602060405160018152f35b34610225575f7ffffffffffffffffffffffffffffffffffffffffffffffffffffffffffffffffc360112610225576040515f7f52c63247e1f47db19d5ce0460030c497f067ca4cebf71ba98eeadabe20bace0354612d548161332b565b80845290600181169081156107785750600114612d7b576102218361020d81850382613033565b7f52c63247e1f47db19d5ce0460030c497f067ca4cebf71ba98eeadabe20bace035f9081527f2ae08a8e29253f69ac5d979a101956ab8f8d9d7ded63fa7a83b16fc47648eab0939250905b808210612dde5750909150810160200161020d6106eb565b919260018160209254838588010152019101909291612dc6565b346102255760207ffffffffffffffffffffffffffffffffffffffffffffffffffffffffffffffffc3601126102255761022161033e600435613430565b346102255760207ffffffffffffffffffffffffffffffffffffffffffffffffffffffffffffffffc36011261022557600435907fffffffff00000000000000000000000000000000000000000000000000000000821680920361022557817f7965db0b0000000000000000000000000000000000000000000000000000000060209314908115612ec7575b5015158152f35b7f01ffc9a70000000000000000000000000000000000000000000000000000000091501483612ec0565b907fffffffffffffffffffffffffffffffffffffffffffffffffffffffffffffffe0601f602080948051918291828752018686015e5f8582860101520116010190565b602081016020825282518091526040820191602060408360051b8301019401925f915b838310612f6657505050505090565b9091929394602080612fc2837fffffffffffffffffffffffffffffffffffffffffffffffffffffffffffffffc0866001960301875289519083612fb28351604084526040840190612ef1565b9201519084818403910152612ef1565b97019301930191939290612f57565b6004359073ffffffffffffffffffffffffffffffffffffffff8216820361022557565b6024359073ffffffffffffffffffffffffffffffffffffffff8216820361022557565b6040810190811067ffffffffffffffff82111761112f57604052565b90601f7fffffffffffffffffffffffffffffffffffffffffffffffffffffffffffffffe0910116810190811067ffffffffffffffff82111761112f57604052565b92919267ffffffffffffffff821161112f57604051916130bc601f82017fffffffffffffffffffffffffffffffffffffffffffffffffffffffffffffffe01660200184613033565b829481845281830111610225578281602093845f960137010152565b9080601f83011215610225578160206130f393359101613074565b90565b9181601f840112156102255782359167ffffffffffffffff8311610225576020838186019501011161022557565b9060407ffffffffffffffffffffffffffffffffffffffffffffffffffffffffffffffffc83011261022557600435916024359067ffffffffffffffff821161022557613172916004016130f6565b9091565b67ffffffffffffffff811161112f5760051b60200190565b9291909261319b84613176565b936131a96040519586613033565b602085828152019060051b8201918383116102255780915b8383106131cf575050505050565b823567ffffffffffffffff811161022557820160408187031261022557604051916131f983613017565b813567ffffffffffffffff811161022557876132169184016130d8565b835260208201359267ffffffffffffffff84116102255761323c886020958695016130d8565b838201528152019201916131c1565b9080601f83011215610225578160206130f39335910161318e565b602081016020825282518091526040820191602060408360051b8301019401925f915b83831061329857505050505090565b90919293946020806132d4837fffffffffffffffffffffffffffffffffffffffffffffffffffffffffffffffc086600196030187528951612ef1565b97019301930191939290613289565b90602080835192838152019201905f5b8181106133005750505090565b82518452602093840193909201916001016132f3565b8054821015610e20575f5260205f2001905f90565b90600182811c92168015613372575b602083101461334557565b7f4e487b71000000000000000000000000000000000000000000000000000000005f52602260045260245ffd5b91607f169161333a565b5f929181549161338b8361332b565b80835292600181169081156133e057506001146133a757505050565b5f9081526020812093945091925b8383106133c6575060209250010190565b6001816020929493945483858701015201910191906133b5565b905060209495507fffffffffffffffffffffffffffffffffffffffffffffffffffffffffffffff0091509291921683830152151560051b010190565b8051821015610e205760209160051b010190565b90815f52600160205260405f20805461344881613176565b6134556040519182613033565b8181527fffffffffffffffffffffffffffffffffffffffffffffffffffffffffffffffe061348283613176565b015f5b8181106135b957505080945f5b8381106134a0575050505050565b6134aa8186613316565b50825f525f60205260405f206134c08388613316565b50604051915f918054906134d38261332b565b9160018116908115613583575060011461354e575b505082602060019695948461352d9461168996520301902061168961351f6040519561351387613017565b6040519283809261337c565b84526040519283809261337c565b602082015261353c828661341c565b52613547818561341c565b5001613492565b909192505f5260205f205f905b82821061356f5750508201908260206134e8565b60018160209254848801520191019061355b565b7fffffffffffffffffffffffffffffffffffffffffffffffffffffffffffffff00168652505080151502830191508260206134e8565b6020906040516135c881613017565b6060815260608382015282828601015201613485565b602080611689936130f3935f525f825260405f20604051938285935191829101845e8201908152030190206040519283809261337c565b818110613620575050565b5f8155600101613615565b613635815461332b565b908161363f575050565b81601f5f93116001146136515750555b565b8183526020832061366d91601f0160051c810190600101613615565b8082528160208120915555565b9061110357613635815461332b565b9190601f811161369857505050565b61364f925f5260205f20906020601f840160051c830193106136c2575b601f0160051c0190613615565b90915081906136b5565b919091828114613802576136e0835461332b565b67ffffffffffffffff811161112f57613703816136fd845461332b565b84613689565b5f93601f821160011461375f5761375092939482915f926137545750507fffffffffffffffffffffffffffffffffffffffffffffffffffffffffffffffff8260011b9260031b1c19161790565b9055565b015490505f80611de2565b7fffffffffffffffffffffffffffffffffffffffffffffffffffffffffffffffe08216905f5260205f2094835f5260205f20915f5b8181106137ea575095836001959697106137b3575b505050811b019055565b01547fffffffffffffffffffffffffffffffffffffffffffffffffffffffffffffffff60f88460031b161c191690555f80806137a9565b9192600180602092868b015481550194019201613794565b509050565b919091825167ffffffffffffffff811161112f57613829816136fd845461332b565b6020601f82116001146138815781906137509394955f926138765750507fffffffffffffffffffffffffffffffffffffffffffffffffffffffffffffffff8260011b9260031b1c19161790565b015190505f80611de2565b7fffffffffffffffffffffffffffffffffffffffffffffffffffffffffffffffe0821690835f52805f20915f5b818110613903575095836001959697106138cc57505050811b019055565b01517fffffffffffffffffffffffffffffffffffffffffffffffffffffffffffffffff60f88460031b161c191690555f80806137a9565b9192602060018192868b0151815501940192016138ae565b5f52600160205260405f20805461393181613176565b9161393f6040519384613033565b81835260208301905f5260205f205f915b83831061395e575050505090565b60016020819260405161397581611689818961337c565b815201920192019190613950565b600254604051602081019182526020815261399f604082613033565b51902090565b6139ce92916020915f525f825260405f208360405194859384378201908152030190205461332b565b151590565b613a1c6139de613983565b604051906139ed604083613033565b600382527f757269000000000000000000000000000000000000000000000000000000000060208301526135de565b805115613a265790565b50604051613a35602082613033565b5f815290565b73ffffffffffffffffffffffffffffffffffffffff16908115613b655773ffffffffffffffffffffffffffffffffffffffff1691821561233657815f527f52c63247e1f47db19d5ce0460030c497f067ca4cebf71ba98eeadabe20bace0060205260405f2054818110613b3357817fddf252ad1be2c89b69c2b068fc378daa952ba7f163c4a11628f55a4df523b3ef92602092855f527f52c63247e1f47db19d5ce0460030c497f067ca4cebf71ba98eeadabe20bace0084520360405f2055845f527f52c63247e1f47db19d5ce0460030c497f067ca4cebf71ba98eeadabe20bace00825260405f20818154019055604051908152a3565b827fe450d38c000000000000000000000000000000000000000000000000000000005f5260045260245260445260645ffd5b7f96c6fd1e000000000000000000000000000000000000000000000000000000005f525f60045260245ffd5b335f9081527fb7db2dd08fcb62d0c9e08c51941cae53c267786a0b75803fb7960902fc8ef97d602052604090205460ff1615613bc957565b7fe2517d3f000000000000000000000000000000000000000000000000000000005f52336004525f60245260445ffd5b805f527f02dd7bc7dec4dceedda775e58dd541e08a116c6c53815c0bd028192f7b62680060205260405f2073ffffffffffffffffffffffffffffffffffffffff33165f5260205260ff60405f20541615613c505750565b7fe2517d3f000000000000000000000000000000000000000000000000000000005f523360045260245260445ffd5b73ffffffffffffffffffffffffffffffffffffffff81165f9081527fb7db2dd08fcb62d0c9e08c51941cae53c267786a0b75803fb7960902fc8ef97d602052604090205460ff16613d615773ffffffffffffffffffffffffffffffffffffffff165f8181527fb7db2dd08fcb62d0c9e08c51941cae53c267786a0b75803fb7960902fc8ef97d6020526040812080547fffffffffffffffffffffffffffffffffffffffffffffffffffffffffffffff001660011790553391907f2f8788117e7eff1d82e926ec794901d17c78024a50270940304540a733656f0d8180a4600190565b505f90565b805f527f02dd7bc7dec4dceedda775e58dd541e08a116c6c53815c0bd028192f7b62680060205260405f2073ffffffffffffffffffffffffffffffffffffffff83165f5260205260ff60405f205416155f14613e7257805f527f02dd7bc7dec4dceedda775e58dd541e08a116c6c53815c0bd028192f7b62680060205260405f2073ffffffffffffffffffffffffffffffffffffffff83165f5260205260405f2060017fffffffffffffffffffffffffffffffffffffffffffffffffffffffffffffff0082541617905573ffffffffffffffffffffffffffffffffffffffff339216907f2f8788117e7eff1d82e926ec794901d17c78024a50270940304540a733656f0d5f80a4600190565b50505f90565b805f527f02dd7bc7dec4dceedda775e58dd541e08a116c6c53815c0bd028192f7b62680060205260405f2073ffffffffffffffffffffffffffffffffffffffff83165f5260205260ff60405f2054165f14613e7257805f527f02dd7bc7dec4dceedda775e58dd541e08a116c6c53815c0bd028192f7b62680060205260405f2073ffffffffffffffffffffffffffffffffffffffff83165f5260205260405f207fffffffffffffffffffffffffffffffffffffffffffffffffffffffffffffff00815416905573ffffffffffffffffffffffffffffffffffffffff339216907ff6391f5c32d9c69d2a47ea670b442974b53935d1edc7fd64eb21e047a839171b5f80a4600190565b60ff7ff0c57e16840df040f15088dc2f81fe391c3923bec73e23a9662efc9c229c6a005460401c1615613faf57565b7fd7e6bcf8000000000000000000000000000000000000000000000000000000005f5260045ffd5b905f8091602081519101845af4808061408b575b1561400b5750506040513d81523d5f602083013e60203d82010160405290565b156140525773ffffffffffffffffffffffffffffffffffffffff907f9996b315000000000000000000000000000000000000000000000000000000005f521660045260245ffd5b3d15614063576040513d5f823e3d90fd5b7fd6bda275000000000000000000000000000000000000000000000000000000005f5260045ffd5b503d151580613feb5750813b1515613feb56fea26469706673582212204f20a8e1373db91bfa0063cb40fe28c67bbc4818e31b68e62c88c78ad4140fe064736f6c634300081e0033f0c57e16840df040f15088dc2f81fe391c3923bec73e23a9662efc9c229c6a00","linkReferences":{}},"methodIdentifiers":{"ASSET_ID()":"9ceb21ae","DEFAULT_ADMIN_ROLE()":"a217fddf","UPGRADE_INTERFACE_VERSION()":"ad3cb1cc","allowance(address,address)":"dd62ed3e","approve(address,uint256)":"095ea7b3","balanceOf(address)":"70a08231","decimals()":"313ce567","eip712Domain()":"84b0196e","getAllMetadata()":"d9a19635","getAllMetadata(bytes32)":"05daf368","getAllMetadataKeys()":"a020731d","getAllMetadataKeys(bytes32)":"5cb0e05a","getAssetIdHash()":"5f4cd4db","getHolders()":"5fe8e7cc","getMetadata(bytes32,string)":"0e1ae91b","getMetadata(string)":"d11a1f07","getMetadataCount()":"b93f3f34","getMetadataCount(bytes32)":"5e597156","getRoleAdmin(bytes32)":"248a9ca3","getUupsImplementation()":"358410d5","grantRole(bytes32,address)":"2f2ff15d","hasMetadata(bytes32,string)":"e5e0a25d","hasMetadata(string)":"b719d45a","hasRole(bytes32,address)":"91d14854","initialize(string,string,uint256,uint256,address,address,(string,string)[])":"3006727d","name()":"06fdde03","proxiableUUID()":"52d1902d","removeMetadata(bytes32,string)":"26f389ba","removeMetadata(string)":"3dc3c175","renounceRole(bytes32,address)":"36568abe","revokeRole(bytes32,address)":"d547741f","setMetadata((string,string)[])":"5a454034","setMetadata(bytes32,(string,string)[])":"3b41f4ea","supportsInterface(bytes4)":"01ffc9a7","symbol()":"95d89b41","totalSupply()":"18160ddd","transfer(address,uint256)":"a9059cbb","transferFrom(address,address,uint256)":"23b872dd","upgradeToAndCall(address,bytes)":"4f1ef286","uri()":"eac989f8"},"storageLayout":{"storage":[{"astId":61653,"contract":"src/AssetERC20.sol:AssetERC20","label":"_metadata","offset":0,"slot":"0","type":"t_mapping(t_bytes32,t_mapping(t_string_memory_ptr,t_string_storage))"},{"astId":61659,"contract":"src/AssetERC20.sol:AssetERC20","label":"_metadataKeys","offset":0,"slot":"1","type":"t_mapping(t_bytes32,t_array(t_string_storage)dyn_storage)"},{"astId":59496,"contract":"src/AssetERC20.sol:AssetERC20","label":"ASSET_ID","offset":0,"slot":"2","type":"t_uint256"},{"astId":59500,"contract":"src/AssetERC20.sol:AssetERC20","label":"_holders","offset":0,"slot":"3","type":"t_struct(AddressSet)53873_storage"}],"types":{"t_array(t_bytes32)dyn_storage":{"encoding":"dynamic_array","label":"bytes32[]","numberOfBytes":"32","base":"t_bytes32"},"t_array(t_string_storage)dyn_storage":{"encoding":"dynamic_array","label":"string[]","numberOfBytes":"32","base":"t_string_storage"},"t_bytes32":{"encoding":"inplace","label":"bytes32","numberOfBytes":"32"},"t_mapping(t_bytes32,t_array(t_string_storage)dyn_storage)":{"encoding":"mapping","key":"t_bytes32","label":"mapping(bytes32 => string[])","numberOfBytes":"32","value":"t_array(t_string_storage)dyn_storage"},"t_mapping(t_bytes32,t_mapping(t_string_memory_ptr,t_string_storage))":{"encoding":"mapping","key":"t_bytes32","label":"mapping(bytes32 => mapping(string => string))","numberOfBytes":"32","value":"t_mapping(t_string_memory_ptr,t_string_storage)"},"t_mapping(t_bytes32,t_uint256)":{"encoding":"mapping","key":"t_bytes32","label":"mapping(bytes32 => uint256)","numberOfBytes":"32","value":"t_uint256"},"t_mapping(t_string_memory_ptr,t_string_storage)":{"encoding":"mapping","key":"t_string_memory_ptr","label":"mapping(string => string)","numberOfBytes":"32","value":"t_string_storage"},"t_string_memory_ptr":{"encoding":"bytes","label":"string","numberOfBytes":"32"},"t_string_storage":{"encoding":"bytes","label":"string","numberOfBytes":"32"},"t_struct(AddressSet)53873_storage":{"encoding":"inplace","label":"struct EnumerableSet.AddressSet","numberOfBytes":"64","members":[{"astId":53872,"contract":"src/AssetERC20.sol:AssetERC20","label":"_inner","offset":0,"slot":"0","type":"t_struct(Set)53387_storage"}]},"t_struct(Set)53387_storage":{"encoding":"inplace","label":"struct EnumerableSet.Set","numberOfBytes":"64","members":[{"astId":53382,"contract":"src/AssetERC20.sol:AssetERC20","label":"_values","offset":0,"slot":"0","type":"t_array(t_bytes32)dyn_storage"},{"astId":53386,"contract":"src/AssetERC20.sol:AssetERC20","label":"_positions","offset":0,"slot":"1","type":"t_mapping(t_bytes32,t_uint256)"}]},"t_uint256":{"encoding":"inplace","label":"uint256","numberOfBytes":"32"}}},"id":81}