{"abi":[{"type":"constructor","inputs":[{"name":"admin","type":"address","internalType":"address"},{"name":"stablecoin","type":"address","internalType":"address"},{"name":"leaseFactory_","type":"address","internalType":"address"}],"stateMutability":"nonpayable"},{"type":"function","name":"ADMIN_ROLE","inputs":[],"outputs":[{"name":"","type":"bytes32","internalType":"bytes32"}],"stateMutability":"view"},{"type":"function","name":"DEFAULT_ADMIN_ROLE","inputs":[],"outputs":[{"name":"","type":"bytes32","internalType":"bytes32"}],"stateMutability":"view"},{"type":"function","name":"LEASE_FACTORY","inputs":[],"outputs":[{"name":"","type":"address","internalType":"contract LeaseFactory"}],"stateMutability":"view"},{"type":"function","name":"STABLE","inputs":[],"outputs":[{"name":"","type":"address","internalType":"contract IERC20"}],"stateMutability":"view"},{"type":"function","name":"acceptLeaseBid","inputs":[{"name":"offerId","type":"uint256","internalType":"uint256"},{"name":"bidIndex","type":"uint256","internalType":"uint256"},{"name":"sigLessor","type":"bytes","internalType":"bytes"}],"outputs":[{"name":"leaseTokenId","type":"uint256","internalType":"uint256"}],"stateMutability":"nonpayable"},{"type":"function","name":"acceptSaleBid","inputs":[{"name":"saleId","type":"uint256","internalType":"uint256"},{"name":"bidIndex","type":"uint256","internalType":"uint256"}],"outputs":[],"stateMutability":"nonpayable"},{"type":"function","name":"claimRevenue","inputs":[],"outputs":[],"stateMutability":"nonpayable"},{"type":"function","name":"claims","inputs":[{"name":"","type":"address","internalType":"address"}],"outputs":[{"name":"","type":"uint256","internalType":"uint256"}],"stateMutability":"view"},{"type":"function","name":"getRoleAdmin","inputs":[{"name":"role","type":"bytes32","internalType":"bytes32"}],"outputs":[{"name":"","type":"bytes32","internalType":"bytes32"}],"stateMutability":"view"},{"type":"function","name":"grantRole","inputs":[{"name":"role","type":"bytes32","internalType":"bytes32"},{"name":"account","type":"address","internalType":"address"}],"outputs":[],"stateMutability":"nonpayable"},{"type":"function","name":"hasRole","inputs":[{"name":"role","type":"bytes32","internalType":"bytes32"},{"name":"account","type":"address","internalType":"address"}],"outputs":[{"name":"","type":"bool","internalType":"bool"}],"stateMutability":"view"},{"type":"function","name":"leaseBids","inputs":[{"name":"","type":"uint256","internalType":"uint256"},{"name":"","type":"uint256","internalType":"uint256"}],"outputs":[{"name":"bidder","type":"address","internalType":"address"},{"name":"sigLessee","type":"bytes","internalType":"bytes"},{"name":"funds","type":"uint256","internalType":"uint256"},{"name":"active","type":"bool","internalType":"bool"}],"stateMutability":"view"},{"type":"function","name":"leaseOffers","inputs":[{"name":"","type":"uint256","internalType":"uint256"}],"outputs":[{"name":"lessor","type":"address","internalType":"address"},{"name":"terms","type":"tuple","internalType":"struct LeaseFactory.LeaseIntent","components":[{"name":"deadline","type":"uint64","internalType":"uint64"},{"name":"assetTypeSchemaHash","type":"bytes32","internalType":"bytes32"},{"name":"lease","type":"tuple","internalType":"struct LeaseFactory.Lease","components":[{"name":"lessor","type":"address","internalType":"address"},{"name":"lessee","type":"address","internalType":"address"},{"name":"assetId","type":"uint256","internalType":"uint256"},{"name":"paymentToken","type":"address","internalType":"address"},{"name":"rentAmount","type":"uint256","internalType":"uint256"},{"name":"rentPeriod","type":"uint256","internalType":"uint256"},{"name":"securityDeposit","type":"uint256","internalType":"uint256"},{"name":"startTime","type":"uint64","internalType":"uint64"},{"name":"endTime","type":"uint64","internalType":"uint64"},{"name":"legalDocHash","type":"bytes32","internalType":"bytes32"},{"name":"termsVersion","type":"uint16","internalType":"uint16"},{"name":"metadata","type":"tuple[]","internalType":"struct MetadataStorage.Metadata[]","components":[{"name":"key","type":"string","internalType":"string"},{"name":"value","type":"string","internalType":"string"}]}]}]},{"name":"active","type":"bool","internalType":"bool"}],"stateMutability":"view"},{"type":"function","name":"nextLeaseOfferId","inputs":[],"outputs":[{"name":"","type":"uint256","internalType":"uint256"}],"stateMutability":"view"},{"type":"function","name":"nextSaleId","inputs":[],"outputs":[{"name":"","type":"uint256","internalType":"uint256"}],"stateMutability":"view"},{"type":"function","name":"placeLeaseBid","inputs":[{"name":"offerId","type":"uint256","internalType":"uint256"},{"name":"sigLessee","type":"bytes","internalType":"bytes"},{"name":"funds","type":"uint256","internalType":"uint256"}],"outputs":[{"name":"bidIndex","type":"uint256","internalType":"uint256"}],"stateMutability":"nonpayable"},{"type":"function","name":"placeSaleBid","inputs":[{"name":"saleId","type":"uint256","internalType":"uint256"},{"name":"amount","type":"uint256","internalType":"uint256"},{"name":"pricePerUnit","type":"uint256","internalType":"uint256"}],"outputs":[{"name":"bidIndex","type":"uint256","internalType":"uint256"}],"stateMutability":"nonpayable"},{"type":"function","name":"postLeaseOffer","inputs":[{"name":"L","type":"tuple","internalType":"struct LeaseFactory.LeaseIntent","components":[{"name":"deadline","type":"uint64","internalType":"uint64"},{"name":"assetTypeSchemaHash","type":"bytes32","internalType":"bytes32"},{"name":"lease","type":"tuple","internalType":"struct LeaseFactory.Lease","components":[{"name":"lessor","type":"address","internalType":"address"},{"name":"lessee","type":"address","internalType":"address"},{"name":"assetId","type":"uint256","internalType":"uint256"},{"name":"paymentToken","type":"address","internalType":"address"},{"name":"rentAmount","type":"uint256","internalType":"uint256"},{"name":"rentPeriod","type":"uint256","internalType":"uint256"},{"name":"securityDeposit","type":"uint256","internalType":"uint256"},{"name":"startTime","type":"uint64","internalType":"uint64"},{"name":"endTime","type":"uint64","internalType":"uint64"},{"name":"legalDocHash","type":"bytes32","internalType":"bytes32"},{"name":"termsVersion","type":"uint16","internalType":"uint16"},{"name":"metadata","type":"tuple[]","internalType":"struct MetadataStorage.Metadata[]","components":[{"name":"key","type":"string","internalType":"string"},{"name":"value","type":"string","internalType":"string"}]}]}]}],"outputs":[{"name":"offerId","type":"uint256","internalType":"uint256"}],"stateMutability":"nonpayable"},{"type":"function","name":"postSale","inputs":[{"name":"assetToken","type":"address","internalType":"address"},{"name":"amount","type":"uint256","internalType":"uint256"},{"name":"askPricePerUnit","type":"uint256","internalType":"uint256"}],"outputs":[{"name":"saleId","type":"uint256","internalType":"uint256"}],"stateMutability":"nonpayable"},{"type":"function","name":"renounceRole","inputs":[{"name":"role","type":"bytes32","internalType":"bytes32"},{"name":"callerConfirmation","type":"address","internalType":"address"}],"outputs":[],"stateMutability":"nonpayable"},{"type":"function","name":"revokeRole","inputs":[{"name":"role","type":"bytes32","internalType":"bytes32"},{"name":"account","type":"address","internalType":"address"}],"outputs":[],"stateMutability":"nonpayable"},{"type":"function","name":"saleBids","inputs":[{"name":"","type":"uint256","internalType":"uint256"},{"name":"","type":"uint256","internalType":"uint256"}],"outputs":[{"name":"bidder","type":"address","internalType":"address"},{"name":"amount","type":"uint256","internalType":"uint256"},{"name":"pricePerUnit","type":"uint256","internalType":"uint256"},{"name":"funds","type":"uint256","internalType":"uint256"},{"name":"active","type":"bool","internalType":"bool"}],"stateMutability":"view"},{"type":"function","name":"sales","inputs":[{"name":"","type":"uint256","internalType":"uint256"}],"outputs":[{"name":"seller","type":"address","internalType":"address"},{"name":"assetToken","type":"address","internalType":"address"},{"name":"amount","type":"uint256","internalType":"uint256"},{"name":"askPricePerUnit","type":"uint256","internalType":"uint256"},{"name":"active","type":"bool","internalType":"bool"}],"stateMutability":"view"},{"type":"function","name":"supportsInterface","inputs":[{"name":"interfaceId","type":"bytes4","internalType":"bytes4"}],"outputs":[{"name":"","type":"bool","internalType":"bool"}],"stateMutability":"view"},{"type":"event","name":"LeaseAccepted","inputs":[{"name":"offerId","type":"uint256","indexed":true,"internalType":"uint256"},{"name":"bidIndex","type":"uint256","indexed":true,"internalType":"uint256"},{"name":"lessee","type":"address","indexed":true,"internalType":"address"},{"name":"leaseTokenId","type":"uint256","indexed":false,"internalType":"uint256"}],"anonymous":false},{"type":"event","name":"LeaseBidPlaced","inputs":[{"name":"offerId","type":"uint256","indexed":true,"internalType":"uint256"},{"name":"bidIndex","type":"uint256","indexed":true,"internalType":"uint256"},{"name":"bidder","type":"address","indexed":true,"internalType":"address"},{"name":"funds","type":"uint256","indexed":false,"internalType":"uint256"}],"anonymous":false},{"type":"event","name":"LeaseOfferPosted","inputs":[{"name":"offerId","type":"uint256","indexed":true,"internalType":"uint256"},{"name":"lessor","type":"address","indexed":true,"internalType":"address"},{"name":"assetId","type":"uint256","indexed":false,"internalType":"uint256"}],"anonymous":false},{"type":"event","name":"RevenueClaimed","inputs":[{"name":"account","type":"address","indexed":true,"internalType":"address"},{"name":"share","type":"uint256","indexed":false,"internalType":"uint256"}],"anonymous":false},{"type":"event","name":"RoleAdminChanged","inputs":[{"name":"role","type":"bytes32","indexed":true,"internalType":"bytes32"},{"name":"previousAdminRole","type":"bytes32","indexed":true,"internalType":"bytes32"},{"name":"newAdminRole","type":"bytes32","indexed":true,"internalType":"bytes32"}],"anonymous":false},{"type":"event","name":"RoleGranted","inputs":[{"name":"role","type":"bytes32","indexed":true,"internalType":"bytes32"},{"name":"account","type":"address","indexed":true,"internalType":"address"},{"name":"sender","type":"address","indexed":true,"internalType":"address"}],"anonymous":false},{"type":"event","name":"RoleRevoked","inputs":[{"name":"role","type":"bytes32","indexed":true,"internalType":"bytes32"},{"name":"account","type":"address","indexed":true,"internalType":"address"},{"name":"sender","type":"address","indexed":true,"internalType":"address"}],"anonymous":false},{"type":"event","name":"SaleBidAccepted","inputs":[{"name":"saleId","type":"uint256","indexed":true,"internalType":"uint256"},{"name":"bidIndex","type":"uint256","indexed":true,"internalType":"uint256"},{"name":"bidder","type":"address","indexed":false,"internalType":"address"}],"anonymous":false},{"type":"event","name":"SaleBidPlaced","inputs":[{"name":"saleId","type":"uint256","indexed":true,"internalType":"uint256"},{"name":"bidIndex","type":"uint256","indexed":true,"internalType":"uint256"},{"name":"bidder","type":"address","indexed":true,"internalType":"address"},{"name":"amount","type":"uint256","indexed":false,"internalType":"uint256"},{"name":"pricePerUnit","type":"uint256","indexed":false,"internalType":"uint256"},{"name":"funds","type":"uint256","indexed":false,"internalType":"uint256"}],"anonymous":false},{"type":"event","name":"SaleBidRefunded","inputs":[{"name":"saleId","type":"uint256","indexed":true,"internalType":"uint256"},{"name":"bidIndex","type":"uint256","indexed":true,"internalType":"uint256"},{"name":"bidder","type":"address","indexed":false,"internalType":"address"},{"name":"amount","type":"uint256","indexed":false,"internalType":"uint256"}],"anonymous":false},{"type":"event","name":"SalePosted","inputs":[{"name":"saleId","type":"uint256","indexed":true,"internalType":"uint256"},{"name":"seller","type":"address","indexed":true,"internalType":"address"},{"name":"assetToken","type":"address","indexed":false,"internalType":"address"},{"name":"amount","type":"uint256","indexed":false,"internalType":"uint256"},{"name":"askPricePerUnit","type":"uint256","indexed":false,"internalType":"uint256"}],"anonymous":false},{"type":"error","name":"AccessControlBadConfirmation","inputs":[]},{"type":"error","name":"AccessControlUnauthorizedAccount","inputs":[{"name":"account","type":"address","internalType":"address"},{"name":"neededRole","type":"bytes32","internalType":"bytes32"}]}],"bytecode":{"object":"0x60c0346100f057601f612c4038819003918201601f19168301916001600160401b038311848410176100f4578084926060946040528339810103126100f0578061004b61008f92610108565b90610064604061005d60208401610108565b9201610108565b600160028190556005556001600160a01b039182166080521660a0526100898161011c565b50610188565b506040516129d9908161022782396080518181816101c5015281816109c201528181610daf01528181611355015281816117520152818161184901528181611bb20152611d06015260a0518181816108c20152818161115e01526111b50152f35b5f80fd5b634e487b7160e01b5f52604160045260245ffd5b51906001600160a01b03821682036100f057565b6001600160a01b03165f8181525f80516020612c20833981519152602052604090205460ff16610183575f8181525f80516020612c2083398151915260205260408120805460ff191660011790553391905f80516020612c008339815191528180a4600190565b505f90565b6001600160a01b03165f8181527f7d7ffb7a348e1c6a02869081a26547b49160dd3df72d1d75a570eb9b698292ec60205260409020547fa49807205ce4d355092ef5a8a18f56e8913cf4a201fbe287825b095693c21775919060ff1661022057815f525f60205260405f20815f5260205260405f20600160ff1982541617905533915f80516020612c008339815191525f80a4600190565b50505f9056fe6080806040526004361015610012575f80fd5b5f3560e01c90816301ffc9a71461203d575080630c6080ab14611f055780630d7d355714611aaf57806322fcf27914611a3e578063248a9ca314611a125780632b9efae0146118fb5780632f2ff15d146118bf57806336568abe1461187857806354d9f65314611834578063564f4f76146116ef5780635d21cf8214611046578063719b5c7014610d1e57806375b238fc14610ce457806391d1485414610c9c578063a217fddf14610c82578063b5f522f714610c1d578063c1dbdb3014610bb5578063c6788bdd14610b7d578063ce3762c91461092f578063d547741f146108f1578063dbbc3c96146108ad578063deb077b914610890578063e2beb69d146101455763e6b1c49814610124575f80fd5b34610141575f366003190112610141576020600554604051908152f35b5f80fd5b346101415760031960203682011261014157600435906001600160401b038211610141576060818336030112610141576101a061019061018b60448501856004016127d2565b6127e8565b6001600160a01b03163314612681565b6101bb60606101b560448501856004016127d2565b016127e8565b6001600160a01b037f0000000000000000000000000000000000000000000000000000000000000000811691160361085657604051906101fa8261217f565b3382526040519061020a8261217f565b610216846004016127fc565b82526024840135602083015260448401356001600160401b0381116101415761018090850191823603011261014157604051906102528261219a565b61025e600482016120bc565b825261026c602482016120bc565b602083015260448101356040830152610287606482016120bc565b60608301526084810135608083015260a481013560a083015260c481013560c08301526102b660e482016127fc565b60e08301526102c861010482016127fc565b61010083015261012481013561012083015261014481013561ffff81168103610141576101408301526101648101356001600160401b03811161014157366023828401011215610141576004818301013561032281612243565b9261033060405194856121d1565b818452602084013660248460051b86850101011161014157602484830101905b60248460051b868501010182106107b657505050505061016082015260408201526020820152600160408201526005549061038a82612570565b600555815f52600660205260405f209061016060018060a01b038251166001600160601b0360a01b908185541617845560018401906020840151916001600160401b038351166001600160401b0319825416179055602082015160028601556040600386019201519160018060a01b03835116828254161790556004850160018060a01b036020840151168282541617905560408201516005860155600685019060018060a01b03606084015116908254161790556080810151600785015560a0810151600885015560c08101516009850155600a84016001600160401b0360e0830151168154906fffffffffffffffff000000000000000061010085015160401b16916fffffffffffffffffffffffffffffffff191617179055610120810151600b850155600c840161ffff6101408301511661ffff198254161790550151805190600160401b82116106bf57600d84015482600d860155808310610747575b5060200190600d84015f5260205f20915f905b82821061057057602087604061053a8b61052d8b600e858d0151151591019060ff801983541691151516179055565b60448101906004016127d2565b0135604051908152817f73e4f54226f6dc012a4333c92764b921aa8a749e289a8d0b562eb87ed96edf50843393a3604051908152f35b805180518051906001600160401b0382116106bf5761059982610593895461212c565b8961278d565b602090601f83116001146106de5791806105cc92602095945f926106d3575b50508160011b915f199060031b1c19161790565b86555b01518051906001600160401b0382116106bf576105fc826105f3600189015461212c565b6001890161278d565b602090601f831160011461064e5792610632836002946020946001975f926106435750508160011b915f199060031b1c19161790565b848801555b019401910190926104fe565b015190508e806105b8565b90600187015f5260205f20915f5b601f19851681106106a7575083602093600196938793600297601f1981161061068f575b505050811b0184880155610637565b01515f1960f88460031b161c191690558d8080610680565b9192602060018192868501518155019401920161065c565b634e487b7160e01b5f52604160045260245ffd5b015190508d806105b8565b90875f5260205f20915f5b601f198516811061072f575091839160019360209695601f19811610610717575b505050811b0186556105cf565b01515f1960f88460031b161c191690558c808061070a565b919260206001819286850151815501940192016106e9565b6001600160ff1b0381811682036107a257831683036107a257600d85015f5260205f208360011b81015b8260011b820181106107845750506104eb565b8061079060029261282e565b61079c6001820161282e565b01610771565b634e487b7160e01b5f52601160045260245ffd5b8135906001600160401b03821161014157604084870183013603602319011261014157604051916107e6836121b6565b6024818887010101356001600160401b038111610141576108119060243691848b8a01010101612810565b8352604481888701010135916001600160401b038311610141576024936108456020949386869536928d8c01010101612810565b838201528152019201919050610350565b60405162461bcd60e51b81526020600482015260126024820152716d7573742070617920696e20535441424c4560701b6044820152606490fd5b34610141575f366003190112610141576020600254604051908152f35b34610141575f366003190112610141576040517f00000000000000000000000000000000000000000000000000000000000000006001600160a01b03168152602090f35b346101415760403660031901126101415761092d6004356109106120a6565b90805f525f602052610928600160405f200154612876565b612931565b005b34610141576060366003190112610141576004356024359060443591815f526020926003845260405f2061096960ff60048301541661257e565b8215159081610b6e575b5015610b3c57670de0b6b3a764000061098c82846126e2565b6040516323b872dd60e01b81523360048201523060248201529190046044820181905293906001600160a01b039086816064815f7f000000000000000000000000000000000000000000000000000000000000000087165af18015610b31576109fc915f91610b04575b506126f5565b604051610a0881612164565b338152868101908582526040810185815260608201888152608083019160018352865f5260048b5260405f208054600160401b8110156106bf57610a51916001820181556120e6565b959095610af157610a9a9660049551166001600160601b0360a01b87541617865551600186015551600285015551600384015551151591019060ff801983541691151516179055565b805f526004855260405f2054935f1985019485116107a25784926040519485528685015260408401527f3cff5bd25a3051a9858f0497bfcc9aa76130b249c02ebc52db96bdca47c3f04960603394a4604051908152f35b634e487b7160e01b5f525f60045260245ffd5b610b249150883d8a11610b2a575b610b1c81836121d1565b8101906125f3565b886109f6565b503d610b12565b6040513d5f823e3d90fd5b60405162461bcd60e51b815260048101859052600a60248201526918985908185b5bdd5b9d60b21b6044820152606490fd5b60029150015482111585610973565b34610141576020366003190112610141576001600160a01b03610b9e612090565b165f526001602052602060405f2054604051908152f35b34610141576020366003190112610141576004355f90815260066020526040902080546001600160a01b031660ff600e610bf1600185016122eb565b93015416610c116040519384938452606060208501526060840190612436565b90151560408301520390f35b34610141576020366003190112610141576004355f52600360205260a060405f20600180831b0390818154169160018201541690600281015460ff60046003840154930154169260405194855260208501526040840152606083015215156080820152f35b34610141575f3660031901126101415760206040515f8152f35b3461014157604036600319011261014157610cb56120a6565b6004355f525f60205260405f209060018060a01b03165f52602052602060ff60405f2054166040519015158152f35b34610141575f3660031901126101415760206040517fa49807205ce4d355092ef5a8a18f56e8913cf4a201fbe287825b095693c217758152f35b34610141576060366003190112610141576001600160401b036024600435813583811161014157610d53903690600401612216565b60449291923592825f5260209560068752610d7760ff600e60405f20015416612645565b8415611018576040516323b872dd60e01b8152336004820152306024820152604481018690526001600160a01b03929088816064815f7f000000000000000000000000000000000000000000000000000000000000000089165af18015610b3157610de8915f91610ffb57506126f5565b604051936080850185811084821117610fe857604052338552610e0d91369190612732565b87840190815260408401918683526060850193600190818652875f5260078b5260405f20805490600160401b821015610fd55790610e4f918482018155612113565b979097610fc35751166001600160601b0360a01b87541617865580860192518051928311610fb057610e8b83610e85865461212c565b8661278d565b8a91601f8411600114610f4357508260039593610ee298979593610ec3935f926106d35750508160011b915f199060031b1c19161790565b90555b51600284015551151591019060ff801983541691151516179055565b805f526007845260405f2054925f198401938411610f30575082906040519283527f4d926c7447ed310dcc37cf2962fd0aa7527c47ee21c87f50aa6f9b2005da3822853394a4604051908152f35b634e487b7160e01b5f9081526011600452fd5b9291601f19831691855f528c5f20928d5f905b828210610f995750509160039795939185610ee29b9a98969410610f82575b505050811b019055610ec6565b01515f1983891b60f8161c191690558c8080610f75565b808886978294978701518155019601940190610f56565b89634e487b7160e01b5f5260416004525ffd5b8a634e487b7160e01b5f525f6004525ffd5b8b634e487b7160e01b5f5260416004525ffd5b88634e487b7160e01b5f5260416004525ffd5b61101291508a3d8c11610b2a57610b1c81836121d1565b8a6109f6565b60405162461bcd60e51b81526004810188905260078188015266066756e64733d360cc1b6044820152606490fd5b34610141576060366003190112610141576044356001600160401b038111610141576110786020913690600401612216565b6004929192355f526006825260405f209061109960ff600e84015416612645565b6110ad60018060a01b038354163314612681565b6004355f5260078352826110c660243560405f20612113565b50946110d860ff6003880154166125b9565b6110e4600185016122eb565b9260018060a01b0387541683604086015101526111596040519687938493639af66ccd60e01b85526060600486015280611121606487018a612436565b86810360031901602488015281815292848401375f828201840152601f01601f191601838103601c016044850152016001890161225a565b03815f7f00000000000000000000000000000000000000000000000000000000000000006001600160a01b03165af1928315610b31575f936116ba575b5060409081015181015190516306433b1b60e01b8152906020826004817f00000000000000000000000000000000000000000000000000000000000000006001600160a01b03165afa918215610b31575f92611675575b50604051631d591eb760e31b8152600481019190915290606090829060249082906001600160a01b03165afa8015610b31575f90611614575b60400180519091506001600160a01b0316156115df5760018060a01b039051169060ff196003850154166003850155600e60ff19818301541691015560018060a01b03835416604051838152602435907f3e44f8a8cda28678d6b201fe31fa4fd406ec9fde581d80d7439edd23b85d9596602060043592a46004355f52600760205260405f20925f5b84548110156113c85760243581146113c05760ff60036112cf8388612113565b500154166112e2575b6001905b016112af565b8060036112f26113509388612113565b5001805460ff1916905560206113088288612113565b50546001600160a01b0316600261131f848a612113565b50015460405163a9059cbb60e01b81526001600160a01b039092166004830152602482015292839081906044820190565b03815f7f00000000000000000000000000000000000000000000000000000000000000006001600160a01b03165af1918215610b315760019261139a915f916113a1575b5061260b565b90506112d8565b6113ba915060203d602011610b2a57610b1c81836121d1565b88611394565b6001906112dc565b506040516317fa39f360e21b8152835f82600481875afa8015610b31575f925f916114cf575b506020600495604051968780926318160ddd60e01b82525afa948515610b31575f9561149b575b509092600201905f5b83518110156114905761143d61143482846126ce565b518454906126e2565b90861561147c576001600160a01b0361145682876126ce565b51165f52600160205260405f2091878354910481018091116107a257600192550161141e565b634e487b7160e01b5f52601260045260245ffd5b602085604051908152f35b9094506020813d6020116114c7575b816114b7602093836121d1565b8101031261014157519385611415565b3d91506114aa565b9250503d805f843e6114e181846121d1565b8201936040838603126101415782516001600160401b0381116101415783019285601f850112156101415783519361151885612243565b9461152660405196876121d1565b80865260208087019160051b8301019188831161014157602001905b8282106115c7575050506020810151906001600160401b03821161014157019285601f850112156101415783519561157987612243565b9461158760405196876121d1565b87865260208087019860051b82010191821161014157602001965b8188106115b7575091955092905060206113ee565b87518152602097880197016115a2565b602080916115d4846126ba565b815201910190611542565b60405162461bcd60e51b815260206004820152600d60248201526c6173736574202165786973747360981b6044820152606490fd5b506060813d60601161166d575b8161162e606093836121d1565b8101031261014157604090611664828051926116498461217f565b80518452611659602082016126ba565b6020850152016126ba565b82820152611226565b3d9150611621565b9091506020813d6020116116b2575b81611691602093836121d1565b8101031261014157516001600160a01b0381168103610141579060606111ed565b3d9150611684565b9092506020813d6020116116e7575b816116d6602093836121d1565b810103126101415751916040611196565b3d91506116c9565b34610141575f36600319011261014157335f5260206001815260405f205490811561180457335f8181526001835260408082208290555163a9059cbb60e01b81526004810192909252602482018490528290829060449082906001600160a01b037f0000000000000000000000000000000000000000000000000000000000000000165af1908115610b31575f916117e7575b50156117b5577fc15f451120b13b6b40c6ad6203614ab3088308bef9150c0d6f46ea79bf464224906040519283523392a2005b6064906040519062461bcd60e51b82526004820152600b60248201526a1c185e5bdd5d0819985a5b60aa1b6044820152fd5b6117fe9150823d8411610b2a57610b1c81836121d1565b83611782565b6064906040519062461bcd60e51b8252600482015260096024820152686e6f20636c61696d7360b81b6044820152fd5b34610141575f366003190112610141576040517f00000000000000000000000000000000000000000000000000000000000000006001600160a01b03168152602090f35b34610141576040366003190112610141576118916120a6565b336001600160a01b038216036118ad5761092d90600435612931565b60405163334bd91960e11b8152600490fd5b346101415760403660031901126101415761092d6004356118de6120a6565b90805f525f6020526118f6600160405f200154612876565b6128b5565b3461014157611909366120d0565b905f526020906007825260405f209081548110156101415761192a91612113565b5060018060a01b0381541690600183600183016040519283915f918154916119518361212c565b80865292600181169081156119ef57506001146119b1575b505050611978925003826121d1565b6119a060ff6003600285015494015416916080604051968796875286015260808501906121f2565b916040840152151560608301520390f35b5f90815285812095935091905b8183106119d75750889450508201016119788880611969565b855487840185015294850194869450918301916119be565b9250505061197894925060ff191682840152151560051b82010186928880611969565b34610141576020366003190112610141576004355f525f6020526020600160405f200154604051908152f35b3461014157611a4c366120d0565b905f52600460205260405f2080548210156101415760a091611a6d916120e6565b50600180831b0381541690600181015490600281015460ff60046003840154930154169260405194855260208501526040840152606083015215156080820152f35b3461014157611abd366120d0565b815f52600360205260405f20611ad960ff60048301541661257e565b80546001600160a01b03169033829003611ed357835f526004602052611b028360405f206120e6565b5091611b1460ff6004850154166125b9565b60018301549060028301548211611e9857600183015484546040516323b872dd60e01b81526001600160a01b03938416600482015290831660248201526044810193909352602091839160649183915f91165af1908115610b31575f91611e79575b5015611e3e578054600383015460405163a9059cbb60e01b81526001600160a01b0390921660048301526024820152602081806044810103815f7f00000000000000000000000000000000000000000000000000000000000000006001600160a01b03165af1908115610b31575f91611e1f575b5015611de85760048201805460ff191690556001820154600282015481810381106107a2578493869383837ff4e5f9f5efae8550551db9ef3a16a522ecc6df6dd3ed0fbcc51fdccd9028739e9560209503600284015514611dd7575b50546040516001600160a01b039091168152a3815f52600460205260405f205f5b815481101561092d57828114611dcf5760ff6004611c8583856120e6565b50015416611c98575b6001905b01611c67565b806003611ca8611d0193856120e6565b5001546004611cb783866120e6565b5001805460ff19169055602081611cce84876120e6565b505460405163a9059cbb60e01b81526001600160a01b039091166004820152602481019190915293849081906044820190565b03815f7f00000000000000000000000000000000000000000000000000000000000000006001600160a01b03165af1928315610b31577f108e241fa2e599bc4e4938b2ff76a3a88173b257084902656d2ff9abeba9965b8392611d6e6001968a945f91611db0575061260b565b611d7884886120e6565b50868060a01b03905416611da66040519283928360209093929193604081019460018060a01b031681520152565b0390a39050611c8e565b611dc9915060203d602011610b2a57610b1c81836121d1565b8b611394565b600190611c92565b600401805460ff1916905587611c46565b60405162461bcd60e51b815260206004820152600f60248201526e1c185e481cd95b1b195c8819985a5b608a1b6044820152606490fd5b611e38915060203d602011610b2a57610b1c81836121d1565b85611bea565b60405162461bcd60e51b8152602060048201526013602482015272185cdcd95d081d1c985b9cd9995c8819985a5b606a1b6044820152606490fd5b611e92915060203d602011610b2a57610b1c81836121d1565b85611b76565b60405162461bcd60e51b8152602060048201526013602482015272195e18d959591cc81cd85b1948185b5bdd5b9d606a1b6044820152606490fd5b60405162461bcd60e51b815260206004820152600a6024820152693737ba1039b2b63632b960b11b6044820152606490fd5b3461014157606036600319011261014157611f1e612090565b60243560443591811561200d5760209260025492611f3b84612570565b600255611fcf604051611f4d81612164565b33815260048782019560018060a01b03809116968781526040840186815260608501918883526080860193600185528b5f5260038d528060405f20975116906001600160601b0360a01b9182895416178855600188019251169082541617905551600285015551600384015551151591019060ff801983541691151516179055565b604051928352848301526040820152817f520c2a9f34931d151a720ce9093d6b0e201a6680758bedb704b0b0282a35957260603393a3604051908152f35b60405162461bcd60e51b81526020600482015260086024820152670616d6f756e743d360c41b6044820152606490fd5b34610141576020366003190112610141576004359063ffffffff60e01b821680920361014157602091637965db0b60e01b811490811561207f575b5015158152f35b6301ffc9a760e01b14905083612078565b600435906001600160a01b038216820361014157565b602435906001600160a01b038216820361014157565b35906001600160a01b038216820361014157565b6040906003190112610141576004359060243590565b80548210156120ff575f52600560205f20910201905f90565b634e487b7160e01b5f52603260045260245ffd5b80548210156120ff575f5260205f209060021b01905f90565b90600182811c9216801561215a575b602083101461214657565b634e487b7160e01b5f52602260045260245ffd5b91607f169161213b565b60a081019081106001600160401b038211176106bf57604052565b606081019081106001600160401b038211176106bf57604052565b61018081019081106001600160401b038211176106bf57604052565b604081019081106001600160401b038211176106bf57604052565b90601f801991011681019081106001600160401b038211176106bf57604052565b805180835260209291819084018484015e5f828201840152601f01601f1916010190565b9181601f84011215610141578235916001600160401b038311610141576020838186019501011161014157565b6001600160401b0381116106bf5760051b60200190565b80545f93926122688261212c565b918282526020936001916001811690815f146122cc575060011461228e575b5050505050565b90939495505f92919252835f2092845f945b8386106122b857505050500101905f80808080612287565b8054858701830152940193859082016122a0565b60ff19168685015250505090151560051b010191505f80808080612287565b906040918251926122fb8461217f565b836001600160401b03928381541682526001808201549160209283850152600c60029186519761232a8961219a565b60028201546001600160a01b039081168a5260038301548116878b01526004830154898b015260058301541660608a0152600682015460808a0152600782015460a08a0152600882015460c08a0152600982015481811660e08b0152881c16610100890152600a810154610120890152600b81015461ffff1661014089015201805491906123b783612243565b946123c4885196876121d1565b8386525f9182528082208187015b8584106123ea57505050505050506101608401520152565b848388928c516123f9816121b6565b8d5161241081612409818a61225a565b03826121d1565b81528d516124248161240981898b0161225a565b838201528152019201930192906123d2565b6001600160401b038082511683526020808301518185015260408093015193606060408201526101e081019260018060a01b038087511660608401528084880151166080840152604087015160a084015260608701511660c0830152608086015160e083015260a086015195610100968784015261ffff60c0820151610120908186015260e083015198846101409a168a87015283015193610160941684860152820151976101809889860152820151166101a08401520151946101c0820152845180935261020082818301918560051b8401019601945f925b858410612521575050505050505090565b90919293949596858061255f6001936101ff198682030188528b51908361254f83518a84528a8401906121f2565b92015190848184039101526121f2565b990194019401929594939190612510565b5f1981146107a25760010190565b1561258557565b60405162461bcd60e51b815260206004820152600c60248201526b73616c65202161637469766560a01b6044820152606490fd5b156125c057565b60405162461bcd60e51b815260206004820152600b60248201526a626964202161637469766560a81b6044820152606490fd5b90816020910312610141575180151581036101415790565b1561261257565b60405162461bcd60e51b815260206004820152600b60248201526a1c99599d5b990819985a5b60aa1b6044820152606490fd5b1561264c57565b60405162461bcd60e51b815260206004820152600d60248201526c6f66666572202161637469766560981b6044820152606490fd5b1561268857565b60405162461bcd60e51b815260206004820152600a6024820152693737ba103632b9b9b7b960b11b6044820152606490fd5b51906001600160a01b038216820361014157565b80518210156120ff5760209160051b010190565b818102929181159184041417156107a257565b156126fc57565b60405162461bcd60e51b815260206004820152600e60248201526d199d5b99081e19995c8819985a5b60921b6044820152606490fd5b9291926001600160401b0382116106bf576040519161275b601f8201601f1916602001846121d1565b829481845281830111610141578281602093845f960137010152565b818110612782575050565b5f8155600101612777565b9190601f811161279c57505050565b6127c6925f5260205f20906020601f840160051c830193106127c8575b601f0160051c0190612777565b565b90915081906127b9565b90359061017e1981360301821215610141570190565b356001600160a01b03811681036101415790565b35906001600160401b038216820361014157565b9080601f830112156101415781602061282b93359101612732565b90565b612838815461212c565b9081612842575050565b81601f5f9311600114612853575055565b908083918252612872601f60208420940160051c840160018501612777565b5555565b805f525f60205260405f20335f5260205260ff60405f205416156128975750565b6044906040519063e2517d3f60e01b82523360048301526024820152fd5b90815f525f60205260405f209060018060a01b031690815f5260205260ff60405f205416155f1461292b57815f525f60205260405f20815f5260205260405f20600160ff1982541617905533917f2f8788117e7eff1d82e926ec794901d17c78024a50270940304540a733656f0d5f80a4600190565b50505f90565b90815f525f60205260405f209060018060a01b031690815f5260205260ff60405f2054165f1461292b57815f525f60205260405f20815f5260205260405f2060ff19815416905533917ff6391f5c32d9c69d2a47ea670b442974b53935d1edc7fd64eb21e047a839171b5f80a460019056fea26469706673582212209935863fe5daa56903f9c6504cc28446e87dc3b24aefd1234e74094bb6963f4864736f6c634300081900332f8788117e7eff1d82e926ec794901d17c78024a50270940304540a733656f0dad3228b676f7d3cd4284a5443f17f1962b36e491b30a40b2405849e597ba5fb5","linkReferences":{}},"methodIdentifiers":{"ADMIN_ROLE()":"75b238fc","DEFAULT_ADMIN_ROLE()":"a217fddf","LEASE_FACTORY()":"dbbc3c96","STABLE()":"54d9f653","acceptLeaseBid(uint256,uint256,bytes)":"5d21cf82","acceptSaleBid(uint256,uint256)":"0d7d3557","claimRevenue()":"564f4f76","claims(address)":"c6788bdd","getRoleAdmin(bytes32)":"248a9ca3","grantRole(bytes32,address)":"2f2ff15d","hasRole(bytes32,address)":"91d14854","leaseBids(uint256,uint256)":"2b9efae0","leaseOffers(uint256)":"c1dbdb30","nextLeaseOfferId()":"e6b1c498","nextSaleId()":"deb077b9","placeLeaseBid(uint256,bytes,uint256)":"719b5c70","placeSaleBid(uint256,uint256,uint256)":"ce3762c9","postLeaseOffer((uint64,bytes32,(address,address,uint256,address,uint256,uint256,uint256,uint64,uint64,bytes32,uint16,(string,string)[])))":"e2beb69d","postSale(address,uint256,uint256)":"0c6080ab","renounceRole(bytes32,address)":"36568abe","revokeRole(bytes32,address)":"d547741f","saleBids(uint256,uint256)":"22fcf279","sales(uint256)":"b5f522f7","supportsInterface(bytes4)":"01ffc9a7"},"id":52}