{"abi":[{"type":"constructor","inputs":[{"name":"admin","type":"address","internalType":"address"},{"name":"stablecoin","type":"address","internalType":"address"},{"name":"leaseFactory_","type":"address","internalType":"address"}],"stateMutability":"nonpayable"},{"type":"function","name":"ADMIN_ROLE","inputs":[],"outputs":[{"name":"","type":"bytes32","internalType":"bytes32"}],"stateMutability":"view"},{"type":"function","name":"DEFAULT_ADMIN_ROLE","inputs":[],"outputs":[{"name":"","type":"bytes32","internalType":"bytes32"}],"stateMutability":"view"},{"type":"function","name":"acceptLeaseBid","inputs":[{"name":"offerId","type":"uint256","internalType":"uint256"},{"name":"bidIndex","type":"uint256","internalType":"uint256"},{"name":"sigLessor","type":"bytes","internalType":"bytes"},{"name":"tokenURI","type":"string","internalType":"string"}],"outputs":[{"name":"leaseTokenId","type":"uint256","internalType":"uint256"},{"name":"revenueRoundId","type":"uint256","internalType":"uint256"}],"stateMutability":"nonpayable"},{"type":"function","name":"acceptSaleBid","inputs":[{"name":"saleId","type":"uint256","internalType":"uint256"},{"name":"bidIndex","type":"uint256","internalType":"uint256"}],"outputs":[],"stateMutability":"nonpayable"},{"type":"function","name":"claimRevenue","inputs":[{"name":"roundId","type":"uint256","internalType":"uint256"}],"outputs":[],"stateMutability":"nonpayable"},{"type":"function","name":"getRevenueRound","inputs":[{"name":"roundId","type":"uint256","internalType":"uint256"}],"outputs":[{"name":"assetToken","type":"address","internalType":"address"},{"name":"snapshotId","type":"uint256","internalType":"uint256"},{"name":"totalAmount","type":"uint256","internalType":"uint256"},{"name":"exists","type":"bool","internalType":"bool"}],"stateMutability":"view"},{"type":"function","name":"getRoleAdmin","inputs":[{"name":"role","type":"bytes32","internalType":"bytes32"}],"outputs":[{"name":"","type":"bytes32","internalType":"bytes32"}],"stateMutability":"view"},{"type":"function","name":"grantRole","inputs":[{"name":"role","type":"bytes32","internalType":"bytes32"},{"name":"account","type":"address","internalType":"address"}],"outputs":[],"stateMutability":"nonpayable"},{"type":"function","name":"hasRole","inputs":[{"name":"role","type":"bytes32","internalType":"bytes32"},{"name":"account","type":"address","internalType":"address"}],"outputs":[{"name":"","type":"bool","internalType":"bool"}],"stateMutability":"view"},{"type":"function","name":"leaseBids","inputs":[{"name":"","type":"uint256","internalType":"uint256"},{"name":"","type":"uint256","internalType":"uint256"}],"outputs":[{"name":"bidder","type":"address","internalType":"address"},{"name":"sigLessee","type":"bytes","internalType":"bytes"},{"name":"funds","type":"uint256","internalType":"uint256"},{"name":"active","type":"bool","internalType":"bool"}],"stateMutability":"view"},{"type":"function","name":"leaseFactory","inputs":[],"outputs":[{"name":"","type":"address","internalType":"contract LeaseFactory"}],"stateMutability":"view"},{"type":"function","name":"leaseOffers","inputs":[{"name":"","type":"uint256","internalType":"uint256"}],"outputs":[{"name":"lessor","type":"address","internalType":"address"},{"name":"terms","type":"tuple","internalType":"struct LeaseFactory.LeaseIntent","components":[{"name":"lessor","type":"address","internalType":"address"},{"name":"lessee","type":"address","internalType":"address"},{"name":"assetId","type":"uint256","internalType":"uint256"},{"name":"paymentToken","type":"address","internalType":"address"},{"name":"rentAmount","type":"uint256","internalType":"uint256"},{"name":"rentPeriod","type":"uint256","internalType":"uint256"},{"name":"securityDeposit","type":"uint256","internalType":"uint256"},{"name":"startTime","type":"uint64","internalType":"uint64"},{"name":"endTime","type":"uint64","internalType":"uint64"},{"name":"metadataHash","type":"bytes32","internalType":"bytes32"},{"name":"legalDocHash","type":"bytes32","internalType":"bytes32"},{"name":"nonce","type":"uint256","internalType":"uint256"},{"name":"deadline","type":"uint64","internalType":"uint64"},{"name":"termsVersion","type":"uint16","internalType":"uint16"},{"name":"assetTypeSchemaHash","type":"bytes32","internalType":"bytes32"}]},{"name":"active","type":"bool","internalType":"bool"}],"stateMutability":"view"},{"type":"function","name":"nextLeaseOfferId","inputs":[],"outputs":[{"name":"","type":"uint256","internalType":"uint256"}],"stateMutability":"view"},{"type":"function","name":"nextRevenueRoundId","inputs":[],"outputs":[{"name":"","type":"uint256","internalType":"uint256"}],"stateMutability":"view"},{"type":"function","name":"nextSaleId","inputs":[],"outputs":[{"name":"","type":"uint256","internalType":"uint256"}],"stateMutability":"view"},{"type":"function","name":"placeLeaseBid","inputs":[{"name":"offerId","type":"uint256","internalType":"uint256"},{"name":"sigLessee","type":"bytes","internalType":"bytes"},{"name":"funds","type":"uint256","internalType":"uint256"}],"outputs":[{"name":"bidIndex","type":"uint256","internalType":"uint256"}],"stateMutability":"nonpayable"},{"type":"function","name":"placeSaleBid","inputs":[{"name":"saleId","type":"uint256","internalType":"uint256"},{"name":"amount","type":"uint256","internalType":"uint256"},{"name":"pricePerUnit","type":"uint256","internalType":"uint256"}],"outputs":[{"name":"bidIndex","type":"uint256","internalType":"uint256"}],"stateMutability":"nonpayable"},{"type":"function","name":"postLeaseOffer","inputs":[{"name":"L","type":"tuple","internalType":"struct LeaseFactory.LeaseIntent","components":[{"name":"lessor","type":"address","internalType":"address"},{"name":"lessee","type":"address","internalType":"address"},{"name":"assetId","type":"uint256","internalType":"uint256"},{"name":"paymentToken","type":"address","internalType":"address"},{"name":"rentAmount","type":"uint256","internalType":"uint256"},{"name":"rentPeriod","type":"uint256","internalType":"uint256"},{"name":"securityDeposit","type":"uint256","internalType":"uint256"},{"name":"startTime","type":"uint64","internalType":"uint64"},{"name":"endTime","type":"uint64","internalType":"uint64"},{"name":"metadataHash","type":"bytes32","internalType":"bytes32"},{"name":"legalDocHash","type":"bytes32","internalType":"bytes32"},{"name":"nonce","type":"uint256","internalType":"uint256"},{"name":"deadline","type":"uint64","internalType":"uint64"},{"name":"termsVersion","type":"uint16","internalType":"uint16"},{"name":"assetTypeSchemaHash","type":"bytes32","internalType":"bytes32"}]}],"outputs":[{"name":"offerId","type":"uint256","internalType":"uint256"}],"stateMutability":"nonpayable"},{"type":"function","name":"postSale","inputs":[{"name":"assetToken","type":"address","internalType":"address"},{"name":"amount","type":"uint256","internalType":"uint256"},{"name":"askPricePerUnit","type":"uint256","internalType":"uint256"}],"outputs":[{"name":"saleId","type":"uint256","internalType":"uint256"}],"stateMutability":"nonpayable"},{"type":"function","name":"renounceRole","inputs":[{"name":"role","type":"bytes32","internalType":"bytes32"},{"name":"callerConfirmation","type":"address","internalType":"address"}],"outputs":[],"stateMutability":"nonpayable"},{"type":"function","name":"revokeRole","inputs":[{"name":"role","type":"bytes32","internalType":"bytes32"},{"name":"account","type":"address","internalType":"address"}],"outputs":[],"stateMutability":"nonpayable"},{"type":"function","name":"saleBids","inputs":[{"name":"","type":"uint256","internalType":"uint256"},{"name":"","type":"uint256","internalType":"uint256"}],"outputs":[{"name":"bidder","type":"address","internalType":"address"},{"name":"amount","type":"uint256","internalType":"uint256"},{"name":"pricePerUnit","type":"uint256","internalType":"uint256"},{"name":"funds","type":"uint256","internalType":"uint256"},{"name":"active","type":"bool","internalType":"bool"}],"stateMutability":"view"},{"type":"function","name":"sales","inputs":[{"name":"","type":"uint256","internalType":"uint256"}],"outputs":[{"name":"seller","type":"address","internalType":"address"},{"name":"assetToken","type":"address","internalType":"address"},{"name":"amount","type":"uint256","internalType":"uint256"},{"name":"askPricePerUnit","type":"uint256","internalType":"uint256"},{"name":"active","type":"bool","internalType":"bool"}],"stateMutability":"view"},{"type":"function","name":"stable","inputs":[],"outputs":[{"name":"","type":"address","internalType":"contract IERC20"}],"stateMutability":"view"},{"type":"function","name":"supportsInterface","inputs":[{"name":"interfaceId","type":"bytes4","internalType":"bytes4"}],"outputs":[{"name":"","type":"bool","internalType":"bool"}],"stateMutability":"view"},{"type":"event","name":"LeaseAccepted","inputs":[{"name":"offerId","type":"uint256","indexed":true,"internalType":"uint256"},{"name":"bidIndex","type":"uint256","indexed":true,"internalType":"uint256"},{"name":"lessee","type":"address","indexed":true,"internalType":"address"},{"name":"leaseTokenId","type":"uint256","indexed":false,"internalType":"uint256"}],"anonymous":false},{"type":"event","name":"LeaseBidPlaced","inputs":[{"name":"offerId","type":"uint256","indexed":true,"internalType":"uint256"},{"name":"bidIndex","type":"uint256","indexed":true,"internalType":"uint256"},{"name":"bidder","type":"address","indexed":true,"internalType":"address"},{"name":"funds","type":"uint256","indexed":false,"internalType":"uint256"}],"anonymous":false},{"type":"event","name":"LeaseOfferPosted","inputs":[{"name":"offerId","type":"uint256","indexed":true,"internalType":"uint256"},{"name":"lessor","type":"address","indexed":true,"internalType":"address"},{"name":"assetId","type":"uint256","indexed":false,"internalType":"uint256"}],"anonymous":false},{"type":"event","name":"RevenueClaimed","inputs":[{"name":"roundId","type":"uint256","indexed":true,"internalType":"uint256"},{"name":"account","type":"address","indexed":true,"internalType":"address"},{"name":"share","type":"uint256","indexed":false,"internalType":"uint256"}],"anonymous":false},{"type":"event","name":"RevenueRoundOpened","inputs":[{"name":"roundId","type":"uint256","indexed":true,"internalType":"uint256"},{"name":"assetToken","type":"address","indexed":true,"internalType":"address"},{"name":"snapshotId","type":"uint256","indexed":false,"internalType":"uint256"},{"name":"amount","type":"uint256","indexed":false,"internalType":"uint256"}],"anonymous":false},{"type":"event","name":"RoleAdminChanged","inputs":[{"name":"role","type":"bytes32","indexed":true,"internalType":"bytes32"},{"name":"previousAdminRole","type":"bytes32","indexed":true,"internalType":"bytes32"},{"name":"newAdminRole","type":"bytes32","indexed":true,"internalType":"bytes32"}],"anonymous":false},{"type":"event","name":"RoleGranted","inputs":[{"name":"role","type":"bytes32","indexed":true,"internalType":"bytes32"},{"name":"account","type":"address","indexed":true,"internalType":"address"},{"name":"sender","type":"address","indexed":true,"internalType":"address"}],"anonymous":false},{"type":"event","name":"RoleRevoked","inputs":[{"name":"role","type":"bytes32","indexed":true,"internalType":"bytes32"},{"name":"account","type":"address","indexed":true,"internalType":"address"},{"name":"sender","type":"address","indexed":true,"internalType":"address"}],"anonymous":false},{"type":"event","name":"SaleBidAccepted","inputs":[{"name":"saleId","type":"uint256","indexed":true,"internalType":"uint256"},{"name":"bidIndex","type":"uint256","indexed":true,"internalType":"uint256"},{"name":"bidder","type":"address","indexed":false,"internalType":"address"}],"anonymous":false},{"type":"event","name":"SaleBidPlaced","inputs":[{"name":"saleId","type":"uint256","indexed":true,"internalType":"uint256"},{"name":"bidIndex","type":"uint256","indexed":true,"internalType":"uint256"},{"name":"bidder","type":"address","indexed":true,"internalType":"address"},{"name":"amount","type":"uint256","indexed":false,"internalType":"uint256"},{"name":"pricePerUnit","type":"uint256","indexed":false,"internalType":"uint256"},{"name":"funds","type":"uint256","indexed":false,"internalType":"uint256"}],"anonymous":false},{"type":"event","name":"SaleBidRefunded","inputs":[{"name":"saleId","type":"uint256","indexed":true,"internalType":"uint256"},{"name":"bidIndex","type":"uint256","indexed":true,"internalType":"uint256"},{"name":"bidder","type":"address","indexed":false,"internalType":"address"},{"name":"amount","type":"uint256","indexed":false,"internalType":"uint256"}],"anonymous":false},{"type":"event","name":"SalePosted","inputs":[{"name":"saleId","type":"uint256","indexed":true,"internalType":"uint256"},{"name":"seller","type":"address","indexed":true,"internalType":"address"},{"name":"assetToken","type":"address","indexed":false,"internalType":"address"},{"name":"amount","type":"uint256","indexed":false,"internalType":"uint256"},{"name":"askPricePerUnit","type":"uint256","indexed":false,"internalType":"uint256"}],"anonymous":false},{"type":"error","name":"AccessControlBadConfirmation","inputs":[]},{"type":"error","name":"AccessControlUnauthorizedAccount","inputs":[{"name":"account","type":"address","internalType":"address"},{"name":"neededRole","type":"bytes32","internalType":"bytes32"}]}],"bytecode":{"object":"0x60c0346100f357601f61286a38819003918201601f19168301916001600160401b038311848410176100f7578084926060946040528339810103126100f3578061004b6100929261010b565b90610064604061005d6020840161010b565b920161010b565b600180805560048190556007556001600160a01b039182166080521660a05261008c8161011f565b5061018b565b50604051612600908161022a82396080518181816102f80152818161065201528181610d8e0152818161112d015281816116a9015281816117e501528181611a9f0152611bf4015260a05181818161018201528181610afc0152610b500152f35b5f80fd5b634e487b7160e01b5f52604160045260245ffd5b51906001600160a01b03821682036100f357565b6001600160a01b03165f8181525f8051602061284a833981519152602052604090205460ff16610186575f8181525f8051602061284a83398151915260205260408120805460ff191660011790553391905f8051602061282a8339815191528180a4600190565b505f90565b6001600160a01b03165f8181527f7d7ffb7a348e1c6a02869081a26547b49160dd3df72d1d75a570eb9b698292ec60205260409020547fa49807205ce4d355092ef5a8a18f56e8913cf4a201fbe287825b095693c21775919060ff1661022357815f525f60205260405f20815f5260205260405f20600160ff1982541617905533915f8051602061282a8339815191525f80a4600190565b50505f9056fe6080806040526004361015610012575f80fd5b5f3560e01c90816301ffc9a714611fac575080630c6080ab14611e745780630d7d35571461199c5780631cb536ed146116d857806322be3de11461169457806322fcf27914611623578063248a9ca3146115f75780632b9efae0146114d05780632f2ff15d1461149457806336568abe1461144d578063719b5c701461109c57806372a3f9471461099f57806375b238fc146109655780637ae481a51461060a57806391d14854146105c2578063a217fddf146105a8578063b5f522f714610543578063c1dbdb30146104e4578063ce3762c914610265578063d547741f14610227578063d71d8702146101ce578063deb077b9146101b1578063e1fc685a1461016d578063e6b1c498146101505763fe400ae61461012f575f80fd5b3461014c575f36600319011261014c576020600754604051908152f35b5f80fd5b3461014c575f36600319011261014c576020600454604051908152f35b3461014c575f36600319011261014c576040517f00000000000000000000000000000000000000000000000000000000000000006001600160a01b03168152602090f35b3461014c575f36600319011261014c576020600154604051908152f35b3461014c57602036600319011261014c576004355f526008602052608060405f2060018060a01b038154169060018101549060ff6004600283015492015416916040519384526020840152604083015215156060820152f35b3461014c57604036600319011261014c57610263600435610246612015565b90805f525f60205261025e600160405f200154612489565b612544565b005b3461014c57606036600319011261014c576004356024359060443591815f526020926002845260405f2061029f60ff6004830154166122cd565b82151590816104d5575b50156104a357670de0b6b3a76400006102c28284612389565b6040516323b872dd60e01b81523360048201523060248201529190046044820181905293906001600160a01b039086816064815f7f000000000000000000000000000000000000000000000000000000000000000087165af18015610498575f90610462575b61033291506123d8565b60405161033e816120bf565b338152868101908582526040810185815260608201888152608083019160018352865f5260038b5260405f208054600160401b81101561044e5761038791600182018155612041565b95909561043b576103d09660049551166001600160601b0360a01b87541617865551600186015551600285015551600384015551151591019060ff801983541691151516179055565b805f526003855260405f2054935f1985019485116104275784926040519485528685015260408401527f3cff5bd25a3051a9858f0497bfcc9aa76130b249c02ebc52db96bdca47c3f04960603394a4604051908152f35b634e487b7160e01b5f52601160045260245ffd5b634e487b7160e01b5f525f60045260245ffd5b634e487b7160e01b5f52604160045260245ffd5b508681813d8311610491575b61047881836120f6565b8101031261014c5761048c61033291612342565b610328565b503d61046e565b6040513d5f823e3d90fd5b60405162461bcd60e51b815260048101859052600a60248201526918985908185b5bdd5b9d60b21b6044820152606490fd5b600291500154821115856102a9565b3461014c57602036600319011261014c576004355f52600560205261022060405f2060018060a01b038154169061053960ff600e61052460018501612144565b93015416916040519384526020840190612208565b1515610200820152f35b3461014c57602036600319011261014c576004355f52600260205260a060405f20600180831b0390818154169160018201541690600281015460ff60046003840154930154169260405194855260208501526040840152606083015215156080820152f35b3461014c575f36600319011261014c5760206040515f8152f35b3461014c57604036600319011261014c576105db612015565b6004355f525f60205260405f209060018060a01b03165f52602052602060ff60405f2054166040519015158152f35b3461014c576101e036600319011261014c576004356001600160a01b0381169081900361014c5761063c903314612430565b6064356001600160a01b03811680820361014c577f00000000000000000000000000000000000000000000000000000000000000006001600160a01b03160361092b57604051606081018181106001600160401b0382111761044e57604052338152604051916106ab836120da565b6106b3611fff565b83526106bd612015565b602084015260443560408401526060830152608435608083015260a43560a083015260c43560c083015260e4356001600160401b038116810361014c5760e0830152610104356001600160401b038116810361014c57610100830152610124356101208301526101443561014083015261016435610160830152610184356001600160401b038116810361014c576101808301526101a4359161ffff8316830361014c576020926101a08201526101c4356101c082015282820152600160408201526108f56004549161078f836122bf565b600455825f5260058452600e6040805f20926101c060018060a01b038251166001600160601b0360a01b90818754161786556001860190898401519160018060a01b03835116828254161790556002870160018060a01b038b8401511682825416179055848201516003880155600487019060018060a01b03606084015116908254161790556080810151600587015560a0810151600687015560c08101516007870155600886016001600160401b0360e0830151168154906fffffffffffffffff0000000000000000610100850151881b16916fffffffffffffffffffffffffffffffff1916171790556101208101516009870155610140810151600a870155610160810151600b870155600c86016001600160401b036101808301511681549069ffff00000000000000006101a0850151881b169169ffffffffffffffffffff1916171790550151600d8501550151151591019060ff801983541691151516179055565b6040516044358152817f73e4f54226f6dc012a4333c92764b921aa8a749e289a8d0b562eb87ed96edf50843393a3604051908152f35b60405162461bcd60e51b81526020600482015260126024820152716d7573742070617920696e20737461626c6560701b6044820152606490fd5b3461014c575f36600319011261014c5760206040517fa49807205ce4d355092ef5a8a18f56e8913cf4a201fbe287825b095693c217758152f35b3461014c57608036600319011261014c576044356001600160401b03811161014c576109cf903690600401612117565b6064356001600160401b03811161014c576109ee903690600401612117565b6004929192355f52600560205260405f2092610a1060ff600e8601541661239c565b610a2460018060a01b038554163314612430565b6004355f526006602052610a3d60243560405f2061206e565b5092610a4f60ff600386015416612308565b610a5b60018601612144565b84546001600160a01b03166020820152604051630f11fd4760e01b815296909387929091610aa491610a906004860188612208565b6102406101e4860152610244850191612469565b8281036003190161020484015260018601545f9291610ac282612087565b80825291600181169081156110765750600114611030575b50508291610af79160209560031985840301610224860152612469565b03815f7f00000000000000000000000000000000000000000000000000000000000000006001600160a01b03165af1938415610498575f94610ffb575b506040908101519051637b10399960e01b8152906020826004817f00000000000000000000000000000000000000000000000000000000000000006001600160a01b03165afa918215610498575f92610fb7575b50604051631d591eb760e31b81526004810191909152905f90829060249082906001600160a01b03165afa908115610498575f91610e9a575b5060a081015115610e6557608001516002820154604051634b88b8ad60e11b815293916001600160a01b0316906020856004815f865af1948515610498575f95610e31575b507f77b822005423889fa74a38ccae3a7a8711ee267ba4d186620471635f501523ea6040600754968793610c39856122bf565b600755845f526008602052825f20866001600160601b0360a01b8254161781558260018201558160028201556004600160ff1982840154161791015582519182526020820152a360ff196003830154166003830155600e60ff19818301541691015560018060a01b03905416604051838152602435907f3e44f8a8cda28678d6b201fe31fa4fd406ec9fde581d80d7439edd23b85d9596602060043592a46004355f52600660205260405f20915f5b8354811015610e21576024358114610e195760ff6003610d08838761206e565b50015416610d1b575b6001905b01610ce8565b806003610d2b610d89938761206e565b5001805460ff191690556020610d41828761206e565b50546001600160a01b03166002610d58848961206e565b50015460405163a9059cbb60e01b81526001600160a01b039092166004830152602482015292839081906044820190565b03815f7f00000000000000000000000000000000000000000000000000000000000000006001600160a01b03165af1918215610498575f92610dd9575b50610dd260019261234f565b9050610d11565b91506020823d602011610e11575b81610df4602093836120f6565b8101031261014c57610dd2610e0a600193612342565b9250610dc6565b3d9150610de7565b600190610d15565b5060409182519182526020820152f35b9094506020813d602011610e5d575b81610e4d602093836120f6565b8101031261014c57519386610c06565b3d9150610e40565b60405162461bcd60e51b815260206004820152600d60248201526c6173736574202165786973747360981b6044820152606490fd5b90503d805f833e610eab81836120f6565b602082828101031261014c578151916001600160401b03831161014c5760c0838201838301031261014c57604051928360c08101106001600160401b0360c08601111761044e5760c0840160405281810180518552610f0c906020016125b6565b60208501528181016040818101519086015260600151916001600160401b03831161014c57838101601f848484010101121561014c5782828201015193610f5285612415565b90610f6060405192836120f6565b8582528201602086868686010101011161014c575f602086610fac978260a09888880101018386015e830101526060860152610fa06080838301016125b6565b60808601520101612342565b60a082015284610bc1565b9091506020813d602011610ff3575b81610fd3602093836120f6565b8101031261014c57516001600160a01b038116810361014c57905f610b88565b3d9150610fc6565b9093506020813d602011611028575b81611017602093836120f6565b8101031261014c5751926040610b34565b3d915061100a565b949250600187015f5260205f20905f915b81831061105a5750929401602001915083610af7610ada565b805460208885018101919091528b965090920191600101611041565b60ff191660208381019190915292151560051b9091019091019250849050610af7610ada565b3461014c57606036600319011261014c576001600160401b036024600435813583811161014c576110d1903690600401612117565b60449291923592825f52602095600587526110f560ff600e60405f2001541661239c565b841561141f576040516323b872dd60e01b8152336004820152306024820152604481018690526001600160a01b03929088816064815f7f000000000000000000000000000000000000000000000000000000000000000089165af18015610498575f906113e9575b61116791506123d8565b6040519360808501858110848211176113d65760405233855261118981612415565b9161119760405193846120f6565b818352368282011161014c57815f928b92838601378301015287840190815260408401918683526060850193600190818652875f5260068b5260405f20805490600160401b8210156113c357906111f291848201815561206e565b9790976113b15751166001600160601b0360a01b8754161786558086019251805192831161139e576112248454612087565b601f8111611358575b508a90601f84116001146112e957928061127d989795938193600398965f946112de575b50501b915f1990871b1c19161790555b51600284015551151591019060ff801983541691151516179055565b805f526006845260405f2054925f1984019384116112cb575082906040519283527f4d926c7447ed310dcc37cf2962fd0aa7527c47ee21c87f50aa6f9b2005da3822853394a4604051908152f35b634e487b7160e01b5f9081526011600452fd5b015192508e80611251565b5f8581528c8120939493929190601f198516908e5b828210611341575050916003979593918561127d9b9a9896941061132a575b505050811b019055611261565b01515f1983891b60f8161c191690558c808061131d565b8088869782949787015181550196019401906112fe565b845f528b5f20601f850160051c8101918d8610611394575b601f0160051c019083905b82811061138957505061122d565b5f815501839061137b565b9091508190611370565b89634e487b7160e01b5f5260416004525ffd5b8a634e487b7160e01b5f525f6004525ffd5b8b634e487b7160e01b5f5260416004525ffd5b88634e487b7160e01b5f5260416004525ffd5b508881813d8311611418575b6113ff81836120f6565b8101031261014c5761141361116791612342565b61115d565b503d6113f5565b60405162461bcd60e51b81526004810188905260078188015266066756e64733d360cc1b6044820152606490fd5b3461014c57604036600319011261014c57611466612015565b336001600160a01b038216036114825761026390600435612544565b60405163334bd91960e11b8152600490fd5b3461014c57604036600319011261014c576102636004356114b3612015565b90805f525f6020526114cb600160405f200154612489565b6124c8565b3461014c576114de3661202b565b905f526020906006825260405f2090815481101561014c576114ff9161206e565b5060018060a01b03815416600180830192604051905f948681549461152386612087565b92838652828601966001811690815f146115d7575060011461159b575b505050506115528260a09603836120f6565b60ff600360028301549201541691608060405197889687528601525180938160808701528686015e5f848401860152604084015215156060830152601f01601f19168101030190f35b5f90815282812092985092915b8284106115c4575050508201909401936115528660a084611540565b80548685018a01529288019281016115a8565b60ff1916885250505090151560051b83010194506115528660a084611540565b3461014c57602036600319011261014c576004355f525f6020526020600160405f200154604051908152f35b3461014c576116313661202b565b905f52600360205260405f20805482101561014c5760a09161165291612041565b50600180831b0381541690600181015490600281015460ff60046003840154930154169260405194855260208501526040840152606083015215156080820152f35b3461014c575f36600319011261014c576040517f00000000000000000000000000000000000000000000000000000000000000006001600160a01b03168152602090f35b3461014c5760208060031936011261014c57600435805f526008825260405f209160ff6004840154161561196f576003830192335f5283825260ff60405f205416611940578054600182015460405163277166bf60e11b8152336004820152602481018290526001600160a01b039392841692908581604481875afa9283156104985786915f9461190f575b50602460405180968193630981b24d60e41b835260048301525afa928315610498575f936118e0575b5082156118af579060026117a2920154612389565b335f8181529685526040808820805460ff191660011790555163a9059cbb60e01b81526004810191909152919004602482018190529490918391839160449183917f0000000000000000000000000000000000000000000000000000000000000000165af1908115610498575f9161187a575b5015611848577fb9e8470097faa00e83252475f2ee4b69007b0bb2405268ebec248676998a21b3906040519384523393a3005b6064906040519062461bcd60e51b82526004820152600b60248201526a1c185e5bdd5d0819985a5b60aa1b6044820152fd5b90508181813d83116118a8575b61189181836120f6565b8101031261014c576118a290612342565b84611815565b503d611887565b60405162461bcd60e51b81526004810186905260096024820152686e6f20737570706c7960b81b6044820152606490fd5b9092508481813d8311611908575b6118f881836120f6565b8101031261014c5751918761178d565b503d6118ee565b8281939295503d8311611939575b61192781836120f6565b8101031261014c578590519289611764565b503d61191d565b60405162461bcd60e51b815260048101839052600760248201526618db185a5b595960ca1b6044820152606490fd5b6064906040519062461bcd60e51b825260048201526006602482015265085c9bdd5b9960d21b6044820152fd5b3461014c576119aa3661202b565b815f52600260205260405f206119c660ff6004830154166122cd565b80546001600160a01b03169033829003611e4257835f5260036020526119ef8360405f20612041565b5091611a0160ff600485015416612308565b60018301549060028301548211611e0757600183015484546040516323b872dd60e01b81526001600160a01b03938416600482015290831660248201526044810193909352602091839160649183915f91165af1908115610498575f91611dcd575b5015611d92578054600383015460405163a9059cbb60e01b81526001600160a01b0390921660048301526024820152602081806044810103815f7f00000000000000000000000000000000000000000000000000000000000000006001600160a01b03165af1908115610498575f91611d58575b5015611d215760048201805460ff19169055600182015460028201548181038110610427578493869383837ff4e5f9f5efae8550551db9ef3a16a522ecc6df6dd3ed0fbcc51fdccd9028739e9560209503600284015514611d10575b50546040516001600160a01b039091168152a3815f52600360205260405f20915f5b835481101561026357828114611d085760ff6004611b738387612041565b50015416611b86575b6001905b01611b55565b6003611b928286612041565b500154906004611ba28287612041565b5001805460ff19169055611bef602083611bbc8489612041565b505460405163a9059cbb60e01b81526001600160a01b039091166004820152602481019190915291829081906044820190565b03815f7f00000000000000000000000000000000000000000000000000000000000000006001600160a01b03165af180156104985784915f91611c9f575b50907f108e241fa2e599bc4e4938b2ff76a3a88173b257084902656d2ff9abeba9965b600194611c5d859461234f565b611c67848a612041565b50868060a01b03905416611c956040519283928360209093929193604081019460018060a01b031681520152565b0390a39050611b7c565b9150506020813d602011611d00575b81611cbb602093836120f6565b8101031261014c57837f108e241fa2e599bc4e4938b2ff76a3a88173b257084902656d2ff9abeba9965b600194611c5d611cf58695612342565b939450509450611c2d565b3d9150611cae565b600190611b80565b600401805460ff1916905587611b33565b60405162461bcd60e51b815260206004820152600f60248201526e1c185e481cd95b1b195c8819985a5b608a1b6044820152606490fd5b90506020813d602011611d8a575b81611d73602093836120f6565b8101031261014c57611d8490612342565b85611ad7565b3d9150611d66565b60405162461bcd60e51b8152602060048201526013602482015272185cdcd95d081d1c985b9cd9995c8819985a5b606a1b6044820152606490fd5b90506020813d602011611dff575b81611de8602093836120f6565b8101031261014c57611df990612342565b85611a63565b3d9150611ddb565b60405162461bcd60e51b8152602060048201526013602482015272195e18d959591cc81cd85b1948185b5bdd5b9d606a1b6044820152606490fd5b60405162461bcd60e51b815260206004820152600a6024820152693737ba1039b2b63632b960b11b6044820152606490fd5b3461014c57606036600319011261014c57611e8d611fff565b602435604435918115611f7c5760209260015492611eaa846122bf565b600155611f3e604051611ebc816120bf565b33815260048782019560018060a01b03809116968781526040840186815260608501918883526080860193600185528b5f5260028d528060405f20975116906001600160601b0360a01b9182895416178855600188019251169082541617905551600285015551600384015551151591019060ff801983541691151516179055565b604051928352848301526040820152817f520c2a9f34931d151a720ce9093d6b0e201a6680758bedb704b0b0282a35957260603393a3604051908152f35b60405162461bcd60e51b81526020600482015260086024820152670616d6f756e743d360c41b6044820152606490fd5b3461014c57602036600319011261014c576004359063ffffffff60e01b821680920361014c57602091637965db0b60e01b8114908115611fee575b5015158152f35b6301ffc9a760e01b14905083611fe7565b600435906001600160a01b038216820361014c57565b602435906001600160a01b038216820361014c57565b604090600319011261014c576004359060243590565b805482101561205a575f52600560205f20910201905f90565b634e487b7160e01b5f52603260045260245ffd5b805482101561205a575f5260205f209060021b01905f90565b90600182811c921680156120b5575b60208310146120a157565b634e487b7160e01b5f52602260045260245ffd5b91607f1691612096565b60a081019081106001600160401b0382111761044e57604052565b6101e081019081106001600160401b0382111761044e57604052565b90601f801991011681019081106001600160401b0382111761044e57604052565b9181601f8401121561014c578235916001600160401b03831161014c576020838186019501011161014c57565b90604051612151816120da565b6101c0600c829460018060a01b0380825416855280600183015416602086015260028201546040860152600382015416606085015260048101546080850152600581015460a0850152600681015460c085015261ffff60078201546001600160401b03818180931660e089015260401c1661010087015260088301546101208701526009830154610140870152600a830154610160870152600b83015490811661018087015260401c166101a08501520154910152565b60018060a01b038082511683528060208301511660208401526040820151604084015260608201511660608301526080810151608083015260a081015160a083015260c081015160c083015260e08101516001600160401b0380911660e084015261010081818401511690840152610120808301519084015261014080830151908401526101608083015190840152610180908183015116908301526101a061ffff8183015116908301526101c080910151910152565b5f1981146104275760010190565b156122d457565b60405162461bcd60e51b815260206004820152600c60248201526b73616c65202161637469766560a01b6044820152606490fd5b1561230f57565b60405162461bcd60e51b815260206004820152600b60248201526a626964202161637469766560a81b6044820152606490fd5b5190811515820361014c57565b1561235657565b60405162461bcd60e51b815260206004820152600b60248201526a1c99599d5b990819985a5b60aa1b6044820152606490fd5b8181029291811591840414171561042757565b156123a357565b60405162461bcd60e51b815260206004820152600d60248201526c6f66666572202161637469766560981b6044820152606490fd5b156123df57565b60405162461bcd60e51b815260206004820152600e60248201526d199d5b99081e19995c8819985a5b60921b6044820152606490fd5b6001600160401b03811161044e57601f01601f191660200190565b1561243757565b60405162461bcd60e51b815260206004820152600a6024820152693737ba103632b9b9b7b960b11b6044820152606490fd5b908060209392818452848401375f828201840152601f01601f1916010190565b805f525f60205260405f20335f5260205260ff60405f205416156124aa5750565b6044906040519063e2517d3f60e01b82523360048301526024820152fd5b90815f525f60205260405f209060018060a01b031690815f5260205260ff60405f205416155f1461253e57815f525f60205260405f20815f5260205260405f20600160ff1982541617905533917f2f8788117e7eff1d82e926ec794901d17c78024a50270940304540a733656f0d5f80a4600190565b50505f90565b90815f525f60205260405f209060018060a01b031690815f5260205260ff60405f2054165f1461253e57815f525f60205260405f20815f5260205260405f2060ff19815416905533917ff6391f5c32d9c69d2a47ea670b442974b53935d1edc7fd64eb21e047a839171b5f80a4600190565b51906001600160a01b038216820361014c5756fea264697066735822122020efb4cfe26b0e353e9f525afc9eef340e26b8002afeb0732657c0932f26313264736f6c634300081900332f8788117e7eff1d82e926ec794901d17c78024a50270940304540a733656f0dad3228b676f7d3cd4284a5443f17f1962b36e491b30a40b2405849e597ba5fb5","linkReferences":{}},"methodIdentifiers":{"ADMIN_ROLE()":"75b238fc","DEFAULT_ADMIN_ROLE()":"a217fddf","acceptLeaseBid(uint256,uint256,bytes,string)":"72a3f947","acceptSaleBid(uint256,uint256)":"0d7d3557","claimRevenue(uint256)":"1cb536ed","getRevenueRound(uint256)":"d71d8702","getRoleAdmin(bytes32)":"248a9ca3","grantRole(bytes32,address)":"2f2ff15d","hasRole(bytes32,address)":"91d14854","leaseBids(uint256,uint256)":"2b9efae0","leaseFactory()":"e1fc685a","leaseOffers(uint256)":"c1dbdb30","nextLeaseOfferId()":"e6b1c498","nextRevenueRoundId()":"fe400ae6","nextSaleId()":"deb077b9","placeLeaseBid(uint256,bytes,uint256)":"719b5c70","placeSaleBid(uint256,uint256,uint256)":"ce3762c9","postLeaseOffer((address,address,uint256,address,uint256,uint256,uint256,uint64,uint64,bytes32,bytes32,uint256,uint64,uint16,bytes32))":"7ae481a5","postSale(address,uint256,uint256)":"0c6080ab","renounceRole(bytes32,address)":"36568abe","revokeRole(bytes32,address)":"d547741f","saleBids(uint256,uint256)":"22fcf279","sales(uint256)":"b5f522f7","stable()":"22be3de1","supportsInterface(bytes4)":"01ffc9a7"},"id":56}